{
  "_format": "hh-sol-artifact-1",
  "contractName": "FakeGauge",
  "sourceName": "contracts/FakeGauge.sol",
  "abi": [
    {
      "inputs": [
        {
          "internalType": "contract IERC20",
          "name": "_token",
          "type": "address"
        }
      ],
      "stateMutability": "nonpayable",
      "type": "constructor"
    },
    {
      "inputs": [
        {
          "internalType": "uint256",
          "name": "amount",
          "type": "uint256"
        }
      ],
      "name": "deposit",
      "outputs": [],
      "stateMutability": "nonpayable",
      "type": "function"
    }
  ],
  "bytecode": "0x608060405234801561001057600080fd5b5060405161048a38038061048a8339818101604052602081101561003357600080fd5b5051600080546001600160a01b039092166001600160a01b0319909216919091179055610425806100656000396000f3fe608060405234801561001057600080fd5b506004361061002b5760003560e01c8063b6b55f2514610030575b600080fd5b61004d6004803603602081101561004657600080fd5b503561004f565b005b600054610067906001600160a01b031633308461006a565b50565b604080516001600160a01b0380861660248301528416604482015260648082018490528251808303909101815260849091019091526020810180516001600160e01b03166323b872dd60e01b1790526100c49085906100ca565b50505050565b606061011f826040518060400160405280602081526020017f5361666545524332303a206c6f772d6c6576656c2063616c6c206661696c6564815250856001600160a01b03166101809092919063ffffffff16565b80519091501561017b5780806020019051602081101561013e57600080fd5b505161017b5760405162461bcd60e51b815260040180806020018281038252602a8152602001806103c6602a913960400191505060405180910390fd5b505050565b606061018f8484600085610199565b90505b9392505050565b6060824710156101da5760405162461bcd60e51b81526004018080602001828103825260268152602001806103a06026913960400191505060405180910390fd5b6101e3856102f5565b610234576040805162461bcd60e51b815260206004820152601d60248201527f416464726573733a2063616c6c20746f206e6f6e2d636f6e7472616374000000604482015290519081900360640190fd5b60006060866001600160a01b031685876040518082805190602001908083835b602083106102735780518252601f199092019160209182019101610254565b6001836020036101000a03801982511681845116808217855250505050505090500191505060006040518083038185875af1925050503d80600081146102d5576040519150601f19603f3d011682016040523d82523d6000602084013e6102da565b606091505b50915091506102ea8282866102fb565b979650505050505050565b3b151590565b6060831561030a575081610192565b82511561031a5782518084602001fd5b8160405162461bcd60e51b81526004018080602001828103825283818151815260200191508051906020019080838360005b8381101561036457818101518382015260200161034c565b50505050905090810190601f1680156103915780820380516001836020036101000a031916815260200191505b509250505060405180910390fdfe416464726573733a20696e73756666696369656e742062616c616e636520666f722063616c6c5361666545524332303a204552433230206f7065726174696f6e20646964206e6f742073756363656564a26469706673582212204e3765ae4e09382d1bb4a510b03b6cd0d546934bcbe64f6384318a8252f1edac64736f6c634300060c0033",
  "linkReferences": {},
  "deployedLinkReferences": {}
}