{
  "_format": "hh-sol-artifact-1",
  "contractName": "ClaimZap",
  "sourceName": "contracts/ClaimZap.sol",
  "abi": [
    {
      "inputs": [
        {
          "internalType": "address",
          "name": "_kgl",
          "type": "address"
        },
        {
          "internalType": "address",
          "name": "_muuu",
          "type": "address"
        },
        {
          "internalType": "address",
          "name": "_muKgl",
          "type": "address"
        },
        {
          "internalType": "address",
          "name": "_kglDeposit",
          "type": "address"
        },
        {
          "internalType": "address",
          "name": "_muKglRewards",
          "type": "address"
        },
        {
          "internalType": "address",
          "name": "_muuuRewards",
          "type": "address"
        },
        {
          "internalType": "address",
          "name": "_exchange",
          "type": "address"
        },
        {
          "internalType": "address",
          "name": "_locker",
          "type": "address"
        }
      ],
      "stateMutability": "nonpayable",
      "type": "constructor"
    },
    {
      "anonymous": false,
      "inputs": [
        {
          "indexed": true,
          "internalType": "address",
          "name": "previousOwner",
          "type": "address"
        },
        {
          "indexed": true,
          "internalType": "address",
          "name": "newOwner",
          "type": "address"
        }
      ],
      "name": "OwnershipTransferred",
      "type": "event"
    },
    {
      "inputs": [
        {
          "internalType": "address[]",
          "name": "rewardContracts",
          "type": "address[]"
        },
        {
          "internalType": "address[]",
          "name": "extraRewardContracts",
          "type": "address[]"
        },
        {
          "internalType": "address[]",
          "name": "tokenRewardContracts",
          "type": "address[]"
        },
        {
          "internalType": "address[]",
          "name": "tokenRewardTokens",
          "type": "address[]"
        },
        {
          "internalType": "uint256",
          "name": "depositKglMaxAmount",
          "type": "uint256"
        },
        {
          "internalType": "uint256",
          "name": "minAmountOut",
          "type": "uint256"
        },
        {
          "internalType": "uint256",
          "name": "depositMuuuMaxAmount",
          "type": "uint256"
        },
        {
          "internalType": "uint256",
          "name": "spendMuuuAmount",
          "type": "uint256"
        },
        {
          "internalType": "uint256",
          "name": "options",
          "type": "uint256"
        }
      ],
      "name": "claimRewards",
      "outputs": [],
      "stateMutability": "nonpayable",
      "type": "function"
    },
    {
      "inputs": [],
      "name": "exchange",
      "outputs": [
        {
          "internalType": "address",
          "name": "",
          "type": "address"
        }
      ],
      "stateMutability": "view",
      "type": "function"
    },
    {
      "inputs": [],
      "name": "getName",
      "outputs": [
        {
          "internalType": "string",
          "name": "",
          "type": "string"
        }
      ],
      "stateMutability": "pure",
      "type": "function"
    },
    {
      "inputs": [],
      "name": "kgl",
      "outputs": [
        {
          "internalType": "address",
          "name": "",
          "type": "address"
        }
      ],
      "stateMutability": "view",
      "type": "function"
    },
    {
      "inputs": [],
      "name": "kglDeposit",
      "outputs": [
        {
          "internalType": "address",
          "name": "",
          "type": "address"
        }
      ],
      "stateMutability": "view",
      "type": "function"
    },
    {
      "inputs": [],
      "name": "locker",
      "outputs": [
        {
          "internalType": "address",
          "name": "",
          "type": "address"
        }
      ],
      "stateMutability": "view",
      "type": "function"
    },
    {
      "inputs": [],
      "name": "muKgl",
      "outputs": [
        {
          "internalType": "address",
          "name": "",
          "type": "address"
        }
      ],
      "stateMutability": "view",
      "type": "function"
    },
    {
      "inputs": [],
      "name": "muKglRewards",
      "outputs": [
        {
          "internalType": "address",
          "name": "",
          "type": "address"
        }
      ],
      "stateMutability": "view",
      "type": "function"
    },
    {
      "inputs": [],
      "name": "muuu",
      "outputs": [
        {
          "internalType": "address",
          "name": "",
          "type": "address"
        }
      ],
      "stateMutability": "view",
      "type": "function"
    },
    {
      "inputs": [],
      "name": "muuuRewards",
      "outputs": [
        {
          "internalType": "address",
          "name": "",
          "type": "address"
        }
      ],
      "stateMutability": "view",
      "type": "function"
    },
    {
      "inputs": [],
      "name": "owner",
      "outputs": [
        {
          "internalType": "address",
          "name": "",
          "type": "address"
        }
      ],
      "stateMutability": "view",
      "type": "function"
    },
    {
      "inputs": [],
      "name": "renounceOwnership",
      "outputs": [],
      "stateMutability": "nonpayable",
      "type": "function"
    },
    {
      "inputs": [],
      "name": "setApprovals",
      "outputs": [],
      "stateMutability": "nonpayable",
      "type": "function"
    },
    {
      "inputs": [
        {
          "internalType": "address",
          "name": "newOwner",
          "type": "address"
        }
      ],
      "name": "transferOwnership",
      "outputs": [],
      "stateMutability": "nonpayable",
      "type": "function"
    }
  ],
  "bytecode": "0x608060405234801561001057600080fd5b50604051611830380380611830833981810160405261010081101561003457600080fd5b508051602082015160408301516060840151608085015160a086015160c087015160e090970151959694959394929391929091600061007161014c565b600080546001600160a01b0319166001600160a01b0383169081178255604051929350917f8be0079c531659141344cd1fd0a4f28419497f9722a3daafe3b4186f6b6457e0908290a350600180546001600160a01b03199081166001600160a01b039a8b1617909155600280548216988a1698909817909755600380548816968916969096179095556004805487169488169490941790935560058054861692871692909217909155600680548516918616919091179055600780548416918516919091179055600880549092169216919091179055610150565b3390565b6116d18061015f6000396000f3fe608060405234801561001057600080fd5b50600436106100ea5760003560e01c80638da5cb5b1161008c578063d782139a11610066578063d782139a14610341578063d7b96d4e14610349578063f2f6a6b614610351578063f2fde38b14610359576100ea565b80638da5cb5b14610329578063d2f7265a14610331578063d52350ff14610339576100ea565b80634671be0b116100c85780634671be0b146101985780635a7b87f2146101a0578063715018a6146103195780638757b15b14610321576100ea565b806317d7de7c146100ef578063236dcb631461016c57806324ccf48714610190575b600080fd5b6100f761037f565b6040805160208082528351818301528351919283929083019185019080838360005b83811015610131578181015183820152602001610119565b50505050905090810190601f16801561015e5780820380516001836020036101000a031916815260200191505b509250505060405180910390f35b6101746103a6565b604080516001600160a01b039092168252519081900360200190f35b6101746103b5565b6101746103c4565b61031760048036036101208110156101b757600080fd5b810190602081018135600160201b8111156101d157600080fd5b8201836020820111156101e357600080fd5b803590602001918460208302840111600160201b8311171561020457600080fd5b919390929091602081019035600160201b81111561022157600080fd5b82018360208201111561023357600080fd5b803590602001918460208302840111600160201b8311171561025457600080fd5b919390929091602081019035600160201b81111561027157600080fd5b82018360208201111561028357600080fd5b803590602001918460208302840111600160201b831117156102a457600080fd5b919390929091602081019035600160201b8111156102c157600080fd5b8201836020820111156102d357600080fd5b803590602001918460208302840111600160201b831117156102f457600080fd5b9193509150803590602081013590604081013590606081013590608001356103d3565b005b6103176106ee565b6103176107ac565b610174610953565b610174610962565b610174610971565b610174610980565b61017461098f565b61017461099e565b6103176004803603602081101561036f57600080fd5b50356001600160a01b03166109ad565b60408051808201909152600d81526c0436c61696d5a61702056322e3609c1b602082015290565b6003546001600160a01b031681565b6005546001600160a01b031681565b6006546001600160a01b031681565b600154604080516370a0823160e01b815233600482015290516000926001600160a01b0316916370a08231916024808301926020929190829003018186803b15801561041e57600080fd5b505afa158015610432573d6000803e3d6000fd5b505050506040513d602081101561044857600080fd5b5051600254604080516370a0823160e01b815233600482015290519293506000926001600160a01b03909216916370a0823191602480820192602092909190829003018186803b15801561049b57600080fd5b505afa1580156104af573d6000803e3d6000fd5b505050506040513d60208110156104c557600080fd5b5051905060005b8e81101561056d578f8f828181106104e057fe5b905060200201356001600160a01b03166001600160a01b0316637050ccd93360016040518363ffffffff1660e01b815260040180836001600160a01b03168152602001821515815260200192505050600060405180830381600087803b15801561054957600080fd5b505af115801561055d573d6000803e3d6000fd5b5050600190920191506104cc9050565b5060005b8c811015610607578d8d8281811061058557fe5b905060200201356001600160a01b03166001600160a01b031663c00007b0336040518263ffffffff1660e01b815260040180826001600160a01b03168152602001915050600060405180830381600087803b1580156105e357600080fd5b505af11580156105f7573d6000803e3d6000fd5b5050600190920191506105719050565b5060005b8a8110156106cd578b8b8281811061061f57fe5b905060200201356001600160a01b03166001600160a01b0316636b091695338c8c8581811061064a57fe5b905060200201356001600160a01b03166040518363ffffffff1660e01b815260040180836001600160a01b03168152602001826001600160a01b0316815260200192505050600060405180830381600087803b1580156106a957600080fd5b505af11580156106bd573d6000803e3d6000fd5b50506001909201915061060b9050565b506106dd87878787868689610ac1565b505050505050505050505050505050565b6106f6611126565b6001600160a01b0316610707610953565b6001600160a01b031614610762576040805162461bcd60e51b815260206004820181905260248201527f4f776e61626c653a2063616c6c6572206973206e6f7420746865206f776e6572604482015290519081900360640190fd5b600080546040516001600160a01b03909116907f8be0079c531659141344cd1fd0a4f28419497f9722a3daafe3b4186f6b6457e0908390a3600080546001600160a01b0319169055565b6107b4611126565b6001600160a01b03166107c5610953565b6001600160a01b031614610820576040805162461bcd60e51b815260206004820181905260248201527f4f776e61626c653a2063616c6c6572206973206e6f7420746865206f776e6572604482015290519081900360640190fd5b60045460015461083e916001600160a01b039182169116600061112a565b60045460015461085d916001600160a01b03918216911660001961112a565b60075460015461087b916001600160a01b039182169116600061112a565b60075460015461089a916001600160a01b03918216911660001961112a565b6006546002546108b8916001600160a01b039182169116600061112a565b6006546002546108d7916001600160a01b03918216911660001961112a565b6005546003546108f5916001600160a01b039182169116600061112a565b600554600354610914916001600160a01b03918216911660001961112a565b600854600254610932916001600160a01b039182169116600061112a565b600854600254610951916001600160a01b03918216911660001961112a565b565b6000546001600160a01b031690565b6007546001600160a01b031681565b6004546001600160a01b031681565b6001546001600160a01b031681565b6008546001600160a01b031681565b6002546001600160a01b031681565b6109b5611126565b6001600160a01b03166109c6610953565b6001600160a01b031614610a21576040805162461bcd60e51b815260206004820181905260248201527f4f776e61626c653a2063616c6c6572206973206e6f7420746865206f776e6572604482015290519081900360640190fd5b6001600160a01b038116610a665760405162461bcd60e51b81526004018080602001828103825260268152602001806115f06026913960400191505060405180910390fd5b600080546040516001600160a01b03808516939216917f8be0079c531659141344cd1fd0a4f28419497f9722a3daafe3b4186f6b6457e091a3600080546001600160a01b0319166001600160a01b0392909216919091179055565b610acd8160015b611242565b15610b495760065460408051633e69b9d960e21b8152336004820152600160248201819052604482015290516001600160a01b039092169163f9a6e7649160648082019260009290919082900301818387803b158015610b2c57600080fd5b505af1158015610b40573d6000803e3d6000fd5b50505050610bcb565b610b54816000610ac8565b15610bcb5760065460408051633e69b9d960e21b81523360048201526001602482015260006044820181905291516001600160a01b039093169263f9a6e7649260648084019391929182900301818387803b158015610bb257600080fd5b505af1158015610bc6573d6000803e3d6000fd5b505050505b610bd6816002610ac8565b15610c475760055460408051637050ccd960e01b81523360048201526001602482015290516001600160a01b0390921691637050ccd99160448082019260009290919082900301818387803b158015610c2e57600080fd5b505af1158015610c42573d6000803e3d6000fd5b505050505b610c52816003610ac8565b15610cd5576008546001600160a01b0316637050ccd933610c74846004610ac8565b6040518363ffffffff1660e01b815260040180836001600160a01b03168152602001821515815260200192505050600060405180830381600087803b158015610cbc57600080fd5b505af1158015610cd0573d6000803e3d6000fd5b505050505b610ce0816006610ac8565b15610cee5760009250600091505b8615610fa257600154604080516370a0823160e01b81523360048201529051600092610d7a9287926001600160a01b03909216916370a0823191602480820192602092909190829003018186803b158015610d4857600080fd5b505afa158015610d5c573d6000803e3d6000fd5b505050506040513d6020811015610d7257600080fd5b50519061124c565b9050610d8681896112a9565b90508015610fa057600154610da6906001600160a01b03163330846112c1565b8615610e445760075460408051630f7c084960e21b81526000600482018190526001602483015260448201859052606482018b905291516001600160a01b0390931692633df0212492608480840193602093929083900390910190829087803b158015610e1257600080fd5b505af1158015610e26573d6000803e3d6000fd5b505050506040513d6020811015610e3c57600080fd5b50610eb99050565b6004546001600160a01b0316639a40832182610e61856005610ac8565b6040518363ffffffff1660e01b815260040180838152602001821515815260200192505050600060405180830381600087803b158015610ea057600080fd5b505af1158015610eb4573d6000803e3d6000fd5b505050505b600354604080516370a0823160e01b815230600482015290516000926001600160a01b0316916370a08231916024808301926020929190829003018186803b158015610f0457600080fd5b505afa158015610f18573d6000803e3d6000fd5b505050506040513d6020811015610f2e57600080fd5b5051600554604080516305dc812160e31b81523360048201526024810184905290519293506001600160a01b0390911691632ee409089160448082019260009290919082900301818387803b158015610f8657600080fd5b505af1158015610f9a573d6000803e3d6000fd5b50505050505b505b841561111d57600254604080516370a0823160e01b81523360048201529051600092610ffc9286926001600160a01b03909216916370a0823191602480820192602092909190829003018186803b158015610d4857600080fd5b905061100881876112a9565b9050801561111b57600254611028906001600160a01b03163330846112c1565b611033826007610ac8565b156110af576008546040805163e2ab691d60e01b8152336004820152602481018490526044810188905290516001600160a01b039092169163e2ab691d9160648082019260009290919082900301818387803b15801561109257600080fd5b505af11580156110a6573d6000803e3d6000fd5b5050505061111b565b600654604080516305dc812160e31b81523360048201526024810184905290516001600160a01b0390921691632ee409089160448082019260009290919082900301818387803b15801561110257600080fd5b505af1158015611116573d6000803e3d6000fd5b505050505b505b50505050505050565b3390565b8015806111b0575060408051636eb1769f60e11b81523060048201526001600160a01b03848116602483015291519185169163dd62ed3e91604480820192602092909190829003018186803b15801561118257600080fd5b505afa158015611196573d6000803e3d6000fd5b505050506040513d60208110156111ac57600080fd5b5051155b6111eb5760405162461bcd60e51b81526004018080602001828103825260368152602001806116666036913960400191505060405180910390fd5b604080516001600160a01b038416602482015260448082018490528251808303909101815260649091019091526020810180516001600160e01b031663095ea7b360e01b17905261123d908490611321565b505050565b6001901b16151590565b6000828211156112a3576040805162461bcd60e51b815260206004820152601e60248201527f536166654d6174683a207375627472616374696f6e206f766572666c6f770000604482015290519081900360640190fd5b50900390565b60008183106112b857816112ba565b825b9392505050565b604080516001600160a01b0380861660248301528416604482015260648082018490528251808303909101815260849091019091526020810180516001600160e01b03166323b872dd60e01b17905261131b908590611321565b50505050565b6060611376826040518060400160405280602081526020017f5361666545524332303a206c6f772d6c6576656c2063616c6c206661696c6564815250856001600160a01b03166113d29092919063ffffffff16565b80519091501561123d5780806020019051602081101561139557600080fd5b505161123d5760405162461bcd60e51b815260040180806020018281038252602a81526020018061163c602a913960400191505060405180910390fd5b60606113e184846000856113e9565b949350505050565b60608247101561142a5760405162461bcd60e51b81526004018080602001828103825260268152602001806116166026913960400191505060405180910390fd5b61143385611545565b611484576040805162461bcd60e51b815260206004820152601d60248201527f416464726573733a2063616c6c20746f206e6f6e2d636f6e7472616374000000604482015290519081900360640190fd5b60006060866001600160a01b031685876040518082805190602001908083835b602083106114c35780518252601f1990920191602091820191016114a4565b6001836020036101000a03801982511681845116808217855250505050505090500191505060006040518083038185875af1925050503d8060008114611525576040519150601f19603f3d011682016040523d82523d6000602084013e61152a565b606091505b509150915061153a82828661154b565b979650505050505050565b3b151590565b6060831561155a5750816112ba565b82511561156a5782518084602001fd5b8160405162461bcd60e51b81526004018080602001828103825283818151815260200191508051906020019080838360005b838110156115b457818101518382015260200161159c565b50505050905090810190601f1680156115e15780820380516001836020036101000a031916815260200191505b509250505060405180910390fdfe4f776e61626c653a206e6577206f776e657220697320746865207a65726f2061646472657373416464726573733a20696e73756666696369656e742062616c616e636520666f722063616c6c5361666545524332303a204552433230206f7065726174696f6e20646964206e6f7420737563636565645361666545524332303a20617070726f76652066726f6d206e6f6e2d7a65726f20746f206e6f6e2d7a65726f20616c6c6f77616e6365a2646970667358221220398af669499a19411cc06a92dd97b924a2c36591ea6545b47c3d6fd193ef529364736f6c634300060c0033",
  "linkReferences": {},
  "deployedLinkReferences": {}
}