{
  "_format": "hh-sol-artifact-1",
  "contractName": "RewardDeposit",
  "sourceName": "contracts/RewardDeposit.sol",
  "abi": [
    {
      "inputs": [
        {
          "internalType": "address",
          "name": "_operator",
          "type": "address"
        }
      ],
      "stateMutability": "nonpayable",
      "type": "constructor"
    },
    {
      "anonymous": false,
      "inputs": [
        {
          "indexed": true,
          "internalType": "address",
          "name": "token",
          "type": "address"
        },
        {
          "indexed": false,
          "internalType": "uint256",
          "name": "amount",
          "type": "uint256"
        }
      ],
      "name": "Deposit",
      "type": "event"
    },
    {
      "anonymous": false,
      "inputs": [
        {
          "indexed": true,
          "internalType": "address",
          "name": "user",
          "type": "address"
        },
        {
          "indexed": false,
          "internalType": "uint256",
          "name": "amount",
          "type": "uint256"
        }
      ],
      "name": "WithdrawTo",
      "type": "event"
    },
    {
      "inputs": [
        {
          "internalType": "address",
          "name": "_token",
          "type": "address"
        },
        {
          "internalType": "uint256",
          "name": "_amount",
          "type": "uint256"
        }
      ],
      "name": "depositNotify",
      "outputs": [],
      "stateMutability": "nonpayable",
      "type": "function"
    },
    {
      "inputs": [
        {
          "internalType": "address",
          "name": "_to",
          "type": "address"
        },
        {
          "internalType": "uint256",
          "name": "_value",
          "type": "uint256"
        },
        {
          "internalType": "bytes",
          "name": "_data",
          "type": "bytes"
        }
      ],
      "name": "execute",
      "outputs": [
        {
          "internalType": "bool",
          "name": "",
          "type": "bool"
        },
        {
          "internalType": "bytes",
          "name": "",
          "type": "bytes"
        }
      ],
      "stateMutability": "nonpayable",
      "type": "function"
    },
    {
      "inputs": [],
      "name": "operator",
      "outputs": [
        {
          "internalType": "address",
          "name": "",
          "type": "address"
        }
      ],
      "stateMutability": "view",
      "type": "function"
    },
    {
      "inputs": [
        {
          "internalType": "address",
          "name": "_op",
          "type": "address"
        }
      ],
      "name": "setOperator",
      "outputs": [],
      "stateMutability": "nonpayable",
      "type": "function"
    },
    {
      "inputs": [
        {
          "internalType": "contract IERC20",
          "name": "_asset",
          "type": "address"
        },
        {
          "internalType": "uint256",
          "name": "_amount",
          "type": "uint256"
        },
        {
          "internalType": "address",
          "name": "_to",
          "type": "address"
        }
      ],
      "name": "withdrawTo",
      "outputs": [],
      "stateMutability": "nonpayable",
      "type": "function"
    }
  ],
  "bytecode": "0x608060405234801561001057600080fd5b5060405161083e38038061083e8339818101604052602081101561003357600080fd5b5051600080546001600160a01b039092166001600160a01b03199092169190911790556107d9806100656000396000f3fe608060405234801561001057600080fd5b50600436106100575760003560e01c8063570ca7351461005c578063a1db33f614610080578063b3ab15fb146100ae578063b61d27f6146100d4578063c4e2c1e6146101da575b600080fd5b610064610210565b604080516001600160a01b039092168252519081900360200190f35b6100ac6004803603604081101561009657600080fd5b506001600160a01b03813516906020013561021f565b005b6100ac600480360360208110156100c457600080fd5b50356001600160a01b0316610262565b610159600480360360608110156100ea57600080fd5b6001600160a01b038235169160208101359181019060608101604082013564010000000081111561011a57600080fd5b82018360208201111561012c57600080fd5b8035906020019184600183028401116401000000008311171561014e57600080fd5b5090925090506102cb565b60405180831515815260200180602001828103825283818151815260200191508051906020019080838360005b8381101561019e578181015183820152602001610186565b50505050905090810190601f1680156101cb5780820380516001836020036101000a031916815260200191505b50935050505060405180910390f35b6100ac600480360360608110156101f057600080fd5b506001600160a01b0381358116916020810135916040909101351661038d565b6000546001600160a01b031681565b6040805182815290516001600160a01b038416917fe1fffcc4923d04b559f4d29a8bfc6cda04eb5b0d3c460751c2402c5c5cc9109c919081900360200190a25050565b6000546001600160a01b031633146102a9576040805162461bcd60e51b8152602060048201526005602482015264042c2eae8d60db1b604482015290519081900360640190fd5b600080546001600160a01b0319166001600160a01b0392909216919091179055565b600080546060906001600160a01b03163314610316576040805162461bcd60e51b8152602060048201526005602482015264042c2eae8d60db1b604482015290519081900360640190fd5b60006060876001600160a01b0316878787604051808383808284376040519201945060009350909150508083038185875af1925050503d8060008114610378576040519150601f19603f3d011682016040523d82523d6000602084013e61037d565b606091505b5090999098509650505050505050565b6000546001600160a01b031633146103d4576040805162461bcd60e51b8152602060048201526005602482015264042c2eae8d60db1b604482015290519081900360640190fd5b6103e86001600160a01b038416828461042c565b6040805183815290516001600160a01b038316917f47096d7b247e809edf18e9bccfcb92f2af426ce8e6b40c923e65cb1b8394cef7919081900360200190a2505050565b604080516001600160a01b038416602482015260448082018490528251808303909101815260649091019091526020810180516001600160e01b031663a9059cbb60e01b17905261047e908490610483565b505050565b60606104d8826040518060400160405280602081526020017f5361666545524332303a206c6f772d6c6576656c2063616c6c206661696c6564815250856001600160a01b03166105349092919063ffffffff16565b80519091501561047e578080602001905160208110156104f757600080fd5b505161047e5760405162461bcd60e51b815260040180806020018281038252602a81526020018061077a602a913960400191505060405180910390fd5b6060610543848460008561054d565b90505b9392505050565b60608247101561058e5760405162461bcd60e51b81526004018080602001828103825260268152602001806107546026913960400191505060405180910390fd5b610597856106a9565b6105e8576040805162461bcd60e51b815260206004820152601d60248201527f416464726573733a2063616c6c20746f206e6f6e2d636f6e7472616374000000604482015290519081900360640190fd5b60006060866001600160a01b031685876040518082805190602001908083835b602083106106275780518252601f199092019160209182019101610608565b6001836020036101000a03801982511681845116808217855250505050505090500191505060006040518083038185875af1925050503d8060008114610689576040519150601f19603f3d011682016040523d82523d6000602084013e61068e565b606091505b509150915061069e8282866106af565b979650505050505050565b3b151590565b606083156106be575081610546565b8251156106ce5782518084602001fd5b8160405162461bcd60e51b81526004018080602001828103825283818151815260200191508051906020019080838360005b83811015610718578181015183820152602001610700565b50505050905090810190601f1680156107455780820380516001836020036101000a031916815260200191505b509250505060405180910390fdfe416464726573733a20696e73756666696369656e742062616c616e636520666f722063616c6c5361666545524332303a204552433230206f7065726174696f6e20646964206e6f742073756363656564a2646970667358221220ad3c98cd4e159dffa019f5b7d08615ef1939be21d5cc0571e2878840bf69c70064736f6c634300060c0033",
  "linkReferences": {},
  "deployedLinkReferences": {}
}