{
  "_format": "hh-sol-artifact-1",
  "contractName": "BoosterOwner",
  "sourceName": "contracts/BoosterOwner.sol",
  "abi": [
    {
      "inputs": [
        {
          "internalType": "address",
          "name": "_booster",
          "type": "address"
        },
        {
          "internalType": "address",
          "name": "_stashFactory",
          "type": "address"
        },
        {
          "internalType": "address",
          "name": "_rescueStash",
          "type": "address"
        },
        {
          "internalType": "address",
          "name": "_poolManager",
          "type": "address"
        }
      ],
      "stateMutability": "nonpayable",
      "type": "constructor"
    },
    {
      "anonymous": false,
      "inputs": [
        {
          "indexed": false,
          "internalType": "address",
          "name": "newOwner",
          "type": "address"
        }
      ],
      "name": "AcceptedOwnership",
      "type": "event"
    },
    {
      "anonymous": false,
      "inputs": [],
      "name": "OwnershipSealed",
      "type": "event"
    },
    {
      "anonymous": false,
      "inputs": [],
      "name": "ShutdownExecuted",
      "type": "event"
    },
    {
      "anonymous": false,
      "inputs": [
        {
          "indexed": false,
          "internalType": "uint256",
          "name": "executableTimestamp",
          "type": "uint256"
        }
      ],
      "name": "ShutdownStarted",
      "type": "event"
    },
    {
      "anonymous": false,
      "inputs": [
        {
          "indexed": false,
          "internalType": "address",
          "name": "pendingOwner",
          "type": "address"
        }
      ],
      "name": "TransferOwnership",
      "type": "event"
    },
    {
      "inputs": [],
      "name": "FORCE_DELAY",
      "outputs": [
        {
          "internalType": "uint256",
          "name": "",
          "type": "uint256"
        }
      ],
      "stateMutability": "view",
      "type": "function"
    },
    {
      "inputs": [],
      "name": "acceptOwnership",
      "outputs": [],
      "stateMutability": "nonpayable",
      "type": "function"
    },
    {
      "inputs": [],
      "name": "booster",
      "outputs": [
        {
          "internalType": "address",
          "name": "",
          "type": "address"
        }
      ],
      "stateMutability": "view",
      "type": "function"
    },
    {
      "inputs": [
        {
          "internalType": "address",
          "name": "_to",
          "type": "address"
        },
        {
          "internalType": "uint256",
          "name": "_value",
          "type": "uint256"
        },
        {
          "internalType": "bytes",
          "name": "_data",
          "type": "bytes"
        }
      ],
      "name": "execute",
      "outputs": [
        {
          "internalType": "bool",
          "name": "",
          "type": "bool"
        },
        {
          "internalType": "bytes",
          "name": "",
          "type": "bytes"
        }
      ],
      "stateMutability": "nonpayable",
      "type": "function"
    },
    {
      "inputs": [],
      "name": "forceShutdownSystem",
      "outputs": [],
      "stateMutability": "nonpayable",
      "type": "function"
    },
    {
      "inputs": [],
      "name": "forceTimestamp",
      "outputs": [
        {
          "internalType": "uint256",
          "name": "",
          "type": "uint256"
        }
      ],
      "stateMutability": "view",
      "type": "function"
    },
    {
      "inputs": [],
      "name": "isForceTimerStarted",
      "outputs": [
        {
          "internalType": "bool",
          "name": "",
          "type": "bool"
        }
      ],
      "stateMutability": "view",
      "type": "function"
    },
    {
      "inputs": [],
      "name": "isSealed",
      "outputs": [
        {
          "internalType": "bool",
          "name": "",
          "type": "bool"
        }
      ],
      "stateMutability": "view",
      "type": "function"
    },
    {
      "inputs": [],
      "name": "owner",
      "outputs": [
        {
          "internalType": "address",
          "name": "",
          "type": "address"
        }
      ],
      "stateMutability": "view",
      "type": "function"
    },
    {
      "inputs": [],
      "name": "pendingowner",
      "outputs": [
        {
          "internalType": "address",
          "name": "",
          "type": "address"
        }
      ],
      "stateMutability": "view",
      "type": "function"
    },
    {
      "inputs": [],
      "name": "poolManager",
      "outputs": [
        {
          "internalType": "address",
          "name": "",
          "type": "address"
        }
      ],
      "stateMutability": "view",
      "type": "function"
    },
    {
      "inputs": [],
      "name": "queueForceShutdown",
      "outputs": [],
      "stateMutability": "nonpayable",
      "type": "function"
    },
    {
      "inputs": [],
      "name": "rescueStash",
      "outputs": [
        {
          "internalType": "address",
          "name": "",
          "type": "address"
        }
      ],
      "stateMutability": "view",
      "type": "function"
    },
    {
      "inputs": [],
      "name": "sealOwnership",
      "outputs": [],
      "stateMutability": "nonpayable",
      "type": "function"
    },
    {
      "inputs": [
        {
          "internalType": "address",
          "name": "_arb",
          "type": "address"
        }
      ],
      "name": "setArbitrator",
      "outputs": [],
      "stateMutability": "nonpayable",
      "type": "function"
    },
    {
      "inputs": [
        {
          "internalType": "address",
          "name": "_booster",
          "type": "address"
        }
      ],
      "name": "setBooster",
      "outputs": [],
      "stateMutability": "nonpayable",
      "type": "function"
    },
    {
      "inputs": [],
      "name": "setBoosterOwner",
      "outputs": [],
      "stateMutability": "nonpayable",
      "type": "function"
    },
    {
      "inputs": [
        {
          "internalType": "address",
          "name": "_rfactory",
          "type": "address"
        },
        {
          "internalType": "address",
          "name": "_sfactory",
          "type": "address"
        },
        {
          "internalType": "address",
          "name": "_tfactory",
          "type": "address"
        }
      ],
      "name": "setFactories",
      "outputs": [],
      "stateMutability": "nonpayable",
      "type": "function"
    },
    {
      "inputs": [
        {
          "internalType": "address",
          "name": "_feeM",
          "type": "address"
        }
      ],
      "name": "setFeeManager",
      "outputs": [],
      "stateMutability": "nonpayable",
      "type": "function"
    },
    {
      "inputs": [
        {
          "internalType": "address",
          "name": "_poolManager",
          "type": "address"
        }
      ],
      "name": "setPoolManager",
      "outputs": [],
      "stateMutability": "nonpayable",
      "type": "function"
    },
    {
      "inputs": [
        {
          "internalType": "address",
          "name": "_rescueStash",
          "type": "address"
        }
      ],
      "name": "setRescueStash",
      "outputs": [],
      "stateMutability": "nonpayable",
      "type": "function"
    },
    {
      "inputs": [
        {
          "internalType": "address",
          "name": "_distributor",
          "type": "address"
        },
        {
          "internalType": "address",
          "name": "_rewardDeposit",
          "type": "address"
        },
        {
          "internalType": "address",
          "name": "_treasury",
          "type": "address"
        }
      ],
      "name": "setRescueTokenDistribution",
      "outputs": [],
      "stateMutability": "nonpayable",
      "type": "function"
    },
    {
      "inputs": [
        {
          "internalType": "address",
          "name": "_token",
          "type": "address"
        },
        {
          "internalType": "uint256",
          "name": "_option",
          "type": "uint256"
        }
      ],
      "name": "setRescueTokenReward",
      "outputs": [],
      "stateMutability": "nonpayable",
      "type": "function"
    },
    {
      "inputs": [
        {
          "internalType": "address",
          "name": "_stash",
          "type": "address"
        },
        {
          "internalType": "address",
          "name": "_token",
          "type": "address"
        }
      ],
      "name": "setStashExtraReward",
      "outputs": [],
      "stateMutability": "nonpayable",
      "type": "function"
    },
    {
      "inputs": [
        {
          "internalType": "address",
          "name": "_stashFactory",
          "type": "address"
        }
      ],
      "name": "setStashFactory",
      "outputs": [],
      "stateMutability": "nonpayable",
      "type": "function"
    },
    {
      "inputs": [
        {
          "internalType": "address",
          "name": "_v3",
          "type": "address"
        }
      ],
      "name": "setStashFactoryImplementation",
      "outputs": [],
      "stateMutability": "nonpayable",
      "type": "function"
    },
    {
      "inputs": [
        {
          "internalType": "address",
          "name": "_stash",
          "type": "address"
        },
        {
          "internalType": "address",
          "name": "_hook",
          "type": "address"
        }
      ],
      "name": "setStashRewardHook",
      "outputs": [],
      "stateMutability": "nonpayable",
      "type": "function"
    },
    {
      "inputs": [
        {
          "internalType": "address",
          "name": "_voteDelegate",
          "type": "address"
        }
      ],
      "name": "setVoteDelegate",
      "outputs": [],
      "stateMutability": "nonpayable",
      "type": "function"
    },
    {
      "inputs": [],
      "name": "shutdownSystem",
      "outputs": [],
      "stateMutability": "nonpayable",
      "type": "function"
    },
    {
      "inputs": [],
      "name": "stashFactory",
      "outputs": [
        {
          "internalType": "address",
          "name": "",
          "type": "address"
        }
      ],
      "stateMutability": "view",
      "type": "function"
    },
    {
      "inputs": [
        {
          "internalType": "address",
          "name": "_owner",
          "type": "address"
        }
      ],
      "name": "transferOwnership",
      "outputs": [],
      "stateMutability": "nonpayable",
      "type": "function"
    }
  ],
  "bytecode": "0x608060405234801561001057600080fd5b5060405161189e38038061189e8339818101604052608081101561003357600080fd5b50805160208201516040830151606090930151600480546001600160a01b03199081163317909155600080546001600160a01b0395861690831617905560018054938516938216939093179092556002805494841694831694909417909355600380549290931691161790556117f0806100ae6000396000f3fe608060405234801561001057600080fd5b50600436106101e55760003560e01c80637aef67151161010f578063c7633d95116100a2578063dc4c90d311610071578063dc4c90d3146105a0578063f2e2e43a146105a8578063f2fde38b146105d4578063fbdc9a29146105fa576101e5565b8063c7633d9514610550578063cb246a9314610558578063cd170ae414610560578063da4a898e14610598576101e5565b8063a1827da8116100de578063a1827da814610414578063b0eefabe1461041c578063b61d27f614610442578063c6def07614610548576101e5565b80637aef6715146103a65780637bd3b995146103cc5780638da5cb5b1461040457806395fd55e61461040c576101e5565b806345c71d7c11610187578063631f985211610156578063631f98521461032e5780636e5162b01461034a578063748743231461037857806379ba50971461039e576101e5565b806345c71d7c146102d2578063472d35b9146102da5780634bff48cb146103005780635a826df314610308576101e5565b80632f150c17116101c35780632f150c1714610264578063354af9191461027e5780633b8f34e3146102865780633c44c3bc146102ac576101e5565b8063068eb19e146101ea5780630dd182d31461020e5780630e5c08ab1461023e575b600080fd5b6101f2610602565b604080516001600160a01b039092168252519081900360200190f35b61023c6004803603604081101561022457600080fd5b506001600160a01b0381358116916020013516610611565b005b61023c6004803603602081101561025457600080fd5b50356001600160a01b03166106c4565b61026c61072e565b60408051918252519081900360200190f35b61023c610734565b61023c6004803603602081101561029c57600080fd5b50356001600160a01b0316610a11565b61023c600480360360208110156102c257600080fd5b50356001600160a01b0316610a7b565b6101f2610b2c565b61023c600480360360208110156102f057600080fd5b50356001600160a01b0316610b3b565b61023c610bce565b61023c6004803603602081101561031e57600080fd5b50356001600160a01b0316610ccf565b610336610d39565b604080519115158252519081900360200190f35b61023c6004803603604081101561036057600080fd5b506001600160a01b0381358116916020013516610d49565b61023c6004803603602081101561038e57600080fd5b50356001600160a01b0316610de0565b61023c610e73565b61023c600480360360208110156103bc57600080fd5b50356001600160a01b0316610f23565b61023c600480360360608110156103e257600080fd5b506001600160a01b038135811691602081013582169160409091013516610f8d565b6101f261104d565b61023c61105c565b61023c611205565b61023c6004803603602081101561043257600080fd5b50356001600160a01b031661128b565b6104c76004803603606081101561045857600080fd5b6001600160a01b038235169160208101359181019060608101604082013564010000000081111561048857600080fd5b82018360208201111561049a57600080fd5b803590602001918460018302840111640100000000831117156104bc57600080fd5b50909250905061131e565b60405180831515815260200180602001828103825283818151815260200191508051906020019080838360005b8381101561050c5781810151838201526020016104f4565b50505050905090810190601f1680156105395780820380516001836020036101000a031916815260200191505b50935050505060405180910390f35b6101f2611438565b61023c611447565b6103366115a6565b61023c6004803603606081101561057657600080fd5b506001600160a01b0381358116916020810135821691604090910135166115b6565b6101f261165c565b6101f261166b565b61023c600480360360408110156105be57600080fd5b506001600160a01b03813516906020013561167a565b61023c600480360360208110156105ea57600080fd5b50356001600160a01b0316611717565b61026c6117b3565b6001546001600160a01b031681565b6004546001600160a01b03163314610659576040805162461bcd60e51b815260206004820152600660248201526510b7bbb732b960d11b604482015290519081900360640190fd5b816001600160a01b0316632223686f826040518263ffffffff1660e01b815260040180826001600160a01b03168152602001915050600060405180830381600087803b1580156106a857600080fd5b505af11580156106bc573d6000803e3d6000fd5b505050505050565b6004546001600160a01b0316331461070c576040805162461bcd60e51b815260206004820152600660248201526510b7bbb732b960d11b604482015290519081900360640190fd5b600180546001600160a01b0319166001600160a01b0392909216919091179055565b60065481565b6004546001600160a01b0316331461077c576040805162461bcd60e51b815260206004820152600660248201526510b7bbb732b960d11b604482015290519081900360640190fd5b600360009054906101000a90046001600160a01b03166001600160a01b031663bf86d6906040518163ffffffff1660e01b815260040160206040518083038186803b1580156107ca57600080fd5b505afa1580156107de573d6000803e3d6000fd5b505050506040513d60208110156107f457600080fd5b505161083a576040805162461bcd60e51b815260206004820152601060248201526f10b837b7b626b3b929b43aba3237bbb760811b604482015290519081900360640190fd5b60008060009054906101000a90046001600160a01b03166001600160a01b031663081e3eda6040518163ffffffff1660e01b815260040160206040518083038186803b15801561088957600080fd5b505afa15801561089d573d6000803e3d6000fd5b505050506040513d60208110156108b357600080fd5b5051905060005b8181101561098b576000805460408051631526fe2760e01b81526004810185905290516001600160a01b0390921691631526fe279160248082019260c092909190829003018186803b15801561090f57600080fd5b505afa158015610923573d6000803e3d6000fd5b505050506040513d60c081101561093957600080fd5b5060a00151905080610982576040805162461bcd60e51b815260206004820152600d60248201526c10b837b7b629b43aba3237bbb760991b604482015290519081900360640190fd5b506001016108ba565b50600080546040805163354af91960e01b815290516001600160a01b039092169263354af9199260048084019382900301818387803b1580156109cd57600080fd5b505af11580156109e1573d6000803e3d6000fd5b50506040517f5a05a29d5ecece2d4f30720adf1a7449fc1ecb9a884a14629d08d3d2257ab905925060009150a150565b6004546001600160a01b03163314610a59576040805162461bcd60e51b815260206004820152600660248201526510b7bbb732b960d11b604482015290519081900360640190fd5b600280546001600160a01b0319166001600160a01b0392909216919091179055565b6004546001600160a01b03163314610ac3576040805162461bcd60e51b815260206004820152600660248201526510b7bbb732b960d11b604482015290519081900360640190fd5b60015460408051636bc26a1360e11b81526001600160a01b0384811660048301529151919092169163d784d42691602480830192600092919082900301818387803b158015610b1157600080fd5b505af1158015610b25573d6000803e3d6000fd5b5050505050565b6002546001600160a01b031681565b6004546001600160a01b03163314610b83576040805162461bcd60e51b815260206004820152600660248201526510b7bbb732b960d11b604482015290519081900360640190fd5b600080546040805163472d35b960e01b81526001600160a01b0385811660048301529151919092169263472d35b9926024808201939182900301818387803b158015610b1157600080fd5b6004546001600160a01b03163314610c16576040805162461bcd60e51b815260206004820152600660248201526510b7bbb732b960d11b604482015290519081900360640190fd5b600554600160a01b900460ff1615610c68576040805162461bcd60e51b815260206004820152601060248201526f1bdddb995c9cda1a5c081cd9585b195960821b604482015290519081900360640190fd5b6000805460048054604080516313af403560e01b81526001600160a01b0392831693810193909352519216926313af40359260248084019382900301818387803b158015610cb557600080fd5b505af1158015610cc9573d6000803e3d6000fd5b50505050565b6004546001600160a01b03163314610d17576040805162461bcd60e51b815260206004820152600660248201526510b7bbb732b960d11b604482015290519081900360640190fd5b600080546001600160a01b0319166001600160a01b0392909216919091179055565b600554600160a01b900460ff1681565b6004546001600160a01b03163314610d91576040805162461bcd60e51b815260206004820152600660248201526510b7bbb732b960d11b604482015290519081900360640190fd5b816001600160a01b0316630d5225de826040518263ffffffff1660e01b815260040180826001600160a01b03168152602001915050600060405180830381600087803b1580156106a857600080fd5b6004546001600160a01b03163314610e28576040805162461bcd60e51b815260206004820152600660248201526510b7bbb732b960d11b604482015290519081900360640190fd5b6000805460408051637487432360e01b81526001600160a01b038581166004830152915191909216926374874323926024808201939182900301818387803b158015610b1157600080fd5b6005546001600160a01b03163314610ec2576040805162461bcd60e51b815260206004820152600d60248201526c10b832b73234b733b7bbb732b960991b604482015290519081900360640190fd5b60058054600480546001600160a01b038084166001600160a01b03199283161792839055921690925560408051929091168252517fdee73dbb93c269d51b00ff594df7b23f8aca381762449174e5ba16bd163d88f1916020908290030190a1565b6004546001600160a01b03163314610f6b576040805162461bcd60e51b815260206004820152600660248201526510b7bbb732b960d11b604482015290519081900360640190fd5b600380546001600160a01b0319166001600160a01b0392909216919091179055565b6004546001600160a01b03163314610fd5576040805162461bcd60e51b815260206004820152600660248201526510b7bbb732b960d11b604482015290519081900360640190fd5b6000805460408051637bd3b99560e01b81526001600160a01b0387811660048301528681166024830152858116604483015291519190921692637bd3b995926064808201939182900301818387803b15801561103057600080fd5b505af1158015611044573d6000803e3d6000fd5b50505050505050565b6004546001600160a01b031681565b6004546001600160a01b031633146110a4576040805162461bcd60e51b815260206004820152600660248201526510b7bbb732b960d11b604482015290519081900360640190fd5b600360009054906101000a90046001600160a01b03166001600160a01b031663bf86d6906040518163ffffffff1660e01b815260040160206040518083038186803b1580156110f257600080fd5b505afa158015611106573d6000803e3d6000fd5b505050506040513d602081101561111c57600080fd5b5051611162576040805162461bcd60e51b815260206004820152601060248201526f10b837b7b626b3b929b43aba3237bbb760811b604482015290519081900360640190fd5b600554600160a81b900460ff16156111b3576040805162461bcd60e51b815260206004820152600f60248201526e185b1c9958591e481cdd185c9d1959608a1b604482015290519081900360640190fd5b6005805460ff60a81b1916600160a81b1790554262278d0001600681905560408051918252517f0af5f8b3a72c4ee1999f5b5a19fc41c0425c6823019b9e6c060272afd59ff56d9181900360200190a1565b6004546001600160a01b0316331461124d576040805162461bcd60e51b815260206004820152600660248201526510b7bbb732b960d11b604482015290519081900360640190fd5b6005805460ff60a01b1916600160a01b1790556040517f64b89df6876b705bd433440503434130927ad7dc459ea1545a9b9d0dd1984b8090600090a1565b6004546001600160a01b031633146112d3576040805162461bcd60e51b815260206004820152600660248201526510b7bbb732b960d11b604482015290519081900360640190fd5b60008054604080516358777d5f60e11b81526001600160a01b0385811660048301529151919092169263b0eefabe926024808201939182900301818387803b158015610b1157600080fd5b6004546000906060906001600160a01b0316331461136c576040805162461bcd60e51b815260206004820152600660248201526510b7bbb732b960d11b604482015290519081900360640190fd5b6000546001600160a01b03878116911614156113c1576040805162461bcd60e51b815260206004820152600f60248201526e085a5b9d985b1a59081d185c99d95d608a1b604482015290519081900360640190fd5b60006060876001600160a01b0316878787604051808383808284376040519201945060009350909150508083038185875af1925050503d8060008114611423576040519150601f19603f3d011682016040523d82523d6000602084013e611428565b606091505b5090999098509650505050505050565b6000546001600160a01b031681565b6004546001600160a01b0316331461148f576040805162461bcd60e51b815260206004820152600660248201526510b7bbb732b960d11b604482015290519081900360640190fd5b600554600160a81b900460ff166114dc576040805162461bcd60e51b815260206004820152600c60248201526b085d1a5b595c881cdd185c9d60a21b604482015290519081900360640190fd5b6006544211611522576040805162461bcd60e51b815260206004820152600d60248201526c042e8d2dacae440ccd2dcd2e6d609b1b604482015290519081900360640190fd5b600080546040805163354af91960e01b815290516001600160a01b039092169263354af9199260048084019382900301818387803b15801561156357600080fd5b505af1158015611577573d6000803e3d6000fd5b50506040517f5a05a29d5ecece2d4f30720adf1a7449fc1ecb9a884a14629d08d3d2257ab905925060009150a1565b600554600160a81b900460ff1681565b6004546001600160a01b031633146115fe576040805162461bcd60e51b815260206004820152600660248201526510b7bbb732b960d11b604482015290519081900360640190fd5b600254604080516314d7320560e21b81526001600160a01b038681166004830152858116602483015284811660448301529151919092169163535cc81491606480830192600092919082900301818387803b15801561103057600080fd5b6005546001600160a01b031681565b6003546001600160a01b031681565b6004546001600160a01b031633146116c2576040805162461bcd60e51b815260206004820152600660248201526510b7bbb732b960d11b604482015290519081900360640190fd5b600254604080516333be422960e11b81526001600160a01b038581166004830152602482018590529151919092169163677c845291604480830192600092919082900301818387803b1580156106a857600080fd5b6004546001600160a01b0316331461175f576040805162461bcd60e51b815260206004820152600660248201526510b7bbb732b960d11b604482015290519081900360640190fd5b600580546001600160a01b0383166001600160a01b0319909116811790915560408051918252517fcfaaa26691e16e66e73290fc725eee1a6b4e0e693a1640484937aac25ffb55a49181900360200190a150565b62278d008156fea264697066735822122058ae6c0e4e53343a7255074dc2d5e478727273c07933b551492287488271193c64736f6c634300060c0033",
  "linkReferences": {},
  "deployedLinkReferences": {}
}