{
  "_format": "hh-sol-artifact-1",
  "contractName": "BoosterOwner",
  "sourceName": "contracts/BoosterOwner.sol",
  "abi": [
    {
      "inputs": [
        {
          "internalType": "address",
          "name": "_poolManager",
          "type": "address"
        }
      ],
      "stateMutability": "nonpayable",
      "type": "constructor"
    },
    {
      "anonymous": false,
      "inputs": [
        {
          "indexed": false,
          "internalType": "address",
          "name": "newOwner",
          "type": "address"
        }
      ],
      "name": "AcceptedOwnership",
      "type": "event"
    },
    {
      "anonymous": false,
      "inputs": [],
      "name": "OwnershipSealed",
      "type": "event"
    },
    {
      "anonymous": false,
      "inputs": [],
      "name": "ShutdownExecuted",
      "type": "event"
    },
    {
      "anonymous": false,
      "inputs": [
        {
          "indexed": false,
          "internalType": "uint256",
          "name": "executableTimestamp",
          "type": "uint256"
        }
      ],
      "name": "ShutdownStarted",
      "type": "event"
    },
    {
      "anonymous": false,
      "inputs": [
        {
          "indexed": false,
          "internalType": "address",
          "name": "pendingOwner",
          "type": "address"
        }
      ],
      "name": "TransferOwnership",
      "type": "event"
    },
    {
      "inputs": [],
      "name": "FORCE_DELAY",
      "outputs": [
        {
          "internalType": "uint256",
          "name": "",
          "type": "uint256"
        }
      ],
      "stateMutability": "view",
      "type": "function"
    },
    {
      "inputs": [],
      "name": "acceptOwnership",
      "outputs": [],
      "stateMutability": "nonpayable",
      "type": "function"
    },
    {
      "inputs": [],
      "name": "booster",
      "outputs": [
        {
          "internalType": "address",
          "name": "",
          "type": "address"
        }
      ],
      "stateMutability": "view",
      "type": "function"
    },
    {
      "inputs": [
        {
          "internalType": "address",
          "name": "_to",
          "type": "address"
        },
        {
          "internalType": "uint256",
          "name": "_value",
          "type": "uint256"
        },
        {
          "internalType": "bytes",
          "name": "_data",
          "type": "bytes"
        }
      ],
      "name": "execute",
      "outputs": [
        {
          "internalType": "bool",
          "name": "",
          "type": "bool"
        },
        {
          "internalType": "bytes",
          "name": "",
          "type": "bytes"
        }
      ],
      "stateMutability": "nonpayable",
      "type": "function"
    },
    {
      "inputs": [],
      "name": "forceShutdownSystem",
      "outputs": [],
      "stateMutability": "nonpayable",
      "type": "function"
    },
    {
      "inputs": [],
      "name": "forceTimestamp",
      "outputs": [
        {
          "internalType": "uint256",
          "name": "",
          "type": "uint256"
        }
      ],
      "stateMutability": "view",
      "type": "function"
    },
    {
      "inputs": [],
      "name": "isForceTimerStarted",
      "outputs": [
        {
          "internalType": "bool",
          "name": "",
          "type": "bool"
        }
      ],
      "stateMutability": "view",
      "type": "function"
    },
    {
      "inputs": [],
      "name": "isSealed",
      "outputs": [
        {
          "internalType": "bool",
          "name": "",
          "type": "bool"
        }
      ],
      "stateMutability": "view",
      "type": "function"
    },
    {
      "inputs": [],
      "name": "owner",
      "outputs": [
        {
          "internalType": "address",
          "name": "",
          "type": "address"
        }
      ],
      "stateMutability": "view",
      "type": "function"
    },
    {
      "inputs": [],
      "name": "pendingowner",
      "outputs": [
        {
          "internalType": "address",
          "name": "",
          "type": "address"
        }
      ],
      "stateMutability": "view",
      "type": "function"
    },
    {
      "inputs": [],
      "name": "poolManager",
      "outputs": [
        {
          "internalType": "address",
          "name": "",
          "type": "address"
        }
      ],
      "stateMutability": "view",
      "type": "function"
    },
    {
      "inputs": [],
      "name": "queueForceShutdown",
      "outputs": [],
      "stateMutability": "nonpayable",
      "type": "function"
    },
    {
      "inputs": [],
      "name": "rescueStash",
      "outputs": [
        {
          "internalType": "address",
          "name": "",
          "type": "address"
        }
      ],
      "stateMutability": "view",
      "type": "function"
    },
    {
      "inputs": [],
      "name": "sealOwnership",
      "outputs": [],
      "stateMutability": "nonpayable",
      "type": "function"
    },
    {
      "inputs": [
        {
          "internalType": "address",
          "name": "_arb",
          "type": "address"
        }
      ],
      "name": "setArbitrator",
      "outputs": [],
      "stateMutability": "nonpayable",
      "type": "function"
    },
    {
      "inputs": [],
      "name": "setBoosterOwner",
      "outputs": [],
      "stateMutability": "nonpayable",
      "type": "function"
    },
    {
      "inputs": [
        {
          "internalType": "address",
          "name": "_rfactory",
          "type": "address"
        },
        {
          "internalType": "address",
          "name": "_sfactory",
          "type": "address"
        },
        {
          "internalType": "address",
          "name": "_tfactory",
          "type": "address"
        }
      ],
      "name": "setFactories",
      "outputs": [],
      "stateMutability": "nonpayable",
      "type": "function"
    },
    {
      "inputs": [
        {
          "internalType": "address",
          "name": "_feeM",
          "type": "address"
        }
      ],
      "name": "setFeeManager",
      "outputs": [],
      "stateMutability": "nonpayable",
      "type": "function"
    },
    {
      "inputs": [
        {
          "internalType": "address",
          "name": "_distributor",
          "type": "address"
        },
        {
          "internalType": "address",
          "name": "_rewardDeposit",
          "type": "address"
        },
        {
          "internalType": "address",
          "name": "_treasury",
          "type": "address"
        }
      ],
      "name": "setRescueTokenDistribution",
      "outputs": [],
      "stateMutability": "nonpayable",
      "type": "function"
    },
    {
      "inputs": [
        {
          "internalType": "address",
          "name": "_token",
          "type": "address"
        },
        {
          "internalType": "uint256",
          "name": "_option",
          "type": "uint256"
        }
      ],
      "name": "setRescueTokenReward",
      "outputs": [],
      "stateMutability": "nonpayable",
      "type": "function"
    },
    {
      "inputs": [
        {
          "internalType": "address",
          "name": "_stash",
          "type": "address"
        },
        {
          "internalType": "address",
          "name": "_token",
          "type": "address"
        }
      ],
      "name": "setStashExtraReward",
      "outputs": [],
      "stateMutability": "nonpayable",
      "type": "function"
    },
    {
      "inputs": [
        {
          "internalType": "address",
          "name": "_v1",
          "type": "address"
        },
        {
          "internalType": "address",
          "name": "_v2",
          "type": "address"
        },
        {
          "internalType": "address",
          "name": "_v3",
          "type": "address"
        }
      ],
      "name": "setStashFactoryImplementation",
      "outputs": [],
      "stateMutability": "nonpayable",
      "type": "function"
    },
    {
      "inputs": [
        {
          "internalType": "address",
          "name": "_stash",
          "type": "address"
        },
        {
          "internalType": "address",
          "name": "_hook",
          "type": "address"
        }
      ],
      "name": "setStashRewardHook",
      "outputs": [],
      "stateMutability": "nonpayable",
      "type": "function"
    },
    {
      "inputs": [
        {
          "internalType": "address",
          "name": "_voteDelegate",
          "type": "address"
        }
      ],
      "name": "setVoteDelegate",
      "outputs": [],
      "stateMutability": "nonpayable",
      "type": "function"
    },
    {
      "inputs": [],
      "name": "shutdownSystem",
      "outputs": [],
      "stateMutability": "nonpayable",
      "type": "function"
    },
    {
      "inputs": [],
      "name": "stashFactory",
      "outputs": [
        {
          "internalType": "address",
          "name": "",
          "type": "address"
        }
      ],
      "stateMutability": "view",
      "type": "function"
    },
    {
      "inputs": [
        {
          "internalType": "address",
          "name": "_owner",
          "type": "address"
        }
      ],
      "name": "transferOwnership",
      "outputs": [],
      "stateMutability": "nonpayable",
      "type": "function"
    }
  ],
  "bytecode": "0x60a060405234801561001057600080fd5b5060405161171c38038061171c8339818101604052602081101561003357600080fd5b5051600080546001600160a01b03191673a3c5a1e09150b75ff251c1a7815a07182c3de2fb1790556001600160601b031960609190911b1660805260805160601c6116876100956000398061065b5280610ecf52806114e252506116876000f3fe608060405234801561001057600080fd5b50600436106101a95760003560e01c80638da5cb5b116100f9578063cb246a9311610097578063dc4c90d311610071578063dc4c90d3146104de578063f2e2e43a146104e6578063f2fde38b14610512578063fbdc9a2914610538576101a9565b8063cb246a9314610496578063cd170ae41461049e578063da4a898e146104d6576101a9565b8063b0eefabe116100d3578063b0eefabe1461035a578063b61d27f614610380578063c6def07614610486578063c7633d951461048e576101a9565b80638da5cb5b1461034257806395fd55e61461034a578063a1827da814610352576101a9565b80634bff48cb116101665780636e5162b0116101405780636e5162b0146102ae57806374874323146102dc57806379ba5097146103025780637bd3b9951461030a576101a9565b80634bff48cb14610252578063631f98521461025a5780636e1fdc2b14610276576101a9565b8063068eb19e146101ae5780630dd182d3146101d25780632f150c1714610202578063354af9191461021c57806345c71d7c14610224578063472d35b91461022c575b600080fd5b6101b6610540565b604080516001600160a01b039092168252519081900360200190f35b610200600480360360408110156101e857600080fd5b506001600160a01b0381358116916020013516610558565b005b61020a61060b565b60408051918252519081900360200190f35b610200610611565b6101b6610914565b6102006004803603602081101561024257600080fd5b50356001600160a01b031661092c565b6102006109ea565b610262610af9565b604080519115158252519081900360200190f35b6102006004803603606081101561028c57600080fd5b506001600160a01b038135811691602081013582169160409091013516610b09565b610200600480360360408110156102c457600080fd5b506001600160a01b0381358116916020013516610bd9565b610200600480360360208110156102f257600080fd5b50356001600160a01b0316610c70565b610200610d13565b6102006004803603606081101561032057600080fd5b506001600160a01b038135811691602081013582169160409091013516610dc3565b6101b6610e76565b610200610e85565b610200611039565b6102006004803603602081101561037057600080fd5b50356001600160a01b03166110bf565b6104056004803603606081101561039657600080fd5b6001600160a01b03823516916020810135918101906060810160408201356401000000008111156103c657600080fd5b8201836020820111156103d857600080fd5b803590602001918460018302840111640100000000831117156103fa57600080fd5b509092509050611162565b60405180831515815260200180602001828103825283818151815260200191508051906020019080838360005b8381101561044a578181015183820152602001610432565b50505050905090810190601f1680156104775780820380516001836020036101000a031916815260200191505b50935050505060405180910390f35b6101b6611289565b6102006112a1565b61026261140e565b610200600480360360608110156104b457600080fd5b506001600160a01b03813581169160208101358216916040909101351661141e565b6101b66114d1565b6101b66114e0565b610200600480360360408110156104fc57600080fd5b506001600160a01b038135169060200135611504565b6102006004803603602081101561052857600080fd5b50356001600160a01b03166115ae565b61020a61164a565b73884da067b66677e72530df91eabb6e3ce69c2be481565b6000546001600160a01b031633146105a0576040805162461bcd60e51b815260206004820152600660248201526510b7bbb732b960d11b604482015290519081900360640190fd5b816001600160a01b0316632223686f826040518263ffffffff1660e01b815260040180826001600160a01b03168152602001915050600060405180830381600087803b1580156105ef57600080fd5b505af1158015610603573d6000803e3d6000fd5b505050505050565b60025481565b6000546001600160a01b03163314610659576040805162461bcd60e51b815260206004820152600660248201526510b7bbb732b960d11b604482015290519081900360640190fd5b7f00000000000000000000000000000000000000000000000000000000000000006001600160a01b031663bf86d6906040518163ffffffff1660e01b815260040160206040518083038186803b1580156106b257600080fd5b505afa1580156106c6573d6000803e3d6000fd5b505050506040513d60208110156106dc57600080fd5b5051610722576040805162461bcd60e51b815260206004820152601060248201526f10b837b7b626b3b929b43aba3237bbb760811b604482015290519081900360640190fd5b600073f403c135812408bfbe8713b5a23a04b3d48aae316001600160a01b031663081e3eda6040518163ffffffff1660e01b815260040160206040518083038186803b15801561077157600080fd5b505afa158015610785573d6000803e3d6000fd5b505050506040513d602081101561079b57600080fd5b5051905060005b8181101561088057600073f403c135812408bfbe8713b5a23a04b3d48aae316001600160a01b0316631526fe27836040518263ffffffff1660e01b81526004018082815260200191505060c06040518083038186803b15801561080457600080fd5b505afa158015610818573d6000803e3d6000fd5b505050506040513d60c081101561082e57600080fd5b5060a00151905080610877576040805162461bcd60e51b815260206004820152600d60248201526c10b837b7b629b43aba3237bbb760991b604482015290519081900360640190fd5b506001016107a2565b5073f403c135812408bfbe8713b5a23a04b3d48aae316001600160a01b031663354af9196040518163ffffffff1660e01b8152600401600060405180830381600087803b1580156108d057600080fd5b505af11580156108e4573d6000803e3d6000fd5b50506040517f5a05a29d5ecece2d4f30720adf1a7449fc1ecb9a884a14629d08d3d2257ab905925060009150a150565b7301140351069af98416cc08b16424b9e76543653181565b6000546001600160a01b03163314610974576040805162461bcd60e51b815260206004820152600660248201526510b7bbb732b960d11b604482015290519081900360640190fd5b6040805163472d35b960e01b81526001600160a01b0383166004820152905173f403c135812408bfbe8713b5a23a04b3d48aae319163472d35b991602480830192600092919082900301818387803b1580156109cf57600080fd5b505af11580156109e3573d6000803e3d6000fd5b5050505050565b6000546001600160a01b03163314610a32576040805162461bcd60e51b815260206004820152600660248201526510b7bbb732b960d11b604482015290519081900360640190fd5b600154600160a01b900460ff1615610a84576040805162461bcd60e51b815260206004820152601060248201526f1bdddb995c9cda1a5c081cd9585b195960821b604482015290519081900360640190fd5b60008054604080516313af403560e01b81526001600160a01b0390921660048301525173f403c135812408bfbe8713b5a23a04b3d48aae31926313af4035926024808201939182900301818387803b158015610adf57600080fd5b505af1158015610af3573d6000803e3d6000fd5b50505050565b600154600160a01b900460ff1681565b6000546001600160a01b03163314610b51576040805162461bcd60e51b815260206004820152600660248201526510b7bbb732b960d11b604482015290519081900360640190fd5b60408051632fa6cbe960e01b81526001600160a01b038581166004830152848116602483015283166044820152905173884da067b66677e72530df91eabb6e3ce69c2be491632fa6cbe991606480830192600092919082900301818387803b158015610bbc57600080fd5b505af1158015610bd0573d6000803e3d6000fd5b50505050505050565b6000546001600160a01b03163314610c21576040805162461bcd60e51b815260206004820152600660248201526510b7bbb732b960d11b604482015290519081900360640190fd5b816001600160a01b0316630d5225de826040518263ffffffff1660e01b815260040180826001600160a01b03168152602001915050600060405180830381600087803b1580156105ef57600080fd5b6000546001600160a01b03163314610cb8576040805162461bcd60e51b815260206004820152600660248201526510b7bbb732b960d11b604482015290519081900360640190fd5b60408051637487432360e01b81526001600160a01b0383166004820152905173f403c135812408bfbe8713b5a23a04b3d48aae3191637487432391602480830192600092919082900301818387803b1580156109cf57600080fd5b6001546001600160a01b03163314610d62576040805162461bcd60e51b815260206004820152600d60248201526c10b832b73234b733b7bbb732b960991b604482015290519081900360640190fd5b60018054600080546001600160a01b038084166001600160a01b03199283161792839055921690925560408051929091168252517fdee73dbb93c269d51b00ff594df7b23f8aca381762449174e5ba16bd163d88f1916020908290030190a1565b6000546001600160a01b03163314610e0b576040805162461bcd60e51b815260206004820152600660248201526510b7bbb732b960d11b604482015290519081900360640190fd5b60408051637bd3b99560e01b81526001600160a01b038581166004830152848116602483015283166044820152905173f403c135812408bfbe8713b5a23a04b3d48aae3191637bd3b99591606480830192600092919082900301818387803b158015610bbc57600080fd5b6000546001600160a01b031681565b6000546001600160a01b03163314610ecd576040805162461bcd60e51b815260206004820152600660248201526510b7bbb732b960d11b604482015290519081900360640190fd5b7f00000000000000000000000000000000000000000000000000000000000000006001600160a01b031663bf86d6906040518163ffffffff1660e01b815260040160206040518083038186803b158015610f2657600080fd5b505afa158015610f3a573d6000803e3d6000fd5b505050506040513d6020811015610f5057600080fd5b5051610f96576040805162461bcd60e51b815260206004820152601060248201526f10b837b7b626b3b929b43aba3237bbb760811b604482015290519081900360640190fd5b600154600160a81b900460ff1615610fe7576040805162461bcd60e51b815260206004820152600f60248201526e185b1c9958591e481cdd185c9d1959608a1b604482015290519081900360640190fd5b6001805460ff60a81b1916600160a81b1790554262278d0001600281905560408051918252517f0af5f8b3a72c4ee1999f5b5a19fc41c0425c6823019b9e6c060272afd59ff56d9181900360200190a1565b6000546001600160a01b03163314611081576040805162461bcd60e51b815260206004820152600660248201526510b7bbb732b960d11b604482015290519081900360640190fd5b6001805460ff60a01b1916600160a01b1790556040517f64b89df6876b705bd433440503434130927ad7dc459ea1545a9b9d0dd1984b8090600090a1565b6000546001600160a01b03163314611107576040805162461bcd60e51b815260206004820152600660248201526510b7bbb732b960d11b604482015290519081900360640190fd5b604080516358777d5f60e11b81526001600160a01b0383166004820152905173f403c135812408bfbe8713b5a23a04b3d48aae319163b0eefabe91602480830192600092919082900301818387803b1580156109cf57600080fd5b600080546060906001600160a01b031633146111ae576040805162461bcd60e51b815260206004820152600660248201526510b7bbb732b960d11b604482015290519081900360640190fd5b6001600160a01b03861673f403c135812408bfbe8713b5a23a04b3d48aae311415611212576040805162461bcd60e51b815260206004820152600f60248201526e085a5b9d985b1a59081d185c99d95d608a1b604482015290519081900360640190fd5b60006060876001600160a01b0316878787604051808383808284376040519201945060009350909150508083038185875af1925050503d8060008114611274576040519150601f19603f3d011682016040523d82523d6000602084013e611279565b606091505b5090999098509650505050505050565b73f403c135812408bfbe8713b5a23a04b3d48aae3181565b6000546001600160a01b031633146112e9576040805162461bcd60e51b815260206004820152600660248201526510b7bbb732b960d11b604482015290519081900360640190fd5b600154600160a81b900460ff16611336576040805162461bcd60e51b815260206004820152600c60248201526b085d1a5b595c881cdd185c9d60a21b604482015290519081900360640190fd5b600254421161137c576040805162461bcd60e51b815260206004820152600d60248201526c042e8d2dacae440ccd2dcd2e6d609b1b604482015290519081900360640190fd5b73f403c135812408bfbe8713b5a23a04b3d48aae316001600160a01b031663354af9196040518163ffffffff1660e01b8152600401600060405180830381600087803b1580156113cb57600080fd5b505af11580156113df573d6000803e3d6000fd5b50506040517f5a05a29d5ecece2d4f30720adf1a7449fc1ecb9a884a14629d08d3d2257ab905925060009150a1565b600154600160a81b900460ff1681565b6000546001600160a01b03163314611466576040805162461bcd60e51b815260206004820152600660248201526510b7bbb732b960d11b604482015290519081900360640190fd5b604080516314d7320560e21b81526001600160a01b03858116600483015284811660248301528316604482015290517301140351069af98416cc08b16424b9e7654365319163535cc81491606480830192600092919082900301818387803b158015610bbc57600080fd5b6001546001600160a01b031681565b7f000000000000000000000000000000000000000000000000000000000000000081565b6000546001600160a01b0316331461154c576040805162461bcd60e51b815260206004820152600660248201526510b7bbb732b960d11b604482015290519081900360640190fd5b604080516333be422960e11b81526001600160a01b03841660048201526024810183905290517301140351069af98416cc08b16424b9e7654365319163677c845291604480830192600092919082900301818387803b1580156105ef57600080fd5b6000546001600160a01b031633146115f6576040805162461bcd60e51b815260206004820152600660248201526510b7bbb732b960d11b604482015290519081900360640190fd5b600180546001600160a01b0383166001600160a01b0319909116811790915560408051918252517fcfaaa26691e16e66e73290fc725eee1a6b4e0e693a1640484937aac25ffb55a49181900360200190a150565b62278d008156fea2646970667358221220e73480ec661239c67c3297d7a23e419ce6171f96c2077890e0ec0c40e254b65564736f6c634300060c0033",
  "linkReferences": {},
  "deployedLinkReferences": {}
}