{
  "_format": "hh-sol-artifact-1",
  "contractName": "MuKglRari",
  "sourceName": "contracts/wrappers/MuKglStakingWrapperRari.sol",
  "abi": [
    {
      "inputs": [],
      "stateMutability": "nonpayable",
      "type": "constructor"
    },
    {
      "anonymous": false,
      "inputs": [
        {
          "indexed": true,
          "internalType": "address",
          "name": "owner",
          "type": "address"
        },
        {
          "indexed": true,
          "internalType": "address",
          "name": "spender",
          "type": "address"
        },
        {
          "indexed": false,
          "internalType": "uint256",
          "name": "value",
          "type": "uint256"
        }
      ],
      "name": "Approval",
      "type": "event"
    },
    {
      "anonymous": false,
      "inputs": [
        {
          "indexed": true,
          "internalType": "address",
          "name": "_user",
          "type": "address"
        },
        {
          "indexed": true,
          "internalType": "address",
          "name": "_account",
          "type": "address"
        },
        {
          "indexed": false,
          "internalType": "uint256",
          "name": "_amount",
          "type": "uint256"
        },
        {
          "indexed": false,
          "internalType": "bool",
          "name": "_wrapped",
          "type": "bool"
        }
      ],
      "name": "Deposited",
      "type": "event"
    },
    {
      "anonymous": false,
      "inputs": [
        {
          "indexed": true,
          "internalType": "address",
          "name": "previousOwner",
          "type": "address"
        },
        {
          "indexed": true,
          "internalType": "address",
          "name": "newOwner",
          "type": "address"
        }
      ],
      "name": "OwnershipTransferred",
      "type": "event"
    },
    {
      "anonymous": false,
      "inputs": [
        {
          "indexed": true,
          "internalType": "address",
          "name": "from",
          "type": "address"
        },
        {
          "indexed": true,
          "internalType": "address",
          "name": "to",
          "type": "address"
        },
        {
          "indexed": false,
          "internalType": "uint256",
          "name": "value",
          "type": "uint256"
        }
      ],
      "name": "Transfer",
      "type": "event"
    },
    {
      "anonymous": false,
      "inputs": [
        {
          "indexed": true,
          "internalType": "address",
          "name": "_user",
          "type": "address"
        },
        {
          "indexed": false,
          "internalType": "uint256",
          "name": "_amount",
          "type": "uint256"
        },
        {
          "indexed": false,
          "internalType": "bool",
          "name": "_unwrapped",
          "type": "bool"
        }
      ],
      "name": "Withdrawn",
      "type": "event"
    },
    {
      "inputs": [],
      "name": "addRewards",
      "outputs": [],
      "stateMutability": "nonpayable",
      "type": "function"
    },
    {
      "inputs": [
        {
          "internalType": "address",
          "name": "owner",
          "type": "address"
        },
        {
          "internalType": "address",
          "name": "spender",
          "type": "address"
        }
      ],
      "name": "allowance",
      "outputs": [
        {
          "internalType": "uint256",
          "name": "",
          "type": "uint256"
        }
      ],
      "stateMutability": "view",
      "type": "function"
    },
    {
      "inputs": [
        {
          "internalType": "address",
          "name": "spender",
          "type": "address"
        },
        {
          "internalType": "uint256",
          "name": "amount",
          "type": "uint256"
        }
      ],
      "name": "approve",
      "outputs": [
        {
          "internalType": "bool",
          "name": "",
          "type": "bool"
        }
      ],
      "stateMutability": "nonpayable",
      "type": "function"
    },
    {
      "inputs": [
        {
          "internalType": "address",
          "name": "account",
          "type": "address"
        }
      ],
      "name": "balanceOf",
      "outputs": [
        {
          "internalType": "uint256",
          "name": "",
          "type": "uint256"
        }
      ],
      "stateMutability": "view",
      "type": "function"
    },
    {
      "inputs": [],
      "name": "collateralVault",
      "outputs": [
        {
          "internalType": "address",
          "name": "",
          "type": "address"
        }
      ],
      "stateMutability": "view",
      "type": "function"
    },
    {
      "inputs": [],
      "name": "decimals",
      "outputs": [
        {
          "internalType": "uint8",
          "name": "",
          "type": "uint8"
        }
      ],
      "stateMutability": "view",
      "type": "function"
    },
    {
      "inputs": [
        {
          "internalType": "address",
          "name": "spender",
          "type": "address"
        },
        {
          "internalType": "uint256",
          "name": "subtractedValue",
          "type": "uint256"
        }
      ],
      "name": "decreaseAllowance",
      "outputs": [
        {
          "internalType": "bool",
          "name": "",
          "type": "bool"
        }
      ],
      "stateMutability": "nonpayable",
      "type": "function"
    },
    {
      "inputs": [
        {
          "internalType": "uint256",
          "name": "_amount",
          "type": "uint256"
        },
        {
          "internalType": "address",
          "name": "_to",
          "type": "address"
        }
      ],
      "name": "deposit",
      "outputs": [],
      "stateMutability": "nonpayable",
      "type": "function"
    },
    {
      "inputs": [
        {
          "internalType": "address",
          "name": "_account",
          "type": "address"
        }
      ],
      "name": "earned",
      "outputs": [
        {
          "components": [
            {
              "internalType": "address",
              "name": "token",
              "type": "address"
            },
            {
              "internalType": "uint256",
              "name": "amount",
              "type": "uint256"
            }
          ],
          "internalType": "struct MuKglStakingWrapper.EarnedData[]",
          "name": "claimable",
          "type": "tuple[]"
        }
      ],
      "stateMutability": "view",
      "type": "function"
    },
    {
      "inputs": [
        {
          "internalType": "address",
          "name": "_account",
          "type": "address"
        }
      ],
      "name": "getReward",
      "outputs": [],
      "stateMutability": "nonpayable",
      "type": "function"
    },
    {
      "inputs": [
        {
          "internalType": "address",
          "name": "spender",
          "type": "address"
        },
        {
          "internalType": "uint256",
          "name": "addedValue",
          "type": "uint256"
        }
      ],
      "name": "increaseAllowance",
      "outputs": [
        {
          "internalType": "bool",
          "name": "",
          "type": "bool"
        }
      ],
      "stateMutability": "nonpayable",
      "type": "function"
    },
    {
      "inputs": [
        {
          "internalType": "address",
          "name": "_vault",
          "type": "address"
        }
      ],
      "name": "initialize",
      "outputs": [],
      "stateMutability": "nonpayable",
      "type": "function"
    },
    {
      "inputs": [],
      "name": "isInit",
      "outputs": [
        {
          "internalType": "bool",
          "name": "",
          "type": "bool"
        }
      ],
      "stateMutability": "view",
      "type": "function"
    },
    {
      "inputs": [],
      "name": "isShutdown",
      "outputs": [
        {
          "internalType": "bool",
          "name": "",
          "type": "bool"
        }
      ],
      "stateMutability": "view",
      "type": "function"
    },
    {
      "inputs": [],
      "name": "kgl",
      "outputs": [
        {
          "internalType": "address",
          "name": "",
          "type": "address"
        }
      ],
      "stateMutability": "view",
      "type": "function"
    },
    {
      "inputs": [],
      "name": "kglDepositor",
      "outputs": [
        {
          "internalType": "address",
          "name": "",
          "type": "address"
        }
      ],
      "stateMutability": "view",
      "type": "function"
    },
    {
      "inputs": [],
      "name": "muKgl",
      "outputs": [
        {
          "internalType": "address",
          "name": "",
          "type": "address"
        }
      ],
      "stateMutability": "view",
      "type": "function"
    },
    {
      "inputs": [],
      "name": "muKglStaking",
      "outputs": [
        {
          "internalType": "address",
          "name": "",
          "type": "address"
        }
      ],
      "stateMutability": "view",
      "type": "function"
    },
    {
      "inputs": [],
      "name": "muuu",
      "outputs": [
        {
          "internalType": "address",
          "name": "",
          "type": "address"
        }
      ],
      "stateMutability": "view",
      "type": "function"
    },
    {
      "inputs": [
        {
          "internalType": "address",
          "name": "",
          "type": "address"
        }
      ],
      "name": "muuu_claimable_reward",
      "outputs": [
        {
          "internalType": "uint256",
          "name": "",
          "type": "uint256"
        }
      ],
      "stateMutability": "view",
      "type": "function"
    },
    {
      "inputs": [],
      "name": "muuu_reward_integral",
      "outputs": [
        {
          "internalType": "uint256",
          "name": "",
          "type": "uint256"
        }
      ],
      "stateMutability": "view",
      "type": "function"
    },
    {
      "inputs": [
        {
          "internalType": "address",
          "name": "",
          "type": "address"
        }
      ],
      "name": "muuu_reward_integral_for",
      "outputs": [
        {
          "internalType": "uint256",
          "name": "",
          "type": "uint256"
        }
      ],
      "stateMutability": "view",
      "type": "function"
    },
    {
      "inputs": [],
      "name": "muuu_reward_remaining",
      "outputs": [
        {
          "internalType": "uint256",
          "name": "",
          "type": "uint256"
        }
      ],
      "stateMutability": "view",
      "type": "function"
    },
    {
      "inputs": [],
      "name": "name",
      "outputs": [
        {
          "internalType": "string",
          "name": "",
          "type": "string"
        }
      ],
      "stateMutability": "view",
      "type": "function"
    },
    {
      "inputs": [],
      "name": "owner",
      "outputs": [
        {
          "internalType": "address",
          "name": "",
          "type": "address"
        }
      ],
      "stateMutability": "view",
      "type": "function"
    },
    {
      "inputs": [],
      "name": "renounceOwnership",
      "outputs": [],
      "stateMutability": "nonpayable",
      "type": "function"
    },
    {
      "inputs": [],
      "name": "rewardLength",
      "outputs": [
        {
          "internalType": "uint256",
          "name": "",
          "type": "uint256"
        }
      ],
      "stateMutability": "view",
      "type": "function"
    },
    {
      "inputs": [
        {
          "internalType": "uint256",
          "name": "",
          "type": "uint256"
        }
      ],
      "name": "rewards",
      "outputs": [
        {
          "internalType": "address",
          "name": "reward_token",
          "type": "address"
        },
        {
          "internalType": "address",
          "name": "reward_pool",
          "type": "address"
        },
        {
          "internalType": "uint128",
          "name": "reward_integral",
          "type": "uint128"
        },
        {
          "internalType": "uint128",
          "name": "reward_remaining",
          "type": "uint128"
        }
      ],
      "stateMutability": "view",
      "type": "function"
    },
    {
      "inputs": [],
      "name": "setApprovals",
      "outputs": [],
      "stateMutability": "nonpayable",
      "type": "function"
    },
    {
      "inputs": [
        {
          "internalType": "address",
          "name": "_vault",
          "type": "address"
        }
      ],
      "name": "setVault",
      "outputs": [],
      "stateMutability": "nonpayable",
      "type": "function"
    },
    {
      "inputs": [],
      "name": "shutdown",
      "outputs": [],
      "stateMutability": "nonpayable",
      "type": "function"
    },
    {
      "inputs": [
        {
          "internalType": "uint256",
          "name": "_amount",
          "type": "uint256"
        },
        {
          "internalType": "address",
          "name": "_to",
          "type": "address"
        }
      ],
      "name": "stake",
      "outputs": [],
      "stateMutability": "nonpayable",
      "type": "function"
    },
    {
      "inputs": [],
      "name": "symbol",
      "outputs": [
        {
          "internalType": "string",
          "name": "",
          "type": "string"
        }
      ],
      "stateMutability": "view",
      "type": "function"
    },
    {
      "inputs": [
        {
          "internalType": "address",
          "name": "_account",
          "type": "address"
        }
      ],
      "name": "totalBalanceOf",
      "outputs": [
        {
          "internalType": "uint256",
          "name": "",
          "type": "uint256"
        }
      ],
      "stateMutability": "view",
      "type": "function"
    },
    {
      "inputs": [],
      "name": "totalSupply",
      "outputs": [
        {
          "internalType": "uint256",
          "name": "",
          "type": "uint256"
        }
      ],
      "stateMutability": "view",
      "type": "function"
    },
    {
      "inputs": [
        {
          "internalType": "address",
          "name": "recipient",
          "type": "address"
        },
        {
          "internalType": "uint256",
          "name": "amount",
          "type": "uint256"
        }
      ],
      "name": "transfer",
      "outputs": [
        {
          "internalType": "bool",
          "name": "",
          "type": "bool"
        }
      ],
      "stateMutability": "nonpayable",
      "type": "function"
    },
    {
      "inputs": [
        {
          "internalType": "address",
          "name": "sender",
          "type": "address"
        },
        {
          "internalType": "address",
          "name": "recipient",
          "type": "address"
        },
        {
          "internalType": "uint256",
          "name": "amount",
          "type": "uint256"
        }
      ],
      "name": "transferFrom",
      "outputs": [
        {
          "internalType": "bool",
          "name": "",
          "type": "bool"
        }
      ],
      "stateMutability": "nonpayable",
      "type": "function"
    },
    {
      "inputs": [
        {
          "internalType": "address",
          "name": "newOwner",
          "type": "address"
        }
      ],
      "name": "transferOwnership",
      "outputs": [],
      "stateMutability": "nonpayable",
      "type": "function"
    },
    {
      "inputs": [
        {
          "internalType": "address[2]",
          "name": "_accounts",
          "type": "address[2]"
        }
      ],
      "name": "user_checkpoint",
      "outputs": [
        {
          "internalType": "bool",
          "name": "",
          "type": "bool"
        }
      ],
      "stateMutability": "nonpayable",
      "type": "function"
    },
    {
      "inputs": [
        {
          "internalType": "uint256",
          "name": "_amount",
          "type": "uint256"
        }
      ],
      "name": "withdraw",
      "outputs": [],
      "stateMutability": "nonpayable",
      "type": "function"
    }
  ],
  "bytecode": "0x60806040523480156200001157600080fd5b50604080518082018252600c81526b14dd185ad95908135d52d9db60a21b6020808301918252835180850190945260088452671cdd1ad35d52d9db60c21b908401528151919291620000669160039162000097565b5080516200007c90600490602084019062000097565b50506005805460ff1916601217905550600160065562000133565b828054600181600116156101000203166002900490600052602060002090601f016020900481019282601f10620000da57805160ff19168380011785556200010a565b828001600101855582156200010a579182015b828111156200010a578251825591602001919060010190620000ed565b50620001189291506200011c565b5090565b5b808211156200011857600081556001016200011d565b61331e80620001436000396000f3fe608060405234801561001057600080fd5b50600436106102475760003560e01c80637acb77571161013b578063c4d66de8116100b8578063e92244251161007c578063e922442514610483578063f2f6a6b61461048b578063f2fde38b14610493578063f301af42146104a6578063fc0e74d1146104c957610247565b8063c4d66de81461043a578063c90bbeee1461044d578063d782139a14610455578063dd62ed3e1461045d578063e2aecded1461047057610247565b8063a9059cbb116100ff578063a9059cbb146103fc578063b145a5b81461040f578063b95c574614610417578063bf86d6901461041f578063c00007b01461042757610247565b80637acb7757146103be5780638757b15b146103d15780638da5cb5b146103d957806395d89b41146103e1578063a457c2d7146103e957610247565b8063313ce567116101c95780636e553f651161018d5780636e553f651461037557806370a0823114610388578063715018a61461039b57806372e2339e146103a357806379bdb63c146103b657610247565b8063313ce5671461031f57806339509351146103345780634b0ee02a146103475780635b1d9b621461035a5780636817031b1461036257610247565b806314d6aed01161021057806314d6aed0146102df57806318160ddd146102e9578063236dcb63146102f157806323b872dd146102f95780632e1a7d4d1461030c57610247565b80628cc2621461024c57806306fdde031461027557806308fb8a1f1461028a578063095ea7b3146102aa5780630bece79c146102ca575b600080fd5b61025f61025a366004612a4c565b6104d1565b60405161026c9190612c97565b60405180910390f35b61027d6108c3565b60405161026c9190612cfa565b61029d610298366004612a4c565b610959565b60405161026c91906131cc565b6102bd6102b8366004612afc565b61096b565b60405161026c9190612cef565b6102d2610989565b60405161026c9190612bdd565b6102e7610998565b005b61029d610d1c565b6102d2610d22565b6102bd610307366004612abc565b610d3a565b6102e761031a366004612b6d565b610dc2565b610327610edd565b60405161026c9190613204565b6102bd610342366004612afc565b610ee2565b61029d610355366004612a4c565b610f30565b61029d610f3b565b6102e7610370366004612a4c565b610f41565b6102e7610383366004612b9d565b610fbc565b61029d610396366004612a4c565b611111565b6102e761112c565b61029d6103b1366004612a4c565b6111ae565b6102d26111c0565b6102e76103cc366004612b9d565b6111d8565b6102e7611303565b6102d26113d7565b61027d6113ec565b6102bd6103f7366004612afc565b61144d565b6102bd61040a366004612afc565b6114b5565b6102bd6114c9565b61029d6114d7565b6102bd6114dd565b6102e7610435366004612a4c565b6114e6565b6102e7610448366004612a4c565b61150f565b6102d261164b565b6102d2611663565b61029d61046b366004612a84565b61167b565b6102bd61047e366004612b27565b6116a6565b61029d61170f565b6102d2611715565b6102e76104a1366004612a4c565b61172d565b6104b96104b4366004612b6d565b6117ed565b60405161026c9493929190612c0b565b6102e761183e565b606060006104dd61187d565b600c549091506001810167ffffffffffffffff811180156104fd57600080fd5b5060405190808252806020026020018201604052801561053757816020015b610524612984565b81526020019060019003908161051c5790505b50925060005b818110156108ba576000600c828154811061055457fe5b60009182526020822060059091020180546040516370a0823160e01b81529193506001600160a01b0316906370a0823190610593903090600401612bdd565b60206040518083038186803b1580156105ab57600080fd5b505afa1580156105bf573d6000803e3d6000fd5b505050506040513d601f19601f820116820180604052508101906105e39190612b85565b6002830154909150600090610609908390600160801b90046001600160801b031661188e565b60018401546040516246613160e11b8152919250610697916001600160a01b0390911690628cc26290610640903090600401612bdd565b60206040518083038186803b15801561065857600080fd5b505afa15801561066c573d6000803e3d6000fd5b505050506040513d601f19601f820116820180604052508101906106909190612b85565b82906118b6565b60028401549091506001600160801b031686156106cd576106cb876106c58468056bc75e2d631000006118db565b90611915565b015b6001600160a01b03891660009081526003850160205260408120546107159068056bc75e2d63100000906106c59061070690869061188e565b61070f8e611947565b906118db565b6001600160a01b038b16600090815260048701602052604090205490915061073d90826118b6565b89878151811061074957fe5b6020908102919091018101510152845489516001600160a01b03909116908a908890811061077357fe5b60209081029190910101516001600160a01b03918216905285541673d533a949740bb3306d119cc777fa900ba034cd5214156108a957604051638f4000bd60e01b81526108539073__$edb736befb4a32d18e39425ff41eb11cf0$__90638f4000bd906107e49085906004016131cc565b60206040518083038186803b1580156107fc57600080fd5b505af4158015610810573d6000803e3d6000fd5b505050506040513d601f19601f820116820180604052508101906108349190612b85565b6001600160a01b038c166000908152600a6020526040902054906118b6565b89888151811061085f57fe5b60200260200101516020018181525050734e3fbd56cd56c3e72c1403e103b45db9da5b9d2b89888151811061089057fe5b60209081029190910101516001600160a01b0390911690525b50506001909301925061053d915050565b5050505b919050565b600e8054604080516020601f600260001961010060018816150201909516949094049384018190048102820181019092528281526060939092909183018282801561094f5780601f106109245761010080835404028352916020019161094f565b820191906000526020600020905b81548152906001019060200180831161093257829003601f168201915b5050505050905090565b600a6020526000908152604090205481565b600061097f610978611a2f565b8484611a33565b5060015b92915050565b600b546001600160a01b031681565b600c54610ac3576040805160808101825273d533a949740bb3306d119cc777fa900ba034cd528152733fe65692bfcd0e6cf84cb1e7d24108e434a7587e60208201908152600092820183815260608301848152600c8054600181018255955292517fdf6966c971051c3d54ec59162606531493a51404a002842f56009d7e5cf4a8c7600590950294850180546001600160a01b03199081166001600160a01b039384161790915592517fdf6966c971051c3d54ec59162606531493a51404a002842f56009d7e5cf4a8c886018054909416911617909155517fdf6966c971051c3d54ec59162606531493a51404a002842f56009d7e5cf4a8c9909201805491516001600160801b03199092166001600160801b03938416178316600160801b93909216929092021790555b6000733fe65692bfcd0e6cf84cb1e7d24108e434a7587e6001600160a01b031663d55a23f46040518163ffffffff1660e01b815260040160206040518083038186803b158015610b1257600080fd5b505afa158015610b26573d6000803e3d6000fd5b505050506040513d601f19601f82011682018060405250810190610b4a9190612b85565b600c5490915060001901805b82811015610d1757604051632061aa2360e11b8152600090733fe65692bfcd0e6cf84cb1e7d24108e434a7587e906340c3544690610b989085906004016131cc565b60206040518083038186803b158015610bb057600080fd5b505afa158015610bc4573d6000803e3d6000fd5b505050506040513d601f19601f82011682018060405250810190610be89190612a68565b9050600c6040518060800160405280836001600160a01b031663f7c618c16040518163ffffffff1660e01b815260040160206040518083038186803b158015610c3057600080fd5b505afa158015610c44573d6000803e3d6000fd5b505050506040513d601f19601f82011682018060405250810190610c689190612a68565b6001600160a01b03908116825293841660208083019190915260006040808401829052606093840182905285546001808201885596835291839020855160059093020180546001600160a01b03199081169389169390931781559285015183870180549093169716969096179055938201516002909401805492909101516001600160801b03199092166001600160801b03948516178416600160801b94909216939093021790915501610b56565b505050565b60025490565b7362b9c7356a2dc64a1969e19c23e4f579f9810aa781565b6000610d47848484611ae7565b610db784610d53611a2f565b610db28560405180606001604052806028815260200161329c602891396001600160a01b038a16600090815260016020526040812090610d91611a2f565b6001600160a01b031681526020810191909152604001600020549190611bfc565b611a33565b5060015b9392505050565b60026006541415610dee5760405162461bcd60e51b8152600401610de590613108565b60405180910390fd5b60026006558015610e9157610e033382611c28565b604051631c683a1b60e11b8152733fe65692bfcd0e6cf84cb1e7d24108e434a7587e906338d0743690610e3d9084906000906004016131d5565b600060405180830381600087803b158015610e5757600080fd5b505af1158015610e6b573d6000803e3d6000fd5b50610e9192507362b9c7356a2dc64a1969e19c23e4f579f9810aa7915033905083611d0a565b336001600160a01b03167f2fd83d5e9f5d240bed47a97a24cf354e4047e25edc2da27b01fd95e5e8a0c9a5826000604051610ecd9291906131d5565b60405180910390a2506001600655565b601290565b600061097f610eef611a2f565b84610db28560016000610f00611a2f565b6001600160a01b03908116825260208083019390935260409182016000908120918c1681529252902054906118b6565b600061098382611947565b60075481565b600d546201000090046001600160a01b03163314610f715760405162461bcd60e51b8152600401610de590612f4a565b600b546001600160a01b031615610f9a5760405162461bcd60e51b8152600401610de5906130a2565b600b80546001600160a01b0319166001600160a01b0392909216919091179055565b60026006541415610fdf5760405162461bcd60e51b8152600401610de590613108565b6002600655600d5460ff16156110075760405162461bcd60e51b8152600401610de590613005565b81156110ba576110178183611d60565b61103773d533a949740bb3306d119cc777fa900ba034cd52333085611e14565b60405163203b5c7960e21b8152738014595f2ab54cd7c604b00e9fb932176fdc86ae906380ed71e490611087908590600090733fe65692bfcd0e6cf84cb1e7d24108e434a7587e906004016131e5565b600060405180830381600087803b1580156110a157600080fd5b505af11580156110b5573d6000803e3d6000fd5b505050505b806001600160a01b0316336001600160a01b03167fb32af138549e2a71563d1f2b1f7f0a139b3cdbc83d877d13603de1c3c5fd487a8460016040516111009291906131d5565b60405180910390a350506001600655565b6001600160a01b031660009081526020819052604090205490565b600d546201000090046001600160a01b0316331461115c5760405162461bcd60e51b8152600401610de590612f4a565b600d546040516000916201000090046001600160a01b0316907f8be0079c531659141344cd1fd0a4f28419497f9722a3daafe3b4186f6b6457e0908390a3600d805462010000600160b01b0319169055565b60096020526000908152604090205481565b733fe65692bfcd0e6cf84cb1e7d24108e434a7587e81565b600260065414156111fb5760405162461bcd60e51b8152600401610de590613108565b6002600655600d5460ff16156112235760405162461bcd60e51b8152600401610de590613005565b81156112bd576112338183611d60565b6112537362b9c7356a2dc64a1969e19c23e4f579f9810aa7333085611e14565b60405163534a7e1d60e11b8152733fe65692bfcd0e6cf84cb1e7d24108e434a7587e9063a694fc3a9061128a9085906004016131cc565b600060405180830381600087803b1580156112a457600080fd5b505af11580156112b8573d6000803e3d6000fd5b505050505b806001600160a01b0316336001600160a01b03167fb32af138549e2a71563d1f2b1f7f0a139b3cdbc83d877d13603de1c3c5fd487a8460006040516111009291906131d5565b61133773d533a949740bb3306d119cc777fa900ba034cd52738014595f2ab54cd7c604b00e9fb932176fdc86ae6000611e3b565b61136c73d533a949740bb3306d119cc777fa900ba034cd52738014595f2ab54cd7c604b00e9fb932176fdc86ae600019611e3b565b6113a07362b9c7356a2dc64a1969e19c23e4f579f9810aa7733fe65692bfcd0e6cf84cb1e7d24108e434a7587e6000611e3b565b6113d57362b9c7356a2dc64a1969e19c23e4f579f9810aa7733fe65692bfcd0e6cf84cb1e7d24108e434a7587e600019611e3b565b565b600d546201000090046001600160a01b031681565b600f8054604080516020601f600260001961010060018816150201909516949094049384018190048102820181019092528281526060939092909183018282801561094f5780601f106109245761010080835404028352916020019161094f565b600061097f61145a611a2f565b84610db2856040518060600160405280602581526020016132c46025913960016000611484611a2f565b6001600160a01b03908116825260208083019390935260409182016000908120918d16815292529020549190611bfc565b600061097f6114c2611a2f565b8484611ae7565b600d54610100900460ff1681565b600c5490565b600d5460ff1681565b604080518082019091526001600160a01b03821681526000602082015261150c90611efe565b50565b600d54610100900460ff16156115375760405162461bcd60e51b8152600401610de590612ee3565b600d805475a3c5a1e09150b75ff251c1a7815a07182c3de2fb000062010000600160b01b03199091161790819055604051620100009091046001600160a01b0316906000907f8be0079c531659141344cd1fd0a4f28419497f9722a3daafe3b4186f6b6457e0908290a3604080518082019091526011808252705374616b6564204d754b676c205261726960781b60209092019182526115d991600e9161299b565b5060408051808201909152600d8082526c73746b4d754b676c2d7261726960981b602090920191825261160e91600f9161299b565b50600d805461ffff1916610100179055600b80546001600160a01b0383166001600160a01b0319909116179055611643610998565b61150c611303565b738014595f2ab54cd7c604b00e9fb932176fdc86ae81565b73d533a949740bb3306d119cc777fa900ba034cd5281565b6001600160a01b03918216600090815260016020908152604080832093909416825291909152205490565b60006117076040518060400160405280846000600281106116c357fe5b6020020160208101906116d69190612a4c565b6001600160a01b031681526020908101906116f79060408701908701612a4c565b6001600160a01b03169052611fc5565b506001919050565b60085481565b734e3fbd56cd56c3e72c1403e103b45db9da5b9d2b81565b600d546201000090046001600160a01b0316331461175d5760405162461bcd60e51b8152600401610de590612f4a565b6001600160a01b0381166117835760405162461bcd60e51b8152600401610de590612d70565b600d546040516001600160a01b038084169262010000900416907f8be0079c531659141344cd1fd0a4f28419497f9722a3daafe3b4186f6b6457e090600090a3600d80546001600160a01b03909216620100000262010000600160b01b0319909216919091179055565b600c81815481106117fa57fe5b60009182526020909120600590910201805460018201546002909201546001600160a01b0391821693509116906001600160801b0380821691600160801b90041684565b600d546201000090046001600160a01b0316331461186e5760405162461bcd60e51b8152600401610de590612f4a565b600d805460ff19166001179055565b600080611888610d1c565b91505090565b6000828211156118b05760405162461bcd60e51b8152600401610de590612e2f565b50900390565b600082820183811015610dbb5760405162461bcd60e51b8152600401610de590612df8565b6000826118ea57506000610983565b828202828482816118f757fe5b0414610dbb5760405162461bcd60e51b8152600401610de590612f09565b60008082116119365760405162461bcd60e51b8152600401610de590612eac565b81838161193f57fe5b049392505050565b60006001600160a01b038216158061196c5750600b546001600160a01b038381169116145b15611979575060006108be565b600b546001600160a01b03166119995761199282611111565b90506108be565b600b54604051633af9e66960e01b81526000916001600160a01b031690633af9e669906119ca908690600401612bdd565b60206040518083038186803b1580156119e257600080fd5b505afa1580156119f6573d6000803e3d6000fd5b505050506040513d601f19601f82011682018060405250810190611a1a9190612b85565b9050610dbb81611a2985611111565b906118b6565b3390565b6001600160a01b038316611a595760405162461bcd60e51b8152600401610de590613027565b6001600160a01b038216611a7f5760405162461bcd60e51b8152600401610de590612db6565b6001600160a01b0380841660008181526001602090815260408083209487168084529490915290819020849055517f8c5be1e5ebec7d5bd14f71427d1e84f3dd0314c0f7b2291e5b200ac8c7c3b92590611ada9085906131cc565b60405180910390a3505050565b6001600160a01b038316611b0d5760405162461bcd60e51b8152600401610de590612fc0565b6001600160a01b038216611b335760405162461bcd60e51b8152600401610de590612d2d565b611b3e8383836120a6565b611b7b81604051806060016040528060268152602001613276602691396001600160a01b0386166000908152602081905260409020549190611bfc565b6001600160a01b038085166000908152602081905260408082209390935590841681522054611baa90826118b6565b6001600160a01b0380841660008181526020819052604090819020939093559151908516907fddf252ad1be2c89b69c2b068fc378daa952ba7f163c4a11628f55a4df523b3ef90611ada9085906131cc565b60008184841115611c205760405162461bcd60e51b8152600401610de59190612cfa565b505050900390565b6001600160a01b038216611c4e5760405162461bcd60e51b8152600401610de590612f7f565b611c5a826000836120a6565b611c9781604051806060016040528060228152602001613254602291396001600160a01b0385166000908152602081905260409020549190611bfc565b6001600160a01b038316600090815260208190526040902055600254611cbd908261188e565b6002556040516000906001600160a01b038416907fddf252ad1be2c89b69c2b068fc378daa952ba7f163c4a11628f55a4df523b3ef90611cfe9085906131cc565b60405180910390a35050565b610d178363a9059cbb60e01b8484604051602401611d29929190612c7e565b60408051601f198184030181529190526020810180516001600160e01b03166001600160e01b0319909316929092179091526120cd565b6001600160a01b038216611d865760405162461bcd60e51b8152600401610de590613195565b611d92600083836120a6565b600254611d9f90826118b6565b6002556001600160a01b038216600090815260208190526040902054611dc590826118b6565b6001600160a01b0383166000818152602081905260408082209390935591519091907fddf252ad1be2c89b69c2b068fc378daa952ba7f163c4a11628f55a4df523b3ef90611cfe9085906131cc565b611e35846323b872dd60e01b858585604051602401611d2993929190612c3f565b50505050565b801580611ec35750604051636eb1769f60e11b81526001600160a01b0384169063dd62ed3e90611e719030908690600401612bf1565b60206040518083038186803b158015611e8957600080fd5b505afa158015611e9d573d6000803e3d6000fd5b505050506040513d601f19601f82011682018060405250810190611ec19190612b85565b155b611edf5760405162461bcd60e51b8152600401610de59061313f565b610d178363095ea7b360e01b8484604051602401611d29929190612c7e565b6000611f0861187d565b9050611f12612a19565b611f238360005b6020020151611947565b8152604051637050ccd960e01b8152733fe65692bfcd0e6cf84cb1e7d24108e434a7587e90637050ccd990611f5f903090600190600401612c63565b600060405180830381600087803b158015611f7957600080fd5b505af1158015611f8d573d6000803e3d6000fd5b5050600c549150600090505b81811015611fb757611faf81868587600161215c565b600101611f99565b50611e358483856001612581565b600d5460ff1615611fd55761150c565b6000611fdf61187d565b9050611fe9612a19565b611ff4836000611f19565b8152612001836001611f19565b6020820152604051637050ccd960e01b8152733fe65692bfcd0e6cf84cb1e7d24108e434a7587e90637050ccd990612040903090600190600401612c63565b600060405180830381600087803b15801561205a57600080fd5b505af115801561206e573d6000803e3d6000fd5b5050600c549150600090505b818110156120985761209081868587600061215c565b60010161207a565b50611e358483856000612581565b604080518082019091526001600160a01b03808516825283166020820152610d1790611fc5565b6060612122826040518060400160405280602081526020017f5361666545524332303a206c6f772d6c6576656c2063616c6c206661696c6564815250856001600160a01b031661286d9092919063ffffffff16565b805190915015610d1757808060200190518101906121409190612b4d565b610d175760405162461bcd60e51b8152600401610de5906130be565b6000600c868154811061216b57fe5b60009182526020822060059091020180546040516370a0823160e01b81529193506001600160a01b0316906370a08231906121aa903090600401612bdd565b60206040518083038186803b1580156121c257600080fd5b505afa1580156121d6573d6000803e3d6000fd5b505050506040513d601f19601f820116820180604052508101906121fa9190612b85565b905060008411801561222c5750600282015460009061222a908390600160801b90046001600160801b031661188e565b115b1561228e5760028201546122669085906106c59068056bc75e2d631000009061070f908690600160801b90046001600160801b031661188e565b6002830180546001600160801b031981166001600160801b0391821693909301169190911790555b60005b600281101561253f5760008782600281106122a857fe5b60200201516001600160a01b031614156122c157612537565b600b546001600160a01b03168782600281106122d957fe5b60200201516001600160a01b031614156122f257612537565b600083600301600089846002811061230657fe5b60200201516001600160a01b03166001600160a01b031681526020019081526020016000205490508480612346575060028401546001600160801b031681105b1561253557841561245e5760028401546000906123e09061239a9068056bc75e2d63100000906106c590612383906001600160801b03168761188e565b8c886002811061238f57fe5b6020020151906118db565b8660040160008c87600281106123ac57fe5b60200201516001600160a01b03166001600160a01b03168152602001908152602001600020546118b690919063ffffffff16565b905080156124585760008560040160008b86600281106123fc57fe5b60200201516001600160a01b03166001600160a01b031681526020019081526020016000208190555061244b89846002811061243457fe5b602002015186546001600160a01b03169083611d0a565b612455848261188e565b93505b506124e7565b60028401546124ab906124999068056bc75e2d63100000906106c59061248d906001600160801b03168661188e565b8b876002811061238f57fe5b8560040160008b86600281106123ac57fe5b8460040160008a85600281106124bd57fe5b60200201516001600160a01b03166001600160a01b03168152602001908152602001600020819055505b6002808501546001600160801b03169060038601906000908b908690811061250b57fe5b60200201516001600160a01b03166001600160a01b03168152602001908152602001600020819055505b505b600101612291565b506002820154600160801b90046001600160801b03168114612578576002820180546001600160801b03808416600160801b0291161790555b50505050505050565b6040516370a0823160e01b8152600090734e3fbd56cd56c3e72c1403e103b45db9da5b9d2b906370a08231906125bb903090600401612bdd565b60206040518083038186803b1580156125d357600080fd5b505afa1580156125e7573d6000803e3d6000fd5b505050506040513d601f19601f8201168201806040525081019061260b9190612b85565b905060006126246008548361188e90919063ffffffff16565b90506000841180156126365750600081115b1561265d57612652846106c58368056bc75e2d631000006118db565b600754016007819055505b60005b600281101561285557600087826002811061267757fe5b60200201516001600160a01b031614156126905761284d565b600b546001600160a01b03168782600281106126a857fe5b60200201516001600160a01b031614156126c15761284d565b6000600960008984600281106126d357fe5b60200201516001600160a01b03166001600160a01b031681526020019081526020016000205490508480612708575060075481105b1561284b57600061274761273768056bc75e2d631000006106c56123838660075461188e90919063ffffffff16565b600a60008c87600281106123ac57fe5b905085156127d25780156127cd576000600a60008b866002811061276757fe5b60200201516001600160a01b03166001600160a01b03168152602001908152602001600020819055506127c089846002811061279f57fe5b6020020151734e3fbd56cd56c3e72c1403e103b45db9da5b9d2b9083611d0a565b6127ca858261188e565b94505b61280d565b80600a60008b86600281106127e357fe5b60200201516001600160a01b03166001600160a01b03168152602001908152602001600020819055505b600754600960008b866002811061282057fe5b60200201516001600160a01b03166001600160a01b0316815260200190815260200160002081905550505b505b600101612660565b5060085482146128655760088290555b505050505050565b606061287c8484600085612884565b949350505050565b6060824710156128a65760405162461bcd60e51b8152600401610de590612e66565b6128af85612945565b6128cb5760405162461bcd60e51b8152600401610de59061306b565b60006060866001600160a01b031685876040516128e89190612bc1565b60006040518083038185875af1925050503d8060008114612925576040519150601f19603f3d011682016040523d82523d6000602084013e61292a565b606091505b509150915061293a82828661294b565b979650505050505050565b3b151590565b6060831561295a575081610dbb565b82511561296a5782518084602001fd5b8160405162461bcd60e51b8152600401610de59190612cfa565b604080518082019091526000808252602082015290565b828054600181600116156101000203166002900490600052602060002090601f016020900481019282601f106129dc57805160ff1916838001178555612a09565b82800160010185558215612a09579182015b82811115612a095782518255916020019190600101906129ee565b50612a15929150612a37565b5090565b60405180604001604052806002906020820280368337509192915050565b5b80821115612a155760008155600101612a38565b600060208284031215612a5d578081fd5b8135610dbb8161323e565b600060208284031215612a79578081fd5b8151610dbb8161323e565b60008060408385031215612a96578081fd5b8235612aa18161323e565b91506020830135612ab18161323e565b809150509250929050565b600080600060608486031215612ad0578081fd5b8335612adb8161323e565b92506020840135612aeb8161323e565b929592945050506040919091013590565b60008060408385031215612b0e578182fd5b8235612b198161323e565b946020939093013593505050565b600060408284031215612b38578081fd5b82604083011115612b47578081fd5b50919050565b600060208284031215612b5e578081fd5b81518015158114610dbb578182fd5b600060208284031215612b7e578081fd5b5035919050565b600060208284031215612b96578081fd5b5051919050565b60008060408385031215612baf578182fd5b823591506020830135612ab18161323e565b60008251612bd3818460208701613212565b9190910192915050565b6001600160a01b0391909116815260200190565b6001600160a01b0392831681529116602082015260400190565b6001600160a01b0394851681529290931660208301526001600160801b039081166040830152909116606082015260800190565b6001600160a01b039384168152919092166020820152604081019190915260600190565b6001600160a01b039290921682521515602082015260400190565b6001600160a01b03929092168252602082015260400190565b602080825282518282018190526000919060409081850190868401855b82811015612ce257815180516001600160a01b03168552860151868501529284019290850190600101612cb4565b5091979650505050505050565b901515815260200190565b6000602082528251806020840152612d19816040850160208701613212565b601f01601f19169190910160400192915050565b60208082526023908201527f45524332303a207472616e7366657220746f20746865207a65726f206164647260408201526265737360e81b606082015260800190565b60208082526026908201527f4f776e61626c653a206e6577206f776e657220697320746865207a65726f206160408201526564647265737360d01b606082015260800190565b60208082526022908201527f45524332303a20617070726f766520746f20746865207a65726f206164647265604082015261737360f01b606082015260800190565b6020808252601b908201527f536166654d6174683a206164646974696f6e206f766572666c6f770000000000604082015260600190565b6020808252601e908201527f536166654d6174683a207375627472616374696f6e206f766572666c6f770000604082015260600190565b60208082526026908201527f416464726573733a20696e73756666696369656e742062616c616e636520666f6040820152651c8818d85b1b60d21b606082015260800190565b6020808252601a908201527f536166654d6174683a206469766973696f6e206279207a65726f000000000000604082015260600190565b6020808252600c908201526b185b1c9958591e481a5b9a5d60a21b604082015260600190565b60208082526021908201527f536166654d6174683a206d756c7469706c69636174696f6e206f766572666c6f6040820152607760f81b606082015260800190565b6020808252818101527f4f776e61626c653a2063616c6c6572206973206e6f7420746865206f776e6572604082015260600190565b60208082526021908201527f45524332303a206275726e2066726f6d20746865207a65726f206164647265736040820152607360f81b606082015260800190565b60208082526025908201527f45524332303a207472616e736665722066726f6d20746865207a65726f206164604082015264647265737360d81b606082015260800190565b60208082526008908201526739b43aba3237bbb760c11b604082015260600190565b60208082526024908201527f45524332303a20617070726f76652066726f6d20746865207a65726f206164646040820152637265737360e01b606082015260800190565b6020808252601d908201527f416464726573733a2063616c6c20746f206e6f6e2d636f6e7472616374000000604082015260600190565b602080825260029082015261021360f41b604082015260600190565b6020808252602a908201527f5361666545524332303a204552433230206f7065726174696f6e20646964206e6040820152691bdd081cdd58d8d9595960b21b606082015260800190565b6020808252601f908201527f5265656e7472616e637947756172643a207265656e7472616e742063616c6c00604082015260600190565b60208082526036908201527f5361666545524332303a20617070726f76652066726f6d206e6f6e2d7a65726f60408201527520746f206e6f6e2d7a65726f20616c6c6f77616e636560501b606082015260800190565b6020808252601f908201527f45524332303a206d696e7420746f20746865207a65726f206164647265737300604082015260600190565b90815260200190565b9182521515602082015260400190565b92835290151560208301526001600160a01b0316604082015260600190565b60ff91909116815260200190565b60005b8381101561322d578181015183820152602001613215565b83811115611e355750506000910152565b6001600160a01b038116811461150c57600080fdfe45524332303a206275726e20616d6f756e7420657863656564732062616c616e636545524332303a207472616e7366657220616d6f756e7420657863656564732062616c616e636545524332303a207472616e7366657220616d6f756e74206578636565647320616c6c6f77616e636545524332303a2064656372656173656420616c6c6f77616e63652062656c6f77207a65726fa26469706673582212206d02d332c5ffdad52401f094634f383da97a4cb08f9016cfe43b66cac57a470764736f6c634300060c0033",
  "linkReferences": {
    "contracts/libraries/MuuuMining.sol": {
      "MuuuMining": [
        {
          "length": 20,
          "start": 2303
        }
      ]
    }
  },
  "deployedLinkReferences": {
    "contracts/libraries/MuuuMining.sol": {
      "MuuuMining": [
        {
          "length": 20,
          "start": 1980
        }
      ]
    }
  }
}