{
  "_format": "hh-sol-artifact-1",
  "contractName": "VirtualBalanceWrapper",
  "sourceName": "contracts/VirtualBalanceRewardPool.sol",
  "abi": [
    {
      "inputs": [
        {
          "internalType": "address",
          "name": "account",
          "type": "address"
        }
      ],
      "name": "balanceOf",
      "outputs": [
        {
          "internalType": "uint256",
          "name": "",
          "type": "uint256"
        }
      ],
      "stateMutability": "view",
      "type": "function"
    },
    {
      "inputs": [],
      "name": "deposits",
      "outputs": [
        {
          "internalType": "contract IDeposit",
          "name": "",
          "type": "address"
        }
      ],
      "stateMutability": "view",
      "type": "function"
    },
    {
      "inputs": [],
      "name": "totalSupply",
      "outputs": [
        {
          "internalType": "uint256",
          "name": "",
          "type": "uint256"
        }
      ],
      "stateMutability": "view",
      "type": "function"
    }
  ],
  "bytecode": "0x608060405234801561001057600080fd5b506101ef806100206000396000f3fe608060405234801561001057600080fd5b50600436106100415760003560e01c806318160ddd14610046578063323a5e0b1461006057806370a0823114610084575b600080fd5b61004e6100aa565b60408051918252519081900360200190f35b61006861012a565b604080516001600160a01b039092168252519081900360200190f35b61004e6004803603602081101561009a57600080fd5b50356001600160a01b0316610139565b60008060009054906101000a90046001600160a01b03166001600160a01b03166318160ddd6040518163ffffffff1660e01b815260040160206040518083038186803b1580156100f957600080fd5b505afa15801561010d573d6000803e3d6000fd5b505050506040513d602081101561012357600080fd5b5051905090565b6000546001600160a01b031681565b60008054604080516370a0823160e01b81526001600160a01b038581166004830152915191909216916370a08231916024808301926020929190829003018186803b15801561018757600080fd5b505afa15801561019b573d6000803e3d6000fd5b505050506040513d60208110156101b157600080fd5b50519291505056fea264697066735822122049b99b6d7ad22d94755c0686384a8375bb47a2be74974cc60be6750f7493cdd264736f6c634300060c0033",
  "linkReferences": {},
  "deployedLinkReferences": {}
}