{
  "_format": "hh-sol-artifact-1",
  "contractName": "MuuuToken",
  "sourceName": "contracts/MuuuToken.sol",
  "abi": [
    {
      "inputs": [],
      "stateMutability": "nonpayable",
      "type": "constructor"
    },
    {
      "anonymous": false,
      "inputs": [
        {
          "indexed": true,
          "internalType": "address",
          "name": "owner",
          "type": "address"
        },
        {
          "indexed": true,
          "internalType": "address",
          "name": "spender",
          "type": "address"
        },
        {
          "indexed": false,
          "internalType": "uint256",
          "name": "value",
          "type": "uint256"
        }
      ],
      "name": "Approval",
      "type": "event"
    },
    {
      "anonymous": false,
      "inputs": [
        {
          "indexed": true,
          "internalType": "address",
          "name": "previousOwner",
          "type": "address"
        },
        {
          "indexed": true,
          "internalType": "address",
          "name": "newOwner",
          "type": "address"
        }
      ],
      "name": "OwnershipTransferred",
      "type": "event"
    },
    {
      "anonymous": false,
      "inputs": [
        {
          "indexed": true,
          "internalType": "address",
          "name": "from",
          "type": "address"
        },
        {
          "indexed": true,
          "internalType": "address",
          "name": "to",
          "type": "address"
        },
        {
          "indexed": false,
          "internalType": "uint256",
          "name": "value",
          "type": "uint256"
        }
      ],
      "name": "Transfer",
      "type": "event"
    },
    {
      "inputs": [
        {
          "internalType": "address",
          "name": "_voterProxy",
          "type": "address"
        }
      ],
      "name": "addMinter",
      "outputs": [],
      "stateMutability": "nonpayable",
      "type": "function"
    },
    {
      "inputs": [
        {
          "internalType": "address",
          "name": "owner",
          "type": "address"
        },
        {
          "internalType": "address",
          "name": "spender",
          "type": "address"
        }
      ],
      "name": "allowance",
      "outputs": [
        {
          "internalType": "uint256",
          "name": "",
          "type": "uint256"
        }
      ],
      "stateMutability": "view",
      "type": "function"
    },
    {
      "inputs": [
        {
          "internalType": "address",
          "name": "spender",
          "type": "address"
        },
        {
          "internalType": "uint256",
          "name": "amount",
          "type": "uint256"
        }
      ],
      "name": "approve",
      "outputs": [
        {
          "internalType": "bool",
          "name": "",
          "type": "bool"
        }
      ],
      "stateMutability": "nonpayable",
      "type": "function"
    },
    {
      "inputs": [
        {
          "internalType": "address",
          "name": "account",
          "type": "address"
        }
      ],
      "name": "balanceOf",
      "outputs": [
        {
          "internalType": "uint256",
          "name": "",
          "type": "uint256"
        }
      ],
      "stateMutability": "view",
      "type": "function"
    },
    {
      "inputs": [],
      "name": "decimals",
      "outputs": [
        {
          "internalType": "uint8",
          "name": "",
          "type": "uint8"
        }
      ],
      "stateMutability": "view",
      "type": "function"
    },
    {
      "inputs": [
        {
          "internalType": "address",
          "name": "spender",
          "type": "address"
        },
        {
          "internalType": "uint256",
          "name": "subtractedValue",
          "type": "uint256"
        }
      ],
      "name": "decreaseAllowance",
      "outputs": [
        {
          "internalType": "bool",
          "name": "",
          "type": "bool"
        }
      ],
      "stateMutability": "nonpayable",
      "type": "function"
    },
    {
      "inputs": [
        {
          "internalType": "address",
          "name": "spender",
          "type": "address"
        },
        {
          "internalType": "uint256",
          "name": "addedValue",
          "type": "uint256"
        }
      ],
      "name": "increaseAllowance",
      "outputs": [
        {
          "internalType": "bool",
          "name": "",
          "type": "bool"
        }
      ],
      "stateMutability": "nonpayable",
      "type": "function"
    },
    {
      "inputs": [],
      "name": "maxSupply",
      "outputs": [
        {
          "internalType": "uint256",
          "name": "",
          "type": "uint256"
        }
      ],
      "stateMutability": "view",
      "type": "function"
    },
    {
      "inputs": [
        {
          "internalType": "address",
          "name": "_to",
          "type": "address"
        },
        {
          "internalType": "uint256",
          "name": "_amount",
          "type": "uint256"
        }
      ],
      "name": "mint",
      "outputs": [],
      "stateMutability": "nonpayable",
      "type": "function"
    },
    {
      "inputs": [
        {
          "internalType": "address",
          "name": "",
          "type": "address"
        }
      ],
      "name": "minterList",
      "outputs": [
        {
          "internalType": "bool",
          "name": "",
          "type": "bool"
        }
      ],
      "stateMutability": "view",
      "type": "function"
    },
    {
      "inputs": [],
      "name": "name",
      "outputs": [
        {
          "internalType": "string",
          "name": "",
          "type": "string"
        }
      ],
      "stateMutability": "view",
      "type": "function"
    },
    {
      "inputs": [],
      "name": "owner",
      "outputs": [
        {
          "internalType": "address",
          "name": "",
          "type": "address"
        }
      ],
      "stateMutability": "view",
      "type": "function"
    },
    {
      "inputs": [],
      "name": "reductionPerCliff",
      "outputs": [
        {
          "internalType": "uint256",
          "name": "",
          "type": "uint256"
        }
      ],
      "stateMutability": "view",
      "type": "function"
    },
    {
      "inputs": [
        {
          "internalType": "address",
          "name": "_minter",
          "type": "address"
        }
      ],
      "name": "removeMinter",
      "outputs": [],
      "stateMutability": "nonpayable",
      "type": "function"
    },
    {
      "inputs": [],
      "name": "renounceOwnership",
      "outputs": [],
      "stateMutability": "nonpayable",
      "type": "function"
    },
    {
      "inputs": [],
      "name": "symbol",
      "outputs": [
        {
          "internalType": "string",
          "name": "",
          "type": "string"
        }
      ],
      "stateMutability": "view",
      "type": "function"
    },
    {
      "inputs": [],
      "name": "totalCliffs",
      "outputs": [
        {
          "internalType": "uint256",
          "name": "",
          "type": "uint256"
        }
      ],
      "stateMutability": "view",
      "type": "function"
    },
    {
      "inputs": [],
      "name": "totalSupply",
      "outputs": [
        {
          "internalType": "uint256",
          "name": "",
          "type": "uint256"
        }
      ],
      "stateMutability": "view",
      "type": "function"
    },
    {
      "inputs": [
        {
          "internalType": "address",
          "name": "recipient",
          "type": "address"
        },
        {
          "internalType": "uint256",
          "name": "amount",
          "type": "uint256"
        }
      ],
      "name": "transfer",
      "outputs": [
        {
          "internalType": "bool",
          "name": "",
          "type": "bool"
        }
      ],
      "stateMutability": "nonpayable",
      "type": "function"
    },
    {
      "inputs": [
        {
          "internalType": "address",
          "name": "sender",
          "type": "address"
        },
        {
          "internalType": "address",
          "name": "recipient",
          "type": "address"
        },
        {
          "internalType": "uint256",
          "name": "amount",
          "type": "uint256"
        }
      ],
      "name": "transferFrom",
      "outputs": [
        {
          "internalType": "bool",
          "name": "",
          "type": "bool"
        }
      ],
      "stateMutability": "nonpayable",
      "type": "function"
    },
    {
      "inputs": [
        {
          "internalType": "address",
          "name": "newOwner",
          "type": "address"
        }
      ],
      "name": "transferOwnership",
      "outputs": [],
      "stateMutability": "nonpayable",
      "type": "function"
    }
  ],
  "bytecode": "0x60806040526a52b7d2dcc80cd2e40000006006556103e86007553480156200002657600080fd5b50604080518082018252600a81526926bababa902a37b5b2b760b11b6020808301918252835180850190945260048452634d55555560e01b9084015281519192916200007591600391620001ad565b5080516200008b906004906020840190620001ad565b50506005805460ff19166012179055506000620000a762000140565b60058054610100600160a81b0319166101006001600160a01b03841690810291909117909155604051919250906000907f8be0079c531659141344cd1fd0a4f28419497f9722a3daafe3b4186f6b6457e0908290a350336000908152600960209081526040909120805460ff19166001179055600754600654620001379290919062000bb162000144821b17901c565b60085562000249565b3390565b60008082116200019b576040805162461bcd60e51b815260206004820152601a60248201527f536166654d6174683a206469766973696f6e206279207a65726f000000000000604482015290519081900360640190fd5b818381620001a557fe5b049392505050565b828054600181600116156101000203166002900490600052602060002090601f016020900481019282601f10620001f057805160ff191683800117855562000220565b8280016001018555821562000220579182015b828111156200022057825182559160200191906001019062000203565b506200022e92915062000232565b5090565b5b808211156200022e576000815560010162000233565b6112a480620002596000396000f3fe608060405234801561001057600080fd5b50600436106101375760003560e01c806370a08231116100b8578063a457c2d71161007c578063a457c2d714610395578063a9059cbb146103c1578063aa74e622146103ed578063d5abeb01146103f5578063dd62ed3e146103fd578063f2fde38b1461042b57610137565b806370a0823114610315578063715018a61461033b5780638da5cb5b1461034357806395d89b4114610367578063983b2d561461036f57610137565b80633092afd5116100ff5780633092afd514610251578063313ce56714610279578063395093511461029757806340c10f19146102c357806352a5ec86146102ef57610137565b806306fdde031461013c578063095ea7b3146101b957806318160ddd146101f95780631f96e76f1461021357806323b872dd1461021b575b600080fd5b610144610451565b6040805160208082528351818301528351919283929083019185019080838360005b8381101561017e578181015183820152602001610166565b50505050905090810190601f1680156101ab5780820380516001836020036101000a031916815260200191505b509250505060405180910390f35b6101e5600480360360408110156101cf57600080fd5b506001600160a01b0381351690602001356104e7565b604080519115158252519081900360200190f35b610201610505565b60408051918252519081900360200190f35b61020161050b565b6101e56004803603606081101561023157600080fd5b506001600160a01b03813581169160208101359091169060400135610511565b6102776004803603602081101561026757600080fd5b50356001600160a01b0316610598565b005b61028161061b565b6040805160ff9092168252519081900360200190f35b6101e5600480360360408110156102ad57600080fd5b506001600160a01b038135169060200135610624565b610277600480360360408110156102d957600080fd5b506001600160a01b038135169060200135610672565b6101e56004803603602081101561030557600080fd5b50356001600160a01b031661074e565b6102016004803603602081101561032b57600080fd5b50356001600160a01b0316610763565b61027761077e565b61034b610830565b604080516001600160a01b039092168252519081900360200190f35b610144610844565b6102776004803603602081101561038557600080fd5b50356001600160a01b03166108a5565b6101e5600480360360408110156103ab57600080fd5b506001600160a01b0381351690602001356109f0565b6101e5600480360360408110156103d757600080fd5b506001600160a01b038135169060200135610a58565b610201610a6c565b610201610a72565b6102016004803603604081101561041357600080fd5b506001600160a01b0381358116916020013516610a78565b6102776004803603602081101561044157600080fd5b50356001600160a01b0316610aa3565b60038054604080516020601f60026000196101006001881615020190951694909404938401819004810282018101909252828152606093909290918301828280156104dd5780601f106104b2576101008083540402835291602001916104dd565b820191906000526020600020905b8154815290600101906020018083116104c057829003601f168201915b5050505050905090565b60006104fb6104f4610c18565b8484610c1c565b5060015b92915050565b60025490565b60075481565b600061051e848484610d08565b61058e8461052a610c18565b610589856040518060600160405280602881526020016111b9602891396001600160a01b038a16600090815260016020526040812090610568610c18565b6001600160a01b031681526020810191909152604001600020549190610e63565b610c1c565b5060019392505050565b6105a0610c18565b6001600160a01b03166105b1610830565b6001600160a01b0316146105fa576040805162461bcd60e51b815260206004820181905260248201526000805160206111e1833981519152604482015290519081900360640190fd5b6001600160a01b03166000908152600960205260409020805460ff19169055565b60055460ff1690565b60006104fb610631610c18565b846105898560016000610642610c18565b6001600160a01b03908116825260208083019390935260409182016000908120918c168152925290205490610efa565b3360009081526009602052604090205460ff1661068e5761074a565b6000610698610505565b9050806106c6576106a98383610f5b565b50336000908152600960205260409020805460ff1916905561074a565b60006106dd60085483610bb190919063ffffffff16565b9050600754811015610747576007546000906106f9908361104b565b6007549091506107139061070d86846110a8565b90610bb1565b9350600061072c8460065461104b90919063ffffffff16565b90508085111561073a578094505b6107448686610f5b565b50505b50505b5050565b60096020526000908152604090205460ff1681565b6001600160a01b031660009081526020819052604090205490565b610786610c18565b6001600160a01b0316610797610830565b6001600160a01b0316146107e0576040805162461bcd60e51b815260206004820181905260248201526000805160206111e1833981519152604482015290519081900360640190fd5b60055460405160009161010090046001600160a01b0316907f8be0079c531659141344cd1fd0a4f28419497f9722a3daafe3b4186f6b6457e0908390a360058054610100600160a81b0319169055565b60055461010090046001600160a01b031690565b60048054604080516020601f60026000196101006001881615020190951694909404938401819004810282018101909252828152606093909290918301828280156104dd5780601f106104b2576101008083540402835291602001916104dd565b6108ad610c18565b6001600160a01b03166108be610830565b6001600160a01b031614610907576040805162461bcd60e51b815260206004820181905260248201526000805160206111e1833981519152604482015290519081900360640190fd5b6000816001600160a01b031663570ca7356040518163ffffffff1660e01b815260040160206040518083038186803b15801561094257600080fd5b505afa158015610956573d6000803e3d6000fd5b505050506040513d602081101561096c57600080fd5b505190506001600160a01b0381166109cb576040805162461bcd60e51b815260206004820152601b60248201527f5a65726f20616464726573732063616e6e6f74206265207365742e0000000000604482015290519081900360640190fd5b6001600160a01b03166000908152600960205260409020805460ff1916600117905550565b60006104fb6109fd610c18565b846105898560405180606001604052806025815260200161124a6025913960016000610a27610c18565b6001600160a01b03908116825260208083019390935260409182016000908120918d16815292529020549190610e63565b60006104fb610a65610c18565b8484610d08565b60085481565b60065481565b6001600160a01b03918216600090815260016020908152604080832093909416825291909152205490565b610aab610c18565b6001600160a01b0316610abc610830565b6001600160a01b031614610b05576040805162461bcd60e51b815260206004820181905260248201526000805160206111e1833981519152604482015290519081900360640190fd5b6001600160a01b038116610b4a5760405162461bcd60e51b815260040180806020018281038252602681526020018061112a6026913960400191505060405180910390fd5b6005546040516001600160a01b0380841692610100900416907f8be0079c531659141344cd1fd0a4f28419497f9722a3daafe3b4186f6b6457e090600090a3600580546001600160a01b0390921661010002610100600160a81b0319909216919091179055565b6000808211610c07576040805162461bcd60e51b815260206004820152601a60248201527f536166654d6174683a206469766973696f6e206279207a65726f000000000000604482015290519081900360640190fd5b818381610c1057fe5b049392505050565b3390565b6001600160a01b038316610c615760405162461bcd60e51b81526004018080602001828103825260248152602001806112266024913960400191505060405180910390fd5b6001600160a01b038216610ca65760405162461bcd60e51b81526004018080602001828103825260228152602001806111506022913960400191505060405180910390fd5b6001600160a01b03808416600081815260016020908152604080832094871680845294825291829020859055815185815291517f8c5be1e5ebec7d5bd14f71427d1e84f3dd0314c0f7b2291e5b200ac8c7c3b9259281900390910190a3505050565b6001600160a01b038316610d4d5760405162461bcd60e51b81526004018080602001828103825260258152602001806112016025913960400191505060405180910390fd5b6001600160a01b038216610d925760405162461bcd60e51b81526004018080602001828103825260238152602001806111076023913960400191505060405180910390fd5b610d9d838383611101565b610dda81604051806060016040528060268152602001611172602691396001600160a01b0386166000908152602081905260409020549190610e63565b6001600160a01b038085166000908152602081905260408082209390935590841681522054610e099082610efa565b6001600160a01b038084166000818152602081815260409182902094909455805185815290519193928716927fddf252ad1be2c89b69c2b068fc378daa952ba7f163c4a11628f55a4df523b3ef92918290030190a3505050565b60008184841115610ef25760405162461bcd60e51b81526004018080602001828103825283818151815260200191508051906020019080838360005b83811015610eb7578181015183820152602001610e9f565b50505050905090810190601f168015610ee45780820380516001836020036101000a031916815260200191505b509250505060405180910390fd5b505050900390565b600082820183811015610f54576040805162461bcd60e51b815260206004820152601b60248201527f536166654d6174683a206164646974696f6e206f766572666c6f770000000000604482015290519081900360640190fd5b9392505050565b6001600160a01b038216610fb6576040805162461bcd60e51b815260206004820152601f60248201527f45524332303a206d696e7420746f20746865207a65726f206164647265737300604482015290519081900360640190fd5b610fc260008383611101565b600254610fcf9082610efa565b6002556001600160a01b038216600090815260208190526040902054610ff59082610efa565b6001600160a01b0383166000818152602081815260408083209490945583518581529351929391927fddf252ad1be2c89b69c2b068fc378daa952ba7f163c4a11628f55a4df523b3ef9281900390910190a35050565b6000828211156110a2576040805162461bcd60e51b815260206004820152601e60248201527f536166654d6174683a207375627472616374696f6e206f766572666c6f770000604482015290519081900360640190fd5b50900390565b6000826110b7575060006104ff565b828202828482816110c457fe5b0414610f545760405162461bcd60e51b81526004018080602001828103825260218152602001806111986021913960400191505060405180910390fd5b50505056fe45524332303a207472616e7366657220746f20746865207a65726f20616464726573734f776e61626c653a206e6577206f776e657220697320746865207a65726f206164647265737345524332303a20617070726f766520746f20746865207a65726f206164647265737345524332303a207472616e7366657220616d6f756e7420657863656564732062616c616e6365536166654d6174683a206d756c7469706c69636174696f6e206f766572666c6f7745524332303a207472616e7366657220616d6f756e74206578636565647320616c6c6f77616e63654f776e61626c653a2063616c6c6572206973206e6f7420746865206f776e657245524332303a207472616e736665722066726f6d20746865207a65726f206164647265737345524332303a20617070726f76652066726f6d20746865207a65726f206164647265737345524332303a2064656372656173656420616c6c6f77616e63652062656c6f77207a65726fa2646970667358221220607e23063e82165829a8dc585de3692ec2136938861b8b3ccfd3c0f4d8521f8b64736f6c634300060c0033",
  "linkReferences": {},
  "deployedLinkReferences": {}
}