{
  "_format": "hh-sol-artifact-1",
  "contractName": "MuuuToken",
  "sourceName": "contracts/MuuuToken.sol",
  "abi": [
    {
      "inputs": [
        {
          "internalType": "address",
          "name": "_proxy",
          "type": "address"
        }
      ],
      "stateMutability": "nonpayable",
      "type": "constructor"
    },
    {
      "anonymous": false,
      "inputs": [
        {
          "indexed": true,
          "internalType": "address",
          "name": "owner",
          "type": "address"
        },
        {
          "indexed": true,
          "internalType": "address",
          "name": "spender",
          "type": "address"
        },
        {
          "indexed": false,
          "internalType": "uint256",
          "name": "value",
          "type": "uint256"
        }
      ],
      "name": "Approval",
      "type": "event"
    },
    {
      "anonymous": false,
      "inputs": [
        {
          "indexed": true,
          "internalType": "address",
          "name": "from",
          "type": "address"
        },
        {
          "indexed": true,
          "internalType": "address",
          "name": "to",
          "type": "address"
        },
        {
          "indexed": false,
          "internalType": "uint256",
          "name": "value",
          "type": "uint256"
        }
      ],
      "name": "Transfer",
      "type": "event"
    },
    {
      "inputs": [
        {
          "internalType": "address",
          "name": "owner",
          "type": "address"
        },
        {
          "internalType": "address",
          "name": "spender",
          "type": "address"
        }
      ],
      "name": "allowance",
      "outputs": [
        {
          "internalType": "uint256",
          "name": "",
          "type": "uint256"
        }
      ],
      "stateMutability": "view",
      "type": "function"
    },
    {
      "inputs": [
        {
          "internalType": "address",
          "name": "spender",
          "type": "address"
        },
        {
          "internalType": "uint256",
          "name": "amount",
          "type": "uint256"
        }
      ],
      "name": "approve",
      "outputs": [
        {
          "internalType": "bool",
          "name": "",
          "type": "bool"
        }
      ],
      "stateMutability": "nonpayable",
      "type": "function"
    },
    {
      "inputs": [
        {
          "internalType": "address",
          "name": "account",
          "type": "address"
        }
      ],
      "name": "balanceOf",
      "outputs": [
        {
          "internalType": "uint256",
          "name": "",
          "type": "uint256"
        }
      ],
      "stateMutability": "view",
      "type": "function"
    },
    {
      "inputs": [],
      "name": "decimals",
      "outputs": [
        {
          "internalType": "uint8",
          "name": "",
          "type": "uint8"
        }
      ],
      "stateMutability": "view",
      "type": "function"
    },
    {
      "inputs": [
        {
          "internalType": "address",
          "name": "spender",
          "type": "address"
        },
        {
          "internalType": "uint256",
          "name": "subtractedValue",
          "type": "uint256"
        }
      ],
      "name": "decreaseAllowance",
      "outputs": [
        {
          "internalType": "bool",
          "name": "",
          "type": "bool"
        }
      ],
      "stateMutability": "nonpayable",
      "type": "function"
    },
    {
      "inputs": [
        {
          "internalType": "address",
          "name": "spender",
          "type": "address"
        },
        {
          "internalType": "uint256",
          "name": "addedValue",
          "type": "uint256"
        }
      ],
      "name": "increaseAllowance",
      "outputs": [
        {
          "internalType": "bool",
          "name": "",
          "type": "bool"
        }
      ],
      "stateMutability": "nonpayable",
      "type": "function"
    },
    {
      "inputs": [],
      "name": "maxSupply",
      "outputs": [
        {
          "internalType": "uint256",
          "name": "",
          "type": "uint256"
        }
      ],
      "stateMutability": "view",
      "type": "function"
    },
    {
      "inputs": [
        {
          "internalType": "address",
          "name": "_to",
          "type": "address"
        },
        {
          "internalType": "uint256",
          "name": "_amount",
          "type": "uint256"
        }
      ],
      "name": "mint",
      "outputs": [],
      "stateMutability": "nonpayable",
      "type": "function"
    },
    {
      "inputs": [],
      "name": "name",
      "outputs": [
        {
          "internalType": "string",
          "name": "",
          "type": "string"
        }
      ],
      "stateMutability": "view",
      "type": "function"
    },
    {
      "inputs": [],
      "name": "operator",
      "outputs": [
        {
          "internalType": "address",
          "name": "",
          "type": "address"
        }
      ],
      "stateMutability": "view",
      "type": "function"
    },
    {
      "inputs": [],
      "name": "reductionPerCliff",
      "outputs": [
        {
          "internalType": "uint256",
          "name": "",
          "type": "uint256"
        }
      ],
      "stateMutability": "view",
      "type": "function"
    },
    {
      "inputs": [],
      "name": "symbol",
      "outputs": [
        {
          "internalType": "string",
          "name": "",
          "type": "string"
        }
      ],
      "stateMutability": "view",
      "type": "function"
    },
    {
      "inputs": [],
      "name": "totalCliffs",
      "outputs": [
        {
          "internalType": "uint256",
          "name": "",
          "type": "uint256"
        }
      ],
      "stateMutability": "view",
      "type": "function"
    },
    {
      "inputs": [],
      "name": "totalSupply",
      "outputs": [
        {
          "internalType": "uint256",
          "name": "",
          "type": "uint256"
        }
      ],
      "stateMutability": "view",
      "type": "function"
    },
    {
      "inputs": [
        {
          "internalType": "address",
          "name": "recipient",
          "type": "address"
        },
        {
          "internalType": "uint256",
          "name": "amount",
          "type": "uint256"
        }
      ],
      "name": "transfer",
      "outputs": [
        {
          "internalType": "bool",
          "name": "",
          "type": "bool"
        }
      ],
      "stateMutability": "nonpayable",
      "type": "function"
    },
    {
      "inputs": [
        {
          "internalType": "address",
          "name": "sender",
          "type": "address"
        },
        {
          "internalType": "address",
          "name": "recipient",
          "type": "address"
        },
        {
          "internalType": "uint256",
          "name": "amount",
          "type": "uint256"
        }
      ],
      "name": "transferFrom",
      "outputs": [
        {
          "internalType": "bool",
          "name": "",
          "type": "bool"
        }
      ],
      "stateMutability": "nonpayable",
      "type": "function"
    },
    {
      "inputs": [],
      "name": "updateOperator",
      "outputs": [],
      "stateMutability": "nonpayable",
      "type": "function"
    },
    {
      "inputs": [],
      "name": "vekglProxy",
      "outputs": [
        {
          "internalType": "address",
          "name": "",
          "type": "address"
        }
      ],
      "stateMutability": "view",
      "type": "function"
    }
  ],
  "bytecode": "0x60806040526a52b7d2dcc80cd2e40000006007556103e86008553480156200002657600080fd5b50604051620010d8380380620010d8833981810160405260208110156200004c57600080fd5b5051604080518082018252600a81526926bababa902a37b5b2b760b11b6020828101918252835180850190945260048452634d55555560e01b9084015281519192916200009c9160039162000180565b508051620000b290600490602084019062000180565b505060058054601260ff1990911617610100600160a81b031916610100330217905550600680546001600160a01b0319166001600160a01b0383161790556008546007546200010d9162000117602090811b620007ff17901c565b600955506200021c565b60008082116200016e576040805162461bcd60e51b815260206004820152601a60248201527f536166654d6174683a206469766973696f6e206279207a65726f000000000000604482015290519081900360640190fd5b8183816200017857fe5b049392505050565b828054600181600116156101000203166002900490600052602060002090601f016020900481019282601f10620001c357805160ff1916838001178555620001f3565b82800160010185558215620001f3579182015b82811115620001f3578251825591602001919060010190620001d6565b506200020192915062000205565b5090565b5b8082111562000201576000815560010162000206565b610eac806200022c6000396000f3fe608060405234801561001057600080fd5b50600436106101165760003560e01c806370a08231116100a2578063a9059cbb11610071578063a9059cbb1461032e578063aa74e6221461035a578063d5934b7614610362578063d5abeb011461036a578063dd62ed3e1461037257610116565b806370a08231146102cc57806386738c45146102f257806395d89b41146102fa578063a457c2d71461030257610116565b806323b872dd116100e957806323b872dd146101fa578063313ce56714610230578063395093511461024e57806340c10f191461027a578063570ca735146102a857610116565b806306fdde031461011b578063095ea7b31461019857806318160ddd146101d85780631f96e76f146101f2575b600080fd5b6101236103a0565b6040805160208082528351818301528351919283929083019185019080838360005b8381101561015d578181015183820152602001610145565b50505050905090810190601f16801561018a5780820380516001836020036101000a031916815260200191505b509250505060405180910390f35b6101c4600480360360408110156101ae57600080fd5b506001600160a01b038135169060200135610436565b604080519115158252519081900360200190f35b6101e0610454565b60408051918252519081900360200190f35b6101e061045a565b6101c46004803603606081101561021057600080fd5b506001600160a01b03813581169160208101359091169060400135610460565b6102386104e7565b6040805160ff9092168252519081900360200190f35b6101c46004803603604081101561026457600080fd5b506001600160a01b0381351690602001356104f0565b6102a66004803603604081101561029057600080fd5b506001600160a01b03813516906020013561053e565b005b6102b061060b565b604080516001600160a01b039092168252519081900360200190f35b6101e0600480360360208110156102e257600080fd5b50356001600160a01b031661061f565b6102b061063a565b610123610649565b6101c46004803603604081101561031857600080fd5b506001600160a01b0381351690602001356106aa565b6101c46004803603604081101561034457600080fd5b506001600160a01b038135169060200135610712565b6101e0610726565b6102a661072c565b6101e06107ce565b6101e06004803603604081101561038857600080fd5b506001600160a01b03813581169160200135166107d4565b60038054604080516020601f600260001961010060018816150201909516949094049384018190048102820181019092528281526060939092909183018282801561042c5780601f106104015761010080835404028352916020019161042c565b820191906000526020600020905b81548152906001019060200180831161040f57829003601f168201915b5050505050905090565b600061044a610443610866565b848461086a565b5060015b92915050565b60025490565b60085481565b600061046d848484610956565b6104dd84610479610866565b6104d885604051806060016040528060288152602001610de1602891396001600160a01b038a166000908152600160205260408120906104b7610866565b6001600160a01b031681526020810191909152604001600020549190610ab1565b61086a565b5060019392505050565b60055460ff1690565b600061044a6104fd610866565b846104d8856001600061050e610866565b6001600160a01b03908116825260208083019390935260409182016000908120918c168152925290205490610b48565b60055461010090046001600160a01b0316331461055a57610607565b6000610564610454565b905080610583576105758383610ba9565b61057d61072c565b50610607565b600061059a600954836107ff90919063ffffffff16565b9050600854811015610604576008546000906105b69083610c99565b6008549091506105d0906105ca8684610cf6565b906107ff565b935060006105e984600754610c9990919063ffffffff16565b9050808511156105f7578094505b6106018686610ba9565b50505b50505b5050565b60055461010090046001600160a01b031681565b6001600160a01b031660009081526020819052604090205490565b6006546001600160a01b031681565b60048054604080516020601f600260001961010060018816150201909516949094049384018190048102820181019092528281526060939092909183018282801561042c5780601f106104015761010080835404028352916020019161042c565b600061044a6106b7610866565b846104d885604051806060016040528060258152602001610e5260259139600160006106e1610866565b6001600160a01b03908116825260208083019390935260409182016000908120918d16815292529020549190610ab1565b600061044a61071f610866565b8484610956565b60095481565b600660009054906101000a90046001600160a01b03166001600160a01b031663570ca7356040518163ffffffff1660e01b815260040160206040518083038186803b15801561077a57600080fd5b505afa15801561078e573d6000803e3d6000fd5b505050506040513d60208110156107a457600080fd5b5051600580546001600160a01b0390921661010002610100600160a81b0319909216919091179055565b60075481565b6001600160a01b03918216600090815260016020908152604080832093909416825291909152205490565b6000808211610855576040805162461bcd60e51b815260206004820152601a60248201527f536166654d6174683a206469766973696f6e206279207a65726f000000000000604482015290519081900360640190fd5b81838161085e57fe5b049392505050565b3390565b6001600160a01b0383166108af5760405162461bcd60e51b8152600401808060200182810382526024815260200180610e2e6024913960400191505060405180910390fd5b6001600160a01b0382166108f45760405162461bcd60e51b8152600401808060200182810382526022815260200180610d786022913960400191505060405180910390fd5b6001600160a01b03808416600081815260016020908152604080832094871680845294825291829020859055815185815291517f8c5be1e5ebec7d5bd14f71427d1e84f3dd0314c0f7b2291e5b200ac8c7c3b9259281900390910190a3505050565b6001600160a01b03831661099b5760405162461bcd60e51b8152600401808060200182810382526025815260200180610e096025913960400191505060405180910390fd5b6001600160a01b0382166109e05760405162461bcd60e51b8152600401808060200182810382526023815260200180610d556023913960400191505060405180910390fd5b6109eb838383610d4f565b610a2881604051806060016040528060268152602001610d9a602691396001600160a01b0386166000908152602081905260409020549190610ab1565b6001600160a01b038085166000908152602081905260408082209390935590841681522054610a579082610b48565b6001600160a01b038084166000818152602081815260409182902094909455805185815290519193928716927fddf252ad1be2c89b69c2b068fc378daa952ba7f163c4a11628f55a4df523b3ef92918290030190a3505050565b60008184841115610b405760405162461bcd60e51b81526004018080602001828103825283818151815260200191508051906020019080838360005b83811015610b05578181015183820152602001610aed565b50505050905090810190601f168015610b325780820380516001836020036101000a031916815260200191505b509250505060405180910390fd5b505050900390565b600082820183811015610ba2576040805162461bcd60e51b815260206004820152601b60248201527f536166654d6174683a206164646974696f6e206f766572666c6f770000000000604482015290519081900360640190fd5b9392505050565b6001600160a01b038216610c04576040805162461bcd60e51b815260206004820152601f60248201527f45524332303a206d696e7420746f20746865207a65726f206164647265737300604482015290519081900360640190fd5b610c1060008383610d4f565b600254610c1d9082610b48565b6002556001600160a01b038216600090815260208190526040902054610c439082610b48565b6001600160a01b0383166000818152602081815260408083209490945583518581529351929391927fddf252ad1be2c89b69c2b068fc378daa952ba7f163c4a11628f55a4df523b3ef9281900390910190a35050565b600082821115610cf0576040805162461bcd60e51b815260206004820152601e60248201527f536166654d6174683a207375627472616374696f6e206f766572666c6f770000604482015290519081900360640190fd5b50900390565b600082610d055750600061044e565b82820282848281610d1257fe5b0414610ba25760405162461bcd60e51b8152600401808060200182810382526021815260200180610dc06021913960400191505060405180910390fd5b50505056fe45524332303a207472616e7366657220746f20746865207a65726f206164647265737345524332303a20617070726f766520746f20746865207a65726f206164647265737345524332303a207472616e7366657220616d6f756e7420657863656564732062616c616e6365536166654d6174683a206d756c7469706c69636174696f6e206f766572666c6f7745524332303a207472616e7366657220616d6f756e74206578636565647320616c6c6f77616e636545524332303a207472616e736665722066726f6d20746865207a65726f206164647265737345524332303a20617070726f76652066726f6d20746865207a65726f206164647265737345524332303a2064656372656173656420616c6c6f77616e63652062656c6f77207a65726fa26469706673582212201779cff49dc02427bb19023bec780f5786a39bc408fbd8cf4552f562d931410f64736f6c634300060c0033",
  "linkReferences": {},
  "deployedLinkReferences": {}
}