{
  "_format": "hh-sol-artifact-1",
  "contractName": "MuuuLockerV2",
  "sourceName": "contracts/MuuuLockerV2.sol",
  "abi": [
    {
      "inputs": [
        {
          "internalType": "contract IERC20",
          "name": "_stakingToken",
          "type": "address"
        },
        {
          "internalType": "address",
          "name": "_muKgl",
          "type": "address"
        },
        {
          "internalType": "address",
          "name": "_boostPayment",
          "type": "address"
        },
        {
          "internalType": "address",
          "name": "_mukglStaking",
          "type": "address"
        }
      ],
      "stateMutability": "nonpayable",
      "type": "constructor"
    },
    {
      "anonymous": false,
      "inputs": [
        {
          "indexed": true,
          "internalType": "address",
          "name": "_user",
          "type": "address"
        },
        {
          "indexed": true,
          "internalType": "address",
          "name": "_kicked",
          "type": "address"
        },
        {
          "indexed": false,
          "internalType": "uint256",
          "name": "_reward",
          "type": "uint256"
        }
      ],
      "name": "KickReward",
      "type": "event"
    },
    {
      "anonymous": false,
      "inputs": [
        {
          "indexed": true,
          "internalType": "address",
          "name": "previousOwner",
          "type": "address"
        },
        {
          "indexed": true,
          "internalType": "address",
          "name": "newOwner",
          "type": "address"
        }
      ],
      "name": "OwnershipTransferred",
      "type": "event"
    },
    {
      "anonymous": false,
      "inputs": [
        {
          "indexed": false,
          "internalType": "address",
          "name": "_token",
          "type": "address"
        },
        {
          "indexed": false,
          "internalType": "uint256",
          "name": "_amount",
          "type": "uint256"
        }
      ],
      "name": "Recovered",
      "type": "event"
    },
    {
      "anonymous": false,
      "inputs": [
        {
          "indexed": true,
          "internalType": "address",
          "name": "_token",
          "type": "address"
        },
        {
          "indexed": false,
          "internalType": "uint256",
          "name": "_reward",
          "type": "uint256"
        }
      ],
      "name": "RewardAdded",
      "type": "event"
    },
    {
      "anonymous": false,
      "inputs": [
        {
          "indexed": true,
          "internalType": "address",
          "name": "_user",
          "type": "address"
        },
        {
          "indexed": true,
          "internalType": "address",
          "name": "_rewardsToken",
          "type": "address"
        },
        {
          "indexed": false,
          "internalType": "uint256",
          "name": "_reward",
          "type": "uint256"
        }
      ],
      "name": "RewardPaid",
      "type": "event"
    },
    {
      "anonymous": false,
      "inputs": [
        {
          "indexed": true,
          "internalType": "address",
          "name": "_user",
          "type": "address"
        },
        {
          "indexed": true,
          "internalType": "uint256",
          "name": "_epoch",
          "type": "uint256"
        },
        {
          "indexed": false,
          "internalType": "uint256",
          "name": "_paidAmount",
          "type": "uint256"
        },
        {
          "indexed": false,
          "internalType": "uint256",
          "name": "_lockedAmount",
          "type": "uint256"
        },
        {
          "indexed": false,
          "internalType": "uint256",
          "name": "_boostedAmount",
          "type": "uint256"
        }
      ],
      "name": "Staked",
      "type": "event"
    },
    {
      "anonymous": false,
      "inputs": [
        {
          "indexed": true,
          "internalType": "address",
          "name": "_user",
          "type": "address"
        },
        {
          "indexed": false,
          "internalType": "uint256",
          "name": "_amount",
          "type": "uint256"
        },
        {
          "indexed": false,
          "internalType": "bool",
          "name": "_relocked",
          "type": "bool"
        }
      ],
      "name": "Withdrawn",
      "type": "event"
    },
    {
      "inputs": [
        {
          "internalType": "address",
          "name": "_rewardsToken",
          "type": "address"
        },
        {
          "internalType": "address",
          "name": "_distributor",
          "type": "address"
        },
        {
          "internalType": "bool",
          "name": "_useBoost",
          "type": "bool"
        }
      ],
      "name": "addReward",
      "outputs": [],
      "stateMutability": "nonpayable",
      "type": "function"
    },
    {
      "inputs": [
        {
          "internalType": "address",
          "name": "_rewardsToken",
          "type": "address"
        },
        {
          "internalType": "address",
          "name": "_distributor",
          "type": "address"
        },
        {
          "internalType": "bool",
          "name": "_approved",
          "type": "bool"
        }
      ],
      "name": "approveRewardDistributor",
      "outputs": [],
      "stateMutability": "nonpayable",
      "type": "function"
    },
    {
      "inputs": [
        {
          "internalType": "uint256",
          "name": "_epoch",
          "type": "uint256"
        },
        {
          "internalType": "address",
          "name": "_user",
          "type": "address"
        }
      ],
      "name": "balanceAtEpochOf",
      "outputs": [
        {
          "internalType": "uint256",
          "name": "amount",
          "type": "uint256"
        }
      ],
      "stateMutability": "view",
      "type": "function"
    },
    {
      "inputs": [
        {
          "internalType": "address",
          "name": "_user",
          "type": "address"
        }
      ],
      "name": "balanceOf",
      "outputs": [
        {
          "internalType": "uint256",
          "name": "amount",
          "type": "uint256"
        }
      ],
      "stateMutability": "view",
      "type": "function"
    },
    {
      "inputs": [
        {
          "internalType": "address",
          "name": "",
          "type": "address"
        }
      ],
      "name": "balances",
      "outputs": [
        {
          "internalType": "uint112",
          "name": "locked",
          "type": "uint112"
        },
        {
          "internalType": "uint112",
          "name": "boosted",
          "type": "uint112"
        },
        {
          "internalType": "uint32",
          "name": "nextUnlockIndex",
          "type": "uint32"
        }
      ],
      "stateMutability": "view",
      "type": "function"
    },
    {
      "inputs": [],
      "name": "boostPayment",
      "outputs": [
        {
          "internalType": "address",
          "name": "",
          "type": "address"
        }
      ],
      "stateMutability": "view",
      "type": "function"
    },
    {
      "inputs": [],
      "name": "boostRate",
      "outputs": [
        {
          "internalType": "uint256",
          "name": "",
          "type": "uint256"
        }
      ],
      "stateMutability": "view",
      "type": "function"
    },
    {
      "inputs": [],
      "name": "boostedSupply",
      "outputs": [
        {
          "internalType": "uint256",
          "name": "",
          "type": "uint256"
        }
      ],
      "stateMutability": "view",
      "type": "function"
    },
    {
      "inputs": [],
      "name": "checkpointEpoch",
      "outputs": [],
      "stateMutability": "nonpayable",
      "type": "function"
    },
    {
      "inputs": [
        {
          "internalType": "address",
          "name": "_account",
          "type": "address"
        }
      ],
      "name": "claimableRewards",
      "outputs": [
        {
          "components": [
            {
              "internalType": "address",
              "name": "token",
              "type": "address"
            },
            {
              "internalType": "uint256",
              "name": "amount",
              "type": "uint256"
            }
          ],
          "internalType": "struct MuuuLockerV2.EarnedData[]",
          "name": "userRewards",
          "type": "tuple[]"
        }
      ],
      "stateMutability": "view",
      "type": "function"
    },
    {
      "inputs": [],
      "name": "decimals",
      "outputs": [
        {
          "internalType": "uint8",
          "name": "",
          "type": "uint8"
        }
      ],
      "stateMutability": "view",
      "type": "function"
    },
    {
      "inputs": [],
      "name": "denominator",
      "outputs": [
        {
          "internalType": "uint256",
          "name": "",
          "type": "uint256"
        }
      ],
      "stateMutability": "view",
      "type": "function"
    },
    {
      "inputs": [],
      "name": "epochCount",
      "outputs": [
        {
          "internalType": "uint256",
          "name": "",
          "type": "uint256"
        }
      ],
      "stateMutability": "view",
      "type": "function"
    },
    {
      "inputs": [
        {
          "internalType": "uint256",
          "name": "",
          "type": "uint256"
        }
      ],
      "name": "epochs",
      "outputs": [
        {
          "internalType": "uint224",
          "name": "supply",
          "type": "uint224"
        },
        {
          "internalType": "uint32",
          "name": "date",
          "type": "uint32"
        }
      ],
      "stateMutability": "view",
      "type": "function"
    },
    {
      "inputs": [
        {
          "internalType": "uint256",
          "name": "_time",
          "type": "uint256"
        }
      ],
      "name": "findEpochId",
      "outputs": [
        {
          "internalType": "uint256",
          "name": "epoch",
          "type": "uint256"
        }
      ],
      "stateMutability": "view",
      "type": "function"
    },
    {
      "inputs": [
        {
          "internalType": "address",
          "name": "_account",
          "type": "address"
        },
        {
          "internalType": "bool",
          "name": "_stake",
          "type": "bool"
        }
      ],
      "name": "getReward",
      "outputs": [],
      "stateMutability": "nonpayable",
      "type": "function"
    },
    {
      "inputs": [
        {
          "internalType": "address",
          "name": "_account",
          "type": "address"
        }
      ],
      "name": "getReward",
      "outputs": [],
      "stateMutability": "nonpayable",
      "type": "function"
    },
    {
      "inputs": [
        {
          "internalType": "address",
          "name": "_rewardsToken",
          "type": "address"
        }
      ],
      "name": "getRewardForDuration",
      "outputs": [
        {
          "internalType": "uint256",
          "name": "",
          "type": "uint256"
        }
      ],
      "stateMutability": "view",
      "type": "function"
    },
    {
      "inputs": [],
      "name": "isShutdown",
      "outputs": [
        {
          "internalType": "bool",
          "name": "",
          "type": "bool"
        }
      ],
      "stateMutability": "view",
      "type": "function"
    },
    {
      "inputs": [
        {
          "internalType": "address",
          "name": "_account",
          "type": "address"
        }
      ],
      "name": "kickExpiredLocks",
      "outputs": [],
      "stateMutability": "nonpayable",
      "type": "function"
    },
    {
      "inputs": [],
      "name": "kickRewardEpochDelay",
      "outputs": [
        {
          "internalType": "uint256",
          "name": "",
          "type": "uint256"
        }
      ],
      "stateMutability": "view",
      "type": "function"
    },
    {
      "inputs": [],
      "name": "kickRewardPerEpoch",
      "outputs": [
        {
          "internalType": "uint256",
          "name": "",
          "type": "uint256"
        }
      ],
      "stateMutability": "view",
      "type": "function"
    },
    {
      "inputs": [
        {
          "internalType": "address",
          "name": "_rewardsToken",
          "type": "address"
        }
      ],
      "name": "lastTimeRewardApplicable",
      "outputs": [
        {
          "internalType": "uint256",
          "name": "",
          "type": "uint256"
        }
      ],
      "stateMutability": "view",
      "type": "function"
    },
    {
      "inputs": [
        {
          "internalType": "address",
          "name": "_account",
          "type": "address"
        },
        {
          "internalType": "uint256",
          "name": "_amount",
          "type": "uint256"
        },
        {
          "internalType": "uint256",
          "name": "_spendRatio",
          "type": "uint256"
        }
      ],
      "name": "lock",
      "outputs": [],
      "stateMutability": "nonpayable",
      "type": "function"
    },
    {
      "inputs": [],
      "name": "lockDuration",
      "outputs": [
        {
          "internalType": "uint256",
          "name": "",
          "type": "uint256"
        }
      ],
      "stateMutability": "view",
      "type": "function"
    },
    {
      "inputs": [
        {
          "internalType": "address",
          "name": "_user",
          "type": "address"
        }
      ],
      "name": "lockedBalanceOf",
      "outputs": [
        {
          "internalType": "uint256",
          "name": "amount",
          "type": "uint256"
        }
      ],
      "stateMutability": "view",
      "type": "function"
    },
    {
      "inputs": [
        {
          "internalType": "address",
          "name": "_user",
          "type": "address"
        }
      ],
      "name": "lockedBalances",
      "outputs": [
        {
          "internalType": "uint256",
          "name": "total",
          "type": "uint256"
        },
        {
          "internalType": "uint256",
          "name": "unlockable",
          "type": "uint256"
        },
        {
          "internalType": "uint256",
          "name": "locked",
          "type": "uint256"
        },
        {
          "components": [
            {
              "internalType": "uint112",
              "name": "amount",
              "type": "uint112"
            },
            {
              "internalType": "uint112",
              "name": "boosted",
              "type": "uint112"
            },
            {
              "internalType": "uint32",
              "name": "unlockTime",
              "type": "uint32"
            }
          ],
          "internalType": "struct MuuuLockerV2.LockedBalance[]",
          "name": "lockData",
          "type": "tuple[]"
        }
      ],
      "stateMutability": "view",
      "type": "function"
    },
    {
      "inputs": [],
      "name": "lockedSupply",
      "outputs": [
        {
          "internalType": "uint256",
          "name": "",
          "type": "uint256"
        }
      ],
      "stateMutability": "view",
      "type": "function"
    },
    {
      "inputs": [],
      "name": "maximumBoostPayment",
      "outputs": [
        {
          "internalType": "uint256",
          "name": "",
          "type": "uint256"
        }
      ],
      "stateMutability": "view",
      "type": "function"
    },
    {
      "inputs": [],
      "name": "maximumStake",
      "outputs": [
        {
          "internalType": "uint256",
          "name": "",
          "type": "uint256"
        }
      ],
      "stateMutability": "view",
      "type": "function"
    },
    {
      "inputs": [],
      "name": "minimumStake",
      "outputs": [
        {
          "internalType": "uint256",
          "name": "",
          "type": "uint256"
        }
      ],
      "stateMutability": "view",
      "type": "function"
    },
    {
      "inputs": [],
      "name": "muKgl",
      "outputs": [
        {
          "internalType": "address",
          "name": "",
          "type": "address"
        }
      ],
      "stateMutability": "view",
      "type": "function"
    },
    {
      "inputs": [],
      "name": "mukglStaking",
      "outputs": [
        {
          "internalType": "address",
          "name": "",
          "type": "address"
        }
      ],
      "stateMutability": "view",
      "type": "function"
    },
    {
      "inputs": [],
      "name": "name",
      "outputs": [
        {
          "internalType": "string",
          "name": "",
          "type": "string"
        }
      ],
      "stateMutability": "view",
      "type": "function"
    },
    {
      "inputs": [],
      "name": "nextBoostRate",
      "outputs": [
        {
          "internalType": "uint256",
          "name": "",
          "type": "uint256"
        }
      ],
      "stateMutability": "view",
      "type": "function"
    },
    {
      "inputs": [],
      "name": "nextMaximumBoostPayment",
      "outputs": [
        {
          "internalType": "uint256",
          "name": "",
          "type": "uint256"
        }
      ],
      "stateMutability": "view",
      "type": "function"
    },
    {
      "inputs": [
        {
          "internalType": "address",
          "name": "_rewardsToken",
          "type": "address"
        },
        {
          "internalType": "uint256",
          "name": "_reward",
          "type": "uint256"
        }
      ],
      "name": "notifyRewardAmount",
      "outputs": [],
      "stateMutability": "nonpayable",
      "type": "function"
    },
    {
      "inputs": [],
      "name": "owner",
      "outputs": [
        {
          "internalType": "address",
          "name": "",
          "type": "address"
        }
      ],
      "stateMutability": "view",
      "type": "function"
    },
    {
      "inputs": [
        {
          "internalType": "uint256",
          "name": "_epoch",
          "type": "uint256"
        },
        {
          "internalType": "address",
          "name": "_user",
          "type": "address"
        }
      ],
      "name": "pendingLockAtEpochOf",
      "outputs": [
        {
          "internalType": "uint256",
          "name": "amount",
          "type": "uint256"
        }
      ],
      "stateMutability": "view",
      "type": "function"
    },
    {
      "inputs": [
        {
          "internalType": "address",
          "name": "_user",
          "type": "address"
        }
      ],
      "name": "pendingLockOf",
      "outputs": [
        {
          "internalType": "uint256",
          "name": "amount",
          "type": "uint256"
        }
      ],
      "stateMutability": "view",
      "type": "function"
    },
    {
      "inputs": [
        {
          "internalType": "bool",
          "name": "_relock",
          "type": "bool"
        }
      ],
      "name": "processExpiredLocks",
      "outputs": [],
      "stateMutability": "nonpayable",
      "type": "function"
    },
    {
      "inputs": [
        {
          "internalType": "address",
          "name": "_tokenAddress",
          "type": "address"
        },
        {
          "internalType": "uint256",
          "name": "_tokenAmount",
          "type": "uint256"
        }
      ],
      "name": "recoverERC20",
      "outputs": [],
      "stateMutability": "nonpayable",
      "type": "function"
    },
    {
      "inputs": [],
      "name": "renounceOwnership",
      "outputs": [],
      "stateMutability": "nonpayable",
      "type": "function"
    },
    {
      "inputs": [
        {
          "internalType": "address",
          "name": "",
          "type": "address"
        }
      ],
      "name": "rewardData",
      "outputs": [
        {
          "internalType": "bool",
          "name": "useBoost",
          "type": "bool"
        },
        {
          "internalType": "uint40",
          "name": "periodFinish",
          "type": "uint40"
        },
        {
          "internalType": "uint208",
          "name": "rewardRate",
          "type": "uint208"
        },
        {
          "internalType": "uint40",
          "name": "lastUpdateTime",
          "type": "uint40"
        },
        {
          "internalType": "uint208",
          "name": "rewardPerTokenStored",
          "type": "uint208"
        }
      ],
      "stateMutability": "view",
      "type": "function"
    },
    {
      "inputs": [
        {
          "internalType": "address",
          "name": "",
          "type": "address"
        },
        {
          "internalType": "address",
          "name": "",
          "type": "address"
        }
      ],
      "name": "rewardDistributors",
      "outputs": [
        {
          "internalType": "bool",
          "name": "",
          "type": "bool"
        }
      ],
      "stateMutability": "view",
      "type": "function"
    },
    {
      "inputs": [
        {
          "internalType": "address",
          "name": "_rewardsToken",
          "type": "address"
        }
      ],
      "name": "rewardPerToken",
      "outputs": [
        {
          "internalType": "uint256",
          "name": "",
          "type": "uint256"
        }
      ],
      "stateMutability": "view",
      "type": "function"
    },
    {
      "inputs": [
        {
          "internalType": "uint256",
          "name": "",
          "type": "uint256"
        }
      ],
      "name": "rewardTokens",
      "outputs": [
        {
          "internalType": "address",
          "name": "",
          "type": "address"
        }
      ],
      "stateMutability": "view",
      "type": "function"
    },
    {
      "inputs": [
        {
          "internalType": "address",
          "name": "_user",
          "type": "address"
        }
      ],
      "name": "rewardWeightOf",
      "outputs": [
        {
          "internalType": "uint256",
          "name": "amount",
          "type": "uint256"
        }
      ],
      "stateMutability": "view",
      "type": "function"
    },
    {
      "inputs": [
        {
          "internalType": "address",
          "name": "",
          "type": "address"
        },
        {
          "internalType": "address",
          "name": "",
          "type": "address"
        }
      ],
      "name": "rewards",
      "outputs": [
        {
          "internalType": "uint256",
          "name": "",
          "type": "uint256"
        }
      ],
      "stateMutability": "view",
      "type": "function"
    },
    {
      "inputs": [],
      "name": "rewardsDuration",
      "outputs": [
        {
          "internalType": "uint256",
          "name": "",
          "type": "uint256"
        }
      ],
      "stateMutability": "view",
      "type": "function"
    },
    {
      "inputs": [],
      "name": "setApprovals",
      "outputs": [],
      "stateMutability": "nonpayable",
      "type": "function"
    },
    {
      "inputs": [
        {
          "internalType": "uint256",
          "name": "_max",
          "type": "uint256"
        },
        {
          "internalType": "uint256",
          "name": "_rate",
          "type": "uint256"
        },
        {
          "internalType": "address",
          "name": "_receivingAddress",
          "type": "address"
        }
      ],
      "name": "setBoost",
      "outputs": [],
      "stateMutability": "nonpayable",
      "type": "function"
    },
    {
      "inputs": [
        {
          "internalType": "uint256",
          "name": "_rate",
          "type": "uint256"
        },
        {
          "internalType": "uint256",
          "name": "_delay",
          "type": "uint256"
        }
      ],
      "name": "setKickIncentive",
      "outputs": [],
      "stateMutability": "nonpayable",
      "type": "function"
    },
    {
      "inputs": [
        {
          "internalType": "uint256",
          "name": "_minimum",
          "type": "uint256"
        },
        {
          "internalType": "uint256",
          "name": "_maximum",
          "type": "uint256"
        }
      ],
      "name": "setStakeLimits",
      "outputs": [],
      "stateMutability": "nonpayable",
      "type": "function"
    },
    {
      "inputs": [
        {
          "internalType": "address",
          "name": "_staking",
          "type": "address"
        }
      ],
      "name": "setStakingContract",
      "outputs": [],
      "stateMutability": "nonpayable",
      "type": "function"
    },
    {
      "inputs": [],
      "name": "shutdown",
      "outputs": [],
      "stateMutability": "nonpayable",
      "type": "function"
    },
    {
      "inputs": [],
      "name": "stakeOffsetOnLock",
      "outputs": [
        {
          "internalType": "uint256",
          "name": "",
          "type": "uint256"
        }
      ],
      "stateMutability": "view",
      "type": "function"
    },
    {
      "inputs": [],
      "name": "stakingProxy",
      "outputs": [
        {
          "internalType": "address",
          "name": "",
          "type": "address"
        }
      ],
      "stateMutability": "view",
      "type": "function"
    },
    {
      "inputs": [],
      "name": "stakingToken",
      "outputs": [
        {
          "internalType": "contract IERC20",
          "name": "",
          "type": "address"
        }
      ],
      "stateMutability": "view",
      "type": "function"
    },
    {
      "inputs": [],
      "name": "symbol",
      "outputs": [
        {
          "internalType": "string",
          "name": "",
          "type": "string"
        }
      ],
      "stateMutability": "view",
      "type": "function"
    },
    {
      "inputs": [],
      "name": "totalSupply",
      "outputs": [
        {
          "internalType": "uint256",
          "name": "supply",
          "type": "uint256"
        }
      ],
      "stateMutability": "view",
      "type": "function"
    },
    {
      "inputs": [
        {
          "internalType": "uint256",
          "name": "_epoch",
          "type": "uint256"
        }
      ],
      "name": "totalSupplyAtEpoch",
      "outputs": [
        {
          "internalType": "uint256",
          "name": "supply",
          "type": "uint256"
        }
      ],
      "stateMutability": "view",
      "type": "function"
    },
    {
      "inputs": [
        {
          "internalType": "address",
          "name": "newOwner",
          "type": "address"
        }
      ],
      "name": "transferOwnership",
      "outputs": [],
      "stateMutability": "nonpayable",
      "type": "function"
    },
    {
      "inputs": [
        {
          "internalType": "address",
          "name": "",
          "type": "address"
        },
        {
          "internalType": "uint256",
          "name": "",
          "type": "uint256"
        }
      ],
      "name": "userLocks",
      "outputs": [
        {
          "internalType": "uint112",
          "name": "amount",
          "type": "uint112"
        },
        {
          "internalType": "uint112",
          "name": "boosted",
          "type": "uint112"
        },
        {
          "internalType": "uint32",
          "name": "unlockTime",
          "type": "uint32"
        }
      ],
      "stateMutability": "view",
      "type": "function"
    },
    {
      "inputs": [
        {
          "internalType": "address",
          "name": "",
          "type": "address"
        },
        {
          "internalType": "address",
          "name": "",
          "type": "address"
        }
      ],
      "name": "userRewardPerTokenPaid",
      "outputs": [
        {
          "internalType": "uint256",
          "name": "",
          "type": "uint256"
        }
      ],
      "stateMutability": "view",
      "type": "function"
    },
    {
      "inputs": [],
      "name": "version",
      "outputs": [
        {
          "internalType": "uint256",
          "name": "",
          "type": "uint256"
        }
      ],
      "stateMutability": "view",
      "type": "function"
    },
    {
      "inputs": [
        {
          "internalType": "address",
          "name": "_withdrawTo",
          "type": "address"
        }
      ],
      "name": "withdrawExpiredLocksTo",
      "outputs": [],
      "stateMutability": "nonpayable",
      "type": "function"
    }
  ],
  "bytecode": "0x60a06040526000600f819055612710601081905560119190915560128190556013819055601455606460175560046018556019805460ff191690553480156200004757600080fd5b5060405162005022380380620050228339810160408190526200006a916200036d565b600160009081556200007b62000250565b600180546001600160a01b0319166001600160a01b038316908117909155604051919250906000907f8be0079c531659141344cd1fd0a4f28419497f9722a3daafe3b4186f6b6457e0908290a3506040805180820190915260168082527f566f7465204c6f636b6564204d75757520546f6b656e0000000000000000000060209092019182526200010f91601a91620002d1565b5060408051808201909152600680825265766c4d55555560d01b60209092019182526200013f91601b91620002d1565b50600960f91b608052600280546001600160a01b03199081166001600160a01b0387811691909117909255600380548216868416179055600e80548216858416179055601680549091169183169190911790556000620001c862093a80620001b4428262000254602090811b620026bb17901c565b6200029560201b620026ed1790919060201c565b60408051808201909152600080825263ffffffff92831660208301908152600b8054600181018255925291517f0175b7a638427703f0dbe7bb9bbf987a2551717b34e79f33b5b1008d1fa01db990910180549251909316600160e01b026001600160e01b039182166001600160e01b03199093169290921716179055506200045b9350505050565b3390565b6000808211620002815760405162461bcd60e51b81526004016200027890620003d4565b60405180910390fd5b8183816200028b57fe5b0490505b92915050565b6000811580620002b257505080820282828281620002af57fe5b04145b6200028f5760405162461bcd60e51b815260040162000278906200040b565b828054600181600116156101000203166002900490600052602060002090601f016020900481019282601f106200031457805160ff191683800117855562000344565b8280016001018555821562000344579182015b828111156200034457825182559160200191906001019062000327565b506200035292915062000356565b5090565b5b8082111562000352576000815560010162000357565b6000806000806080858703121562000383578384fd5b8451620003908162000442565b6020860151909450620003a38162000442565b6040860151909350620003b68162000442565b6060860151909250620003c98162000442565b939692955090935050565b6020808252601c908201527f426f72696e674d6174683a206469766973696f6e206279207a65726f00000000604082015260600190565b60208082526018908201527f426f72696e674d6174683a204d756c204f766572666c6f770000000000000000604082015260600190565b6001600160a01b03811681146200045857600080fd5b50565b60805160f81c614ba96200047960003980610d595250614ba96000f3fe608060405234801561001057600080fd5b50600436106103f15760003560e01c80638757b15b11610215578063bf86d69011610125578063dc01f60d116100b8578063ec5ffac211610087578063ec5ffac2146107e8578063f1229777146107f0578063f2fde38b14610803578063f826159714610816578063fc0e74d114610829576103f1565b8063dc01f60d1461079a578063e2ab691d146107ba578063e432488d146107cd578063e70b9e27146107d5576103f1565b8063ca5c7b91116100f4578063ca5c7b9114610759578063cb1b9a7414610761578063d36f12fb14610774578063d3c45c7614610787576103f1565b8063bf86d69014610715578063c00007b01461071d578063c1009f4b14610730578063c6b61e4c14610738576103f1565b80639dd373b9116101a8578063b187bc2211610177578063b187bc22146106d7578063b5c6b453146106df578063b5ed7a66146106e7578063b66503cf146106ef578063bcd1101414610702576103f1565b80639dd373b914610696578063a81653c9146106a9578063a98e05bb146106bc578063aa33fedb146106c4576103f1565b80638da5cb5b116101e45780638da5cb5b1461067657806395d89b411461067e57806396ce0795146106865780639bdc74671461068e576103f1565b80638757b15b14610635578063887c7dc51461063d5780638980f11f146106505780638c9bd1b514610663576103f1565b806354fd4d50116103105780637050ccd9116102a357806372f702f31161027257806372f702f31461060257806375aadf611461060a5780637bb7bed1146106125780637bd48c7c14610625578063829965cc1461062d576103f1565b80637050ccd9146105c157806370a08231146105d457806370b36d79146105e7578063715018a6146105fa576103f1565b8063648bb8ad116102df578063648bb8ad146105805780636724c9101461058857806368edd2bb1461059b5780637035ab98146105ae576103f1565b806354fd4d501461053f5780635935573614610547578063638634ee1461055a57806363f1c8e21461056d576103f1565b806327e235e311610388578063313ce56711610357578063313ce567146104de578063386a9525146104f357806339fc9713146104fb57806348e5d9f81461051b576103f1565b806327e235e31461048c5780632e9564e4146104ae5780632fe87108146104b6578063312ff839146104c9576103f1565b806318160ddd116103c457806318160ddd146104615780631c6073951461046957806322f80d111461047c578063236dcb6314610484576103f1565b806304554443146103f65780630483a7f61461041457806306fdde03146104375780630c73373e1461044c575b600080fd5b6103fe610831565b60405161040b9190614a6c565b60405180910390f35b61042761042236600461414a565b610838565b60405161040b9493929190614a94565b61043f6109fe565b60405161040b9190614470565b610454610a94565b60405161040b919061436c565b6103fe610aa3565b6103fe6104773660046142df565b610b79565b610454610c82565b610454610c91565b61049f61049a36600461414a565b610ca0565b60405161040b93929190614a24565b6103fe610cd6565b6103fe6104c436600461414a565b610cdc565b6104dc6104d7366004614277565b610d0b565b005b6104e6610d57565b60405161040b9190614b16565b6103fe610d7b565b61050e610509366004614165565b610d82565b60405161040b919061442f565b61052e61052936600461414a565b610da2565b60405161040b95949392919061443a565b6103fe610dee565b6103fe61055536600461414a565b610df3565b6103fe61056836600461414a565b610e17565b6104dc61057b366004614302565b610e45565b6103fe610ed2565b6104dc610596366004614199565b610ed8565b6103fe6105a936600461414a565b610f7d565b6103fe6105bc366004614165565b611018565b6104dc6105cf3660046141e3565b611035565b6103fe6105e236600461414a565b61138d565b6103fe6105f53660046142af565b6114b1565b6104dc611588565b610454611611565b6103fe611620565b6104546106203660046142af565b611626565b6103fe61164d565b6103fe611653565b6104dc611659565b6104dc61064b36600461414a565b6116d5565b6104dc61065e36600461421a565b611726565b6104dc610671366004614302565b61182c565b6104546118e7565b61043f6118f6565b6103fe611957565b6103fe61195d565b6104dc6106a436600461414a565b611963565b6104dc6106b7366004614323565b6119ed565b610454611abe565b61049f6106d236600461421a565b611acd565b6103fe611b19565b6103fe611b1f565b6103fe611b25565b6104dc6106fd36600461421a565b611b2b565b6103fe61071036600461414a565b611dbd565b61050e611df3565b6104dc61072b36600461414a565b611dfc565b6104dc611e0a565b61074b6107463660046142af565b611e12565b60405161040b929190614a4d565b6103fe611e47565b6103fe61076f3660046142df565b611e4d565b6104dc61078236600461414a565b611f2f565b6104dc610795366004614199565b611f6a565b6107ad6107a836600461414a565b6120aa565b60405161040b91906143d7565b6104dc6107c8366004614244565b6121e3565b6103fe6123dc565b6103fe6107e3366004614165565b6123e2565b6103fe6123ff565b6103fe6107fe36600461414a565b612405565b6104dc61081136600461414a565b612410565b6103fe6108243660046142af565b6124d1565b6104dc61257b565b6293a80081565b6001600160a01b0381166000908152600d60209081526040808320600c9092528220805483928392606092600160e01b900463ffffffff1684815b84548110156109e6574285828154811061088957fe5b600091825260209091200154600160e01b900463ffffffff1611156109b0578161090657845481900367ffffffffffffffff811180156108c857600080fd5b5060405190808252806020026020018201604052801561090257816020015b6108ef6140fc565b8152602001906001900390816108e75790505b5095505b84818154811061091257fe5b60009182526020918290206040805160608101825291909201546001600160701b038082168352600160701b8204169382019390935263ffffffff600160e01b9093049290921690820152865187908490811061096b57fe5b602002602001018190525081806001019250506109a985828154811061098d57fe5b60009182526020909120015488906001600160701b0316612724565b96506109de565b6109db8582815481106109bf57fe5b60009182526020909120015489906001600160701b0316612724565b97505b600101610873565b505090546001600160701b0316955050509193509193565b601a8054604080516020601f6002600019610100600188161502019095169490940493840181900481028201810190925282815260609390929091830182828015610a8a5780601f10610a5f57610100808354040283529160200191610a8a565b820191906000526020600020905b815481529060010190602001808311610a6d57829003601f168201915b5050505050905090565b6016546001600160a01b031681565b600080610abd62093a80610ab742826126bb565b906126ed565b90506000610ace826293a800612747565b600b805491925083906000198301838110610ae557fe5b600091825260209091200154600160e01b900463ffffffff161115610b0957600019015b60001981015b6001810115610b72576000600b8281548110610b2757fe5b60009182526020909120018054909150600160e01b900463ffffffff168410610b505750610b72565b8054610b669087906001600160e01b0316612724565b95505060001901610b0f565b5050505090565b6001600160a01b0381166000908152600d60205260408120600b805483919086908110610ba257fe5b600091825260208220015463ffffffff600160e01b90910481169250610bcf9083906293a8009061274716565b8354909150600019015b6001810115610c77576000610c1d62093a80601002868481548110610bfa57fe5b60009182526020909120015463ffffffff600160e01b9091048116919061274716565b9050838111610c6d5782811115610c6757610c60858381548110610c3d57fe5b6000918252602090912001548790600160701b90046001600160701b0316612724565b9550610c6d565b50610c77565b5060001901610bd9565b505050505b92915050565b6015546001600160a01b031681565b6003546001600160a01b031681565b600c602052600090815260409020546001600160701b0380821691600160701b810490911690600160e01b900463ffffffff1683565b60105481565b6001600160a01b0381166000908152600c6020526040902054600160701b90046001600160701b03165b919050565b60026000541415610d375760405162461bcd60e51b8152600401610d2e906148eb565b60405180910390fd5b6002600081905550610d4f338260003333600061276a565b506001600055565b7f000000000000000000000000000000000000000000000000000000000000000090565b62093a8081565b600660209081526000928352604080842090915290825290205460ff1681565b6005602052600090815260409020805460019091015460ff82169164ffffffffff61010082048116926001600160d01b03600160301b90930483169291811691600160281b9091041685565b600290565b6001600160a01b03166000908152600c60205260409020546001600160701b031690565b6001600160a01b038116600090815260056020526040812054610c7c90610100900464ffffffffff16612e03565b610e4d612e0f565b6001600160a01b0316610e5e6118e7565b6001600160a01b031614610e845760405162461bcd60e51b8152600401610d2e90614728565b6101f4821115610ea65760405162461bcd60e51b8152600401610d2e90614600565b6002811015610ec75760405162461bcd60e51b8152600401610d2e90614794565b601791909155601855565b6101f481565b610ee0612e0f565b6001600160a01b0316610ef16118e7565b6001600160a01b031614610f175760405162461bcd60e51b8152600401610d2e90614728565b6001600160a01b03831660009081526005602052604090206001015464ffffffffff16610f4357600080fd5b6001600160a01b03928316600090815260066020908152604080832094909516825292909252919020805460ff1916911515919091179055565b6001600160a01b0381166000908152600d60205260408120805482610fa962093a80610ab742826126bb565b9050600082118015610fd2575080610fd062093a80601002856001860381548110610bfa57fe5b115b1561100d57826001830381548110610fe657fe5b600091825260209091200154600160701b90046001600160701b03169350610d0692505050565b506000949350505050565b600760209081526000928352604080842090915290825290205481565b600260005414156110585760405162461bcd60e51b8152600401610d2e906148eb565b600260009081556001600160a01b0383168152600c6020526040812080548492600160701b9091046001600160701b0316905b600454811015611217576000600482815481106110a457fe5b6000918252602090912001546001600160a01b031690506110cc6110c782612e13565b612f1c565b6001600160a01b03821660009081526005602052604090206001810180546001600160d01b0393909316600160281b02600160281b600160f81b031990931692909217909155546111329061112d9064ffffffffff61010090910416612e03565b612f49565b6001600160a01b038281166000908152600560205260409020600101805464ffffffffff191664ffffffffff939093169290921790915585161561120e576001600160a01b0381166000908152600560205260409020546111af908690839060ff166111a85786546001600160701b03166111aa565b855b612f70565b6001600160a01b0386811660008181526008602090815260408083209487168084529482528083209590955560058152848220600101549282526007815284822093825292909252919020600160281b9091046001600160d01b031690555b5060010161108b565b50505060005b6004548110156113825760006004828154811061123657fe5b60009182526020808320909101546001600160a01b038881168452600883526040808520919092168085529252909120549091508015611378576001600160a01b03808716600090815260086020908152604080832086851680855292528220919091556003549091161480156112aa5750845b15611318576016546040516305dc812160e31b81526001600160a01b0390911690632ee40908906112e190899085906004016143be565b600060405180830381600087803b1580156112fb57600080fd5b505af115801561130f573d6000803e3d6000fd5b5050505061132c565b61132c6001600160a01b0383168783612fe8565b816001600160a01b0316866001600160a01b03167f540798df468d7b23d11f156fdb954cb19ad414d150722a7b6d55ba369dea792e8360405161136f9190614a6c565b60405180910390a35b505060010161121d565b505060016000555050565b6001600160a01b0381166000908152600d60209081526040808320600c90925290912080548254600160701b82046001600160701b0316939291600160e01b900463ffffffff1690815b8181101561145057428582815481106113ec57fe5b600091825260209091200154600160e01b900463ffffffff16116114435761143c85828154811061141957fe5b6000918252602090912001548790600160701b90046001600160701b0316612747565b9550611448565b611450565b6001016113d7565b50600061146462093a80610ab742826126bb565b905060008211801561148d57508061148b62093a80601002876001860381548110610bfa57fe5b115b156114a7576114a485600184038154811061141957fe5b95505b5050505050919050565b6000806114f262093a80610ab762093a80600b87815481106114cf57fe5b60009182526020909120015463ffffffff600160e01b909104811691906126bb16565b90506000611503826293a800612747565b9050835b6001810115611580576000600b828154811061151f57fe5b60009182526020909120018054909150600160e01b900463ffffffff1683106115485750611580565b611574600b838154811061155857fe5b60009182526020909120015486906001600160e01b0316612724565b94505060001901611507565b505050919050565b611590612e0f565b6001600160a01b03166115a16118e7565b6001600160a01b0316146115c75760405162461bcd60e51b8152600401610d2e90614728565b6001546040516000916001600160a01b0316907f8be0079c531659141344cd1fd0a4f28419497f9722a3daafe3b4186f6b6457e0908390a3600180546001600160a01b0319169055565b6002546001600160a01b031681565b600a5481565b6004818154811061163357fe5b6000918252602090912001546001600160a01b0316905081565b60115481565b600b5490565b601654600354611677916001600160a01b039182169116600061303e565b601654600354611696916001600160a01b03918216911660001961303e565b6015546002546116b4916001600160a01b039182169116600061303e565b6015546002546116d3916001600160a01b03918216911660001961303e565b565b600260005414156116f85760405162461bcd60e51b8152600401610d2e906148eb565b6002600081905550610d4f81600080843361172160185462093a806126ed90919063ffffffff16565b61276a565b61172e612e0f565b6001600160a01b031661173f6118e7565b6001600160a01b0316146117655760405162461bcd60e51b8152600401610d2e90614728565b6002546001600160a01b03838116911614156117935760405162461bcd60e51b8152600401610d2e9061475d565b6001600160a01b03821660009081526005602052604090206001015464ffffffffff16156117d35760405162461bcd60e51b8152600401610d2e906148b4565b6117ef6117de6118e7565b6001600160a01b0384169083612fe8565b7f8c1256b8896378cd5044f80c202f9772b9d77dc85c8a6eb51967210b09bfaa2882826040516118209291906143be565b60405180910390a15050565b611834612e0f565b6001600160a01b03166118456118e7565b6001600160a01b03161461186b5760405162461bcd60e51b8152600401610d2e90614728565b61271082111561188d5760405162461bcd60e51b8152600401610d2e90614810565b6127108111156118af5760405162461bcd60e51b8152600401610d2e90614922565b808211156118cf5760405162461bcd60e51b8152600401610d2e90614810565b601382905560148190556118e36000613101565b5050565b6001546001600160a01b031690565b601b8054604080516020601f6002600019610100600188161502019095169490940493840181900481028201810190925282815260609390929091830182828015610a8a5780601f10610a5f57610100808354040283529160200191610a8a565b61271081565b60175481565b61196b612e0f565b6001600160a01b031661197c6118e7565b6001600160a01b0316146119a25760405162461bcd60e51b8152600401610d2e90614728565b6015546001600160a01b0316156119cb5760405162461bcd60e51b8152600401610d2e90614707565b601580546001600160a01b0319166001600160a01b0392909216919091179055565b6119f5612e0f565b6001600160a01b0316611a066118e7565b6001600160a01b031614611a2c5760405162461bcd60e51b8152600401610d2e90614728565b6105dc8310611a4d5760405162461bcd60e51b8152600401610d2e906145d6565b6175308210611a6e5760405162461bcd60e51b8152600401610d2e90614600565b6001600160a01b038116611a945760405162461bcd60e51b8152600401610d2e9061464d565b601192909255601255600e80546001600160a01b0319166001600160a01b03909216919091179055565b600e546001600160a01b031681565b600d6020528160005260406000208181548110611ae657fe5b6000918252602090912001546001600160701b038082169350600160701b8204169150600160e01b900463ffffffff1683565b600f5481565b60145481565b60125481565b6000808052600c6020527f13649b2456f1b42fef0f0040b3aaeabcd21a76a0f3f5defd4f583839455116e88054600160701b90046001600160701b0316825b600454811015611ce557600060048281548110611b8357fe5b6000918252602090912001546001600160a01b03169050611ba66110c782612e13565b6001600160a01b03821660009081526005602052604090206001810180546001600160d01b0393909316600160281b02600160281b600160f81b03199093169290921790915554611c079061112d9064ffffffffff61010090910416612e03565b6001600160a01b038281166000908152600560205260409020600101805464ffffffffff191664ffffffffff9390931692909217909155851615611cdc576001600160a01b038116600090815260056020526040902054611c7d908690839060ff166111a85786546001600160701b03166111aa565b6001600160a01b0386811660008181526008602090815260408083209487168084529482528083209590955560058152848220600101549282526007815284822093825292909252919020600160281b9091046001600160d01b031690555b50600101611b6a565b5050506001600160a01b038316600090815260066020908152604080832033845290915290205460ff16611d1857600080fd5b60008211611d385760405162461bcd60e51b8152600401610d2e906146e4565b611d4283836133d3565b611d576001600160a01b038416333085613506565b826001600160a01b03167fac24935fd910bc682b5ccb1a07b718cadf8cf2f6d1404c4f3ddc3662dae40e2983604051611d909190614a6c565b60405180910390a26003546001600160a01b0384811691161415611db857611db86000613101565b505050565b6001600160a01b038116600090815260056020526040812054610c7c90600160301b90046001600160d01b031662093a806126ed565b60195460ff1681565b611e07816000611035565b50565b6116d361352d565b600b8181548110611e1f57fe5b6000918252602090912001546001600160e01b0381169150600160e01b900463ffffffff1682565b60095481565b6001600160a01b0381166000908152600d60205260408120600b80548391611ea29162093a80919088908110611e7f57fe5b60009182526020909120015463ffffffff600160e01b9091048116919061272416565b8254909150600019015b6001810115611f23576000611ecd62093a80601002858481548110610bfa57fe5b905082811415611f0b57838281548110611ee357fe5b600091825260209091200154600160701b90046001600160701b03169450610c7c9350505050565b82811015611f195750611f23565b5060001901611eac565b50600095945050505050565b60026000541415611f525760405162461bcd60e51b8152600401610d2e906148eb565b6002600081905550610d4f336000808433600061276a565b611f72612e0f565b6001600160a01b0316611f836118e7565b6001600160a01b031614611fa95760405162461bcd60e51b8152600401610d2e90614728565b6001600160a01b03831660009081526005602052604090206001015464ffffffffff1615611fd657600080fd5b6002546001600160a01b0384811691161415611ff157600080fd5b6004805460018082019092557f8a35acfbc15ff81a39ae7d344fd709f28e8600b4aa8c65c6b64bfe7fe36bd19b0180546001600160a01b0319166001600160a01b039586169081179091556000908152600560209081526040808320808501805464ffffffffff19164264ffffffffff16908117909155815465ffffffffff0019166101009091021760ff1990811696151596909617905560068252808320959096168252939093529290912080549091169091179055565b60045460609067ffffffffffffffff811180156120c657600080fd5b5060405190808252806020026020018201604052801561210057816020015b6120ed61411c565b8152602001906001900390816120e55790505b506001600160a01b0383166000908152600c60205260408120805492935091600160701b90046001600160701b0316905b83518110156115805760006004828154811061214957fe5b9060005260206000200160009054906101000a90046001600160a01b031690508085838151811061217657fe5b6020908102919091018101516001600160a01b0392831690529082166000908152600590915260409020546121c0908790839060ff166111a85786546001600160701b03166111aa565b8583815181106121cc57fe5b602090810291909101810151015250600101612131565b600260005414156122065760405162461bcd60e51b8152600401610d2e906148eb565b600260009081556001600160a01b0384168152600c6020526040812080548592600160701b9091046001600160701b0316905b6004548110156123b45760006004828154811061225257fe5b6000918252602090912001546001600160a01b031690506122756110c782612e13565b6001600160a01b03821660009081526005602052604090206001810180546001600160d01b0393909316600160281b02600160281b600160f81b031990931692909217909155546122d69061112d9064ffffffffff61010090910416612e03565b6001600160a01b038281166000908152600560205260409020600101805464ffffffffff191664ffffffffff93909316929092179091558516156123ab576001600160a01b03811660009081526005602052604090205461234c908690839060ff166111a85786546001600160701b03166111aa565b6001600160a01b0386811660008181526008602090815260408083209487168084529482528083209590955560058152848220600101549282526007815284822093825292909252919020600160281b9091046001600160d01b031690555b50600101612239565b50506002546123cf91506001600160a01b0316333086613506565b6113828484846000613675565b60185481565b600860209081526000928352604080842090915290825290205481565b60135481565b6000610c7c82612e13565b612418612e0f565b6001600160a01b03166124296118e7565b6001600160a01b03161461244f5760405162461bcd60e51b8152600401610d2e90614728565b6001600160a01b0381166124755760405162461bcd60e51b8152600401610d2e90614540565b6001546040516001600160a01b038084169216907f8be0079c531659141344cd1fd0a4f28419497f9722a3daafe3b4186f6b6457e090600090a3600180546001600160a01b0319166001600160a01b0392909216919091179055565b600b5460009060001901816124ed62093a80610ab786826126bb565b935060005b60808110156125735782821061250757612573565b600060026001848601010490506000600b828154811061252357fe5b600091825260209091200154600160e01b900463ffffffff1690508681141561255257509350610d0692505050565b8681101561256257819350612569565b6001820394505b50506001016124f2565b509392505050565b612583612e0f565b6001600160a01b03166125946118e7565b6001600160a01b0316146125ba5760405162461bcd60e51b8152600401610d2e90614728565b6015546001600160a01b0316156126ac5760155460408051629032ff60e51b815290516000926001600160a01b0316916312065fe0916004808301926020929190829003018186803b15801561260f57600080fd5b505afa158015612623573d6000803e3d6000fd5b505050506040513d601f19601f8201168201806040525081019061264791906142c7565b601554604051632e1a7d4d60e01b81529192506001600160a01b031690632e1a7d4d90612678908490600401614a6c565b600060405180830381600087803b15801561269257600080fd5b505af11580156126a6573d6000803e3d6000fd5b50505050505b6019805460ff19166001179055565b60008082116126dc5760405162461bcd60e51b8152600401610d2e90614509565b8183816126e557fe5b049392505050565b60008115806127085750508082028282828161270557fe5b04145b610c7c5760405162461bcd60e51b8152600401610d2e9061499b565b81810181811015610c7c5760405162461bcd60e51b8152600401610d2e90614676565b80820382811115610c7c5760405162461bcd60e51b8152600401610d2e906144a3565b6001600160a01b0386166000908152600c6020526040812080548892600160701b9091046001600160701b0316905b600454811015612914576000600482815481106127b257fe5b6000918252602090912001546001600160a01b031690506127d56110c782612e13565b6001600160a01b03821660009081526005602052604090206001810180546001600160d01b0393909316600160281b02600160281b600160f81b031990931692909217909155546128369061112d9064ffffffffff61010090910416612e03565b6001600160a01b038281166000908152600560205260409020600101805464ffffffffff191664ffffffffff939093169290921790915585161561290b576001600160a01b0381166000908152600560205260409020546128ac908690839060ff166111a85786546001600160701b03166111aa565b6001600160a01b0386811660008181526008602090815260408083209487168084529482528083209590955560058152848220600101549282526007815284822093825292909252919020600160281b9091046001600160d01b031690555b50600101612799565b5050506001600160a01b0387166000908152600d60209081526040808320600c9092528220815460195492939192829190829060ff1680612985575061295a4289612747565b86600184038154811061296957fe5b600091825260209091200154600160e01b900463ffffffff1611155b15612a985784546001600160701b038082169550600160701b9091041692506129ad82613d6a565b855463ffffffff91909116600160e01b026001600160e01b039091161785558715612a935760006129ef62093a80610ab7816129e9428e612747565b906126bb565b90506000612a3062093a806129e98a6001880381548110612a0c57fe5b600091825260209091200154859063ffffffff600160e01b90910481169061274716565b90506000612a57612a4f836001016017546126ed90919063ffffffff16565b612710613d90565b9050612a8d6127106129e9838c60018a0381548110612a7257fe5b6000918252602090912001546001600160701b0316906126ed565b93505050505b612c06565b8454600160e01b900463ffffffff16805b83811015612be657612abb428b612747565b888281548110612ac757fe5b600091825260209091200154600160e01b900463ffffffff161115612aeb57612be6565b612b18888281548110612afa57fe5b6000918252602090912001546001600160701b038881169116613da6565b9550612b4e888281548110612b2957fe5b6000918252602090912001546001600160701b0387811691600160701b900416613da6565b94508915612bda576000612b7962093a80610ab762093a806129e98f4261274790919063ffffffff16565b90506000612b9362093a806129e98c8681548110612a0c57fe5b90506000612bb2612a4f836001016017546126ed90919063ffffffff16565b9050612bd4612bcd6127106129e9848f8981548110612a7257fe5b8790612724565b95505050505b60019182019101612aa9565b50855463ffffffff909116600160e01b026001600160e01b039091161785555b6000846001600160701b031611612c2f5760405162461bcd60e51b8152600401610d2e90614627565b8454612c44906001600160701b031685613dd5565b85546001600160701b0319166001600160701b0391821617808755612c7291600160701b9091041684613dd5565b8554600160701b600160e01b031916600160701b6001600160701b0392831602178655600954612ca3918616612747565b600955600a54612cbc906001600160701b038516612747565b600a819055508c6001600160a01b03167f2fd83d5e9f5d240bed47a97a24cf354e4047e25edc2da27b01fd95e5e8a0c9a5858e604051612cfd929190614a09565b60405180910390a28015612d9757612d1d846001600160701b0316613e04565b612d39612d2982613efc565b6001600160701b03861690613dd5565b9350612d4789826000613f25565b8c6001600160a01b0316896001600160a01b03167f7e7ff29ed04cfb223bc9b02606f69520517c117ee82c9158ed2d96323c1ef38583604051612d8a9190614a6c565b60405180910390a3612dbe565b8a15612dbe57612dbe612db96127106129e96001600160701b0388168f6126ed565b613e04565b8b15612ddf57612dda8a856001600160701b03168d6001613675565b612df4565b612df48a856001600160701b03166001613f25565b50505050505050505050505050565b6000610c7c4283613d90565b3390565b6000600a5460001415612e5257506001600160a01b038116600090815260056020526040902060010154600160281b90046001600160d01b0316610d06565b6001600160a01b038216600090815260056020526040902054610c7c90612eea9060ff16612e8257600954612e86565b600a545b6001600160a01b038516600090815260056020526040902080546001909101546129e991670de0b6b3a764000091610ab7916001600160d01b03600160301b82041691839164ffffffffff91821691612ee491610100900416612e03565b90612747565b6001600160a01b038416600090815260056020526040902060010154600160281b90046001600160d01b031690612724565b60006001600160d01b03821115612f455760405162461bcd60e51b8152600401610d2e906144d2565b5090565b600064ffffffffff821115612f455760405162461bcd60e51b8152600401610d2e906149d2565b6001600160a01b038084166000818152600860209081526040808320948716808452948252808320549383526007825280832094835293905291822054612fde9190612fd890670de0b6b3a7640000906129e990612fd190612ee48a612e13565b87906126ed565b90612724565b90505b9392505050565b611db88363a9059cbb60e01b84846040516024016130079291906143be565b60408051601f198184030181529190526020810180516001600160e01b03166001600160e01b031990931692909217909152613f55565b8015806130c65750604051636eb1769f60e11b81526001600160a01b0384169063dd62ed3e906130749030908690600401614380565b60206040518083038186803b15801561308c57600080fd5b505afa1580156130a0573d6000803e3d6000fd5b505050506040513d601f19601f820116820180604052508101906130c491906142c7565b155b6130e25760405162461bcd60e51b8152600401610d2e90614945565b611db88363095ea7b360e01b84846040516024016130079291906143be565b60195460ff161561311157611e07565b6002546040516370a0823160e01b81526000916001600160a01b0316906370a082319061314290309060040161436c565b60206040518083038186803b15801561315a57600080fd5b505afa15801561316e573d6000803e3d6000fd5b505050506040513d601f19601f8201168201806040525081019061319291906142c7565b90506000601560009054906101000a90046001600160a01b03166001600160a01b03166312065fe06040518163ffffffff1660e01b815260040160206040518083038186803b1580156131e457600080fd5b505afa1580156131f8573d6000803e3d6000fd5b505050506040513d601f19601f8201168201806040525081019061321c91906142c7565b9050600061322a8383612724565b90508061323957505050611e07565b600061324b826129e9856127106126ed565b9050600061326b60026129e960135460145461272490919063ffffffff16565b905060006132848760145461272490919063ffffffff16565b905060006132986013548960135403613d90565b9050818411156133275760006132be6132b76127106129e989886126ed565b8890612747565b601554604051632e1a7d4d60e01b81529192506001600160a01b031690632e1a7d4d906132ef908490600401614a6c565b600060405180830381600087803b15801561330957600080fd5b505af115801561331d573d6000803e3d6000fd5b50505050506133c9565b808410156133c957600061334587612ee46127106129e98a896126ed565b601554600254919250613365916001600160a01b03908116911683612fe8565b601560009054906101000a90046001600160a01b03166001600160a01b0316633a4b66f16040518163ffffffff1660e01b8152600401600060405180830381600087803b1580156133b557600080fd5b505af1158015612df4573d6000803e3d6000fd5b5050505050505050565b6001600160a01b03821660009081526005602052604090208054610100900464ffffffffff1642106134355761340f6110c78362093a806126bb565b81546001600160d01b0391909116600160301b0265ffffffffffff9091161781556134ad565b805460009061345090610100900464ffffffffff1642612747565b8254909150600090613473908390600160301b90046001600160d01b03166126ed565b90506134896110c762093a806129e98785612724565b83546001600160d01b0391909116600160301b0265ffffffffffff90911617835550505b6134b642612f49565b60018201805464ffffffffff191664ffffffffff929092169190911790556134e461112d4262093a80612724565b815464ffffffffff919091166101000265ffffffffff00199091161790555050565b613527846323b872dd60e01b8585856040516024016130079392919061439a565b50505050565b600061354462093a80612fd881610ab742826126bb565b600b80549192508290600019830183811061355b57fe5b600091825260209091200154600160e01b900463ffffffff1610156118e3575b600b8054839190600019810190811061359057fe5b600091825260209091200154600160e01b900463ffffffff161461364e5760006135cc62093a80600b6001600b805490500381548110611e7f57fe5b60408051808201909152600080825263ffffffff92831660208301908152600b8054600181018255925291517f0175b7a638427703f0dbe7bb9bbf987a2551717b34e79f33b5b1008d1fa01db990910180549251909316600160e01b026001600160e01b039182166001600160e01b031990931692909217161790555061357b565b60125460105414613660576012546010555b601154600f54146118e357601154600f555050565b600083116136955760405162461bcd60e51b8152600401610d2e90614586565b600f548211156136b75760405162461bcd60e51b8152600401610d2e906145ae565b60195460ff16156136da5760405162461bcd60e51b8152600401610d2e906147b7565b6001600160a01b0384166000908152600c602052604090206136fa61352d565b600061370c6127106129e987876126ed565b90506000613735600f5460001461372557600f54613728565b60015b6010546129e990886126ed565b9050600061374b6137468885612747565b613efc565b9050600061376c6137466137656127106129e98c886126ed565b8a90612724565b8554909150613784906001600160701b031683613da6565b85546001600160701b0319166001600160701b03918216178087556137b291600160701b9091041682613da6565b8554600160701b600160e01b031916600160701b6001600160701b03928316021786556009546137e3918416612724565b600955600a546137fc906001600160701b038316612724565b600a55600061381262093a80610ab742826126bb565b905086613829576138268162093a80612724565b90505b6000613838826293a800612724565b6001600160a01b038c166000908152600d60205260409020549091508015806138a257506001600160a01b038c166000908152600d602052604090208054839190600019840190811061388757fe5b600091825260209091200154600160e01b900463ffffffff16105b15613951576001600160a01b038c166000908152600d6020908152604080832081516060810183526001600160701b03808b16825289811682860190815263ffffffff808a16958401958652845460018101865594885295909620915191909201805495519351909416600160e01b026001600160e01b03938316600160701b02600160701b600160e01b0319929093166001600160701b031990961695909517161716919091179055613c7e565b6001600160a01b038c166000908152600d602052604090208054839190600019840190811061397c57fe5b600091825260209091200154600160e01b900463ffffffff1611156139a057600019015b6001600160a01b038c166000908152600d60205260409020805483919060001984019081106139cb57fe5b600091825260209091200154600160e01b900463ffffffff161415613a8e576001600160a01b038c166000908152600d6020526040812080546000198401908110613a1257fe5b60009182526020909120018054909150613a35906001600160701b031687613da6565b81546001600160701b0319166001600160701b0391821617808355613a6391600160701b9091041686613da6565b81546001600160701b0391909116600160701b02600160701b600160e01b0319909116179055613c7e565b506001600160a01b038b166000908152600d60205260408120805491906000198301838110613ab957fe5b906000526020600020019050600d60008e6001600160a01b03166001600160a01b0316815260200190815260200160002060405180606001604052808360000160009054906101000a90046001600160701b03166001600160701b0316815260200183600001600e9054906101000a90046001600160701b03166001600160701b0316815260200183600001601c9054906101000a900463ffffffff1663ffffffff168152509080600181540180825580915050600190039060005260206000200160009091909190915060008201518160000160006101000a8154816001600160701b0302191690836001600160701b03160217905550602082015181600001600e6101000a8154816001600160701b0302191690836001600160701b03160217905550604082015181600001601c6101000a81548163ffffffff021916908363ffffffff1602179055505050858160000160006101000a8154816001600160701b0302191690836001600160701b031602179055508481600001600e6101000a8154816001600160701b0302191690836001600160701b031602179055508281600001601c6101000a81548163ffffffff021916908363ffffffff160217905550505b600b54600019018915613c9057600019015b6000600b8281548110613c9f57fe5b60009182526020909120018054909150613ccb906001600160e01b03166001600160701b038816613fe4565b81546001600160e01b0319166001600160e01b03919091161781558815613d0957600e54600254613d09916001600160a01b0391821691168b612fe8565b613d146101f4613101565b848e6001600160a01b03167f9cfd25589d1eb8ad71e342a86a8524e83522e3936c0803048c08f6d9ad974f408f8a8a604051613d5293929190614a75565b60405180910390a35050505050505050505050505050565b600063ffffffff821115612f455760405162461bcd60e51b8152600401610d2e90614833565b6000818310613d9f5781612fe1565b5090919050565b8181016001600160701b038083169082161015610c7c5760405162461bcd60e51b8152600401610d2e90614676565b8082036001600160701b038084169082161115610c7c5760405162461bcd60e51b8152600401610d2e906144a3565b6002546040516370a0823160e01b81526000916001600160a01b0316906370a0823190613e3590309060040161436c565b60206040518083038186803b158015613e4d57600080fd5b505afa158015613e61573d6000803e3d6000fd5b505050506040513d601f19601f82011682018060405250810190613e8591906142c7565b9050808211156118e3576015546001600160a01b0316632e1a7d4d613eaa8484612747565b6040518263ffffffff1660e01b8152600401613ec69190614a6c565b600060405180830381600087803b158015613ee057600080fd5b505af1158015613ef4573d6000803e3d6000fd5b505050505050565b60006001600160701b03821115612f455760405162461bcd60e51b8152600401610d2e906146ad565b613f2e82613e04565b600254613f45906001600160a01b03168484612fe8565b8015611db857611db86000613101565b6060613faa826040518060400160405280602081526020017f5361666545524332303a206c6f772d6c6576656c2063616c6c206661696c6564815250856001600160a01b03166140139092919063ffffffff16565b805190915015611db85780806020019051810190613fc89190614293565b611db85760405162461bcd60e51b8152600401610d2e9061486a565b8181016001600160e01b038083169082161015610c7c5760405162461bcd60e51b8152600401610d2e90614676565b6060612fde848460008585614027856140bd565b6140435760405162461bcd60e51b8152600401610d2e906147d9565b60006060866001600160a01b031685876040516140609190614350565b60006040518083038185875af1925050503d806000811461409d576040519150601f19603f3d011682016040523d82523d6000602084013e6140a2565b606091505b50915091506140b28282866140c3565b979650505050505050565b3b151590565b606083156140d2575081612fe1565b8251156140e25782518084602001fd5b8160405162461bcd60e51b8152600401610d2e9190614470565b604080516060810182526000808252602082018190529181019190915290565b604080518082019091526000808252602082015290565b80356001600160a01b0381168114610c7c57600080fd5b60006020828403121561415b578081fd5b612fe18383614133565b60008060408385031215614177578081fd5b6141818484614133565b91506141908460208501614133565b90509250929050565b6000806000606084860312156141ad578081fd5b83356141b881614b50565b925060208401356141c881614b50565b915060408401356141d881614b65565b809150509250925092565b600080604083850312156141f5578182fd5b6141ff8484614133565b9150602083013561420f81614b65565b809150509250929050565b6000806040838503121561422c578182fd5b6142368484614133565b946020939093013593505050565b600080600060608486031215614258578283fd5b6142628585614133565b95602085013595506040909401359392505050565b600060208284031215614288578081fd5b8135612fe181614b65565b6000602082840312156142a4578081fd5b8151612fe181614b65565b6000602082840312156142c0578081fd5b5035919050565b6000602082840312156142d8578081fd5b5051919050565b600080604083850312156142f1578182fd5b823591506141908460208501614133565b60008060408385031215614314578182fd5b50508035926020909101359150565b600080600060608486031215614337578283fd5b833592506020840135915060408401356141d881614b50565b60008251614362818460208701614b24565b9190910192915050565b6001600160a01b0391909116815260200190565b6001600160a01b0392831681529116602082015260400190565b6001600160a01b039384168152919092166020820152604081019190915260600190565b6001600160a01b03929092168252602082015260400190565b602080825282518282018190526000919060409081850190868401855b8281101561442257815180516001600160a01b031685528601518685015292840192908501906001016143f4565b5091979650505050505050565b901515815260200190565b941515855264ffffffffff93841660208601526001600160d01b0392831660408601529216606084015216608082015260a00190565b600060208252825180602084015261448f816040850160208701614b24565b601f01601f19169190910160400192915050565b602080825260159082015274426f72696e674d6174683a20556e646572666c6f7760581b604082015260600190565b6020808252601c908201527f426f72696e674d6174683a2075696e74323038204f766572666c6f7700000000604082015260600190565b6020808252601c908201527f426f72696e674d6174683a206469766973696f6e206279207a65726f00000000604082015260600190565b60208082526026908201527f4f776e61626c653a206e6577206f776e657220697320746865207a65726f206160408201526564647265737360d01b606082015260800190565b6020808252600e908201526d043616e6e6f74207374616b6520360941b604082015260600190565b6020808252600e908201526d1bdd995c881b585e081cdc195b9960921b604082015260600190565b60208082526010908201526f1bdd995c881b585e081c185e5b595b9d60821b604082015260600190565b6020808252600d908201526c6f766572206d6178207261746560981b604082015260600190565b6020808252600c908201526b6e6f20657870206c6f636b7360a01b604082015260600190565b6020808252600f908201526e696e76616c6964206164647265737360881b604082015260600190565b60208082526018908201527f426f72696e674d6174683a20416464204f766572666c6f770000000000000000604082015260600190565b6020808252601c908201527f426f72696e674d6174683a2075696e74313132204f766572666c6f7700000000604082015260600190565b602080825260099082015268139bc81c995dd85c9960ba1b604082015260600190565b60208082526007908201526610b0b9b9b4b3b760c91b604082015260600190565b6020808252818101527f4f776e61626c653a2063616c6c6572206973206e6f7420746865206f776e6572604082015260600190565b6020808252601d908201527f43616e6e6f74207769746864726177207374616b696e6720746f6b656e000000604082015260600190565b6020808252600990820152686d696e2064656c617960b81b604082015260600190565b60208082526008908201526739b43aba3237bbb760c11b604082015260600190565b6020808252601d908201527f416464726573733a2063616c6c20746f206e6f6e2d636f6e7472616374000000604082015260600190565b6020808252600990820152686d696e2072616e676560b81b604082015260600190565b6020808252601b908201527f426f72696e674d6174683a2075696e743332204f766572666c6f770000000000604082015260600190565b6020808252602a908201527f5361666545524332303a204552433230206f7065726174696f6e20646964206e6040820152691bdd081cdd58d8d9595960b21b606082015260800190565b6020808252601c908201527f43616e6e6f742077697468647261772072657761726420746f6b656e00000000604082015260600190565b6020808252601f908201527f5265656e7472616e637947756172643a207265656e7472616e742063616c6c00604082015260600190565b6020808252600990820152686d61782072616e676560b81b604082015260600190565b60208082526036908201527f5361666545524332303a20617070726f76652066726f6d206e6f6e2d7a65726f60408201527520746f206e6f6e2d7a65726f20616c6c6f77616e636560501b606082015260800190565b60208082526018908201527f426f72696e674d6174683a204d756c204f766572666c6f770000000000000000604082015260600190565b6020808252601b908201527f426f72696e674d6174683a2075696e743430204f766572666c6f770000000000604082015260600190565b6001600160701b039290921682521515602082015260400190565b6001600160701b03938416815291909216602082015263ffffffff909116604082015260600190565b6001600160e01b0392909216825263ffffffff16602082015260400190565b90815260200190565b9283526001600160701b03918216602084015216604082015260600190565b6000608082018683526020868185015260408681860152606060808187015283875180865260a0880191508489019550865b81811015614b0557865180516001600160701b03908116855287820151168785015285015163ffffffff16858401529585019591830191600101614ac6565b50909b9a5050505050505050505050565b60ff91909116815260200190565b60005b83811015614b3f578181015183820152602001614b27565b838111156135275750506000910152565b6001600160a01b0381168114611e0757600080fd5b8015158114611e0757600080fdfea2646970667358221220dab00dfd58476120fe3641c2859cabebcd810bb24f179cd4d50d10369ac9068164736f6c634300060c0033",
  "linkReferences": {},
  "deployedLinkReferences": {}
}