{
  "_format": "hh-sol-artifact-1",
  "contractName": "MuuuLockerV2",
  "sourceName": "contracts/MuuuLockerV2.sol",
  "abi": [
    {
      "inputs": [],
      "stateMutability": "nonpayable",
      "type": "constructor"
    },
    {
      "anonymous": false,
      "inputs": [
        {
          "indexed": true,
          "internalType": "address",
          "name": "_user",
          "type": "address"
        },
        {
          "indexed": true,
          "internalType": "address",
          "name": "_kicked",
          "type": "address"
        },
        {
          "indexed": false,
          "internalType": "uint256",
          "name": "_reward",
          "type": "uint256"
        }
      ],
      "name": "KickReward",
      "type": "event"
    },
    {
      "anonymous": false,
      "inputs": [
        {
          "indexed": true,
          "internalType": "address",
          "name": "previousOwner",
          "type": "address"
        },
        {
          "indexed": true,
          "internalType": "address",
          "name": "newOwner",
          "type": "address"
        }
      ],
      "name": "OwnershipTransferred",
      "type": "event"
    },
    {
      "anonymous": false,
      "inputs": [
        {
          "indexed": false,
          "internalType": "address",
          "name": "_token",
          "type": "address"
        },
        {
          "indexed": false,
          "internalType": "uint256",
          "name": "_amount",
          "type": "uint256"
        }
      ],
      "name": "Recovered",
      "type": "event"
    },
    {
      "anonymous": false,
      "inputs": [
        {
          "indexed": true,
          "internalType": "address",
          "name": "_token",
          "type": "address"
        },
        {
          "indexed": false,
          "internalType": "uint256",
          "name": "_reward",
          "type": "uint256"
        }
      ],
      "name": "RewardAdded",
      "type": "event"
    },
    {
      "anonymous": false,
      "inputs": [
        {
          "indexed": true,
          "internalType": "address",
          "name": "_user",
          "type": "address"
        },
        {
          "indexed": true,
          "internalType": "address",
          "name": "_rewardsToken",
          "type": "address"
        },
        {
          "indexed": false,
          "internalType": "uint256",
          "name": "_reward",
          "type": "uint256"
        }
      ],
      "name": "RewardPaid",
      "type": "event"
    },
    {
      "anonymous": false,
      "inputs": [
        {
          "indexed": true,
          "internalType": "address",
          "name": "_user",
          "type": "address"
        },
        {
          "indexed": true,
          "internalType": "uint256",
          "name": "_epoch",
          "type": "uint256"
        },
        {
          "indexed": false,
          "internalType": "uint256",
          "name": "_paidAmount",
          "type": "uint256"
        },
        {
          "indexed": false,
          "internalType": "uint256",
          "name": "_lockedAmount",
          "type": "uint256"
        },
        {
          "indexed": false,
          "internalType": "uint256",
          "name": "_boostedAmount",
          "type": "uint256"
        }
      ],
      "name": "Staked",
      "type": "event"
    },
    {
      "anonymous": false,
      "inputs": [
        {
          "indexed": true,
          "internalType": "address",
          "name": "_user",
          "type": "address"
        },
        {
          "indexed": false,
          "internalType": "uint256",
          "name": "_amount",
          "type": "uint256"
        },
        {
          "indexed": false,
          "internalType": "bool",
          "name": "_relocked",
          "type": "bool"
        }
      ],
      "name": "Withdrawn",
      "type": "event"
    },
    {
      "inputs": [
        {
          "internalType": "address",
          "name": "_rewardsToken",
          "type": "address"
        },
        {
          "internalType": "address",
          "name": "_distributor",
          "type": "address"
        },
        {
          "internalType": "bool",
          "name": "_useBoost",
          "type": "bool"
        }
      ],
      "name": "addReward",
      "outputs": [],
      "stateMutability": "nonpayable",
      "type": "function"
    },
    {
      "inputs": [
        {
          "internalType": "address",
          "name": "_rewardsToken",
          "type": "address"
        },
        {
          "internalType": "address",
          "name": "_distributor",
          "type": "address"
        },
        {
          "internalType": "bool",
          "name": "_approved",
          "type": "bool"
        }
      ],
      "name": "approveRewardDistributor",
      "outputs": [],
      "stateMutability": "nonpayable",
      "type": "function"
    },
    {
      "inputs": [
        {
          "internalType": "uint256",
          "name": "_epoch",
          "type": "uint256"
        },
        {
          "internalType": "address",
          "name": "_user",
          "type": "address"
        }
      ],
      "name": "balanceAtEpochOf",
      "outputs": [
        {
          "internalType": "uint256",
          "name": "amount",
          "type": "uint256"
        }
      ],
      "stateMutability": "view",
      "type": "function"
    },
    {
      "inputs": [
        {
          "internalType": "address",
          "name": "_user",
          "type": "address"
        }
      ],
      "name": "balanceOf",
      "outputs": [
        {
          "internalType": "uint256",
          "name": "amount",
          "type": "uint256"
        }
      ],
      "stateMutability": "view",
      "type": "function"
    },
    {
      "inputs": [
        {
          "internalType": "address",
          "name": "",
          "type": "address"
        }
      ],
      "name": "balances",
      "outputs": [
        {
          "internalType": "uint112",
          "name": "locked",
          "type": "uint112"
        },
        {
          "internalType": "uint112",
          "name": "boosted",
          "type": "uint112"
        },
        {
          "internalType": "uint32",
          "name": "nextUnlockIndex",
          "type": "uint32"
        }
      ],
      "stateMutability": "view",
      "type": "function"
    },
    {
      "inputs": [],
      "name": "boostPayment",
      "outputs": [
        {
          "internalType": "address",
          "name": "",
          "type": "address"
        }
      ],
      "stateMutability": "view",
      "type": "function"
    },
    {
      "inputs": [],
      "name": "boostRate",
      "outputs": [
        {
          "internalType": "uint256",
          "name": "",
          "type": "uint256"
        }
      ],
      "stateMutability": "view",
      "type": "function"
    },
    {
      "inputs": [],
      "name": "boostedSupply",
      "outputs": [
        {
          "internalType": "uint256",
          "name": "",
          "type": "uint256"
        }
      ],
      "stateMutability": "view",
      "type": "function"
    },
    {
      "inputs": [],
      "name": "checkpointEpoch",
      "outputs": [],
      "stateMutability": "nonpayable",
      "type": "function"
    },
    {
      "inputs": [
        {
          "internalType": "address",
          "name": "_account",
          "type": "address"
        }
      ],
      "name": "claimableRewards",
      "outputs": [
        {
          "components": [
            {
              "internalType": "address",
              "name": "token",
              "type": "address"
            },
            {
              "internalType": "uint256",
              "name": "amount",
              "type": "uint256"
            }
          ],
          "internalType": "struct MuuuLockerV2.EarnedData[]",
          "name": "userRewards",
          "type": "tuple[]"
        }
      ],
      "stateMutability": "view",
      "type": "function"
    },
    {
      "inputs": [],
      "name": "decimals",
      "outputs": [
        {
          "internalType": "uint8",
          "name": "",
          "type": "uint8"
        }
      ],
      "stateMutability": "view",
      "type": "function"
    },
    {
      "inputs": [],
      "name": "denominator",
      "outputs": [
        {
          "internalType": "uint256",
          "name": "",
          "type": "uint256"
        }
      ],
      "stateMutability": "view",
      "type": "function"
    },
    {
      "inputs": [],
      "name": "epochCount",
      "outputs": [
        {
          "internalType": "uint256",
          "name": "",
          "type": "uint256"
        }
      ],
      "stateMutability": "view",
      "type": "function"
    },
    {
      "inputs": [
        {
          "internalType": "uint256",
          "name": "",
          "type": "uint256"
        }
      ],
      "name": "epochs",
      "outputs": [
        {
          "internalType": "uint224",
          "name": "supply",
          "type": "uint224"
        },
        {
          "internalType": "uint32",
          "name": "date",
          "type": "uint32"
        }
      ],
      "stateMutability": "view",
      "type": "function"
    },
    {
      "inputs": [
        {
          "internalType": "uint256",
          "name": "_time",
          "type": "uint256"
        }
      ],
      "name": "findEpochId",
      "outputs": [
        {
          "internalType": "uint256",
          "name": "epoch",
          "type": "uint256"
        }
      ],
      "stateMutability": "view",
      "type": "function"
    },
    {
      "inputs": [
        {
          "internalType": "address",
          "name": "_account",
          "type": "address"
        },
        {
          "internalType": "bool",
          "name": "_stake",
          "type": "bool"
        }
      ],
      "name": "getReward",
      "outputs": [],
      "stateMutability": "nonpayable",
      "type": "function"
    },
    {
      "inputs": [
        {
          "internalType": "address",
          "name": "_account",
          "type": "address"
        }
      ],
      "name": "getReward",
      "outputs": [],
      "stateMutability": "nonpayable",
      "type": "function"
    },
    {
      "inputs": [
        {
          "internalType": "address",
          "name": "_rewardsToken",
          "type": "address"
        }
      ],
      "name": "getRewardForDuration",
      "outputs": [
        {
          "internalType": "uint256",
          "name": "",
          "type": "uint256"
        }
      ],
      "stateMutability": "view",
      "type": "function"
    },
    {
      "inputs": [],
      "name": "isShutdown",
      "outputs": [
        {
          "internalType": "bool",
          "name": "",
          "type": "bool"
        }
      ],
      "stateMutability": "view",
      "type": "function"
    },
    {
      "inputs": [
        {
          "internalType": "address",
          "name": "_account",
          "type": "address"
        }
      ],
      "name": "kickExpiredLocks",
      "outputs": [],
      "stateMutability": "nonpayable",
      "type": "function"
    },
    {
      "inputs": [],
      "name": "kickRewardEpochDelay",
      "outputs": [
        {
          "internalType": "uint256",
          "name": "",
          "type": "uint256"
        }
      ],
      "stateMutability": "view",
      "type": "function"
    },
    {
      "inputs": [],
      "name": "kickRewardPerEpoch",
      "outputs": [
        {
          "internalType": "uint256",
          "name": "",
          "type": "uint256"
        }
      ],
      "stateMutability": "view",
      "type": "function"
    },
    {
      "inputs": [
        {
          "internalType": "address",
          "name": "_rewardsToken",
          "type": "address"
        }
      ],
      "name": "lastTimeRewardApplicable",
      "outputs": [
        {
          "internalType": "uint256",
          "name": "",
          "type": "uint256"
        }
      ],
      "stateMutability": "view",
      "type": "function"
    },
    {
      "inputs": [
        {
          "internalType": "address",
          "name": "_account",
          "type": "address"
        },
        {
          "internalType": "uint256",
          "name": "_amount",
          "type": "uint256"
        },
        {
          "internalType": "uint256",
          "name": "_spendRatio",
          "type": "uint256"
        }
      ],
      "name": "lock",
      "outputs": [],
      "stateMutability": "nonpayable",
      "type": "function"
    },
    {
      "inputs": [],
      "name": "lockDuration",
      "outputs": [
        {
          "internalType": "uint256",
          "name": "",
          "type": "uint256"
        }
      ],
      "stateMutability": "view",
      "type": "function"
    },
    {
      "inputs": [
        {
          "internalType": "address",
          "name": "_user",
          "type": "address"
        }
      ],
      "name": "lockedBalanceOf",
      "outputs": [
        {
          "internalType": "uint256",
          "name": "amount",
          "type": "uint256"
        }
      ],
      "stateMutability": "view",
      "type": "function"
    },
    {
      "inputs": [
        {
          "internalType": "address",
          "name": "_user",
          "type": "address"
        }
      ],
      "name": "lockedBalances",
      "outputs": [
        {
          "internalType": "uint256",
          "name": "total",
          "type": "uint256"
        },
        {
          "internalType": "uint256",
          "name": "unlockable",
          "type": "uint256"
        },
        {
          "internalType": "uint256",
          "name": "locked",
          "type": "uint256"
        },
        {
          "components": [
            {
              "internalType": "uint112",
              "name": "amount",
              "type": "uint112"
            },
            {
              "internalType": "uint112",
              "name": "boosted",
              "type": "uint112"
            },
            {
              "internalType": "uint32",
              "name": "unlockTime",
              "type": "uint32"
            }
          ],
          "internalType": "struct MuuuLockerV2.LockedBalance[]",
          "name": "lockData",
          "type": "tuple[]"
        }
      ],
      "stateMutability": "view",
      "type": "function"
    },
    {
      "inputs": [],
      "name": "lockedSupply",
      "outputs": [
        {
          "internalType": "uint256",
          "name": "",
          "type": "uint256"
        }
      ],
      "stateMutability": "view",
      "type": "function"
    },
    {
      "inputs": [],
      "name": "maximumBoostPayment",
      "outputs": [
        {
          "internalType": "uint256",
          "name": "",
          "type": "uint256"
        }
      ],
      "stateMutability": "view",
      "type": "function"
    },
    {
      "inputs": [],
      "name": "maximumStake",
      "outputs": [
        {
          "internalType": "uint256",
          "name": "",
          "type": "uint256"
        }
      ],
      "stateMutability": "view",
      "type": "function"
    },
    {
      "inputs": [],
      "name": "minimumStake",
      "outputs": [
        {
          "internalType": "uint256",
          "name": "",
          "type": "uint256"
        }
      ],
      "stateMutability": "view",
      "type": "function"
    },
    {
      "inputs": [],
      "name": "muKgl",
      "outputs": [
        {
          "internalType": "address",
          "name": "",
          "type": "address"
        }
      ],
      "stateMutability": "view",
      "type": "function"
    },
    {
      "inputs": [],
      "name": "mukglStaking",
      "outputs": [
        {
          "internalType": "address",
          "name": "",
          "type": "address"
        }
      ],
      "stateMutability": "view",
      "type": "function"
    },
    {
      "inputs": [],
      "name": "name",
      "outputs": [
        {
          "internalType": "string",
          "name": "",
          "type": "string"
        }
      ],
      "stateMutability": "view",
      "type": "function"
    },
    {
      "inputs": [],
      "name": "nextBoostRate",
      "outputs": [
        {
          "internalType": "uint256",
          "name": "",
          "type": "uint256"
        }
      ],
      "stateMutability": "view",
      "type": "function"
    },
    {
      "inputs": [],
      "name": "nextMaximumBoostPayment",
      "outputs": [
        {
          "internalType": "uint256",
          "name": "",
          "type": "uint256"
        }
      ],
      "stateMutability": "view",
      "type": "function"
    },
    {
      "inputs": [
        {
          "internalType": "address",
          "name": "_rewardsToken",
          "type": "address"
        },
        {
          "internalType": "uint256",
          "name": "_reward",
          "type": "uint256"
        }
      ],
      "name": "notifyRewardAmount",
      "outputs": [],
      "stateMutability": "nonpayable",
      "type": "function"
    },
    {
      "inputs": [],
      "name": "owner",
      "outputs": [
        {
          "internalType": "address",
          "name": "",
          "type": "address"
        }
      ],
      "stateMutability": "view",
      "type": "function"
    },
    {
      "inputs": [
        {
          "internalType": "uint256",
          "name": "_epoch",
          "type": "uint256"
        },
        {
          "internalType": "address",
          "name": "_user",
          "type": "address"
        }
      ],
      "name": "pendingLockAtEpochOf",
      "outputs": [
        {
          "internalType": "uint256",
          "name": "amount",
          "type": "uint256"
        }
      ],
      "stateMutability": "view",
      "type": "function"
    },
    {
      "inputs": [
        {
          "internalType": "address",
          "name": "_user",
          "type": "address"
        }
      ],
      "name": "pendingLockOf",
      "outputs": [
        {
          "internalType": "uint256",
          "name": "amount",
          "type": "uint256"
        }
      ],
      "stateMutability": "view",
      "type": "function"
    },
    {
      "inputs": [
        {
          "internalType": "bool",
          "name": "_relock",
          "type": "bool"
        }
      ],
      "name": "processExpiredLocks",
      "outputs": [],
      "stateMutability": "nonpayable",
      "type": "function"
    },
    {
      "inputs": [
        {
          "internalType": "address",
          "name": "_tokenAddress",
          "type": "address"
        },
        {
          "internalType": "uint256",
          "name": "_tokenAmount",
          "type": "uint256"
        }
      ],
      "name": "recoverERC20",
      "outputs": [],
      "stateMutability": "nonpayable",
      "type": "function"
    },
    {
      "inputs": [],
      "name": "renounceOwnership",
      "outputs": [],
      "stateMutability": "nonpayable",
      "type": "function"
    },
    {
      "inputs": [
        {
          "internalType": "address",
          "name": "",
          "type": "address"
        }
      ],
      "name": "rewardData",
      "outputs": [
        {
          "internalType": "bool",
          "name": "useBoost",
          "type": "bool"
        },
        {
          "internalType": "uint40",
          "name": "periodFinish",
          "type": "uint40"
        },
        {
          "internalType": "uint208",
          "name": "rewardRate",
          "type": "uint208"
        },
        {
          "internalType": "uint40",
          "name": "lastUpdateTime",
          "type": "uint40"
        },
        {
          "internalType": "uint208",
          "name": "rewardPerTokenStored",
          "type": "uint208"
        }
      ],
      "stateMutability": "view",
      "type": "function"
    },
    {
      "inputs": [
        {
          "internalType": "address",
          "name": "",
          "type": "address"
        },
        {
          "internalType": "address",
          "name": "",
          "type": "address"
        }
      ],
      "name": "rewardDistributors",
      "outputs": [
        {
          "internalType": "bool",
          "name": "",
          "type": "bool"
        }
      ],
      "stateMutability": "view",
      "type": "function"
    },
    {
      "inputs": [
        {
          "internalType": "address",
          "name": "_rewardsToken",
          "type": "address"
        }
      ],
      "name": "rewardPerToken",
      "outputs": [
        {
          "internalType": "uint256",
          "name": "",
          "type": "uint256"
        }
      ],
      "stateMutability": "view",
      "type": "function"
    },
    {
      "inputs": [
        {
          "internalType": "uint256",
          "name": "",
          "type": "uint256"
        }
      ],
      "name": "rewardTokens",
      "outputs": [
        {
          "internalType": "address",
          "name": "",
          "type": "address"
        }
      ],
      "stateMutability": "view",
      "type": "function"
    },
    {
      "inputs": [
        {
          "internalType": "address",
          "name": "_user",
          "type": "address"
        }
      ],
      "name": "rewardWeightOf",
      "outputs": [
        {
          "internalType": "uint256",
          "name": "amount",
          "type": "uint256"
        }
      ],
      "stateMutability": "view",
      "type": "function"
    },
    {
      "inputs": [
        {
          "internalType": "address",
          "name": "",
          "type": "address"
        },
        {
          "internalType": "address",
          "name": "",
          "type": "address"
        }
      ],
      "name": "rewards",
      "outputs": [
        {
          "internalType": "uint256",
          "name": "",
          "type": "uint256"
        }
      ],
      "stateMutability": "view",
      "type": "function"
    },
    {
      "inputs": [],
      "name": "rewardsDuration",
      "outputs": [
        {
          "internalType": "uint256",
          "name": "",
          "type": "uint256"
        }
      ],
      "stateMutability": "view",
      "type": "function"
    },
    {
      "inputs": [],
      "name": "setApprovals",
      "outputs": [],
      "stateMutability": "nonpayable",
      "type": "function"
    },
    {
      "inputs": [
        {
          "internalType": "uint256",
          "name": "_max",
          "type": "uint256"
        },
        {
          "internalType": "uint256",
          "name": "_rate",
          "type": "uint256"
        },
        {
          "internalType": "address",
          "name": "_receivingAddress",
          "type": "address"
        }
      ],
      "name": "setBoost",
      "outputs": [],
      "stateMutability": "nonpayable",
      "type": "function"
    },
    {
      "inputs": [
        {
          "internalType": "uint256",
          "name": "_rate",
          "type": "uint256"
        },
        {
          "internalType": "uint256",
          "name": "_delay",
          "type": "uint256"
        }
      ],
      "name": "setKickIncentive",
      "outputs": [],
      "stateMutability": "nonpayable",
      "type": "function"
    },
    {
      "inputs": [
        {
          "internalType": "uint256",
          "name": "_minimum",
          "type": "uint256"
        },
        {
          "internalType": "uint256",
          "name": "_maximum",
          "type": "uint256"
        }
      ],
      "name": "setStakeLimits",
      "outputs": [],
      "stateMutability": "nonpayable",
      "type": "function"
    },
    {
      "inputs": [
        {
          "internalType": "address",
          "name": "_staking",
          "type": "address"
        }
      ],
      "name": "setStakingContract",
      "outputs": [],
      "stateMutability": "nonpayable",
      "type": "function"
    },
    {
      "inputs": [],
      "name": "shutdown",
      "outputs": [],
      "stateMutability": "nonpayable",
      "type": "function"
    },
    {
      "inputs": [],
      "name": "stakeOffsetOnLock",
      "outputs": [
        {
          "internalType": "uint256",
          "name": "",
          "type": "uint256"
        }
      ],
      "stateMutability": "view",
      "type": "function"
    },
    {
      "inputs": [],
      "name": "stakingProxy",
      "outputs": [
        {
          "internalType": "address",
          "name": "",
          "type": "address"
        }
      ],
      "stateMutability": "view",
      "type": "function"
    },
    {
      "inputs": [],
      "name": "stakingToken",
      "outputs": [
        {
          "internalType": "contract IERC20",
          "name": "",
          "type": "address"
        }
      ],
      "stateMutability": "view",
      "type": "function"
    },
    {
      "inputs": [],
      "name": "symbol",
      "outputs": [
        {
          "internalType": "string",
          "name": "",
          "type": "string"
        }
      ],
      "stateMutability": "view",
      "type": "function"
    },
    {
      "inputs": [],
      "name": "totalSupply",
      "outputs": [
        {
          "internalType": "uint256",
          "name": "supply",
          "type": "uint256"
        }
      ],
      "stateMutability": "view",
      "type": "function"
    },
    {
      "inputs": [
        {
          "internalType": "uint256",
          "name": "_epoch",
          "type": "uint256"
        }
      ],
      "name": "totalSupplyAtEpoch",
      "outputs": [
        {
          "internalType": "uint256",
          "name": "supply",
          "type": "uint256"
        }
      ],
      "stateMutability": "view",
      "type": "function"
    },
    {
      "inputs": [
        {
          "internalType": "address",
          "name": "newOwner",
          "type": "address"
        }
      ],
      "name": "transferOwnership",
      "outputs": [],
      "stateMutability": "nonpayable",
      "type": "function"
    },
    {
      "inputs": [
        {
          "internalType": "address",
          "name": "",
          "type": "address"
        },
        {
          "internalType": "uint256",
          "name": "",
          "type": "uint256"
        }
      ],
      "name": "userLocks",
      "outputs": [
        {
          "internalType": "uint112",
          "name": "amount",
          "type": "uint112"
        },
        {
          "internalType": "uint112",
          "name": "boosted",
          "type": "uint112"
        },
        {
          "internalType": "uint32",
          "name": "unlockTime",
          "type": "uint32"
        }
      ],
      "stateMutability": "view",
      "type": "function"
    },
    {
      "inputs": [
        {
          "internalType": "address",
          "name": "",
          "type": "address"
        },
        {
          "internalType": "address",
          "name": "",
          "type": "address"
        }
      ],
      "name": "userRewardPerTokenPaid",
      "outputs": [
        {
          "internalType": "uint256",
          "name": "",
          "type": "uint256"
        }
      ],
      "stateMutability": "view",
      "type": "function"
    },
    {
      "inputs": [],
      "name": "version",
      "outputs": [
        {
          "internalType": "uint256",
          "name": "",
          "type": "uint256"
        }
      ],
      "stateMutability": "view",
      "type": "function"
    },
    {
      "inputs": [
        {
          "internalType": "address",
          "name": "_withdrawTo",
          "type": "address"
        }
      ],
      "name": "withdrawExpiredLocksTo",
      "outputs": [],
      "stateMutability": "nonpayable",
      "type": "function"
    }
  ],
  "bytecode": "0x60a0604052600c80546001600160a01b031916731389388d01708118b497f59521f6943be2541bb71790556000600d819055612710600e819055600f9190915560108190556011819055601255606460145560046015556016805460ff191690553480156200006d57600080fd5b50600160009081556200007f62000205565b600180546001600160a01b0319166001600160a01b038316908117909155604051919250906000907f8be0079c531659141344cd1fd0a4f28419497f9722a3daafe3b4186f6b6457e0908290a3506040805180820190915260168082527f566f7465204c6f636b6564204d75757520546f6b656e000000000000000000006020909201918252620001139160179162000286565b5060408051808201909152600680825265766c4d55555560d01b6020909201918252620001439160189162000286565b50600960f91b60805260006200018262093a806200016e428262000209602090811b6200276c17901c565b6200024a60201b6200279e1790919060201c565b60408051808201909152600080825263ffffffff9283166020830190815260098054600181018255925291517f6e1540171b6c0c960b71a7020d9f60077f6af931a8bbf590da0223dacf75c7af90910180549251909316600160e01b026001600160e01b039182166001600160e01b031990931692909217161790555062000390565b3390565b6000808211620002365760405162461bcd60e51b81526004016200022d9062000322565b60405180910390fd5b8183816200024057fe5b0490505b92915050565b600081158062000267575050808202828282816200026457fe5b04145b620002445760405162461bcd60e51b81526004016200022d9062000359565b828054600181600116156101000203166002900490600052602060002090601f016020900481019282601f10620002c957805160ff1916838001178555620002f9565b82800160010185558215620002f9579182015b82811115620002f9578251825591602001919060010190620002dc565b50620003079291506200030b565b5090565b5b808211156200030757600081556001016200030c565b6020808252601c908201527f426f72696e674d6174683a206469766973696f6e206279207a65726f00000000604082015260600190565b60208082526018908201527f426f72696e674d6174683a204d756c204f766572666c6f770000000000000000604082015260600190565b60805160f81c614c92620003ae60003980610d6b5250614c926000f3fe608060405234801561001057600080fd5b50600436106103f15760003560e01c80638757b15b11610215578063bf86d69011610125578063dc01f60d116100b8578063ec5ffac211610087578063ec5ffac2146107e8578063f1229777146107f0578063f2fde38b14610803578063f826159714610816578063fc0e74d114610829576103f1565b8063dc01f60d1461079a578063e2ab691d146107ba578063e432488d146107cd578063e70b9e27146107d5576103f1565b8063ca5c7b91116100f4578063ca5c7b9114610759578063cb1b9a7414610761578063d36f12fb14610774578063d3c45c7614610787576103f1565b8063bf86d69014610715578063c00007b01461071d578063c1009f4b14610730578063c6b61e4c14610738576103f1565b80639dd373b9116101a8578063b187bc2211610177578063b187bc22146106d7578063b5c6b453146106df578063b5ed7a66146106e7578063b66503cf146106ef578063bcd1101414610702576103f1565b80639dd373b914610696578063a81653c9146106a9578063a98e05bb146106bc578063aa33fedb146106c4576103f1565b80638da5cb5b116101e45780638da5cb5b1461067657806395d89b411461067e57806396ce0795146106865780639bdc74671461068e576103f1565b80638757b15b14610635578063887c7dc51461063d5780638980f11f146106505780638c9bd1b514610663576103f1565b806354fd4d50116103105780637050ccd9116102a357806372f702f31161027257806372f702f31461060257806375aadf611461060a5780637bb7bed1146106125780637bd48c7c14610625578063829965cc1461062d576103f1565b80637050ccd9146105c157806370a08231146105d457806370b36d79146105e7578063715018a6146105fa576103f1565b8063648bb8ad116102df578063648bb8ad146105805780636724c9101461058857806368edd2bb1461059b5780637035ab98146105ae576103f1565b806354fd4d501461053f5780635935573614610547578063638634ee1461055a57806363f1c8e21461056d576103f1565b806327e235e311610388578063313ce56711610357578063313ce567146104de578063386a9525146104f357806339fc9713146104fb57806348e5d9f81461051b576103f1565b806327e235e31461048c5780632e9564e4146104ae5780632fe87108146104b6578063312ff839146104c9576103f1565b806318160ddd116103c457806318160ddd146104615780631c6073951461046957806322f80d111461047c578063236dcb6314610484576103f1565b806304554443146103f65780630483a7f61461041457806306fdde03146104375780630c73373e1461044c575b600080fd5b6103fe610831565b60405161040b9190614b55565b60405180910390f35b610427610422366004614233565b610838565b60405161040b9493929190614b7d565b61043f6109fe565b60405161040b9190614559565b610454610a94565b60405161040b9190614455565b6103fe610aac565b6103fe6104773660046143c8565b610b82565b610454610c8b565b610454610c9a565b61049f61049a366004614233565b610cb2565b60405161040b93929190614b0d565b6103fe610ce8565b6103fe6104c4366004614233565b610cee565b6104dc6104d7366004614360565b610d1d565b005b6104e6610d69565b60405161040b9190614bff565b6103fe610d8d565b61050e61050936600461424e565b610d94565b60405161040b9190614518565b61052e610529366004614233565b610db4565b60405161040b959493929190614523565b6103fe610e00565b6103fe610555366004614233565b610e05565b6103fe610568366004614233565b610e29565b6104dc61057b3660046143eb565b610e57565b6103fe610ee4565b6104dc610596366004614282565b610eea565b6103fe6105a9366004614233565b610f8f565b6103fe6105bc36600461424e565b61102a565b6104dc6105cf3660046142cc565b611047565b6103fe6105e2366004614233565b6113b4565b6103fe6105f5366004614398565b6114d8565b6104dc6115af565b610454611638565b6103fe611650565b610454610620366004614398565b611656565b6103fe61167d565b6103fe611683565b6104dc611689565b6104dc61064b366004614233565b61174f565b6104dc61065e366004614303565b6117a0565b6104dc6106713660046143eb565b6118b5565b610454611970565b61043f61197f565b6103fe6119e0565b6103fe6119e6565b6104dc6106a4366004614233565b6119ec565b6104dc6106b736600461440c565b611a76565b610454611b47565b61049f6106d2366004614303565b611b56565b6103fe611ba2565b6103fe611ba8565b6103fe611bae565b6104dc6106fd366004614303565b611bb4565b6103fe610710366004614233565b611e55565b61050e611e8b565b6104dc61072b366004614233565b611e94565b6104dc611ea2565b61074b610746366004614398565b611eaa565b60405161040b929190614b36565b6103fe611edf565b6103fe61076f3660046143c8565b611ee5565b6104dc610782366004614233565b611fc7565b6104dc610795366004614282565b612002565b6107ad6107a8366004614233565b612151565b60405161040b91906144c0565b6104dc6107c836600461432d565b61228a565b6103fe61248d565b6103fe6107e336600461424e565b612493565b6103fe6124b0565b6103fe6107fe366004614233565b6124b6565b6104dc610811366004614233565b6124c1565b6103fe610824366004614398565b612582565b6104dc61262c565b6293a80081565b6001600160a01b0381166000908152600b60209081526040808320600a9092528220805483928392606092600160e01b900463ffffffff1684815b84548110156109e6574285828154811061088957fe5b600091825260209091200154600160e01b900463ffffffff1611156109b0578161090657845481900367ffffffffffffffff811180156108c857600080fd5b5060405190808252806020026020018201604052801561090257816020015b6108ef6141e5565b8152602001906001900390816108e75790505b5095505b84818154811061091257fe5b60009182526020918290206040805160608101825291909201546001600160701b038082168352600160701b8204169382019390935263ffffffff600160e01b9093049290921690820152865187908490811061096b57fe5b602002602001018190525081806001019250506109a985828154811061098d57fe5b60009182526020909120015488906001600160701b03166127d5565b96506109de565b6109db8582815481106109bf57fe5b60009182526020909120015489906001600160701b03166127d5565b97505b600101610873565b505090546001600160701b0316955050509193509193565b60178054604080516020601f6002600019610100600188161502019095169490940493840181900481028201810190925282815260609390929091830182828015610a8a5780601f10610a5f57610100808354040283529160200191610a8a565b820191906000526020600020905b815481529060010190602001808311610a6d57829003601f168201915b5050505050905090565b733fe65692bfcd0e6cf84cb1e7d24108e434a7587e81565b600080610ac662093a80610ac0428261276c565b9061279e565b90506000610ad7826293a8006127f8565b6009805491925083906000198301838110610aee57fe5b600091825260209091200154600160e01b900463ffffffff161115610b1257600019015b60001981015b6001810115610b7b57600060098281548110610b3057fe5b60009182526020909120018054909150600160e01b900463ffffffff168410610b595750610b7b565b8054610b6f9087906001600160e01b03166127d5565b95505060001901610b18565b5050505090565b6001600160a01b0381166000908152600b602052604081206009805483919086908110610bab57fe5b600091825260208220015463ffffffff600160e01b90910481169250610bd89083906293a800906127f816565b8354909150600019015b6001810115610c80576000610c2662093a80601002868481548110610c0357fe5b60009182526020909120015463ffffffff600160e01b909104811691906127f816565b9050838111610c765782811115610c7057610c69858381548110610c4657fe5b6000918252602090912001548790600160701b90046001600160701b03166127d5565b9550610c76565b50610c80565b5060001901610be2565b505050505b92915050565b6013546001600160a01b031681565b7362b9c7356a2dc64a1969e19c23e4f579f9810aa781565b600a602052600090815260409020546001600160701b0380821691600160701b810490911690600160e01b900463ffffffff1683565b600e5481565b6001600160a01b0381166000908152600a6020526040902054600160701b90046001600160701b03165b919050565b60026000541415610d495760405162461bcd60e51b8152600401610d40906149d4565b60405180910390fd5b6002600081905550610d61338260003333600061281b565b506001600055565b7f000000000000000000000000000000000000000000000000000000000000000090565b62093a8081565b600460209081526000928352604080842090915290825290205460ff1681565b6003602052600090815260409020805460019091015460ff82169164ffffffffff61010082048116926001600160d01b03600160301b90930483169291811691600160281b9091041685565b600290565b6001600160a01b03166000908152600a60205260409020546001600160701b031690565b6001600160a01b038116600090815260036020526040812054610c8590610100900464ffffffffff16612eb4565b610e5f612ec0565b6001600160a01b0316610e70611970565b6001600160a01b031614610e965760405162461bcd60e51b8152600401610d4090614811565b6101f4821115610eb85760405162461bcd60e51b8152600401610d40906146e9565b6002811015610ed95760405162461bcd60e51b8152600401610d409061487d565b601491909155601555565b6101f481565b610ef2612ec0565b6001600160a01b0316610f03611970565b6001600160a01b031614610f295760405162461bcd60e51b8152600401610d4090614811565b6001600160a01b03831660009081526003602052604090206001015464ffffffffff16610f5557600080fd5b6001600160a01b03928316600090815260046020908152604080832094909516825292909252919020805460ff1916911515919091179055565b6001600160a01b0381166000908152600b60205260408120805482610fbb62093a80610ac0428261276c565b9050600082118015610fe4575080610fe262093a80601002856001860381548110610c0357fe5b115b1561101f57826001830381548110610ff857fe5b600091825260209091200154600160701b90046001600160701b03169350610d1892505050565b506000949350505050565b600560209081526000928352604080842090915290825290205481565b6002600054141561106a5760405162461bcd60e51b8152600401610d40906149d4565b600260009081556001600160a01b0383168152600a6020526040812080548492600160701b9091046001600160701b0316905b600254811015611229576000600282815481106110b657fe5b6000918252602090912001546001600160a01b031690506110de6110d982612ec4565b612fcd565b6001600160a01b03821660009081526003602052604090206001810180546001600160d01b0393909316600160281b02600160281b600160f81b031990931692909217909155546111449061113f9064ffffffffff61010090910416612eb4565b612ffa565b6001600160a01b038281166000908152600360205260409020600101805464ffffffffff191664ffffffffff9390931692909217909155851615611220576001600160a01b0381166000908152600360205260409020546111c1908690839060ff166111ba5786546001600160701b03166111bc565b855b613021565b6001600160a01b0386811660008181526006602090815260408083209487168084529482528083209590955560038152848220600101549282526005815284822093825292909252919020600160281b9091046001600160d01b031690555b5060010161109d565b50505060005b6002548110156113a95760006002828154811061124857fe5b60009182526020808320909101546001600160a01b03888116845260068352604080852091909216808552925290912054909150801561139f576001600160a01b038087166000908152600660209081526040808320938616808452939091528120557362b9c7356a2dc64a1969e19c23e4f579f9810aa71480156112ca5750845b1561133f576040516305dc812160e31b8152733fe65692bfcd0e6cf84cb1e7d24108e434a7587e90632ee409089061130890899085906004016144a7565b600060405180830381600087803b15801561132257600080fd5b505af1158015611336573d6000803e3d6000fd5b50505050611353565b6113536001600160a01b0383168783613099565b816001600160a01b0316866001600160a01b03167f540798df468d7b23d11f156fdb954cb19ad414d150722a7b6d55ba369dea792e836040516113969190614b55565b60405180910390a35b505060010161122f565b505060016000555050565b6001600160a01b0381166000908152600b60209081526040808320600a90925290912080548254600160701b82046001600160701b0316939291600160e01b900463ffffffff1690815b81811015611477574285828154811061141357fe5b600091825260209091200154600160e01b900463ffffffff161161146a5761146385828154811061144057fe5b6000918252602090912001548790600160701b90046001600160701b03166127f8565b955061146f565b611477565b6001016113fe565b50600061148b62093a80610ac0428261276c565b90506000821180156114b45750806114b262093a80601002876001860381548110610c0357fe5b115b156114ce576114cb85600184038154811061144057fe5b95505b5050505050919050565b60008061151962093a80610ac062093a80600987815481106114f657fe5b60009182526020909120015463ffffffff600160e01b9091048116919061276c16565b9050600061152a826293a8006127f8565b9050835b60018101156115a75760006009828154811061154657fe5b60009182526020909120018054909150600160e01b900463ffffffff16831061156f57506115a7565b61159b6009838154811061157f57fe5b60009182526020909120015486906001600160e01b03166127d5565b9450506000190161152e565b505050919050565b6115b7612ec0565b6001600160a01b03166115c8611970565b6001600160a01b0316146115ee5760405162461bcd60e51b8152600401610d4090614811565b6001546040516000916001600160a01b0316907f8be0079c531659141344cd1fd0a4f28419497f9722a3daafe3b4186f6b6457e0908390a3600180546001600160a01b0319169055565b734e3fbd56cd56c3e72c1403e103b45db9da5b9d2b81565b60085481565b6002818154811061166357fe5b6000918252602090912001546001600160a01b0316905081565b600f5481565b60095490565b6116bd7362b9c7356a2dc64a1969e19c23e4f579f9810aa7733fe65692bfcd0e6cf84cb1e7d24108e434a7587e60006130ef565b6116f27362b9c7356a2dc64a1969e19c23e4f579f9810aa7733fe65692bfcd0e6cf84cb1e7d24108e434a7587e6000196130ef565b60135461171f90734e3fbd56cd56c3e72c1403e103b45db9da5b9d2b906001600160a01b031660006130ef565b60135461174d90734e3fbd56cd56c3e72c1403e103b45db9da5b9d2b906001600160a01b03166000196130ef565b565b600260005414156117725760405162461bcd60e51b8152600401610d40906149d4565b6002600081905550610d6181600080843361179b60155462093a8061279e90919063ffffffff16565b61281b565b6117a8612ec0565b6001600160a01b03166117b9611970565b6001600160a01b0316146117df5760405162461bcd60e51b8152600401610d4090614811565b6001600160a01b038216734e3fbd56cd56c3e72c1403e103b45db9da5b9d2b141561181c5760405162461bcd60e51b8152600401610d4090614846565b6001600160a01b03821660009081526003602052604090206001015464ffffffffff161561185c5760405162461bcd60e51b8152600401610d409061499d565b611878611867611970565b6001600160a01b0384169083613099565b7f8c1256b8896378cd5044f80c202f9772b9d77dc85c8a6eb51967210b09bfaa2882826040516118a99291906144a7565b60405180910390a15050565b6118bd612ec0565b6001600160a01b03166118ce611970565b6001600160a01b0316146118f45760405162461bcd60e51b8152600401610d4090614811565b6127108211156119165760405162461bcd60e51b8152600401610d40906148f9565b6127108111156119385760405162461bcd60e51b8152600401610d4090614a0b565b808211156119585760405162461bcd60e51b8152600401610d40906148f9565b6011829055601281905561196c60006131b2565b5050565b6001546001600160a01b031690565b60188054604080516020601f6002600019610100600188161502019095169490940493840181900481028201810190925282815260609390929091830182828015610a8a5780601f10610a5f57610100808354040283529160200191610a8a565b61271081565b60145481565b6119f4612ec0565b6001600160a01b0316611a05611970565b6001600160a01b031614611a2b5760405162461bcd60e51b8152600401610d4090614811565b6013546001600160a01b031615611a545760405162461bcd60e51b8152600401610d40906147f0565b601380546001600160a01b0319166001600160a01b0392909216919091179055565b611a7e612ec0565b6001600160a01b0316611a8f611970565b6001600160a01b031614611ab55760405162461bcd60e51b8152600401610d4090614811565b6105dc8310611ad65760405162461bcd60e51b8152600401610d40906146bf565b6175308210611af75760405162461bcd60e51b8152600401610d40906146e9565b6001600160a01b038116611b1d5760405162461bcd60e51b8152600401610d4090614736565b600f92909255601055600c80546001600160a01b0319166001600160a01b03909216919091179055565b600c546001600160a01b031681565b600b6020528160005260406000208181548110611b6f57fe5b6000918252602090912001546001600160701b038082169350600160701b8204169150600160e01b900463ffffffff1683565b600d5481565b60125481565b60105481565b6000808052600a6020527f13da86008ba1c6922daee3e07db95305ef49ebced9f5467a0b8613fcc6b343e38054600160701b90046001600160701b0316825b600254811015611d6e57600060028281548110611c0c57fe5b6000918252602090912001546001600160a01b03169050611c2f6110d982612ec4565b6001600160a01b03821660009081526003602052604090206001810180546001600160d01b0393909316600160281b02600160281b600160f81b03199093169290921790915554611c909061113f9064ffffffffff61010090910416612eb4565b6001600160a01b038281166000908152600360205260409020600101805464ffffffffff191664ffffffffff9390931692909217909155851615611d65576001600160a01b038116600090815260036020526040902054611d06908690839060ff166111ba5786546001600160701b03166111bc565b6001600160a01b0386811660008181526006602090815260408083209487168084529482528083209590955560038152848220600101549282526005815284822093825292909252919020600160281b9091046001600160d01b031690555b50600101611bf3565b5050506001600160a01b038316600090815260046020908152604080832033845290915290205460ff16611da157600080fd5b60008211611dc15760405162461bcd60e51b8152600401610d40906147cd565b611dcb838361349c565b611de06001600160a01b0384163330856135cf565b826001600160a01b03167fac24935fd910bc682b5ccb1a07b718cadf8cf2f6d1404c4f3ddc3662dae40e2983604051611e199190614b55565b60405180910390a26001600160a01b0383167362b9c7356a2dc64a1969e19c23e4f579f9810aa71415611e5057611e5060006131b2565b505050565b6001600160a01b038116600090815260036020526040812054610c8590600160301b90046001600160d01b031662093a8061279e565b60165460ff1681565b611e9f816000611047565b50565b61174d6135f6565b60098181548110611eb757fe5b6000918252602090912001546001600160e01b0381169150600160e01b900463ffffffff1682565b60075481565b6001600160a01b0381166000908152600b60205260408120600980548391611f3a9162093a80919088908110611f1757fe5b60009182526020909120015463ffffffff600160e01b909104811691906127d516565b8254909150600019015b6001810115611fbb576000611f6562093a80601002858481548110610c0357fe5b905082811415611fa357838281548110611f7b57fe5b600091825260209091200154600160701b90046001600160701b03169450610c859350505050565b82811015611fb15750611fbb565b5060001901611f44565b50600095945050505050565b60026000541415611fea5760405162461bcd60e51b8152600401610d40906149d4565b6002600081905550610d61336000808433600061281b565b61200a612ec0565b6001600160a01b031661201b611970565b6001600160a01b0316146120415760405162461bcd60e51b8152600401610d4090614811565b6001600160a01b03831660009081526003602052604090206001015464ffffffffff161561206e57600080fd5b6001600160a01b038316734e3fbd56cd56c3e72c1403e103b45db9da5b9d2b141561209857600080fd5b6002805460018082019092557f405787fa12a823e0f2b7631cc41b3ba8828b3321ca811111fa75cd3aa3bb5ace0180546001600160a01b0319166001600160a01b039586169081179091556000908152600360209081526040808320808501805464ffffffffff19164264ffffffffff16908117909155815465ffffffffff0019166101009091021760ff1990811696151596909617905560048252808320959096168252939093529290912080549091169091179055565b60025460609067ffffffffffffffff8111801561216d57600080fd5b506040519080825280602002602001820160405280156121a757816020015b612194614205565b81526020019060019003908161218c5790505b506001600160a01b0383166000908152600a60205260408120805492935091600160701b90046001600160701b0316905b83518110156115a7576000600282815481106121f057fe5b9060005260206000200160009054906101000a90046001600160a01b031690508085838151811061221d57fe5b6020908102919091018101516001600160a01b039283169052908216600090815260039091526040902054612267908790839060ff166111ba5786546001600160701b03166111bc565b85838151811061227357fe5b6020908102919091018101510152506001016121d8565b600260005414156122ad5760405162461bcd60e51b8152600401610d40906149d4565b600260009081556001600160a01b0384168152600a6020526040812080548592600160701b9091046001600160701b0316905b60025481101561245b576000600282815481106122f957fe5b6000918252602090912001546001600160a01b0316905061231c6110d982612ec4565b6001600160a01b03821660009081526003602052604090206001810180546001600160d01b0393909316600160281b02600160281b600160f81b0319909316929092179091555461237d9061113f9064ffffffffff61010090910416612eb4565b6001600160a01b038281166000908152600360205260409020600101805464ffffffffff191664ffffffffff9390931692909217909155851615612452576001600160a01b0381166000908152600360205260409020546123f3908690839060ff166111ba5786546001600160701b03166111bc565b6001600160a01b0386811660008181526006602090815260408083209487168084529482528083209590955560038152848220600101549282526005815284822093825292909252919020600160281b9091046001600160d01b031690555b506001016122e0565b506124809150734e3fbd56cd56c3e72c1403e103b45db9da5b9d2b90503330866135cf565b6113a9848484600061373e565b60155481565b600660209081526000928352604080842090915290825290205481565b60115481565b6000610c8582612ec4565b6124c9612ec0565b6001600160a01b03166124da611970565b6001600160a01b0316146125005760405162461bcd60e51b8152600401610d4090614811565b6001600160a01b0381166125265760405162461bcd60e51b8152600401610d4090614629565b6001546040516001600160a01b038084169216907f8be0079c531659141344cd1fd0a4f28419497f9722a3daafe3b4186f6b6457e090600090a3600180546001600160a01b0319166001600160a01b0392909216919091179055565b600954600090600019018161259e62093a80610ac0868261276c565b935060005b6080811015612624578282106125b857612624565b600060026001848601010490506000600982815481106125d457fe5b600091825260209091200154600160e01b900463ffffffff1690508681141561260357509350610d1892505050565b868110156126135781935061261a565b6001820394505b50506001016125a3565b509392505050565b612634612ec0565b6001600160a01b0316612645611970565b6001600160a01b03161461266b5760405162461bcd60e51b8152600401610d4090614811565b6013546001600160a01b03161561275d5760135460408051629032ff60e51b815290516000926001600160a01b0316916312065fe0916004808301926020929190829003018186803b1580156126c057600080fd5b505afa1580156126d4573d6000803e3d6000fd5b505050506040513d601f19601f820116820180604052508101906126f891906143b0565b601354604051632e1a7d4d60e01b81529192506001600160a01b031690632e1a7d4d90612729908490600401614b55565b600060405180830381600087803b15801561274357600080fd5b505af1158015612757573d6000803e3d6000fd5b50505050505b6016805460ff19166001179055565b600080821161278d5760405162461bcd60e51b8152600401610d40906145f2565b81838161279657fe5b049392505050565b60008115806127b9575050808202828282816127b657fe5b04145b610c855760405162461bcd60e51b8152600401610d4090614a84565b81810181811015610c855760405162461bcd60e51b8152600401610d409061475f565b80820382811115610c855760405162461bcd60e51b8152600401610d409061458c565b6001600160a01b0386166000908152600a6020526040812080548892600160701b9091046001600160701b0316905b6002548110156129c55760006002828154811061286357fe5b6000918252602090912001546001600160a01b031690506128866110d982612ec4565b6001600160a01b03821660009081526003602052604090206001810180546001600160d01b0393909316600160281b02600160281b600160f81b031990931692909217909155546128e79061113f9064ffffffffff61010090910416612eb4565b6001600160a01b038281166000908152600360205260409020600101805464ffffffffff191664ffffffffff93909316929092179091558516156129bc576001600160a01b03811660009081526003602052604090205461295d908690839060ff166111ba5786546001600160701b03166111bc565b6001600160a01b0386811660008181526006602090815260408083209487168084529482528083209590955560038152848220600101549282526005815284822093825292909252919020600160281b9091046001600160d01b031690555b5060010161284a565b5050506001600160a01b0387166000908152600b60209081526040808320600a9092528220815460165492939192829190829060ff1680612a365750612a0b42896127f8565b866001840381548110612a1a57fe5b600091825260209091200154600160e01b900463ffffffff1611155b15612b495784546001600160701b038082169550600160701b909104169250612a5e82613e42565b855463ffffffff91909116600160e01b026001600160e01b039091161785558715612b44576000612aa062093a80610ac081612a9a428e6127f8565b9061276c565b90506000612ae162093a80612a9a8a6001880381548110612abd57fe5b600091825260209091200154859063ffffffff600160e01b9091048116906127f816565b90506000612b08612b008360010160145461279e90919063ffffffff16565b612710613e68565b9050612b3e612710612a9a838c60018a0381548110612b2357fe5b6000918252602090912001546001600160701b03169061279e565b93505050505b612cb7565b8454600160e01b900463ffffffff16805b83811015612c9757612b6c428b6127f8565b888281548110612b7857fe5b600091825260209091200154600160e01b900463ffffffff161115612b9c57612c97565b612bc9888281548110612bab57fe5b6000918252602090912001546001600160701b038881169116613e7e565b9550612bff888281548110612bda57fe5b6000918252602090912001546001600160701b0387811691600160701b900416613e7e565b94508915612c8b576000612c2a62093a80610ac062093a80612a9a8f426127f890919063ffffffff16565b90506000612c4462093a80612a9a8c8681548110612abd57fe5b90506000612c63612b008360010160145461279e90919063ffffffff16565b9050612c85612c7e612710612a9a848f8981548110612b2357fe5b87906127d5565b95505050505b60019182019101612b5a565b50855463ffffffff909116600160e01b026001600160e01b039091161785555b6000846001600160701b031611612ce05760405162461bcd60e51b8152600401610d4090614710565b8454612cf5906001600160701b031685613ead565b85546001600160701b0319166001600160701b0391821617808755612d2391600160701b9091041684613ead565b8554600160701b600160e01b031916600160701b6001600160701b0392831602178655600754612d549186166127f8565b600755600854612d6d906001600160701b0385166127f8565b6008819055508c6001600160a01b03167f2fd83d5e9f5d240bed47a97a24cf354e4047e25edc2da27b01fd95e5e8a0c9a5858e604051612dae929190614af2565b60405180910390a28015612e4857612dce846001600160701b0316613edc565b612dea612dda82613fdd565b6001600160701b03861690613ead565b9350612df889826000614006565b8c6001600160a01b0316896001600160a01b03167f7e7ff29ed04cfb223bc9b02606f69520517c117ee82c9158ed2d96323c1ef38583604051612e3b9190614b55565b60405180910390a3612e6f565b8a15612e6f57612e6f612e6a612710612a9a6001600160701b0388168f61279e565b613edc565b8b15612e9057612e8b8a856001600160701b03168d600161373e565b612ea5565b612ea58a856001600160701b03166001614006565b50505050505050505050505050565b6000610c854283613e68565b3390565b600060085460001415612f0357506001600160a01b038116600090815260036020526040902060010154600160281b90046001600160d01b0316610d18565b6001600160a01b038216600090815260036020526040902054610c8590612f9b9060ff16612f3357600754612f37565b6008545b6001600160a01b03851660009081526003602052604090208054600190910154612a9a91670de0b6b3a764000091610ac0916001600160d01b03600160301b82041691839164ffffffffff91821691612f9591610100900416612eb4565b906127f8565b6001600160a01b038416600090815260036020526040902060010154600160281b90046001600160d01b0316906127d5565b60006001600160d01b03821115612ff65760405162461bcd60e51b8152600401610d40906145bb565b5090565b600064ffffffffff821115612ff65760405162461bcd60e51b8152600401610d4090614abb565b6001600160a01b03808416600081815260066020908152604080832094871680845294825280832054938352600582528083209483529390529182205461308f919061308990670de0b6b3a764000090612a9a9061308290612f958a612ec4565b879061279e565b906127d5565b90505b9392505050565b611e508363a9059cbb60e01b84846040516024016130b89291906144a7565b60408051601f198184030181529190526020810180516001600160e01b03166001600160e01b03199093169290921790915261403e565b8015806131775750604051636eb1769f60e11b81526001600160a01b0384169063dd62ed3e906131259030908690600401614469565b60206040518083038186803b15801561313d57600080fd5b505afa158015613151573d6000803e3d6000fd5b505050506040513d601f19601f8201168201806040525081019061317591906143b0565b155b6131935760405162461bcd60e51b8152600401610d4090614a2e565b611e508363095ea7b360e01b84846040516024016130b89291906144a7565b60165460ff16156131c257611e9f565b6040516370a0823160e01b8152600090734e3fbd56cd56c3e72c1403e103b45db9da5b9d2b906370a08231906131fc903090600401614455565b60206040518083038186803b15801561321457600080fd5b505afa158015613228573d6000803e3d6000fd5b505050506040513d601f19601f8201168201806040525081019061324c91906143b0565b90506000601360009054906101000a90046001600160a01b03166001600160a01b03166312065fe06040518163ffffffff1660e01b815260040160206040518083038186803b15801561329e57600080fd5b505afa1580156132b2573d6000803e3d6000fd5b505050506040513d601f19601f820116820180604052508101906132d691906143b0565b905060006132e483836127d5565b9050806132f357505050611e9f565b600061330582612a9a8561271061279e565b905060006133256002612a9a6011546012546127d590919063ffffffff16565b9050600061333e876012546127d590919063ffffffff16565b905060006133526011548960115403613e68565b9050818411156133e1576000613378613371612710612a9a898861279e565b88906127f8565b601354604051632e1a7d4d60e01b81529192506001600160a01b031690632e1a7d4d906133a9908490600401614b55565b600060405180830381600087803b1580156133c357600080fd5b505af11580156133d7573d6000803e3d6000fd5b5050505050613492565b808410156134925760006133ff87612f95612710612a9a8a8961279e565b60135490915061342e90734e3fbd56cd56c3e72c1403e103b45db9da5b9d2b906001600160a01b031683613099565b601360009054906101000a90046001600160a01b03166001600160a01b0316633a4b66f16040518163ffffffff1660e01b8152600401600060405180830381600087803b15801561347e57600080fd5b505af1158015612ea5573d6000803e3d6000fd5b5050505050505050565b6001600160a01b03821660009081526003602052604090208054610100900464ffffffffff1642106134fe576134d86110d98362093a8061276c565b81546001600160d01b0391909116600160301b0265ffffffffffff909116178155613576565b805460009061351990610100900464ffffffffff16426127f8565b825490915060009061353c908390600160301b90046001600160d01b031661279e565b90506135526110d962093a80612a9a87856127d5565b83546001600160d01b0391909116600160301b0265ffffffffffff90911617835550505b61357f42612ffa565b60018201805464ffffffffff191664ffffffffff929092169190911790556135ad61113f4262093a806127d5565b815464ffffffffff919091166101000265ffffffffff00199091161790555050565b6135f0846323b872dd60e01b8585856040516024016130b893929190614483565b50505050565b600061360d62093a8061308981610ac0428261276c565b600980549192508290600019830183811061362457fe5b600091825260209091200154600160e01b900463ffffffff16101561196c575b60098054839190600019810190811061365957fe5b600091825260209091200154600160e01b900463ffffffff161461371757600061369562093a80600960016009805490500381548110611f1757fe5b60408051808201909152600080825263ffffffff9283166020830190815260098054600181018255925291517f6e1540171b6c0c960b71a7020d9f60077f6af931a8bbf590da0223dacf75c7af90910180549251909316600160e01b026001600160e01b039182166001600160e01b0319909316929092171617905550613644565b601054600e541461372957601054600e555b600f54600d541461196c57600f54600d555050565b6000831161375e5760405162461bcd60e51b8152600401610d409061466f565b600d548211156137805760405162461bcd60e51b8152600401610d4090614697565b60165460ff16156137a35760405162461bcd60e51b8152600401610d40906148a0565b6001600160a01b0384166000908152600a602052604090206137c36135f6565b60006137d5612710612a9a878761279e565b905060006137fe600d546000146137ee57600d546137f1565b60015b600e54612a9a908861279e565b9050600061381461380f88856127f8565b613fdd565b9050600061383561380f61382e612710612a9a8c8861279e565b8a906127d5565b855490915061384d906001600160701b031683613e7e565b85546001600160701b0319166001600160701b039182161780875561387b91600160701b9091041682613e7e565b8554600160701b600160e01b031916600160701b6001600160701b03928316021786556007546138ac9184166127d5565b6007556008546138c5906001600160701b0383166127d5565b60085560006138db62093a80610ac0428261276c565b9050866138f2576138ef8162093a806127d5565b90505b6000613901826293a8006127d5565b6001600160a01b038c166000908152600b602052604090205490915080158061396b57506001600160a01b038c166000908152600b602052604090208054839190600019840190811061395057fe5b600091825260209091200154600160e01b900463ffffffff16105b15613a1a576001600160a01b038c166000908152600b6020908152604080832081516060810183526001600160701b03808b16825289811682860190815263ffffffff808a16958401958652845460018101865594885295909620915191909201805495519351909416600160e01b026001600160e01b03938316600160701b02600160701b600160e01b0319929093166001600160701b031990961695909517161716919091179055613d47565b6001600160a01b038c166000908152600b6020526040902080548391906000198401908110613a4557fe5b600091825260209091200154600160e01b900463ffffffff161115613a6957600019015b6001600160a01b038c166000908152600b6020526040902080548391906000198401908110613a9457fe5b600091825260209091200154600160e01b900463ffffffff161415613b57576001600160a01b038c166000908152600b6020526040812080546000198401908110613adb57fe5b60009182526020909120018054909150613afe906001600160701b031687613e7e565b81546001600160701b0319166001600160701b0391821617808355613b2c91600160701b9091041686613e7e565b81546001600160701b0391909116600160701b02600160701b600160e01b0319909116179055613d47565b506001600160a01b038b166000908152600b60205260408120805491906000198301838110613b8257fe5b906000526020600020019050600b60008e6001600160a01b03166001600160a01b0316815260200190815260200160002060405180606001604052808360000160009054906101000a90046001600160701b03166001600160701b0316815260200183600001600e9054906101000a90046001600160701b03166001600160701b0316815260200183600001601c9054906101000a900463ffffffff1663ffffffff168152509080600181540180825580915050600190039060005260206000200160009091909190915060008201518160000160006101000a8154816001600160701b0302191690836001600160701b03160217905550602082015181600001600e6101000a8154816001600160701b0302191690836001600160701b03160217905550604082015181600001601c6101000a81548163ffffffff021916908363ffffffff1602179055505050858160000160006101000a8154816001600160701b0302191690836001600160701b031602179055508481600001600e6101000a8154816001600160701b0302191690836001600160701b031602179055508281600001601c6101000a81548163ffffffff021916908363ffffffff160217905550505b600954600019018915613d5957600019015b600060098281548110613d6857fe5b60009182526020909120018054909150613d94906001600160e01b03166001600160701b0388166140cd565b81546001600160e01b0319166001600160e01b03919091161781558815613de157600c54613de190734e3fbd56cd56c3e72c1403e103b45db9da5b9d2b906001600160a01b03168b613099565b613dec6101f46131b2565b848e6001600160a01b03167f9cfd25589d1eb8ad71e342a86a8524e83522e3936c0803048c08f6d9ad974f408f8a8a604051613e2a93929190614b5e565b60405180910390a35050505050505050505050505050565b600063ffffffff821115612ff65760405162461bcd60e51b8152600401610d409061491c565b6000818310613e775781613092565b5090919050565b8181016001600160701b038083169082161015610c855760405162461bcd60e51b8152600401610d409061475f565b8082036001600160701b038084169082161115610c855760405162461bcd60e51b8152600401610d409061458c565b6040516370a0823160e01b8152600090734e3fbd56cd56c3e72c1403e103b45db9da5b9d2b906370a0823190613f16903090600401614455565b60206040518083038186803b158015613f2e57600080fd5b505afa158015613f42573d6000803e3d6000fd5b505050506040513d601f19601f82011682018060405250810190613f6691906143b0565b90508082111561196c576013546001600160a01b0316632e1a7d4d613f8b84846127f8565b6040518263ffffffff1660e01b8152600401613fa79190614b55565b600060405180830381600087803b158015613fc157600080fd5b505af1158015613fd5573d6000803e3d6000fd5b505050505050565b60006001600160701b03821115612ff65760405162461bcd60e51b8152600401610d4090614796565b61400f82613edc565b61402e734e3fbd56cd56c3e72c1403e103b45db9da5b9d2b8484613099565b8015611e5057611e5060006131b2565b6060614093826040518060400160405280602081526020017f5361666545524332303a206c6f772d6c6576656c2063616c6c206661696c6564815250856001600160a01b03166140fc9092919063ffffffff16565b805190915015611e5057808060200190518101906140b1919061437c565b611e505760405162461bcd60e51b8152600401610d4090614953565b8181016001600160e01b038083169082161015610c855760405162461bcd60e51b8152600401610d409061475f565b606061308f848460008585614110856141a6565b61412c5760405162461bcd60e51b8152600401610d40906148c2565b60006060866001600160a01b031685876040516141499190614439565b60006040518083038185875af1925050503d8060008114614186576040519150601f19603f3d011682016040523d82523d6000602084013e61418b565b606091505b509150915061419b8282866141ac565b979650505050505050565b3b151590565b606083156141bb575081613092565b8251156141cb5782518084602001fd5b8160405162461bcd60e51b8152600401610d409190614559565b604080516060810182526000808252602082018190529181019190915290565b604080518082019091526000808252602082015290565b80356001600160a01b0381168114610c8557600080fd5b600060208284031215614244578081fd5b613092838361421c565b60008060408385031215614260578081fd5b61426a848461421c565b9150614279846020850161421c565b90509250929050565b600080600060608486031215614296578081fd5b83356142a181614c39565b925060208401356142b181614c39565b915060408401356142c181614c4e565b809150509250925092565b600080604083850312156142de578182fd5b6142e8848461421c565b915060208301356142f881614c4e565b809150509250929050565b60008060408385031215614315578182fd5b61431f848461421c565b946020939093013593505050565b600080600060608486031215614341578283fd5b61434b858561421c565b95602085013595506040909401359392505050565b600060208284031215614371578081fd5b813561309281614c4e565b60006020828403121561438d578081fd5b815161309281614c4e565b6000602082840312156143a9578081fd5b5035919050565b6000602082840312156143c1578081fd5b5051919050565b600080604083850312156143da578182fd5b82359150614279846020850161421c565b600080604083850312156143fd578182fd5b50508035926020909101359150565b600080600060608486031215614420578283fd5b833592506020840135915060408401356142c181614c39565b6000825161444b818460208701614c0d565b9190910192915050565b6001600160a01b0391909116815260200190565b6001600160a01b0392831681529116602082015260400190565b6001600160a01b039384168152919092166020820152604081019190915260600190565b6001600160a01b03929092168252602082015260400190565b602080825282518282018190526000919060409081850190868401855b8281101561450b57815180516001600160a01b031685528601518685015292840192908501906001016144dd565b5091979650505050505050565b901515815260200190565b941515855264ffffffffff93841660208601526001600160d01b0392831660408601529216606084015216608082015260a00190565b6000602082528251806020840152614578816040850160208701614c0d565b601f01601f19169190910160400192915050565b602080825260159082015274426f72696e674d6174683a20556e646572666c6f7760581b604082015260600190565b6020808252601c908201527f426f72696e674d6174683a2075696e74323038204f766572666c6f7700000000604082015260600190565b6020808252601c908201527f426f72696e674d6174683a206469766973696f6e206279207a65726f00000000604082015260600190565b60208082526026908201527f4f776e61626c653a206e6577206f776e657220697320746865207a65726f206160408201526564647265737360d01b606082015260800190565b6020808252600e908201526d043616e6e6f74207374616b6520360941b604082015260600190565b6020808252600e908201526d1bdd995c881b585e081cdc195b9960921b604082015260600190565b60208082526010908201526f1bdd995c881b585e081c185e5b595b9d60821b604082015260600190565b6020808252600d908201526c6f766572206d6178207261746560981b604082015260600190565b6020808252600c908201526b6e6f20657870206c6f636b7360a01b604082015260600190565b6020808252600f908201526e696e76616c6964206164647265737360881b604082015260600190565b60208082526018908201527f426f72696e674d6174683a20416464204f766572666c6f770000000000000000604082015260600190565b6020808252601c908201527f426f72696e674d6174683a2075696e74313132204f766572666c6f7700000000604082015260600190565b602080825260099082015268139bc81c995dd85c9960ba1b604082015260600190565b60208082526007908201526610b0b9b9b4b3b760c91b604082015260600190565b6020808252818101527f4f776e61626c653a2063616c6c6572206973206e6f7420746865206f776e6572604082015260600190565b6020808252601d908201527f43616e6e6f74207769746864726177207374616b696e6720746f6b656e000000604082015260600190565b6020808252600990820152686d696e2064656c617960b81b604082015260600190565b60208082526008908201526739b43aba3237bbb760c11b604082015260600190565b6020808252601d908201527f416464726573733a2063616c6c20746f206e6f6e2d636f6e7472616374000000604082015260600190565b6020808252600990820152686d696e2072616e676560b81b604082015260600190565b6020808252601b908201527f426f72696e674d6174683a2075696e743332204f766572666c6f770000000000604082015260600190565b6020808252602a908201527f5361666545524332303a204552433230206f7065726174696f6e20646964206e6040820152691bdd081cdd58d8d9595960b21b606082015260800190565b6020808252601c908201527f43616e6e6f742077697468647261772072657761726420746f6b656e00000000604082015260600190565b6020808252601f908201527f5265656e7472616e637947756172643a207265656e7472616e742063616c6c00604082015260600190565b6020808252600990820152686d61782072616e676560b81b604082015260600190565b60208082526036908201527f5361666545524332303a20617070726f76652066726f6d206e6f6e2d7a65726f60408201527520746f206e6f6e2d7a65726f20616c6c6f77616e636560501b606082015260800190565b60208082526018908201527f426f72696e674d6174683a204d756c204f766572666c6f770000000000000000604082015260600190565b6020808252601b908201527f426f72696e674d6174683a2075696e743430204f766572666c6f770000000000604082015260600190565b6001600160701b039290921682521515602082015260400190565b6001600160701b03938416815291909216602082015263ffffffff909116604082015260600190565b6001600160e01b0392909216825263ffffffff16602082015260400190565b90815260200190565b9283526001600160701b03918216602084015216604082015260600190565b6000608082018683526020868185015260408681860152606060808187015283875180865260a0880191508489019550865b81811015614bee57865180516001600160701b03908116855287820151168785015285015163ffffffff16858401529585019591830191600101614baf565b50909b9a5050505050505050505050565b60ff91909116815260200190565b60005b83811015614c28578181015183820152602001614c10565b838111156135f05750506000910152565b6001600160a01b0381168114611e9f57600080fd5b8015158114611e9f57600080fdfea2646970667358221220e2725e0134563c17b37459487b25f8a83d21c9239ee60abe820139440b14bab564736f6c634300060c0033",
  "linkReferences": {},
  "deployedLinkReferences": {}
}