{
  "contractName": "ArbitratorVault",
  "abi": [
    {
      "inputs": [
        {
          "internalType": "address",
          "name": "_depositor",
          "type": "address"
        }
      ],
      "stateMutability": "nonpayable",
      "type": "constructor"
    },
    {
      "inputs": [],
      "name": "depositor",
      "outputs": [
        {
          "internalType": "address",
          "name": "",
          "type": "address"
        }
      ],
      "stateMutability": "view",
      "type": "function",
      "constant": true
    },
    {
      "inputs": [],
      "name": "operator",
      "outputs": [
        {
          "internalType": "address",
          "name": "",
          "type": "address"
        }
      ],
      "stateMutability": "view",
      "type": "function",
      "constant": true
    },
    {
      "inputs": [
        {
          "internalType": "address",
          "name": "_op",
          "type": "address"
        }
      ],
      "name": "setOperator",
      "outputs": [],
      "stateMutability": "nonpayable",
      "type": "function"
    },
    {
      "inputs": [
        {
          "internalType": "address",
          "name": "_token",
          "type": "address"
        },
        {
          "internalType": "uint256[]",
          "name": "_toPids",
          "type": "uint256[]"
        },
        {
          "internalType": "uint256[]",
          "name": "_amounts",
          "type": "uint256[]"
        }
      ],
      "name": "distribute",
      "outputs": [],
      "stateMutability": "nonpayable",
      "type": "function"
    }
  ],
  "bytecode": "0x608060405234801561001057600080fd5b5060405161078a38038061078a8339818101604052602081101561003357600080fd5b5051600080546001600160a01b03199081163317909155600180546001600160a01b0390931692909116919091179055610718806100726000396000f3fe608060405234801561001057600080fd5b506004361061004c5760003560e01c806339a0d83114610051578063570ca73514610125578063b3ab15fb14610149578063c7c4ff461461016f575b600080fd5b6101236004803603606081101561006757600080fd5b6001600160a01b03823516919081019060408101602082013564010000000081111561009257600080fd5b8201836020820111156100a457600080fd5b803590602001918460208302840111640100000000831117156100c657600080fd5b9193909290916020810190356401000000008111156100e457600080fd5b8201836020820111156100f657600080fd5b8035906020019184602083028401116401000000008311171561011857600080fd5b509092509050610177565b005b61012d6102e4565b604080516001600160a01b039092168252519081900360200190f35b6101236004803603602081101561015f57600080fd5b50356001600160a01b03166102f3565b61012d61035c565b6000546001600160a01b031633146101be576040805162461bcd60e51b8152602060048201526005602482015264042c2eae8d60db1b604482015290519081900360640190fd5b60005b838110156102dc5760015460009081906001600160a01b0316631526fe278888868181106101eb57fe5b905060200201356040518263ffffffff1660e01b81526004018082815260200191505060c06040518083038186803b15801561022657600080fd5b505afa15801561023a573d6000803e3d6000fd5b505050506040513d60c081101561025057600080fd5b50608081015160a090910151909250905080156102a2576040805162461bcd60e51b815260206004820152600b60248201526a1c1bdbdb0818db1bdcd95960aa1b604482015290519081900360640190fd5b6102d2828686868181106102b257fe5b905060200201358a6001600160a01b031661036b9092919063ffffffff16565b50506001016101c1565b505050505050565b6000546001600160a01b031681565b6000546001600160a01b0316331461033a576040805162461bcd60e51b8152602060048201526005602482015264042c2eae8d60db1b604482015290519081900360640190fd5b600080546001600160a01b0319166001600160a01b0392909216919091179055565b6001546001600160a01b031681565b604080516001600160a01b038416602482015260448082018490528251808303909101815260649091019091526020810180516001600160e01b031663a9059cbb60e01b1790526103bd9084906103c2565b505050565b6060610417826040518060400160405280602081526020017f5361666545524332303a206c6f772d6c6576656c2063616c6c206661696c6564815250856001600160a01b03166104739092919063ffffffff16565b8051909150156103bd5780806020019051602081101561043657600080fd5b50516103bd5760405162461bcd60e51b815260040180806020018281038252602a8152602001806106b9602a913960400191505060405180910390fd5b6060610482848460008561048c565b90505b9392505050565b6060824710156104cd5760405162461bcd60e51b81526004018080602001828103825260268152602001806106936026913960400191505060405180910390fd5b6104d6856105e8565b610527576040805162461bcd60e51b815260206004820152601d60248201527f416464726573733a2063616c6c20746f206e6f6e2d636f6e7472616374000000604482015290519081900360640190fd5b60006060866001600160a01b031685876040518082805190602001908083835b602083106105665780518252601f199092019160209182019101610547565b6001836020036101000a03801982511681845116808217855250505050505090500191505060006040518083038185875af1925050503d80600081146105c8576040519150601f19603f3d011682016040523d82523d6000602084013e6105cd565b606091505b50915091506105dd8282866105ee565b979650505050505050565b3b151590565b606083156105fd575081610485565b82511561060d5782518084602001fd5b8160405162461bcd60e51b81526004018080602001828103825283818151815260200191508051906020019080838360005b8381101561065757818101518382015260200161063f565b50505050905090810190601f1680156106845780820380516001836020036101000a031916815260200191505b509250505060405180910390fdfe416464726573733a20696e73756666696369656e742062616c616e636520666f722063616c6c5361666545524332303a204552433230206f7065726174696f6e20646964206e6f742073756363656564a2646970667358221220c15d4bd9199fb8eb7213913a245e9fad3dc7a6fbbca4e5bd05e154986772e09864736f6c634300060c0033",
  "immutableReferences": {},
  "source": "// SPDX-License-Identifier: MIT\npragma solidity 0.6.12;\n\nimport \"./Interfaces.sol\";\nimport \"@openzeppelin/contracts/math/SafeMath.sol\";\nimport \"@openzeppelin/contracts/token/ERC20/IERC20.sol\";\nimport \"@openzeppelin/contracts/utils/Address.sol\";\nimport \"@openzeppelin/contracts/token/ERC20/SafeERC20.sol\";\n\n//Hold extra reward tokens on behalf of pools that have the same token as a reward\n//Because anyone can call gauge.claim_rewards(address) for the muuu staking contract, rewards\n//could be forced to the wrong pool.\n//hold tokens here and distribute fairly(or at least more fairly), to both pools at a later timing\ncontract ArbitratorVault {\n  using SafeERC20 for IERC20;\n  using Address for address;\n  using SafeMath for uint256;\n\n  address public operator;\n  address public depositor;\n\n  constructor(address _depositor) public {\n    operator = msg.sender;\n    depositor = _depositor;\n  }\n\n  function setOperator(address _op) external {\n    require(msg.sender == operator, \"!auth\");\n    operator = _op;\n  }\n\n  function distribute(\n    address _token,\n    uint256[] calldata _toPids,\n    uint256[] calldata _amounts\n  ) external {\n    require(msg.sender == operator, \"!auth\");\n\n    for (uint256 i = 0; i < _toPids.length; i++) {\n      //get stash from pid\n      (, , , , address stashAddress, bool shutdown) = IDeposit(depositor).poolInfo(_toPids[i]);\n\n      //if sent to a shutdown pool, could get trapped\n      require(shutdown == false, \"pool closed\");\n\n      //transfer\n      IERC20(_token).safeTransfer(stashAddress, _amounts[i]);\n    }\n  }\n}\n",
  "sourcePath": "/Users/linnefromice/repository/github.com/muuu-finance/muuu-protocol/contracts/contracts/ArbitartorVault.sol",
  "compiler": {
    "name": "solc",
    "version": "0.6.12+commit.27d51765.Emscripten.clang"
  },
  "schemaVersion": "3.4.6",
  "updatedAt": "2022-03-28T04:29:48.073Z",
  "networkType": "ethereum",
  "devdoc": {
    "kind": "dev",
    "methods": {},
    "version": 1
  },
  "userdoc": {
    "kind": "user",
    "methods": {},
    "version": 1
  }
}