{
  "contractName": "BasicMuuuHolder",
  "abi": [
    {
      "inputs": [
        {
          "internalType": "address",
          "name": "_muuulocker",
          "type": "address"
        }
      ],
      "stateMutability": "nonpayable",
      "type": "constructor"
    },
    {
      "inputs": [],
      "name": "kgl",
      "outputs": [
        {
          "internalType": "address",
          "name": "",
          "type": "address"
        }
      ],
      "stateMutability": "view",
      "type": "function"
    },
    {
      "inputs": [],
      "name": "kglDeposit",
      "outputs": [
        {
          "internalType": "address",
          "name": "",
          "type": "address"
        }
      ],
      "stateMutability": "view",
      "type": "function"
    },
    {
      "inputs": [],
      "name": "muKgl",
      "outputs": [
        {
          "internalType": "address",
          "name": "",
          "type": "address"
        }
      ],
      "stateMutability": "view",
      "type": "function"
    },
    {
      "inputs": [],
      "name": "mukglStaking",
      "outputs": [
        {
          "internalType": "address",
          "name": "",
          "type": "address"
        }
      ],
      "stateMutability": "view",
      "type": "function"
    },
    {
      "inputs": [],
      "name": "muuu",
      "outputs": [
        {
          "internalType": "address",
          "name": "",
          "type": "address"
        }
      ],
      "stateMutability": "view",
      "type": "function"
    },
    {
      "inputs": [],
      "name": "muuulocker",
      "outputs": [
        {
          "internalType": "contract ILockedMuuu",
          "name": "",
          "type": "address"
        }
      ],
      "stateMutability": "view",
      "type": "function"
    },
    {
      "inputs": [],
      "name": "operator",
      "outputs": [
        {
          "internalType": "address",
          "name": "",
          "type": "address"
        }
      ],
      "stateMutability": "view",
      "type": "function"
    },
    {
      "inputs": [],
      "name": "setApprovals",
      "outputs": [],
      "stateMutability": "nonpayable",
      "type": "function"
    },
    {
      "inputs": [
        {
          "internalType": "address",
          "name": "_op",
          "type": "address"
        }
      ],
      "name": "setOperator",
      "outputs": [],
      "stateMutability": "nonpayable",
      "type": "function"
    },
    {
      "inputs": [
        {
          "internalType": "address",
          "name": "_delegateContract",
          "type": "address"
        },
        {
          "internalType": "address",
          "name": "_delegate",
          "type": "address"
        }
      ],
      "name": "setDelegate",
      "outputs": [],
      "stateMutability": "nonpayable",
      "type": "function"
    },
    {
      "inputs": [
        {
          "internalType": "uint256",
          "name": "_amount",
          "type": "uint256"
        },
        {
          "internalType": "uint256",
          "name": "_spendRatio",
          "type": "uint256"
        }
      ],
      "name": "lock",
      "outputs": [],
      "stateMutability": "nonpayable",
      "type": "function"
    },
    {
      "inputs": [
        {
          "internalType": "bool",
          "name": "_relock",
          "type": "bool"
        },
        {
          "internalType": "uint256",
          "name": "_spendRatio",
          "type": "uint256"
        }
      ],
      "name": "processExpiredLocks",
      "outputs": [],
      "stateMutability": "nonpayable",
      "type": "function"
    },
    {
      "inputs": [],
      "name": "processRewards",
      "outputs": [],
      "stateMutability": "nonpayable",
      "type": "function"
    },
    {
      "inputs": [
        {
          "internalType": "uint256",
          "name": "_amount",
          "type": "uint256"
        },
        {
          "internalType": "address",
          "name": "_withdrawTo",
          "type": "address"
        }
      ],
      "name": "withdrawMuKgl",
      "outputs": [],
      "stateMutability": "nonpayable",
      "type": "function"
    },
    {
      "inputs": [
        {
          "internalType": "contract IERC20",
          "name": "_asset",
          "type": "address"
        },
        {
          "internalType": "uint256",
          "name": "_amount",
          "type": "uint256"
        },
        {
          "internalType": "address",
          "name": "_to",
          "type": "address"
        }
      ],
      "name": "withdrawTo",
      "outputs": [],
      "stateMutability": "nonpayable",
      "type": "function"
    },
    {
      "inputs": [
        {
          "internalType": "address",
          "name": "_to",
          "type": "address"
        },
        {
          "internalType": "uint256",
          "name": "_value",
          "type": "uint256"
        },
        {
          "internalType": "bytes",
          "name": "_data",
          "type": "bytes"
        }
      ],
      "name": "execute",
      "outputs": [
        {
          "internalType": "bool",
          "name": "",
          "type": "bool"
        },
        {
          "internalType": "bytes",
          "name": "",
          "type": "bytes"
        }
      ],
      "stateMutability": "nonpayable",
      "type": "function"
    }
  ],
  "bytecode": "0x60a060405234801561001057600080fd5b506040516114873803806114878339818101604052602081101561003357600080fd5b50516001600160601b031960609190911b16608052600080546001600160a01b0319163317905560805160601c6113f7610090600039806103e5528061057b52806105ec528061073a528061077a5280610a4d52506113f76000f3fe608060405234801561001057600080fd5b50600436106101005760003560e01c8063b3ab15fb11610097578063d782139a11610066578063d782139a1461032b578063f2f6a6b614610333578063f9fc0d071461033b578063ff182d9a1461034357610100565b8063b3ab15fb146101c1578063b61d27f6146101e7578063c4e2c1e6146102ed578063d52350ff1461032357610100565b8063570ca735116100d3578063570ca7351461017b57806359533208146101835780635c8738491461018b5780638757b15b146101b957610100565b80630104d0c7146101055780630c73373e1461012c5780631338736f14610150578063236dcb6314610173575b600080fd5b61012a6004803603604081101561011b57600080fd5b5080351515906020013561036f565b005b610134610448565b604080516001600160a01b039092168252519081900360200190f35b61012a6004803603604081101561016657600080fd5b5080359060200135610460565b6101346105c3565b6101346105db565b6101346105ea565b61012a600480360360408110156101a157600080fd5b506001600160a01b038135811691602001351661060e565b61012a6106b7565b61012a600480360360208110156101d757600080fd5b50356001600160a01b031661080c565b61026c600480360360608110156101fd57600080fd5b6001600160a01b038235169160208101359181019060608101604082013564010000000081111561022d57600080fd5b82018360208201111561023f57600080fd5b8035906020019184600183028401116401000000008311171561026157600080fd5b509092509050610875565b60405180831515815260200180602001828103825283818151815260200191508051906020019080838360005b838110156102b1578181015183820152602001610299565b50505050905090810190601f1680156102de5780820380516001836020036101000a031916815260200191505b50935050505060405180910390f35b61012a6004803603606081101561030357600080fd5b506001600160a01b03813581169160208101359160409091013516610937565b610134610997565b6101346109af565b6101346109c7565b61012a6109df565b61012a6004803603604081101561035957600080fd5b50803590602001356001600160a01b0316610d00565b6000546001600160a01b031633146103b6576040805162461bcd60e51b8152602060048201526005602482015264042c2eae8d60db1b604482015290519081900360640190fd5b604080516370e664cd60e01b815283151560048201526024810183905230604482015290516001600160a01b037f000000000000000000000000000000000000000000000000000000000000000016916370e664cd91606480830192600092919082900301818387803b15801561042c57600080fd5b505af1158015610440573d6000803e3d6000fd5b505050505050565b733fe65692bfcd0e6cf84cb1e7d24108e434a7587e81565b6000546001600160a01b031633146104a7576040805162461bcd60e51b8152602060048201526005602482015264042c2eae8d60db1b604482015290519081900360640190fd5b81156104cd576104cd734e3fbd56cd56c3e72c1403e103b45db9da5b9d2b333085610eaa565b604080516370a0823160e01b81523060048201529051734e3fbd56cd56c3e72c1403e103b45db9da5b9d2b916370a08231916024808301926020929190829003018186803b15801561051e57600080fd5b505afa158015610532573d6000803e3d6000fd5b505050506040513d602081101561054857600080fd5b50516040805163e2ab691d60e01b8152306004820152602481018390526044810184905290519193506001600160a01b037f0000000000000000000000000000000000000000000000000000000000000000169163e2ab691d9160648082019260009290919082900301818387803b15801561042c57600080fd5b7362b9c7356a2dc64a1969e19c23e4f579f9810aa781565b6000546001600160a01b031681565b7f000000000000000000000000000000000000000000000000000000000000000081565b6000546001600160a01b03163314610655576040805162461bcd60e51b8152602060048201526005602482015264042c2eae8d60db1b604482015290519081900360640190fd5b816001600160a01b031663bd86e508826040518263ffffffff1660e01b81526004018080670daeaeaea5ccae8d60c31b815250602001826001600160a01b03168152602001915050600060405180830381600087803b15801561042c57600080fd5b6106eb7362b9c7356a2dc64a1969e19c23e4f579f9810aa7733fe65692bfcd0e6cf84cb1e7d24108e434a7587e6000610f0a565b6107207362b9c7356a2dc64a1969e19c23e4f579f9810aa7733fe65692bfcd0e6cf84cb1e7d24108e434a7587e600019610f0a565b610760734e3fbd56cd56c3e72c1403e103b45db9da5b9d2b7f00000000000000000000000000000000000000000000000000000000000000006000610f0a565b6107a1734e3fbd56cd56c3e72c1403e103b45db9da5b9d2b7f0000000000000000000000000000000000000000000000000000000000000000600019610f0a565b6107d573d533a949740bb3306d119cc777fa900ba034cd52738014595f2ab54cd7c604b00e9fb932176fdc86ae6000610f0a565b61080a73d533a949740bb3306d119cc777fa900ba034cd52738014595f2ab54cd7c604b00e9fb932176fdc86ae600019610f0a565b565b6000546001600160a01b03163314610853576040805162461bcd60e51b8152602060048201526005602482015264042c2eae8d60db1b604482015290519081900360640190fd5b600080546001600160a01b0319166001600160a01b0392909216919091179055565b600080546060906001600160a01b031633146108c0576040805162461bcd60e51b8152602060048201526005602482015264042c2eae8d60db1b604482015290519081900360640190fd5b60006060876001600160a01b0316878787604051808383808284376040519201945060009350909150508083038185875af1925050503d8060008114610922576040519150601f19603f3d011682016040523d82523d6000602084013e610927565b606091505b5090999098509650505050505050565b6000546001600160a01b0316331461097e576040805162461bcd60e51b8152602060048201526005602482015264042c2eae8d60db1b604482015290519081900360640190fd5b6109926001600160a01b038416828461101d565b505050565b738014595f2ab54cd7c604b00e9fb932176fdc86ae81565b73d533a949740bb3306d119cc777fa900ba034cd5281565b734e3fbd56cd56c3e72c1403e103b45db9da5b9d2b81565b6000546001600160a01b03163314610a26576040805162461bcd60e51b8152602060048201526005602482015264042c2eae8d60db1b604482015290519081900360640190fd5b60408051637050ccd960e01b81523060048201526001602482015290516001600160a01b037f00000000000000000000000000000000000000000000000000000000000000001691637050ccd991604480830192600092919082900301818387803b158015610a9457600080fd5b505af1158015610aa8573d6000803e3d6000fd5b505060408051637050ccd960e01b8152306004820152600160248201529051733fe65692bfcd0e6cf84cb1e7d24108e434a7587e9350637050ccd99250604480830192600092919082900301818387803b158015610b0557600080fd5b505af1158015610b19573d6000803e3d6000fd5b5050604080516370a0823160e01b815230600482015290516000935073d533a949740bb3306d119cc777fa900ba034cd5292506370a0823191602480820192602092909190829003018186803b158015610b7257600080fd5b505afa158015610b86573d6000803e3d6000fd5b505050506040513d6020811015610b9c57600080fd5b505190508015610c195760408051639a40832160e01b815260048101839052600160248201529051738014595f2ab54cd7c604b00e9fb932176fdc86ae91639a40832191604480830192600092919082900301818387803b158015610c0057600080fd5b505af1158015610c14573d6000803e3d6000fd5b505050505b604080516370a0823160e01b815230600482015290516000917362b9c7356a2dc64a1969e19c23e4f579f9810aa7916370a0823191602480820192602092909190829003018186803b158015610c6e57600080fd5b505afa158015610c82573d6000803e3d6000fd5b505050506040513d6020811015610c9857600080fd5b505190508015610cfc57733fe65692bfcd0e6cf84cb1e7d24108e434a7587e6001600160a01b031663a694fc3a826040518263ffffffff1660e01b815260040180828152602001915050600060405180830381600087803b15801561042c57600080fd5b5050565b6000546001600160a01b03163314610d47576040805162461bcd60e51b8152602060048201526005602482015264042c2eae8d60db1b604482015290519081900360640190fd5b6001600160a01b038116610d90576040805162461bcd60e51b815260206004820152600b60248201526a626164206164647265737360a81b604482015290519081900360640190fd5b60408051631c683a1b60e11b815260048101849052600160248201529051733fe65692bfcd0e6cf84cb1e7d24108e434a7587e916338d0743691604480830192600092919082900301818387803b158015610dea57600080fd5b505af1158015610dfe573d6000803e3d6000fd5b5050604080516370a0823160e01b81523060048201529051600093507362b9c7356a2dc64a1969e19c23e4f579f9810aa792506370a0823191602480820192602092909190829003018186803b158015610e5757600080fd5b505afa158015610e6b573d6000803e3d6000fd5b505050506040513d6020811015610e8157600080fd5b505190508015610992576109927362b9c7356a2dc64a1969e19c23e4f579f9810aa7838361101d565b604080516001600160a01b0380861660248301528416604482015260648082018490528251808303909101815260849091019091526020810180516001600160e01b03166323b872dd60e01b179052610f0490859061106b565b50505050565b801580610f90575060408051636eb1769f60e11b81523060048201526001600160a01b03848116602483015291519185169163dd62ed3e91604480820192602092909190829003018186803b158015610f6257600080fd5b505afa158015610f76573d6000803e3d6000fd5b505050506040513d6020811015610f8c57600080fd5b5051155b610fcb5760405162461bcd60e51b815260040180806020018281038252603681526020018061138c6036913960400191505060405180910390fd5b604080516001600160a01b038416602482015260448082018490528251808303909101815260649091019091526020810180516001600160e01b031663095ea7b360e01b17905261099290849061106b565b604080516001600160a01b038416602482015260448082018490528251808303909101815260649091019091526020810180516001600160e01b031663a9059cbb60e01b1790526109929084905b60606110c0826040518060400160405280602081526020017f5361666545524332303a206c6f772d6c6576656c2063616c6c206661696c6564815250856001600160a01b031661111c9092919063ffffffff16565b805190915015610992578080602001905160208110156110df57600080fd5b50516109925760405162461bcd60e51b815260040180806020018281038252602a815260200180611362602a913960400191505060405180910390fd5b606061112b8484600085611135565b90505b9392505050565b6060824710156111765760405162461bcd60e51b815260040180806020018281038252602681526020018061133c6026913960400191505060405180910390fd5b61117f85611291565b6111d0576040805162461bcd60e51b815260206004820152601d60248201527f416464726573733a2063616c6c20746f206e6f6e2d636f6e7472616374000000604482015290519081900360640190fd5b60006060866001600160a01b031685876040518082805190602001908083835b6020831061120f5780518252601f1990920191602091820191016111f0565b6001836020036101000a03801982511681845116808217855250505050505090500191505060006040518083038185875af1925050503d8060008114611271576040519150601f19603f3d011682016040523d82523d6000602084013e611276565b606091505b5091509150611286828286611297565b979650505050505050565b3b151590565b606083156112a657508161112e565b8251156112b65782518084602001fd5b8160405162461bcd60e51b81526004018080602001828103825283818151815260200191508051906020019080838360005b838110156113005781810151838201526020016112e8565b50505050905090810190601f16801561132d5780820380516001836020036101000a031916815260200191505b509250505060405180910390fdfe416464726573733a20696e73756666696369656e742062616c616e636520666f722063616c6c5361666545524332303a204552433230206f7065726174696f6e20646964206e6f7420737563636565645361666545524332303a20617070726f76652066726f6d206e6f6e2d7a65726f20746f206e6f6e2d7a65726f20616c6c6f77616e6365a2646970667358221220044a762fa77122da66f41f1f7fef00566dc44441fc09f1e08f88824eeae39b1164736f6c634300060c0033",
  "immutableReferences": {
    "2849": [
      {
        "length": 32,
        "start": 997
      },
      {
        "length": 32,
        "start": 1403
      },
      {
        "length": 32,
        "start": 1516
      },
      {
        "length": 32,
        "start": 1850
      },
      {
        "length": 32,
        "start": 1914
      },
      {
        "length": 32,
        "start": 2637
      }
    ]
  },
  "source": "// SPDX-License-Identifier: MIT\npragma solidity 0.6.12;\n\nimport \"./interfaces/IRewardStaking.sol\";\nimport \"./interfaces/ILockedMuuu.sol\";\nimport \"./interfaces/IDelegation.sol\";\nimport \"./interfaces/IKglDepositor.sol\";\nimport \"@openzeppelin/contracts/token/ERC20/IERC20.sol\";\nimport \"@openzeppelin/contracts/utils/Address.sol\";\nimport \"@openzeppelin/contracts/token/ERC20/SafeERC20.sol\";\n\n//Basic functionality to integrate with locking muuu\ncontract BasicMuuuHolder {\n  using SafeERC20 for IERC20;\n  using Address for address;\n\n  address public constant muKgl = address(0x62B9c7356A2Dc64a1969e19C23e4f579F9810Aa7);\n  address public constant mukglStaking = address(0x3Fe65692bfCD0e6CF84cB1E7d24108E434A7587e);\n  address public constant muuu = address(0x4e3FBD56CD56c3e72c1403e103b45Db9da5B9D2B);\n  address public constant kgl = address(0xD533a949740bb3306d119CC777fa900bA034cd52);\n  address public constant kglDeposit = address(0x8014595F2AB54cD7c604B00E9fb932176fDc86Ae);\n\n  address public operator;\n  ILockedMuuu public immutable muuulocker;\n\n  constructor(address _muuulocker) public {\n    muuulocker = ILockedMuuu(_muuulocker);\n    operator = msg.sender;\n  }\n\n  function setApprovals() external {\n    IERC20(muKgl).safeApprove(mukglStaking, 0);\n    IERC20(muKgl).safeApprove(mukglStaking, uint256(-1));\n\n    IERC20(muuu).safeApprove(address(muuulocker), 0);\n    IERC20(muuu).safeApprove(address(muuulocker), uint256(-1));\n\n    IERC20(kgl).safeApprove(kglDeposit, 0);\n    IERC20(kgl).safeApprove(kglDeposit, uint256(-1));\n  }\n\n  function setOperator(address _op) external {\n    require(msg.sender == operator, \"!auth\");\n    operator = _op;\n  }\n\n  function setDelegate(address _delegateContract, address _delegate) external {\n    require(msg.sender == operator, \"!auth\");\n    // IDelegation(_delegateContract).setDelegate(keccak256(\"muuu.eth\"), _delegate);\n    IDelegation(_delegateContract).setDelegate(\"muuu.eth\", _delegate);\n  }\n\n  function lock(uint256 _amount, uint256 _spendRatio) external {\n    require(msg.sender == operator, \"!auth\");\n\n    if (_amount > 0) {\n      IERC20(muuu).safeTransferFrom(msg.sender, address(this), _amount);\n    }\n    _amount = IERC20(muuu).balanceOf(address(this));\n\n    muuulocker.lock(address(this), _amount, _spendRatio);\n  }\n\n  function processExpiredLocks(bool _relock, uint256 _spendRatio) external {\n    require(msg.sender == operator, \"!auth\");\n\n    muuulocker.processExpiredLocks(_relock, _spendRatio, address(this));\n  }\n\n  function processRewards() external {\n    require(msg.sender == operator, \"!auth\");\n\n    muuulocker.getReward(address(this), true);\n    IRewardStaking(mukglStaking).getReward(address(this), true);\n\n    uint256 kglBal = IERC20(kgl).balanceOf(address(this));\n    if (kglBal > 0) {\n      IKglDepositor(kglDeposit).deposit(kglBal, true);\n    }\n\n    uint mukglBal = IERC20(muKgl).balanceOf(address(this));\n    if (mukglBal > 0) {\n      IRewardStaking(mukglStaking).stake(mukglBal);\n    }\n  }\n\n  function withdrawMuKgl(uint256 _amount, address _withdrawTo) external {\n    require(msg.sender == operator, \"!auth\");\n    require(_withdrawTo != address(0), \"bad address\");\n\n    IRewardStaking(mukglStaking).withdraw(_amount, true);\n    uint mukglBal = IERC20(muKgl).balanceOf(address(this));\n    if (mukglBal > 0) {\n      IERC20(muKgl).safeTransfer(_withdrawTo, mukglBal);\n    }\n  }\n\n  function withdrawTo(\n    IERC20 _asset,\n    uint256 _amount,\n    address _to\n  ) external {\n    require(msg.sender == operator, \"!auth\");\n\n    _asset.safeTransfer(_to, _amount);\n  }\n\n  function execute(\n    address _to,\n    uint256 _value,\n    bytes calldata _data\n  ) external returns (bool, bytes memory) {\n    require(msg.sender == operator, \"!auth\");\n\n    (bool success, bytes memory result) = _to.call{ value: _value }(_data);\n\n    return (success, result);\n  }\n}\n",
  "sourcePath": "/Users/linnefromice/repository/github.com/muuu-finance/muuu-protocol/contracts/contracts/BasicMuuuHolder.sol",
  "compiler": {
    "name": "solc",
    "version": "0.6.12+commit.27d51765.Emscripten.clang"
  },
  "schemaVersion": "3.4.6",
  "updatedAt": "2022-03-16T12:46:38.987Z",
  "devdoc": {
    "kind": "dev",
    "methods": {},
    "version": 1
  },
  "userdoc": {
    "kind": "user",
    "methods": {},
    "version": 1
  }
}