{
  "contractName": "Booster",
  "abi": [
    {
      "inputs": [
        {
          "internalType": "address",
          "name": "_staker",
          "type": "address"
        },
        {
          "internalType": "address",
          "name": "_minter",
          "type": "address"
        },
        {
          "internalType": "address",
          "name": "_kgl",
          "type": "address"
        },
        {
          "internalType": "address",
          "name": "_registry",
          "type": "address"
        }
      ],
      "stateMutability": "nonpayable",
      "type": "constructor"
    },
    {
      "anonymous": false,
      "inputs": [
        {
          "indexed": true,
          "internalType": "address",
          "name": "user",
          "type": "address"
        },
        {
          "indexed": true,
          "internalType": "uint256",
          "name": "poolid",
          "type": "uint256"
        },
        {
          "indexed": false,
          "internalType": "uint256",
          "name": "amount",
          "type": "uint256"
        }
      ],
      "name": "Deposited",
      "type": "event"
    },
    {
      "anonymous": false,
      "inputs": [],
      "name": "FeesEarmarked",
      "type": "event"
    },
    {
      "anonymous": false,
      "inputs": [
        {
          "indexed": true,
          "internalType": "address",
          "name": "previousOwner",
          "type": "address"
        },
        {
          "indexed": true,
          "internalType": "address",
          "name": "newOwner",
          "type": "address"
        }
      ],
      "name": "OwnershipTransferred",
      "type": "event"
    },
    {
      "anonymous": false,
      "inputs": [
        {
          "indexed": false,
          "internalType": "address",
          "name": "lptoken",
          "type": "address"
        },
        {
          "indexed": false,
          "internalType": "address",
          "name": "gauge",
          "type": "address"
        },
        {
          "indexed": false,
          "internalType": "uint256",
          "name": "stashVersion",
          "type": "uint256"
        }
      ],
      "name": "PoolAdded",
      "type": "event"
    },
    {
      "anonymous": false,
      "inputs": [
        {
          "indexed": false,
          "internalType": "uint256",
          "name": "pid",
          "type": "uint256"
        }
      ],
      "name": "PoolShutdown",
      "type": "event"
    },
    {
      "anonymous": false,
      "inputs": [
        {
          "indexed": false,
          "internalType": "uint256",
          "name": "pid",
          "type": "uint256"
        }
      ],
      "name": "RewardsEarmarked",
      "type": "event"
    },
    {
      "anonymous": false,
      "inputs": [
        {
          "indexed": true,
          "internalType": "address",
          "name": "user",
          "type": "address"
        },
        {
          "indexed": true,
          "internalType": "uint256",
          "name": "poolid",
          "type": "uint256"
        },
        {
          "indexed": false,
          "internalType": "uint256",
          "name": "amount",
          "type": "uint256"
        }
      ],
      "name": "Withdrawn",
      "type": "event"
    },
    {
      "inputs": [],
      "name": "FEE_DENOMINATOR",
      "outputs": [
        {
          "internalType": "uint256",
          "name": "",
          "type": "uint256"
        }
      ],
      "stateMutability": "view",
      "type": "function"
    },
    {
      "inputs": [],
      "name": "MULTIPLIER_DENOMINATOR",
      "outputs": [
        {
          "internalType": "uint256",
          "name": "",
          "type": "uint256"
        }
      ],
      "stateMutability": "view",
      "type": "function"
    },
    {
      "inputs": [],
      "name": "MaxFees",
      "outputs": [
        {
          "internalType": "uint256",
          "name": "",
          "type": "uint256"
        }
      ],
      "stateMutability": "view",
      "type": "function"
    },
    {
      "inputs": [],
      "name": "distributionAddressId",
      "outputs": [
        {
          "internalType": "uint256",
          "name": "",
          "type": "uint256"
        }
      ],
      "stateMutability": "view",
      "type": "function"
    },
    {
      "inputs": [],
      "name": "earmarkIncentive",
      "outputs": [
        {
          "internalType": "uint256",
          "name": "",
          "type": "uint256"
        }
      ],
      "stateMutability": "view",
      "type": "function"
    },
    {
      "inputs": [],
      "name": "feeDistro",
      "outputs": [
        {
          "internalType": "address",
          "name": "",
          "type": "address"
        }
      ],
      "stateMutability": "view",
      "type": "function"
    },
    {
      "inputs": [],
      "name": "feeManager",
      "outputs": [
        {
          "internalType": "address",
          "name": "",
          "type": "address"
        }
      ],
      "stateMutability": "view",
      "type": "function"
    },
    {
      "inputs": [],
      "name": "feeToken",
      "outputs": [
        {
          "internalType": "address",
          "name": "",
          "type": "address"
        }
      ],
      "stateMutability": "view",
      "type": "function"
    },
    {
      "inputs": [
        {
          "internalType": "address",
          "name": "",
          "type": "address"
        }
      ],
      "name": "gaugeMap",
      "outputs": [
        {
          "internalType": "bool",
          "name": "",
          "type": "bool"
        }
      ],
      "stateMutability": "view",
      "type": "function"
    },
    {
      "inputs": [],
      "name": "isShutdown",
      "outputs": [
        {
          "internalType": "bool",
          "name": "",
          "type": "bool"
        }
      ],
      "stateMutability": "view",
      "type": "function"
    },
    {
      "inputs": [],
      "name": "kgl",
      "outputs": [
        {
          "internalType": "address",
          "name": "",
          "type": "address"
        }
      ],
      "stateMutability": "view",
      "type": "function"
    },
    {
      "inputs": [],
      "name": "lockFees",
      "outputs": [
        {
          "internalType": "address",
          "name": "",
          "type": "address"
        }
      ],
      "stateMutability": "view",
      "type": "function"
    },
    {
      "inputs": [],
      "name": "lockIncentive",
      "outputs": [
        {
          "internalType": "uint256",
          "name": "",
          "type": "uint256"
        }
      ],
      "stateMutability": "view",
      "type": "function"
    },
    {
      "inputs": [],
      "name": "lockRewards",
      "outputs": [
        {
          "internalType": "address",
          "name": "",
          "type": "address"
        }
      ],
      "stateMutability": "view",
      "type": "function"
    },
    {
      "inputs": [],
      "name": "lockerStakingProxy",
      "outputs": [
        {
          "internalType": "address",
          "name": "",
          "type": "address"
        }
      ],
      "stateMutability": "view",
      "type": "function"
    },
    {
      "inputs": [],
      "name": "minter",
      "outputs": [
        {
          "internalType": "address",
          "name": "",
          "type": "address"
        }
      ],
      "stateMutability": "view",
      "type": "function"
    },
    {
      "inputs": [],
      "name": "nativeTokenLockIncentive",
      "outputs": [
        {
          "internalType": "uint256",
          "name": "",
          "type": "uint256"
        }
      ],
      "stateMutability": "view",
      "type": "function"
    },
    {
      "inputs": [],
      "name": "owner",
      "outputs": [
        {
          "internalType": "address",
          "name": "",
          "type": "address"
        }
      ],
      "stateMutability": "view",
      "type": "function"
    },
    {
      "inputs": [
        {
          "internalType": "uint256",
          "name": "",
          "type": "uint256"
        }
      ],
      "name": "poolInfo",
      "outputs": [
        {
          "internalType": "address",
          "name": "lptoken",
          "type": "address"
        },
        {
          "internalType": "address",
          "name": "token",
          "type": "address"
        },
        {
          "internalType": "address",
          "name": "gauge",
          "type": "address"
        },
        {
          "internalType": "address",
          "name": "kglRewards",
          "type": "address"
        },
        {
          "internalType": "address",
          "name": "stash",
          "type": "address"
        },
        {
          "internalType": "bool",
          "name": "shutdown",
          "type": "bool"
        }
      ],
      "stateMutability": "view",
      "type": "function"
    },
    {
      "inputs": [],
      "name": "poolManager",
      "outputs": [
        {
          "internalType": "address",
          "name": "",
          "type": "address"
        }
      ],
      "stateMutability": "view",
      "type": "function"
    },
    {
      "inputs": [],
      "name": "registry",
      "outputs": [
        {
          "internalType": "address",
          "name": "",
          "type": "address"
        }
      ],
      "stateMutability": "view",
      "type": "function"
    },
    {
      "inputs": [],
      "name": "renounceOwnership",
      "outputs": [],
      "stateMutability": "nonpayable",
      "type": "function"
    },
    {
      "inputs": [],
      "name": "rewardArbitrator",
      "outputs": [
        {
          "internalType": "address",
          "name": "",
          "type": "address"
        }
      ],
      "stateMutability": "view",
      "type": "function"
    },
    {
      "inputs": [],
      "name": "rewardFactory",
      "outputs": [
        {
          "internalType": "address",
          "name": "",
          "type": "address"
        }
      ],
      "stateMutability": "view",
      "type": "function"
    },
    {
      "inputs": [],
      "name": "rewardMultiplier",
      "outputs": [
        {
          "internalType": "uint256",
          "name": "",
          "type": "uint256"
        }
      ],
      "stateMutability": "view",
      "type": "function"
    },
    {
      "inputs": [],
      "name": "staker",
      "outputs": [
        {
          "internalType": "address",
          "name": "",
          "type": "address"
        }
      ],
      "stateMutability": "view",
      "type": "function"
    },
    {
      "inputs": [],
      "name": "stakerIncentive",
      "outputs": [
        {
          "internalType": "uint256",
          "name": "",
          "type": "uint256"
        }
      ],
      "stateMutability": "view",
      "type": "function"
    },
    {
      "inputs": [],
      "name": "stakerRewards",
      "outputs": [
        {
          "internalType": "address",
          "name": "",
          "type": "address"
        }
      ],
      "stateMutability": "view",
      "type": "function"
    },
    {
      "inputs": [],
      "name": "stashFactory",
      "outputs": [
        {
          "internalType": "address",
          "name": "",
          "type": "address"
        }
      ],
      "stateMutability": "view",
      "type": "function"
    },
    {
      "inputs": [],
      "name": "tokenFactory",
      "outputs": [
        {
          "internalType": "address",
          "name": "",
          "type": "address"
        }
      ],
      "stateMutability": "view",
      "type": "function"
    },
    {
      "inputs": [
        {
          "internalType": "address",
          "name": "newOwner",
          "type": "address"
        }
      ],
      "name": "transferOwnership",
      "outputs": [],
      "stateMutability": "nonpayable",
      "type": "function"
    },
    {
      "inputs": [],
      "name": "voteDelegate",
      "outputs": [
        {
          "internalType": "address",
          "name": "",
          "type": "address"
        }
      ],
      "stateMutability": "view",
      "type": "function"
    },
    {
      "inputs": [],
      "name": "voteOwnership",
      "outputs": [
        {
          "internalType": "address",
          "name": "",
          "type": "address"
        }
      ],
      "stateMutability": "view",
      "type": "function"
    },
    {
      "inputs": [],
      "name": "voteParameter",
      "outputs": [
        {
          "internalType": "address",
          "name": "",
          "type": "address"
        }
      ],
      "stateMutability": "view",
      "type": "function"
    },
    {
      "inputs": [
        {
          "internalType": "address",
          "name": "_kgl",
          "type": "address"
        }
      ],
      "name": "setKgl",
      "outputs": [],
      "stateMutability": "nonpayable",
      "type": "function"
    },
    {
      "inputs": [
        {
          "internalType": "address",
          "name": "_feeM",
          "type": "address"
        }
      ],
      "name": "setFeeManager",
      "outputs": [],
      "stateMutability": "nonpayable",
      "type": "function"
    },
    {
      "inputs": [
        {
          "internalType": "address",
          "name": "_poolM",
          "type": "address"
        }
      ],
      "name": "setPoolManager",
      "outputs": [],
      "stateMutability": "nonpayable",
      "type": "function"
    },
    {
      "inputs": [
        {
          "internalType": "address",
          "name": "_rfactory",
          "type": "address"
        },
        {
          "internalType": "address",
          "name": "_sfactory",
          "type": "address"
        },
        {
          "internalType": "address",
          "name": "_tfactory",
          "type": "address"
        }
      ],
      "name": "setFactories",
      "outputs": [],
      "stateMutability": "nonpayable",
      "type": "function"
    },
    {
      "inputs": [
        {
          "internalType": "address",
          "name": "_arb",
          "type": "address"
        }
      ],
      "name": "setArbitrator",
      "outputs": [],
      "stateMutability": "nonpayable",
      "type": "function"
    },
    {
      "inputs": [
        {
          "internalType": "address",
          "name": "_voteDelegate",
          "type": "address"
        }
      ],
      "name": "setVoteDelegate",
      "outputs": [],
      "stateMutability": "nonpayable",
      "type": "function"
    },
    {
      "inputs": [
        {
          "internalType": "address",
          "name": "_rewards",
          "type": "address"
        },
        {
          "internalType": "address",
          "name": "_stakerRewards",
          "type": "address"
        }
      ],
      "name": "setRewardContracts",
      "outputs": [],
      "stateMutability": "nonpayable",
      "type": "function"
    },
    {
      "inputs": [],
      "name": "setFeeInfo",
      "outputs": [],
      "stateMutability": "nonpayable",
      "type": "function"
    },
    {
      "inputs": [
        {
          "internalType": "uint256",
          "name": "_lockFees",
          "type": "uint256"
        },
        {
          "internalType": "uint256",
          "name": "_stakerFees",
          "type": "uint256"
        },
        {
          "internalType": "uint256",
          "name": "_callerFees",
          "type": "uint256"
        },
        {
          "internalType": "uint256",
          "name": "_nativeTokenLockFees",
          "type": "uint256"
        }
      ],
      "name": "setFees",
      "outputs": [],
      "stateMutability": "nonpayable",
      "type": "function"
    },
    {
      "inputs": [
        {
          "internalType": "address",
          "name": "_lockerStakingProxy",
          "type": "address"
        }
      ],
      "name": "setLockerStakingProxy",
      "outputs": [],
      "stateMutability": "nonpayable",
      "type": "function"
    },
    {
      "inputs": [
        {
          "internalType": "address",
          "name": "_registry",
          "type": "address"
        }
      ],
      "name": "setRegistry",
      "outputs": [],
      "stateMutability": "nonpayable",
      "type": "function"
    },
    {
      "inputs": [
        {
          "internalType": "uint256",
          "name": "_rewardMultiplier",
          "type": "uint256"
        }
      ],
      "name": "setRewardMultiplier",
      "outputs": [],
      "stateMutability": "nonpayable",
      "type": "function"
    },
    {
      "inputs": [
        {
          "internalType": "address",
          "name": "_voteOwnership",
          "type": "address"
        }
      ],
      "name": "setVoteOwnership",
      "outputs": [],
      "stateMutability": "nonpayable",
      "type": "function"
    },
    {
      "inputs": [
        {
          "internalType": "address",
          "name": "_voteParameter",
          "type": "address"
        }
      ],
      "name": "setVoteParameter",
      "outputs": [],
      "stateMutability": "nonpayable",
      "type": "function"
    },
    {
      "inputs": [],
      "name": "poolLength",
      "outputs": [
        {
          "internalType": "uint256",
          "name": "",
          "type": "uint256"
        }
      ],
      "stateMutability": "view",
      "type": "function"
    },
    {
      "inputs": [
        {
          "internalType": "address",
          "name": "_lptoken",
          "type": "address"
        },
        {
          "internalType": "address",
          "name": "_gauge",
          "type": "address"
        },
        {
          "internalType": "uint256",
          "name": "_stashVersion",
          "type": "uint256"
        }
      ],
      "name": "addPool",
      "outputs": [
        {
          "internalType": "bool",
          "name": "",
          "type": "bool"
        }
      ],
      "stateMutability": "nonpayable",
      "type": "function"
    },
    {
      "inputs": [
        {
          "internalType": "uint256",
          "name": "_pid",
          "type": "uint256"
        }
      ],
      "name": "shutdownPool",
      "outputs": [
        {
          "internalType": "bool",
          "name": "",
          "type": "bool"
        }
      ],
      "stateMutability": "nonpayable",
      "type": "function"
    },
    {
      "inputs": [],
      "name": "shutdownSystem",
      "outputs": [],
      "stateMutability": "nonpayable",
      "type": "function"
    },
    {
      "inputs": [
        {
          "internalType": "uint256",
          "name": "_pid",
          "type": "uint256"
        },
        {
          "internalType": "uint256",
          "name": "_amount",
          "type": "uint256"
        },
        {
          "internalType": "bool",
          "name": "_stake",
          "type": "bool"
        }
      ],
      "name": "deposit",
      "outputs": [
        {
          "internalType": "bool",
          "name": "",
          "type": "bool"
        }
      ],
      "stateMutability": "nonpayable",
      "type": "function"
    },
    {
      "inputs": [
        {
          "internalType": "uint256",
          "name": "_pid",
          "type": "uint256"
        },
        {
          "internalType": "bool",
          "name": "_stake",
          "type": "bool"
        }
      ],
      "name": "depositAll",
      "outputs": [
        {
          "internalType": "bool",
          "name": "",
          "type": "bool"
        }
      ],
      "stateMutability": "nonpayable",
      "type": "function"
    },
    {
      "inputs": [
        {
          "internalType": "uint256",
          "name": "_pid",
          "type": "uint256"
        },
        {
          "internalType": "uint256",
          "name": "_amount",
          "type": "uint256"
        }
      ],
      "name": "withdraw",
      "outputs": [
        {
          "internalType": "bool",
          "name": "",
          "type": "bool"
        }
      ],
      "stateMutability": "nonpayable",
      "type": "function"
    },
    {
      "inputs": [
        {
          "internalType": "uint256",
          "name": "_pid",
          "type": "uint256"
        }
      ],
      "name": "withdrawAll",
      "outputs": [
        {
          "internalType": "bool",
          "name": "",
          "type": "bool"
        }
      ],
      "stateMutability": "nonpayable",
      "type": "function"
    },
    {
      "inputs": [
        {
          "internalType": "uint256",
          "name": "_pid",
          "type": "uint256"
        },
        {
          "internalType": "uint256",
          "name": "_amount",
          "type": "uint256"
        },
        {
          "internalType": "address",
          "name": "_to",
          "type": "address"
        }
      ],
      "name": "withdrawTo",
      "outputs": [
        {
          "internalType": "bool",
          "name": "",
          "type": "bool"
        }
      ],
      "stateMutability": "nonpayable",
      "type": "function"
    },
    {
      "inputs": [
        {
          "internalType": "uint256",
          "name": "_voteId",
          "type": "uint256"
        },
        {
          "internalType": "address",
          "name": "_votingAddress",
          "type": "address"
        },
        {
          "internalType": "bool",
          "name": "_support",
          "type": "bool"
        }
      ],
      "name": "vote",
      "outputs": [
        {
          "internalType": "bool",
          "name": "",
          "type": "bool"
        }
      ],
      "stateMutability": "nonpayable",
      "type": "function"
    },
    {
      "inputs": [
        {
          "internalType": "address[]",
          "name": "_gauge",
          "type": "address[]"
        },
        {
          "internalType": "uint256[]",
          "name": "_weight",
          "type": "uint256[]"
        }
      ],
      "name": "voteGaugeWeight",
      "outputs": [
        {
          "internalType": "bool",
          "name": "",
          "type": "bool"
        }
      ],
      "stateMutability": "nonpayable",
      "type": "function"
    },
    {
      "inputs": [
        {
          "internalType": "uint256",
          "name": "_pid",
          "type": "uint256"
        },
        {
          "internalType": "address",
          "name": "_gauge",
          "type": "address"
        }
      ],
      "name": "claimRewards",
      "outputs": [
        {
          "internalType": "bool",
          "name": "",
          "type": "bool"
        }
      ],
      "stateMutability": "nonpayable",
      "type": "function"
    },
    {
      "inputs": [
        {
          "internalType": "uint256",
          "name": "_pid",
          "type": "uint256"
        }
      ],
      "name": "setGaugeRedirect",
      "outputs": [
        {
          "internalType": "bool",
          "name": "",
          "type": "bool"
        }
      ],
      "stateMutability": "nonpayable",
      "type": "function"
    },
    {
      "inputs": [
        {
          "internalType": "uint256",
          "name": "_pid",
          "type": "uint256"
        }
      ],
      "name": "earmarkRewards",
      "outputs": [
        {
          "internalType": "bool",
          "name": "",
          "type": "bool"
        }
      ],
      "stateMutability": "nonpayable",
      "type": "function"
    },
    {
      "inputs": [],
      "name": "earmarkFees",
      "outputs": [
        {
          "internalType": "bool",
          "name": "",
          "type": "bool"
        }
      ],
      "stateMutability": "nonpayable",
      "type": "function"
    },
    {
      "inputs": [
        {
          "internalType": "uint256",
          "name": "_pid",
          "type": "uint256"
        },
        {
          "internalType": "address",
          "name": "_address",
          "type": "address"
        },
        {
          "internalType": "uint256",
          "name": "_amount",
          "type": "uint256"
        }
      ],
      "name": "rewardClaimed",
      "outputs": [
        {
          "internalType": "bool",
          "name": "",
          "type": "bool"
        }
      ],
      "stateMutability": "nonpayable",
      "type": "function"
    }
  ],
  "bytecode": "0x60c06040526103e86004556101f46005556000600655606460075561203a6008553480156200002d57600080fd5b506040516200413638038062004136833981810160405260808110156200005357600080fd5b508051602082015160408301516060909301519192909160006200007662000163565b600080546001600160a01b0319166001600160a01b0383169081178255604051929350917f8be0079c531659141344cd1fd0a4f28419497f9722a3daafe3b4186f6b6457e0908290a35060168054606095861b6001600160601b0319908116608052600f8054336001600160a01b0319918216811790925560098054821683179055600a805482169092179091556014805482169055601580548216905560108054821690559590961b90951660a0526001805485166001600160a01b039485161790556001600160a81b0319909416911617909155600280548216905560038054909116905562000167565b3390565b60805160601c60a05160601c613f5f620001d760003980610aa95280611c5b525080610c9a5280610f2052806110915280611109528061174e52806118b85280611a08528061213752806123b552806125ef5280612afb5280612e4252806130f552806136225250613f5f6000f3fe608060405234801561001057600080fd5b50600436106103d05760003560e01c80637bd3b995116101ff578063bfad96ba1161011a578063da31d028116100ad578063e77772fe1161007c578063e77772fe14610a2d578063ed794dfc14610a35578063f2fde38b14610a5b578063fe6ca78214610a81576103d0565b8063da31d028146109c3578063dc4c90d3146109e9578063e0fc319e146109f1578063e2cdd42a146109f9576103d0565b8063d0fb0203116100e9578063d0fb0203146109a3578063d6a0f530146109ab578063d73792a9146109b3578063d782139a146109bb576103d0565b8063bfad96ba14610896578063cb0d5b5214610958578063cc956f3f1461097e578063cfb9cfba1461099b576103d0565b8063a386a08011610192578063b0eefabe11610161578063b0eefabe1461083a578063b42eda7114610860578063bf09dac014610868578063bf86d6901461088e576103d0565b8063a386a080146107fc578063a485e58f14610804578063a91ee0dc1461080c578063ab36629214610832576103d0565b806393e846a0116101ce57806393e846a0146107a157806395539a1d146107a9578063958e2d31146107d75780639f00332b146107f4576103d0565b80637bd3b9951461070e5780637e29d6c2146107465780638da5cb5b1461077c5780639123d40414610784576103d0565b806351b625a9116102ef5780636f2c590a116102825780637303df9a116102515780637303df9a146106b257806374874323146106ba5780637aef6715146106e05780637b10399914610706576103d0565b80636f2c590a146106415780636fcba3771461064957806371192b1714610678578063715018a6146106aa576103d0565b806360cafe84116102be57806360cafe84146105e857806362d28ac714610605578063647846a51461060d5780636c7b69cb14610615576103d0565b806351b625a91461058d5780635a4ae5ca146105b35780635ebaf1db146105bb57806360759fce146105c3576103d0565b8063245e4bf01161036757806343a0d0661161033657806343a0d06614610511578063441a3e701461053c578063472d35b91461055f5780635094061814610585576103d0565b8063245e4bf0146104f1578063354af919146104f9578063376d771a146105015780633a088cd214610509576103d0565b80630bd075a1116103a35780630bd075a11461042357806314cd70e4146104425780631526fe271461048857806322230b96146104e9576103d0565b8063043b684a146103d5578063068eb19e146103f95780630754617214610401578063081e3eda14610409575b600080fd5b6103dd610a89565b604080516001600160a01b039092168252519081900360200190f35b6103dd610a98565b6103dd610aa7565b610411610acb565b60408051918252519081900360200190f35b6104406004803603602081101561043957600080fd5b5035610ad1565b005b6104746004803603606081101561045857600080fd5b50803590602081013590604001356001600160a01b0316610b86565b604080519115158252519081900360200190f35b6104a56004803603602081101561049e57600080fd5b5035610c0a565b604080516001600160a01b0397881681529587166020870152938616858501529185166060850152909316608083015291151560a082015290519081900360c00190f35b610474610c68565b6103dd610e27565b610440610e36565b6103dd610fa9565b610411610fb8565b6104746004803603606081101561052757600080fd5b50803590602081013590604001351515610fbe565b6104746004803603604081101561055257600080fd5b50803590602001356113e1565b6104406004803603602081101561057557600080fd5b50356001600160a01b03166113f9565b610411611462565b610440600480360360208110156105a357600080fd5b50356001600160a01b0316611468565b610440611531565b6103dd61174c565b610474600480360360408110156105d957600080fd5b50803590602001351515611770565b610474600480360360208110156105fe57600080fd5b503561181d565b610411611986565b6103dd61198c565b6104746004803603604081101561062b57600080fd5b50803590602001356001600160a01b031661199b565b610411611a97565b6104406004803603608081101561065f57600080fd5b5080359060208101359060408101359060600135611a9d565b6104746004803603606081101561068e57600080fd5b508035906001600160a01b036020820135169060400135611bb5565b610440611cf3565b610411611d9f565b610440600480360360208110156106d057600080fd5b50356001600160a01b0316611da5565b610440600480360360208110156106f657600080fd5b50356001600160a01b0316611e0e565b6103dd611e77565b6104406004803603606081101561072457600080fd5b506001600160a01b038135811691602081013582169160409091013516611e86565b6104746004803603606081101561075c57600080fd5b506001600160a01b03813581169160208101359091169060400135611f40565b6103dd6124da565b6104746004803603602081101561079a57600080fd5b50356124e9565b610411612792565b610440600480360360408110156107bf57600080fd5b506001600160a01b0381358116916020013516612797565b610474600480360360208110156107ed57600080fd5b5035612831565b6103dd6128e0565b6103dd6128ef565b6104116128fe565b6104406004803603602081101561082257600080fd5b50356001600160a01b0316612904565b6103dd61297b565b6104406004803603602081101561085057600080fd5b50356001600160a01b031661298a565b6103dd612a01565b6104406004803603602081101561087e57600080fd5b50356001600160a01b0316612a10565b610474612a94565b610474600480360360408110156108ac57600080fd5b8101906020810181356401000000008111156108c757600080fd5b8201836020820111156108d957600080fd5b803590602001918460208302840111640100000000831117156108fb57600080fd5b91939092909160208101903564010000000081111561091957600080fd5b82018360208201111561092b57600080fd5b8035906020019184602083028401116401000000008311171561094d57600080fd5b509092509050612aa4565b6104746004803603602081101561096e57600080fd5b50356001600160a01b0316612bc1565b6104746004803603602081101561099457600080fd5b5035612bd6565b6103dd612c67565b6103dd612c76565b6103dd612c85565b610411612c94565b6103dd612c9a565b610440600480360360208110156109d957600080fd5b50356001600160a01b0316612ca9565b6103dd612d72565b6103dd612d81565b61047460048036036060811015610a0f57600080fd5b508035906001600160a01b0360208201351690604001351515612d90565b6103dd612ec1565b61044060048036036020811015610a4b57600080fd5b50356001600160a01b0316612ed0565b61044060048036036020811015610a7157600080fd5b50356001600160a01b0316612f39565b61041161303b565b600e546001600160a01b031681565b600c546001600160a01b031681565b7f000000000000000000000000000000000000000000000000000000000000000081565b60175490565b610ad9613042565b6001600160a01b0316610aea6124da565b6001600160a01b031614610b33576040805162461bcd60e51b81526020600482018190526024820152600080516020613e5f833981519152604482015290519081900360640190fd5b600081118015610b465750620186a08111155b610b815760405162461bcd60e51b8152600401808060200182810382526023815260200180613e7f6023913960400191505060405180910390fd5b600855565b60008060178581548110610b9657fe5b60009182526020909120600360059092020101546001600160a01b03169050338114610bf1576040805162461bcd60e51b8152602060048201526005602482015264042c2eae8d60db1b604482015290519081900360640190fd5b610bfd85853386613046565b60019150505b9392505050565b60178181548110610c1757fe5b6000918252602090912060059091020180546001820154600283015460038401546004909401546001600160a01b03938416955091831693908316929081169190811690600160a01b900460ff1686565b60145460155460408051632dbfa73560e01b81526001600160a01b0393841660048201529183166024830152516000927f00000000000000000000000000000000000000000000000000000000000000001691632dbfa735916044808301928692919082900301818387803b158015610ce057600080fd5b505af1158015610cf4573d6000803e3d6000fd5b5050601554604080516370a0823160e01b81523060048201529051600094506001600160a01b0390921692506370a08231916024808301926020929190829003018186803b158015610d4557600080fd5b505afa158015610d59573d6000803e3d6000fd5b505050506040513d6020811015610d6f57600080fd5b5051601354601554919250610d91916001600160a01b0390811691168361329f565b6013546040805163590a41f560e01b81526004810184905290516001600160a01b039092169163590a41f59160248082019260009290919082900301818387803b158015610dde57600080fd5b505af1158015610df2573d6000803e3d6000fd5b50506040517f3a24d91c583c14a3aa91777e50eb9cb8ed19df170ba68bf0dcc559fc8092a8f0925060009150a1600191505090565b600b546001600160a01b031681565b610e3e6124da565b6001600160a01b0316336001600160a01b031614610e8b576040805162461bcd60e51b8152602060048201526005602482015264042c2eae8d60db1b604482015290519081900360640190fd5b6016805460ff60a01b1916600160a01b17905560005b601754811015610fa657600060178281548110610eba57fe5b906000526020600020906005020190508060040160149054906101000a900460ff1615610ee75750610f9e565b80546002820154604080516301395c5960e31b81526001600160a01b0393841660048201819052928416602482018190529151929391927f0000000000000000000000000000000000000000000000000000000000000000909216916309cae2c89160448082019260009290919082900301818387803b158015610f6a57600080fd5b505af1925050508015610f7b575060015b610f8457610f9a565b60048301805460ff60a01b1916600160a01b1790555b5050505b600101610ea1565b50565b6012546001600160a01b031681565b60065481565b601654600090600160a01b900460ff161561100b576040805162461bcd60e51b815260206004820152600860248201526739b43aba3237bbb760c11b604482015290519081900360640190fd5b60006017858154811061101a57fe5b600091825260209091206005909102016004810154909150600160a01b900460ff161561107f576040805162461bcd60e51b815260206004820152600e60248201526d1c1bdbdb081a5cc818db1bdcd95960921b604482015290519081900360640190fd5b80546001600160a01b03166110b681337f0000000000000000000000000000000000000000000000000000000000000000886132f6565b60028201546001600160a01b031680611107576040805162461bcd60e51b815260206004820152600e60248201526d2167617567652073657474696e6760901b604482015290519081900360640190fd5b7f00000000000000000000000000000000000000000000000000000000000000006001600160a01b031663f9609f0883836040518363ffffffff1660e01b815260040180836001600160a01b03168152602001826001600160a01b0316815260200192505050600060405180830381600087803b15801561118757600080fd5b505af115801561119b573d6000803e3d6000fd5b5050505060048301546001600160a01b0316801561121b57806001600160a01b031663b87bd4816040518163ffffffff1660e01b8152600401602060405180830381600087803b1580156111ee57600080fd5b505af1158015611202573d6000803e3d6000fd5b505050506040513d602081101561121857600080fd5b50505b60018401546001600160a01b0316861561133457604080516340c10f1960e01b8152306004820152602481018a905290516001600160a01b038316916340c10f1991604480830192600092919082900301818387803b15801561127d57600080fd5b505af1158015611291573d6000803e3d6000fd5b50505060038601546001600160a01b0390811691506112b4908316826000613356565b6112c86001600160a01b038316828b613356565b604080516305dc812160e31b8152336004820152602481018b905290516001600160a01b03831691632ee4090891604480830192600092919082900301818387803b15801561131657600080fd5b505af115801561132a573d6000803e3d6000fd5b505050505061139b565b604080516340c10f1960e01b8152336004820152602481018a905290516001600160a01b038316916340c10f1991604480830192600092919082900301818387803b15801561138257600080fd5b505af1158015611396573d6000803e3d6000fd5b505050505b6040805189815290518a9133917f73a19dd210f1a7f902193214c0ee91dd35ee5b4d920cba8d519eca65a7b488ca9181900360200190a350600198975050505050505050565b60006113ef83833333613046565b5060015b92915050565b6009546001600160a01b03163314611440576040805162461bcd60e51b8152602060048201526005602482015264042c2eae8d60db1b604482015290519081900360640190fd5b600980546001600160a01b0319166001600160a01b0392909216919091179055565b60045481565b611470613042565b6001600160a01b03166114816124da565b6001600160a01b0316146114ca576040805162461bcd60e51b81526020600482018190526024820152600080516020613e5f833981519152604482015290519081900360640190fd5b6001600160a01b03811661150f5760405162461bcd60e51b8152600401808060200182810382526028815260200180613ea26028913960400191505060405180910390fd5b600380546001600160a01b0319166001600160a01b0392909216919091179055565b6009546001600160a01b03163314611578576040805162461bcd60e51b8152602060048201526005602482015264042c2eae8d60db1b604482015290519081900360640190fd5b6016546040805163124fd3dd60e21b815260048181015290516001600160a01b039092169163493f4f7491602480820192602092909190829003018186803b1580156115c357600080fd5b505afa1580156115d7573d6000803e3d6000fd5b505050506040513d60208110156115ed57600080fd5b5051601480546001600160a01b0319166001600160a01b03928316179081905560408051637e062a3560e11b81529051600093929092169163fc0c546a91600480820192602092909190829003018186803b15801561164b57600080fd5b505afa15801561165f573d6000803e3d6000fd5b505050506040513d602081101561167557600080fd5b50516015549091506001600160a01b03808316911614610fa657600b5460125460408051637c6b091760e11b81526001600160a01b03858116600483015292831660248201523060448201529051919092169163f8d6122e9160648083019260209291908290030181600087803b1580156116ef57600080fd5b505af1158015611703573d6000803e3d6000fd5b505050506040513d602081101561171957600080fd5b5051601380546001600160a01b039283166001600160a01b03199182161790915560158054939092169216919091179055565b7f000000000000000000000000000000000000000000000000000000000000000081565b6000806017848154811061178057fe5b60009182526020808320600590920290910154604080516370a0823160e01b815233600482015290516001600160a01b03909216945084926370a0823192602480840193829003018186803b1580156117d857600080fd5b505afa1580156117ec573d6000803e3d6000fd5b505050506040513d602081101561180257600080fd5b50519050611811858286610fbe565b50600195945050505050565b600a546000906001600160a01b03163314611867576040805162461bcd60e51b8152602060048201526005602482015264042c2eae8d60db1b604482015290519081900360640190fd5b60006017838154811061187657fe5b60009182526020822060059091020180546002820154604080516301395c5960e31b81526001600160a01b0393841660048201529183166024830152519294507f000000000000000000000000000000000000000000000000000000000000000091909116926309cae2c89260448084019382900301818387803b1580156118fd57600080fd5b505af192505050801561190e575060015b5060048101805460ff60a01b1916600160a01b17905560028101546001600160a01b0316600090815260186020908152604091829020805460ff19169055815185815291517f2ccd633716c6ce12394d1c984ad04b6173d18aedc4f505d1537a94a98a07b6e79281900390910190a150600192915050565b60055481565b6015546001600160a01b031681565b600080601784815481106119ab57fe5b60009182526020909120600460059092020101546001600160a01b03169050338114611a06576040805162461bcd60e51b8152602060048201526005602482015264042c2eae8d60db1b604482015290519081900360640190fd5b7f00000000000000000000000000000000000000000000000000000000000000006001600160a01b031663ef5cfb8c846040518263ffffffff1660e01b815260040180826001600160a01b03168152602001915050600060405180830381600087803b158015611a7557600080fd5b505af1158015611a89573d6000803e3d6000fd5b506001979650505050505050565b60085481565b6009546001600160a01b03163314611ae4576040805162461bcd60e51b8152602060048201526005602482015264042c2eae8d60db1b604482015290519081900360640190fd5b6000611afc82611af685818989613469565b90613469565b90506107d0811115611b40576040805162461bcd60e51b81526020600482015260086024820152673e4d61784665657360c01b604482015290519081900360640190fd5b6103e88510158015611b5457506105dc8511155b8015611b62575061012c8410155b8015611b7057506102588411155b8015611b7a575060015b8015611b87575060648311155b8015611b94575060c88211155b15611bae5760048590556005849055600683905560078290555b5050505050565b60008060178581548110611bc557fe5b60009182526020909120600360059092020101546001600160a01b0316905033811480611bfc57506012546001600160a01b031633145b611c35576040805162461bcd60e51b8152602060048201526005602482015264042c2eae8d60db1b604482015290519081900360640190fd5b611c57620186a0611c51600854866134c390919063ffffffff16565b9061351c565b92507f00000000000000000000000000000000000000000000000000000000000000006001600160a01b03166340c10f1985856040518363ffffffff1660e01b815260040180836001600160a01b0316815260200182815260200192505050600060405180830381600087803b158015611cd057600080fd5b505af1158015611ce4573d6000803e3d6000fd5b50600198975050505050505050565b611cfb613042565b6001600160a01b0316611d0c6124da565b6001600160a01b031614611d55576040805162461bcd60e51b81526020600482018190526024820152600080516020613e5f833981519152604482015290519081900360640190fd5b600080546040516001600160a01b03909116907f8be0079c531659141344cd1fd0a4f28419497f9722a3daafe3b4186f6b6457e0908390a3600080546001600160a01b0319169055565b6107d081565b600f546001600160a01b03163314611dec576040805162461bcd60e51b8152602060048201526005602482015264042c2eae8d60db1b604482015290519081900360640190fd5b600f80546001600160a01b0319166001600160a01b0392909216919091179055565b600a546001600160a01b03163314611e55576040805162461bcd60e51b8152602060048201526005602482015264042c2eae8d60db1b604482015290519081900360640190fd5b600a80546001600160a01b0319166001600160a01b0392909216919091179055565b6016546001600160a01b031681565b611e8e6124da565b6001600160a01b0316336001600160a01b031614611edb576040805162461bcd60e51b8152602060048201526005602482015264042c2eae8d60db1b604482015290519081900360640190fd5b600b546001600160a01b0316611f1c57600b80546001600160a01b038086166001600160a01b031992831617909255600d8054928416929091169190911790555b50600c80546001600160a01b0319166001600160a01b039290921691909117905550565b600a546000906001600160a01b031633148015611f675750601654600160a01b900460ff16155b611fa1576040805162461bcd60e51b815260206004808301919091526024820152630858591960e21b604482015290519081900360640190fd5b6001600160a01b03831615801590611fc157506001600160a01b03841615155b611ffb576040805162461bcd60e51b815260206004820152600660248201526521706172616d60d01b604482015290519081900360640190fd5b601754600d5460408051630452a26760e21b81526001600160a01b0388811660048301529151600093929092169163114a899c9160248082019260209290919082900301818787803b15801561205057600080fd5b505af1158015612064573d6000803e3d6000fd5b505050506040513d602081101561207a57600080fd5b5051600b5460408051633a9dc6dd60e01b8152600481018690526001600160a01b03808516602483015291519394506000939190921691633a9dc6dd91604480830192602092919082900301818787803b1580156120d757600080fd5b505af11580156120eb573d6000803e3d6000fd5b505050506040513d602081101561210157600080fd5b50519050600085156121c157600c5460408051634ce5896f60e11b8152600481018790526001600160a01b038a811660248301527f000000000000000000000000000000000000000000000000000000000000000081166044830152606482018a9052915191909216916399cb12de9160848083019260209291908290030181600087803b15801561219257600080fd5b505af11580156121a6573d6000803e3d6000fd5b505050506040513d60208110156121bc57600080fd5b505190505b6040805160c0810182526001600160a01b03808b16825285811660208084019182528b83168486018181528885166060870190815288861660808801818152600060a08a0181815260178054600181810183559184529b516005909c027fc624b66cc0138b8fabc209247f72d758e1cf3343756d543badbf24212bed8c15810180549d8d166001600160a01b03199e8f1617905599517fc624b66cc0138b8fabc209247f72d758e1cf3343756d543badbf24212bed8c168b018054918d16918e1691909117905595517fc624b66cc0138b8fabc209247f72d758e1cf3343756d543badbf24212bed8c178a018054918c16918d1691909117905593517fc624b66cc0138b8fabc209247f72d758e1cf3343756d543badbf24212bed8c1889018054918b16918c1691909117905590517fc624b66cc0138b8fabc209247f72d758e1cf3343756d543badbf24212bed8c19909701805493511515600160a01b0260ff60a01b199890991693909916929092179590951695909517909555835260189052929020805460ff191690911790551561248257806017858154811061236457fe5b6000918252602082206004600590920201810180546001600160a01b039485166001600160a01b031990911617905560408051637d1cb25960e11b81528585169281019290925260016024830152517f00000000000000000000000000000000000000000000000000000000000000009093169263fa3964b29260448084019391929182900301818387803b1580156123fc57600080fd5b505af1158015612410573d6000803e3d6000fd5b5050600b546040805163b84614a560e01b81526001600160a01b03868116600483015260016024830152915191909216935063b84614a59250604480830192600092919082900301818387803b15801561246957600080fd5b505af115801561247d573d6000803e3d6000fd5b505050505b604080516001600160a01b03808b1682528916602082015280820188905290517f616f4319a54dcbbb5a18b8b2f702faa1d9c1030304616fc770ae877f0934fcdd9181900360600190a1506001979650505050505050565b6000546001600160a01b031690565b600080601783815481106124f957fe5b60009182526020909120600460059092020101546001600160a01b03169050338114612554576040805162461bcd60e51b8152602060048201526005602482015264042c2eae8d60db1b604482015290519081900360640190fd5b60006017848154811061256357fe5b6000918252602080832060026005909302019190910154604080516001600160a01b038781166024808401919091528351808403820181526044938401855295860180516001600160e01b0316635efcc08b60e11b1781529351635b0e93fb60e11b815294821660048601818152918601889052606093860193845286516064870152865190985095967f00000000000000000000000000000000000000000000000000000000000000009092169563b61d27f6958995939489949092608490920191808383895b8381101561264357818101518382015260200161262b565b50505050905090810190601f1680156126705780820380516001836020036101000a031916815260200191505b50945050505050600060405180830381600087803b15801561269157600080fd5b505af11580156126a5573d6000803e3d6000fd5b505050506040513d6000823e601f3d908101601f1916820160409081528110156126ce57600080fd5b8151602083018051604051929492938301929190846401000000008211156126f557600080fd5b90830190602082018581111561270a57600080fd5b825164010000000081118282018810171561272457600080fd5b82525081516020918201929091019080838360005b83811015612751578181015183820152602001612739565b50505050905090810190601f16801561277e5780820380516001836020036101000a031916815260200191505b506040525060019998505050505050505050565b600481565b61279f6124da565b6001600160a01b0316336001600160a01b0316146127ec576040805162461bcd60e51b8152602060048201526005602482015264042c2eae8d60db1b604482015290519081900360640190fd5b6012546001600160a01b031661282d57601280546001600160a01b038085166001600160a01b03199283161790925560118054928416929091169190911790555b5050565b6000806017838154811061284157fe5b6000918252602080832060016005909302019190910154604080516370a0823160e01b815233600482015290516001600160a01b03909216945084926370a0823192602480840193829003018186803b15801561289d57600080fd5b505afa1580156128b1573d6000803e3d6000fd5b505050506040513d60208110156128c757600080fd5b505190506128d584826113e1565b506001949350505050565b600f546001600160a01b031681565b6002546001600160a01b031681565b60075481565b61290c6124da565b6001600160a01b0316336001600160a01b031614612959576040805162461bcd60e51b8152602060048201526005602482015264042c2eae8d60db1b604482015290519081900360640190fd5b601680546001600160a01b0319166001600160a01b0392909216919091179055565b6013546001600160a01b031681565b6129926124da565b6001600160a01b0316336001600160a01b0316146129df576040805162461bcd60e51b8152602060048201526005602482015264042c2eae8d60db1b604482015290519081900360640190fd5b600e80546001600160a01b0319166001600160a01b0392909216919091179055565b6003546001600160a01b031681565b612a18613042565b6001600160a01b0316612a296124da565b6001600160a01b031614612a72576040805162461bcd60e51b81526020600482018190526024820152600080516020613e5f833981519152604482015290519081900360640190fd5b600180546001600160a01b0319166001600160a01b0392909216919091179055565b601654600160a01b900460ff1681565b600f546000906001600160a01b03163314612aee576040805162461bcd60e51b8152602060048201526005602482015264042c2eae8d60db1b604482015290519081900360640190fd5b60005b84811015611811577f00000000000000000000000000000000000000000000000000000000000000006001600160a01b0316635d7e9bcb878784818110612b3457fe5b905060200201356001600160a01b0316868685818110612b5057fe5b905060200201356040518363ffffffff1660e01b815260040180836001600160a01b0316815260200182815260200192505050600060405180830381600087803b158015612b9d57600080fd5b505af1158015612bb1573d6000803e3d6000fd5b505060019092019150612af19050565b60186020526000908152604090205460ff1681565b601654600090600160a01b900460ff1615612c23576040805162461bcd60e51b815260206004820152600860248201526739b43aba3237bbb760c11b604482015290519081900360640190fd5b612c2c82613583565b6040805183815290517fa87ef1b0dcf4b36358824986667f41c06870cdf7ae402dc94074b3f0a4070fa39181900360200190a1506001919050565b6011546001600160a01b031681565b6009546001600160a01b031681565b6014546001600160a01b031681565b61271081565b6001546001600160a01b031681565b612cb1613042565b6001600160a01b0316612cc26124da565b6001600160a01b031614612d0b576040805162461bcd60e51b81526020600482018190526024820152600080516020613e5f833981519152604482015290519081900360640190fd5b6001600160a01b038116612d505760405162461bcd60e51b8152600401808060200182810382526028815260200180613dca6028913960400191505060405180910390fd5b600280546001600160a01b0319166001600160a01b0392909216919091179055565b600a546001600160a01b031681565b6010546001600160a01b031681565b600f546000906001600160a01b03163314612dda576040805162461bcd60e51b8152602060048201526005602482015264042c2eae8d60db1b604482015290519081900360640190fd5b6002546001600160a01b0384811691161480612e0357506003546001600160a01b038481169116145b612e40576040805162461bcd60e51b815260206004820152600960248201526810bb37ba32a0b2323960b91b604482015290519081900360640190fd5b7f00000000000000000000000000000000000000000000000000000000000000006001600160a01b031663e2cdd42a8585856040518463ffffffff1660e01b815260040180848152602001836001600160a01b0316815260200182151581526020019350505050600060405180830381600087803b158015611a7557600080fd5b600d546001600160a01b031681565b6009546001600160a01b03163314612f17576040805162461bcd60e51b8152602060048201526005602482015264042c2eae8d60db1b604482015290519081900360640190fd5b601080546001600160a01b0319166001600160a01b0392909216919091179055565b612f41613042565b6001600160a01b0316612f526124da565b6001600160a01b031614612f9b576040805162461bcd60e51b81526020600482018190526024820152600080516020613e5f833981519152604482015290519081900360640190fd5b6001600160a01b038116612fe05760405162461bcd60e51b8152600401808060200182810382526026815260200180613df26026913960400191505060405180910390fd5b600080546040516001600160a01b03808516939216917f8be0079c531659141344cd1fd0a4f28419497f9722a3daafe3b4186f6b6457e091a3600080546001600160a01b0319166001600160a01b0392909216919091179055565b620186a081565b3390565b60006017858154811061305557fe5b60009182526020822060059091020180546002820154600183015460408051632770a7eb60e21b81526001600160a01b038a81166004830152602482018c9052915195975093811695928116949116928392639dc29fac9260448084019382900301818387803b1580156130c857600080fd5b505af11580156130dc573d6000803e3d6000fd5b505050506004840154600160a01b900460ff16613194577f00000000000000000000000000000000000000000000000000000000000000006001600160a01b031663d9caed1284848a6040518463ffffffff1660e01b815260040180846001600160a01b03168152602001836001600160a01b031681526020018281526020019350505050600060405180830381600087803b15801561317b57600080fd5b505af115801561318f573d6000803e3d6000fd5b505050505b60048401546001600160a01b031680158015906131bb5750601654600160a01b900460ff16155b80156131d357506004850154600160a01b900460ff16155b1561324057806001600160a01b031663b87bd4816040518163ffffffff1660e01b8152600401602060405180830381600087803b15801561321357600080fd5b505af1158015613227573d6000803e3d6000fd5b505050506040513d602081101561323d57600080fd5b50505b6132546001600160a01b038516878a61329f565b6040805189815290518a916001600160a01b038916917f92ccf450a286a957af52509bc1c9939d1a6a481783e142e41e2499f0bb66ebc69181900360200190a3505050505050505050565b604080516001600160a01b038416602482015260448082018490528251808303909101815260649091019091526020810180516001600160e01b031663a9059cbb60e01b1790526132f1908490613a9e565b505050565b604080516001600160a01b0380861660248301528416604482015260648082018490528251808303909101815260849091019091526020810180516001600160e01b03166323b872dd60e01b179052613350908590613a9e565b50505050565b8015806133dc575060408051636eb1769f60e11b81523060048201526001600160a01b03848116602483015291519185169163dd62ed3e91604480820192602092909190829003018186803b1580156133ae57600080fd5b505afa1580156133c2573d6000803e3d6000fd5b505050506040513d60208110156133d857600080fd5b5051155b6134175760405162461bcd60e51b8152600401808060200182810382526036815260200180613ef46036913960400191505060405180910390fd5b604080516001600160a01b038416602482015260448082018490528251808303909101815260649091019091526020810180516001600160e01b031663095ea7b360e01b1790526132f1908490613a9e565b600082820183811015610c03576040805162461bcd60e51b815260206004820152601b60248201527f536166654d6174683a206164646974696f6e206f766572666c6f770000000000604482015290519081900360640190fd5b6000826134d2575060006113f3565b828202828482816134df57fe5b0414610c035760405162461bcd60e51b8152600401808060200182810382526021815260200180613e3e6021913960400191505060405180910390fd5b6000808211613572576040805162461bcd60e51b815260206004820152601a60248201527f536166654d6174683a206469766973696f6e206279207a65726f000000000000604482015290519081900360640190fd5b81838161357b57fe5b049392505050565b60006017828154811061359257fe5b600091825260209091206005909102016004810154909150600160a01b900460ff16156135f7576040805162461bcd60e51b815260206004820152600e60248201526d1c1bdbdb081a5cc818db1bdcd95960921b604482015290519081900360640190fd5b600281015460408051632990690960e21b81526001600160a01b0392831660048201819052915191927f0000000000000000000000000000000000000000000000000000000000000000169163a641a424916024808201926020929091908290030181600087803b15801561366b57600080fd5b505af115801561367f573d6000803e3d6000fd5b505050506040513d602081101561369557600080fd5b505060048201546001600160a01b0316801561378157806001600160a01b031663372500ab6040518163ffffffff1660e01b8152600401602060405180830381600087803b1580156136e657600080fd5b505af11580156136fa573d6000803e3d6000fd5b505050506040513d602081101561371057600080fd5b50506040805163654580bb60e11b815290516001600160a01b0383169163ca8b01769160048083019260209291908290030181600087803b15801561375457600080fd5b505af1158015613768573d6000803e3d6000fd5b505050506040513d602081101561377e57600080fd5b50505b600154604080516370a0823160e01b815230600482015290516000926001600160a01b0316916370a08231916024808301926020929190829003018186803b1580156137cc57600080fd5b505afa1580156137e0573d6000803e3d6000fd5b505050506040513d60208110156137f657600080fd5b505190508015611bae57600061381d612710611c51600454856134c390919063ffffffff16565b9050600061383c612710611c51600554866134c390919063ffffffff16565b9050600061385b612710611c51600654876134c390919063ffffffff16565b6010549091506001600160a01b03161580159061388357506010546001600160a01b03163014155b801561389157506000600754115b156138e15760006138b3612710611c51600754886134c390919063ffffffff16565b90506138bf8582613b4f565b6010546001549196506138df916001600160a01b0390811691168361329f565b505b6138f7826138f183818888613b4f565b90613b4f565b600154909450613911906001600160a01b0316338361329f565b60038701546001546001600160a01b03918216916139319116828761329f565b806001600160a01b031663590a41f5866040518263ffffffff1660e01b815260040180828152602001915050600060405180830381600087803b15801561397757600080fd5b505af115801561398b573d6000803e3d6000fd5b50506012546001546139ac93506001600160a01b039081169250168661329f565b6012546040805163590a41f560e01b81526004810187905290516001600160a01b039092169163590a41f59160248082019260009290919082900301818387803b1580156139f957600080fd5b505af1158015613a0d573d6000803e3d6000fd5b5050601154600154613a2e93506001600160a01b039081169250168561329f565b6011546040805163590a41f560e01b81526004810186905290516001600160a01b039092169163590a41f59160248082019260009290919082900301818387803b158015613a7b57600080fd5b505af1158015613a8f573d6000803e3d6000fd5b50505050505050505050505050565b6060613af3826040518060400160405280602081526020017f5361666545524332303a206c6f772d6c6576656c2063616c6c206661696c6564815250856001600160a01b0316613bac9092919063ffffffff16565b8051909150156132f157808060200190516020811015613b1257600080fd5b50516132f15760405162461bcd60e51b815260040180806020018281038252602a815260200180613eca602a913960400191505060405180910390fd5b600082821115613ba6576040805162461bcd60e51b815260206004820152601e60248201527f536166654d6174683a207375627472616374696f6e206f766572666c6f770000604482015290519081900360640190fd5b50900390565b6060613bbb8484600085613bc3565b949350505050565b606082471015613c045760405162461bcd60e51b8152600401808060200182810382526026815260200180613e186026913960400191505060405180910390fd5b613c0d85613d1f565b613c5e576040805162461bcd60e51b815260206004820152601d60248201527f416464726573733a2063616c6c20746f206e6f6e2d636f6e7472616374000000604482015290519081900360640190fd5b60006060866001600160a01b031685876040518082805190602001908083835b60208310613c9d5780518252601f199092019160209182019101613c7e565b6001836020036101000a03801982511681845116808217855250505050505090500191505060006040518083038185875af1925050503d8060008114613cff576040519150601f19603f3d011682016040523d82523d6000602084013e613d04565b606091505b5091509150613d14828286613d25565b979650505050505050565b3b151590565b60608315613d34575081610c03565b825115613d445782518084602001fd5b8160405162461bcd60e51b81526004018080602001828103825283818151815260200191508051906020019080838360005b83811015613d8e578181015183820152602001613d76565b50505050905090810190601f168015613dbb5780820380516001836020036101000a031916815260200191505b509250505060405180910390fdfe766f74654f776e6572736869702073686f756c64206e6f74206265207a65726f20616464726573734f776e61626c653a206e6577206f776e657220697320746865207a65726f2061646472657373416464726573733a20696e73756666696369656e742062616c616e636520666f722063616c6c536166654d6174683a206d756c7469706c69636174696f6e206f766572666c6f774f776e61626c653a2063616c6c6572206973206e6f7420746865206f776e65727265776172644d756c7469706c6965722073686f756c6420626520302d313030303030766f7465506172616d657465722073686f756c64206e6f74206265207a65726f20616464726573735361666545524332303a204552433230206f7065726174696f6e20646964206e6f7420737563636565645361666545524332303a20617070726f76652066726f6d206e6f6e2d7a65726f20746f206e6f6e2d7a65726f20616c6c6f77616e6365a2646970667358221220ef2408a0e1a06b9e614207444b6143cf730e8b36cd8faa8bc0f97743f28f2ea664736f6c634300060c0033",
  "immutableReferences": {
    "2866": [
      {
        "length": 32,
        "start": 3226
      },
      {
        "length": 32,
        "start": 3872
      },
      {
        "length": 32,
        "start": 4241
      },
      {
        "length": 32,
        "start": 4361
      },
      {
        "length": 32,
        "start": 5966
      },
      {
        "length": 32,
        "start": 6328
      },
      {
        "length": 32,
        "start": 6664
      },
      {
        "length": 32,
        "start": 8503
      },
      {
        "length": 32,
        "start": 9141
      },
      {
        "length": 32,
        "start": 9711
      },
      {
        "length": 32,
        "start": 11003
      },
      {
        "length": 32,
        "start": 11842
      },
      {
        "length": 32,
        "start": 12533
      },
      {
        "length": 32,
        "start": 13858
      }
    ],
    "2868": [
      {
        "length": 32,
        "start": 2729
      },
      {
        "length": 32,
        "start": 7259
      }
    ]
  },
  "source": "// SPDX-License-Identifier: MIT\npragma solidity 0.6.12;\n\nimport \"./Interfaces.sol\";\nimport \"@openzeppelin/contracts/math/SafeMath.sol\";\nimport \"@openzeppelin/contracts/token/ERC20/IERC20.sol\";\nimport \"@openzeppelin/contracts/utils/Address.sol\";\nimport \"@openzeppelin/contracts/token/ERC20/SafeERC20.sol\";\nimport \"@openzeppelin/contracts/access/Ownable.sol\";\n\ncontract Booster is Ownable {\n  using SafeERC20 for IERC20;\n  using Address for address;\n  using SafeMath for uint256;\n\n  address public kgl;\n  uint256 public constant distributionAddressId = 4;\n  address public voteOwnership;\n  address public voteParameter;\n\n  uint256 public lockIncentive = 1000; //incentive to kgl stakers\n  uint256 public stakerIncentive = 500; //incentive to native token stakers\n  uint256 public earmarkIncentive = 0; //incentive to users who spend gas to make calls\n  uint256 public nativeTokenLockIncentive = 100; //incentive to native token lockers (in addition to stakerIncentive)\n  uint256 public constant MaxFees = 2000;\n  uint256 public constant FEE_DENOMINATOR = 10000;\n  uint256 public rewardMultiplier = 8250; // 0.0825\n  uint256 public constant MULTIPLIER_DENOMINATOR = 100000;\n\n  address public feeManager;\n  address public poolManager;\n  address public immutable staker;\n  address public immutable minter;\n  address public rewardFactory;\n  address public stashFactory;\n  address public tokenFactory;\n  address public rewardArbitrator;\n  address public voteDelegate;\n  address public lockerStakingProxy; // stakingProxy for Locker\n  address public stakerRewards; //muuu rewards\n  address public lockRewards; //muKgl rewards(kgl)\n  address public lockFees; //muKgl vekgl fees\n  address public feeDistro; // FeeDisributor\n  address public feeToken; // fee token from FeeDisributor\n  address public registry;\n\n  bool public isShutdown;\n\n  struct PoolInfo {\n    address lptoken;\n    address token;\n    address gauge;\n    address kglRewards;\n    address stash;\n    bool shutdown;\n  }\n\n  //index(pid) -> pool\n  PoolInfo[] public poolInfo;\n  mapping(address => bool) public gaugeMap;\n\n  event Deposited(address indexed user, uint256 indexed poolid, uint256 amount);\n  event Withdrawn(address indexed user, uint256 indexed poolid, uint256 amount);\n  event PoolAdded(address lptoken, address gauge, uint256 stashVersion);\n  event PoolShutdown(uint256 pid);\n  event RewardsEarmarked(uint256 pid);\n  event FeesEarmarked();\n\n\n  constructor(\n    address _staker,\n    address _minter,\n    address _kgl,\n    address _registry\n  ) public {\n    isShutdown = false;\n    staker = _staker;\n    voteDelegate = msg.sender;\n    feeManager = msg.sender;\n    poolManager = msg.sender;\n    feeDistro = address(0); // set by #setFeeInfo\n    feeToken = address(0); // set by #setFeeInfo\n    lockerStakingProxy = address(0);\n    minter = _minter;\n    kgl = _kgl;\n    registry = _registry;\n    voteOwnership = address(0);\n    voteParameter = address(0);\n  }\n\n  /// SETTER SECTION ///\n  function setKgl(address _kgl) external onlyOwner {\n    kgl = _kgl;\n  }\n\n  function setFeeManager(address _feeM) external {\n    require(msg.sender == feeManager, \"!auth\");\n    feeManager = _feeM;\n  }\n\n  function setPoolManager(address _poolM) external {\n    require(msg.sender == poolManager, \"!auth\");\n    poolManager = _poolM;\n  }\n\n  function setFactories(\n    address _rfactory,\n    address _sfactory,\n    address _tfactory\n  ) external {\n    require(msg.sender == owner(), \"!auth\");\n\n    //reward factory only allow this to be called once even if owner\n    //removes ability to inject malicious staking contracts\n    //token factory can also be immutable\n    if (rewardFactory == address(0)) {\n      rewardFactory = _rfactory;\n      tokenFactory = _tfactory;\n    }\n\n    //stash factory should be considered more safe to change\n    //updating may be required to handle new types of gauges\n    stashFactory = _sfactory;\n  }\n\n  function setArbitrator(address _arb) external {\n    require(msg.sender == owner(), \"!auth\");\n    rewardArbitrator = _arb;\n  }\n\n  function setVoteDelegate(address _voteDelegate) external {\n    require(msg.sender == voteDelegate, \"!auth\");\n    voteDelegate = _voteDelegate;\n  }\n\n  function setRewardContracts(address _rewards, address _stakerRewards) external {\n    require(msg.sender == owner(), \"!auth\");\n\n    //reward contracts are immutable or else the owner\n    //has a means to redeploy and mint muuu via rewardClaimed()\n    if (lockRewards == address(0)) {\n      lockRewards = _rewards;\n      stakerRewards = _stakerRewards;\n    }\n  }\n\n  // Set reward token and claim contract, get from Kagla's registry\n  function setFeeInfo() external {\n    require(msg.sender == feeManager, \"!auth\");\n\n    feeDistro = IAddressProvider(registry).get_address(distributionAddressId);\n    address _feeToken = IFeeDistro(feeDistro).token();\n    if (feeToken != _feeToken) {\n      //create a new reward contract for the new token\n      lockFees = IRewardFactory(rewardFactory).CreateTokenRewards(\n        _feeToken,\n        lockRewards,\n        address(this)\n      );\n      feeToken = _feeToken;\n    }\n  }\n\n  function setFees(\n    uint256 _lockFees,\n    uint256 _stakerFees,\n    uint256 _callerFees,\n    uint256 _nativeTokenLockFees\n  ) external {\n    require(msg.sender == feeManager, \"!auth\");\n\n    uint256 total = _lockFees.add(_stakerFees).add(_callerFees).add(_nativeTokenLockFees);\n    require(total <= MaxFees, \">MaxFees\");\n\n    //values must be within certain ranges\n    if (\n      _lockFees >= 1000 &&\n      _lockFees <= 1500 &&\n      _stakerFees >= 300 &&\n      _stakerFees <= 600 &&\n      _callerFees >= 0 &&\n      _callerFees <= 100 &&\n      _nativeTokenLockFees <= 200\n    ) {\n      lockIncentive = _lockFees;\n      stakerIncentive = _stakerFees;\n      earmarkIncentive = _callerFees;\n      nativeTokenLockIncentive = _nativeTokenLockFees;\n    }\n  }\n\n  function setLockerStakingProxy(address _lockerStakingProxy) external {\n    require(msg.sender == feeManager, \"!auth\");\n    lockerStakingProxy = _lockerStakingProxy;\n  }\n\n  function setRegistry(address _registry) external {\n    require(msg.sender == owner(), \"!auth\");\n    registry = _registry;\n  }\n\n  function setRewardMultiplier(uint256 _rewardMultiplier) external onlyOwner {\n    require(_rewardMultiplier > 0 &&  _rewardMultiplier <= MULTIPLIER_DENOMINATOR , \"rewardMultiplier should be 0-100000\");\n    rewardMultiplier = _rewardMultiplier;\n  }\n\n  function setVoteOwnership(address _voteOwnership) external onlyOwner {\n    require(_voteOwnership != address(0), \"voteOwnership should not be zero address\");\n    voteOwnership = _voteOwnership;\n  }\n\n  function setVoteParameter(address _voteParameter) external onlyOwner {\n    require(_voteParameter != address(0), \"voteParameter should not be zero address\");\n    voteParameter = _voteParameter;\n  }\n\n  /// END SETTER SECTION ///\n\n  function poolLength() external view returns (uint256) {\n    return poolInfo.length;\n  }\n\n  //create a new pool\n  function addPool(\n    address _lptoken,\n    address _gauge,\n    uint256 _stashVersion\n  ) external returns (bool) {\n    require(msg.sender == poolManager && !isShutdown, \"!add\");\n    require(_gauge != address(0) && _lptoken != address(0), \"!param\");\n\n    //the next pool's pid\n    uint256 pid = poolInfo.length;\n\n    //create a tokenized deposit\n    address token = ITokenFactory(tokenFactory).CreateDepositToken(_lptoken);\n    //create a reward contract for kgl rewards\n    address newRewardPool = IRewardFactory(rewardFactory).CreateKglRewards(pid, token);\n    //create a stash to handle extra incentives\n    address stash = address(0);\n    if (_stashVersion != 0) {\n      stash = IStashFactory(stashFactory).CreateStash(pid, _gauge, staker, _stashVersion);\n    }\n\n    //add the new pool\n    poolInfo.push(\n      PoolInfo({\n        lptoken: _lptoken,\n        token: token,\n        gauge: _gauge,\n        kglRewards: newRewardPool,\n        stash: stash,\n        shutdown: false\n      })\n    );\n    gaugeMap[_gauge] = true;\n    //give stashes access to rewardfactory and voteproxy\n    //   voteproxy so it can grab the incentive tokens off the contract after claiming rewards\n    //   reward factory so that stashes can make new extra reward contracts if a new incentive is added to the gauge\n    if (stash != address(0)) {\n      poolInfo[pid].stash = stash;\n      IStaker(staker).setStashAccess(stash, true);\n      IRewardFactory(rewardFactory).setAccess(stash, true);\n    }\n    emit PoolAdded(_lptoken, _gauge, _stashVersion);\n    return true;\n  }\n\n  //shutdown pool\n  function shutdownPool(uint256 _pid) external returns (bool) {\n    require(msg.sender == poolManager, \"!auth\");\n    PoolInfo storage pool = poolInfo[_pid];\n\n    //withdraw from gauge\n    try IStaker(staker).withdrawAll(pool.lptoken, pool.gauge) {} catch {}\n\n    pool.shutdown = true;\n    gaugeMap[pool.gauge] = false;\n    emit PoolShutdown(_pid);\n    return true;\n  }\n\n  //shutdown this contract.\n  //  unstake and pull all lp tokens to this address\n  //  only allow withdrawals\n  function shutdownSystem() external {\n    require(msg.sender == owner(), \"!auth\");\n    isShutdown = true;\n\n    for (uint i = 0; i < poolInfo.length; i++) {\n      PoolInfo storage pool = poolInfo[i];\n      if (pool.shutdown) continue;\n\n      address token = pool.lptoken;\n      address gauge = pool.gauge;\n\n      //withdraw from gauge\n      try IStaker(staker).withdrawAll(token, gauge) {\n        pool.shutdown = true;\n      } catch {}\n    }\n  }\n\n  //deposit lp tokens and stake\n  function deposit(\n    uint256 _pid,\n    uint256 _amount,\n    bool _stake\n  ) public returns (bool) {\n    require(!isShutdown, \"shutdown\");\n    PoolInfo storage pool = poolInfo[_pid];\n    require(pool.shutdown == false, \"pool is closed\");\n\n    //send to proxy to stake\n    address lptoken = pool.lptoken;\n    IERC20(lptoken).safeTransferFrom(msg.sender, staker, _amount);\n\n    //stake\n    address gauge = pool.gauge;\n    require(gauge != address(0), \"!gauge setting\");\n    IStaker(staker).deposit(lptoken, gauge);\n\n    //some gauges claim rewards when depositing, stash them in a seperate contract until next claim\n    address stash = pool.stash;\n    if (stash != address(0)) {\n      IStash(stash).stashRewards();\n    }\n\n    address token = pool.token;\n    if (_stake) {\n      //mint here and send to rewards on user behalf\n      ITokenMinter(token).mint(address(this), _amount);\n      address rewardContract = pool.kglRewards;\n      IERC20(token).safeApprove(rewardContract, 0);\n      IERC20(token).safeApprove(rewardContract, _amount);\n      IRewards(rewardContract).stakeFor(msg.sender, _amount);\n    } else {\n      //add user balance directly\n      ITokenMinter(token).mint(msg.sender, _amount);\n    }\n\n    emit Deposited(msg.sender, _pid, _amount);\n    return true;\n  }\n\n  //deposit all lp tokens and stake\n  function depositAll(uint256 _pid, bool _stake) external returns (bool) {\n    address lptoken = poolInfo[_pid].lptoken;\n    uint256 balance = IERC20(lptoken).balanceOf(msg.sender);\n    deposit(_pid, balance, _stake);\n    return true;\n  }\n\n  //withdraw lp tokens\n  function _withdraw(\n    uint256 _pid,\n    uint256 _amount,\n    address _from,\n    address _to\n  ) internal {\n    PoolInfo storage pool = poolInfo[_pid];\n    address lptoken = pool.lptoken;\n    address gauge = pool.gauge;\n\n    //remove lp balance\n    address token = pool.token;\n    ITokenMinter(token).burn(_from, _amount);\n\n    //pull from gauge if not shutdown\n    // if shutdown tokens will be in this contract\n    if (!pool.shutdown) {\n      IStaker(staker).withdraw(lptoken, gauge, _amount);\n    }\n\n    //some gauges claim rewards when withdrawing, stash them in a seperate contract until next claim\n    //do not call if shutdown since stashes wont have access\n    address stash = pool.stash;\n    if (stash != address(0) && !isShutdown && !pool.shutdown) {\n      IStash(stash).stashRewards();\n    }\n\n    //return lp tokens\n    IERC20(lptoken).safeTransfer(_to, _amount);\n\n    emit Withdrawn(_to, _pid, _amount);\n  }\n\n  //withdraw lp tokens\n  function withdraw(uint256 _pid, uint256 _amount) public returns (bool) {\n    _withdraw(_pid, _amount, msg.sender, msg.sender);\n    return true;\n  }\n\n  //withdraw all lp tokens\n  function withdrawAll(uint256 _pid) public returns (bool) {\n    address token = poolInfo[_pid].token;\n    uint256 userBal = IERC20(token).balanceOf(msg.sender);\n    withdraw(_pid, userBal);\n    return true;\n  }\n\n  //allow reward contracts to send here and withdraw to user\n  function withdrawTo(\n    uint256 _pid,\n    uint256 _amount,\n    address _to\n  ) external returns (bool) {\n    address rewardContract = poolInfo[_pid].kglRewards;\n    require(msg.sender == rewardContract, \"!auth\");\n\n    _withdraw(_pid, _amount, msg.sender, _to);\n    return true;\n  }\n\n  //delegate address votes on dao\n  function vote(\n    uint256 _voteId,\n    address _votingAddress,\n    bool _support\n  ) external returns (bool) {\n    require(msg.sender == voteDelegate, \"!auth\");\n    require(_votingAddress == voteOwnership || _votingAddress == voteParameter, \"!voteAddr\");\n\n    IStaker(staker).vote(_voteId, _votingAddress, _support);\n    return true;\n  }\n\n  function voteGaugeWeight(address[] calldata _gauge, uint256[] calldata _weight)\n    external\n    returns (bool)\n  {\n    require(msg.sender == voteDelegate, \"!auth\");\n\n    for (uint256 i = 0; i < _gauge.length; i++) {\n      IStaker(staker).voteGaugeWeight(_gauge[i], _weight[i]);\n    }\n    return true;\n  }\n\n  function claimRewards(uint256 _pid, address _gauge) external returns (bool) {\n    address stash = poolInfo[_pid].stash;\n    require(msg.sender == stash, \"!auth\");\n\n    IStaker(staker).claimRewards(_gauge);\n    return true;\n  }\n\n  function setGaugeRedirect(uint256 _pid) external returns (bool) {\n    address stash = poolInfo[_pid].stash;\n    require(msg.sender == stash, \"!auth\");\n    address gauge = poolInfo[_pid].gauge;\n    bytes memory data = abi.encodeWithSelector(\n      bytes4(keccak256(\"set_rewards_receiver(address)\")),\n      stash\n    );\n    IStaker(staker).execute(gauge, uint256(0), data);\n    return true;\n  }\n\n  //claim kgl and extra rewards and disperse to reward contracts\n  function _earmarkRewards(uint256 _pid) internal {\n    PoolInfo storage pool = poolInfo[_pid];\n    require(pool.shutdown == false, \"pool is closed\");\n\n    address gauge = pool.gauge;\n\n    //claim kgl\n    IStaker(staker).claimKgl(gauge);\n\n    //check if there are extra rewards\n    address stash = pool.stash;\n    if (stash != address(0)) {\n      //claim extra rewards\n      IStash(stash).claimRewards();\n      //process extra rewards\n      IStash(stash).processStash();\n    }\n\n    //kgl balance\n    uint256 kglBal = IERC20(kgl).balanceOf(address(this));\n\n    if (kglBal > 0) {\n      uint256 _lockIncentive = kglBal.mul(lockIncentive).div(FEE_DENOMINATOR);\n      uint256 _stakerIncentive = kglBal.mul(stakerIncentive).div(FEE_DENOMINATOR);\n      uint256 _callIncentive = kglBal.mul(earmarkIncentive).div(FEE_DENOMINATOR);\n\n      //send stakingProxy for locker\n      if (lockerStakingProxy != address(0) && lockerStakingProxy != address(this) && nativeTokenLockIncentive > 0) {\n        //only subtract after address condition check\n        uint256 _nativeTokenLockIncentive = kglBal.mul(nativeTokenLockIncentive).div(FEE_DENOMINATOR);\n        kglBal = kglBal.sub(_nativeTokenLockIncentive);\n        IERC20(kgl).safeTransfer(lockerStakingProxy, _nativeTokenLockIncentive);\n      }\n\n      //remove incentives from balance\n      kglBal = kglBal.sub(_lockIncentive).sub(_callIncentive).sub(_stakerIncentive);\n\n      //send incentives for calling\n      IERC20(kgl).safeTransfer(msg.sender, _callIncentive);\n\n      //send kgl to lp provider reward contract\n      address rewardContract = pool.kglRewards;\n      IERC20(kgl).safeTransfer(rewardContract, kglBal);\n      IRewards(rewardContract).queueNewRewards(kglBal);\n\n      //send lockers' share of kgl to reward contract\n      IERC20(kgl).safeTransfer(lockRewards, _lockIncentive);\n      IRewards(lockRewards).queueNewRewards(_lockIncentive);\n\n      //send stakers's share of kgl to reward contract\n      IERC20(kgl).safeTransfer(stakerRewards, _stakerIncentive);\n      IRewards(stakerRewards).queueNewRewards(_stakerIncentive);\n    }\n  }\n\n  function earmarkRewards(uint256 _pid) external returns (bool) {\n    require(!isShutdown, \"shutdown\");\n    _earmarkRewards(_pid);\n    emit RewardsEarmarked(_pid);\n    return true;\n  }\n\n  //claim fees from kagla distro contract, put in lockers' reward contract\n  function earmarkFees() external returns (bool) {\n    //claim fee rewards\n    IStaker(staker).claimFees(feeDistro, feeToken);\n    //send fee rewards to reward contract\n    uint256 _balance = IERC20(feeToken).balanceOf(address(this));\n    IERC20(feeToken).safeTransfer(lockFees, _balance);\n    IRewards(lockFees).queueNewRewards(_balance);\n    emit FeesEarmarked();\n    return true;\n  }\n\n  //callback from reward contract when kgl is received.\n  function rewardClaimed(\n    uint256 _pid,\n    address _address,\n    uint256 _amount\n  ) external returns (bool) {\n    address rewardContract = poolInfo[_pid].kglRewards;\n    require(msg.sender == rewardContract || msg.sender == lockRewards, \"!auth\");\n\n    _amount = _amount.mul(rewardMultiplier).div(MULTIPLIER_DENOMINATOR);\n    //mint reward tokens\n    ITokenMinter(minter).mint(_address, _amount);\n\n    return true;\n  }\n}\n",
  "sourcePath": "/Users/shuto/Documents/bridges-dev/muuu/protocol/contracts/contracts/Booster.sol",
  "compiler": {
    "name": "solc",
    "version": "0.6.12+commit.27d51765.Emscripten.clang"
  },
  "schemaVersion": "3.4.6",
  "updatedAt": "2022-04-25T07:58:50.310Z",
  "devdoc": {
    "kind": "dev",
    "methods": {
      "owner()": {
        "details": "Returns the address of the current owner."
      },
      "renounceOwnership()": {
        "details": "Leaves the contract without owner. It will not be possible to call `onlyOwner` functions anymore. Can only be called by the current owner. NOTE: Renouncing ownership will leave the contract without an owner, thereby removing any functionality that is only available to the owner."
      },
      "transferOwnership(address)": {
        "details": "Transfers ownership of the contract to a new account (`newOwner`). Can only be called by the current owner."
      }
    },
    "version": 1
  },
  "userdoc": {
    "kind": "user",
    "methods": {
      "poolLength()": {
        "notice": "END SETTER SECTION ///"
      },
      "setKgl(address)": {
        "notice": "SETTER SECTION ///"
      }
    },
    "version": 1
  }
}