{
  "contractName": "Booster",
  "abi": [
    {
      "inputs": [
        {
          "internalType": "address",
          "name": "_staker",
          "type": "address"
        },
        {
          "internalType": "address",
          "name": "_minter",
          "type": "address"
        },
        {
          "internalType": "address",
          "name": "_kgl",
          "type": "address"
        },
        {
          "internalType": "address",
          "name": "_registry",
          "type": "address"
        }
      ],
      "stateMutability": "nonpayable",
      "type": "constructor"
    },
    {
      "anonymous": false,
      "inputs": [
        {
          "indexed": true,
          "internalType": "address",
          "name": "user",
          "type": "address"
        },
        {
          "indexed": true,
          "internalType": "uint256",
          "name": "poolid",
          "type": "uint256"
        },
        {
          "indexed": false,
          "internalType": "uint256",
          "name": "amount",
          "type": "uint256"
        }
      ],
      "name": "Deposited",
      "type": "event"
    },
    {
      "anonymous": false,
      "inputs": [
        {
          "indexed": true,
          "internalType": "address",
          "name": "previousOwner",
          "type": "address"
        },
        {
          "indexed": true,
          "internalType": "address",
          "name": "newOwner",
          "type": "address"
        }
      ],
      "name": "OwnershipTransferred",
      "type": "event"
    },
    {
      "anonymous": false,
      "inputs": [
        {
          "indexed": true,
          "internalType": "address",
          "name": "user",
          "type": "address"
        },
        {
          "indexed": true,
          "internalType": "uint256",
          "name": "poolid",
          "type": "uint256"
        },
        {
          "indexed": false,
          "internalType": "uint256",
          "name": "amount",
          "type": "uint256"
        }
      ],
      "name": "Withdrawn",
      "type": "event"
    },
    {
      "inputs": [],
      "name": "FEE_DENOMINATOR",
      "outputs": [
        {
          "internalType": "uint256",
          "name": "",
          "type": "uint256"
        }
      ],
      "stateMutability": "view",
      "type": "function"
    },
    {
      "inputs": [],
      "name": "MaxFees",
      "outputs": [
        {
          "internalType": "uint256",
          "name": "",
          "type": "uint256"
        }
      ],
      "stateMutability": "view",
      "type": "function"
    },
    {
      "inputs": [],
      "name": "distributionAddressId",
      "outputs": [
        {
          "internalType": "uint256",
          "name": "",
          "type": "uint256"
        }
      ],
      "stateMutability": "view",
      "type": "function"
    },
    {
      "inputs": [],
      "name": "earmarkIncentive",
      "outputs": [
        {
          "internalType": "uint256",
          "name": "",
          "type": "uint256"
        }
      ],
      "stateMutability": "view",
      "type": "function"
    },
    {
      "inputs": [],
      "name": "feeDistro",
      "outputs": [
        {
          "internalType": "address",
          "name": "",
          "type": "address"
        }
      ],
      "stateMutability": "view",
      "type": "function"
    },
    {
      "inputs": [],
      "name": "feeManager",
      "outputs": [
        {
          "internalType": "address",
          "name": "",
          "type": "address"
        }
      ],
      "stateMutability": "view",
      "type": "function"
    },
    {
      "inputs": [],
      "name": "feeToken",
      "outputs": [
        {
          "internalType": "address",
          "name": "",
          "type": "address"
        }
      ],
      "stateMutability": "view",
      "type": "function"
    },
    {
      "inputs": [
        {
          "internalType": "address",
          "name": "",
          "type": "address"
        }
      ],
      "name": "gaugeMap",
      "outputs": [
        {
          "internalType": "bool",
          "name": "",
          "type": "bool"
        }
      ],
      "stateMutability": "view",
      "type": "function"
    },
    {
      "inputs": [],
      "name": "isShutdown",
      "outputs": [
        {
          "internalType": "bool",
          "name": "",
          "type": "bool"
        }
      ],
      "stateMutability": "view",
      "type": "function"
    },
    {
      "inputs": [],
      "name": "kgl",
      "outputs": [
        {
          "internalType": "address",
          "name": "",
          "type": "address"
        }
      ],
      "stateMutability": "view",
      "type": "function"
    },
    {
      "inputs": [],
      "name": "lockFees",
      "outputs": [
        {
          "internalType": "address",
          "name": "",
          "type": "address"
        }
      ],
      "stateMutability": "view",
      "type": "function"
    },
    {
      "inputs": [],
      "name": "lockIncentive",
      "outputs": [
        {
          "internalType": "uint256",
          "name": "",
          "type": "uint256"
        }
      ],
      "stateMutability": "view",
      "type": "function"
    },
    {
      "inputs": [],
      "name": "lockRewards",
      "outputs": [
        {
          "internalType": "address",
          "name": "",
          "type": "address"
        }
      ],
      "stateMutability": "view",
      "type": "function"
    },
    {
      "inputs": [],
      "name": "minter",
      "outputs": [
        {
          "internalType": "address",
          "name": "",
          "type": "address"
        }
      ],
      "stateMutability": "view",
      "type": "function"
    },
    {
      "inputs": [],
      "name": "owner",
      "outputs": [
        {
          "internalType": "address",
          "name": "",
          "type": "address"
        }
      ],
      "stateMutability": "view",
      "type": "function"
    },
    {
      "inputs": [],
      "name": "platformFee",
      "outputs": [
        {
          "internalType": "uint256",
          "name": "",
          "type": "uint256"
        }
      ],
      "stateMutability": "view",
      "type": "function"
    },
    {
      "inputs": [
        {
          "internalType": "uint256",
          "name": "",
          "type": "uint256"
        }
      ],
      "name": "poolInfo",
      "outputs": [
        {
          "internalType": "address",
          "name": "lptoken",
          "type": "address"
        },
        {
          "internalType": "address",
          "name": "token",
          "type": "address"
        },
        {
          "internalType": "address",
          "name": "gauge",
          "type": "address"
        },
        {
          "internalType": "address",
          "name": "kglRewards",
          "type": "address"
        },
        {
          "internalType": "address",
          "name": "stash",
          "type": "address"
        },
        {
          "internalType": "bool",
          "name": "shutdown",
          "type": "bool"
        }
      ],
      "stateMutability": "view",
      "type": "function"
    },
    {
      "inputs": [],
      "name": "poolManager",
      "outputs": [
        {
          "internalType": "address",
          "name": "",
          "type": "address"
        }
      ],
      "stateMutability": "view",
      "type": "function"
    },
    {
      "inputs": [],
      "name": "registry",
      "outputs": [
        {
          "internalType": "address",
          "name": "",
          "type": "address"
        }
      ],
      "stateMutability": "view",
      "type": "function"
    },
    {
      "inputs": [],
      "name": "renounceOwnership",
      "outputs": [],
      "stateMutability": "nonpayable",
      "type": "function"
    },
    {
      "inputs": [],
      "name": "rewardArbitrator",
      "outputs": [
        {
          "internalType": "address",
          "name": "",
          "type": "address"
        }
      ],
      "stateMutability": "view",
      "type": "function"
    },
    {
      "inputs": [],
      "name": "rewardFactory",
      "outputs": [
        {
          "internalType": "address",
          "name": "",
          "type": "address"
        }
      ],
      "stateMutability": "view",
      "type": "function"
    },
    {
      "inputs": [],
      "name": "staker",
      "outputs": [
        {
          "internalType": "address",
          "name": "",
          "type": "address"
        }
      ],
      "stateMutability": "view",
      "type": "function"
    },
    {
      "inputs": [],
      "name": "stakerIncentive",
      "outputs": [
        {
          "internalType": "uint256",
          "name": "",
          "type": "uint256"
        }
      ],
      "stateMutability": "view",
      "type": "function"
    },
    {
      "inputs": [],
      "name": "stakerRewards",
      "outputs": [
        {
          "internalType": "address",
          "name": "",
          "type": "address"
        }
      ],
      "stateMutability": "view",
      "type": "function"
    },
    {
      "inputs": [],
      "name": "stashFactory",
      "outputs": [
        {
          "internalType": "address",
          "name": "",
          "type": "address"
        }
      ],
      "stateMutability": "view",
      "type": "function"
    },
    {
      "inputs": [],
      "name": "tokenFactory",
      "outputs": [
        {
          "internalType": "address",
          "name": "",
          "type": "address"
        }
      ],
      "stateMutability": "view",
      "type": "function"
    },
    {
      "inputs": [
        {
          "internalType": "address",
          "name": "newOwner",
          "type": "address"
        }
      ],
      "name": "transferOwnership",
      "outputs": [],
      "stateMutability": "nonpayable",
      "type": "function"
    },
    {
      "inputs": [],
      "name": "treasury",
      "outputs": [
        {
          "internalType": "address",
          "name": "",
          "type": "address"
        }
      ],
      "stateMutability": "view",
      "type": "function"
    },
    {
      "inputs": [],
      "name": "voteDelegate",
      "outputs": [
        {
          "internalType": "address",
          "name": "",
          "type": "address"
        }
      ],
      "stateMutability": "view",
      "type": "function"
    },
    {
      "inputs": [],
      "name": "voteOwnership",
      "outputs": [
        {
          "internalType": "address",
          "name": "",
          "type": "address"
        }
      ],
      "stateMutability": "view",
      "type": "function"
    },
    {
      "inputs": [],
      "name": "voteParameter",
      "outputs": [
        {
          "internalType": "address",
          "name": "",
          "type": "address"
        }
      ],
      "stateMutability": "view",
      "type": "function"
    },
    {
      "inputs": [
        {
          "internalType": "address",
          "name": "_kgl",
          "type": "address"
        }
      ],
      "name": "setKgl",
      "outputs": [],
      "stateMutability": "nonpayable",
      "type": "function"
    },
    {
      "inputs": [
        {
          "internalType": "address",
          "name": "_feeM",
          "type": "address"
        }
      ],
      "name": "setFeeManager",
      "outputs": [],
      "stateMutability": "nonpayable",
      "type": "function"
    },
    {
      "inputs": [
        {
          "internalType": "address",
          "name": "_poolM",
          "type": "address"
        }
      ],
      "name": "setPoolManager",
      "outputs": [],
      "stateMutability": "nonpayable",
      "type": "function"
    },
    {
      "inputs": [
        {
          "internalType": "address",
          "name": "_rfactory",
          "type": "address"
        },
        {
          "internalType": "address",
          "name": "_sfactory",
          "type": "address"
        },
        {
          "internalType": "address",
          "name": "_tfactory",
          "type": "address"
        }
      ],
      "name": "setFactories",
      "outputs": [],
      "stateMutability": "nonpayable",
      "type": "function"
    },
    {
      "inputs": [
        {
          "internalType": "address",
          "name": "_arb",
          "type": "address"
        }
      ],
      "name": "setArbitrator",
      "outputs": [],
      "stateMutability": "nonpayable",
      "type": "function"
    },
    {
      "inputs": [
        {
          "internalType": "address",
          "name": "_voteDelegate",
          "type": "address"
        }
      ],
      "name": "setVoteDelegate",
      "outputs": [],
      "stateMutability": "nonpayable",
      "type": "function"
    },
    {
      "inputs": [
        {
          "internalType": "address",
          "name": "_rewards",
          "type": "address"
        },
        {
          "internalType": "address",
          "name": "_stakerRewards",
          "type": "address"
        }
      ],
      "name": "setRewardContracts",
      "outputs": [],
      "stateMutability": "nonpayable",
      "type": "function"
    },
    {
      "inputs": [],
      "name": "setFeeInfo",
      "outputs": [],
      "stateMutability": "nonpayable",
      "type": "function"
    },
    {
      "inputs": [
        {
          "internalType": "uint256",
          "name": "_lockFees",
          "type": "uint256"
        },
        {
          "internalType": "uint256",
          "name": "_stakerFees",
          "type": "uint256"
        },
        {
          "internalType": "uint256",
          "name": "_callerFees",
          "type": "uint256"
        },
        {
          "internalType": "uint256",
          "name": "_platform",
          "type": "uint256"
        }
      ],
      "name": "setFees",
      "outputs": [],
      "stateMutability": "nonpayable",
      "type": "function"
    },
    {
      "inputs": [
        {
          "internalType": "address",
          "name": "_treasury",
          "type": "address"
        }
      ],
      "name": "setTreasury",
      "outputs": [],
      "stateMutability": "nonpayable",
      "type": "function"
    },
    {
      "inputs": [
        {
          "internalType": "address",
          "name": "_registry",
          "type": "address"
        }
      ],
      "name": "setRegistry",
      "outputs": [],
      "stateMutability": "nonpayable",
      "type": "function"
    },
    {
      "inputs": [],
      "name": "poolLength",
      "outputs": [
        {
          "internalType": "uint256",
          "name": "",
          "type": "uint256"
        }
      ],
      "stateMutability": "view",
      "type": "function"
    },
    {
      "inputs": [
        {
          "internalType": "address",
          "name": "_lptoken",
          "type": "address"
        },
        {
          "internalType": "address",
          "name": "_gauge",
          "type": "address"
        },
        {
          "internalType": "uint256",
          "name": "_stashVersion",
          "type": "uint256"
        }
      ],
      "name": "addPool",
      "outputs": [
        {
          "internalType": "bool",
          "name": "",
          "type": "bool"
        }
      ],
      "stateMutability": "nonpayable",
      "type": "function"
    },
    {
      "inputs": [
        {
          "internalType": "uint256",
          "name": "_pid",
          "type": "uint256"
        }
      ],
      "name": "shutdownPool",
      "outputs": [
        {
          "internalType": "bool",
          "name": "",
          "type": "bool"
        }
      ],
      "stateMutability": "nonpayable",
      "type": "function"
    },
    {
      "inputs": [],
      "name": "shutdownSystem",
      "outputs": [],
      "stateMutability": "nonpayable",
      "type": "function"
    },
    {
      "inputs": [
        {
          "internalType": "uint256",
          "name": "_pid",
          "type": "uint256"
        },
        {
          "internalType": "uint256",
          "name": "_amount",
          "type": "uint256"
        },
        {
          "internalType": "bool",
          "name": "_stake",
          "type": "bool"
        }
      ],
      "name": "deposit",
      "outputs": [
        {
          "internalType": "bool",
          "name": "",
          "type": "bool"
        }
      ],
      "stateMutability": "nonpayable",
      "type": "function"
    },
    {
      "inputs": [
        {
          "internalType": "uint256",
          "name": "_pid",
          "type": "uint256"
        },
        {
          "internalType": "bool",
          "name": "_stake",
          "type": "bool"
        }
      ],
      "name": "depositAll",
      "outputs": [
        {
          "internalType": "bool",
          "name": "",
          "type": "bool"
        }
      ],
      "stateMutability": "nonpayable",
      "type": "function"
    },
    {
      "inputs": [
        {
          "internalType": "uint256",
          "name": "_pid",
          "type": "uint256"
        },
        {
          "internalType": "uint256",
          "name": "_amount",
          "type": "uint256"
        }
      ],
      "name": "withdraw",
      "outputs": [
        {
          "internalType": "bool",
          "name": "",
          "type": "bool"
        }
      ],
      "stateMutability": "nonpayable",
      "type": "function"
    },
    {
      "inputs": [
        {
          "internalType": "uint256",
          "name": "_pid",
          "type": "uint256"
        }
      ],
      "name": "withdrawAll",
      "outputs": [
        {
          "internalType": "bool",
          "name": "",
          "type": "bool"
        }
      ],
      "stateMutability": "nonpayable",
      "type": "function"
    },
    {
      "inputs": [
        {
          "internalType": "uint256",
          "name": "_pid",
          "type": "uint256"
        },
        {
          "internalType": "uint256",
          "name": "_amount",
          "type": "uint256"
        },
        {
          "internalType": "address",
          "name": "_to",
          "type": "address"
        }
      ],
      "name": "withdrawTo",
      "outputs": [
        {
          "internalType": "bool",
          "name": "",
          "type": "bool"
        }
      ],
      "stateMutability": "nonpayable",
      "type": "function"
    },
    {
      "inputs": [
        {
          "internalType": "uint256",
          "name": "_voteId",
          "type": "uint256"
        },
        {
          "internalType": "address",
          "name": "_votingAddress",
          "type": "address"
        },
        {
          "internalType": "bool",
          "name": "_support",
          "type": "bool"
        }
      ],
      "name": "vote",
      "outputs": [
        {
          "internalType": "bool",
          "name": "",
          "type": "bool"
        }
      ],
      "stateMutability": "nonpayable",
      "type": "function"
    },
    {
      "inputs": [
        {
          "internalType": "address[]",
          "name": "_gauge",
          "type": "address[]"
        },
        {
          "internalType": "uint256[]",
          "name": "_weight",
          "type": "uint256[]"
        }
      ],
      "name": "voteGaugeWeight",
      "outputs": [
        {
          "internalType": "bool",
          "name": "",
          "type": "bool"
        }
      ],
      "stateMutability": "nonpayable",
      "type": "function"
    },
    {
      "inputs": [
        {
          "internalType": "uint256",
          "name": "_pid",
          "type": "uint256"
        },
        {
          "internalType": "address",
          "name": "_gauge",
          "type": "address"
        }
      ],
      "name": "claimRewards",
      "outputs": [
        {
          "internalType": "bool",
          "name": "",
          "type": "bool"
        }
      ],
      "stateMutability": "nonpayable",
      "type": "function"
    },
    {
      "inputs": [
        {
          "internalType": "uint256",
          "name": "_pid",
          "type": "uint256"
        }
      ],
      "name": "setGaugeRedirect",
      "outputs": [
        {
          "internalType": "bool",
          "name": "",
          "type": "bool"
        }
      ],
      "stateMutability": "nonpayable",
      "type": "function"
    },
    {
      "inputs": [
        {
          "internalType": "uint256",
          "name": "_pid",
          "type": "uint256"
        }
      ],
      "name": "earmarkRewards",
      "outputs": [
        {
          "internalType": "bool",
          "name": "",
          "type": "bool"
        }
      ],
      "stateMutability": "nonpayable",
      "type": "function"
    },
    {
      "inputs": [],
      "name": "earmarkFees",
      "outputs": [
        {
          "internalType": "bool",
          "name": "",
          "type": "bool"
        }
      ],
      "stateMutability": "nonpayable",
      "type": "function"
    },
    {
      "inputs": [
        {
          "internalType": "uint256",
          "name": "_pid",
          "type": "uint256"
        },
        {
          "internalType": "address",
          "name": "_address",
          "type": "address"
        },
        {
          "internalType": "uint256",
          "name": "_amount",
          "type": "uint256"
        }
      ],
      "name": "rewardClaimed",
      "outputs": [
        {
          "internalType": "bool",
          "name": "",
          "type": "bool"
        }
      ],
      "stateMutability": "nonpayable",
      "type": "function"
    }
  ],
  "bytecode": "0x60c06040526103e86002556101c2600355603260045560006005553480156200002757600080fd5b5060405162003cf438038062003cf4833981810160405260808110156200004d57600080fd5b508051602082015160408301516060909301519192909160006200007062000150565b600080546001600160a01b0319166001600160a01b0383169081178255604051929350917f8be0079c531659141344cd1fd0a4f28419497f9722a3daafe3b4186f6b6457e0908290a35060138054606095861b6001600160601b0319908116608052600c8054336001600160a01b031991821681179092556006805482168317905560078054821690921790915560118054821690556012805482169055600d8054821690559590961b90951660a052600180549094166001600160a01b03938416179093556001600160a81b0319909316921691909117905562000154565b3390565b60805160601c60a05160601c613b30620001c4600039806109f952806119bb525080610b355280610d985280610f095280610f8152806114fd5280611667528061178f5280611e9f52806121225280612311528061283b5280612a955280612d4f52806131c05250613b306000f3fe608060405234801561001057600080fd5b50600436106103995760003560e01c80637aef6715116101e9578063bf09dac01161010f578063d6a0f530116100ad578063e2cdd42a1161007c578063e2cdd42a14610951578063e77772fe14610985578063f0f442601461098d578063f2fde38b146109b357610399565b8063d6a0f53014610931578063d73792a914610939578063d782139a14610941578063dc4c90d31461094957610399565b8063cb0d5b52116100e9578063cb0d5b52146108de578063cc956f3f14610904578063cfb9cfba14610921578063d0fb02031461092957610399565b8063bf09dac0146107ee578063bf86d69014610814578063bfad96ba1461081c57610399565b806395539a1d11610187578063a91ee0dc11610156578063a91ee0dc14610792578063ab366292146107b8578063b0eefabe146107c0578063b42eda71146107e657610399565b806395539a1d14610737578063958e2d31146107655780639f00332b14610782578063a386a0801461078a57610399565b80637e29d6c2116101c35780637e29d6c2146106d45780638da5cb5b1461070a5780639123d4041461071257806393e846a01461072f57610399565b80637aef67151461066e5780637b103999146106945780637bd3b9951461069c57610399565b8063472d35b9116102ce57806362d28ac71161026c57806371192b171161023b57806371192b1714610606578063715018a6146106385780637303df9a14610640578063748743231461064857610399565b806362d28ac71461059b578063647846a5146105a35780636c7b69cb146105ab5780636fcba377146105d757610399565b80635ebaf1db116102a85780635ebaf1db1461054957806360759fce1461055157806360cafe841461057657806361d027b31461059357610399565b8063472d35b91461051357806350940618146105395780635a4ae5ca1461054157610399565b8063245e4bf01161033b578063376d771a11610315578063376d771a146104b55780633a088cd2146104bd57806343a0d066146104c5578063441a3e70146104f057610399565b8063245e4bf01461049b57806326232a2e146104a3578063354af919146104ab57610399565b8063081e3eda11610377578063081e3eda146103d257806314cd70e4146103ec5780631526fe271461043257806322230b961461049357610399565b8063043b684a1461039e578063068eb19e146103c257806307546172146103ca575b600080fd5b6103a66109d9565b604080516001600160a01b039092168252519081900360200190f35b6103a66109e8565b6103a66109f7565b6103da610a1b565b60408051918252519081900360200190f35b61041e6004803603606081101561040257600080fd5b50803590602081013590604001356001600160a01b0316610a21565b604080519115158252519081900360200190f35b61044f6004803603602081101561044857600080fd5b5035610aa5565b604080516001600160a01b0397881681529587166020870152938616858501529185166060850152909316608083015291151560a082015290519081900360c00190f35b61041e610b03565b6103a6610c99565b6103da610ca8565b6104b3610cae565b005b6103a6610e21565b6103da610e30565b61041e600480360360608110156104db57600080fd5b50803590602081013590604001351515610e36565b61041e6004803603604081101561050657600080fd5b5080359060200135611259565b6104b36004803603602081101561052957600080fd5b50356001600160a01b0316611271565b6103da6112da565b6104b36112e0565b6103a66114fb565b61041e6004803603604081101561056757600080fd5b5080359060200135151561151f565b61041e6004803603602081101561058c57600080fd5b50356115cc565b6103a66116fe565b6103da61170d565b6103a6611713565b61041e600480360360408110156105c157600080fd5b50803590602001356001600160a01b0316611722565b6104b3600480360360808110156105ed57600080fd5b508035906020810135906040810135906060013561181e565b61041e6004803603606081101561061c57600080fd5b508035906001600160a01b036020820135169060400135611939565b6104b3611a53565b6103da611b11565b6104b36004803603602081101561065e57600080fd5b50356001600160a01b0316611b17565b6104b36004803603602081101561068457600080fd5b50356001600160a01b0316611b80565b6103a6611be9565b6104b3600480360360608110156106b257600080fd5b506001600160a01b038135811691602081013582169160409091013516611bf8565b61041e600480360360608110156106ea57600080fd5b506001600160a01b03813581169160208101359091169060400135611cb2565b6103a66121fc565b61041e6004803603602081101561072857600080fd5b503561220b565b6103da6124b4565b6104b36004803603604081101561074d57600080fd5b506001600160a01b03813581169160200135166124b9565b61041e6004803603602081101561077b57600080fd5b5035612553565b6103a6612602565b6103a6612611565b6104b3600480360360208110156107a857600080fd5b50356001600160a01b0316612629565b6103a66126a0565b6104b3600480360360208110156107d657600080fd5b50356001600160a01b03166126af565b6103a6612726565b6104b36004803603602081101561080457600080fd5b50356001600160a01b031661273e565b61041e6127d4565b61041e6004803603604081101561083257600080fd5b81019060208101813564010000000081111561084d57600080fd5b82018360208201111561085f57600080fd5b8035906020019184602083028401116401000000008311171561088157600080fd5b91939092909160208101903564010000000081111561089f57600080fd5b8201836020820111156108b157600080fd5b803590602001918460208302840111640100000000831117156108d357600080fd5b5090925090506127e4565b61041e600480360360208110156108f457600080fd5b50356001600160a01b0316612901565b61041e6004803603602081101561091a57600080fd5b5035612916565b6103a6612974565b6103a6612983565b6103a6612992565b6103da6129a1565b6103a66129a7565b6103a66129b6565b61041e6004803603606081101561096757600080fd5b508035906001600160a01b03602082013516906040013515156129c5565b6103a6612b14565b6104b3600480360360208110156109a357600080fd5b50356001600160a01b0316612b23565b6104b3600480360360208110156109c957600080fd5b50356001600160a01b0316612b8c565b600b546001600160a01b031681565b6009546001600160a01b031681565b7f000000000000000000000000000000000000000000000000000000000000000081565b60145490565b60008060148581548110610a3157fe5b60009182526020909120600360059092020101546001600160a01b03169050338114610a8c576040805162461bcd60e51b8152602060048201526005602482015264042c2eae8d60db1b604482015290519081900360640190fd5b610a9885853386612ca0565b60019150505b9392505050565b60148181548110610ab257fe5b6000918252602090912060059091020180546001820154600283015460038401546004909401546001600160a01b03938416955091831693908316929081169190811690600160a01b900460ff1686565b60115460125460408051632dbfa73560e01b81526001600160a01b0393841660048201529183166024830152516000927f00000000000000000000000000000000000000000000000000000000000000001691632dbfa735916044808301928692919082900301818387803b158015610b7b57600080fd5b505af1158015610b8f573d6000803e3d6000fd5b5050601254604080516370a0823160e01b81523060048201529051600094506001600160a01b0390921692506370a08231916024808301926020929190829003018186803b158015610be057600080fd5b505afa158015610bf4573d6000803e3d6000fd5b505050506040513d6020811015610c0a57600080fd5b5051601054601254919250610c2c916001600160a01b03908116911683612ef9565b6010546040805163590a41f560e01b81526004810184905290516001600160a01b039092169163590a41f59160248082019260009290919082900301818387803b158015610c7957600080fd5b505af1158015610c8d573d6000803e3d6000fd5b50505050600191505090565b6008546001600160a01b031681565b60055481565b610cb66121fc565b6001600160a01b0316336001600160a01b031614610d03576040805162461bcd60e51b8152602060048201526005602482015264042c2eae8d60db1b604482015290519081900360640190fd5b6013805460ff60a01b1916600160a01b17905560005b601454811015610e1e57600060148281548110610d3257fe5b906000526020600020906005020190508060040160149054906101000a900460ff1615610d5f5750610e16565b80546002820154604080516301395c5960e31b81526001600160a01b0393841660048201819052928416602482018190529151929391927f0000000000000000000000000000000000000000000000000000000000000000909216916309cae2c89160448082019260009290919082900301818387803b158015610de257600080fd5b505af1925050508015610df3575060015b610dfc57610e12565b60048301805460ff60a01b1916600160a01b1790555b5050505b600101610d19565b50565b600f546001600160a01b031681565b60045481565b601354600090600160a01b900460ff1615610e83576040805162461bcd60e51b815260206004820152600860248201526739b43aba3237bbb760c11b604482015290519081900360640190fd5b600060148581548110610e9257fe5b600091825260209091206005909102016004810154909150600160a01b900460ff1615610ef7576040805162461bcd60e51b815260206004820152600e60248201526d1c1bdbdb081a5cc818db1bdcd95960921b604482015290519081900360640190fd5b80546001600160a01b0316610f2e81337f000000000000000000000000000000000000000000000000000000000000000088612f50565b60028201546001600160a01b031680610f7f576040805162461bcd60e51b815260206004820152600e60248201526d2167617567652073657474696e6760901b604482015290519081900360640190fd5b7f00000000000000000000000000000000000000000000000000000000000000006001600160a01b031663f9609f0883836040518363ffffffff1660e01b815260040180836001600160a01b03168152602001826001600160a01b0316815260200192505050600060405180830381600087803b158015610fff57600080fd5b505af1158015611013573d6000803e3d6000fd5b5050505060048301546001600160a01b0316801561109357806001600160a01b031663b87bd4816040518163ffffffff1660e01b8152600401602060405180830381600087803b15801561106657600080fd5b505af115801561107a573d6000803e3d6000fd5b505050506040513d602081101561109057600080fd5b50505b60018401546001600160a01b031686156111ac57604080516340c10f1960e01b8152306004820152602481018a905290516001600160a01b038316916340c10f1991604480830192600092919082900301818387803b1580156110f557600080fd5b505af1158015611109573d6000803e3d6000fd5b50505060038601546001600160a01b03908116915061112c908316826000612fb0565b6111406001600160a01b038316828b612fb0565b604080516305dc812160e31b8152336004820152602481018b905290516001600160a01b03831691632ee4090891604480830192600092919082900301818387803b15801561118e57600080fd5b505af11580156111a2573d6000803e3d6000fd5b5050505050611213565b604080516340c10f1960e01b8152336004820152602481018a905290516001600160a01b038316916340c10f1991604480830192600092919082900301818387803b1580156111fa57600080fd5b505af115801561120e573d6000803e3d6000fd5b505050505b6040805189815290518a9133917f73a19dd210f1a7f902193214c0ee91dd35ee5b4d920cba8d519eca65a7b488ca9181900360200190a350600198975050505050505050565b600061126783833333612ca0565b5060015b92915050565b6006546001600160a01b031633146112b8576040805162461bcd60e51b8152602060048201526005602482015264042c2eae8d60db1b604482015290519081900360640190fd5b600680546001600160a01b0319166001600160a01b0392909216919091179055565b60025481565b6006546001600160a01b03163314611327576040805162461bcd60e51b8152602060048201526005602482015264042c2eae8d60db1b604482015290519081900360640190fd5b6013546040805163124fd3dd60e21b815260048181015290516001600160a01b039092169163493f4f7491602480820192602092909190829003018186803b15801561137257600080fd5b505afa158015611386573d6000803e3d6000fd5b505050506040513d602081101561139c57600080fd5b5051601180546001600160a01b0319166001600160a01b03928316179081905560408051637e062a3560e11b81529051600093929092169163fc0c546a91600480820192602092909190829003018186803b1580156113fa57600080fd5b505afa15801561140e573d6000803e3d6000fd5b505050506040513d602081101561142457600080fd5b50516012549091506001600160a01b03808316911614610e1e57600854600f5460408051637c6b091760e11b81526001600160a01b03858116600483015292831660248201523060448201529051919092169163f8d6122e9160648083019260209291908290030181600087803b15801561149e57600080fd5b505af11580156114b2573d6000803e3d6000fd5b505050506040513d60208110156114c857600080fd5b5051601080546001600160a01b039283166001600160a01b03199182161790915560128054939092169216919091179055565b7f000000000000000000000000000000000000000000000000000000000000000081565b6000806014848154811061152f57fe5b60009182526020808320600590920290910154604080516370a0823160e01b815233600482015290516001600160a01b03909216945084926370a0823192602480840193829003018186803b15801561158757600080fd5b505afa15801561159b573d6000803e3d6000fd5b505050506040513d60208110156115b157600080fd5b505190506115c0858286610e36565b50600195945050505050565b6007546000906001600160a01b03163314611616576040805162461bcd60e51b8152602060048201526005602482015264042c2eae8d60db1b604482015290519081900360640190fd5b60006014838154811061162557fe5b60009182526020822060059091020180546002820154604080516301395c5960e31b81526001600160a01b0393841660048201529183166024830152519294507f000000000000000000000000000000000000000000000000000000000000000091909116926309cae2c89260448084019382900301818387803b1580156116ac57600080fd5b505af19250505080156116bd575060015b5060048101805460ff60a01b1916600160a01b179055600201546001600160a01b03166000908152601560205260409020805460ff19169055506001919050565b600d546001600160a01b031681565b60035481565b6012546001600160a01b031681565b6000806014848154811061173257fe5b60009182526020909120600460059092020101546001600160a01b0316905033811461178d576040805162461bcd60e51b8152602060048201526005602482015264042c2eae8d60db1b604482015290519081900360640190fd5b7f00000000000000000000000000000000000000000000000000000000000000006001600160a01b031663ef5cfb8c846040518263ffffffff1660e01b815260040180826001600160a01b03168152602001915050600060405180830381600087803b1580156117fc57600080fd5b505af1158015611810573d6000803e3d6000fd5b506001979650505050505050565b6006546001600160a01b03163314611865576040805162461bcd60e51b8152602060048201526005602482015264042c2eae8d60db1b604482015290519081900360640190fd5b600061187d82611877858189896130c3565b906130c3565b90506107d08111156118c1576040805162461bcd60e51b81526020600482015260086024820152673e4d61784665657360c01b604482015290519081900360640190fd5b6103e885101580156118d557506105dc8511155b80156118e3575061012c8410155b80156118f157506102588411155b80156118fe5750600a8310155b801561190b575060648311155b8015611918575060c88211155b156119325760028590556003849055600483905560058290555b5050505050565b6000806014858154811061194957fe5b60009182526020909120600360059092020101546001600160a01b03169050338114806119805750600f546001600160a01b031633145b6119b9576040805162461bcd60e51b8152602060048201526005602482015264042c2eae8d60db1b604482015290519081900360640190fd5b7f00000000000000000000000000000000000000000000000000000000000000006001600160a01b03166340c10f1985856040518363ffffffff1660e01b815260040180836001600160a01b0316815260200182815260200192505050600060405180830381600087803b158015611a3057600080fd5b505af1158015611a44573d6000803e3d6000fd5b50600198975050505050505050565b611a5b61311d565b6001600160a01b0316611a6c6121fc565b6001600160a01b031614611ac7576040805162461bcd60e51b815260206004820181905260248201527f4f776e61626c653a2063616c6c6572206973206e6f7420746865206f776e6572604482015290519081900360640190fd5b600080546040516001600160a01b03909116907f8be0079c531659141344cd1fd0a4f28419497f9722a3daafe3b4186f6b6457e0908390a3600080546001600160a01b0319169055565b6107d081565b600c546001600160a01b03163314611b5e576040805162461bcd60e51b8152602060048201526005602482015264042c2eae8d60db1b604482015290519081900360640190fd5b600c80546001600160a01b0319166001600160a01b0392909216919091179055565b6007546001600160a01b03163314611bc7576040805162461bcd60e51b8152602060048201526005602482015264042c2eae8d60db1b604482015290519081900360640190fd5b600780546001600160a01b0319166001600160a01b0392909216919091179055565b6013546001600160a01b031681565b611c006121fc565b6001600160a01b0316336001600160a01b031614611c4d576040805162461bcd60e51b8152602060048201526005602482015264042c2eae8d60db1b604482015290519081900360640190fd5b6008546001600160a01b0316611c8e57600880546001600160a01b038086166001600160a01b031992831617909255600a8054928416929091169190911790555b50600980546001600160a01b0319166001600160a01b039290921691909117905550565b6007546000906001600160a01b031633148015611cd95750601354600160a01b900460ff16155b611d13576040805162461bcd60e51b815260206004808301919091526024820152630858591960e21b604482015290519081900360640190fd5b6001600160a01b03831615801590611d3357506001600160a01b03841615155b611d6d576040805162461bcd60e51b815260206004820152600660248201526521706172616d60d01b604482015290519081900360640190fd5b601454600a5460408051630452a26760e21b81526001600160a01b0388811660048301529151600093929092169163114a899c9160248082019260209290919082900301818787803b158015611dc257600080fd5b505af1158015611dd6573d6000803e3d6000fd5b505050506040513d6020811015611dec57600080fd5b505160085460408051633a9dc6dd60e01b8152600481018690526001600160a01b03808516602483015291519394506000939190921691633a9dc6dd91604480830192602092919082900301818787803b158015611e4957600080fd5b505af1158015611e5d573d6000803e3d6000fd5b505050506040513d6020811015611e7357600080fd5b505160095460408051634ce5896f60e11b8152600481018790526001600160a01b038a811660248301527f000000000000000000000000000000000000000000000000000000000000000081166044830152606482018a9052915193945060009391909216916399cb12de91608480830192602092919082900301818787803b158015611eff57600080fd5b505af1158015611f13573d6000803e3d6000fd5b505050506040513d6020811015611f2957600080fd5b50516040805160c0810182526001600160a01b03808c16825286811660208381019182528c83168486018181528985166060870190815285891660808801818152600060a08a0181815260148054600181810183559184529b516005909c027fce6d7b5282bd9a3661ae061feed1dbda4e52ab073b1f9285be6e155d9c38d4ec810180549d8d166001600160a01b03199e8f1617905599517fce6d7b5282bd9a3661ae061feed1dbda4e52ab073b1f9285be6e155d9c38d4ed8b018054918d16918e1691909117905595517fce6d7b5282bd9a3661ae061feed1dbda4e52ab073b1f9285be6e155d9c38d4ee8a018054918c16918d1691909117905593517fce6d7b5282bd9a3661ae061feed1dbda4e52ab073b1f9285be6e155d9c38d4ef89018054918b16918c1691909117905590517fce6d7b5282bd9a3661ae061feed1dbda4e52ab073b1f9285be6e155d9c38d4f0909701805493511515600160a01b0260ff60a01b199890991693909916929092179590951695909517909555835260159052929020805460ff19169091179055909150156118105780601485815481106120d157fe5b6000918252602082206004600590920201810180546001600160a01b039485166001600160a01b031990911617905560408051637d1cb25960e11b81528585169281019290925260016024830152517f00000000000000000000000000000000000000000000000000000000000000009093169263fa3964b29260448084019391929182900301818387803b15801561216957600080fd5b505af115801561217d573d6000803e3d6000fd5b50506008546040805163b84614a560e01b81526001600160a01b03868116600483015260016024830152915191909216935063b84614a59250604480830192600092919082900301818387803b1580156121d657600080fd5b505af11580156121ea573d6000803e3d6000fd5b50505050506001979650505050505050565b6000546001600160a01b031690565b6000806014838154811061221b57fe5b60009182526020909120600460059092020101546001600160a01b03169050338114612276576040805162461bcd60e51b8152602060048201526005602482015264042c2eae8d60db1b604482015290519081900360640190fd5b60006014848154811061228557fe5b6000918252602080832060026005909302019190910154604080516001600160a01b038781166024808401919091528351808403820181526044938401855295860180516001600160e01b0316635efcc08b60e11b1781529351635b0e93fb60e11b815294821660048601818152918601889052606093860193845286516064870152865190985095967f00000000000000000000000000000000000000000000000000000000000000009092169563b61d27f6958995939489949092608490920191808383895b8381101561236557818101518382015260200161234d565b50505050905090810190601f1680156123925780820380516001836020036101000a031916815260200191505b50945050505050600060405180830381600087803b1580156123b357600080fd5b505af11580156123c7573d6000803e3d6000fd5b505050506040513d6000823e601f3d908101601f1916820160409081528110156123f057600080fd5b81516020830180516040519294929383019291908464010000000082111561241757600080fd5b90830190602082018581111561242c57600080fd5b825164010000000081118282018810171561244657600080fd5b82525081516020918201929091019080838360005b8381101561247357818101518382015260200161245b565b50505050905090810190601f1680156124a05780820380516001836020036101000a031916815260200191505b506040525060019998505050505050505050565b600481565b6124c16121fc565b6001600160a01b0316336001600160a01b03161461250e576040805162461bcd60e51b8152602060048201526005602482015264042c2eae8d60db1b604482015290519081900360640190fd5b600f546001600160a01b031661254f57600f80546001600160a01b038085166001600160a01b031992831617909255600e8054928416929091169190911790555b5050565b6000806014838154811061256357fe5b6000918252602080832060016005909302019190910154604080516370a0823160e01b815233600482015290516001600160a01b03909216945084926370a0823192602480840193829003018186803b1580156125bf57600080fd5b505afa1580156125d3573d6000803e3d6000fd5b505050506040513d60208110156125e957600080fd5b505190506125f78482611259565b506001949350505050565b600c546001600160a01b031681565b73e478de485ad2fe566d49342cbd03e49ed7db335681565b6126316121fc565b6001600160a01b0316336001600160a01b03161461267e576040805162461bcd60e51b8152602060048201526005602482015264042c2eae8d60db1b604482015290519081900360640190fd5b601380546001600160a01b0319166001600160a01b0392909216919091179055565b6010546001600160a01b031681565b6126b76121fc565b6001600160a01b0316336001600160a01b031614612704576040805162461bcd60e51b8152602060048201526005602482015264042c2eae8d60db1b604482015290519081900360640190fd5b600b80546001600160a01b0319166001600160a01b0392909216919091179055565b73bcff8b0b9419b9a88c44546519b1e909cf33039981565b61274661311d565b6001600160a01b03166127576121fc565b6001600160a01b0316146127b2576040805162461bcd60e51b815260206004820181905260248201527f4f776e61626c653a2063616c6c6572206973206e6f7420746865206f776e6572604482015290519081900360640190fd5b600180546001600160a01b0319166001600160a01b0392909216919091179055565b601354600160a01b900460ff1681565b600c546000906001600160a01b0316331461282e576040805162461bcd60e51b8152602060048201526005602482015264042c2eae8d60db1b604482015290519081900360640190fd5b60005b848110156115c0577f00000000000000000000000000000000000000000000000000000000000000006001600160a01b0316635d7e9bcb87878481811061287457fe5b905060200201356001600160a01b031686868581811061289057fe5b905060200201356040518363ffffffff1660e01b815260040180836001600160a01b0316815260200182815260200192505050600060405180830381600087803b1580156128dd57600080fd5b505af11580156128f1573d6000803e3d6000fd5b5050600190920191506128319050565b60156020526000908152604090205460ff1681565b601354600090600160a01b900460ff1615612963576040805162461bcd60e51b815260206004820152600860248201526739b43aba3237bbb760c11b604482015290519081900360640190fd5b61296c82613121565b506001919050565b600e546001600160a01b031681565b6006546001600160a01b031681565b6011546001600160a01b031681565b61271081565b6001546001600160a01b031681565b6007546001600160a01b031681565b600c546000906001600160a01b03163314612a0f576040805162461bcd60e51b8152602060048201526005602482015264042c2eae8d60db1b604482015290519081900360640190fd5b6001600160a01b03831673e478de485ad2fe566d49342cbd03e49ed7db33561480612a5657506001600160a01b03831673bcff8b0b9419b9a88c44546519b1e909cf330399145b612a93576040805162461bcd60e51b815260206004820152600960248201526810bb37ba32a0b2323960b91b604482015290519081900360640190fd5b7f00000000000000000000000000000000000000000000000000000000000000006001600160a01b031663e2cdd42a8585856040518463ffffffff1660e01b815260040180848152602001836001600160a01b0316815260200182151581526020019350505050600060405180830381600087803b1580156117fc57600080fd5b600a546001600160a01b031681565b6006546001600160a01b03163314612b6a576040805162461bcd60e51b8152602060048201526005602482015264042c2eae8d60db1b604482015290519081900360640190fd5b600d80546001600160a01b0319166001600160a01b0392909216919091179055565b612b9461311d565b6001600160a01b0316612ba56121fc565b6001600160a01b031614612c00576040805162461bcd60e51b815260206004820181905260248201527f4f776e61626c653a2063616c6c6572206973206e6f7420746865206f776e6572604482015290519081900360640190fd5b6001600160a01b038116612c455760405162461bcd60e51b8152600401808060200182810382526026815260200180613a2e6026913960400191505060405180910390fd5b600080546040516001600160a01b03808516939216917f8be0079c531659141344cd1fd0a4f28419497f9722a3daafe3b4186f6b6457e091a3600080546001600160a01b0319166001600160a01b0392909216919091179055565b600060148581548110612caf57fe5b60009182526020822060059091020180546002820154600183015460408051632770a7eb60e21b81526001600160a01b038a81166004830152602482018c9052915195975093811695928116949116928392639dc29fac9260448084019382900301818387803b158015612d2257600080fd5b505af1158015612d36573d6000803e3d6000fd5b505050506004840154600160a01b900460ff16612dee577f00000000000000000000000000000000000000000000000000000000000000006001600160a01b031663d9caed1284848a6040518463ffffffff1660e01b815260040180846001600160a01b03168152602001836001600160a01b031681526020018281526020019350505050600060405180830381600087803b158015612dd557600080fd5b505af1158015612de9573d6000803e3d6000fd5b505050505b60048401546001600160a01b03168015801590612e155750601354600160a01b900460ff16155b8015612e2d57506004850154600160a01b900460ff16155b15612e9a57806001600160a01b031663b87bd4816040518163ffffffff1660e01b8152600401602060405180830381600087803b158015612e6d57600080fd5b505af1158015612e81573d6000803e3d6000fd5b505050506040513d6020811015612e9757600080fd5b50505b612eae6001600160a01b038516878a612ef9565b6040805189815290518a916001600160a01b038916917f92ccf450a286a957af52509bc1c9939d1a6a481783e142e41e2499f0bb66ebc69181900360200190a3505050505050505050565b604080516001600160a01b038416602482015260448082018490528251808303909101815260649091019091526020810180516001600160e01b031663a9059cbb60e01b179052612f4b908490613642565b505050565b604080516001600160a01b0380861660248301528416604482015260648082018490528251808303909101815260849091019091526020810180516001600160e01b03166323b872dd60e01b179052612faa908590613642565b50505050565b801580613036575060408051636eb1769f60e11b81523060048201526001600160a01b03848116602483015291519185169163dd62ed3e91604480820192602092909190829003018186803b15801561300857600080fd5b505afa15801561301c573d6000803e3d6000fd5b505050506040513d602081101561303257600080fd5b5051155b6130715760405162461bcd60e51b8152600401808060200182810382526036815260200180613ac56036913960400191505060405180910390fd5b604080516001600160a01b038416602482015260448082018490528251808303909101815260649091019091526020810180516001600160e01b031663095ea7b360e01b179052612f4b908490613642565b600082820183811015610a9e576040805162461bcd60e51b815260206004820152601b60248201527f536166654d6174683a206164646974696f6e206f766572666c6f770000000000604482015290519081900360640190fd5b3390565b60006014828154811061313057fe5b600091825260209091206005909102016004810154909150600160a01b900460ff1615613195576040805162461bcd60e51b815260206004820152600e60248201526d1c1bdbdb081a5cc818db1bdcd95960921b604482015290519081900360640190fd5b600281015460408051632990690960e21b81526001600160a01b0392831660048201819052915191927f0000000000000000000000000000000000000000000000000000000000000000169163a641a424916024808201926020929091908290030181600087803b15801561320957600080fd5b505af115801561321d573d6000803e3d6000fd5b505050506040513d602081101561323357600080fd5b505060048201546001600160a01b0316801561331f57806001600160a01b031663372500ab6040518163ffffffff1660e01b8152600401602060405180830381600087803b15801561328457600080fd5b505af1158015613298573d6000803e3d6000fd5b505050506040513d60208110156132ae57600080fd5b50506040805163654580bb60e11b815290516001600160a01b0383169163ca8b01769160048083019260209291908290030181600087803b1580156132f257600080fd5b505af1158015613306573d6000803e3d6000fd5b505050506040513d602081101561331c57600080fd5b50505b600154604080516370a0823160e01b815230600482015290516000926001600160a01b0316916370a08231916024808301926020929190829003018186803b15801561336a57600080fd5b505afa15801561337e573d6000803e3d6000fd5b505050506040513d602081101561339457600080fd5b5051905080156119325760006133c16127106133bb600254856136f390919063ffffffff16565b9061374c565b905060006133e06127106133bb600354866136f390919063ffffffff16565b905060006133ff6127106133bb600454876136f390919063ffffffff16565b600d549091506001600160a01b0316158015906134275750600d546001600160a01b03163014155b801561343557506000600554115b156134855760006134576127106133bb600554886136f390919063ffffffff16565b905061346385826137b3565b600d54600154919650613483916001600160a01b03908116911683612ef9565b505b61349b82613495838188886137b3565b906137b3565b6001549094506134b5906001600160a01b03163383612ef9565b60038701546001546001600160a01b03918216916134d591168287612ef9565b806001600160a01b031663590a41f5866040518263ffffffff1660e01b815260040180828152602001915050600060405180830381600087803b15801561351b57600080fd5b505af115801561352f573d6000803e3d6000fd5b5050600f5460015461355093506001600160a01b0390811692501686612ef9565b600f546040805163590a41f560e01b81526004810187905290516001600160a01b039092169163590a41f59160248082019260009290919082900301818387803b15801561359d57600080fd5b505af11580156135b1573d6000803e3d6000fd5b5050600e546001546135d293506001600160a01b0390811692501685612ef9565b600e546040805163590a41f560e01b81526004810186905290516001600160a01b039092169163590a41f59160248082019260009290919082900301818387803b15801561361f57600080fd5b505af1158015613633573d6000803e3d6000fd5b50505050505050505050505050565b6060613697826040518060400160405280602081526020017f5361666545524332303a206c6f772d6c6576656c2063616c6c206661696c6564815250856001600160a01b03166138109092919063ffffffff16565b805190915015612f4b578080602001905160208110156136b657600080fd5b5051612f4b5760405162461bcd60e51b815260040180806020018281038252602a815260200180613a9b602a913960400191505060405180910390fd5b6000826137025750600061126b565b8282028284828161370f57fe5b0414610a9e5760405162461bcd60e51b8152600401808060200182810382526021815260200180613a7a6021913960400191505060405180910390fd5b60008082116137a2576040805162461bcd60e51b815260206004820152601a60248201527f536166654d6174683a206469766973696f6e206279207a65726f000000000000604482015290519081900360640190fd5b8183816137ab57fe5b049392505050565b60008282111561380a576040805162461bcd60e51b815260206004820152601e60248201527f536166654d6174683a207375627472616374696f6e206f766572666c6f770000604482015290519081900360640190fd5b50900390565b606061381f8484600085613827565b949350505050565b6060824710156138685760405162461bcd60e51b8152600401808060200182810382526026815260200180613a546026913960400191505060405180910390fd5b61387185613983565b6138c2576040805162461bcd60e51b815260206004820152601d60248201527f416464726573733a2063616c6c20746f206e6f6e2d636f6e7472616374000000604482015290519081900360640190fd5b60006060866001600160a01b031685876040518082805190602001908083835b602083106139015780518252601f1990920191602091820191016138e2565b6001836020036101000a03801982511681845116808217855250505050505090500191505060006040518083038185875af1925050503d8060008114613963576040519150601f19603f3d011682016040523d82523d6000602084013e613968565b606091505b5091509150613978828286613989565b979650505050505050565b3b151590565b60608315613998575081610a9e565b8251156139a85782518084602001fd5b8160405162461bcd60e51b81526004018080602001828103825283818151815260200191508051906020019080838360005b838110156139f25781810151838201526020016139da565b50505050905090810190601f168015613a1f5780820380516001836020036101000a031916815260200191505b509250505060405180910390fdfe4f776e61626c653a206e6577206f776e657220697320746865207a65726f2061646472657373416464726573733a20696e73756666696369656e742062616c616e636520666f722063616c6c536166654d6174683a206d756c7469706c69636174696f6e206f766572666c6f775361666545524332303a204552433230206f7065726174696f6e20646964206e6f7420737563636565645361666545524332303a20617070726f76652066726f6d206e6f6e2d7a65726f20746f206e6f6e2d7a65726f20616c6c6f77616e6365a26469706673582212201b309ca1fc77c8cc5eb9fbaf6cdc6a66ce8fee5b3c296c616a763056b80db20464736f6c634300060c0033",
  "immutableReferences": {
    "3326": [
      {
        "length": 32,
        "start": 2869
      },
      {
        "length": 32,
        "start": 3480
      },
      {
        "length": 32,
        "start": 3849
      },
      {
        "length": 32,
        "start": 3969
      },
      {
        "length": 32,
        "start": 5373
      },
      {
        "length": 32,
        "start": 5735
      },
      {
        "length": 32,
        "start": 6031
      },
      {
        "length": 32,
        "start": 7839
      },
      {
        "length": 32,
        "start": 8482
      },
      {
        "length": 32,
        "start": 8977
      },
      {
        "length": 32,
        "start": 10299
      },
      {
        "length": 32,
        "start": 10901
      },
      {
        "length": 32,
        "start": 11599
      },
      {
        "length": 32,
        "start": 12736
      }
    ],
    "3328": [
      {
        "length": 32,
        "start": 2553
      },
      {
        "length": 32,
        "start": 6587
      }
    ]
  },
  "source": "// SPDX-License-Identifier: MIT\npragma solidity 0.6.12;\n\nimport \"./Interfaces.sol\";\nimport \"@openzeppelin/contracts/math/SafeMath.sol\";\nimport \"@openzeppelin/contracts/token/ERC20/IERC20.sol\";\nimport \"@openzeppelin/contracts/utils/Address.sol\";\nimport \"@openzeppelin/contracts/token/ERC20/SafeERC20.sol\";\nimport \"@openzeppelin/contracts/access/Ownable.sol\";\n\ncontract Booster is Ownable {\n  using SafeERC20 for IERC20;\n  using Address for address;\n  using SafeMath for uint256;\n\n  address public kgl;\n  // TODO: extract\n  // address public constant registry = address(0x0000000022D53366457F9d5E68Ec105046FC4383);\n  uint256 public constant distributionAddressId = 4;\n  address public constant voteOwnership = address(0xE478de485ad2fe566d49342Cbd03E49ed7DB3356);\n  address public constant voteParameter = address(0xBCfF8B0b9419b9A88c44546519b1e909cF330399);\n\n  uint256 public lockIncentive = 1000; //incentive to kgl stakers\n  uint256 public stakerIncentive = 450; //incentive to native token stakers\n  uint256 public earmarkIncentive = 50; //incentive to users who spend gas to make calls\n  uint256 public platformFee = 0; //possible fee to build treasury\n  uint256 public constant MaxFees = 2000;\n  uint256 public constant FEE_DENOMINATOR = 10000;\n\n  address public feeManager;\n  address public poolManager;\n  address public immutable staker;\n  address public immutable minter;\n  address public rewardFactory;\n  address public stashFactory;\n  address public tokenFactory;\n  address public rewardArbitrator;\n  address public voteDelegate;\n  address public treasury;\n  address public stakerRewards; //muuu rewards\n  address public lockRewards; //muKgl rewards(kgl)\n  address public lockFees; //muKgl vekgl fees\n  address public feeDistro;\n  address public feeToken;\n  address public registry;\n\n  bool public isShutdown;\n\n  struct PoolInfo {\n    address lptoken;\n    address token;\n    address gauge;\n    address kglRewards;\n    address stash;\n    bool shutdown;\n  }\n\n  //index(pid) -> pool\n  PoolInfo[] public poolInfo;\n  mapping(address => bool) public gaugeMap;\n\n  event Deposited(address indexed user, uint256 indexed poolid, uint256 amount);\n  event Withdrawn(address indexed user, uint256 indexed poolid, uint256 amount);\n\n  constructor(\n    address _staker,\n    address _minter,\n    address _kgl,\n    address _registry\n  ) public {\n    isShutdown = false;\n    staker = _staker;\n    voteDelegate = msg.sender;\n    feeManager = msg.sender;\n    poolManager = msg.sender;\n    feeDistro = address(0); //address(0xA464e6DCda8AC41e03616F95f4BC98a13b8922Dc);\n    feeToken = address(0); //address(0x6c3F90f043a72FA612cbac8115EE7e52BDe6E490);\n    treasury = address(0);\n    minter = _minter;\n    kgl = _kgl;\n    registry = _registry;\n  }\n\n  /// SETTER SECTION ///\n  function setKgl(address _kgl) external onlyOwner {\n    kgl = _kgl;\n  }\n\n  function setFeeManager(address _feeM) external {\n    require(msg.sender == feeManager, \"!auth\");\n    feeManager = _feeM;\n  }\n\n  function setPoolManager(address _poolM) external {\n    require(msg.sender == poolManager, \"!auth\");\n    poolManager = _poolM;\n  }\n\n  function setFactories(\n    address _rfactory,\n    address _sfactory,\n    address _tfactory\n  ) external {\n    require(msg.sender == owner(), \"!auth\");\n\n    //reward factory only allow this to be called once even if owner\n    //removes ability to inject malicious staking contracts\n    //token factory can also be immutable\n    if (rewardFactory == address(0)) {\n      rewardFactory = _rfactory;\n      tokenFactory = _tfactory;\n    }\n\n    //stash factory should be considered more safe to change\n    //updating may be required to handle new types of gauges\n    stashFactory = _sfactory;\n  }\n\n  function setArbitrator(address _arb) external {\n    require(msg.sender == owner(), \"!auth\");\n    rewardArbitrator = _arb;\n  }\n\n  function setVoteDelegate(address _voteDelegate) external {\n    require(msg.sender == voteDelegate, \"!auth\");\n    voteDelegate = _voteDelegate;\n  }\n\n  function setRewardContracts(address _rewards, address _stakerRewards) external {\n    require(msg.sender == owner(), \"!auth\");\n\n    //reward contracts are immutable or else the owner\n    //has a means to redeploy and mint muuu via rewardClaimed()\n    if (lockRewards == address(0)) {\n      lockRewards = _rewards;\n      stakerRewards = _stakerRewards;\n    }\n  }\n\n  // Set reward token and claim contract, get from Kagla's registry\n  function setFeeInfo() external {\n    require(msg.sender == feeManager, \"!auth\");\n\n    feeDistro = IAddressProvider(registry).get_address(distributionAddressId);\n    address _feeToken = IFeeDistro(feeDistro).token();\n    if (feeToken != _feeToken) {\n      //create a new reward contract for the new token\n      lockFees = IRewardFactory(rewardFactory).CreateTokenRewards(\n        _feeToken,\n        lockRewards,\n        address(this)\n      );\n      feeToken = _feeToken;\n    }\n  }\n\n  function setFees(\n    uint256 _lockFees,\n    uint256 _stakerFees,\n    uint256 _callerFees,\n    uint256 _platform\n  ) external {\n    require(msg.sender == feeManager, \"!auth\");\n\n    uint256 total = _lockFees.add(_stakerFees).add(_callerFees).add(_platform);\n    require(total <= MaxFees, \">MaxFees\");\n\n    //values must be within certain ranges\n    if (\n      _lockFees >= 1000 &&\n      _lockFees <= 1500 &&\n      _stakerFees >= 300 &&\n      _stakerFees <= 600 &&\n      _callerFees >= 10 &&\n      _callerFees <= 100 &&\n      _platform <= 200\n    ) {\n      lockIncentive = _lockFees;\n      stakerIncentive = _stakerFees;\n      earmarkIncentive = _callerFees;\n      platformFee = _platform;\n    }\n  }\n\n  function setTreasury(address _treasury) external {\n    require(msg.sender == feeManager, \"!auth\");\n    treasury = _treasury;\n  }\n\n  function setRegistry(address _registry) external {\n    require(msg.sender == owner(), \"!auth\");\n    registry = _registry;\n  }\n\n  /// END SETTER SECTION ///\n\n  function poolLength() external view returns (uint256) {\n    return poolInfo.length;\n  }\n\n  //create a new pool\n  function addPool(\n    address _lptoken,\n    address _gauge,\n    uint256 _stashVersion\n  ) external returns (bool) {\n    require(msg.sender == poolManager && !isShutdown, \"!add\");\n    require(_gauge != address(0) && _lptoken != address(0), \"!param\");\n\n    //the next pool's pid\n    uint256 pid = poolInfo.length;\n\n    //create a tokenized deposit\n    address token = ITokenFactory(tokenFactory).CreateDepositToken(_lptoken);\n    //create a reward contract for kgl rewards\n    address newRewardPool = IRewardFactory(rewardFactory).CreateKglRewards(pid, token);\n    //create a stash to handle extra incentives\n    address stash = IStashFactory(stashFactory).CreateStash(pid, _gauge, staker, _stashVersion);\n\n    //add the new pool\n    poolInfo.push(\n      PoolInfo({\n        lptoken: _lptoken,\n        token: token,\n        gauge: _gauge,\n        kglRewards: newRewardPool,\n        stash: stash,\n        shutdown: false\n      })\n    );\n    gaugeMap[_gauge] = true;\n    //give stashes access to rewardfactory and voteproxy\n    //   voteproxy so it can grab the incentive tokens off the contract after claiming rewards\n    //   reward factory so that stashes can make new extra reward contracts if a new incentive is added to the gauge\n    if (stash != address(0)) {\n      poolInfo[pid].stash = stash;\n      IStaker(staker).setStashAccess(stash, true);\n      IRewardFactory(rewardFactory).setAccess(stash, true);\n    }\n    return true;\n  }\n\n  //shutdown pool\n  function shutdownPool(uint256 _pid) external returns (bool) {\n    require(msg.sender == poolManager, \"!auth\");\n    PoolInfo storage pool = poolInfo[_pid];\n\n    //withdraw from gauge\n    try IStaker(staker).withdrawAll(pool.lptoken, pool.gauge) {} catch {}\n\n    pool.shutdown = true;\n    gaugeMap[pool.gauge] = false;\n    return true;\n  }\n\n  //shutdown this contract.\n  //  unstake and pull all lp tokens to this address\n  //  only allow withdrawals\n  function shutdownSystem() external {\n    require(msg.sender == owner(), \"!auth\");\n    isShutdown = true;\n\n    for (uint i = 0; i < poolInfo.length; i++) {\n      PoolInfo storage pool = poolInfo[i];\n      if (pool.shutdown) continue;\n\n      address token = pool.lptoken;\n      address gauge = pool.gauge;\n\n      //withdraw from gauge\n      try IStaker(staker).withdrawAll(token, gauge) {\n        pool.shutdown = true;\n      } catch {}\n    }\n  }\n\n  //deposit lp tokens and stake\n  function deposit(\n    uint256 _pid,\n    uint256 _amount,\n    bool _stake\n  ) public returns (bool) {\n    require(!isShutdown, \"shutdown\");\n    PoolInfo storage pool = poolInfo[_pid];\n    require(pool.shutdown == false, \"pool is closed\");\n\n    //send to proxy to stake\n    address lptoken = pool.lptoken;\n    IERC20(lptoken).safeTransferFrom(msg.sender, staker, _amount);\n\n    //stake\n    address gauge = pool.gauge;\n    require(gauge != address(0), \"!gauge setting\");\n    IStaker(staker).deposit(lptoken, gauge);\n\n    //some gauges claim rewards when depositing, stash them in a seperate contract until next claim\n    address stash = pool.stash;\n    if (stash != address(0)) {\n      IStash(stash).stashRewards();\n    }\n\n    address token = pool.token;\n    if (_stake) {\n      //mint here and send to rewards on user behalf\n      ITokenMinter(token).mint(address(this), _amount);\n      address rewardContract = pool.kglRewards;\n      IERC20(token).safeApprove(rewardContract, 0);\n      IERC20(token).safeApprove(rewardContract, _amount);\n      IRewards(rewardContract).stakeFor(msg.sender, _amount);\n    } else {\n      //add user balance directly\n      ITokenMinter(token).mint(msg.sender, _amount);\n    }\n\n    emit Deposited(msg.sender, _pid, _amount);\n    return true;\n  }\n\n  //deposit all lp tokens and stake\n  function depositAll(uint256 _pid, bool _stake) external returns (bool) {\n    address lptoken = poolInfo[_pid].lptoken;\n    uint256 balance = IERC20(lptoken).balanceOf(msg.sender);\n    deposit(_pid, balance, _stake);\n    return true;\n  }\n\n  //withdraw lp tokens\n  function _withdraw(\n    uint256 _pid,\n    uint256 _amount,\n    address _from,\n    address _to\n  ) internal {\n    PoolInfo storage pool = poolInfo[_pid];\n    address lptoken = pool.lptoken;\n    address gauge = pool.gauge;\n\n    //remove lp balance\n    address token = pool.token;\n    ITokenMinter(token).burn(_from, _amount);\n\n    //pull from gauge if not shutdown\n    // if shutdown tokens will be in this contract\n    if (!pool.shutdown) {\n      IStaker(staker).withdraw(lptoken, gauge, _amount);\n    }\n\n    //some gauges claim rewards when withdrawing, stash them in a seperate contract until next claim\n    //do not call if shutdown since stashes wont have access\n    address stash = pool.stash;\n    if (stash != address(0) && !isShutdown && !pool.shutdown) {\n      IStash(stash).stashRewards();\n    }\n\n    //return lp tokens\n    IERC20(lptoken).safeTransfer(_to, _amount);\n\n    emit Withdrawn(_to, _pid, _amount);\n  }\n\n  //withdraw lp tokens\n  function withdraw(uint256 _pid, uint256 _amount) public returns (bool) {\n    _withdraw(_pid, _amount, msg.sender, msg.sender);\n    return true;\n  }\n\n  //withdraw all lp tokens\n  function withdrawAll(uint256 _pid) public returns (bool) {\n    address token = poolInfo[_pid].token;\n    uint256 userBal = IERC20(token).balanceOf(msg.sender);\n    withdraw(_pid, userBal);\n    return true;\n  }\n\n  //allow reward contracts to send here and withdraw to user\n  function withdrawTo(\n    uint256 _pid,\n    uint256 _amount,\n    address _to\n  ) external returns (bool) {\n    address rewardContract = poolInfo[_pid].kglRewards;\n    require(msg.sender == rewardContract, \"!auth\");\n\n    _withdraw(_pid, _amount, msg.sender, _to);\n    return true;\n  }\n\n  //delegate address votes on dao\n  function vote(\n    uint256 _voteId,\n    address _votingAddress,\n    bool _support\n  ) external returns (bool) {\n    require(msg.sender == voteDelegate, \"!auth\");\n    require(_votingAddress == voteOwnership || _votingAddress == voteParameter, \"!voteAddr\");\n\n    IStaker(staker).vote(_voteId, _votingAddress, _support);\n    return true;\n  }\n\n  function voteGaugeWeight(address[] calldata _gauge, uint256[] calldata _weight)\n    external\n    returns (bool)\n  {\n    require(msg.sender == voteDelegate, \"!auth\");\n\n    for (uint256 i = 0; i < _gauge.length; i++) {\n      IStaker(staker).voteGaugeWeight(_gauge[i], _weight[i]);\n    }\n    return true;\n  }\n\n  function claimRewards(uint256 _pid, address _gauge) external returns (bool) {\n    address stash = poolInfo[_pid].stash;\n    require(msg.sender == stash, \"!auth\");\n\n    IStaker(staker).claimRewards(_gauge);\n    return true;\n  }\n\n  function setGaugeRedirect(uint256 _pid) external returns (bool) {\n    address stash = poolInfo[_pid].stash;\n    require(msg.sender == stash, \"!auth\");\n    address gauge = poolInfo[_pid].gauge;\n    bytes memory data = abi.encodeWithSelector(\n      bytes4(keccak256(\"set_rewards_receiver(address)\")),\n      stash\n    );\n    IStaker(staker).execute(gauge, uint256(0), data);\n    return true;\n  }\n\n  //claim kgl and extra rewards and disperse to reward contracts\n  function _earmarkRewards(uint256 _pid) internal {\n    PoolInfo storage pool = poolInfo[_pid];\n    require(pool.shutdown == false, \"pool is closed\");\n\n    address gauge = pool.gauge;\n\n    //claim kgl\n    IStaker(staker).claimKgl(gauge);\n\n    //check if there are extra rewards\n    address stash = pool.stash;\n    if (stash != address(0)) {\n      //claim extra rewards\n      IStash(stash).claimRewards();\n      //process extra rewards\n      IStash(stash).processStash();\n    }\n\n    //kgl balance\n    uint256 kglBal = IERC20(kgl).balanceOf(address(this));\n\n    if (kglBal > 0) {\n      uint256 _lockIncentive = kglBal.mul(lockIncentive).div(FEE_DENOMINATOR);\n      uint256 _stakerIncentive = kglBal.mul(stakerIncentive).div(FEE_DENOMINATOR);\n      uint256 _callIncentive = kglBal.mul(earmarkIncentive).div(FEE_DENOMINATOR);\n\n      //send treasury\n      if (treasury != address(0) && treasury != address(this) && platformFee > 0) {\n        //only subtract after address condition check\n        uint256 _platform = kglBal.mul(platformFee).div(FEE_DENOMINATOR);\n        kglBal = kglBal.sub(_platform);\n        IERC20(kgl).safeTransfer(treasury, _platform);\n      }\n\n      //remove incentives from balance\n      kglBal = kglBal.sub(_lockIncentive).sub(_callIncentive).sub(_stakerIncentive);\n\n      //send incentives for calling\n      IERC20(kgl).safeTransfer(msg.sender, _callIncentive);\n\n      //send kgl to lp provider reward contract\n      address rewardContract = pool.kglRewards;\n      IERC20(kgl).safeTransfer(rewardContract, kglBal);\n      IRewards(rewardContract).queueNewRewards(kglBal);\n\n      //send lockers' share of kgl to reward contract\n      IERC20(kgl).safeTransfer(lockRewards, _lockIncentive);\n      IRewards(lockRewards).queueNewRewards(_lockIncentive);\n\n      //send stakers's share of kgl to reward contract\n      IERC20(kgl).safeTransfer(stakerRewards, _stakerIncentive);\n      IRewards(stakerRewards).queueNewRewards(_stakerIncentive);\n    }\n  }\n\n  function earmarkRewards(uint256 _pid) external returns (bool) {\n    require(!isShutdown, \"shutdown\");\n    _earmarkRewards(_pid);\n    return true;\n  }\n\n  //claim fees from kagla distro contract, put in lockers' reward contract\n  function earmarkFees() external returns (bool) {\n    //claim fee rewards\n    IStaker(staker).claimFees(feeDistro, feeToken);\n    //send fee rewards to reward contract\n    uint256 _balance = IERC20(feeToken).balanceOf(address(this));\n    IERC20(feeToken).safeTransfer(lockFees, _balance);\n    IRewards(lockFees).queueNewRewards(_balance);\n    return true;\n  }\n\n  //callback from reward contract when kgl is received.\n  function rewardClaimed(\n    uint256 _pid,\n    address _address,\n    uint256 _amount\n  ) external returns (bool) {\n    address rewardContract = poolInfo[_pid].kglRewards;\n    require(msg.sender == rewardContract || msg.sender == lockRewards, \"!auth\");\n\n    //mint reward tokens\n    ITokenMinter(minter).mint(_address, _amount);\n\n    return true;\n  }\n}\n",
  "sourcePath": "/Users/shuto/Documents/bridges-dev/muuu/protocol/contracts/contracts/Booster.sol",
  "compiler": {
    "name": "solc",
    "version": "0.6.12+commit.27d51765.Emscripten.clang"
  },
  "schemaVersion": "3.4.6",
  "updatedAt": "2022-04-04T03:30:06.827Z",
  "devdoc": {
    "kind": "dev",
    "methods": {
      "owner()": {
        "details": "Returns the address of the current owner."
      },
      "renounceOwnership()": {
        "details": "Leaves the contract without owner. It will not be possible to call `onlyOwner` functions anymore. Can only be called by the current owner. NOTE: Renouncing ownership will leave the contract without an owner, thereby removing any functionality that is only available to the owner."
      },
      "transferOwnership(address)": {
        "details": "Transfers ownership of the contract to a new account (`newOwner`). Can only be called by the current owner."
      }
    },
    "version": 1
  },
  "userdoc": {
    "kind": "user",
    "methods": {
      "poolLength()": {
        "notice": "END SETTER SECTION ///"
      },
      "setKgl(address)": {
        "notice": "SETTER SECTION ///"
      }
    },
    "version": 1
  }
}