{
  "contractName": "ClaimVekglFees",
  "abi": [
    {
      "inputs": [],
      "stateMutability": "nonpayable",
      "type": "constructor"
    },
    {
      "inputs": [],
      "name": "account",
      "outputs": [
        {
          "internalType": "address",
          "name": "",
          "type": "address"
        }
      ],
      "stateMutability": "view",
      "type": "function"
    },
    {
      "inputs": [],
      "name": "booster",
      "outputs": [
        {
          "internalType": "address",
          "name": "",
          "type": "address"
        }
      ],
      "stateMutability": "view",
      "type": "function"
    },
    {
      "inputs": [],
      "name": "feeClaim",
      "outputs": [
        {
          "internalType": "address",
          "name": "",
          "type": "address"
        }
      ],
      "stateMutability": "view",
      "type": "function"
    },
    {
      "inputs": [],
      "name": "lastTokenTime",
      "outputs": [
        {
          "internalType": "uint256",
          "name": "",
          "type": "uint256"
        }
      ],
      "stateMutability": "view",
      "type": "function"
    },
    {
      "inputs": [],
      "name": "tokenaddress",
      "outputs": [
        {
          "internalType": "address",
          "name": "",
          "type": "address"
        }
      ],
      "stateMutability": "view",
      "type": "function"
    },
    {
      "inputs": [],
      "name": "vekgl",
      "outputs": [
        {
          "internalType": "address",
          "name": "",
          "type": "address"
        }
      ],
      "stateMutability": "view",
      "type": "function"
    },
    {
      "inputs": [],
      "name": "getName",
      "outputs": [
        {
          "internalType": "string",
          "name": "",
          "type": "string"
        }
      ],
      "stateMutability": "pure",
      "type": "function"
    },
    {
      "inputs": [],
      "name": "claimFees",
      "outputs": [],
      "stateMutability": "nonpayable",
      "type": "function"
    }
  ],
  "bytecode": "0x608060405234801561001057600080fd5b506105cb806100206000396000f3fe608060405234801561001057600080fd5b50600436106100885760003560e01c806374cd64651161005b57806374cd64651461013e578063939ea66b14610146578063c6def07614610160578063d294f0931461016857610088565b806317d7de7c1461008d578063264f6efa1461010a5780633feff76d1461012e5780635dab242014610136575b600080fd5b610095610172565b6040805160208082528351818301528351919283929083019185019080838360005b838110156100cf5781810151838201526020016100b7565b50505050905090810190601f1680156100fc5780820380516001836020036101000a031916815260200191505b509250505060405180910390f35b61011261019f565b604080516001600160a01b039092168252519081900360200190f35b6101126101b7565b6101126101cf565b6101126101e7565b61014e6101ff565b60408051918252519081900360200190f35b610112610205565b61017061021d565b005b6040805180820190915260138152720436c61696d56656b676c466565732056312e3606c1b602082015290565b735f3b5dfeb7b28cdbd7faba78963ee202a494e2a281565b736c3f90f043a72fa612cbac8115ee7e52bde6e49081565b73989aeb4d175e16225e39e87d0d97a3360524ad8081565b73a464e6dcda8ac41e03616f95f4bc98a13b8922dc81565b60005481565b73f403c135812408bfbe8713b5a23a04b3d48aae3181565b600073a464e6dcda8ac41e03616f95f4bc98a13b8922dc6001600160a01b0316637f58e8f86040518163ffffffff1660e01b815260040160206040518083038186803b15801561026c57600080fd5b505afa158015610280573d6000803e3d6000fd5b505050506040513d602081101561029657600080fd5b505160005490915081116102e0576040805162461bcd60e51b815260206004820152600c60248201526b1b9bdd081d1a5b59481e595d60a21b604482015290519081900360640190fd5b604080516370a0823160e01b815273989aeb4d175e16225e39e87d0d97a3360524ad8060048201529051600091736c3f90f043a72fa612cbac8115ee7e52bde6e490916370a0823191602480820192602092909190829003018186803b15801561034957600080fd5b505afa15801561035d573d6000803e3d6000fd5b505050506040513d602081101561037357600080fd5b505160408051630f41a04d60e11b815273989aeb4d175e16225e39e87d0d97a3360524ad806004820152905191925073a464e6dcda8ac41e03616f95f4bc98a13b8922dc91631e83409a9160248082019260009290919082900301818387803b1580156103df57600080fd5b505af11580156103f3573d6000803e3d6000fd5b505050505b604080516370a0823160e01b815273989aeb4d175e16225e39e87d0d97a3360524ad80600482015290518291736c3f90f043a72fa612cbac8115ee7e52bde6e490916370a0823191602480820192602092909190829003018186803b15801561046057600080fd5b505afa158015610474573d6000803e3d6000fd5b505050506040513d602081101561048a57600080fd5b5051116105145760408051630f41a04d60e11b815273989aeb4d175e16225e39e87d0d97a3360524ad806004820152905173a464e6dcda8ac41e03616f95f4bc98a13b8922dc91631e83409a91602480830192600092919082900301818387803b1580156104f757600080fd5b505af115801561050b573d6000803e3d6000fd5b505050506103f8565b73f403c135812408bfbe8713b5a23a04b3d48aae316001600160a01b03166322230b966040518163ffffffff1660e01b8152600401602060405180830381600087803b15801561056357600080fd5b505af1158015610577573d6000803e3d6000fd5b505050506040513d602081101561058d57600080fd5b50505060005556fea26469706673582212201f30027ed07b2a3452dbdc3075a073a38799f13d16a904afb74db9d6e8a39c9d64736f6c634300060c0033",
  "immutableReferences": {},
  "source": "// SPDX-License-Identifier: MIT\npragma solidity 0.6.12;\n\ninterface IFeeClaim {\n  function claim(address) external;\n\n  function claim_many(address[20] calldata) external;\n\n  function last_token_time() external view returns (uint256);\n\n  function time_cursor() external view returns (uint256);\n\n  function time_cursor_of(address) external view returns (uint256);\n\n  function user_epoch_of(address) external view returns (uint256);\n\n  function user_point_epoch(address) external view returns (uint256);\n\n  function earmarkFees() external returns (bool);\n\n  function balanceOf(address) external view returns (uint256);\n}\n\n//Claim vekgl fees and distribute\ncontract ClaimVekglFees {\n  address public constant booster = address(0xF403C135812408BFbE8713b5A23a04b3D48AAE31);\n  address public constant vekgl = address(0x5f3b5DfEb7B28CDbD7FAba78963EE202a494e2A2);\n  address public constant feeClaim = address(0xA464e6DCda8AC41e03616F95f4BC98a13b8922Dc);\n  address public constant account = address(0x989AEb4d175e16225E39E87d0D97A3360524AD80);\n  address public constant tokenaddress = address(0x6c3F90f043a72FA612cbac8115EE7e52BDe6E490);\n\n  uint256 public lastTokenTime;\n\n  constructor() public {}\n\n  function getName() external pure returns (string memory) {\n    return \"ClaimVekglFees V1.0\";\n  }\n\n  function claimFees() external {\n    uint256 tokenTime = IFeeClaim(feeClaim).last_token_time();\n    require(tokenTime > lastTokenTime, \"not time yet\");\n    uint256 bal = IFeeClaim(tokenaddress).balanceOf(account);\n    IFeeClaim(feeClaim).claim(account);\n\n    while (IFeeClaim(tokenaddress).balanceOf(account) <= bal) {\n      IFeeClaim(feeClaim).claim(account);\n    }\n\n    IFeeClaim(booster).earmarkFees();\n    lastTokenTime = tokenTime;\n  }\n}\n",
  "sourcePath": "/Users/linnefromice/repository/github.com/muuu-finance/muuu-protocol/contracts/contracts/ClaimVekglFees.sol",
  "compiler": {
    "name": "solc",
    "version": "0.6.12+commit.27d51765.Emscripten.clang"
  },
  "schemaVersion": "3.4.6",
  "updatedAt": "2022-03-16T12:46:39.013Z",
  "devdoc": {
    "kind": "dev",
    "methods": {},
    "version": 1
  },
  "userdoc": {
    "kind": "user",
    "methods": {},
    "version": 1
  }
}