{
  "contractName": "ExtraRewardStashV3",
  "abi": [
    {
      "inputs": [],
      "stateMutability": "nonpayable",
      "type": "constructor"
    },
    {
      "inputs": [],
      "name": "gauge",
      "outputs": [
        {
          "internalType": "address",
          "name": "",
          "type": "address"
        }
      ],
      "stateMutability": "view",
      "type": "function"
    },
    {
      "inputs": [],
      "name": "hasKaglaRewards",
      "outputs": [
        {
          "internalType": "bool",
          "name": "",
          "type": "bool"
        }
      ],
      "stateMutability": "view",
      "type": "function"
    },
    {
      "inputs": [],
      "name": "hasRedirected",
      "outputs": [
        {
          "internalType": "bool",
          "name": "",
          "type": "bool"
        }
      ],
      "stateMutability": "view",
      "type": "function"
    },
    {
      "inputs": [
        {
          "internalType": "address",
          "name": "",
          "type": "address"
        }
      ],
      "name": "historicalRewards",
      "outputs": [
        {
          "internalType": "uint256",
          "name": "",
          "type": "uint256"
        }
      ],
      "stateMutability": "view",
      "type": "function"
    },
    {
      "inputs": [],
      "name": "kgl",
      "outputs": [
        {
          "internalType": "address",
          "name": "",
          "type": "address"
        }
      ],
      "stateMutability": "view",
      "type": "function"
    },
    {
      "inputs": [],
      "name": "operator",
      "outputs": [
        {
          "internalType": "address",
          "name": "",
          "type": "address"
        }
      ],
      "stateMutability": "view",
      "type": "function"
    },
    {
      "inputs": [],
      "name": "pid",
      "outputs": [
        {
          "internalType": "uint256",
          "name": "",
          "type": "uint256"
        }
      ],
      "stateMutability": "view",
      "type": "function"
    },
    {
      "inputs": [],
      "name": "rewardFactory",
      "outputs": [
        {
          "internalType": "address",
          "name": "",
          "type": "address"
        }
      ],
      "stateMutability": "view",
      "type": "function"
    },
    {
      "inputs": [],
      "name": "rewardHook",
      "outputs": [
        {
          "internalType": "address",
          "name": "",
          "type": "address"
        }
      ],
      "stateMutability": "view",
      "type": "function"
    },
    {
      "inputs": [],
      "name": "staker",
      "outputs": [
        {
          "internalType": "address",
          "name": "",
          "type": "address"
        }
      ],
      "stateMutability": "view",
      "type": "function"
    },
    {
      "inputs": [
        {
          "internalType": "address",
          "name": "",
          "type": "address"
        }
      ],
      "name": "tokenInfo",
      "outputs": [
        {
          "internalType": "address",
          "name": "token",
          "type": "address"
        },
        {
          "internalType": "address",
          "name": "rewardAddress",
          "type": "address"
        }
      ],
      "stateMutability": "view",
      "type": "function"
    },
    {
      "inputs": [
        {
          "internalType": "uint256",
          "name": "",
          "type": "uint256"
        }
      ],
      "name": "tokenList",
      "outputs": [
        {
          "internalType": "address",
          "name": "",
          "type": "address"
        }
      ],
      "stateMutability": "view",
      "type": "function"
    },
    {
      "inputs": [
        {
          "internalType": "uint256",
          "name": "_pid",
          "type": "uint256"
        },
        {
          "internalType": "address",
          "name": "_operator",
          "type": "address"
        },
        {
          "internalType": "address",
          "name": "_staker",
          "type": "address"
        },
        {
          "internalType": "address",
          "name": "_gauge",
          "type": "address"
        },
        {
          "internalType": "address",
          "name": "_rFactory",
          "type": "address"
        }
      ],
      "name": "initialize",
      "outputs": [],
      "stateMutability": "nonpayable",
      "type": "function"
    },
    {
      "inputs": [],
      "name": "getName",
      "outputs": [
        {
          "internalType": "string",
          "name": "",
          "type": "string"
        }
      ],
      "stateMutability": "pure",
      "type": "function"
    },
    {
      "inputs": [],
      "name": "tokenCount",
      "outputs": [
        {
          "internalType": "uint256",
          "name": "",
          "type": "uint256"
        }
      ],
      "stateMutability": "view",
      "type": "function"
    },
    {
      "inputs": [],
      "name": "claimRewards",
      "outputs": [
        {
          "internalType": "bool",
          "name": "",
          "type": "bool"
        }
      ],
      "stateMutability": "nonpayable",
      "type": "function"
    },
    {
      "inputs": [
        {
          "internalType": "address",
          "name": "_token",
          "type": "address"
        }
      ],
      "name": "setExtraReward",
      "outputs": [],
      "stateMutability": "nonpayable",
      "type": "function"
    },
    {
      "inputs": [
        {
          "internalType": "address",
          "name": "_hook",
          "type": "address"
        }
      ],
      "name": "setRewardHook",
      "outputs": [],
      "stateMutability": "nonpayable",
      "type": "function"
    },
    {
      "inputs": [],
      "name": "stashRewards",
      "outputs": [
        {
          "internalType": "bool",
          "name": "",
          "type": "bool"
        }
      ],
      "stateMutability": "pure",
      "type": "function"
    },
    {
      "inputs": [],
      "name": "processStash",
      "outputs": [
        {
          "internalType": "bool",
          "name": "",
          "type": "bool"
        }
      ],
      "stateMutability": "nonpayable",
      "type": "function"
    }
  ],
  "bytecode": "0x608060405234801561001057600080fd5b506111da806100206000396000f3fe608060405234801561001057600080fd5b506004361061012c5760003560e01c80636777c3cd116100ad578063ca8b017611610071578063ca8b0176146102ef578063cb00aa73146102f7578063d782139a1461031d578063f106845414610325578063f5dab7111461032d5761012c565b80636777c3cd146102a05780639ead7222146102a85780639f181b5e146102c5578063a6f19c84146102df578063b87bd481146102e75761012c565b8063372500ab116100f4578063372500ab1461026457806344214ecf14610280578063570ca735146102885780635afffef1146102905780635ebaf1db146102985761012c565b80630d5225de1461013157806317d7de7c146101595780632223686f146101d6578063245e4bf0146101fc5780633641e08314610220575b600080fd5b6101576004803603602081101561014757600080fd5b50356001600160a01b0316610382565b005b61016161045a565b6040805160208082528351818301528351919283929083019185019080838360005b8381101561019b578181015183820152602001610183565b50505050905090810190601f1680156101c85780820380516001836020036101000a031916815260200191505b509250505060405180910390f35b610157600480360360208110156101ec57600080fd5b50356001600160a01b0316610488565b61020461054a565b604080516001600160a01b039092168252519081900360200190f35b610157600480360360a081101561023657600080fd5b508035906001600160a01b036020820135811691604081013582169160608201358116916080013516610559565b61026c6105f3565b604080519115158252519081900360200190f35b6102046107fe565b61020461080d565b61026c61081c565b610204610825565b61026c610834565b610204600480360360208110156102be57600080fd5b5035610842565b6102cd610869565b60408051918252519081900360200190f35b61020461086f565b61026c61087e565b61026c610883565b6102cd6004803603602081101561030d57600080fd5b50356001600160a01b0316610ad1565b610204610ae3565b6102cd610afb565b6103536004803603602081101561034357600080fd5b50356001600160a01b0316610b01565b60405180836001600160a01b03168152602001826001600160a01b031681526020019250505060405180910390f35b60015460408051638da5cb5b60e01b8152905133926001600160a01b031691638da5cb5b9160048083019260209291908290030181600087803b1580156103c857600080fd5b505af11580156103dc573d6000803e3d6000fd5b505050506040513d60208110156103f257600080fd5b50516001600160a01b031614610438576040805162461bcd60e51b815260206004820152600660248201526510b7bbb732b960d11b604482015290519081900360640190fd5b600980546001600160a01b0319166001600160a01b0392909216919091179055565b60408051808201909152601481527322bc3a3930a932bbb0b93229ba30b9b42b19971960611b602082015290565b60015460408051638da5cb5b60e01b8152905133926001600160a01b031691638da5cb5b9160048083019260209291908290030181600087803b1580156104ce57600080fd5b505af11580156104e2573d6000803e3d6000fd5b505050506040513d60208110156104f857600080fd5b50516001600160a01b03161461053e576040805162461bcd60e51b815260206004820152600660248201526510b7bbb732b960d11b604482015290519081900360640190fd5b61054781610b27565b50565b6004546001600160a01b031681565b6003546001600160a01b03161561059f576040805162461bcd60e51b8152602060048201526005602482015264085a5b9a5d60da1b604482015290519081900360640190fd5b600094909455600180546001600160a01b03199081166001600160a01b0395861617909155600280548216938516939093179092556003805483169184169190911790556004805490911691909216179055565b6001546000906001600160a01b03163314610641576040805162461bcd60e51b815260206004820152600960248201526810b7b832b930ba37b960b91b604482015290519081900360640190fd5b610649610d03565b60065460ff166106ea57600160009054906101000a90046001600160a01b03166001600160a01b0316639123d4046000546040518263ffffffff1660e01b815260040180828152602001915050602060405180830381600087803b1580156106b057600080fd5b505af11580156106c4573d6000803e3d6000fd5b505050506040513d60208110156106da57600080fd5b50506006805460ff191660011790555b600654610100900460ff1615610784576001546000805460035460408051636c7b69cb60e01b815260048101939093526001600160a01b03918216602484015251931692636c7b69cb92604480840193602093929083900390910190829087803b15801561075757600080fd5b505af115801561076b573d6000803e3d6000fd5b505050506040513d602081101561078157600080fd5b50505b6009546001600160a01b0316156107f857600960009054906101000a90046001600160a01b03166001600160a01b0316632663fcfc6040518163ffffffff1660e01b8152600401600060405180830381600087803b1580156107e557600080fd5b505af19250505080156107f6575060015b505b50600190565b6009546001600160a01b031681565b6001546001600160a01b031681565b60065460ff1681565b6002546001600160a01b031681565b600654610100900460ff1681565b6008818154811061084f57fe5b6000918252602090912001546001600160a01b0316905081565b60085490565b6003546001600160a01b031681565b600190565b6001546000906001600160a01b031633146108d1576040805162461bcd60e51b815260206004820152600960248201526810b7b832b930ba37b960b91b604482015290519081900360640190fd5b60085460005b81811015610ac857600060076000600884815481106108f257fe5b60009182526020808320909101546001600160a01b03908116845290830193909352604090910190208054909250168061092d575050610ac0565b6000816001600160a01b03166370a08231306040518263ffffffff1660e01b815260040180826001600160a01b0316815260200191505060206040518083038186803b15801561097c57600080fd5b505afa158015610990573d6000803e3d6000fd5b505050506040513d60208110156109a657600080fd5b505190508015610abc576001600160a01b0382166000908152600560205260409020546109d39082610dce565b6001600160a01b03831660008181526005602052604090209190915573d533a949740bb3306d119cc777fa900ba034cd521415610a2c57600154610a24906001600160a01b03848116911683610e2f565b505050610ac0565b60018301546001600160a01b031680610a485750505050610ac0565b610a5c6001600160a01b0384168284610e2f565b806001600160a01b031663590a41f5836040518263ffffffff1660e01b815260040180828152602001915050600060405180830381600087803b158015610aa257600080fd5b505af1158015610ab6573d6000803e3d6000fd5b50505050505b5050505b6001016108d7565b50600191505090565b60056020526000908152604090205481565b73d533a949740bb3306d119cc777fa900ba034cd5281565b60005481565b600760205260009081526040902080546001909101546001600160a01b03918216911682565b6001600160a01b0380821660009081526007602052604090208054909116610cff5780546001600160a01b0319166001600160a01b038316908117825573d533a949740bb3306d119cc777fa900ba034cd5214610cb3576001546000805460408051631526fe2760e01b815260048101929092525191926001600160a01b031691631526fe279160248082019260c092909190829003018186803b158015610bce57600080fd5b505afa158015610be2573d6000803e3d6000fd5b505050506040513d60c0811015610bf857600080fd5b50606001516004805460408051637c6b091760e11b81526001600160a01b038881169482019490945283851660248201523060448201529051939450600093929091169163f8d6122e9160648082019260209290919082900301818787803b158015610c6357600080fd5b505af1158015610c77573d6000803e3d6000fd5b505050506040513d6020811015610c8d57600080fd5b50516001840180546001600160a01b0319166001600160a01b0390921691909117905550505b600880546001810182556000919091527ff3f7a9fe364faab93b216da50a3214154f22a0a2b415b23a84c8169e8b636ee30180546001600160a01b0319166001600160a01b0384161790555b5050565b60005b600881101561054757600354604080516354c49fe960e01b81526004810184905290516000926001600160a01b0316916354c49fe9916024808301926020929190829003018186803b158015610d5b57600080fd5b505afa158015610d6f573d6000803e3d6000fd5b505050506040513d6020811015610d8557600080fd5b505190506001600160a01b038116610d9d5750610547565b600654610100900460ff16610dbc576006805461ff0019166101001790555b610dc581610b27565b50600101610d06565b600082820183811015610e28576040805162461bcd60e51b815260206004820152601b60248201527f536166654d6174683a206164646974696f6e206f766572666c6f770000000000604482015290519081900360640190fd5b9392505050565b604080516001600160a01b038416602482015260448082018490528251808303909101815260649091019091526020810180516001600160e01b031663a9059cbb60e01b179052610e81908490610e86565b505050565b6060610edb826040518060400160405280602081526020017f5361666545524332303a206c6f772d6c6576656c2063616c6c206661696c6564815250856001600160a01b0316610f379092919063ffffffff16565b805190915015610e8157808060200190516020811015610efa57600080fd5b5051610e815760405162461bcd60e51b815260040180806020018281038252602a81526020018061117b602a913960400191505060405180910390fd5b6060610f468484600085610f4e565b949350505050565b606082471015610f8f5760405162461bcd60e51b81526004018080602001828103825260268152602001806111556026913960400191505060405180910390fd5b610f98856110aa565b610fe9576040805162461bcd60e51b815260206004820152601d60248201527f416464726573733a2063616c6c20746f206e6f6e2d636f6e7472616374000000604482015290519081900360640190fd5b60006060866001600160a01b031685876040518082805190602001908083835b602083106110285780518252601f199092019160209182019101611009565b6001836020036101000a03801982511681845116808217855250505050505090500191505060006040518083038185875af1925050503d806000811461108a576040519150601f19603f3d011682016040523d82523d6000602084013e61108f565b606091505b509150915061109f8282866110b0565b979650505050505050565b3b151590565b606083156110bf575081610e28565b8251156110cf5782518084602001fd5b8160405162461bcd60e51b81526004018080602001828103825283818151815260200191508051906020019080838360005b83811015611119578181015183820152602001611101565b50505050905090810190601f1680156111465780820380516001836020036101000a031916815260200191505b509250505060405180910390fdfe416464726573733a20696e73756666696369656e742062616c616e636520666f722063616c6c5361666545524332303a204552433230206f7065726174696f6e20646964206e6f742073756363656564a26469706673582212207a544e2594f900fed3a240a28a644314c6f73746347152918d7578945a374d5964736f6c634300060c0033",
  "immutableReferences": {},
  "source": "// SPDX-License-Identifier: MIT\npragma solidity 0.6.12;\n\nimport \"./Interfaces.sol\";\nimport \"./interfaces/IRewardHook.sol\";\nimport \"@openzeppelin/contracts/math/SafeMath.sol\";\nimport \"@openzeppelin/contracts/token/ERC20/IERC20.sol\";\nimport \"@openzeppelin/contracts/utils/Address.sol\";\nimport \"@openzeppelin/contracts/token/ERC20/SafeERC20.sol\";\n\n//Stash v3: support for kagla gauge reward redirect\n//v3.1: support for arbitrary token rewards outside of gauge rewards\n//      add reward hook to pull rewards during claims\n//v3.2: move constuctor to init function for proxy creation\n\ncontract ExtraRewardStashV3 {\n  using SafeERC20 for IERC20;\n  using Address for address;\n  using SafeMath for uint256;\n\n  address public constant kgl = address(0xD533a949740bb3306d119CC777fa900bA034cd52);\n  uint256 private constant maxRewards = 8;\n\n  uint256 public pid;\n  address public operator;\n  address public staker;\n  address public gauge;\n  address public rewardFactory;\n\n  mapping(address => uint256) public historicalRewards;\n  bool public hasRedirected;\n  bool public hasKaglaRewards;\n\n  struct TokenInfo {\n    address token;\n    address rewardAddress;\n  }\n\n  //use mapping+array so that we dont have to loop check each time setToken is called\n  mapping(address => TokenInfo) public tokenInfo;\n  address[] public tokenList;\n\n  //address to call for reward pulls\n  address public rewardHook;\n\n  constructor() public {}\n\n  function initialize(\n    uint256 _pid,\n    address _operator,\n    address _staker,\n    address _gauge,\n    address _rFactory\n  ) external {\n    require(gauge == address(0), \"!init\");\n    pid = _pid;\n    operator = _operator;\n    staker = _staker;\n    gauge = _gauge;\n    rewardFactory = _rFactory;\n  }\n\n  function getName() external pure returns (string memory) {\n    return \"ExtraRewardStashV3.2\";\n  }\n\n  function tokenCount() external view returns (uint256) {\n    return tokenList.length;\n  }\n\n  //try claiming if there are reward tokens registered\n  function claimRewards() external returns (bool) {\n    require(msg.sender == operator, \"!operator\");\n\n    //this is updateable from v2 gauges now so must check each time.\n    checkForNewRewardTokens();\n\n    //make sure we're redirected\n    if (!hasRedirected) {\n      IDeposit(operator).setGaugeRedirect(pid);\n      hasRedirected = true;\n    }\n\n    if (hasKaglaRewards) {\n      //claim rewards on gauge for staker\n      //using reward_receiver so all rewards will be moved to this stash\n      IDeposit(operator).claimRewards(pid, gauge);\n    }\n\n    //hook for reward pulls\n    if (rewardHook != address(0)) {\n      try IRewardHook(rewardHook).onRewardClaim() {} catch {}\n    }\n    return true;\n  }\n\n  //check if gauge rewards have changed\n  function checkForNewRewardTokens() internal {\n    for (uint256 i = 0; i < maxRewards; i++) {\n      address token = IKaglaGauge(gauge).reward_tokens(i);\n      if (token == address(0)) {\n        break;\n      }\n      if (!hasKaglaRewards) {\n        hasKaglaRewards = true;\n      }\n      setToken(token);\n    }\n  }\n\n  //register an extra reward token to be handled\n  // (any new incentive that is not directly on kagla gauges)\n  function setExtraReward(address _token) external {\n    //owner of booster can set extra rewards\n    require(IDeposit(operator).owner() == msg.sender, \"!owner\");\n    setToken(_token);\n  }\n\n  function setRewardHook(address _hook) external {\n    //owner of booster can set reward hook\n    require(IDeposit(operator).owner() == msg.sender, \"!owner\");\n    rewardHook = _hook;\n  }\n\n  //replace a token on token list\n  function setToken(address _token) internal {\n    TokenInfo storage t = tokenInfo[_token];\n\n    if (t.token == address(0)) {\n      //set token address\n      t.token = _token;\n\n      //check if kgl\n      if (_token != kgl) {\n        //create new reward contract (for NON-kgl tokens only)\n        (, , , address mainRewardContract, , ) = IDeposit(operator).poolInfo(pid);\n        address rewardContract = IRewardFactory(rewardFactory).CreateTokenRewards(\n          _token,\n          mainRewardContract,\n          address(this)\n        );\n\n        t.rewardAddress = rewardContract;\n      }\n      //add token to list of known rewards\n      tokenList.push(_token);\n    }\n  }\n\n  //pull assigned tokens from staker to stash\n  function stashRewards() external pure returns (bool) {\n    //after depositing/withdrawing, extra incentive tokens are claimed\n    //but from v3 this is default to off, and this stash is the reward receiver too.\n\n    return true;\n  }\n\n  //send all extra rewards to their reward contracts\n  function processStash() external returns (bool) {\n    require(msg.sender == operator, \"!operator\");\n\n    uint256 tCount = tokenList.length;\n    for (uint i = 0; i < tCount; i++) {\n      TokenInfo storage t = tokenInfo[tokenList[i]];\n      address token = t.token;\n      if (token == address(0)) continue;\n\n      uint256 amount = IERC20(token).balanceOf(address(this));\n      if (amount > 0) {\n        historicalRewards[token] = historicalRewards[token].add(amount);\n        if (token == kgl) {\n          //if kgl, send back to booster to distribute\n          IERC20(token).safeTransfer(operator, amount);\n          continue;\n        }\n        //add to reward contract\n        address rewards = t.rewardAddress;\n        if (rewards == address(0)) continue;\n        IERC20(token).safeTransfer(rewards, amount);\n        IRewards(rewards).queueNewRewards(amount);\n      }\n    }\n    return true;\n  }\n}\n",
  "sourcePath": "/Users/linnefromice/repository/github.com/muuu-finance/muuu-protocol/contracts/contracts/ExtraRewardStashV3.sol",
  "compiler": {
    "name": "solc",
    "version": "0.6.12+commit.27d51765.Emscripten.clang"
  },
  "schemaVersion": "3.4.6",
  "updatedAt": "2022-03-20T12:14:20.889Z",
  "devdoc": {
    "kind": "dev",
    "methods": {},
    "version": 1
  },
  "userdoc": {
    "kind": "user",
    "methods": {},
    "version": 1
  }
}