{
  "contractName": "ExtraRewardStashTokenRescue",
  "abi": [
    {
      "inputs": [],
      "stateMutability": "nonpayable",
      "type": "constructor"
    },
    {
      "anonymous": false,
      "inputs": [
        {
          "indexed": true,
          "internalType": "address",
          "name": "_token",
          "type": "address"
        },
        {
          "indexed": true,
          "internalType": "address",
          "name": "_receiver",
          "type": "address"
        },
        {
          "indexed": false,
          "internalType": "uint256",
          "name": "_amount",
          "type": "uint256"
        }
      ],
      "name": "TokenClaimed",
      "type": "event"
    },
    {
      "anonymous": false,
      "inputs": [
        {
          "indexed": true,
          "internalType": "address",
          "name": "_token",
          "type": "address"
        },
        {
          "indexed": false,
          "internalType": "uint256",
          "name": "_option",
          "type": "uint256"
        }
      ],
      "name": "TokenSet",
      "type": "event"
    },
    {
      "inputs": [
        {
          "internalType": "address",
          "name": "",
          "type": "address"
        }
      ],
      "name": "activeTokens",
      "outputs": [
        {
          "internalType": "uint256",
          "name": "",
          "type": "uint256"
        }
      ],
      "stateMutability": "view",
      "type": "function"
    },
    {
      "inputs": [],
      "name": "distributor",
      "outputs": [
        {
          "internalType": "address",
          "name": "",
          "type": "address"
        }
      ],
      "stateMutability": "view",
      "type": "function"
    },
    {
      "inputs": [],
      "name": "gauge",
      "outputs": [
        {
          "internalType": "address",
          "name": "",
          "type": "address"
        }
      ],
      "stateMutability": "view",
      "type": "function"
    },
    {
      "inputs": [],
      "name": "operator",
      "outputs": [
        {
          "internalType": "address",
          "name": "",
          "type": "address"
        }
      ],
      "stateMutability": "view",
      "type": "function"
    },
    {
      "inputs": [],
      "name": "pid",
      "outputs": [
        {
          "internalType": "uint256",
          "name": "",
          "type": "uint256"
        }
      ],
      "stateMutability": "view",
      "type": "function"
    },
    {
      "inputs": [],
      "name": "rewardDeposit",
      "outputs": [
        {
          "internalType": "address",
          "name": "",
          "type": "address"
        }
      ],
      "stateMutability": "view",
      "type": "function"
    },
    {
      "inputs": [],
      "name": "rewardFactory",
      "outputs": [
        {
          "internalType": "address",
          "name": "",
          "type": "address"
        }
      ],
      "stateMutability": "view",
      "type": "function"
    },
    {
      "inputs": [],
      "name": "staker",
      "outputs": [
        {
          "internalType": "address",
          "name": "",
          "type": "address"
        }
      ],
      "stateMutability": "view",
      "type": "function"
    },
    {
      "inputs": [],
      "name": "treasuryDeposit",
      "outputs": [
        {
          "internalType": "address",
          "name": "",
          "type": "address"
        }
      ],
      "stateMutability": "view",
      "type": "function"
    },
    {
      "inputs": [
        {
          "internalType": "uint256",
          "name": "_pid",
          "type": "uint256"
        },
        {
          "internalType": "address",
          "name": "_operator",
          "type": "address"
        },
        {
          "internalType": "address",
          "name": "_staker",
          "type": "address"
        },
        {
          "internalType": "address",
          "name": "_gauge",
          "type": "address"
        },
        {
          "internalType": "address",
          "name": "_rFactory",
          "type": "address"
        }
      ],
      "name": "initialize",
      "outputs": [],
      "stateMutability": "nonpayable",
      "type": "function"
    },
    {
      "inputs": [],
      "name": "getName",
      "outputs": [
        {
          "internalType": "string",
          "name": "",
          "type": "string"
        }
      ],
      "stateMutability": "pure",
      "type": "function"
    },
    {
      "inputs": [],
      "name": "claimRewards",
      "outputs": [
        {
          "internalType": "bool",
          "name": "",
          "type": "bool"
        }
      ],
      "stateMutability": "pure",
      "type": "function"
    },
    {
      "inputs": [
        {
          "internalType": "address",
          "name": "_token",
          "type": "address"
        }
      ],
      "name": "claimRewardToken",
      "outputs": [
        {
          "internalType": "bool",
          "name": "",
          "type": "bool"
        }
      ],
      "stateMutability": "nonpayable",
      "type": "function"
    },
    {
      "inputs": [
        {
          "internalType": "address",
          "name": "_distributor",
          "type": "address"
        },
        {
          "internalType": "address",
          "name": "_rewardDeposit",
          "type": "address"
        },
        {
          "internalType": "address",
          "name": "_treasury",
          "type": "address"
        }
      ],
      "name": "setDistribution",
      "outputs": [],
      "stateMutability": "nonpayable",
      "type": "function"
    },
    {
      "inputs": [
        {
          "internalType": "address",
          "name": "_token",
          "type": "address"
        },
        {
          "internalType": "uint256",
          "name": "_option",
          "type": "uint256"
        }
      ],
      "name": "setExtraReward",
      "outputs": [],
      "stateMutability": "nonpayable",
      "type": "function"
    },
    {
      "inputs": [],
      "name": "stashRewards",
      "outputs": [
        {
          "internalType": "bool",
          "name": "",
          "type": "bool"
        }
      ],
      "stateMutability": "pure",
      "type": "function"
    },
    {
      "inputs": [],
      "name": "processStash",
      "outputs": [
        {
          "internalType": "bool",
          "name": "",
          "type": "bool"
        }
      ],
      "stateMutability": "pure",
      "type": "function"
    }
  ],
  "bytecode": "0x608060405234801561001057600080fd5b50610f4c806100206000396000f3fe608060405234801561001057600080fd5b506004361061010b5760003560e01c80635ebaf1db116100a2578063bfe1092811610071578063bfe10928146102cf578063ca37271b146102d7578063ca3983be146102fd578063ca8b0176146101ff578063f1068454146103055761010b565b80635ebaf1db14610293578063677c84521461029b578063a6f19c84146102c7578063b87bd481146101ff5761010b565b8063372500ab116100de578063372500ab146101ff578063535cc8141461021b578063570ca735146102535780635acf69031461025b5761010b565b8063116b5e471461011057806317d7de7c14610134578063245e4bf0146101b15780633641e083146101b9575b600080fd5b61011861030d565b604080516001600160a01b039092168252519081900360200190f35b61013c61031c565b6040805160208082528351818301528351919283929083019185019080838360005b8381101561017657818101518382015260200161015e565b50505050905090810190601f1680156101a35780820380516001836020036101000a031916815260200191505b509250505060405180910390f35b610118610353565b6101fd600480360360a08110156101cf57600080fd5b508035906001600160a01b036020820135811691604081013582169160608201358116916080013516610362565b005b6102076103fc565b604080519115158252519081900360200190f35b6101fd6004803603606081101561023157600080fd5b506001600160a01b038135811691602081013582169160409091013516610401565b6101186104f6565b6102816004803603602081101561027157600080fd5b50356001600160a01b0316610505565b60408051918252519081900360200190f35b610118610517565b6101fd600480360360408110156102b157600080fd5b506001600160a01b038135169060200135610526565b610118610698565b6101186106a7565b610207600480360360208110156102ed57600080fd5b50356001600160a01b03166106b6565b610118610a3b565b610281610a4a565b6006546001600160a01b031681565b60408051808201909152601b81527f45787472615265776172645374617368546f6b656e5265736375650000000000602082015290565b6004546001600160a01b031681565b6003546001600160a01b0316156103a8576040805162461bcd60e51b8152602060048201526005602482015264085a5b9a5d60da1b604482015290519081900360640190fd5b600094909455600180546001600160a01b03199081166001600160a01b0395861617909155600280548216938516939093179092556003805483169184169190911790556004805490911691909216179055565b600190565b60015460408051638da5cb5b60e01b8152905133926001600160a01b031691638da5cb5b9160048083019260209291908290030181600087803b15801561044757600080fd5b505af115801561045b573d6000803e3d6000fd5b505050506040513d602081101561047157600080fd5b50516001600160a01b0316146104b7576040805162461bcd60e51b815260206004820152600660248201526510b7bbb732b960d11b604482015290519081900360640190fd5b600580546001600160a01b039485166001600160a01b031991821617909155600680549385169382169390931790925560078054919093169116179055565b6001546001600160a01b031681565b60086020526000908152604090205481565b6002546001600160a01b031681565b60015460408051638da5cb5b60e01b8152905133926001600160a01b031691638da5cb5b9160048083019260209291908290030181600087803b15801561056c57600080fd5b505af1158015610580573d6000803e3d6000fd5b505050506040513d602081101561059657600080fd5b50516001600160a01b0316146105dc576040805162461bcd60e51b815260206004820152600660248201526510b7bbb732b960d11b604482015290519081900360640190fd5b6001600160a01b03821660009081526008602052604081208290556106039082905b610a50565b801561061957506006546001600160a01b031615155b1561065557600654610639906001600160a01b0384811691166000610a5a565b600654610655906001600160a01b038481169116600019610a5a565b6040805182815290516001600160a01b038416917fe2e037187b134bfff9cda71fddec1c201b00ba7a552335543243c138faebccce919081900360200190a25050565b6003546001600160a01b031681565b6005546001600160a01b031681565b6005546000906001600160a01b031615806106db57506005546001600160a01b031633145b61071b576040805162461bcd60e51b815260206004820152600c60248201526b10b234b9ba3934b13aba37b960a11b604482015290519081900360640190fd5b6001600160a01b03821660009081526008602052604090205461076f576040805162461bcd60e51b81526020600482015260076024820152662161637469766560c81b604482015290519081900360640190fd5b600254604080516370a0823160e01b81526001600160a01b03928316600482015290516000928516916370a08231916024808301926020929190829003018186803b1580156107bd57600080fd5b505afa1580156107d1573d6000803e3d6000fd5b505050506040513d60208110156107e757600080fd5b50519050801561085857600254604080516351cff8d960e01b81526001600160a01b038681166004830152915191909216916351cff8d991602480830192600092919082900301818387803b15801561083f57600080fd5b505af1158015610853573d6000803e3d6000fd5b505050505b6000836001600160a01b03166370a08231306040518263ffffffff1660e01b815260040180826001600160a01b0316815260200191505060206040518083038186803b1580156108a757600080fd5b505afa1580156108bb573d6000803e3d6000fd5b505050506040513d60208110156108d157600080fd5b505190508015610a31576006546001600160a01b03161580159061091257506001600160a01b038416600090815260086020526040812054610912916105fe565b156109d057600654604080516309feb8f560e41b81526001600160a01b0387811660048301526024820185905291519190921691639feb8f5091604480830192600092919082900301818387803b15801561096c57600080fd5b505af1158015610980573d6000803e3d6000fd5b50506006546040805185815290516001600160a01b03928316945091881692507f4831bdd9dcf3048a28319ce81d3cab7a15366bcf449bc7803a539107440809cc919081900360200190a3610a31565b6007546109ea906001600160a01b03868116911683610b72565b6007546040805183815290516001600160a01b03928316928716917f4831bdd9dcf3048a28319ce81d3cab7a15366bcf449bc7803a539107440809cc919081900360200190a35b5060019392505050565b6007546001600160a01b031681565b60005481565b6001901b16151590565b801580610ae0575060408051636eb1769f60e11b81523060048201526001600160a01b03848116602483015291519185169163dd62ed3e91604480820192602092909190829003018186803b158015610ab257600080fd5b505afa158015610ac6573d6000803e3d6000fd5b505050506040513d6020811015610adc57600080fd5b5051155b610b1b5760405162461bcd60e51b8152600401808060200182810382526036815260200180610ee16036913960400191505060405180910390fd5b604080516001600160a01b038416602482015260448082018490528251808303909101815260649091019091526020810180516001600160e01b031663095ea7b360e01b179052610b6d908490610bc0565b505050565b604080516001600160a01b038416602482015260448082018490528251808303909101815260649091019091526020810180516001600160e01b031663a9059cbb60e01b179052610b6d9084905b6060610c15826040518060400160405280602081526020017f5361666545524332303a206c6f772d6c6576656c2063616c6c206661696c6564815250856001600160a01b0316610c719092919063ffffffff16565b805190915015610b6d57808060200190516020811015610c3457600080fd5b5051610b6d5760405162461bcd60e51b815260040180806020018281038252602a815260200180610eb7602a913960400191505060405180910390fd5b6060610c808484600085610c8a565b90505b9392505050565b606082471015610ccb5760405162461bcd60e51b8152600401808060200182810382526026815260200180610e916026913960400191505060405180910390fd5b610cd485610de6565b610d25576040805162461bcd60e51b815260206004820152601d60248201527f416464726573733a2063616c6c20746f206e6f6e2d636f6e7472616374000000604482015290519081900360640190fd5b60006060866001600160a01b031685876040518082805190602001908083835b60208310610d645780518252601f199092019160209182019101610d45565b6001836020036101000a03801982511681845116808217855250505050505090500191505060006040518083038185875af1925050503d8060008114610dc6576040519150601f19603f3d011682016040523d82523d6000602084013e610dcb565b606091505b5091509150610ddb828286610dec565b979650505050505050565b3b151590565b60608315610dfb575081610c83565b825115610e0b5782518084602001fd5b8160405162461bcd60e51b81526004018080602001828103825283818151815260200191508051906020019080838360005b83811015610e55578181015183820152602001610e3d565b50505050905090810190601f168015610e825780820380516001836020036101000a031916815260200191505b509250505060405180910390fdfe416464726573733a20696e73756666696369656e742062616c616e636520666f722063616c6c5361666545524332303a204552433230206f7065726174696f6e20646964206e6f7420737563636565645361666545524332303a20617070726f76652066726f6d206e6f6e2d7a65726f20746f206e6f6e2d7a65726f20616c6c6f77616e6365a26469706673582212208e688b8a964c5df33fb855ece4cb7a7d813cacf0131b59c2c1cb6cd57b43f11a64736f6c634300060c0033",
  "immutableReferences": {},
  "source": "// SPDX-License-Identifier: MIT\npragma solidity 0.6.12;\n\nimport \"./Interfaces.sol\";\nimport \"@openzeppelin/contracts/math/SafeMath.sol\";\nimport \"@openzeppelin/contracts/token/ERC20/IERC20.sol\";\nimport \"@openzeppelin/contracts/token/ERC20/SafeERC20.sol\";\n\n//Rescue erc20 tokens off the voter proxy\n// - can only collect non-LP and non-gauge tokens\n// - should not be set to collect tokens used as incentives in v2 gauges\n\ninterface IRewardDeposit {\n  function addReward(address _token, uint256 _amount) external;\n}\n\ncontract ExtraRewardStashTokenRescue {\n  using SafeERC20 for IERC20;\n  using SafeMath for uint256;\n\n  uint256 public pid;\n  address public operator;\n  address public staker;\n  address public gauge;\n  address public rewardFactory;\n\n  address public distributor;\n  address public rewardDeposit;\n  address public treasuryDeposit;\n\n  //active tokens that can be claimed. tokenaddress -> claimOption\n  mapping(address => uint256) public activeTokens;\n\n  enum Options {\n    SendToRewards,\n    SendToTreasury\n  }\n\n  constructor() public {}\n\n  function initialize(\n    uint256 _pid,\n    address _operator,\n    address _staker,\n    address _gauge,\n    address _rFactory\n  ) external {\n    require(gauge == address(0), \"!init\");\n    pid = _pid;\n    operator = _operator;\n    staker = _staker;\n    gauge = _gauge;\n    rewardFactory = _rFactory;\n  }\n\n  function getName() external pure returns (string memory) {\n    return \"ExtraRewardStashTokenRescue\";\n  }\n\n  function CheckOption(uint256 _mask, uint256 _flag) internal pure returns (bool) {\n    return (_mask & (1 << _flag)) != 0;\n  }\n\n  //try claiming if there are reward tokens registered\n  function claimRewards() external pure returns (bool) {\n    return true;\n  }\n\n  function claimRewardToken(address _token) public returns (bool) {\n    require(distributor == address(0) || msg.sender == distributor, \"!distributor\");\n    require(activeTokens[_token] > 0, \"!active\");\n\n    uint256 onstaker = IERC20(_token).balanceOf(staker);\n    if (onstaker > 0) {\n      IStaker(staker).withdraw(_token);\n    }\n\n    uint256 amount = IERC20(_token).balanceOf(address(this));\n    if (amount > 0) {\n      if (\n        rewardDeposit != address(0) &&\n        CheckOption(activeTokens[_token], uint256(Options.SendToRewards))\n      ) {\n        IRewardDeposit(rewardDeposit).addReward(_token, amount);\n        emit TokenClaimed(_token, rewardDeposit, amount);\n      } else {\n        //if reward deposit not set or option set to treasury, send directly to treasury address\n        IERC20(_token).safeTransfer(treasuryDeposit, amount);\n        emit TokenClaimed(_token, treasuryDeposit, amount);\n      }\n    }\n    return true;\n  }\n\n  function setDistribution(\n    address _distributor,\n    address _rewardDeposit,\n    address _treasury\n  ) external {\n    require(IDeposit(operator).owner() == msg.sender, \"!owner\");\n    distributor = _distributor;\n    rewardDeposit = _rewardDeposit;\n    treasuryDeposit = _treasury;\n  }\n\n  //register an extra reward token to be handled\n  function setExtraReward(address _token, uint256 _option) external {\n    //owner of booster can set extra rewards\n    require(IDeposit(operator).owner() == msg.sender, \"!owner\");\n\n    activeTokens[_token] = _option;\n    if (CheckOption(_option, uint256(Options.SendToRewards)) && rewardDeposit != address(0)) {\n      IERC20(_token).safeApprove(rewardDeposit, 0);\n      IERC20(_token).safeApprove(rewardDeposit, uint256(-1));\n    }\n    emit TokenSet(_token, _option);\n  }\n\n  //pull assigned tokens from staker to stash\n  function stashRewards() external pure returns (bool) {\n    return true;\n  }\n\n  //send all extra rewards to their reward contracts\n  function processStash() external pure returns (bool) {\n    return true;\n  }\n\n  /* ========== EVENTS ========== */\n  event TokenSet(address indexed _token, uint256 _option);\n  event TokenClaimed(address indexed _token, address indexed _receiver, uint256 _amount);\n}\n",
  "sourcePath": "/Users/shuto/Documents/bridges-dev/muuu/protocol/contracts/contracts/ExtraRewardStashTokenRescue.sol",
  "compiler": {
    "name": "solc",
    "version": "0.6.12+commit.27d51765.Emscripten.clang"
  },
  "schemaVersion": "3.4.6",
  "updatedAt": "2022-04-04T03:30:07.034Z",
  "devdoc": {
    "kind": "dev",
    "methods": {},
    "version": 1
  },
  "userdoc": {
    "kind": "user",
    "methods": {},
    "version": 1
  }
}