{
  "contractName": "ExtraRewardStashV2",
  "abi": [
    {
      "inputs": [
        {
          "internalType": "uint256",
          "name": "_pid",
          "type": "uint256"
        },
        {
          "internalType": "address",
          "name": "_operator",
          "type": "address"
        },
        {
          "internalType": "address",
          "name": "_staker",
          "type": "address"
        },
        {
          "internalType": "address",
          "name": "_gauge",
          "type": "address"
        },
        {
          "internalType": "address",
          "name": "_rFactory",
          "type": "address"
        }
      ],
      "stateMutability": "nonpayable",
      "type": "constructor"
    },
    {
      "inputs": [],
      "name": "gauge",
      "outputs": [
        {
          "internalType": "address",
          "name": "",
          "type": "address"
        }
      ],
      "stateMutability": "view",
      "type": "function"
    },
    {
      "inputs": [
        {
          "internalType": "address",
          "name": "",
          "type": "address"
        }
      ],
      "name": "historicalRewards",
      "outputs": [
        {
          "internalType": "uint256",
          "name": "",
          "type": "uint256"
        }
      ],
      "stateMutability": "view",
      "type": "function"
    },
    {
      "inputs": [],
      "name": "kgl",
      "outputs": [
        {
          "internalType": "address",
          "name": "",
          "type": "address"
        }
      ],
      "stateMutability": "view",
      "type": "function"
    },
    {
      "inputs": [],
      "name": "operator",
      "outputs": [
        {
          "internalType": "address",
          "name": "",
          "type": "address"
        }
      ],
      "stateMutability": "view",
      "type": "function"
    },
    {
      "inputs": [],
      "name": "pid",
      "outputs": [
        {
          "internalType": "uint256",
          "name": "",
          "type": "uint256"
        }
      ],
      "stateMutability": "view",
      "type": "function"
    },
    {
      "inputs": [],
      "name": "rewardFactory",
      "outputs": [
        {
          "internalType": "address",
          "name": "",
          "type": "address"
        }
      ],
      "stateMutability": "view",
      "type": "function"
    },
    {
      "inputs": [],
      "name": "staker",
      "outputs": [
        {
          "internalType": "address",
          "name": "",
          "type": "address"
        }
      ],
      "stateMutability": "view",
      "type": "function"
    },
    {
      "inputs": [],
      "name": "tokenCount",
      "outputs": [
        {
          "internalType": "uint256",
          "name": "",
          "type": "uint256"
        }
      ],
      "stateMutability": "view",
      "type": "function"
    },
    {
      "inputs": [
        {
          "internalType": "uint256",
          "name": "",
          "type": "uint256"
        }
      ],
      "name": "tokenInfo",
      "outputs": [
        {
          "internalType": "address",
          "name": "token",
          "type": "address"
        },
        {
          "internalType": "address",
          "name": "rewardAddress",
          "type": "address"
        },
        {
          "internalType": "uint256",
          "name": "lastActiveTime",
          "type": "uint256"
        }
      ],
      "stateMutability": "view",
      "type": "function"
    },
    {
      "inputs": [],
      "name": "getName",
      "outputs": [
        {
          "internalType": "string",
          "name": "",
          "type": "string"
        }
      ],
      "stateMutability": "pure",
      "type": "function"
    },
    {
      "inputs": [],
      "name": "claimRewards",
      "outputs": [
        {
          "internalType": "bool",
          "name": "",
          "type": "bool"
        }
      ],
      "stateMutability": "nonpayable",
      "type": "function"
    },
    {
      "inputs": [],
      "name": "stashRewards",
      "outputs": [
        {
          "internalType": "bool",
          "name": "",
          "type": "bool"
        }
      ],
      "stateMutability": "nonpayable",
      "type": "function"
    },
    {
      "inputs": [],
      "name": "processStash",
      "outputs": [
        {
          "internalType": "bool",
          "name": "",
          "type": "bool"
        }
      ],
      "stateMutability": "nonpayable",
      "type": "function"
    }
  ],
  "bytecode": "0x61012060405234801561001157600080fd5b50604051611cb8380380611cb8833981810160405260a081101561003457600080fd5b50805160208201516040830151606080850151608095860151949095526001600160601b031992811b831660a05290811b821660c05292831b811660e052911b166101005260805160a05160601c60c05160601c60e05160601c6101005160601c611b5e61015a6000398061027e528061069b528061078152806108d75280610a2f5280610dc75280611350528061159f528061176352508061048b5280610be852806112a4525080610399528061055452806105fb52806109a65280610bbe5280610d615250806102ad528061043b52806108025280610ad55280610b9a5280610c175280610ef65280610fc6528061114c52806116b852508061046a52806106cb5280610907528061127252806113b652806115cf528061168d5250611b5e6000f3fe608060405234801561001057600080fd5b50600436106100cf5760003560e01c8063a6f19c841161008c578063cb00aa7311610066578063cb00aa73146101d3578063cc33c875146101f9578063d782139a14610240578063f106845414610248576100cf565b8063a6f19c84146101bb578063b87bd481146101c3578063ca8b0176146101cb576100cf565b806317d7de7c146100d4578063245e4bf014610151578063372500ab14610175578063570ca735146101915780635ebaf1db146101995780639f181b5e146101a1575b600080fd5b6100dc610250565b6040805160208082528351818301528351919283929083019185019080838360005b838110156101165781810151838201526020016100fe565b50505050905090810190601f1680156101435780820380516001836020036101000a031916815260200191505b509250505060405180910390f35b61015961027c565b604080516001600160a01b039092168252519081900360200190f35b61017d6102a0565b604080519115158252519081900360200190f35b610159610b98565b610159610bbc565b6101a9610be0565b60408051918252519081900360200190f35b610159610be6565b61017d610c0a565b61017d610fb9565b6101a9600480360360208110156101e957600080fd5b50356001600160a01b0316611215565b6102166004803603602081101561020f57600080fd5b5035611227565b604080516001600160a01b0394851681529290931660208301528183015290519081900360600190f35b610159611258565b6101a9611270565b60408051808201909152601281527122bc3a3930a932bbb0b93229ba30b9b42b1960711b602082015290565b7f000000000000000000000000000000000000000000000000000000000000000081565b6000336001600160a01b037f0000000000000000000000000000000000000000000000000000000000000000161461030d576040805162461bcd60e51b815260206004820152600b60248201526a08585d5d1a1bdc9a5e995960aa1b604482015290519081900360640190fd5b610315611294565b6001548015610b905760608167ffffffffffffffff8111801561033757600080fd5b50604051908082528060200260200182016040528015610361578160200160208202803683370190505b50905060005b82811015610438576002816008811061037c57fe5b6003020154604080516370a0823160e01b81526001600160a01b037f000000000000000000000000000000000000000000000000000000000000000081166004830152915191909216916370a08231916024808301926020929190829003018186803b1580156103eb57600080fd5b505afa1580156103ff573d6000803e3d6000fd5b505050506040513d602081101561041557600080fd5b5051825183908390811061042557fe5b6020908102919091010152600101610367565b507f00000000000000000000000000000000000000000000000000000000000000006001600160a01b0316636c7b69cb7f00000000000000000000000000000000000000000000000000000000000000007f00000000000000000000000000000000000000000000000000000000000000006040518363ffffffff1660e01b815260040180838152602001826001600160a01b0316815260200192505050602060405180830381600087803b1580156104f057600080fd5b505af1158015610504573d6000803e3d6000fd5b505050506040513d602081101561051a57600080fd5b50600090505b82811015610b8d5760006002826008811061053757fe5b6003020154604080516370a0823160e01b81526001600160a01b037f000000000000000000000000000000000000000000000000000000000000000081166004830152915191909216925060009183916370a0823191602480820192602092909190829003018186803b1580156105ad57600080fd5b505afa1580156105c1573d6000803e3d6000fd5b505050506040513d60208110156105d757600080fd5b505184519091508490849081106105ea57fe5b60200260200101518111156108b4577f00000000000000000000000000000000000000000000000000000000000000006001600160a01b03166351cff8d9836040518263ffffffff1660e01b815260040180826001600160a01b03168152602001915050600060405180830381600087803b15801561066857600080fd5b505af115801561067c573d6000803e3d6000fd5b50505050426002846008811061068e57fe5b60030201600201819055507f00000000000000000000000000000000000000000000000000000000000000006001600160a01b031663b7f927b1837f00000000000000000000000000000000000000000000000000000000000000006040518363ffffffff1660e01b815260040180836001600160a01b0316815260200182815260200192505050602060405180830381600087803b15801561073057600080fd5b505af1158015610744573d6000803e3d6000fd5b505050506040513d602081101561075a57600080fd5b505060408051630d5843f760e01b81526001600160a01b03848116600483015291516000927f00000000000000000000000000000000000000000000000000000000000000001691630d5843f7916024808301926020929190829003018186803b1580156107c757600080fd5b505afa1580156107db573d6000803e3d6000fd5b505050506040513d60208110156107f157600080fd5b5051905060018111156108ae5760007f00000000000000000000000000000000000000000000000000000000000000006001600160a01b031663043b684a6040518163ffffffff1660e01b8152600401602060405180830381600087803b15801561085b57600080fd5b505af115801561086f573d6000803e3d6000fd5b505050506040513d602081101561088557600080fd5b505190506001600160a01b038116156108ac576108ac6001600160a01b038516828561145c565b505b50610b83565b62093a80600284600881106108c557fe5b60030201600201540142111561099e577f00000000000000000000000000000000000000000000000000000000000000006001600160a01b031663ef9126ad837f00000000000000000000000000000000000000000000000000000000000000006040518363ffffffff1660e01b815260040180836001600160a01b0316815260200182815260200192505050602060405180830381600087803b15801561096c57600080fd5b505af1158015610980573d6000803e3d6000fd5b505050506040513d602081101561099657600080fd5b50610b839050565b8015610b83577f00000000000000000000000000000000000000000000000000000000000000006001600160a01b03166351cff8d9836040518263ffffffff1660e01b815260040180826001600160a01b03168152602001915050600060405180830381600087803b158015610a1357600080fd5b505af1158015610a27573d6000803e3d6000fd5b5050505060007f00000000000000000000000000000000000000000000000000000000000000006001600160a01b0316630d5843f7846040518263ffffffff1660e01b815260040180826001600160a01b0316815260200191505060206040518083038186803b158015610a9a57600080fd5b505afa158015610aae573d6000803e3d6000fd5b505050506040513d6020811015610ac457600080fd5b505190506001811115610b815760007f00000000000000000000000000000000000000000000000000000000000000006001600160a01b031663043b684a6040518163ffffffff1660e01b8152600401602060405180830381600087803b158015610b2e57600080fd5b505af1158015610b42573d6000803e3d6000fd5b505050506040513d6020811015610b5857600080fd5b505190506001600160a01b03811615610b7f57610b7f6001600160a01b038516828561145c565b505b505b5050600101610520565b50505b600191505090565b7f000000000000000000000000000000000000000000000000000000000000000081565b7f000000000000000000000000000000000000000000000000000000000000000081565b60015481565b7f000000000000000000000000000000000000000000000000000000000000000081565b6000336001600160a01b037f00000000000000000000000000000000000000000000000000000000000000001614610c77576040805162461bcd60e51b815260206004820152600b60248201526a08585d5d1a1bdc9a5e995960aa1b604482015290519081900360640190fd5b60005b600154811015610fb157600060028260088110610c9357fe5b6003020180549091506001600160a01b031680610cb1575050610fa9565b62093a808260020154014211610fa6576000816001600160a01b03166370a08231306040518263ffffffff1660e01b815260040180826001600160a01b0316815260200191505060206040518083038186803b158015610d1057600080fd5b505afa158015610d24573d6000803e3d6000fd5b505050506040513d6020811015610d3a57600080fd5b5051604080516351cff8d960e01b81526001600160a01b03858116600483015291519293507f0000000000000000000000000000000000000000000000000000000000000000909116916351cff8d99160248082019260009290919082900301818387803b158015610dab57600080fd5b505af1158015610dbf573d6000803e3d6000fd5b5050505060007f00000000000000000000000000000000000000000000000000000000000000006001600160a01b0316630d5843f7846040518263ffffffff1660e01b815260040180826001600160a01b0316815260200191505060206040518083038186803b158015610e3257600080fd5b505afa158015610e46573d6000803e3d6000fd5b505050506040513d6020811015610e5c57600080fd5b505190506001811115610fa3576000836001600160a01b03166370a08231306040518263ffffffff1660e01b815260040180826001600160a01b0316815260200191505060206040518083038186803b158015610eb857600080fd5b505afa158015610ecc573d6000803e3d6000fd5b505050506040513d6020811015610ee257600080fd5b50519050610ef081846114b3565b905060007f00000000000000000000000000000000000000000000000000000000000000006001600160a01b031663043b684a6040518163ffffffff1660e01b8152600401602060405180830381600087803b158015610f4f57600080fd5b505af1158015610f63573d6000803e3d6000fd5b505050506040513d6020811015610f7957600080fd5b505190506001600160a01b03811615610fa057610fa06001600160a01b038616828461145c565b50505b50505b50505b600101610c7a565b506001905090565b6000336001600160a01b037f00000000000000000000000000000000000000000000000000000000000000001614611026576040805162461bcd60e51b815260206004820152600b60248201526a08585d5d1a1bdc9a5e995960aa1b604482015290519081900360640190fd5b60005b600154811015610fb15760006002826008811061104257fe5b6003020180549091506001600160a01b03168061106057505061120d565b6000816001600160a01b03166370a08231306040518263ffffffff1660e01b815260040180826001600160a01b0316815260200191505060206040518083038186803b1580156110af57600080fd5b505afa1580156110c3573d6000803e3d6000fd5b505050506040513d60208110156110d957600080fd5b505190508015611209576001600160a01b0382166000908152602081905260409020546111069082611510565b6001600160a01b03831660008181526020819052604090209190915573d533a949740bb3306d119cc777fa900ba034cd521415611179576111716001600160a01b0383167f00000000000000000000000000000000000000000000000000000000000000008361145c565b50505061120d565b60018301546001600160a01b031680611195575050505061120d565b6111a96001600160a01b038416828461145c565b806001600160a01b031663590a41f5836040518263ffffffff1660e01b815260040180828152602001915050600060405180830381600087803b1580156111ef57600080fd5b505af1158015611203573d6000803e3d6000fd5b50505050505b5050505b600101611029565b60006020819052908152604090205481565b6002816008811061123457fe5b60030201805460018201546002909201546001600160a01b03918216935091169083565b73d533a949740bb3306d119cc777fa900ba034cd5281565b7f000000000000000000000000000000000000000000000000000000000000000081565b60005b60088110156114595760007f00000000000000000000000000000000000000000000000000000000000000006001600160a01b03166354c49fe9836040518263ffffffff1660e01b81526004018082815260200191505060206040518083038186803b15801561130657600080fd5b505afa15801561131a573d6000803e3d6000fd5b505050506040513d602081101561133057600080fd5b505190506001600160a01b03811661144657815b600154811015611430577f00000000000000000000000000000000000000000000000000000000000000006001600160a01b031663ef9126ad6002836008811061138a57fe5b6003020154604080516001600160e01b031960e085901b1681526001600160a01b0390921660048301527f000000000000000000000000000000000000000000000000000000000000000060248301525160448083019260209291908290030181600087803b1580156113fc57600080fd5b505af1158015611410573d6000803e3d6000fd5b505050506040513d602081101561142657600080fd5b5050600101611344565b5060015482146114405760018290555b50611459565b6114508282611571565b50600101611297565b50565b604080516001600160a01b038416602482015260448082018490528251808303909101815260649091019091526020810180516001600160e01b031663a9059cbb60e01b1790526114ae90849061180a565b505050565b60008282111561150a576040805162461bcd60e51b815260206004820152601e60248201527f536166654d6174683a207375627472616374696f6e206f766572666c6f770000604482015290519081900360640190fd5b50900390565b60008282018381101561156a576040805162461bcd60e51b815260206004820152601b60248201527f536166654d6174683a206164646974696f6e206f766572666c6f770000000000604482015290519081900360640190fd5b9392505050565b60006002836008811061158057fe5b6003020180549091506001600160a01b039081169083168114611804577f00000000000000000000000000000000000000000000000000000000000000006001600160a01b031663ef9126ad827f00000000000000000000000000000000000000000000000000000000000000006040518363ffffffff1660e01b815260040180836001600160a01b0316815260200182815260200192505050602060405180830381600087803b15801561163457600080fd5b505af1158015611648573d6000803e3d6000fd5b505050506040513d602081101561165e57600080fd5b505081546001600160a01b0319166001600160a01b0384811691909117835560408051631526fe2760e01b81527f0000000000000000000000000000000000000000000000000000000000000000600482015290516000927f00000000000000000000000000000000000000000000000000000000000000001691631526fe279160248083019260c0929190829003018186803b1580156116fe57600080fd5b505afa158015611712573d6000803e3d6000fd5b505050506040513d60c081101561172857600080fd5b506060015160408051637c6b091760e11b81526001600160a01b038781166004830152808416602483015230604483015291519293506000927f00000000000000000000000000000000000000000000000000000000000000009092169163f8d6122e9160648082019260209290919082900301818787803b1580156117ad57600080fd5b505af11580156117c1573d6000803e3d6000fd5b505050506040513d60208110156117d757600080fd5b50516001850180546001600160a01b0319166001600160a01b039092169190911790555050600060028301555b50505050565b606061185f826040518060400160405280602081526020017f5361666545524332303a206c6f772d6c6576656c2063616c6c206661696c6564815250856001600160a01b03166118bb9092919063ffffffff16565b8051909150156114ae5780806020019051602081101561187e57600080fd5b50516114ae5760405162461bcd60e51b815260040180806020018281038252602a815260200180611aff602a913960400191505060405180910390fd5b60606118ca84846000856118d2565b949350505050565b6060824710156119135760405162461bcd60e51b8152600401808060200182810382526026815260200180611ad96026913960400191505060405180910390fd5b61191c85611a2e565b61196d576040805162461bcd60e51b815260206004820152601d60248201527f416464726573733a2063616c6c20746f206e6f6e2d636f6e7472616374000000604482015290519081900360640190fd5b60006060866001600160a01b031685876040518082805190602001908083835b602083106119ac5780518252601f19909201916020918201910161198d565b6001836020036101000a03801982511681845116808217855250505050505090500191505060006040518083038185875af1925050503d8060008114611a0e576040519150601f19603f3d011682016040523d82523d6000602084013e611a13565b606091505b5091509150611a23828286611a34565b979650505050505050565b3b151590565b60608315611a4357508161156a565b825115611a535782518084602001fd5b8160405162461bcd60e51b81526004018080602001828103825283818151815260200191508051906020019080838360005b83811015611a9d578181015183820152602001611a85565b50505050905090810190601f168015611aca5780820380516001836020036101000a031916815260200191505b509250505060405180910390fdfe416464726573733a20696e73756666696369656e742062616c616e636520666f722063616c6c5361666545524332303a204552433230206f7065726174696f6e20646964206e6f742073756363656564a2646970667358221220205dc1c901427b69e844961e12d1c68cb30a9fcb8bf609c500778d45a732697864736f6c634300060c0033",
  "immutableReferences": {
    "8243": [
      {
        "length": 32,
        "start": 1130
      },
      {
        "length": 32,
        "start": 1739
      },
      {
        "length": 32,
        "start": 2311
      },
      {
        "length": 32,
        "start": 4722
      },
      {
        "length": 32,
        "start": 5046
      },
      {
        "length": 32,
        "start": 5583
      },
      {
        "length": 32,
        "start": 5773
      }
    ],
    "8245": [
      {
        "length": 32,
        "start": 685
      },
      {
        "length": 32,
        "start": 1083
      },
      {
        "length": 32,
        "start": 2050
      },
      {
        "length": 32,
        "start": 2773
      },
      {
        "length": 32,
        "start": 2970
      },
      {
        "length": 32,
        "start": 3095
      },
      {
        "length": 32,
        "start": 3830
      },
      {
        "length": 32,
        "start": 4038
      },
      {
        "length": 32,
        "start": 4428
      },
      {
        "length": 32,
        "start": 5816
      }
    ],
    "8247": [
      {
        "length": 32,
        "start": 921
      },
      {
        "length": 32,
        "start": 1364
      },
      {
        "length": 32,
        "start": 1531
      },
      {
        "length": 32,
        "start": 2470
      },
      {
        "length": 32,
        "start": 3006
      },
      {
        "length": 32,
        "start": 3425
      }
    ],
    "8249": [
      {
        "length": 32,
        "start": 1163
      },
      {
        "length": 32,
        "start": 3048
      },
      {
        "length": 32,
        "start": 4772
      }
    ],
    "8251": [
      {
        "length": 32,
        "start": 638
      },
      {
        "length": 32,
        "start": 1691
      },
      {
        "length": 32,
        "start": 1921
      },
      {
        "length": 32,
        "start": 2263
      },
      {
        "length": 32,
        "start": 2607
      },
      {
        "length": 32,
        "start": 3527
      },
      {
        "length": 32,
        "start": 4944
      },
      {
        "length": 32,
        "start": 5535
      },
      {
        "length": 32,
        "start": 5987
      }
    ]
  },
  "source": "// SPDX-License-Identifier: MIT\npragma solidity 0.6.12;\n\nimport \"./Interfaces.sol\";\nimport \"@openzeppelin/contracts/math/SafeMath.sol\";\nimport \"@openzeppelin/contracts/token/ERC20/IERC20.sol\";\nimport \"@openzeppelin/contracts/utils/Address.sol\";\nimport \"@openzeppelin/contracts/token/ERC20/SafeERC20.sol\";\n\ncontract ExtraRewardStashV2 {\n  using SafeERC20 for IERC20;\n  using Address for address;\n  using SafeMath for uint256;\n\n  address public constant kgl = address(0xD533a949740bb3306d119CC777fa900bA034cd52);\n  uint256 private constant maxRewards = 8;\n  uint256 private constant WEEK = 7 * 86400;\n\n  uint256 public immutable pid;\n  address public immutable operator;\n  address public immutable staker;\n  address public immutable gauge;\n  address public immutable rewardFactory;\n\n  mapping(address => uint256) public historicalRewards;\n\n  struct TokenInfo {\n    address token;\n    address rewardAddress;\n    uint256 lastActiveTime;\n  }\n  uint256 public tokenCount;\n  TokenInfo[maxRewards] public tokenInfo;\n\n  constructor(\n    uint256 _pid,\n    address _operator,\n    address _staker,\n    address _gauge,\n    address _rFactory\n  ) public {\n    pid = _pid;\n    operator = _operator;\n    staker = _staker;\n    gauge = _gauge;\n    rewardFactory = _rFactory;\n  }\n\n  function getName() external pure returns (string memory) {\n    return \"ExtraRewardStashV2\";\n  }\n\n  //try claiming if there are reward tokens registered\n  function claimRewards() external returns (bool) {\n    require(msg.sender == operator, \"!authorized\");\n\n    //this is updateable in v2 gauges now so must check each time.\n    checkForNewRewardTokens();\n\n    uint256 length = tokenCount;\n    if (length > 0) {\n      //get previous balances of all tokens\n      uint256[] memory balances = new uint256[](length);\n      for (uint256 i = 0; i < length; i++) {\n        balances[i] = IERC20(tokenInfo[i].token).balanceOf(staker);\n      }\n      //claim rewards on gauge for staker\n      //booster will call for future proofing (cant assume anyone will always be able to call)\n      IDeposit(operator).claimRewards(pid, gauge);\n\n      for (uint256 i = 0; i < length; i++) {\n        address token = tokenInfo[i].token;\n        uint256 newbalance = IERC20(token).balanceOf(staker);\n        //stash if balance increased\n        if (newbalance > balances[i]) {\n          IStaker(staker).withdraw(token);\n          tokenInfo[i].lastActiveTime = block.timestamp;\n\n          //make sure this pool is in active list,\n          IRewardFactory(rewardFactory).addActiveReward(token, pid);\n\n          //check if other stashes are also active, and if so, send to arbitrator\n          //do this here because processStash will have tokens from the arbitrator\n          uint256 activeCount = IRewardFactory(rewardFactory).activeRewardCount(token);\n          if (activeCount > 1) {\n            //send to arbitrator\n            address arb = IDeposit(operator).rewardArbitrator();\n            if (arb != address(0)) {\n              IERC20(token).safeTransfer(arb, newbalance);\n            }\n          }\n        } else {\n          //check if this reward has been inactive too long\n          if (block.timestamp > tokenInfo[i].lastActiveTime + WEEK) {\n            //set as inactive\n            IRewardFactory(rewardFactory).removeActiveReward(token, pid);\n          } else {\n            //edge case around reward ending periods\n            if (newbalance > 0) {\n              // - recently active pool\n              // - rewards claimed to staker contract via a deposit/withdraw(or someone manually calling on the gauge)\n              // - rewards ended before the deposit, thus deposit took the last available tokens\n              // - thus claimRewards doesnt see any new rewards, but there are rewards on the staker contract\n              // - i think its safe to assume claim will be called within the timeframe, or else these rewards\n              //     will be unretrievable until some pool starts rewards again\n\n              //claim the tokens\n              IStaker(staker).withdraw(token);\n\n              uint256 activeCount = IRewardFactory(rewardFactory).activeRewardCount(token);\n              if (activeCount > 1) {\n                //send to arbitrator\n                address arb = IDeposit(operator).rewardArbitrator();\n                if (arb != address(0)) {\n                  IERC20(token).safeTransfer(arb, newbalance);\n                }\n              }\n            }\n          }\n        }\n      }\n    }\n    return true;\n  }\n\n  //check if gauge rewards have changed\n  function checkForNewRewardTokens() internal {\n    for (uint256 i = 0; i < maxRewards; i++) {\n      address token = IKaglaGauge(gauge).reward_tokens(i);\n      if (token == address(0)) {\n        for (uint256 x = i; x < tokenCount; x++) {\n          IRewardFactory(rewardFactory).removeActiveReward(tokenInfo[x].token, pid);\n        }\n        if (i != tokenCount) {\n          tokenCount = i;\n        }\n        break;\n      }\n      setToken(i, token);\n    }\n  }\n\n  //replace a token on token list\n  function setToken(uint256 _tid, address _token) internal {\n    TokenInfo storage t = tokenInfo[_tid];\n    address currentToken = t.token;\n    if (currentToken != _token) {\n      //set old as inactive\n      IRewardFactory(rewardFactory).removeActiveReward(currentToken, pid);\n\n      //set token address\n      t.token = _token;\n\n      //create new reward contract\n      (, , , address mainRewardContract, , ) = IDeposit(operator).poolInfo(pid);\n      address rewardContract = IRewardFactory(rewardFactory).CreateTokenRewards(\n        _token,\n        mainRewardContract,\n        address(this)\n      );\n      t.rewardAddress = rewardContract;\n      t.lastActiveTime = 0;\n      //do not set as active yet, wait for first earmark\n    }\n  }\n\n  //pull assigned tokens from staker to stash\n  function stashRewards() external returns (bool) {\n    require(msg.sender == operator, \"!authorized\");\n\n    //after depositing/withdrawing, extra incentive tokens are transfered to the staking contract\n    //need to pull them off and stash here.\n    for (uint i = 0; i < tokenCount; i++) {\n      TokenInfo storage t = tokenInfo[i];\n      address token = t.token;\n      if (token == address(0)) continue;\n\n      //only stash if rewards are active\n      if (block.timestamp <= t.lastActiveTime + WEEK) {\n        uint256 before = IERC20(token).balanceOf(address(this));\n        IStaker(staker).withdraw(token);\n\n        //check for multiple pools claiming same token\n        uint256 activeCount = IRewardFactory(rewardFactory).activeRewardCount(token);\n        if (activeCount > 1) {\n          //take difference of before/after(only send new tokens)\n          uint256 amount = IERC20(token).balanceOf(address(this));\n          amount = amount.sub(before);\n\n          //send to arbitrator\n          address arb = IDeposit(operator).rewardArbitrator();\n          if (arb != address(0)) {\n            IERC20(token).safeTransfer(arb, amount);\n          }\n        }\n      }\n    }\n    return true;\n  }\n\n  //send all extra rewards to their reward contracts\n  function processStash() external returns (bool) {\n    require(msg.sender == operator, \"!authorized\");\n\n    for (uint i = 0; i < tokenCount; i++) {\n      TokenInfo storage t = tokenInfo[i];\n      address token = t.token;\n      if (token == address(0)) continue;\n\n      uint256 amount = IERC20(token).balanceOf(address(this));\n      if (amount > 0) {\n        historicalRewards[token] = historicalRewards[token].add(amount);\n        if (token == kgl) {\n          //if kgl, send back to booster to distribute\n          IERC20(token).safeTransfer(operator, amount);\n          continue;\n        }\n        //add to reward contract\n        address rewards = t.rewardAddress;\n        if (rewards == address(0)) continue;\n        IERC20(token).safeTransfer(rewards, amount);\n        IRewards(rewards).queueNewRewards(amount);\n      }\n    }\n    return true;\n  }\n}\n",
  "sourcePath": "/Users/shuto/Documents/bridges-dev/muuu/protocol/contracts/contracts/ExtraRewardStashV2.sol",
  "compiler": {
    "name": "solc",
    "version": "0.6.12+commit.27d51765.Emscripten.clang"
  },
  "schemaVersion": "3.4.6",
  "updatedAt": "2022-04-04T03:30:07.050Z",
  "devdoc": {
    "kind": "dev",
    "methods": {},
    "version": 1
  },
  "userdoc": {
    "kind": "user",
    "methods": {},
    "version": 1
  }
}