{
  "contractName": "ExtraRewardStashV1",
  "abi": [
    {
      "inputs": [
        {
          "internalType": "uint256",
          "name": "_pid",
          "type": "uint256"
        },
        {
          "internalType": "address",
          "name": "_operator",
          "type": "address"
        },
        {
          "internalType": "address",
          "name": "_staker",
          "type": "address"
        },
        {
          "internalType": "address",
          "name": "_gauge",
          "type": "address"
        },
        {
          "internalType": "address",
          "name": "_rFactory",
          "type": "address"
        }
      ],
      "stateMutability": "nonpayable",
      "type": "constructor"
    },
    {
      "inputs": [],
      "name": "gauge",
      "outputs": [
        {
          "internalType": "address",
          "name": "",
          "type": "address"
        }
      ],
      "stateMutability": "view",
      "type": "function"
    },
    {
      "inputs": [],
      "name": "historicalRewards",
      "outputs": [
        {
          "internalType": "uint256",
          "name": "",
          "type": "uint256"
        }
      ],
      "stateMutability": "view",
      "type": "function"
    },
    {
      "inputs": [],
      "name": "operator",
      "outputs": [
        {
          "internalType": "address",
          "name": "",
          "type": "address"
        }
      ],
      "stateMutability": "view",
      "type": "function"
    },
    {
      "inputs": [],
      "name": "pid",
      "outputs": [
        {
          "internalType": "uint256",
          "name": "",
          "type": "uint256"
        }
      ],
      "stateMutability": "view",
      "type": "function"
    },
    {
      "inputs": [],
      "name": "rewardFactory",
      "outputs": [
        {
          "internalType": "address",
          "name": "",
          "type": "address"
        }
      ],
      "stateMutability": "view",
      "type": "function"
    },
    {
      "inputs": [],
      "name": "staker",
      "outputs": [
        {
          "internalType": "address",
          "name": "",
          "type": "address"
        }
      ],
      "stateMutability": "view",
      "type": "function"
    },
    {
      "inputs": [],
      "name": "tokenInfo",
      "outputs": [
        {
          "internalType": "address",
          "name": "token",
          "type": "address"
        },
        {
          "internalType": "address",
          "name": "rewardAddress",
          "type": "address"
        },
        {
          "internalType": "uint256",
          "name": "lastActiveTime",
          "type": "uint256"
        }
      ],
      "stateMutability": "view",
      "type": "function"
    },
    {
      "inputs": [],
      "name": "getName",
      "outputs": [
        {
          "internalType": "string",
          "name": "",
          "type": "string"
        }
      ],
      "stateMutability": "pure",
      "type": "function"
    },
    {
      "inputs": [],
      "name": "claimRewards",
      "outputs": [
        {
          "internalType": "bool",
          "name": "",
          "type": "bool"
        }
      ],
      "stateMutability": "nonpayable",
      "type": "function"
    },
    {
      "inputs": [],
      "name": "stashRewards",
      "outputs": [
        {
          "internalType": "bool",
          "name": "",
          "type": "bool"
        }
      ],
      "stateMutability": "pure",
      "type": "function"
    },
    {
      "inputs": [],
      "name": "processStash",
      "outputs": [
        {
          "internalType": "bool",
          "name": "",
          "type": "bool"
        }
      ],
      "stateMutability": "nonpayable",
      "type": "function"
    }
  ],
  "bytecode": "0x6080604052600060055534801561001557600080fd5b50604051611129380380611129833981810160405260a081101561003857600080fd5b5080516020820151604083015160608401516080909401516000938455600180546001600160a01b03199081166001600160a01b039586161790915560028054821693851693909317909255600380548316958416959095179094556004805490911691909316179091556110769081906100b390396000f3fe608060405234801561001057600080fd5b50600436106100a95760003560e01c80635ebaf1db116100715780635ebaf1db1461018d5780636addb66314610195578063a6f19c84146101c7578063b87bd481146101cf578063ca8b0176146101d7578063f1068454146101df576100a9565b806317d7de7c146100ae578063245e4bf01461012b578063262d3d6d1461014f578063372500ab14610169578063570ca73514610185575b600080fd5b6100b66101e7565b6040805160208082528351818301528351919283929083019185019080838360005b838110156100f05781810151838201526020016100d8565b50505050905090810190601f16801561011d5780820380516001836020036101000a031916815260200191505b509250505060405180910390f35b610133610214565b604080516001600160a01b039092168252519081900360200190f35b610157610223565b60408051918252519081900360200190f35b610171610229565b604080519115158252519081900360200190f35b6101336108a8565b6101336108b7565b61019d6108c6565b604080516001600160a01b0394851681529290931660208301528183015290519081900360600190f35b6101336108e2565b6101716108f1565b6101716108f6565b610157610a8e565b60408051808201909152601281527145787472615265776172645374617368563160701b60208201525b90565b6004546001600160a01b031681565b60055481565b6001546000906001600160a01b03163314610279576040805162461bcd60e51b815260206004820152600b60248201526a08585d5d1a1bdc9a5e995960aa1b604482015290519081900360640190fd5b6006546001600160a01b031661029157610291610a94565b6006546001600160a01b0316156108a257600654600254604080516370a0823160e01b81526001600160a01b039283166004820152905160009392909216916370a0823191602480820192602092909190829003018186803b1580156102f657600080fd5b505afa15801561030a573d6000803e3d6000fd5b505050506040513d602081101561032057600080fd5b50516001546000805460035460408051636c7b69cb60e01b815260048101939093526001600160a01b0391821660248401525194955090921692636c7b69cb926044808201936020939283900390910190829087803b15801561038257600080fd5b505af1158015610396573d6000803e3d6000fd5b505050506040513d60208110156103ac57600080fd5b5050600654600254604080516370a0823160e01b81526001600160a01b039283166004820152905160009392909216916370a0823191602480820192602092909190829003018186803b15801561040257600080fd5b505afa158015610416573d6000803e3d6000fd5b505050506040513d602081101561042c57600080fd5b505190508181111561066357600254600654604080516351cff8d960e01b81526001600160a01b039283166004820152905191909216916351cff8d991602480830192600092919082900301818387803b15801561048957600080fd5b505af115801561049d573d6000803e3d6000fd5b505042600855505060048054600654600080546040805163b7f927b160e01b81526001600160a01b0394851696810196909652602486019190915251919092169263b7f927b19260448083019360209390929083900390910190829087803b15801561050857600080fd5b505af115801561051c573d6000803e3d6000fd5b505050506040513d602081101561053257600080fd5b50506004805460065460408051630d5843f760e01b81526001600160a01b0392831694810194909452516000939190921691630d5843f791602480820192602092909190829003018186803b15801561058a57600080fd5b505afa15801561059e573d6000803e3d6000fd5b505050506040513d60208110156105b457600080fd5b50519050600181111561065d576001546040805163021db42560e11b815290516000926001600160a01b03169163043b684a91600480830192602092919082900301818787803b15801561060757600080fd5b505af115801561061b573d6000803e3d6000fd5b505050506040513d602081101561063157600080fd5b505190506001600160a01b0381161561065b5760065461065b906001600160a01b03168285610c6a565b505b5061089f565b60085462093a80014211156107075760048054600654600080546040805163ef9126ad60e01b81526001600160a01b0394851696810196909652602486019190915251919092169263ef9126ad9260448083019360209390929083900390910190829087803b1580156106d557600080fd5b505af11580156106e9573d6000803e3d6000fd5b505050506040513d60208110156106ff57600080fd5b5061089f9050565b801561089f57600254600654604080516351cff8d960e01b81526001600160a01b039283166004820152905191909216916351cff8d991602480830192600092919082900301818387803b15801561075e57600080fd5b505af1158015610772573d6000803e3d6000fd5b50506004805460065460408051630d5843f760e01b81526001600160a01b0392831694810194909452516000955091169250630d5843f791602480820192602092909190829003018186803b1580156107ca57600080fd5b505afa1580156107de573d6000803e3d6000fd5b505050506040513d60208110156107f457600080fd5b50519050600181111561089d576001546040805163021db42560e11b815290516000926001600160a01b03169163043b684a91600480830192602092919082900301818787803b15801561084757600080fd5b505af115801561085b573d6000803e3d6000fd5b505050506040513d602081101561087157600080fd5b505190506001600160a01b0381161561089b5760065461089b906001600160a01b03168285610c6a565b505b505b50505b50600190565b6001546001600160a01b031681565b6002546001600160a01b031681565b6006546007546008546001600160a01b03928316929091169083565b6003546001600160a01b031681565b600190565b6001546000906001600160a01b03163314610946576040805162461bcd60e51b815260206004820152600b60248201526a08585d5d1a1bdc9a5e995960aa1b604482015290519081900360640190fd5b6006546001600160a01b031680610961576001915050610211565b6000816001600160a01b03166370a08231306040518263ffffffff1660e01b815260040180826001600160a01b0316815260200191505060206040518083038186803b1580156109b057600080fd5b505afa1580156109c4573d6000803e3d6000fd5b505050506040513d60208110156109da57600080fd5b505190508015610a85576005546109f19082610cc1565b6005556007546001600160a01b031680610a115760019350505050610211565b610a256001600160a01b0384168284610c6a565b806001600160a01b031663590a41f5836040518263ffffffff1660e01b815260040180828152602001915050600060405180830381600087803b158015610a6b57600080fd5b505af1158015610a7f573d6000803e3d6000fd5b50505050505b60019250505090565b60005481565b600354604080516316fa50b160e01b815290516000926001600160a01b0316916316fa50b1916004808301926020929190829003018186803b158015610ad957600080fd5b505afa158015610aed573d6000803e3d6000fd5b505050506040513d6020811015610b0357600080fd5b505190506001600160a01b03811615610c6757600680546001600160a01b0319166001600160a01b03838116919091179091556001546000805460408051631526fe2760e01b815260048101929092525191939290921691631526fe279160248083019260c0929190829003018186803b158015610b8057600080fd5b505afa158015610b94573d6000803e3d6000fd5b505050506040513d60c0811015610baa57600080fd5b50606001516004805460408051637c6b091760e11b81526001600160a01b038781169482019490945283851660248201523060448201529051939450600093929091169163f8d6122e9160648082019260209290919082900301818787803b158015610c1557600080fd5b505af1158015610c29573d6000803e3d6000fd5b505050506040513d6020811015610c3f57600080fd5b5051600780546001600160a01b0319166001600160a01b039092169190911790555050426008555b50565b604080516001600160a01b038416602482015260448082018490528251808303909101815260649091019091526020810180516001600160e01b031663a9059cbb60e01b179052610cbc908490610d22565b505050565b600082820183811015610d1b576040805162461bcd60e51b815260206004820152601b60248201527f536166654d6174683a206164646974696f6e206f766572666c6f770000000000604482015290519081900360640190fd5b9392505050565b6060610d77826040518060400160405280602081526020017f5361666545524332303a206c6f772d6c6576656c2063616c6c206661696c6564815250856001600160a01b0316610dd39092919063ffffffff16565b805190915015610cbc57808060200190516020811015610d9657600080fd5b5051610cbc5760405162461bcd60e51b815260040180806020018281038252602a815260200180611017602a913960400191505060405180910390fd5b6060610de28484600085610dea565b949350505050565b606082471015610e2b5760405162461bcd60e51b8152600401808060200182810382526026815260200180610ff16026913960400191505060405180910390fd5b610e3485610f46565b610e85576040805162461bcd60e51b815260206004820152601d60248201527f416464726573733a2063616c6c20746f206e6f6e2d636f6e7472616374000000604482015290519081900360640190fd5b60006060866001600160a01b031685876040518082805190602001908083835b60208310610ec45780518252601f199092019160209182019101610ea5565b6001836020036101000a03801982511681845116808217855250505050505090500191505060006040518083038185875af1925050503d8060008114610f26576040519150601f19603f3d011682016040523d82523d6000602084013e610f2b565b606091505b5091509150610f3b828286610f4c565b979650505050505050565b3b151590565b60608315610f5b575081610d1b565b825115610f6b5782518084602001fd5b8160405162461bcd60e51b81526004018080602001828103825283818151815260200191508051906020019080838360005b83811015610fb5578181015183820152602001610f9d565b50505050905090810190601f168015610fe25780820380516001836020036101000a031916815260200191505b509250505060405180910390fdfe416464726573733a20696e73756666696369656e742062616c616e636520666f722063616c6c5361666545524332303a204552433230206f7065726174696f6e20646964206e6f742073756363656564a2646970667358221220475f15da40b50094338937fc3083cec2475b3ee7066ef9679ae7de237cbcd78e64736f6c634300060c0033",
  "immutableReferences": {},
  "source": "// SPDX-License-Identifier: MIT\npragma solidity 0.6.12;\n\nimport \"./Interfaces.sol\";\nimport \"@openzeppelin/contracts/math/SafeMath.sol\";\nimport \"@openzeppelin/contracts/token/ERC20/IERC20.sol\";\nimport \"@openzeppelin/contracts/utils/Address.sol\";\nimport \"@openzeppelin/contracts/token/ERC20/SafeERC20.sol\";\n\ncontract ExtraRewardStashV1 {\n  using SafeERC20 for IERC20;\n  using Address for address;\n  using SafeMath for uint256;\n\n  uint256 private constant WEEK = 7 * 86400;\n  uint256 private constant maxRewards = 8;\n\n  uint256 public pid;\n  address public operator;\n  address public staker;\n  address public gauge;\n  address public rewardFactory;\n\n  uint256 public historicalRewards = 0;\n\n  struct TokenInfo {\n    address token;\n    address rewardAddress;\n    uint256 lastActiveTime;\n  }\n  TokenInfo public tokenInfo;\n\n  constructor(\n    uint256 _pid,\n    address _operator,\n    address _staker,\n    address _gauge,\n    address _rFactory\n  ) public {\n    pid = _pid;\n    operator = _operator;\n    staker = _staker;\n    gauge = _gauge;\n    rewardFactory = _rFactory;\n  }\n\n  function getName() external pure returns (string memory) {\n    return \"ExtraRewardStashV1\";\n  }\n\n  function setToken() internal {\n    address token = IKaglaGauge(gauge).rewarded_token();\n\n    if (token != address(0)) {\n      //set token address\n      tokenInfo.token = token;\n\n      //create new reward contract\n      (, , , address mainRewardContract, , ) = IDeposit(operator).poolInfo(pid);\n      address rewardContract = IRewardFactory(rewardFactory).CreateTokenRewards(\n        token,\n        mainRewardContract,\n        address(this)\n      );\n      tokenInfo.rewardAddress = rewardContract;\n      tokenInfo.lastActiveTime = block.timestamp;\n    }\n  }\n\n  function claimRewards() external returns (bool) {\n    require(msg.sender == operator, \"!authorized\");\n    //first time init\n    if (tokenInfo.token == address(0)) {\n      setToken();\n    }\n\n    if (tokenInfo.token != address(0)) {\n      uint256 before = IERC20(tokenInfo.token).balanceOf(staker);\n      IDeposit(operator).claimRewards(pid, gauge);\n      uint256 newbalance = IERC20(tokenInfo.token).balanceOf(staker);\n      if (newbalance > before) {\n        IStaker(staker).withdraw(tokenInfo.token);\n        tokenInfo.lastActiveTime = block.timestamp;\n\n        //make sure this pool is in active list,\n        IRewardFactory(rewardFactory).addActiveReward(tokenInfo.token, pid);\n\n        //check if other stashes are also active, and if so, send to arbitrator\n        //do this here because processStash will have tokens from the arbitrator\n        uint256 activeCount = IRewardFactory(rewardFactory).activeRewardCount(tokenInfo.token);\n        if (activeCount > 1) {\n          //send to arbitrator\n          address arb = IDeposit(operator).rewardArbitrator();\n          if (arb != address(0)) {\n            IERC20(tokenInfo.token).safeTransfer(arb, newbalance);\n          }\n        }\n      } else {\n        //check if this reward has been inactive too long\n        if (block.timestamp > tokenInfo.lastActiveTime + WEEK) {\n          //set as inactive\n          IRewardFactory(rewardFactory).removeActiveReward(tokenInfo.token, pid);\n        } else {\n          //edge case around reward ending periods\n          if (newbalance > 0) {\n            // - recently active pool\n            // - rewards claimed to staker contract via someone manually calling claim_rewards() on the gauge\n            // - rewards ended before the above call, which claimed the last available tokens\n            // - thus claimRewards doesnt see any new rewards, but there are rewards on the staker contract\n            // - i think its safe to assume claim will be called within the timeframe, or else these rewards\n            //     will be unretrievable until some pool starts rewards again\n\n            //claim the tokens\n            IStaker(staker).withdraw(tokenInfo.token);\n\n            uint256 activeCount = IRewardFactory(rewardFactory).activeRewardCount(tokenInfo.token);\n            if (activeCount > 1) {\n              //send to arbitrator\n              address arb = IDeposit(operator).rewardArbitrator();\n              if (arb != address(0)) {\n                IERC20(tokenInfo.token).safeTransfer(arb, newbalance);\n              }\n            }\n          }\n        }\n      }\n    }\n    return true;\n  }\n\n  //pull assigned tokens from staker to stash\n  function stashRewards() external pure returns (bool) {\n    //stashRewards() is also called on deposit\n    //so dont need to try withdrawing here for v1\n    // -> move withdraw() call to processStash() which is only called during reward claiming\n    return true;\n  }\n\n  //send all extra rewards to their reward contracts\n  function processStash() external returns (bool) {\n    require(msg.sender == operator, \"!authorized\");\n\n    address token = tokenInfo.token;\n    if (token == address(0)) return true;\n\n    //send to rewards\n    uint256 amount = IERC20(token).balanceOf(address(this));\n    if (amount > 0) {\n      historicalRewards = historicalRewards.add(amount);\n      //add to reward contract\n      address rewards = tokenInfo.rewardAddress;\n      if (rewards == address(0)) return true;\n      IERC20(token).safeTransfer(rewards, amount);\n      IRewards(rewards).queueNewRewards(amount);\n    }\n    return true;\n  }\n}\n",
  "sourcePath": "/Users/shuto/Documents/bridges-dev/muuu/protocol/contracts/contracts/ExtraRewardStashV1.sol",
  "compiler": {
    "name": "solc",
    "version": "0.6.12+commit.27d51765.Emscripten.clang"
  },
  "schemaVersion": "3.4.6",
  "updatedAt": "2022-04-04T03:30:07.044Z",
  "devdoc": {
    "kind": "dev",
    "methods": {},
    "version": 1
  },
  "userdoc": {
    "kind": "user",
    "methods": {},
    "version": 1
  }
}