{
  "contractName": "KaglaVoterProxy",
  "abi": [
    {
      "inputs": [
        {
          "internalType": "address",
          "name": "_kgl",
          "type": "address"
        },
        {
          "internalType": "address",
          "name": "_votingEscrow",
          "type": "address"
        },
        {
          "internalType": "address",
          "name": "_gaugeController",
          "type": "address"
        },
        {
          "internalType": "address",
          "name": "_tokenMinter",
          "type": "address"
        }
      ],
      "stateMutability": "nonpayable",
      "type": "constructor"
    },
    {
      "anonymous": false,
      "inputs": [
        {
          "indexed": true,
          "internalType": "address",
          "name": "previousOwner",
          "type": "address"
        },
        {
          "indexed": true,
          "internalType": "address",
          "name": "newOwner",
          "type": "address"
        }
      ],
      "name": "OwnershipTransferred",
      "type": "event"
    },
    {
      "inputs": [],
      "name": "depositor",
      "outputs": [
        {
          "internalType": "address",
          "name": "",
          "type": "address"
        }
      ],
      "stateMutability": "view",
      "type": "function",
      "constant": true
    },
    {
      "inputs": [],
      "name": "gaugeController",
      "outputs": [
        {
          "internalType": "address",
          "name": "",
          "type": "address"
        }
      ],
      "stateMutability": "view",
      "type": "function",
      "constant": true
    },
    {
      "inputs": [],
      "name": "kgl",
      "outputs": [
        {
          "internalType": "address",
          "name": "",
          "type": "address"
        }
      ],
      "stateMutability": "view",
      "type": "function",
      "constant": true
    },
    {
      "inputs": [],
      "name": "operator",
      "outputs": [
        {
          "internalType": "address",
          "name": "",
          "type": "address"
        }
      ],
      "stateMutability": "view",
      "type": "function",
      "constant": true
    },
    {
      "inputs": [],
      "name": "owner",
      "outputs": [
        {
          "internalType": "address",
          "name": "",
          "type": "address"
        }
      ],
      "stateMutability": "view",
      "type": "function",
      "constant": true
    },
    {
      "inputs": [],
      "name": "renounceOwnership",
      "outputs": [],
      "stateMutability": "nonpayable",
      "type": "function"
    },
    {
      "inputs": [],
      "name": "tokenMinter",
      "outputs": [
        {
          "internalType": "address",
          "name": "",
          "type": "address"
        }
      ],
      "stateMutability": "view",
      "type": "function",
      "constant": true
    },
    {
      "inputs": [
        {
          "internalType": "address",
          "name": "newOwner",
          "type": "address"
        }
      ],
      "name": "transferOwnership",
      "outputs": [],
      "stateMutability": "nonpayable",
      "type": "function"
    },
    {
      "inputs": [],
      "name": "votingEscrow",
      "outputs": [
        {
          "internalType": "address",
          "name": "",
          "type": "address"
        }
      ],
      "stateMutability": "view",
      "type": "function",
      "constant": true
    },
    {
      "inputs": [],
      "name": "getName",
      "outputs": [
        {
          "internalType": "string",
          "name": "",
          "type": "string"
        }
      ],
      "stateMutability": "pure",
      "type": "function",
      "constant": true
    },
    {
      "inputs": [
        {
          "internalType": "address",
          "name": "_kgl",
          "type": "address"
        }
      ],
      "name": "setKgl",
      "outputs": [],
      "stateMutability": "nonpayable",
      "type": "function"
    },
    {
      "inputs": [
        {
          "internalType": "address",
          "name": "_votingEscrow",
          "type": "address"
        }
      ],
      "name": "setVotingEscrow",
      "outputs": [],
      "stateMutability": "nonpayable",
      "type": "function"
    },
    {
      "inputs": [
        {
          "internalType": "address",
          "name": "_gaugeController",
          "type": "address"
        }
      ],
      "name": "setGaugeController",
      "outputs": [],
      "stateMutability": "nonpayable",
      "type": "function"
    },
    {
      "inputs": [
        {
          "internalType": "address",
          "name": "_tokenMinter",
          "type": "address"
        }
      ],
      "name": "setTokenMinter",
      "outputs": [],
      "stateMutability": "nonpayable",
      "type": "function"
    },
    {
      "inputs": [
        {
          "internalType": "address",
          "name": "_operator",
          "type": "address"
        }
      ],
      "name": "setOperator",
      "outputs": [],
      "stateMutability": "nonpayable",
      "type": "function"
    },
    {
      "inputs": [
        {
          "internalType": "address",
          "name": "_depositor",
          "type": "address"
        }
      ],
      "name": "setDepositor",
      "outputs": [],
      "stateMutability": "nonpayable",
      "type": "function"
    },
    {
      "inputs": [
        {
          "internalType": "address",
          "name": "_stash",
          "type": "address"
        },
        {
          "internalType": "bool",
          "name": "_status",
          "type": "bool"
        }
      ],
      "name": "setStashAccess",
      "outputs": [
        {
          "internalType": "bool",
          "name": "",
          "type": "bool"
        }
      ],
      "stateMutability": "nonpayable",
      "type": "function"
    },
    {
      "inputs": [
        {
          "internalType": "address",
          "name": "_token",
          "type": "address"
        },
        {
          "internalType": "address",
          "name": "_gauge",
          "type": "address"
        }
      ],
      "name": "deposit",
      "outputs": [
        {
          "internalType": "bool",
          "name": "",
          "type": "bool"
        }
      ],
      "stateMutability": "nonpayable",
      "type": "function"
    },
    {
      "inputs": [
        {
          "internalType": "contract IERC20",
          "name": "_asset",
          "type": "address"
        }
      ],
      "name": "withdraw",
      "outputs": [
        {
          "internalType": "uint256",
          "name": "balance",
          "type": "uint256"
        }
      ],
      "stateMutability": "nonpayable",
      "type": "function"
    },
    {
      "inputs": [
        {
          "internalType": "address",
          "name": "_token",
          "type": "address"
        },
        {
          "internalType": "address",
          "name": "_gauge",
          "type": "address"
        },
        {
          "internalType": "uint256",
          "name": "_amount",
          "type": "uint256"
        }
      ],
      "name": "withdraw",
      "outputs": [
        {
          "internalType": "bool",
          "name": "",
          "type": "bool"
        }
      ],
      "stateMutability": "nonpayable",
      "type": "function"
    },
    {
      "inputs": [
        {
          "internalType": "address",
          "name": "_token",
          "type": "address"
        },
        {
          "internalType": "address",
          "name": "_gauge",
          "type": "address"
        }
      ],
      "name": "withdrawAll",
      "outputs": [
        {
          "internalType": "bool",
          "name": "",
          "type": "bool"
        }
      ],
      "stateMutability": "nonpayable",
      "type": "function"
    },
    {
      "inputs": [
        {
          "internalType": "uint256",
          "name": "_value",
          "type": "uint256"
        },
        {
          "internalType": "uint256",
          "name": "_unlockTime",
          "type": "uint256"
        }
      ],
      "name": "createLock",
      "outputs": [
        {
          "internalType": "bool",
          "name": "",
          "type": "bool"
        }
      ],
      "stateMutability": "nonpayable",
      "type": "function"
    },
    {
      "inputs": [
        {
          "internalType": "uint256",
          "name": "_value",
          "type": "uint256"
        }
      ],
      "name": "increaseAmount",
      "outputs": [
        {
          "internalType": "bool",
          "name": "",
          "type": "bool"
        }
      ],
      "stateMutability": "nonpayable",
      "type": "function"
    },
    {
      "inputs": [
        {
          "internalType": "uint256",
          "name": "_value",
          "type": "uint256"
        }
      ],
      "name": "increaseTime",
      "outputs": [
        {
          "internalType": "bool",
          "name": "",
          "type": "bool"
        }
      ],
      "stateMutability": "nonpayable",
      "type": "function"
    },
    {
      "inputs": [],
      "name": "release",
      "outputs": [
        {
          "internalType": "bool",
          "name": "",
          "type": "bool"
        }
      ],
      "stateMutability": "nonpayable",
      "type": "function"
    },
    {
      "inputs": [
        {
          "internalType": "uint256",
          "name": "_voteId",
          "type": "uint256"
        },
        {
          "internalType": "address",
          "name": "_votingAddress",
          "type": "address"
        },
        {
          "internalType": "bool",
          "name": "_support",
          "type": "bool"
        }
      ],
      "name": "vote",
      "outputs": [
        {
          "internalType": "bool",
          "name": "",
          "type": "bool"
        }
      ],
      "stateMutability": "nonpayable",
      "type": "function"
    },
    {
      "inputs": [
        {
          "internalType": "address",
          "name": "_gauge",
          "type": "address"
        },
        {
          "internalType": "uint256",
          "name": "_weight",
          "type": "uint256"
        }
      ],
      "name": "voteGaugeWeight",
      "outputs": [
        {
          "internalType": "bool",
          "name": "",
          "type": "bool"
        }
      ],
      "stateMutability": "nonpayable",
      "type": "function"
    },
    {
      "inputs": [
        {
          "internalType": "address",
          "name": "_gauge",
          "type": "address"
        }
      ],
      "name": "claimKgl",
      "outputs": [
        {
          "internalType": "uint256",
          "name": "",
          "type": "uint256"
        }
      ],
      "stateMutability": "nonpayable",
      "type": "function"
    },
    {
      "inputs": [
        {
          "internalType": "address",
          "name": "_gauge",
          "type": "address"
        }
      ],
      "name": "claimRewards",
      "outputs": [
        {
          "internalType": "bool",
          "name": "",
          "type": "bool"
        }
      ],
      "stateMutability": "nonpayable",
      "type": "function"
    },
    {
      "inputs": [
        {
          "internalType": "address",
          "name": "_distroContract",
          "type": "address"
        },
        {
          "internalType": "address",
          "name": "_token",
          "type": "address"
        }
      ],
      "name": "claimFees",
      "outputs": [
        {
          "internalType": "uint256",
          "name": "",
          "type": "uint256"
        }
      ],
      "stateMutability": "nonpayable",
      "type": "function"
    },
    {
      "inputs": [
        {
          "internalType": "address",
          "name": "_gauge",
          "type": "address"
        }
      ],
      "name": "balanceOfPool",
      "outputs": [
        {
          "internalType": "uint256",
          "name": "",
          "type": "uint256"
        }
      ],
      "stateMutability": "view",
      "type": "function",
      "constant": true
    },
    {
      "inputs": [
        {
          "internalType": "address",
          "name": "_to",
          "type": "address"
        },
        {
          "internalType": "uint256",
          "name": "_value",
          "type": "uint256"
        },
        {
          "internalType": "bytes",
          "name": "_data",
          "type": "bytes"
        }
      ],
      "name": "execute",
      "outputs": [
        {
          "internalType": "bool",
          "name": "",
          "type": "bool"
        },
        {
          "internalType": "bytes",
          "name": "",
          "type": "bytes"
        }
      ],
      "stateMutability": "nonpayable",
      "type": "function"
    }
  ],
  "bytecode": "0x608060405234801561001057600080fd5b506040516123373803806123378339818101604052608081101561003357600080fd5b508051602082015160408301516060909301519192909160006100546100f1565b600080546001600160a01b0319166001600160a01b0383169081178255604051929350917f8be0079c531659141344cd1fd0a4f28419497f9722a3daafe3b4186f6b6457e0908290a350600180546001600160a01b039586166001600160a01b03199182161790915560028054948616948216949094179093556003805492851692841692909217909155600480549190931691161790556100f5565b3390565b612233806101046000396000f3fe608060405234801561001057600080fd5b50600436106101ef5760003560e01c8063b0f637941161010f578063d782139a116100a2578063f2c098b711610071578063f2c098b7146106a8578063f2fde38b146106ce578063f9609f08146106f4578063fa3964b214610722576101ef565b8063d782139a14610610578063d9caed1214610618578063e2cdd42a1461064e578063ef5cfb8c14610682576101ef565b8063bf09dac0116100de578063bf09dac0146105b4578063c7c4ff46146105da578063ce5ec92e146105e2578063cfb3647b14610608576101ef565b8063b0f637941461043f578063b3ab15fb14610465578063b52c05fe1461048b578063b61d27f6146104ae576101ef565b8063570ca7351161018757806386d1a69f1161015657806386d1a69f146104015780638da5cb5b1461040957806399eecb3b14610411578063a641a42414610419576101ef565b8063570ca7351461039f5780635d7e9bcb146103a7578063715018a6146103d357806378533e90146103db576101ef565b80632dbfa735116101c35780632dbfa735146102f85780633c9a2a1a146103385780634f2bfe5b1461035557806351cff8d914610379576101ef565b806291d2b8146101f457806309cae2c81461021c57806315456eba1461025e57806317d7de7c1461027b575b600080fd5b61021a6004803603602081101561020a57600080fd5b50356001600160a01b0316610750565b005b61024a6004803603604081101561023257600080fd5b506001600160a01b03813581169160200135166107d4565b604080519115158252519081900360200190f35b61024a6004803603602081101561027457600080fd5b50356108c3565b6102836109b7565b6040805160208082528351818301528351919283929083019185019080838360005b838110156102bd5781810151838201526020016102a5565b50505050905090810190601f1680156102ea5780820380516001836020036101000a031916815260200191505b509250505060405180910390f35b6103266004803603604081101561030e57600080fd5b506001600160a01b03813581169160200135166109e0565b60408051918252519081900360200190f35b61024a6004803603602081101561034e57600080fd5b5035610b1c565b61035d610bb3565b604080516001600160a01b039092168252519081900360200190f35b6103266004803603602081101561038f57600080fd5b50356001600160a01b0316610bc2565b61035d610cc9565b61024a600480360360408110156103bd57600080fd5b506001600160a01b038135169060200135610cd8565b61021a610d98565b61021a600480360360208110156103f157600080fd5b50356001600160a01b0316610e44565b61024a610ec8565b61035d610f81565b61035d610f90565b6103266004803603602081101561042f57600080fd5b50356001600160a01b0316610f9f565b6103266004803603602081101561045557600080fd5b50356001600160a01b0316611106565b61021a6004803603602081101561047b57600080fd5b50356001600160a01b0316611187565b61024a600480360360408110156104a157600080fd5b50803590602001356112d3565b610533600480360360608110156104c457600080fd5b6001600160a01b03823516916020810135918101906060810160408201356401000000008111156104f457600080fd5b82018360208201111561050657600080fd5b8035906020019184600183028401116401000000008311171561052857600080fd5b5090925090506113ac565b60405180831515815260200180602001828103825283818151815260200191508051906020019080838360005b83811015610578578181015183820152602001610560565b50505050905090810190601f1680156105a55780820380516001836020036101000a031916815260200191505b50935050505060405180910390f35b61021a600480360360208110156105ca57600080fd5b50356001600160a01b0316611470565b61035d6114f4565b61021a600480360360208110156105f857600080fd5b50356001600160a01b0316611503565b61035d611587565b61035d611596565b61024a6004803603606081101561062e57600080fd5b506001600160a01b038135811691602081013590911690604001356115a5565b61024a6004803603606081101561066457600080fd5b508035906001600160a01b03602082013516906040013515156116aa565b61024a6004803603602081101561069857600080fd5b50356001600160a01b031661176b565b61021a600480360360208110156106be57600080fd5b50356001600160a01b03166117f0565b61021a600480360360208110156106e457600080fd5b50356001600160a01b0316611867565b61024a6004803603604081101561070a57600080fd5b506001600160a01b0381358116916020013516611969565b61024a6004803603604081101561073857600080fd5b506001600160a01b0381351690602001351515611b50565b610758611bd7565b6001600160a01b0316610769610f81565b6001600160a01b0316146107b2576040805162461bcd60e51b8152602060048201819052602482015260008051602061217e833981519152604482015290519081900360640190fd5b600380546001600160a01b0319166001600160a01b0392909216919091179055565b6005546000906001600160a01b0316331461081e576040805162461bcd60e51b8152602060048201526005602482015264042c2eae8d60db1b604482015290519081900360640190fd5b60006108ab846001600160a01b03166370a08231306040518263ffffffff1660e01b815260040180826001600160a01b0316815260200191505060206040518083038186803b15801561087057600080fd5b505afa158015610884573d6000803e3d6000fd5b505050506040513d602081101561089a57600080fd5b50516108a585611106565b90611bdb565b90506108b88484836115a5565b506001949350505050565b6006546000906001600160a01b0316331461090d576040805162461bcd60e51b8152602060048201526005602482015264042c2eae8d60db1b604482015290519081900360640190fd5b60025460015461092b916001600160a01b0391821691166000611c35565b600254600154610948916001600160a01b03918216911684611c35565b60025460408051631255d9df60e21b81526004810185905290516001600160a01b0390921691634957677c9160248082019260009290919082900301818387803b15801561099557600080fd5b505af11580156109a9573d6000803e3d6000fd5b50505050600190505b919050565b60408051808201909152600f81526e4b61676c61566f74657250726f787960881b602082015290565b6005546000906001600160a01b03163314610a2a576040805162461bcd60e51b8152602060048201526005602482015264042c2eae8d60db1b604482015290519081900360640190fd5b826001600160a01b0316634e71d92d6040518163ffffffff1660e01b8152600401600060405180830381600087803b158015610a6557600080fd5b505af1158015610a79573d6000803e3d6000fd5b505050506000826001600160a01b03166370a08231306040518263ffffffff1660e01b815260040180826001600160a01b0316815260200191505060206040518083038186803b158015610acc57600080fd5b505afa158015610ae0573d6000803e3d6000fd5b505050506040513d6020811015610af657600080fd5b5051600554909150610b15906001600160a01b03858116911683611d4d565b9392505050565b6006546000906001600160a01b03163314610b66576040805162461bcd60e51b8152602060048201526005602482015264042c2eae8d60db1b604482015290519081900360640190fd5b600254604080516377fbd30960e11b81526004810185905290516001600160a01b039092169163eff7a6129160248082019260009290919082900301818387803b15801561099557600080fd5b6002546001600160a01b031681565b3360009081526007602052604081205460ff161515600114610c13576040805162461bcd60e51b8152602060048201526005602482015264042c2eae8d60db1b604482015290519081900360640190fd5b6001600160a01b03821660009081526008602052604090205460ff16151560011415610c41575060006109b2565b604080516370a0823160e01b815230600482015290516001600160a01b038416916370a08231916024808301926020929190829003018186803b158015610c8757600080fd5b505afa158015610c9b573d6000803e3d6000fd5b505050506040513d6020811015610cb157600080fd5b505190506109b26001600160a01b0383163383611d4d565b6005546001600160a01b031681565b6005546000906001600160a01b03163314610d22576040805162461bcd60e51b8152602060048201526005602482015264042c2eae8d60db1b604482015290519081900360640190fd5b60035460408051631ae26c6560e31b81526001600160a01b038681166004830152602482018690529151919092169163d713632891604480830192600092919082900301818387803b158015610d7757600080fd5b505af1158015610d8b573d6000803e3d6000fd5b5060019695505050505050565b610da0611bd7565b6001600160a01b0316610db1610f81565b6001600160a01b031614610dfa576040805162461bcd60e51b8152602060048201819052602482015260008051602061217e833981519152604482015290519081900360640190fd5b600080546040516001600160a01b03909116907f8be0079c531659141344cd1fd0a4f28419497f9722a3daafe3b4186f6b6457e0908390a3600080546001600160a01b0319169055565b610e4c611bd7565b6001600160a01b0316610e5d610f81565b6001600160a01b031614610ea6576040805162461bcd60e51b8152602060048201819052602482015260008051602061217e833981519152604482015290519081900360640190fd5b600480546001600160a01b0319166001600160a01b0392909216919091179055565b6006546000906001600160a01b03163314610f12576040805162461bcd60e51b8152602060048201526005602482015264042c2eae8d60db1b604482015290519081900360640190fd5b600260009054906101000a90046001600160a01b03166001600160a01b0316633ccfd60b6040518163ffffffff1660e01b8152600401600060405180830381600087803b158015610f6257600080fd5b505af1158015610f76573d6000803e3d6000fd5b505050506001905090565b6000546001600160a01b031690565b6003546001600160a01b031681565b6005546000906001600160a01b03163314610fe9576040805162461bcd60e51b8152602060048201526005602482015264042c2eae8d60db1b604482015290519081900360640190fd5b6000600460009054906101000a90046001600160a01b03166001600160a01b0316636a627842846040518263ffffffff1660e01b815260040180826001600160a01b03168152602001915050600060405180830381600087803b15801561104f57600080fd5b505af1925050508015611060575060015b61106957611100565b600154604080516370a0823160e01b815230600482015290516001600160a01b03909216916370a0823191602480820192602092909190829003018186803b1580156110b457600080fd5b505afa1580156110c8573d6000803e3d6000fd5b505050506040513d60208110156110de57600080fd5b5051600554600154919250611100916001600160a01b03908116911683611d4d565b92915050565b6000816001600160a01b03166370a08231306040518263ffffffff1660e01b815260040180826001600160a01b0316815260200191505060206040518083038186803b15801561115557600080fd5b505afa158015611169573d6000803e3d6000fd5b505050506040513d602081101561117f57600080fd5b505192915050565b61118f610f81565b6001600160a01b0316336001600160a01b0316146111dc576040805162461bcd60e51b8152602060048201526005602482015264042c2eae8d60db1b604482015290519081900360640190fd5b6005546001600160a01b0316158061126f5750600560009054906101000a90046001600160a01b03166001600160a01b031663bf86d6906040518163ffffffff1660e01b815260040160206040518083038186803b15801561123d57600080fd5b505afa158015611251573d6000803e3d6000fd5b505050506040513d602081101561126757600080fd5b505115156001145b6112b1576040805162461bcd60e51b815260206004820152600e60248201526d3732b2b2399039b43aba3237bbb760911b604482015290519081900360640190fd5b600580546001600160a01b0319166001600160a01b0392909216919091179055565b6006546000906001600160a01b0316331461131d576040805162461bcd60e51b8152602060048201526005602482015264042c2eae8d60db1b604482015290519081900360640190fd5b60025460015461133b916001600160a01b0391821691166000611c35565b600254600154611358916001600160a01b03918216911685611c35565b600254604080516365fc387360e01b8152600481018690526024810185905290516001600160a01b03909216916365fc38739160448082019260009290919082900301818387803b158015610d7757600080fd5b6005546000906060906001600160a01b031633146113f9576040805162461bcd60e51b8152602060048201526005602482015264042c2eae8d60db1b604482015290519081900360640190fd5b60006060876001600160a01b0316878787604051808383808284376040519201945060009350909150508083038185875af1925050503d806000811461145b576040519150601f19603f3d011682016040523d82523d6000602084013e611460565b606091505b5090999098509650505050505050565b611478611bd7565b6001600160a01b0316611489610f81565b6001600160a01b0316146114d2576040805162461bcd60e51b8152602060048201819052602482015260008051602061217e833981519152604482015290519081900360640190fd5b600180546001600160a01b0319166001600160a01b0392909216919091179055565b6006546001600160a01b031681565b61150b611bd7565b6001600160a01b031661151c610f81565b6001600160a01b031614611565576040805162461bcd60e51b8152602060048201819052602482015260008051602061217e833981519152604482015290519081900360640190fd5b600280546001600160a01b0319166001600160a01b0392909216919091179055565b6004546001600160a01b031681565b6001546001600160a01b031681565b6005546000906001600160a01b031633146115ef576040805162461bcd60e51b8152602060048201526005602482015264042c2eae8d60db1b604482015290519081900360640190fd5b6000846001600160a01b03166370a08231306040518263ffffffff1660e01b815260040180826001600160a01b0316815260200191505060206040518083038186803b15801561163e57600080fd5b505afa158015611652573d6000803e3d6000fd5b505050506040513d602081101561166857600080fd5b505190508281101561169657611687846116828584611d9f565b611dfc565b92506116938382611bdb565b92505b6108b86001600160a01b0386163385611d4d565b6005546000906001600160a01b031633146116f4576040805162461bcd60e51b8152602060048201526005602482015264042c2eae8d60db1b604482015290519081900360640190fd5b60408051636f899de560e11b815260048101869052831515602482015260006044820181905291516001600160a01b0386169263df133bca926064808201939182900301818387803b15801561174957600080fd5b505af115801561175d573d6000803e3d6000fd5b506001979650505050505050565b6005546000906001600160a01b031633146117b5576040805162461bcd60e51b8152602060048201526005602482015264042c2eae8d60db1b604482015290519081900360640190fd5b816001600160a01b031663e6f1daf26040518163ffffffff1660e01b8152600401600060405180830381600087803b15801561099557600080fd5b6117f8610f81565b6001600160a01b0316336001600160a01b031614611845576040805162461bcd60e51b8152602060048201526005602482015264042c2eae8d60db1b604482015290519081900360640190fd5b600680546001600160a01b0319166001600160a01b0392909216919091179055565b61186f611bd7565b6001600160a01b0316611880610f81565b6001600160a01b0316146118c9576040805162461bcd60e51b8152602060048201819052602482015260008051602061217e833981519152604482015290519081900360640190fd5b6001600160a01b03811661190e5760405162461bcd60e51b81526004018080602001828103825260268152602001806121326026913960400191505060405180910390fd5b600080546040516001600160a01b03808516939216917f8be0079c531659141344cd1fd0a4f28419497f9722a3daafe3b4186f6b6457e091a3600080546001600160a01b0319166001600160a01b0392909216919091179055565b6005546000906001600160a01b031633146119b3576040805162461bcd60e51b8152602060048201526005602482015264042c2eae8d60db1b604482015290519081900360640190fd5b6001600160a01b03831660009081526008602052604090205460ff166119f7576001600160a01b0383166000908152600860205260409020805460ff191660011790555b6001600160a01b03821660009081526008602052604090205460ff16611a3b576001600160a01b0382166000908152600860205260409020805460ff191660011790555b6000836001600160a01b03166370a08231306040518263ffffffff1660e01b815260040180826001600160a01b0316815260200191505060206040518083038186803b158015611a8a57600080fd5b505afa158015611a9e573d6000803e3d6000fd5b505050506040513d6020811015611ab457600080fd5b505190508015611b4657611ad36001600160a01b038516846000611c35565b611ae76001600160a01b0385168483611c35565b826001600160a01b031663b6b55f25826040518263ffffffff1660e01b815260040180828152602001915050600060405180830381600087803b158015611b2d57600080fd5b505af1158015611b41573d6000803e3d6000fd5b505050505b5060019392505050565b6005546000906001600160a01b03163314611b9a576040805162461bcd60e51b8152602060048201526005602482015264042c2eae8d60db1b604482015290519081900360640190fd5b6001600160a01b03831615611bce576001600160a01b0383166000908152600760205260409020805460ff19168315151790555b50600192915050565b3390565b600082820183811015610b15576040805162461bcd60e51b815260206004820152601b60248201527f536166654d6174683a206164646974696f6e206f766572666c6f770000000000604482015290519081900360640190fd5b801580611cbb575060408051636eb1769f60e11b81523060048201526001600160a01b03848116602483015291519185169163dd62ed3e91604480820192602092909190829003018186803b158015611c8d57600080fd5b505afa158015611ca1573d6000803e3d6000fd5b505050506040513d6020811015611cb757600080fd5b5051155b611cf65760405162461bcd60e51b81526004018080602001828103825260368152602001806121c86036913960400191505060405180910390fd5b604080516001600160a01b038416602482015260448082018490528251808303909101815260649091019091526020810180516001600160e01b031663095ea7b360e01b179052611d48908490611e63565b505050565b604080516001600160a01b038416602482015260448082018490528251808303909101815260649091019091526020810180516001600160e01b031663a9059cbb60e01b179052611d48908490611e63565b600082821115611df6576040805162461bcd60e51b815260206004820152601e60248201527f536166654d6174683a207375627472616374696f6e206f766572666c6f770000604482015290519081900360640190fd5b50900390565b6000826001600160a01b0316632e1a7d4d836040518263ffffffff1660e01b815260040180828152602001915050600060405180830381600087803b158015611e4457600080fd5b505af1158015611e58573d6000803e3d6000fd5b509395945050505050565b6060611eb8826040518060400160405280602081526020017f5361666545524332303a206c6f772d6c6576656c2063616c6c206661696c6564815250856001600160a01b0316611f149092919063ffffffff16565b805190915015611d4857808060200190516020811015611ed757600080fd5b5051611d485760405162461bcd60e51b815260040180806020018281038252602a81526020018061219e602a913960400191505060405180910390fd5b6060611f238484600085611f2b565b949350505050565b606082471015611f6c5760405162461bcd60e51b81526004018080602001828103825260268152602001806121586026913960400191505060405180910390fd5b611f7585612087565b611fc6576040805162461bcd60e51b815260206004820152601d60248201527f416464726573733a2063616c6c20746f206e6f6e2d636f6e7472616374000000604482015290519081900360640190fd5b60006060866001600160a01b031685876040518082805190602001908083835b602083106120055780518252601f199092019160209182019101611fe6565b6001836020036101000a03801982511681845116808217855250505050505090500191505060006040518083038185875af1925050503d8060008114612067576040519150601f19603f3d011682016040523d82523d6000602084013e61206c565b606091505b509150915061207c82828661208d565b979650505050505050565b3b151590565b6060831561209c575081610b15565b8251156120ac5782518084602001fd5b8160405162461bcd60e51b81526004018080602001828103825283818151815260200191508051906020019080838360005b838110156120f65781810151838201526020016120de565b50505050905090810190601f1680156121235780820380516001836020036101000a031916815260200191505b509250505060405180910390fdfe4f776e61626c653a206e6577206f776e657220697320746865207a65726f2061646472657373416464726573733a20696e73756666696369656e742062616c616e636520666f722063616c6c4f776e61626c653a2063616c6c6572206973206e6f7420746865206f776e65725361666545524332303a204552433230206f7065726174696f6e20646964206e6f7420737563636565645361666545524332303a20617070726f76652066726f6d206e6f6e2d7a65726f20746f206e6f6e2d7a65726f20616c6c6f77616e6365a2646970667358221220e5667629d623141ba8e5d052126fcdabdb63d7d99a4009663e757da7b9a024b664736f6c634300060c0033",
  "immutableReferences": {},
  "source": "// SPDX-License-Identifier: MIT\npragma solidity 0.6.12;\n\nimport \"./Interfaces.sol\";\nimport \"@openzeppelin/contracts/math/SafeMath.sol\";\nimport \"@openzeppelin/contracts/token/ERC20/IERC20.sol\";\nimport \"@openzeppelin/contracts/utils/Address.sol\";\nimport \"@openzeppelin/contracts/token/ERC20/SafeERC20.sol\";\nimport \"@openzeppelin/contracts/access/Ownable.sol\";\n\ncontract KaglaVoterProxy is Ownable {\n  using SafeERC20 for IERC20;\n  using Address for address;\n  using SafeMath for uint256;\n\n  address public kgl; // IERC20 / KGL Token\n  address public votingEscrow; // for Specialize DEX\n  address public gaugeController; // IVoting / GaugeController\n  address public tokenMinter; // IMinter / Minter\n\n  address public operator;\n  address public depositor;\n\n  mapping(address => bool) private stashPool;\n  mapping(address => bool) private protectedTokens;\n\n  constructor(\n    address _kgl,\n    address _votingEscrow,\n    address _gaugeController,\n    address _tokenMinter\n  ) public {\n    kgl = _kgl;\n    votingEscrow = _votingEscrow;\n    gaugeController = _gaugeController;\n    tokenMinter = _tokenMinter;\n  }\n\n  function getName() external pure returns (string memory) {\n    return \"KaglaVoterProxy\";\n  }\n\n  function setKgl(address _kgl) external onlyOwner {\n    kgl = _kgl;\n  }\n\n  function setVotingEscrow(address _votingEscrow) external onlyOwner {\n    votingEscrow = _votingEscrow;\n  }\n\n  function setGaugeController(address _gaugeController) external onlyOwner {\n    gaugeController = _gaugeController;\n  }\n\n  function setTokenMinter(address _tokenMinter) external onlyOwner {\n    tokenMinter = _tokenMinter;\n  }\n\n  function setOperator(address _operator) external {\n    require(msg.sender == owner(), \"!auth\");\n    require(operator == address(0) || IDeposit(operator).isShutdown() == true, \"needs shutdown\");\n\n    operator = _operator;\n  }\n\n  function setDepositor(address _depositor) external {\n    require(msg.sender == owner(), \"!auth\");\n\n    depositor = _depositor;\n  }\n\n  function setStashAccess(address _stash, bool _status) external returns (bool) {\n    require(msg.sender == operator, \"!auth\");\n    if (_stash != address(0)) {\n      stashPool[_stash] = _status;\n    }\n    return true;\n  }\n\n  function deposit(address _token, address _gauge) external returns (bool) {\n    require(msg.sender == operator, \"!auth\");\n    if (protectedTokens[_token] == false) {\n      protectedTokens[_token] = true;\n    }\n    if (protectedTokens[_gauge] == false) {\n      protectedTokens[_gauge] = true;\n    }\n    uint256 balance = IERC20(_token).balanceOf(address(this));\n    if (balance > 0) {\n      IERC20(_token).safeApprove(_gauge, 0);\n      IERC20(_token).safeApprove(_gauge, balance);\n      IKaglaGauge(_gauge).deposit(balance);\n    }\n    return true;\n  }\n\n  //stash only function for pulling extra incentive reward tokens out\n  function withdraw(IERC20 _asset) external returns (uint256 balance) {\n    require(stashPool[msg.sender] == true, \"!auth\");\n\n    //check protection\n    if (protectedTokens[address(_asset)] == true) {\n      return 0;\n    }\n\n    balance = _asset.balanceOf(address(this));\n    _asset.safeTransfer(msg.sender, balance);\n    return balance;\n  }\n\n  // Withdraw partial funds\n  function withdraw(\n    address _token,\n    address _gauge,\n    uint256 _amount\n  ) public returns (bool) {\n    require(msg.sender == operator, \"!auth\");\n    uint256 _balance = IERC20(_token).balanceOf(address(this));\n    if (_balance < _amount) {\n      _amount = _withdrawSome(_gauge, _amount.sub(_balance));\n      _amount = _amount.add(_balance);\n    }\n    IERC20(_token).safeTransfer(msg.sender, _amount);\n    return true;\n  }\n\n  function withdrawAll(address _token, address _gauge) external returns (bool) {\n    require(msg.sender == operator, \"!auth\");\n    uint256 amount = balanceOfPool(_gauge).add(IERC20(_token).balanceOf(address(this)));\n    withdraw(_token, _gauge, amount);\n    return true;\n  }\n\n  function _withdrawSome(address _gauge, uint256 _amount) internal returns (uint256) {\n    IKaglaGauge(_gauge).withdraw(_amount);\n    return _amount;\n  }\n\n  function createLock(uint256 _value, uint256 _unlockTime) external returns (bool) {\n    require(msg.sender == depositor, \"!auth\");\n    IERC20(kgl).safeApprove(votingEscrow, 0);\n    IERC20(kgl).safeApprove(votingEscrow, _value);\n    IKaglaVoteEscrow(votingEscrow).create_lock(_value, _unlockTime);\n    return true;\n  }\n\n  function increaseAmount(uint256 _value) external returns (bool) {\n    require(msg.sender == depositor, \"!auth\");\n    IERC20(kgl).safeApprove(votingEscrow, 0);\n    IERC20(kgl).safeApprove(votingEscrow, _value);\n    IKaglaVoteEscrow(votingEscrow).increase_amount(_value);\n    return true;\n  }\n\n  function increaseTime(uint256 _value) external returns (bool) {\n    require(msg.sender == depositor, \"!auth\");\n    IKaglaVoteEscrow(votingEscrow).increase_unlock_time(_value);\n    return true;\n  }\n\n  function release() external returns (bool) {\n    require(msg.sender == depositor, \"!auth\");\n    IKaglaVoteEscrow(votingEscrow).withdraw();\n    return true;\n  }\n\n  function vote(\n    uint256 _voteId,\n    address _votingAddress,\n    bool _support\n  ) external returns (bool) {\n    require(msg.sender == operator, \"!auth\");\n    IVoting(_votingAddress).vote(_voteId, _support, false);\n    return true;\n  }\n\n  function voteGaugeWeight(address _gauge, uint256 _weight) external returns (bool) {\n    require(msg.sender == operator, \"!auth\");\n\n    //vote\n    IVoting(gaugeController).vote_for_gauge_weights(_gauge, _weight);\n    return true;\n  }\n\n  function claimKgl(address _gauge) external returns (uint256) {\n    require(msg.sender == operator, \"!auth\");\n\n    uint256 _balance = 0;\n    try IMinter(tokenMinter).mint(_gauge) {\n      _balance = IERC20(kgl).balanceOf(address(this));\n      IERC20(kgl).safeTransfer(operator, _balance);\n    } catch {}\n\n    return _balance;\n  }\n\n  function claimRewards(address _gauge) external returns (bool) {\n    require(msg.sender == operator, \"!auth\");\n    IKaglaGauge(_gauge).claim_rewards();\n    return true;\n  }\n\n  function claimFees(address _distroContract, address _token) external returns (uint256) {\n    require(msg.sender == operator, \"!auth\");\n    IFeeDistro(_distroContract).claim();\n    uint256 _balance = IERC20(_token).balanceOf(address(this));\n    IERC20(_token).safeTransfer(operator, _balance);\n    return _balance;\n  }\n\n  function balanceOfPool(address _gauge) public view returns (uint256) {\n    return IKaglaGauge(_gauge).balanceOf(address(this));\n  }\n\n  function execute(\n    address _to,\n    uint256 _value,\n    bytes calldata _data\n  ) external returns (bool, bytes memory) {\n    require(msg.sender == operator, \"!auth\");\n\n    (bool success, bytes memory result) = _to.call{ value: _value }(_data);\n\n    return (success, result);\n  }\n}\n",
  "sourcePath": "/Users/linnefromice/repository/github.com/muuu-finance/muuu-protocol/contracts/contracts/KaglaVoterProxy.sol",
  "compiler": {
    "name": "solc",
    "version": "0.6.12+commit.27d51765.Emscripten.clang"
  },
  "schemaVersion": "3.4.6",
  "updatedAt": "2022-03-28T04:29:48.033Z",
  "networkType": "ethereum",
  "devdoc": {
    "kind": "dev",
    "methods": {
      "owner()": {
        "details": "Returns the address of the current owner."
      },
      "renounceOwnership()": {
        "details": "Leaves the contract without owner. It will not be possible to call `onlyOwner` functions anymore. Can only be called by the current owner. NOTE: Renouncing ownership will leave the contract without an owner, thereby removing any functionality that is only available to the owner."
      },
      "transferOwnership(address)": {
        "details": "Transfers ownership of the contract to a new account (`newOwner`). Can only be called by the current owner."
      }
    },
    "version": 1
  },
  "userdoc": {
    "kind": "user",
    "methods": {},
    "version": 1
  }
}