{
  "contractName": "LockerAdmin",
  "abi": [
    {
      "inputs": [],
      "stateMutability": "nonpayable",
      "type": "constructor"
    },
    {
      "inputs": [],
      "name": "locker",
      "outputs": [
        {
          "internalType": "contract ILockedMuuu",
          "name": "",
          "type": "address"
        }
      ],
      "stateMutability": "view",
      "type": "function"
    },
    {
      "inputs": [],
      "name": "operator",
      "outputs": [
        {
          "internalType": "address",
          "name": "",
          "type": "address"
        }
      ],
      "stateMutability": "view",
      "type": "function"
    },
    {
      "inputs": [
        {
          "internalType": "address",
          "name": "_operator",
          "type": "address"
        }
      ],
      "name": "setOperator",
      "outputs": [],
      "stateMutability": "nonpayable",
      "type": "function"
    },
    {
      "inputs": [
        {
          "internalType": "address",
          "name": "_rewardsToken",
          "type": "address"
        },
        {
          "internalType": "address",
          "name": "_distributor",
          "type": "address"
        },
        {
          "internalType": "bool",
          "name": "_useBoost",
          "type": "bool"
        }
      ],
      "name": "addReward",
      "outputs": [],
      "stateMutability": "nonpayable",
      "type": "function"
    },
    {
      "inputs": [
        {
          "internalType": "address",
          "name": "_rewardsToken",
          "type": "address"
        },
        {
          "internalType": "address",
          "name": "_distributor",
          "type": "address"
        },
        {
          "internalType": "bool",
          "name": "_approved",
          "type": "bool"
        }
      ],
      "name": "approveRewardDistributor",
      "outputs": [],
      "stateMutability": "nonpayable",
      "type": "function"
    },
    {
      "inputs": [
        {
          "internalType": "uint256",
          "name": "_minimum",
          "type": "uint256"
        },
        {
          "internalType": "uint256",
          "name": "_maximum",
          "type": "uint256"
        }
      ],
      "name": "setStakeLimits",
      "outputs": [],
      "stateMutability": "nonpayable",
      "type": "function"
    },
    {
      "inputs": [
        {
          "internalType": "uint256",
          "name": "_max",
          "type": "uint256"
        },
        {
          "internalType": "uint256",
          "name": "_rate",
          "type": "uint256"
        },
        {
          "internalType": "address",
          "name": "_receivingAddress",
          "type": "address"
        }
      ],
      "name": "setBoost",
      "outputs": [],
      "stateMutability": "nonpayable",
      "type": "function"
    },
    {
      "inputs": [
        {
          "internalType": "uint256",
          "name": "_rate",
          "type": "uint256"
        },
        {
          "internalType": "uint256",
          "name": "_delay",
          "type": "uint256"
        }
      ],
      "name": "setKickIncentive",
      "outputs": [],
      "stateMutability": "nonpayable",
      "type": "function"
    },
    {
      "inputs": [],
      "name": "shutdown",
      "outputs": [],
      "stateMutability": "nonpayable",
      "type": "function"
    },
    {
      "inputs": [
        {
          "internalType": "address",
          "name": "_tokenAddress",
          "type": "address"
        },
        {
          "internalType": "uint256",
          "name": "_tokenAmount",
          "type": "uint256"
        }
      ],
      "name": "recoverERC20",
      "outputs": [],
      "stateMutability": "nonpayable",
      "type": "function"
    },
    {
      "inputs": [
        {
          "internalType": "address",
          "name": "_tokenAddress",
          "type": "address"
        },
        {
          "internalType": "uint256",
          "name": "_tokenAmount",
          "type": "uint256"
        }
      ],
      "name": "transferToken",
      "outputs": [],
      "stateMutability": "nonpayable",
      "type": "function"
    }
  ],
  "bytecode": "0x608060405234801561001057600080fd5b50600080546001600160a01b03191673a3c5a1e09150b75ff251c1a7815a07182c3de2fb1790556109b6806100466000396000f3fe608060405234801561001057600080fd5b50600436106100a95760003560e01c80638c9bd1b5116100715780638c9bd1b514610187578063a81653c9146101aa578063b3ab15fb146101dc578063d3c45c7614610202578063d7b96d4e1461023a578063fc0e74d114610242576100a9565b80631072cbea146100ae578063570ca735146100dc57806363f1c8e2146101005780636724c910146101235780638980f11f1461015b575b600080fd5b6100da600480360360408110156100c457600080fd5b506001600160a01b03813516906020013561024a565b005b6100e4610318565b604080516001600160a01b039092168252519081900360200190f35b6100da6004803603604081101561011657600080fd5b5080359060200135610327565b6100da6004803603606081101561013957600080fd5b506001600160a01b0381358116916020810135909116906040013515156103e4565b6100da6004803603604081101561017157600080fd5b506001600160a01b0381351690602001356104b3565b6100da6004803603604081101561019d57600080fd5b5080359060200135610582565b6100da600480360360608110156101c057600080fd5b50803590602081013590604001356001600160a01b0316610664565b6100da600480360360208110156101f257600080fd5b50356001600160a01b03166107a3565b6100da6004803603606081101561021857600080fd5b506001600160a01b03813581169160208101359091169060400135151561080c565b6100e46108be565b6100da6108d6565b6000546001600160a01b03163314610291576040805162461bcd60e51b8152602060048201526005602482015264042c2eae8d60db1b604482015290519081900360640190fd5b600080546040805163a9059cbb60e01b81526001600160a01b0392831660048201526024810185905290519185169263a9059cbb926044808401936020939083900390910190829087803b1580156102e857600080fd5b505af11580156102fc573d6000803e3d6000fd5b505050506040513d602081101561031257600080fd5b50505050565b6000546001600160a01b031681565b6000546001600160a01b0316331461036e576040805162461bcd60e51b8152602060048201526005602482015264042c2eae8d60db1b604482015290519081900360640190fd5b604080516331f8e47160e11b81526004810184905260248101839052905173d18140b4b819b895a3dba5442f959fa44994af50916363f1c8e291604480830192600092919082900301818387803b1580156103c857600080fd5b505af11580156103dc573d6000803e3d6000fd5b505050505050565b6000546001600160a01b0316331461042b576040805162461bcd60e51b8152602060048201526005602482015264042c2eae8d60db1b604482015290519081900360640190fd5b604080516306724c9160e41b81526001600160a01b038581166004830152841660248201528215156044820152905173d18140b4b819b895a3dba5442f959fa44994af5091636724c91091606480830192600092919082900301818387803b15801561049657600080fd5b505af11580156104aa573d6000803e3d6000fd5b50505050505050565b6000546001600160a01b031633146104fa576040805162461bcd60e51b8152602060048201526005602482015264042c2eae8d60db1b604482015290519081900360640190fd5b60408051638980f11f60e01b81526001600160a01b038416600482015260248101839052905173d18140b4b819b895a3dba5442f959fa44994af5091638980f11f91604480830192600092919082900301818387803b15801561055c57600080fd5b505af1158015610570573d6000803e3d6000fd5b5050505061057e828261024a565b5050565b6000546001600160a01b031633146105c9576040805162461bcd60e51b8152602060048201526005602482015264042c2eae8d60db1b604482015290519081900360640190fd5b8082111561060a576040805162461bcd60e51b81526020600482015260096024820152686d696e2072616e676560b81b604482015290519081900360640190fd5b60408051638c9bd1b560e01b81526004810184905260248101839052905173d18140b4b819b895a3dba5442f959fa44994af5091638c9bd1b591604480830192600092919082900301818387803b1580156103c857600080fd5b6000546001600160a01b031633146106ab576040805162461bcd60e51b8152602060048201526005602482015264042c2eae8d60db1b604482015290519081900360640190fd5b6105dc83106106f4576040805162461bcd60e51b815260206004820152601060248201526f1bdd995c881b585e081c185e5b595b9d60821b604482015290519081900360640190fd5b617530821061073a576040805162461bcd60e51b815260206004820152600d60248201526c6f766572206d6178207261746560981b604482015290519081900360640190fd5b6040805163a81653c960e01b815260048101859052602481018490526001600160a01b0383166044820152905173d18140b4b819b895a3dba5442f959fa44994af509163a81653c991606480830192600092919082900301818387803b15801561049657600080fd5b6000546001600160a01b031633146107ea576040805162461bcd60e51b8152602060048201526005602482015264042c2eae8d60db1b604482015290519081900360640190fd5b600080546001600160a01b0319166001600160a01b0392909216919091179055565b6000546001600160a01b03163314610853576040805162461bcd60e51b8152602060048201526005602482015264042c2eae8d60db1b604482015290519081900360640190fd5b604080516369e22e3b60e11b81526001600160a01b038581166004830152841660248201528215156044820152905173d18140b4b819b895a3dba5442f959fa44994af509163d3c45c7691606480830192600092919082900301818387803b15801561049657600080fd5b73d18140b4b819b895a3dba5442f959fa44994af5081565b6000546001600160a01b0316331461091d576040805162461bcd60e51b8152602060048201526005602482015264042c2eae8d60db1b604482015290519081900360640190fd5b73d18140b4b819b895a3dba5442f959fa44994af506001600160a01b031663fc0e74d16040518163ffffffff1660e01b8152600401600060405180830381600087803b15801561096c57600080fd5b505af1158015610312573d6000803e3d6000fdfea26469706673582212203eef60b40130f765754c832f61a3c654142ae1e07ac6579a504bb98d7c594e0564736f6c634300060c0033",
  "immutableReferences": {},
  "source": "// SPDX-License-Identifier: MIT\npragma solidity 0.6.12;\n\nimport \"./interfaces/ILockedMuuu.sol\";\nimport \"@openzeppelin/contracts/token/ERC20/IERC20.sol\";\n\n/*\nAdmin proxy for locker contract to fix require checks and seal off staking proxy changes\n*/\ncontract LockerAdmin {\n  ILockedMuuu public constant locker = ILockedMuuu(0xD18140b4B819b895A3dba5442F959fA44994AF50);\n  address public operator;\n\n  constructor() public {\n    operator = address(0xa3C5A1e09150B75ff251c1a7815A07182c3de2FB);\n  }\n\n  modifier onlyOwner() {\n    require(operator == msg.sender, \"!auth\");\n    _;\n  }\n\n  function setOperator(address _operator) external onlyOwner {\n    operator = _operator;\n  }\n\n  function addReward(\n    address _rewardsToken,\n    address _distributor,\n    bool _useBoost\n  ) external onlyOwner {\n    locker.addReward(_rewardsToken, _distributor, _useBoost);\n  }\n\n  function approveRewardDistributor(\n    address _rewardsToken,\n    address _distributor,\n    bool _approved\n  ) external onlyOwner {\n    locker.approveRewardDistributor(_rewardsToken, _distributor, _approved);\n  }\n\n  //seal setStakingContract off, make it immutable\n  // function setStakingContract(address _staking) external onlyOwner{\n  //     locker.setStakingContract(_staking);\n  // }\n\n  function setStakeLimits(uint256 _minimum, uint256 _maximum) external onlyOwner {\n    require(_minimum <= _maximum, \"min range\");\n    locker.setStakeLimits(_minimum, _maximum);\n  }\n\n  function setBoost(\n    uint256 _max,\n    uint256 _rate,\n    address _receivingAddress\n  ) external onlyOwner {\n    require(_max < 1500, \"over max payment\"); //max 15%\n    require(_rate < 30000, \"over max rate\"); //max 3x\n    locker.setBoost(_max, _rate, _receivingAddress);\n  }\n\n  function setKickIncentive(uint256 _rate, uint256 _delay) external onlyOwner {\n    locker.setKickIncentive(_rate, _delay);\n  }\n\n  function shutdown() external onlyOwner {\n    locker.shutdown();\n  }\n\n  function recoverERC20(address _tokenAddress, uint256 _tokenAmount) external onlyOwner {\n    locker.recoverERC20(_tokenAddress, _tokenAmount);\n    transferToken(_tokenAddress, _tokenAmount);\n  }\n\n  function transferToken(address _tokenAddress, uint256 _tokenAmount) public onlyOwner {\n    IERC20(_tokenAddress).transfer(operator, _tokenAmount);\n  }\n}\n",
  "sourcePath": "/Users/shuto/Documents/bridges-dev/muuu/protocol/contracts/contracts/LockerAdmin.sol",
  "compiler": {
    "name": "solc",
    "version": "0.6.12+commit.27d51765.Emscripten.clang"
  },
  "schemaVersion": "3.4.6",
  "updatedAt": "2022-04-04T03:30:07.180Z",
  "devdoc": {
    "kind": "dev",
    "methods": {},
    "version": 1
  },
  "userdoc": {
    "kind": "user",
    "methods": {},
    "version": 1
  }
}