{
  "contractName": "MerkleAirdrop",
  "abi": [
    {
      "inputs": [
        {
          "internalType": "address",
          "name": "_owner",
          "type": "address"
        }
      ],
      "stateMutability": "nonpayable",
      "type": "constructor"
    },
    {
      "anonymous": false,
      "inputs": [
        {
          "indexed": false,
          "internalType": "address",
          "name": "addr",
          "type": "address"
        },
        {
          "indexed": false,
          "internalType": "uint256",
          "name": "num",
          "type": "uint256"
        }
      ],
      "name": "Claim",
      "type": "event"
    },
    {
      "inputs": [
        {
          "internalType": "address",
          "name": "",
          "type": "address"
        }
      ],
      "name": "hasClaimed",
      "outputs": [
        {
          "internalType": "bool",
          "name": "",
          "type": "bool"
        }
      ],
      "stateMutability": "view",
      "type": "function"
    },
    {
      "inputs": [],
      "name": "merkleRoot",
      "outputs": [
        {
          "internalType": "bytes32",
          "name": "",
          "type": "bytes32"
        }
      ],
      "stateMutability": "view",
      "type": "function"
    },
    {
      "inputs": [],
      "name": "mintToken",
      "outputs": [
        {
          "internalType": "address",
          "name": "",
          "type": "address"
        }
      ],
      "stateMutability": "view",
      "type": "function"
    },
    {
      "inputs": [],
      "name": "owner",
      "outputs": [
        {
          "internalType": "address",
          "name": "",
          "type": "address"
        }
      ],
      "stateMutability": "view",
      "type": "function"
    },
    {
      "inputs": [],
      "name": "rewardContract",
      "outputs": [
        {
          "internalType": "address",
          "name": "",
          "type": "address"
        }
      ],
      "stateMutability": "view",
      "type": "function"
    },
    {
      "inputs": [],
      "name": "rewardToken",
      "outputs": [
        {
          "internalType": "address",
          "name": "",
          "type": "address"
        }
      ],
      "stateMutability": "view",
      "type": "function"
    },
    {
      "inputs": [
        {
          "internalType": "address",
          "name": "_owner",
          "type": "address"
        }
      ],
      "name": "setOwner",
      "outputs": [],
      "stateMutability": "nonpayable",
      "type": "function"
    },
    {
      "inputs": [
        {
          "internalType": "address",
          "name": "_rewardContract",
          "type": "address"
        }
      ],
      "name": "setRewardContract",
      "outputs": [],
      "stateMutability": "nonpayable",
      "type": "function"
    },
    {
      "inputs": [
        {
          "internalType": "address",
          "name": "_rewardToken",
          "type": "address"
        }
      ],
      "name": "setRewardToken",
      "outputs": [],
      "stateMutability": "nonpayable",
      "type": "function"
    },
    {
      "inputs": [
        {
          "internalType": "address",
          "name": "_mintToken",
          "type": "address"
        }
      ],
      "name": "setMintToken",
      "outputs": [],
      "stateMutability": "nonpayable",
      "type": "function"
    },
    {
      "inputs": [
        {
          "internalType": "bytes32",
          "name": "_merkleRoot",
          "type": "bytes32"
        }
      ],
      "name": "setRoot",
      "outputs": [],
      "stateMutability": "nonpayable",
      "type": "function"
    },
    {
      "inputs": [
        {
          "internalType": "bytes32[]",
          "name": "_proof",
          "type": "bytes32[]"
        },
        {
          "internalType": "address",
          "name": "_who",
          "type": "address"
        },
        {
          "internalType": "uint256",
          "name": "_amount",
          "type": "uint256"
        }
      ],
      "name": "claim",
      "outputs": [
        {
          "internalType": "bool",
          "name": "",
          "type": "bool"
        }
      ],
      "stateMutability": "nonpayable",
      "type": "function"
    }
  ],
  "bytecode": "0x608060405234801561001057600080fd5b50604051610fa8380380610fa88339818101604052602081101561003357600080fd5b5051600080546001600160a01b039092166001600160a01b0319909216919091179055610f43806100656000396000f3fe608060405234801561001057600080fd5b50600436106100b45760003560e01c806373b2e80e1161007157806373b2e80e146101735780638aee8127146101ad5780638da5cb5b146101d3578063ca21b177146101db578063dab5f3401461025a578063f7c618c114610277576100b4565b806313af4035146100b95780632004ffd9146100e15780632eb4a7ab146101055780634a13e91d1461011f57806351508f0a146101455780636ea69d621461016b575b600080fd5b6100df600480360360208110156100cf57600080fd5b50356001600160a01b031661027f565b005b6100e96102b8565b604080516001600160a01b039092168252519081900360200190f35b61010d6102c7565b60408051918252519081900360200190f35b6100df6004803603602081101561013557600080fd5b50356001600160a01b03166102cd565b6100df6004803603602081101561015b57600080fd5b50356001600160a01b0316610306565b6100e961033f565b6101996004803603602081101561018957600080fd5b50356001600160a01b031661034e565b604080519115158252519081900360200190f35b6100df600480360360208110156101c357600080fd5b50356001600160a01b0316610363565b6100e961039c565b610199600480360360608110156101f157600080fd5b81019060208101813564010000000081111561020c57600080fd5b82018360208201111561021e57600080fd5b8035906020019184602083028401116401000000008311171561024057600080fd5b91935091506001600160a01b0381351690602001356103ab565b6100df6004803603602081101561027057600080fd5b503561071c565b6100e9610738565b6000546001600160a01b0316331461029657600080fd5b600080546001600160a01b0319166001600160a01b0392909216919091179055565b6004546001600160a01b031681565b60015481565b6000546001600160a01b031633146102e457600080fd5b600480546001600160a01b0319166001600160a01b0392909216919091179055565b6000546001600160a01b0316331461031d57600080fd5b600280546001600160a01b0319166001600160a01b0392909216919091179055565b6002546001600160a01b031681565b60056020526000908152604090205460ff1681565b6000546001600160a01b0316331461037a57600080fd5b600380546001600160a01b0319166001600160a01b0392909216919091179055565b6000546001600160a01b031681565b6001600160a01b03821660009081526005602052604081205460ff16151560011415610410576040805162461bcd60e51b815260206004820152600f60248201526e185b1c9958591e4818db185a5b5959608a1b604482015290519081900360640190fd5b6000821161041d57600080fd5b610431858561042c8686610747565b6108e1565b610477576040805162461bcd60e51b81526020600482015260126024820152716661696c65642070726f6f6620636865636b60701b604482015290519081900360640190fd5b6001600160a01b038084166000908152600560205260409020805460ff1916600117905560035416156104c0576003546104bb906001600160a01b0316848461098f565b6106cd565b6004546001600160a01b0316156105475760048054604080516340c10f1960e01b81526001600160a01b038781169482019490945260248101869052905192909116916340c10f199160448082019260009290919082900301818387803b15801561052a57600080fd5b505af115801561053e573d6000803e3d6000fd5b505050506106cd565b60408051600180825281830190925260609160208083019080368337019050509050838160008151811061057757fe5b6001600160a01b03929092166020928302919091019091015260408051600180825281830190925260609181602001602082028036833701905050905083816000815181106105c257fe5b6020908102919091018101919091526002546040805163b1e56f6b60e01b8152600481019182528551604482015285516001600160a01b039093169363b1e56f6b938793879390928392602483019260640191878101910280838360005b83811015610638578181015183820152602001610620565b50505050905001838103825284818151815260200191508051906020019060200280838360005b8381101561067757818101518382015260200161065f565b50505050905001945050505050602060405180830381600087803b15801561069e57600080fd5b505af11580156106b2573d6000803e3d6000fd5b505050506040513d60208110156106c857600080fd5b505050505b604080516001600160a01b03851681526020810184905281517f47cee97cb7acd717b3c0aa1435d004cd5b3c8c57d70dbceb4e4458bbd60e39d4929181900390910190a1506001949350505050565b6000546001600160a01b0316331461073357600080fd5b600155565b6003546001600160a01b031681565b6040805180820182526002815261060f60f31b602080830191909152825180840190935260018352600160fd1b9083015260009181610785866109e6565b8261078f87610adc565b6040516020018085805190602001908083835b602083106107c15780518252601f1990920191602091820191016107a2565b51815160209384036101000a600019018019909216911617905287519190930192870191508083835b602083106108095780518252601f1990920191602091820191016107ea565b51815160209384036101000a600019018019909216911617905286519190930192860191508083835b602083106108515780518252601f199092019160209182019101610832565b51815160209384036101000a600019018019909216911617905285519190930192850191508083835b602083106108995780518252601f19909201916020918201910161087a565b6001836020036101000a038019825116818451168082178552505050505050905001945050505050604051602081830303815290604052805190602001209250505092915050565b60008082815b6000198601811161097f578686828181106108fe57fe5b905060200201359250828210156109455781836040516020018083815260200182815260200192505050604051602081830303815290604052805190602001209150610977565b828260405160200180838152602001828152602001925050506040516020818303038152906040528051906020012091505b6001016108e7565b50600154149150505b9392505050565b604080516001600160a01b038416602482015260448082018490528251808303909101815260649091019091526020810180516001600160e01b031663a9059cbb60e01b1790526109e1908490610bbe565b505050565b604080516028808252606082810190935282919060208201818036833701905050905060005b6014811015610ad35760008160130360080260020a856001600160a01b031681610a3257fe5b0460f81b9050600060108260f81c60ff1681610a4a57fe5b0460f81b905060008160f81c6010028360f81c0360f81b9050610a6c82610c6f565b858560020281518110610a7b57fe5b60200101906001600160f81b031916908160001a905350610a9b81610c6f565b858560020260010181518110610aad57fe5b60200101906001600160f81b031916908160001a9053505060019092019150610a0c9050565b5090505b919050565b606081610b0157506040805180820190915260018152600360fc1b6020820152610ad7565b8160005b8115610b1957600101600a82049150610b05565b60608167ffffffffffffffff81118015610b3257600080fd5b506040519080825280601f01601f191660200182016040528015610b5d576020820181803683370190505b509050815b8515610bb557600019016000600a8704600a028703603001905060008160f81b905080848481518110610b9157fe5b60200101906001600160f81b031916908160001a905350600a880497505050610b62565b50949350505050565b6060610c13826040518060400160405280602081526020017f5361666545524332303a206c6f772d6c6576656c2063616c6c206661696c6564815250856001600160a01b0316610ca09092919063ffffffff16565b8051909150156109e157808060200190516020811015610c3257600080fd5b50516109e15760405162461bcd60e51b815260040180806020018281038252602a815260200180610ee4602a913960400191505060405180910390fd5b6000600a60f883901c1015610c8f578160f81c60300160f81b9050610ad7565b8160f81c60570160f81b9050610ad7565b6060610caf8484600085610cb7565b949350505050565b606082471015610cf85760405162461bcd60e51b8152600401808060200182810382526026815260200180610ebe6026913960400191505060405180910390fd5b610d0185610e13565b610d52576040805162461bcd60e51b815260206004820152601d60248201527f416464726573733a2063616c6c20746f206e6f6e2d636f6e7472616374000000604482015290519081900360640190fd5b60006060866001600160a01b031685876040518082805190602001908083835b60208310610d915780518252601f199092019160209182019101610d72565b6001836020036101000a03801982511681845116808217855250505050505090500191505060006040518083038185875af1925050503d8060008114610df3576040519150601f19603f3d011682016040523d82523d6000602084013e610df8565b606091505b5091509150610e08828286610e19565b979650505050505050565b3b151590565b60608315610e28575081610988565b825115610e385782518084602001fd5b8160405162461bcd60e51b81526004018080602001828103825283818151815260200191508051906020019080838360005b83811015610e82578181015183820152602001610e6a565b50505050905090810190601f168015610eaf5780820380516001836020036101000a031916815260200191505b509250505060405180910390fdfe416464726573733a20696e73756666696369656e742062616c616e636520666f722063616c6c5361666545524332303a204552433230206f7065726174696f6e20646964206e6f742073756363656564a2646970667358221220d6defd1a787cf04835b4578eb7f1cb382a714528867d757343428486b3c59f5b64736f6c634300060c0033",
  "immutableReferences": {},
  "source": "// SPDX-License-Identifier: APACHE\n/**\n * Copyright (C) 2018  Smartz, LLC\n *\n * Licensed under the Apache License, Version 2.0 (the \"License\").\n * You may not use this file except in compliance with the License.\n *\n * Unless required by applicable law or agreed to in writing, software\n * distributed under the License is distributed on an \"AS IS\" BASIS,\n * WITHOUT WARRANTIES OR CONDITIONS OF ANY KIND (express or implied).\n */\n/*\nChanges by Muuu\n- update to solidity 0.6.12\n- allow different types of claiming(transfer, mint, generic interaction with seperate contract)\n*/\n\npragma solidity 0.6.12;\n\nimport \"./Interfaces.sol\";\nimport \"@openzeppelin/contracts/token/ERC20/IERC20.sol\";\nimport \"@openzeppelin/contracts/utils/Address.sol\";\nimport \"@openzeppelin/contracts/token/ERC20/SafeERC20.sol\";\n\ncontract MerkleAirdrop {\n  using SafeERC20 for IERC20;\n  using Address for address;\n\n  address public owner;\n  bytes32 public merkleRoot;\n\n  address public rewardContract;\n  address public rewardToken;\n  address public mintToken;\n\n  mapping(address => bool) public hasClaimed;\n  event Claim(address addr, uint256 num);\n\n  constructor(address _owner) public {\n    owner = _owner;\n  }\n\n  function setOwner(address _owner) external {\n    require(msg.sender == owner);\n    owner = _owner;\n  }\n\n  function setRewardContract(address _rewardContract) external {\n    require(msg.sender == owner);\n    rewardContract = _rewardContract;\n  }\n\n  function setRewardToken(address _rewardToken) external {\n    require(msg.sender == owner);\n    rewardToken = _rewardToken;\n  }\n\n  function setMintToken(address _mintToken) external {\n    require(msg.sender == owner);\n    mintToken = _mintToken;\n  }\n\n  function setRoot(bytes32 _merkleRoot) external {\n    require(msg.sender == owner);\n    merkleRoot = _merkleRoot;\n  }\n\n  function addressToAsciiString(address x) internal pure returns (string memory) {\n    bytes memory s = new bytes(40);\n    for (uint i = 0; i < 20; i++) {\n      bytes1 b = bytes1(uint8(uint(x) / (2**(8 * (19 - i)))));\n      bytes1 hi = bytes1(uint8(b) / 16);\n      bytes1 lo = bytes1(uint8(b) - 16 * uint8(hi));\n      s[2 * i] = char(hi);\n      s[2 * i + 1] = char(lo);\n    }\n    return string(s);\n  }\n\n  function char(bytes1 b) internal pure returns (bytes1 c) {\n    if (uint8(b) < 10) return bytes1(uint8(b) + 0x30);\n    else return bytes1(uint8(b) + 0x57);\n  }\n\n  function uintToStr(uint _i) internal pure returns (string memory _uintAsString) {\n    if (_i == 0) {\n      return \"0\";\n    }\n    uint j = _i;\n    uint len;\n    while (j != 0) {\n      len++;\n      j /= 10;\n    }\n    bytes memory bstr = new bytes(len);\n    uint k = len;\n    while (_i != 0) {\n      k = k - 1;\n      uint8 temp = (48 + uint8(_i - (_i / 10) * 10));\n      bytes1 b1 = bytes1(temp);\n      bstr[k] = b1;\n      _i /= 10;\n    }\n    return string(bstr);\n  }\n\n  function getLeaf(address _a, uint256 _n) internal pure returns (bytes32) {\n    string memory prefix = \"0x\";\n    string memory space = \" \";\n\n    return keccak256(abi.encodePacked(prefix, addressToAsciiString(_a), space, uintToStr(_n)));\n  }\n\n  function claim(\n    bytes32[] calldata _proof,\n    address _who,\n    uint256 _amount\n  ) public returns (bool) {\n    require(hasClaimed[_who] != true, \"already claimed\");\n    require(_amount > 0);\n    require(checkProof(_proof, getLeaf(_who, _amount)), \"failed proof check\");\n\n    hasClaimed[_who] = true;\n\n    if (rewardToken != address(0)) {\n      //send reward token directly\n      IERC20(rewardToken).safeTransfer(_who, _amount);\n    } else if (mintToken != address(0)) {\n      //mint tokens directly\n      ITokenMinter(mintToken).mint(_who, _amount);\n    } else {\n      //inform a different reward contract that a claim has been made\n      address[] memory recip = new address[](1);\n      recip[0] = _who;\n      uint256[] memory amounts = new uint256[](1);\n      amounts[0] = _amount;\n      IVestedEscrow(rewardContract).fund(recip, amounts);\n    }\n\n    emit Claim(_who, _amount);\n    return true;\n  }\n\n  function checkProof(bytes32[] calldata _proof, bytes32 _hash) internal view returns (bool) {\n    bytes32 el;\n    bytes32 h = _hash;\n\n    for (uint i = 0; i <= _proof.length - 1; i += 1) {\n      el = _proof[i];\n\n      if (h < el) {\n        h = keccak256(abi.encodePacked(h, el));\n      } else {\n        h = keccak256(abi.encodePacked(el, h));\n      }\n    }\n\n    return h == merkleRoot;\n  }\n}\n",
  "sourcePath": "/Users/shuto/Documents/bridges-dev/muuu/protocol/contracts/contracts/MerkleAirdrop.sol",
  "compiler": {
    "name": "solc",
    "version": "0.6.12+commit.27d51765.Emscripten.clang"
  },
  "schemaVersion": "3.4.6",
  "updatedAt": "2022-04-04T03:30:07.182Z",
  "devdoc": {
    "kind": "dev",
    "methods": {},
    "version": 1
  },
  "userdoc": {
    "kind": "user",
    "methods": {},
    "version": 1
  }
}