{
  "contractName": "MockKaglaFeeDistributor",
  "abi": [
    {
      "inputs": [
        {
          "internalType": "address",
          "name": "_token",
          "type": "address"
        }
      ],
      "stateMutability": "nonpayable",
      "type": "constructor"
    },
    {
      "inputs": [],
      "name": "token",
      "outputs": [
        {
          "internalType": "address",
          "name": "",
          "type": "address"
        }
      ],
      "stateMutability": "view",
      "type": "function"
    },
    {
      "inputs": [],
      "name": "claim",
      "outputs": [],
      "stateMutability": "nonpayable",
      "type": "function"
    }
  ],
  "bytecode": "0x608060405234801561001057600080fd5b5060405161010c38038061010c8339818101604052602081101561003357600080fd5b5051600080546001600160a01b039092166001600160a01b031990921691909117905560a8806100646000396000f3fe6080604052348015600f57600080fd5b506004361060325760003560e01c80634e71d92d146037578063fc0c546a14603f575b600080fd5b603d6061565b005b60456063565b604080516001600160a01b039092168252519081900360200190f35b565b6000546001600160a01b03168156fea2646970667358221220fc846f48d60aa802cb2fc4f91b8b357d8218a7395b4e41f20679a9127f929ce064736f6c634300060c0033",
  "immutableReferences": {},
  "source": "// SPDX-License-Identifier: MIT\npragma solidity 0.6.12;\n\n// Mock for Kagla FeeDistributor\n// refs\n// - https://kagla.readthedocs.io/dao-fees.html#dao-fees-distributor\n// - https://github.com/kaglafi/kagla-dao-contracts/blob/master/contracts/FeeDistributor.vy\ncontract MockKaglaFeeDistributor {\n  address public token;\n\n  constructor(address _token) public {\n    token = _token;\n  }\n\n  function claim() external {}\n}\n",
  "sourcePath": "/Users/shuto/Documents/bridges-dev/muuu/protocol/contracts/contracts/mocks/MockKaglaFeeDistributor.sol",
  "compiler": {
    "name": "solc",
    "version": "0.6.12+commit.27d51765.Emscripten.clang"
  },
  "schemaVersion": "3.4.6",
  "updatedAt": "2022-04-04T03:30:07.455Z",
  "devdoc": {
    "kind": "dev",
    "methods": {},
    "version": 1
  },
  "userdoc": {
    "kind": "user",
    "methods": {},
    "version": 1
  }
}