{
  "contractName": "MockKaglaRegistry",
  "abi": [
    {
      "inputs": [
        {
          "internalType": "address",
          "name": "_pool",
          "type": "address"
        },
        {
          "internalType": "address",
          "name": "_gauge",
          "type": "address"
        },
        {
          "internalType": "address",
          "name": "_lpToken",
          "type": "address"
        }
      ],
      "stateMutability": "nonpayable",
      "type": "constructor"
    },
    {
      "inputs": [
        {
          "internalType": "address",
          "name": "",
          "type": "address"
        },
        {
          "internalType": "uint256",
          "name": "",
          "type": "uint256"
        }
      ],
      "name": "gauges",
      "outputs": [
        {
          "internalType": "address",
          "name": "",
          "type": "address"
        }
      ],
      "stateMutability": "view",
      "type": "function"
    },
    {
      "inputs": [],
      "name": "lpToken",
      "outputs": [
        {
          "internalType": "address",
          "name": "",
          "type": "address"
        }
      ],
      "stateMutability": "view",
      "type": "function"
    },
    {
      "inputs": [
        {
          "internalType": "address",
          "name": "_pool",
          "type": "address"
        }
      ],
      "name": "get_lp_token",
      "outputs": [
        {
          "internalType": "address",
          "name": "",
          "type": "address"
        }
      ],
      "stateMutability": "view",
      "type": "function"
    },
    {
      "inputs": [
        {
          "internalType": "address",
          "name": "_pool",
          "type": "address"
        }
      ],
      "name": "get_gauges",
      "outputs": [
        {
          "internalType": "address[10]",
          "name": "",
          "type": "address[10]"
        },
        {
          "internalType": "uint128[10]",
          "name": "",
          "type": "uint128[10]"
        }
      ],
      "stateMutability": "view",
      "type": "function"
    }
  ],
  "bytecode": "0x608060405234801561001057600080fd5b506040516104263803806104268339818101604052606081101561003357600080fd5b5080516020808301516040938401518451610140810186526001600160a01b0380841682526000828601819052828801819052606083018190526080830181905260a0830181905260c0830181905260e083018190526101008301819052610120830181905290861681526001909452949092209293909284916100b99190600a6100e3565b5050600080546001600160a01b0319166001600160a01b03929092169190911790555061015a9050565b82600a810192821561012b579160200282015b8281111561012b57825182546001600160a01b0319166001600160a01b039091161782556020909201916001909101906100f6565b5061013792915061013b565b5090565b5b808211156101375780546001600160a01b031916815560010161013c565b6102bd806101696000396000f3fe608060405234801561001057600080fd5b506004361061004c5760003560e01c80630531aeac14610051578063379510491461009957806356059ffb146100bf5780635fcbd2851461014a575b600080fd5b61007d6004803603604081101561006757600080fd5b506001600160a01b038135169060200135610152565b604080516001600160a01b039092168252519081900360200190f35b61007d600480360360208110156100af57600080fd5b50356001600160a01b031661017d565b6100e5600480360360208110156100d557600080fd5b50356001600160a01b031661018d565b604051808361014080838360005b8381101561010b5781810151838201526020016100f3565b5050505090500182600a60200280838360005b8381101561013657818101518382015260200161011e565b505050509050019250505060405180910390f35b61007d610259565b600160205281600052604060002081600a811061016b57fe5b01546001600160a01b03169150829050565b506000546001600160a01b031690565b610195610268565b61019d610268565b6101a5610268565b6001600160a01b03841660009081526001602052604090819020815161014081019283905291600a9082845b81546001600160a01b031681526001909101906020018083116101d157505050505090506101fd610268565b506040805161014081018252600080825260208201819052918101829052606081018290526080810182905260a0810182905260c0810182905260e0810182905261010081018290526101208101919091529092509050915091565b6000546001600160a01b031681565b604051806101400160405280600a90602082028036833750919291505056fea2646970667358221220745353b9c0bc458f2dd97f1fe4267f45ca91a0dc5fb29cd2bbf7526fa5ecc96264736f6c634300060c0033",
  "immutableReferences": {},
  "source": "// SPDX-License-Identifier: MIT\npragma solidity 0.6.12;\n\n// Mock for Kagla Registry\n// refs\n// - https://kagla.readthedocs.io/registry-registry.html\n// - https://github.com/kaglafi/kagla-pool-registry/blob/master/contracts/Registry.vy\ncontract MockKaglaRegistry {\n  address public lpToken; // TODO: lpTokens for each pool\n  mapping(address => address[10]) public gauges;\n\n  constructor(\n    address _pool,\n    address _gauge,\n    address _lpToken\n  ) public {\n    address pool = _pool; // 3Pool\n    gauges[pool] = [\n      _gauge, // 3Pool Gauge\n      address(0),\n      address(0),\n      address(0),\n      address(0),\n      address(0),\n      address(0),\n      address(0),\n      address(0),\n      address(0)\n    ];\n    lpToken = _lpToken;\n  }\n\n  function get_lp_token(address _pool) external view returns (address) {\n    return lpToken;\n  }\n\n  function get_gauges(address _pool)\n    external\n    view\n    returns (address[10] memory, uint128[10] memory)\n  {\n    address[10] memory liquidity_gauges = gauges[_pool];\n    uint128[10] memory gauge_types = [\n      uint128(0),\n      uint128(0),\n      uint128(0),\n      uint128(0),\n      uint128(0),\n      uint128(0),\n      uint128(0),\n      uint128(0),\n      uint128(0),\n      uint128(0)\n    ];\n    return (liquidity_gauges, gauge_types);\n  }\n}\n",
  "sourcePath": "/Users/shuto/Documents/bridges-dev/muuu/protocol/contracts/contracts/mocks/MockKaglaRegistry.sol",
  "compiler": {
    "name": "solc",
    "version": "0.6.12+commit.27d51765.Emscripten.clang"
  },
  "schemaVersion": "3.4.6",
  "updatedAt": "2022-04-04T03:30:07.456Z",
  "devdoc": {
    "kind": "dev",
    "methods": {},
    "version": 1
  },
  "userdoc": {
    "kind": "user",
    "methods": {},
    "version": 1
  }
}