{
  "contractName": "MockMinter",
  "abi": [
    {
      "inputs": [
        {
          "internalType": "address",
          "name": "_token",
          "type": "address"
        }
      ],
      "stateMutability": "nonpayable",
      "type": "constructor"
    },
    {
      "inputs": [],
      "name": "token",
      "outputs": [
        {
          "internalType": "address",
          "name": "",
          "type": "address"
        }
      ],
      "stateMutability": "view",
      "type": "function"
    },
    {
      "inputs": [
        {
          "internalType": "address",
          "name": "_gaugeAddr",
          "type": "address"
        }
      ],
      "name": "mint",
      "outputs": [],
      "stateMutability": "nonpayable",
      "type": "function"
    }
  ],
  "bytecode": "0x608060405234801561001057600080fd5b5060405161024f38038061024f8339818101604052602081101561003357600080fd5b5051600080546001600160a01b039092166001600160a01b03199092169190911790556101ea806100656000396000f3fe608060405234801561001057600080fd5b50600436106100365760003560e01c80636a6278421461003b578063fc0c546a14610063575b600080fd5b6100616004803603602081101561005157600080fd5b50356001600160a01b0316610087565b005b61006b610094565b604080516001600160a01b039092168252519081900360200190f35b61009181336100a3565b50565b6000546001600160a01b031681565b600080546040805163140e25ad60e31b815268056bc75e2d6310000060048201819052915191936001600160a01b039093169263a0712d68926024808401936020939083900390910190829087803b1580156100fe57600080fd5b505af1158015610112573d6000803e3d6000fd5b505050506040513d602081101561012857600080fd5b5050600080546040805163a9059cbb60e01b81526001600160a01b038681166004830152602482018690529151919092169263a9059cbb92604480820193602093909283900390910190829087803b15801561018357600080fd5b505af1158015610197573d6000803e3d6000fd5b505050506040513d60208110156101ad57600080fd5b505050505056fea2646970667358221220c1133346f29b97a5e1784f9c72b7b19c3beb0000ad65bba6f78dcc4d20bc506264736f6c634300060c0033",
  "immutableReferences": {},
  "source": "// SPDX-License-Identifier: MIT\npragma solidity 0.6.12;\n\n// Mock for ITokenMinter\n// refs\n// - https://github.com/curvefi/curve-dao-contracts/blob/master/contracts/Minter.vy\n\nimport \"@openzeppelin/contracts/token/ERC20/IERC20.sol\";\n\ninterface IMintableERC20 {\n  function mint(uint256 value) external returns (bool);\n}\n\ncontract MockMinter {\n  address public token; // basically, here is kgl\n\n  constructor(address _token) public {\n    token = _token;\n  }\n\n  /**\n  @notice Mint everything which belongs to `msg.sender` and send to them\n  @param _gaugeAddr `LiquidityGauge` address to get mintable amount from\n */\n  function mint(address _gaugeAddr) external {\n    _mint(_gaugeAddr, msg.sender);\n  }\n\n  function _mint(address _gaugeAddr, address _for) internal {\n    uint256 to_mint = 100000000000000000000;\n    IMintableERC20(token).mint(to_mint);\n    IERC20(token).transfer(_for, to_mint);\n  }\n}\n",
  "sourcePath": "/Users/shuto/Documents/bridges-dev/muuu/protocol/contracts/contracts/mocks/MockMinter.sol",
  "compiler": {
    "name": "solc",
    "version": "0.6.12+commit.27d51765.Emscripten.clang"
  },
  "schemaVersion": "3.4.6",
  "updatedAt": "2022-04-04T03:30:07.460Z",
  "devdoc": {
    "kind": "dev",
    "methods": {
      "mint(address)": {
        "params": {
          "_gaugeAddr": "`LiquidityGauge` address to get mintable amount from"
        }
      }
    },
    "version": 1
  },
  "userdoc": {
    "kind": "user",
    "methods": {
      "mint(address)": {
        "notice": "Mint everything which belongs to `msg.sender` and send to them"
      }
    },
    "version": 1
  }
}