{
  "contractName": "MockKaglaAddressProvider",
  "abi": [
    {
      "inputs": [
        {
          "internalType": "address",
          "name": "_registry",
          "type": "address"
        },
        {
          "internalType": "address",
          "name": "_feeDistributor",
          "type": "address"
        }
      ],
      "stateMutability": "nonpayable",
      "type": "constructor"
    },
    {
      "inputs": [],
      "name": "feeDistributor",
      "outputs": [
        {
          "internalType": "address",
          "name": "",
          "type": "address"
        }
      ],
      "stateMutability": "view",
      "type": "function"
    },
    {
      "inputs": [],
      "name": "registry",
      "outputs": [
        {
          "internalType": "address",
          "name": "",
          "type": "address"
        }
      ],
      "stateMutability": "view",
      "type": "function"
    },
    {
      "inputs": [],
      "name": "get_registry",
      "outputs": [
        {
          "internalType": "address",
          "name": "",
          "type": "address"
        }
      ],
      "stateMutability": "view",
      "type": "function"
    },
    {
      "inputs": [
        {
          "internalType": "uint256",
          "name": "_id",
          "type": "uint256"
        }
      ],
      "name": "get_address",
      "outputs": [
        {
          "internalType": "address",
          "name": "",
          "type": "address"
        }
      ],
      "stateMutability": "view",
      "type": "function"
    }
  ],
  "bytecode": "0x608060405234801561001057600080fd5b506040516101dd3803806101dd8339818101604052604081101561003357600080fd5b508051602090910151600080546001600160a01b039384166001600160a01b031991821617909155600180549390921692169190911790556101638061007a6000396000f3fe608060405234801561001057600080fd5b506004361061004c5760003560e01c80630d43e8ad14610051578063493f4f74146100755780637b10399914610092578063a262904b1461009a575b600080fd5b6100596100a2565b604080516001600160a01b039092168252519081900360200190f35b6100596004803603602081101561008b57600080fd5b50356100b1565b61005961010f565b61005961011e565b6001546001600160a01b031681565b6000816004146100fe576040805162461bcd60e51b815260206004820152601360248201527214dd5c1c1bdc9d081bdb9b1e481a59080f480d606a1b604482015290519081900360640190fd5b50506001546001600160a01b031690565b6000546001600160a01b031681565b6000546001600160a01b03169056fea2646970667358221220a000e29d43821694e0d07279e660aa34af2916da35928595f659c15407484d0c64736f6c634300060c0033",
  "immutableReferences": {},
  "source": "// SPDX-License-Identifier: MIT\npragma solidity 0.6.12;\n\n// Mock for Kagla AddressProvider\n// refs\n// - https://kagla.readthedocs.io/registry-address-provider.html\n// - https://github.com/kaglafi/kagla-pool-registry/blob/master/contracts/AddressProvider.vy\ncontract MockKaglaAddressProvider {\n  address public registry;\n  address public feeDistributor;\n\n  constructor(address _registry, address _feeDistributor) public {\n    registry = _registry;\n    feeDistributor = _feeDistributor;\n  }\n\n  function get_registry() external view returns (address) {\n    return registry;\n  }\n\n  function get_address(uint256 _id) external view returns (address) {\n    require(_id == 4, \"Support only id = 4\");\n    return feeDistributor;\n  }\n}\n",
  "sourcePath": "/Users/shuto/Documents/bridges-dev/muuu/protocol/contracts/contracts/mocks/MockKaglaAddressProvider.sol",
  "compiler": {
    "name": "solc",
    "version": "0.6.12+commit.27d51765.Emscripten.clang"
  },
  "schemaVersion": "3.4.6",
  "updatedAt": "2022-04-04T03:30:07.454Z",
  "devdoc": {
    "kind": "dev",
    "methods": {},
    "version": 1
  },
  "userdoc": {
    "kind": "user",
    "methods": {},
    "version": 1
  }
}