{
  "contractName": "MuKglStakingWrapper",
  "abi": [
    {
      "inputs": [],
      "stateMutability": "nonpayable",
      "type": "constructor"
    },
    {
      "anonymous": false,
      "inputs": [
        {
          "indexed": true,
          "internalType": "address",
          "name": "owner",
          "type": "address"
        },
        {
          "indexed": true,
          "internalType": "address",
          "name": "spender",
          "type": "address"
        },
        {
          "indexed": false,
          "internalType": "uint256",
          "name": "value",
          "type": "uint256"
        }
      ],
      "name": "Approval",
      "type": "event"
    },
    {
      "anonymous": false,
      "inputs": [
        {
          "indexed": true,
          "internalType": "address",
          "name": "_user",
          "type": "address"
        },
        {
          "indexed": true,
          "internalType": "address",
          "name": "_account",
          "type": "address"
        },
        {
          "indexed": false,
          "internalType": "uint256",
          "name": "_amount",
          "type": "uint256"
        },
        {
          "indexed": false,
          "internalType": "bool",
          "name": "_wrapped",
          "type": "bool"
        }
      ],
      "name": "Deposited",
      "type": "event"
    },
    {
      "anonymous": false,
      "inputs": [
        {
          "indexed": true,
          "internalType": "address",
          "name": "previousOwner",
          "type": "address"
        },
        {
          "indexed": true,
          "internalType": "address",
          "name": "newOwner",
          "type": "address"
        }
      ],
      "name": "OwnershipTransferred",
      "type": "event"
    },
    {
      "anonymous": false,
      "inputs": [
        {
          "indexed": true,
          "internalType": "address",
          "name": "from",
          "type": "address"
        },
        {
          "indexed": true,
          "internalType": "address",
          "name": "to",
          "type": "address"
        },
        {
          "indexed": false,
          "internalType": "uint256",
          "name": "value",
          "type": "uint256"
        }
      ],
      "name": "Transfer",
      "type": "event"
    },
    {
      "anonymous": false,
      "inputs": [
        {
          "indexed": true,
          "internalType": "address",
          "name": "_user",
          "type": "address"
        },
        {
          "indexed": false,
          "internalType": "uint256",
          "name": "_amount",
          "type": "uint256"
        },
        {
          "indexed": false,
          "internalType": "bool",
          "name": "_unwrapped",
          "type": "bool"
        }
      ],
      "name": "Withdrawn",
      "type": "event"
    },
    {
      "inputs": [
        {
          "internalType": "address",
          "name": "owner",
          "type": "address"
        },
        {
          "internalType": "address",
          "name": "spender",
          "type": "address"
        }
      ],
      "name": "allowance",
      "outputs": [
        {
          "internalType": "uint256",
          "name": "",
          "type": "uint256"
        }
      ],
      "stateMutability": "view",
      "type": "function"
    },
    {
      "inputs": [
        {
          "internalType": "address",
          "name": "spender",
          "type": "address"
        },
        {
          "internalType": "uint256",
          "name": "amount",
          "type": "uint256"
        }
      ],
      "name": "approve",
      "outputs": [
        {
          "internalType": "bool",
          "name": "",
          "type": "bool"
        }
      ],
      "stateMutability": "nonpayable",
      "type": "function"
    },
    {
      "inputs": [
        {
          "internalType": "address",
          "name": "account",
          "type": "address"
        }
      ],
      "name": "balanceOf",
      "outputs": [
        {
          "internalType": "uint256",
          "name": "",
          "type": "uint256"
        }
      ],
      "stateMutability": "view",
      "type": "function"
    },
    {
      "inputs": [],
      "name": "collateralVault",
      "outputs": [
        {
          "internalType": "address",
          "name": "",
          "type": "address"
        }
      ],
      "stateMutability": "view",
      "type": "function"
    },
    {
      "inputs": [
        {
          "internalType": "address",
          "name": "spender",
          "type": "address"
        },
        {
          "internalType": "uint256",
          "name": "subtractedValue",
          "type": "uint256"
        }
      ],
      "name": "decreaseAllowance",
      "outputs": [
        {
          "internalType": "bool",
          "name": "",
          "type": "bool"
        }
      ],
      "stateMutability": "nonpayable",
      "type": "function"
    },
    {
      "inputs": [
        {
          "internalType": "address",
          "name": "spender",
          "type": "address"
        },
        {
          "internalType": "uint256",
          "name": "addedValue",
          "type": "uint256"
        }
      ],
      "name": "increaseAllowance",
      "outputs": [
        {
          "internalType": "bool",
          "name": "",
          "type": "bool"
        }
      ],
      "stateMutability": "nonpayable",
      "type": "function"
    },
    {
      "inputs": [],
      "name": "isInit",
      "outputs": [
        {
          "internalType": "bool",
          "name": "",
          "type": "bool"
        }
      ],
      "stateMutability": "view",
      "type": "function"
    },
    {
      "inputs": [],
      "name": "isShutdown",
      "outputs": [
        {
          "internalType": "bool",
          "name": "",
          "type": "bool"
        }
      ],
      "stateMutability": "view",
      "type": "function"
    },
    {
      "inputs": [],
      "name": "kgl",
      "outputs": [
        {
          "internalType": "address",
          "name": "",
          "type": "address"
        }
      ],
      "stateMutability": "view",
      "type": "function"
    },
    {
      "inputs": [],
      "name": "kglDepositor",
      "outputs": [
        {
          "internalType": "address",
          "name": "",
          "type": "address"
        }
      ],
      "stateMutability": "view",
      "type": "function"
    },
    {
      "inputs": [],
      "name": "muKgl",
      "outputs": [
        {
          "internalType": "address",
          "name": "",
          "type": "address"
        }
      ],
      "stateMutability": "view",
      "type": "function"
    },
    {
      "inputs": [],
      "name": "muKglStaking",
      "outputs": [
        {
          "internalType": "address",
          "name": "",
          "type": "address"
        }
      ],
      "stateMutability": "view",
      "type": "function"
    },
    {
      "inputs": [],
      "name": "muuu",
      "outputs": [
        {
          "internalType": "address",
          "name": "",
          "type": "address"
        }
      ],
      "stateMutability": "view",
      "type": "function"
    },
    {
      "inputs": [
        {
          "internalType": "address",
          "name": "",
          "type": "address"
        }
      ],
      "name": "muuu_claimable_reward",
      "outputs": [
        {
          "internalType": "uint256",
          "name": "",
          "type": "uint256"
        }
      ],
      "stateMutability": "view",
      "type": "function"
    },
    {
      "inputs": [],
      "name": "muuu_reward_integral",
      "outputs": [
        {
          "internalType": "uint256",
          "name": "",
          "type": "uint256"
        }
      ],
      "stateMutability": "view",
      "type": "function"
    },
    {
      "inputs": [
        {
          "internalType": "address",
          "name": "",
          "type": "address"
        }
      ],
      "name": "muuu_reward_integral_for",
      "outputs": [
        {
          "internalType": "uint256",
          "name": "",
          "type": "uint256"
        }
      ],
      "stateMutability": "view",
      "type": "function"
    },
    {
      "inputs": [],
      "name": "muuu_reward_remaining",
      "outputs": [
        {
          "internalType": "uint256",
          "name": "",
          "type": "uint256"
        }
      ],
      "stateMutability": "view",
      "type": "function"
    },
    {
      "inputs": [],
      "name": "owner",
      "outputs": [
        {
          "internalType": "address",
          "name": "",
          "type": "address"
        }
      ],
      "stateMutability": "view",
      "type": "function"
    },
    {
      "inputs": [
        {
          "internalType": "uint256",
          "name": "",
          "type": "uint256"
        }
      ],
      "name": "rewards",
      "outputs": [
        {
          "internalType": "address",
          "name": "reward_token",
          "type": "address"
        },
        {
          "internalType": "address",
          "name": "reward_pool",
          "type": "address"
        },
        {
          "internalType": "uint128",
          "name": "reward_integral",
          "type": "uint128"
        },
        {
          "internalType": "uint128",
          "name": "reward_remaining",
          "type": "uint128"
        }
      ],
      "stateMutability": "view",
      "type": "function"
    },
    {
      "inputs": [],
      "name": "totalSupply",
      "outputs": [
        {
          "internalType": "uint256",
          "name": "",
          "type": "uint256"
        }
      ],
      "stateMutability": "view",
      "type": "function"
    },
    {
      "inputs": [
        {
          "internalType": "address",
          "name": "recipient",
          "type": "address"
        },
        {
          "internalType": "uint256",
          "name": "amount",
          "type": "uint256"
        }
      ],
      "name": "transfer",
      "outputs": [
        {
          "internalType": "bool",
          "name": "",
          "type": "bool"
        }
      ],
      "stateMutability": "nonpayable",
      "type": "function"
    },
    {
      "inputs": [
        {
          "internalType": "address",
          "name": "sender",
          "type": "address"
        },
        {
          "internalType": "address",
          "name": "recipient",
          "type": "address"
        },
        {
          "internalType": "uint256",
          "name": "amount",
          "type": "uint256"
        }
      ],
      "name": "transferFrom",
      "outputs": [
        {
          "internalType": "bool",
          "name": "",
          "type": "bool"
        }
      ],
      "stateMutability": "nonpayable",
      "type": "function"
    },
    {
      "inputs": [
        {
          "internalType": "address",
          "name": "_vault",
          "type": "address"
        }
      ],
      "name": "initialize",
      "outputs": [],
      "stateMutability": "nonpayable",
      "type": "function"
    },
    {
      "inputs": [],
      "name": "name",
      "outputs": [
        {
          "internalType": "string",
          "name": "",
          "type": "string"
        }
      ],
      "stateMutability": "view",
      "type": "function"
    },
    {
      "inputs": [],
      "name": "symbol",
      "outputs": [
        {
          "internalType": "string",
          "name": "",
          "type": "string"
        }
      ],
      "stateMutability": "view",
      "type": "function"
    },
    {
      "inputs": [],
      "name": "decimals",
      "outputs": [
        {
          "internalType": "uint8",
          "name": "",
          "type": "uint8"
        }
      ],
      "stateMutability": "view",
      "type": "function"
    },
    {
      "inputs": [
        {
          "internalType": "address",
          "name": "newOwner",
          "type": "address"
        }
      ],
      "name": "transferOwnership",
      "outputs": [],
      "stateMutability": "nonpayable",
      "type": "function"
    },
    {
      "inputs": [],
      "name": "renounceOwnership",
      "outputs": [],
      "stateMutability": "nonpayable",
      "type": "function"
    },
    {
      "inputs": [],
      "name": "shutdown",
      "outputs": [],
      "stateMutability": "nonpayable",
      "type": "function"
    },
    {
      "inputs": [],
      "name": "setApprovals",
      "outputs": [],
      "stateMutability": "nonpayable",
      "type": "function"
    },
    {
      "inputs": [],
      "name": "addRewards",
      "outputs": [],
      "stateMutability": "nonpayable",
      "type": "function"
    },
    {
      "inputs": [],
      "name": "rewardLength",
      "outputs": [
        {
          "internalType": "uint256",
          "name": "",
          "type": "uint256"
        }
      ],
      "stateMutability": "view",
      "type": "function"
    },
    {
      "inputs": [
        {
          "internalType": "address[2]",
          "name": "_accounts",
          "type": "address[2]"
        }
      ],
      "name": "user_checkpoint",
      "outputs": [
        {
          "internalType": "bool",
          "name": "",
          "type": "bool"
        }
      ],
      "stateMutability": "nonpayable",
      "type": "function"
    },
    {
      "inputs": [
        {
          "internalType": "address",
          "name": "_account",
          "type": "address"
        }
      ],
      "name": "totalBalanceOf",
      "outputs": [
        {
          "internalType": "uint256",
          "name": "",
          "type": "uint256"
        }
      ],
      "stateMutability": "view",
      "type": "function"
    },
    {
      "inputs": [
        {
          "internalType": "address",
          "name": "_account",
          "type": "address"
        }
      ],
      "name": "earned",
      "outputs": [
        {
          "components": [
            {
              "internalType": "address",
              "name": "token",
              "type": "address"
            },
            {
              "internalType": "uint256",
              "name": "amount",
              "type": "uint256"
            }
          ],
          "internalType": "struct MuKglStakingWrapper.EarnedData[]",
          "name": "claimable",
          "type": "tuple[]"
        }
      ],
      "stateMutability": "view",
      "type": "function"
    },
    {
      "inputs": [
        {
          "internalType": "address",
          "name": "_account",
          "type": "address"
        }
      ],
      "name": "getReward",
      "outputs": [],
      "stateMutability": "nonpayable",
      "type": "function"
    },
    {
      "inputs": [
        {
          "internalType": "uint256",
          "name": "_amount",
          "type": "uint256"
        },
        {
          "internalType": "address",
          "name": "_to",
          "type": "address"
        }
      ],
      "name": "deposit",
      "outputs": [],
      "stateMutability": "nonpayable",
      "type": "function"
    },
    {
      "inputs": [
        {
          "internalType": "uint256",
          "name": "_amount",
          "type": "uint256"
        },
        {
          "internalType": "address",
          "name": "_to",
          "type": "address"
        }
      ],
      "name": "stake",
      "outputs": [],
      "stateMutability": "nonpayable",
      "type": "function"
    },
    {
      "inputs": [
        {
          "internalType": "uint256",
          "name": "_amount",
          "type": "uint256"
        }
      ],
      "name": "withdraw",
      "outputs": [],
      "stateMutability": "nonpayable",
      "type": "function"
    }
  ],
  "bytecode": "0x60806040523480156200001157600080fd5b50604080518082018252600c81526b14dd185ad95908135d52d9db60a21b6020808301918252835180850190945260088452671cdd1ad35d52d9db60c21b908401528151919291620000669160039162000097565b5080516200007c90600490602084019062000097565b50506005805460ff1916601217905550600160065562000133565b828054600181600116156101000203166002900490600052602060002090601f016020900481019282601f10620000da57805160ff19168380011785556200010a565b828001600101855582156200010a579182015b828111156200010a578251825591602001919060010190620000ed565b50620001189291506200011c565b5090565b5b808211156200011857600081556001016200011d565b6131b080620001436000396000f3fe608060405234801561001057600080fd5b506004361061023c5760003560e01c80637acb77571161013b578063c4d66de8116100b8578063e92244251161007c578063e922442514610465578063f2f6a6b61461046d578063f2fde38b14610475578063f301af4214610488578063fc0e74d1146104ab5761023c565b8063c4d66de81461041c578063c90bbeee1461042f578063d782139a14610437578063dd62ed3e1461043f578063e2aecded146104525761023c565b8063a9059cbb116100ff578063a9059cbb146103de578063b145a5b8146103f1578063b95c5746146103f9578063bf86d69014610401578063c00007b0146104095761023c565b80637acb7757146103a05780638757b15b146103b35780638da5cb5b146103bb57806395d89b41146103c3578063a457c2d7146103cb5761023c565b80632e1a7d4d116101c95780636e553f651161018d5780636e553f651461035757806370a082311461036a578063715018a61461037d57806372e2339e1461038557806379bdb63c146103985761023c565b80632e1a7d4d14610301578063313ce5671461031457806339509351146103295780634b0ee02a1461033c5780635b1d9b621461034f5761023c565b80630bece79c116102105780630bece79c146102bf57806314d6aed0146102d457806318160ddd146102de578063236dcb63146102e657806323b872dd146102ee5761023c565b80628cc2621461024157806306fdde031461026a57806308fb8a1f1461027f578063095ea7b31461029f575b600080fd5b61025461024f3660046128fa565b6104b3565b6040516102619190612b45565b60405180910390f35b6102726108a5565b6040516102619190612ba8565b61029261028d3660046128fa565b61093b565b604051610261919061305e565b6102b26102ad3660046129aa565b61094d565b6040516102619190612b9d565b6102c761096b565b6040516102619190612a8b565b6102dc61097a565b005b610292610cfe565b6102c7610d04565b6102b26102fc36600461296a565b610d1c565b6102dc61030f366004612a1b565b610da4565b61031c610ebf565b6040516102619190613096565b6102b26103373660046129aa565b610ec4565b61029261034a3660046128fa565b610f12565b610292610f1d565b6102dc610365366004612a4b565b610f23565b6102926103783660046128fa565b611078565b6102dc611093565b6102926103933660046128fa565b611115565b6102c7611127565b6102dc6103ae366004612a4b565b61113f565b6102dc61126a565b6102c761133e565b610272611353565b6102b26103d93660046129aa565b6113b4565b6102b26103ec3660046129aa565b61141c565b6102b2611430565b61029261143e565b6102b2611444565b6102dc6104173660046128fa565b61144d565b6102dc61042a3660046128fa565b611476565b6102c76115a8565b6102c76115c0565b61029261044d366004612932565b6115d8565b6102b26104603660046129d5565b611603565b61029261166c565b6102c7611672565b6102dc6104833660046128fa565b61168a565b61049b610496366004612a1b565b61174a565b6040516102619493929190612ab9565b6102dc61179b565b606060006104bf6117da565b600c549091506001810167ffffffffffffffff811180156104df57600080fd5b5060405190808252806020026020018201604052801561051957816020015b610506612832565b8152602001906001900390816104fe5790505b50925060005b8181101561089c576000600c828154811061053657fe5b60009182526020822060059091020180546040516370a0823160e01b81529193506001600160a01b0316906370a0823190610575903090600401612a8b565b60206040518083038186803b15801561058d57600080fd5b505afa1580156105a1573d6000803e3d6000fd5b505050506040513d601f19601f820116820180604052508101906105c59190612a33565b60028301549091506000906105eb908390600160801b90046001600160801b03166117e9565b60018401546040516246613160e11b8152919250610679916001600160a01b0390911690628cc26290610622903090600401612a8b565b60206040518083038186803b15801561063a57600080fd5b505afa15801561064e573d6000803e3d6000fd5b505050506040513d601f19601f820116820180604052508101906106729190612a33565b8290611811565b60028401549091506001600160801b031686156106af576106ad876106a78468056bc75e2d63100000611836565b90611870565b015b6001600160a01b03891660009081526003850160205260408120546106f79068056bc75e2d63100000906106a7906106e89086906117e9565b6106f18e6118a2565b90611836565b6001600160a01b038b16600090815260048701602052604090205490915061071f9082611811565b89878151811061072b57fe5b6020908102919091018101510152845489516001600160a01b03909116908a908890811061075557fe5b60209081029190910101516001600160a01b03918216905285541673d533a949740bb3306d119cc777fa900ba034cd52141561088b57604051638f4000bd60e01b81526108359073__MuuuMining____________________________90638f4000bd906107c690859060040161305e565b60206040518083038186803b1580156107de57600080fd5b505af41580156107f2573d6000803e3d6000fd5b505050506040513d601f19601f820116820180604052508101906108169190612a33565b6001600160a01b038c166000908152600a602052604090205490611811565b89888151811061084157fe5b60200260200101516020018181525050734e3fbd56cd56c3e72c1403e103b45db9da5b9d2b89888151811061087257fe5b60209081029190910101516001600160a01b0390911690525b50506001909301925061051f915050565b5050505b919050565b600e8054604080516020601f60026000196101006001881615020190951694909404938401819004810282018101909252828152606093909290918301828280156109315780601f1061090657610100808354040283529160200191610931565b820191906000526020600020905b81548152906001019060200180831161091457829003601f168201915b5050505050905090565b600a6020526000908152604090205481565b600061096161095a6118dd565b84846118e1565b5060015b92915050565b600b546001600160a01b031681565b600c54610aa5576040805160808101825273d533a949740bb3306d119cc777fa900ba034cd528152733fe65692bfcd0e6cf84cb1e7d24108e434a7587e60208201908152600092820183815260608301848152600c8054600181018255955292517fdf6966c971051c3d54ec59162606531493a51404a002842f56009d7e5cf4a8c7600590950294850180546001600160a01b03199081166001600160a01b039384161790915592517fdf6966c971051c3d54ec59162606531493a51404a002842f56009d7e5cf4a8c886018054909416911617909155517fdf6966c971051c3d54ec59162606531493a51404a002842f56009d7e5cf4a8c9909201805491516001600160801b03199092166001600160801b03938416178316600160801b93909216929092021790555b6000733fe65692bfcd0e6cf84cb1e7d24108e434a7587e6001600160a01b031663d55a23f46040518163ffffffff1660e01b815260040160206040518083038186803b158015610af457600080fd5b505afa158015610b08573d6000803e3d6000fd5b505050506040513d601f19601f82011682018060405250810190610b2c9190612a33565b600c5490915060001901805b82811015610cf957604051632061aa2360e11b8152600090733fe65692bfcd0e6cf84cb1e7d24108e434a7587e906340c3544690610b7a90859060040161305e565b60206040518083038186803b158015610b9257600080fd5b505afa158015610ba6573d6000803e3d6000fd5b505050506040513d601f19601f82011682018060405250810190610bca9190612916565b9050600c6040518060800160405280836001600160a01b031663f7c618c16040518163ffffffff1660e01b815260040160206040518083038186803b158015610c1257600080fd5b505afa158015610c26573d6000803e3d6000fd5b505050506040513d601f19601f82011682018060405250810190610c4a9190612916565b6001600160a01b03908116825293841660208083019190915260006040808401829052606093840182905285546001808201885596835291839020855160059093020180546001600160a01b03199081169389169390931781559285015183870180549093169716969096179055938201516002909401805492909101516001600160801b03199092166001600160801b03948516178416600160801b94909216939093021790915501610b38565b505050565b60025490565b7362b9c7356a2dc64a1969e19c23e4f579f9810aa781565b6000610d29848484611995565b610d9984610d356118dd565b610d948560405180606001604052806028815260200161312e602891396001600160a01b038a16600090815260016020526040812090610d736118dd565b6001600160a01b031681526020810191909152604001600020549190611aaa565b6118e1565b5060015b9392505050565b60026006541415610dd05760405162461bcd60e51b8152600401610dc790612f9a565b60405180910390fd5b60026006558015610e7357610de53382611ad6565b604051631c683a1b60e11b8152733fe65692bfcd0e6cf84cb1e7d24108e434a7587e906338d0743690610e1f908490600090600401613067565b600060405180830381600087803b158015610e3957600080fd5b505af1158015610e4d573d6000803e3d6000fd5b50610e7392507362b9c7356a2dc64a1969e19c23e4f579f9810aa7915033905083611bb8565b336001600160a01b03167f2fd83d5e9f5d240bed47a97a24cf354e4047e25edc2da27b01fd95e5e8a0c9a5826000604051610eaf929190613067565b60405180910390a2506001600655565b601290565b6000610961610ed16118dd565b84610d948560016000610ee26118dd565b6001600160a01b03908116825260208083019390935260409182016000908120918c168152925290205490611811565b6000610965826118a2565b60075481565b60026006541415610f465760405162461bcd60e51b8152600401610dc790612f9a565b6002600655600d5460ff1615610f6e5760405162461bcd60e51b8152600401610dc790612eb3565b811561102157610f7e8183611c0e565b610f9e73d533a949740bb3306d119cc777fa900ba034cd52333085611cc2565b60405163203b5c7960e21b8152738014595f2ab54cd7c604b00e9fb932176fdc86ae906380ed71e490610fee908590600090733fe65692bfcd0e6cf84cb1e7d24108e434a7587e90600401613077565b600060405180830381600087803b15801561100857600080fd5b505af115801561101c573d6000803e3d6000fd5b505050505b806001600160a01b0316336001600160a01b03167fb32af138549e2a71563d1f2b1f7f0a139b3cdbc83d877d13603de1c3c5fd487a846001604051611067929190613067565b60405180910390a350506001600655565b6001600160a01b031660009081526020819052604090205490565b600d546201000090046001600160a01b031633146110c35760405162461bcd60e51b8152600401610dc790612df8565b600d546040516000916201000090046001600160a01b0316907f8be0079c531659141344cd1fd0a4f28419497f9722a3daafe3b4186f6b6457e0908390a3600d805462010000600160b01b0319169055565b60096020526000908152604090205481565b733fe65692bfcd0e6cf84cb1e7d24108e434a7587e81565b600260065414156111625760405162461bcd60e51b8152600401610dc790612f9a565b6002600655600d5460ff161561118a5760405162461bcd60e51b8152600401610dc790612eb3565b81156112245761119a8183611c0e565b6111ba7362b9c7356a2dc64a1969e19c23e4f579f9810aa7333085611cc2565b60405163534a7e1d60e11b8152733fe65692bfcd0e6cf84cb1e7d24108e434a7587e9063a694fc3a906111f190859060040161305e565b600060405180830381600087803b15801561120b57600080fd5b505af115801561121f573d6000803e3d6000fd5b505050505b806001600160a01b0316336001600160a01b03167fb32af138549e2a71563d1f2b1f7f0a139b3cdbc83d877d13603de1c3c5fd487a846000604051611067929190613067565b61129e73d533a949740bb3306d119cc777fa900ba034cd52738014595f2ab54cd7c604b00e9fb932176fdc86ae6000611ce9565b6112d373d533a949740bb3306d119cc777fa900ba034cd52738014595f2ab54cd7c604b00e9fb932176fdc86ae600019611ce9565b6113077362b9c7356a2dc64a1969e19c23e4f579f9810aa7733fe65692bfcd0e6cf84cb1e7d24108e434a7587e6000611ce9565b61133c7362b9c7356a2dc64a1969e19c23e4f579f9810aa7733fe65692bfcd0e6cf84cb1e7d24108e434a7587e600019611ce9565b565b600d546201000090046001600160a01b031681565b600f8054604080516020601f60026000196101006001881615020190951694909404938401819004810282018101909252828152606093909290918301828280156109315780601f1061090657610100808354040283529160200191610931565b60006109616113c16118dd565b84610d948560405180606001604052806025815260200161315660259139600160006113eb6118dd565b6001600160a01b03908116825260208083019390935260409182016000908120918d16815292529020549190611aaa565b60006109616114296118dd565b8484611995565b600d54610100900460ff1681565b600c5490565b600d5460ff1681565b604080518082019091526001600160a01b03821681526000602082015261147390611dac565b50565b600d54610100900460ff161561149e5760405162461bcd60e51b8152600401610dc790612d91565b600d805475a3c5a1e09150b75ff251c1a7815a07182c3de2fb000062010000600160b01b03199091161790819055604051620100009091046001600160a01b0316906000907f8be0079c531659141344cd1fd0a4f28419497f9722a3daafe3b4186f6b6457e0908290a360408051808201909152600c8082526b14dd185ad95908135d52d9db60a21b602090920191825261153b91600e91612849565b50604080518082019091526008808252671cdd1ad35d52d9db60c21b602090920191825261156b91600f91612849565b50600d805461ffff1916610100179055600b80546001600160a01b0383166001600160a01b03199091161790556115a061097a565b61147361126a565b738014595f2ab54cd7c604b00e9fb932176fdc86ae81565b73d533a949740bb3306d119cc777fa900ba034cd5281565b6001600160a01b03918216600090815260016020908152604080832093909416825291909152205490565b600061166460405180604001604052808460006002811061162057fe5b60200201602081019061163391906128fa565b6001600160a01b0316815260209081019061165490604087019087016128fa565b6001600160a01b03169052611e73565b506001919050565b60085481565b734e3fbd56cd56c3e72c1403e103b45db9da5b9d2b81565b600d546201000090046001600160a01b031633146116ba5760405162461bcd60e51b8152600401610dc790612df8565b6001600160a01b0381166116e05760405162461bcd60e51b8152600401610dc790612c1e565b600d546040516001600160a01b038084169262010000900416907f8be0079c531659141344cd1fd0a4f28419497f9722a3daafe3b4186f6b6457e090600090a3600d80546001600160a01b03909216620100000262010000600160b01b0319909216919091179055565b600c818154811061175757fe5b60009182526020909120600590910201805460018201546002909201546001600160a01b0391821693509116906001600160801b0380821691600160801b90041684565b600d546201000090046001600160a01b031633146117cb5760405162461bcd60e51b8152600401610dc790612df8565b600d805460ff19166001179055565b60006117e4610cfe565b905090565b60008282111561180b5760405162461bcd60e51b8152600401610dc790612cdd565b50900390565b600082820183811015610d9d5760405162461bcd60e51b8152600401610dc790612ca6565b60008261184557506000610965565b8282028284828161185257fe5b0414610d9d5760405162461bcd60e51b8152600401610dc790612db7565b60008082116118915760405162461bcd60e51b8152600401610dc790612d5a565b81838161189a57fe5b049392505050565b60006001600160a01b03821615806118c75750600b546001600160a01b038381169116145b156118d4575060006108a0565b61096582611078565b3390565b6001600160a01b0383166119075760405162461bcd60e51b8152600401610dc790612ed5565b6001600160a01b03821661192d5760405162461bcd60e51b8152600401610dc790612c64565b6001600160a01b0380841660008181526001602090815260408083209487168084529490915290819020849055517f8c5be1e5ebec7d5bd14f71427d1e84f3dd0314c0f7b2291e5b200ac8c7c3b9259061198890859061305e565b60405180910390a3505050565b6001600160a01b0383166119bb5760405162461bcd60e51b8152600401610dc790612e6e565b6001600160a01b0382166119e15760405162461bcd60e51b8152600401610dc790612bdb565b6119ec838383611f54565b611a2981604051806060016040528060268152602001613108602691396001600160a01b0386166000908152602081905260409020549190611aaa565b6001600160a01b038085166000908152602081905260408082209390935590841681522054611a589082611811565b6001600160a01b0380841660008181526020819052604090819020939093559151908516907fddf252ad1be2c89b69c2b068fc378daa952ba7f163c4a11628f55a4df523b3ef9061198890859061305e565b60008184841115611ace5760405162461bcd60e51b8152600401610dc79190612ba8565b505050900390565b6001600160a01b038216611afc5760405162461bcd60e51b8152600401610dc790612e2d565b611b0882600083611f54565b611b45816040518060600160405280602281526020016130e6602291396001600160a01b0385166000908152602081905260409020549190611aaa565b6001600160a01b038316600090815260208190526040902055600254611b6b90826117e9565b6002556040516000906001600160a01b038416907fddf252ad1be2c89b69c2b068fc378daa952ba7f163c4a11628f55a4df523b3ef90611bac90859061305e565b60405180910390a35050565b610cf98363a9059cbb60e01b8484604051602401611bd7929190612b2c565b60408051601f198184030181529190526020810180516001600160e01b03166001600160e01b031990931692909217909152611f7b565b6001600160a01b038216611c345760405162461bcd60e51b8152600401610dc790613027565b611c4060008383611f54565b600254611c4d9082611811565b6002556001600160a01b038216600090815260208190526040902054611c739082611811565b6001600160a01b0383166000818152602081905260408082209390935591519091907fddf252ad1be2c89b69c2b068fc378daa952ba7f163c4a11628f55a4df523b3ef90611bac90859061305e565b611ce3846323b872dd60e01b858585604051602401611bd793929190612aed565b50505050565b801580611d715750604051636eb1769f60e11b81526001600160a01b0384169063dd62ed3e90611d1f9030908690600401612a9f565b60206040518083038186803b158015611d3757600080fd5b505afa158015611d4b573d6000803e3d6000fd5b505050506040513d601f19601f82011682018060405250810190611d6f9190612a33565b155b611d8d5760405162461bcd60e51b8152600401610dc790612fd1565b610cf98363095ea7b360e01b8484604051602401611bd7929190612b2c565b6000611db66117da565b9050611dc06128c7565b611dd18360005b60200201516118a2565b8152604051637050ccd960e01b8152733fe65692bfcd0e6cf84cb1e7d24108e434a7587e90637050ccd990611e0d903090600190600401612b11565b600060405180830381600087803b158015611e2757600080fd5b505af1158015611e3b573d6000803e3d6000fd5b5050600c549150600090505b81811015611e6557611e5d81868587600161200a565b600101611e47565b50611ce3848385600161242f565b600d5460ff1615611e8357611473565b6000611e8d6117da565b9050611e976128c7565b611ea2836000611dc7565b8152611eaf836001611dc7565b6020820152604051637050ccd960e01b8152733fe65692bfcd0e6cf84cb1e7d24108e434a7587e90637050ccd990611eee903090600190600401612b11565b600060405180830381600087803b158015611f0857600080fd5b505af1158015611f1c573d6000803e3d6000fd5b5050600c549150600090505b81811015611f4657611f3e81868587600061200a565b600101611f28565b50611ce3848385600061242f565b604080518082019091526001600160a01b03808516825283166020820152610cf990611e73565b6060611fd0826040518060400160405280602081526020017f5361666545524332303a206c6f772d6c6576656c2063616c6c206661696c6564815250856001600160a01b031661271b9092919063ffffffff16565b805190915015610cf95780806020019051810190611fee91906129fb565b610cf95760405162461bcd60e51b8152600401610dc790612f50565b6000600c868154811061201957fe5b60009182526020822060059091020180546040516370a0823160e01b81529193506001600160a01b0316906370a0823190612058903090600401612a8b565b60206040518083038186803b15801561207057600080fd5b505afa158015612084573d6000803e3d6000fd5b505050506040513d601f19601f820116820180604052508101906120a89190612a33565b90506000841180156120da575060028201546000906120d8908390600160801b90046001600160801b03166117e9565b115b1561213c5760028201546121149085906106a79068056bc75e2d63100000906106f1908690600160801b90046001600160801b03166117e9565b6002830180546001600160801b031981166001600160801b0391821693909301169190911790555b60005b60028110156123ed57600087826002811061215657fe5b60200201516001600160a01b0316141561216f576123e5565b600b546001600160a01b031687826002811061218757fe5b60200201516001600160a01b031614156121a0576123e5565b60008360030160008984600281106121b457fe5b60200201516001600160a01b03166001600160a01b0316815260200190815260200160002054905084806121f4575060028401546001600160801b031681105b156123e357841561230c57600284015460009061228e906122489068056bc75e2d63100000906106a790612231906001600160801b0316876117e9565b8c886002811061223d57fe5b602002015190611836565b8660040160008c876002811061225a57fe5b60200201516001600160a01b03166001600160a01b031681526020019081526020016000205461181190919063ffffffff16565b905080156123065760008560040160008b86600281106122aa57fe5b60200201516001600160a01b03166001600160a01b03168152602001908152602001600020819055506122f98984600281106122e257fe5b602002015186546001600160a01b03169083611bb8565b61230384826117e9565b93505b50612395565b6002840154612359906123479068056bc75e2d63100000906106a79061233b906001600160801b0316866117e9565b8b876002811061223d57fe5b8560040160008b866002811061225a57fe5b8460040160008a856002811061236b57fe5b60200201516001600160a01b03166001600160a01b03168152602001908152602001600020819055505b6002808501546001600160801b03169060038601906000908b90869081106123b957fe5b60200201516001600160a01b03166001600160a01b03168152602001908152602001600020819055505b505b60010161213f565b506002820154600160801b90046001600160801b03168114612426576002820180546001600160801b03808416600160801b0291161790555b50505050505050565b6040516370a0823160e01b8152600090734e3fbd56cd56c3e72c1403e103b45db9da5b9d2b906370a0823190612469903090600401612a8b565b60206040518083038186803b15801561248157600080fd5b505afa158015612495573d6000803e3d6000fd5b505050506040513d601f19601f820116820180604052508101906124b99190612a33565b905060006124d2600854836117e990919063ffffffff16565b90506000841180156124e45750600081115b1561250b57612500846106a78368056bc75e2d63100000611836565b600754016007819055505b60005b600281101561270357600087826002811061252557fe5b60200201516001600160a01b0316141561253e576126fb565b600b546001600160a01b031687826002811061255657fe5b60200201516001600160a01b0316141561256f576126fb565b60006009600089846002811061258157fe5b60200201516001600160a01b03166001600160a01b0316815260200190815260200160002054905084806125b6575060075481105b156126f95760006125f56125e568056bc75e2d631000006106a7612231866007546117e990919063ffffffff16565b600a60008c876002811061225a57fe5b9050851561268057801561267b576000600a60008b866002811061261557fe5b60200201516001600160a01b03166001600160a01b031681526020019081526020016000208190555061266e89846002811061264d57fe5b6020020151734e3fbd56cd56c3e72c1403e103b45db9da5b9d2b9083611bb8565b61267885826117e9565b94505b6126bb565b80600a60008b866002811061269157fe5b60200201516001600160a01b03166001600160a01b03168152602001908152602001600020819055505b600754600960008b86600281106126ce57fe5b60200201516001600160a01b03166001600160a01b0316815260200190815260200160002081905550505b505b60010161250e565b5060085482146127135760088290555b505050505050565b606061272a8484600085612732565b949350505050565b6060824710156127545760405162461bcd60e51b8152600401610dc790612d14565b61275d856127f3565b6127795760405162461bcd60e51b8152600401610dc790612f19565b60006060866001600160a01b031685876040516127969190612a6f565b60006040518083038185875af1925050503d80600081146127d3576040519150601f19603f3d011682016040523d82523d6000602084013e6127d8565b606091505b50915091506127e88282866127f9565b979650505050505050565b3b151590565b60608315612808575081610d9d565b8251156128185782518084602001fd5b8160405162461bcd60e51b8152600401610dc79190612ba8565b604080518082019091526000808252602082015290565b828054600181600116156101000203166002900490600052602060002090601f016020900481019282601f1061288a57805160ff19168380011785556128b7565b828001600101855582156128b7579182015b828111156128b757825182559160200191906001019061289c565b506128c39291506128e5565b5090565b60405180604001604052806002906020820280368337509192915050565b5b808211156128c357600081556001016128e6565b60006020828403121561290b578081fd5b8135610d9d816130d0565b600060208284031215612927578081fd5b8151610d9d816130d0565b60008060408385031215612944578081fd5b823561294f816130d0565b9150602083013561295f816130d0565b809150509250929050565b60008060006060848603121561297e578081fd5b8335612989816130d0565b92506020840135612999816130d0565b929592945050506040919091013590565b600080604083850312156129bc578182fd5b82356129c7816130d0565b946020939093013593505050565b6000604082840312156129e6578081fd5b826040830111156129f5578081fd5b50919050565b600060208284031215612a0c578081fd5b81518015158114610d9d578182fd5b600060208284031215612a2c578081fd5b5035919050565b600060208284031215612a44578081fd5b5051919050565b60008060408385031215612a5d578182fd5b82359150602083013561295f816130d0565b60008251612a818184602087016130a4565b9190910192915050565b6001600160a01b0391909116815260200190565b6001600160a01b0392831681529116602082015260400190565b6001600160a01b0394851681529290931660208301526001600160801b039081166040830152909116606082015260800190565b6001600160a01b039384168152919092166020820152604081019190915260600190565b6001600160a01b039290921682521515602082015260400190565b6001600160a01b03929092168252602082015260400190565b602080825282518282018190526000919060409081850190868401855b82811015612b9057815180516001600160a01b03168552860151868501529284019290850190600101612b62565b5091979650505050505050565b901515815260200190565b6000602082528251806020840152612bc78160408501602087016130a4565b601f01601f19169190910160400192915050565b60208082526023908201527f45524332303a207472616e7366657220746f20746865207a65726f206164647260408201526265737360e81b606082015260800190565b60208082526026908201527f4f776e61626c653a206e6577206f776e657220697320746865207a65726f206160408201526564647265737360d01b606082015260800190565b60208082526022908201527f45524332303a20617070726f766520746f20746865207a65726f206164647265604082015261737360f01b606082015260800190565b6020808252601b908201527f536166654d6174683a206164646974696f6e206f766572666c6f770000000000604082015260600190565b6020808252601e908201527f536166654d6174683a207375627472616374696f6e206f766572666c6f770000604082015260600190565b60208082526026908201527f416464726573733a20696e73756666696369656e742062616c616e636520666f6040820152651c8818d85b1b60d21b606082015260800190565b6020808252601a908201527f536166654d6174683a206469766973696f6e206279207a65726f000000000000604082015260600190565b6020808252600c908201526b185b1c9958591e481a5b9a5d60a21b604082015260600190565b60208082526021908201527f536166654d6174683a206d756c7469706c69636174696f6e206f766572666c6f6040820152607760f81b606082015260800190565b6020808252818101527f4f776e61626c653a2063616c6c6572206973206e6f7420746865206f776e6572604082015260600190565b60208082526021908201527f45524332303a206275726e2066726f6d20746865207a65726f206164647265736040820152607360f81b606082015260800190565b60208082526025908201527f45524332303a207472616e736665722066726f6d20746865207a65726f206164604082015264647265737360d81b606082015260800190565b60208082526008908201526739b43aba3237bbb760c11b604082015260600190565b60208082526024908201527f45524332303a20617070726f76652066726f6d20746865207a65726f206164646040820152637265737360e01b606082015260800190565b6020808252601d908201527f416464726573733a2063616c6c20746f206e6f6e2d636f6e7472616374000000604082015260600190565b6020808252602a908201527f5361666545524332303a204552433230206f7065726174696f6e20646964206e6040820152691bdd081cdd58d8d9595960b21b606082015260800190565b6020808252601f908201527f5265656e7472616e637947756172643a207265656e7472616e742063616c6c00604082015260600190565b60208082526036908201527f5361666545524332303a20617070726f76652066726f6d206e6f6e2d7a65726f60408201527520746f206e6f6e2d7a65726f20616c6c6f77616e636560501b606082015260800190565b6020808252601f908201527f45524332303a206d696e7420746f20746865207a65726f206164647265737300604082015260600190565b90815260200190565b9182521515602082015260400190565b92835290151560208301526001600160a01b0316604082015260600190565b60ff91909116815260200190565b60005b838110156130bf5781810151838201526020016130a7565b83811115611ce35750506000910152565b6001600160a01b038116811461147357600080fdfe45524332303a206275726e20616d6f756e7420657863656564732062616c616e636545524332303a207472616e7366657220616d6f756e7420657863656564732062616c616e636545524332303a207472616e7366657220616d6f756e74206578636565647320616c6c6f77616e636545524332303a2064656372656173656420616c6c6f77616e63652062656c6f77207a65726fa26469706673582212203a8683b9ec400e1618e7101b865058f7d97afad82382415cfa2bbc50590eb51164736f6c634300060c0033",
  "immutableReferences": {},
  "source": "// SPDX-License-Identifier: MIT\npragma solidity 0.6.12;\npragma experimental ABIEncoderV2;\n\nimport \"../interfaces/IRewardStaking.sol\";\nimport \"../interfaces/IMuuuDeposits.sol\";\nimport \"../libraries/MuuuMining.sol\";\nimport \"@openzeppelin/contracts/math/SafeMath.sol\";\nimport \"@openzeppelin/contracts/token/ERC20/IERC20.sol\";\nimport \"@openzeppelin/contracts/token/ERC20/SafeERC20.sol\";\nimport \"@openzeppelin/contracts/token/ERC20/ERC20.sol\";\nimport \"@openzeppelin/contracts/utils/ReentrancyGuard.sol\";\nimport \"@openzeppelin/contracts/access/Ownable.sol\";\n\n//Example of a tokenize a muuu staked position.\n//if used as collateral some modifications will be needed to fit the specific platform\n//other considerations: might be worth refactoring to use earned() during checkpoints instead of claiming rewards each time\n\n//Based on Kagla.fi's gauge wrapper implementations at https://github.com/kaglafi/kagla-dao-contracts/tree/master/contracts/gauges/wrappers\ncontract MuKglStakingWrapper is ERC20, ReentrancyGuard {\n  using SafeERC20 for IERC20;\n  using SafeMath for uint256;\n\n  struct EarnedData {\n    address token;\n    uint256 amount;\n  }\n\n  struct RewardType {\n    address reward_token;\n    address reward_pool;\n    uint128 reward_integral;\n    uint128 reward_remaining;\n    mapping(address => uint256) reward_integral_for;\n    mapping(address => uint256) claimable_reward;\n  }\n\n  uint256 public muuu_reward_integral;\n  uint256 public muuu_reward_remaining;\n  mapping(address => uint256) public muuu_reward_integral_for;\n  mapping(address => uint256) public muuu_claimable_reward;\n\n  //constants/immutables\n  address public constant kglDepositor = address(0x8014595F2AB54cD7c604B00E9fb932176fDc86Ae);\n  address public constant muKglStaking = address(0x3Fe65692bfCD0e6CF84cB1E7d24108E434A7587e);\n  address public constant kgl = address(0xD533a949740bb3306d119CC777fa900bA034cd52);\n  address public constant muuu = address(0x4e3FBD56CD56c3e72c1403e103b45Db9da5B9D2B);\n  address public constant muKgl = address(0x62B9c7356A2Dc64a1969e19C23e4f579F9810Aa7);\n\n  //collateral vault\n  address public collateralVault;\n\n  //rewards\n  RewardType[] public rewards;\n\n  //management\n  bool public isShutdown;\n  bool public isInit;\n  address public owner;\n\n  string internal _tokenname;\n  string internal _tokensymbol;\n\n  event Deposited(address indexed _user, address indexed _account, uint256 _amount, bool _wrapped);\n  event Withdrawn(address indexed _user, uint256 _amount, bool _unwrapped);\n  event OwnershipTransferred(address indexed previousOwner, address indexed newOwner);\n\n  constructor() public ERC20(\"Staked MuKgl\", \"stkMuKgl\") {}\n\n  function initialize(address _vault) external virtual {\n    require(!isInit, \"already init\");\n    owner = address(0xa3C5A1e09150B75ff251c1a7815A07182c3de2FB); //default to muuu multisig\n    emit OwnershipTransferred(address(0), owner);\n\n    _tokenname = \"Staked MuKgl\";\n    _tokensymbol = \"stkMuKgl\";\n    isShutdown = false;\n    isInit = true;\n    collateralVault = _vault;\n\n    //add rewards\n    addRewards();\n    setApprovals();\n  }\n\n  function name() public view override returns (string memory) {\n    return _tokenname;\n  }\n\n  function symbol() public view override returns (string memory) {\n    return _tokensymbol;\n  }\n\n  function decimals() public view override returns (uint8) {\n    return 18;\n  }\n\n  modifier onlyOwner() {\n    require(owner == msg.sender, \"Ownable: caller is not the owner\");\n    _;\n  }\n\n  function transferOwnership(address newOwner) public virtual onlyOwner {\n    require(newOwner != address(0), \"Ownable: new owner is the zero address\");\n    emit OwnershipTransferred(owner, newOwner);\n    owner = newOwner;\n  }\n\n  function renounceOwnership() public virtual onlyOwner {\n    emit OwnershipTransferred(owner, address(0));\n    owner = address(0);\n  }\n\n  function shutdown() external onlyOwner {\n    isShutdown = true;\n  }\n\n  function setApprovals() public {\n    IERC20(kgl).safeApprove(kglDepositor, 0);\n    IERC20(kgl).safeApprove(kglDepositor, uint256(-1));\n    IERC20(muKgl).safeApprove(muKglStaking, 0);\n    IERC20(muKgl).safeApprove(muKglStaking, uint256(-1));\n  }\n\n  function addRewards() public {\n    if (rewards.length == 0) {\n      rewards.push(\n        RewardType({\n          reward_token: kgl,\n          reward_pool: muKglStaking,\n          reward_integral: 0,\n          reward_remaining: 0\n        })\n      );\n    }\n\n    uint256 extraCount = IRewardStaking(muKglStaking).extraRewardsLength();\n    uint256 startIndex = rewards.length - 1;\n    for (uint256 i = startIndex; i < extraCount; i++) {\n      address extraPool = IRewardStaking(muKglStaking).extraRewards(i);\n      rewards.push(\n        RewardType({\n          reward_token: IRewardStaking(extraPool).rewardToken(),\n          reward_pool: extraPool,\n          reward_integral: 0,\n          reward_remaining: 0\n        })\n      );\n    }\n  }\n\n  function rewardLength() external view returns (uint256) {\n    return rewards.length;\n  }\n\n  function _getDepositedBalance(address _account) internal view virtual returns (uint256) {\n    if (_account == address(0) || _account == collateralVault) {\n      return 0;\n    }\n\n    //override and add any balance needed (deposited balance)\n\n    return balanceOf(_account);\n  }\n\n  function _getTotalSupply() internal view virtual returns (uint256) {\n    //override and add any supply needed (interest based growth)\n\n    return totalSupply();\n  }\n\n  function _calcMuuuIntegral(\n    address[2] memory _accounts,\n    uint256[2] memory _balances,\n    uint256 _supply,\n    bool _isClaim\n  ) internal {\n    uint256 bal = IERC20(muuu).balanceOf(address(this));\n    uint256 d_muuureward = bal.sub(muuu_reward_remaining);\n\n    if (_supply > 0 && d_muuureward > 0) {\n      muuu_reward_integral = muuu_reward_integral + d_muuureward.mul(1e20).div(_supply);\n    }\n\n    //update user integrals for muuu\n    for (uint256 u = 0; u < _accounts.length; u++) {\n      //do not give rewards to address 0\n      if (_accounts[u] == address(0)) continue;\n      if (_accounts[u] == collateralVault) continue;\n\n      uint userI = muuu_reward_integral_for[_accounts[u]];\n      if (_isClaim || userI < muuu_reward_integral) {\n        uint256 receiveable = muuu_claimable_reward[_accounts[u]].add(\n          _balances[u].mul(muuu_reward_integral.sub(userI)).div(1e20)\n        );\n        if (_isClaim) {\n          if (receiveable > 0) {\n            muuu_claimable_reward[_accounts[u]] = 0;\n            IERC20(muuu).safeTransfer(_accounts[u], receiveable);\n            bal = bal.sub(receiveable);\n          }\n        } else {\n          muuu_claimable_reward[_accounts[u]] = receiveable;\n        }\n        muuu_reward_integral_for[_accounts[u]] = muuu_reward_integral;\n      }\n    }\n\n    //update reward total\n    if (bal != muuu_reward_remaining) {\n      muuu_reward_remaining = bal;\n    }\n  }\n\n  function _calcRewardIntegral(\n    uint256 _index,\n    address[2] memory _accounts,\n    uint256[2] memory _balances,\n    uint256 _supply,\n    bool _isClaim\n  ) internal {\n    RewardType storage reward = rewards[_index];\n\n    //get difference in balance and remaining rewards\n    //getReward is unguarded so we use reward_remaining to keep track of how much was actually claimed\n    uint256 bal = IERC20(reward.reward_token).balanceOf(address(this));\n    // uint256 d_reward = bal.sub(reward.reward_remaining);\n\n    if (_supply > 0 && bal.sub(reward.reward_remaining) > 0) {\n      reward.reward_integral =\n        reward.reward_integral +\n        uint128(bal.sub(reward.reward_remaining).mul(1e20).div(_supply));\n    }\n\n    //update user integrals\n    for (uint256 u = 0; u < _accounts.length; u++) {\n      //do not give rewards to address 0\n      if (_accounts[u] == address(0)) continue;\n      if (_accounts[u] == collateralVault) continue;\n\n      uint userI = reward.reward_integral_for[_accounts[u]];\n      if (_isClaim || userI < reward.reward_integral) {\n        if (_isClaim) {\n          uint256 receiveable = reward.claimable_reward[_accounts[u]].add(\n            _balances[u].mul(uint256(reward.reward_integral).sub(userI)).div(1e20)\n          );\n          if (receiveable > 0) {\n            reward.claimable_reward[_accounts[u]] = 0;\n            IERC20(reward.reward_token).safeTransfer(_accounts[u], receiveable);\n            bal = bal.sub(receiveable);\n          }\n        } else {\n          reward.claimable_reward[_accounts[u]] = reward.claimable_reward[_accounts[u]].add(\n            _balances[u].mul(uint256(reward.reward_integral).sub(userI)).div(1e20)\n          );\n        }\n        reward.reward_integral_for[_accounts[u]] = reward.reward_integral;\n      }\n    }\n\n    //update remaining reward here since balance could have changed if claiming\n    if (bal != reward.reward_remaining) {\n      reward.reward_remaining = uint128(bal);\n    }\n  }\n\n  function _checkpoint(address[2] memory _accounts) internal {\n    //if shutdown, no longer checkpoint in case there are problems\n    if (isShutdown) return;\n\n    uint256 supply = _getTotalSupply();\n    uint256[2] memory depositedBalance;\n    depositedBalance[0] = _getDepositedBalance(_accounts[0]);\n    depositedBalance[1] = _getDepositedBalance(_accounts[1]);\n\n    IRewardStaking(muKglStaking).getReward(address(this), true);\n\n    uint256 rewardCount = rewards.length;\n    for (uint256 i = 0; i < rewardCount; i++) {\n      _calcRewardIntegral(i, _accounts, depositedBalance, supply, false);\n    }\n    _calcMuuuIntegral(_accounts, depositedBalance, supply, false);\n  }\n\n  function _checkpointAndClaim(address[2] memory _accounts) internal {\n    uint256 supply = _getTotalSupply();\n    uint256[2] memory depositedBalance;\n    depositedBalance[0] = _getDepositedBalance(_accounts[0]); //only do first slot\n\n    IRewardStaking(muKglStaking).getReward(address(this), true);\n\n    uint256 rewardCount = rewards.length;\n    for (uint256 i = 0; i < rewardCount; i++) {\n      _calcRewardIntegral(i, _accounts, depositedBalance, supply, true);\n    }\n    _calcMuuuIntegral(_accounts, depositedBalance, supply, true);\n  }\n\n  function user_checkpoint(address[2] calldata _accounts) external returns (bool) {\n    _checkpoint([_accounts[0], _accounts[1]]);\n    return true;\n  }\n\n  function totalBalanceOf(address _account) external view returns (uint256) {\n    return _getDepositedBalance(_account);\n  }\n\n  function earned(address _account) external view returns (EarnedData[] memory claimable) {\n    uint256 supply = _getTotalSupply();\n    // uint256 depositedBalance = _getDepositedBalance(_account);\n    uint256 rewardCount = rewards.length;\n    claimable = new EarnedData[](rewardCount + 1);\n\n    for (uint256 i = 0; i < rewardCount; i++) {\n      RewardType storage reward = rewards[i];\n\n      //change in reward is current balance - remaining reward + earned\n      uint256 bal = IERC20(reward.reward_token).balanceOf(address(this));\n      uint256 d_reward = bal.sub(reward.reward_remaining);\n      d_reward = d_reward.add(IRewardStaking(reward.reward_pool).earned(address(this)));\n\n      uint256 I = reward.reward_integral;\n      if (supply > 0) {\n        I = I + d_reward.mul(1e20).div(supply);\n      }\n\n      uint256 newlyClaimable = _getDepositedBalance(_account)\n        .mul(I.sub(reward.reward_integral_for[_account]))\n        .div(1e20);\n      claimable[i].amount = reward.claimable_reward[_account].add(newlyClaimable);\n      claimable[i].token = reward.reward_token;\n\n      //calc muuu here\n      if (reward.reward_token == kgl) {\n        claimable[rewardCount].amount = muuu_claimable_reward[_account].add(\n          MuuuMining.ConvertKglToMuuu(newlyClaimable)\n        );\n        claimable[rewardCount].token = muuu;\n      }\n    }\n    return claimable;\n  }\n\n  function getReward(address _account) external {\n    //claim directly in checkpoint logic to save a bit of gas\n    _checkpointAndClaim([_account, address(0)]);\n  }\n\n  //deposit a kagla token\n  function deposit(uint256 _amount, address _to) external nonReentrant {\n    require(!isShutdown, \"shutdown\");\n\n    //dont need to call checkpoint since _mint() will\n\n    if (_amount > 0) {\n      _mint(_to, _amount);\n      IERC20(kgl).safeTransferFrom(msg.sender, address(this), _amount);\n      IMuuuDeposits(kglDepositor).deposit(_amount, false, muKglStaking);\n    }\n\n    emit Deposited(msg.sender, _to, _amount, true);\n  }\n\n  //stake a muuu token\n  function stake(uint256 _amount, address _to) external nonReentrant {\n    require(!isShutdown, \"shutdown\");\n\n    //dont need to call checkpoint since _mint() will\n\n    if (_amount > 0) {\n      _mint(_to, _amount);\n      IERC20(muKgl).safeTransferFrom(msg.sender, address(this), _amount);\n      IRewardStaking(muKglStaking).stake(_amount);\n    }\n\n    emit Deposited(msg.sender, _to, _amount, false);\n  }\n\n  //withdraw to muuu deposit token\n  function withdraw(uint256 _amount) external nonReentrant {\n    //dont need to call checkpoint since _burn() will\n\n    if (_amount > 0) {\n      _burn(msg.sender, _amount);\n      IRewardStaking(muKglStaking).withdraw(_amount, false);\n      IERC20(muKgl).safeTransfer(msg.sender, _amount);\n    }\n\n    emit Withdrawn(msg.sender, _amount, false);\n  }\n\n  function _beforeTokenTransfer(\n    address _from,\n    address _to,\n    uint256 _amount\n  ) internal override {\n    _checkpoint([_from, _to]);\n  }\n}\n",
  "sourcePath": "/Users/shuto/Documents/bridges-dev/muuu/protocol/contracts/contracts/wrappers/MuKglStakingWrapper.sol",
  "compiler": {
    "name": "solc",
    "version": "0.6.12+commit.27d51765.Emscripten.clang"
  },
  "schemaVersion": "3.4.6",
  "updatedAt": "2022-04-04T03:30:07.468Z",
  "devdoc": {
    "kind": "dev",
    "methods": {
      "allowance(address,address)": {
        "details": "See {IERC20-allowance}."
      },
      "approve(address,uint256)": {
        "details": "See {IERC20-approve}. Requirements: - `spender` cannot be the zero address."
      },
      "balanceOf(address)": {
        "details": "See {IERC20-balanceOf}."
      },
      "decimals()": {
        "details": "Returns the number of decimals used to get its user representation. For example, if `decimals` equals `2`, a balance of `505` tokens should be displayed to a user as `5,05` (`505 / 10 ** 2`). Tokens usually opt for a value of 18, imitating the relationship between Ether and Wei. This is the value {ERC20} uses, unless {_setupDecimals} is called. NOTE: This information is only used for _display_ purposes: it in no way affects any of the arithmetic of the contract, including {IERC20-balanceOf} and {IERC20-transfer}."
      },
      "decreaseAllowance(address,uint256)": {
        "details": "Atomically decreases the allowance granted to `spender` by the caller. This is an alternative to {approve} that can be used as a mitigation for problems described in {IERC20-approve}. Emits an {Approval} event indicating the updated allowance. Requirements: - `spender` cannot be the zero address. - `spender` must have allowance for the caller of at least `subtractedValue`."
      },
      "increaseAllowance(address,uint256)": {
        "details": "Atomically increases the allowance granted to `spender` by the caller. This is an alternative to {approve} that can be used as a mitigation for problems described in {IERC20-approve}. Emits an {Approval} event indicating the updated allowance. Requirements: - `spender` cannot be the zero address."
      },
      "name()": {
        "details": "Returns the name of the token."
      },
      "symbol()": {
        "details": "Returns the symbol of the token, usually a shorter version of the name."
      },
      "totalSupply()": {
        "details": "See {IERC20-totalSupply}."
      },
      "transfer(address,uint256)": {
        "details": "See {IERC20-transfer}. Requirements: - `recipient` cannot be the zero address. - the caller must have a balance of at least `amount`."
      },
      "transferFrom(address,address,uint256)": {
        "details": "See {IERC20-transferFrom}. Emits an {Approval} event indicating the updated allowance. This is not required by the EIP. See the note at the beginning of {ERC20}. Requirements: - `sender` and `recipient` cannot be the zero address. - `sender` must have a balance of at least `amount`. - the caller must have allowance for ``sender``'s tokens of at least `amount`."
      }
    },
    "version": 1
  },
  "userdoc": {
    "kind": "user",
    "methods": {},
    "version": 1
  }
}