{
  "contractName": "MuuuMining",
  "abi": [
    {
      "inputs": [],
      "name": "muuu",
      "outputs": [
        {
          "internalType": "contract IMuuu",
          "name": "",
          "type": "IMuuu"
        }
      ],
      "stateMutability": "view",
      "type": "function"
    },
    {
      "inputs": [
        {
          "internalType": "uint256",
          "name": "_amount",
          "type": "uint256"
        }
      ],
      "name": "ConvertKglToMuuu",
      "outputs": [
        {
          "internalType": "uint256",
          "name": "",
          "type": "uint256"
        }
      ],
      "stateMutability": "view",
      "type": "function"
    }
  ],
  "bytecode": "0x61032f610026600b82828239805160001a60731461001957fe5b30600052607381538281f3fe73000000000000000000000000000000000000000030146080604052600436106100405760003560e01c80638f4000bd14610045578063f2f6a6b614610074575b600080fd5b6100626004803603602081101561005b57600080fd5b5035610098565b60408051918252519081900360200190f35b61007c6102e1565b604080516001600160a01b039092168252519081900360200190f35b600080734e3fbd56cd56c3e72c1403e103b45db9da5b9d2b6001600160a01b03166318160ddd6040518163ffffffff1660e01b815260040160206040518083038186803b1580156100e857600080fd5b505afa1580156100fc573d6000803e3d6000fd5b505050506040513d602081101561011257600080fd5b50516040805163553a731160e11b81529051919250600091734e3fbd56cd56c3e72c1403e103b45db9da5b9d2b9163aa74e622916004808301926020929190829003018186803b15801561016557600080fd5b505afa158015610179573d6000803e3d6000fd5b505050506040513d602081101561018f57600080fd5b505160408051631f96e76f60e01b81529051919250600091734e3fbd56cd56c3e72c1403e103b45db9da5b9d2b91631f96e76f916004808301926020929190829003018186803b1580156101e257600080fd5b505afa1580156101f6573d6000803e3d6000fd5b505050506040513d602081101561020c57600080fd5b50516040805163d5abeb0160e01b81529051919250600091734e3fbd56cd56c3e72c1403e103b45db9da5b9d2b9163d5abeb01916004808301926020929190829003018186803b15801561025f57600080fd5b505afa158015610273573d6000803e3d6000fd5b505050506040513d602081101561028957600080fd5b50519050600083858161029857fe5b049050828110156102d25780830383888202816102b157fe5b049750858303808911156102c3578098505b889750505050505050506102dc565b6000955050505050505b919050565b734e3fbd56cd56c3e72c1403e103b45db9da5b9d2b8156fea2646970667358221220aab9717afb978c8dd31097b6b668b9036c37453cca918c60e2dbcac399d3b79d64736f6c634300060c0033",
  "immutableReferences": {},
  "source": "// SPDX-License-Identifier: MIT\npragma solidity 0.6.12;\n\nimport \"../interfaces/IMuuu.sol\";\n\nlibrary MuuuMining {\n  IMuuu public constant muuu = IMuuu(0x4e3FBD56CD56c3e72c1403e103b45Db9da5B9D2B);\n\n  function ConvertKglToMuuu(uint256 _amount) external view returns (uint256) {\n    uint256 supply = muuu.totalSupply();\n    uint256 reductionPerCliff = muuu.reductionPerCliff();\n    uint256 totalCliffs = muuu.totalCliffs();\n    uint256 maxSupply = muuu.maxSupply();\n\n    uint256 cliff = supply / reductionPerCliff;\n    //mint if below total cliffs\n    if (cliff < totalCliffs) {\n      //for reduction% take inverse of current cliff\n      uint256 reduction = totalCliffs - cliff;\n      //reduce\n      _amount = (_amount * reduction) / totalCliffs;\n\n      //supply cap check\n      uint256 amtTillMax = maxSupply - supply;\n      if (_amount > amtTillMax) {\n        _amount = amtTillMax;\n      }\n\n      //mint\n      return _amount;\n    }\n    return 0;\n  }\n}\n",
  "sourcePath": "/Users/linnefromice/repository/github.com/muuu-finance/muuu-protocol/contracts/contracts/libraries/MuuuMining.sol",
  "compiler": {
    "name": "solc",
    "version": "0.6.12+commit.27d51765.Emscripten.clang"
  },
  "schemaVersion": "3.4.6",
  "updatedAt": "2022-03-20T12:14:21.217Z",
  "devdoc": {
    "kind": "dev",
    "methods": {},
    "version": 1
  },
  "userdoc": {
    "kind": "user",
    "methods": {},
    "version": 1
  }
}