{
  "contractName": "MuuuStakingProxy",
  "abi": [
    {
      "inputs": [
        {
          "internalType": "address",
          "name": "_rewards",
          "type": "address"
        }
      ],
      "stateMutability": "nonpayable",
      "type": "constructor"
    },
    {
      "anonymous": false,
      "inputs": [
        {
          "indexed": true,
          "internalType": "address",
          "name": "token",
          "type": "address"
        },
        {
          "indexed": false,
          "internalType": "uint256",
          "name": "amount",
          "type": "uint256"
        }
      ],
      "name": "RewardsDistributed",
      "type": "event"
    },
    {
      "inputs": [],
      "name": "callIncentive",
      "outputs": [
        {
          "internalType": "uint256",
          "name": "",
          "type": "uint256"
        }
      ],
      "stateMutability": "view",
      "type": "function"
    },
    {
      "inputs": [],
      "name": "denominator",
      "outputs": [
        {
          "internalType": "uint256",
          "name": "",
          "type": "uint256"
        }
      ],
      "stateMutability": "view",
      "type": "function"
    },
    {
      "inputs": [],
      "name": "kgl",
      "outputs": [
        {
          "internalType": "address",
          "name": "",
          "type": "address"
        }
      ],
      "stateMutability": "view",
      "type": "function"
    },
    {
      "inputs": [],
      "name": "kglDeposit",
      "outputs": [
        {
          "internalType": "address",
          "name": "",
          "type": "address"
        }
      ],
      "stateMutability": "view",
      "type": "function"
    },
    {
      "inputs": [],
      "name": "muKgl",
      "outputs": [
        {
          "internalType": "address",
          "name": "",
          "type": "address"
        }
      ],
      "stateMutability": "view",
      "type": "function"
    },
    {
      "inputs": [],
      "name": "muKglStaking",
      "outputs": [
        {
          "internalType": "address",
          "name": "",
          "type": "address"
        }
      ],
      "stateMutability": "view",
      "type": "function"
    },
    {
      "inputs": [],
      "name": "muuu",
      "outputs": [
        {
          "internalType": "address",
          "name": "",
          "type": "address"
        }
      ],
      "stateMutability": "view",
      "type": "function"
    },
    {
      "inputs": [],
      "name": "muuuStaking",
      "outputs": [
        {
          "internalType": "address",
          "name": "",
          "type": "address"
        }
      ],
      "stateMutability": "view",
      "type": "function"
    },
    {
      "inputs": [],
      "name": "owner",
      "outputs": [
        {
          "internalType": "address",
          "name": "",
          "type": "address"
        }
      ],
      "stateMutability": "view",
      "type": "function"
    },
    {
      "inputs": [],
      "name": "pendingOwner",
      "outputs": [
        {
          "internalType": "address",
          "name": "",
          "type": "address"
        }
      ],
      "stateMutability": "view",
      "type": "function"
    },
    {
      "inputs": [],
      "name": "rewards",
      "outputs": [
        {
          "internalType": "address",
          "name": "",
          "type": "address"
        }
      ],
      "stateMutability": "view",
      "type": "function"
    },
    {
      "inputs": [
        {
          "internalType": "address",
          "name": "_po",
          "type": "address"
        }
      ],
      "name": "setPendingOwner",
      "outputs": [],
      "stateMutability": "nonpayable",
      "type": "function"
    },
    {
      "inputs": [],
      "name": "applyPendingOwner",
      "outputs": [],
      "stateMutability": "nonpayable",
      "type": "function"
    },
    {
      "inputs": [
        {
          "internalType": "uint256",
          "name": "_incentive",
          "type": "uint256"
        }
      ],
      "name": "setCallIncentive",
      "outputs": [],
      "stateMutability": "nonpayable",
      "type": "function"
    },
    {
      "inputs": [],
      "name": "setApprovals",
      "outputs": [],
      "stateMutability": "nonpayable",
      "type": "function"
    },
    {
      "inputs": [
        {
          "internalType": "address",
          "name": "_token",
          "type": "address"
        },
        {
          "internalType": "address",
          "name": "_to",
          "type": "address"
        }
      ],
      "name": "rescueToken",
      "outputs": [],
      "stateMutability": "nonpayable",
      "type": "function"
    },
    {
      "inputs": [],
      "name": "getBalance",
      "outputs": [
        {
          "internalType": "uint256",
          "name": "",
          "type": "uint256"
        }
      ],
      "stateMutability": "view",
      "type": "function"
    },
    {
      "inputs": [
        {
          "internalType": "uint256",
          "name": "_amount",
          "type": "uint256"
        }
      ],
      "name": "withdraw",
      "outputs": [],
      "stateMutability": "nonpayable",
      "type": "function"
    },
    {
      "inputs": [],
      "name": "stake",
      "outputs": [],
      "stateMutability": "nonpayable",
      "type": "function"
    },
    {
      "inputs": [],
      "name": "distribute",
      "outputs": [],
      "stateMutability": "nonpayable",
      "type": "function"
    },
    {
      "inputs": [
        {
          "internalType": "contract IERC20",
          "name": "_token",
          "type": "address"
        }
      ],
      "name": "distributeOther",
      "outputs": [],
      "stateMutability": "nonpayable",
      "type": "function"
    }
  ],
  "bytecode": "0x60a0604052601960025534801561001557600080fd5b506040516117e53803806117e58339818101604052602081101561003857600080fd5b50516001600160601b031960609190911b16608052600080546001600160a01b0319163317905560805160601c6117416100a460003980610361528061045b528061080d5280610842528061086b5280610afc5280610b3c5280610b7c528061104652506117416000f3fe608060405234801561001057600080fd5b50600436106101375760003560e01c80638da5cb5b116100b8578063cc7554eb1161007c578063cc7554eb1461025b578063d52350ff14610278578063d782139a14610280578063e30c397814610288578063e4fc6b6d14610290578063f2f6a6b61461029857610137565b80638da5cb5b1461021557806396ce07951461021d5780639ec5a89414610225578063c42069ec1461022d578063cb22356b1461025357610137565b80634707d000116100ff5780634707d000146101a957806351c92b13146101d75780636d4a2ea1146101fd57806379bdb63c146102055780638757b15b1461020d57610137565b806305de6db01461013c57806312065fe014610160578063236dcb631461017a5780632e1a7d4d146101825780633a4b66f1146101a1575b600080fd5b6101446102a0565b604080516001600160a01b039092168252519081900360200190f35b6101686102b8565b60408051918252519081900360200190f35b61014461033e565b61019f6004803603602081101561019857600080fd5b5035610356565b005b61019f610450565b61019f600480360360408110156101bf57600080fd5b506001600160a01b038135811691602001351661051e565b61019f600480360360208110156101ed57600080fd5b50356001600160a01b03166106ad565b61019f61093d565b6101446109f8565b61019f610a10565b610144610b65565b610168610b74565b610144610b7a565b61019f6004803603602081101561024357600080fd5b50356001600160a01b0316610b9e565b610168610c07565b61019f6004803603602081101561027157600080fd5b5035610c0d565b610144610c9a565b610144610cb2565b610144610cca565b61019f610cd9565b6101446110f5565b73cf50b810e57ac33b91dcf525c6ddd9881b13933281565b604080516370a0823160e01b8152306004820152905160009173cf50b810e57ac33b91dcf525c6ddd9881b139332916370a0823191602480820192602092909190829003018186803b15801561030d57600080fd5b505afa158015610321573d6000803e3d6000fd5b505050506040513d602081101561033757600080fd5b5051905090565b7362b9c7356a2dc64a1969e19c23e4f579f9810aa781565b336001600160a01b037f000000000000000000000000000000000000000000000000000000000000000016146103bb576040805162461bcd60e51b8152602060048201526005602482015264042c2eae8d60db1b604482015290519081900360640190fd5b60408051631c683a1b60e11b815260048101839052600060248201819052915173cf50b810e57ac33b91dcf525c6ddd9881b139332926338d07436926044808201939182900301818387803b15801561041357600080fd5b505af1158015610427573d6000803e3d6000fd5b5061044d9250734e3fbd56cd56c3e72c1403e103b45db9da5b9d2b91503390508361110d565b50565b336001600160a01b037f000000000000000000000000000000000000000000000000000000000000000016146104b5576040805162461bcd60e51b8152602060048201526005602482015264042c2eae8d60db1b604482015290519081900360640190fd5b73cf50b810e57ac33b91dcf525c6ddd9881b1393326001600160a01b0316638dcb40616040518163ffffffff1660e01b8152600401600060405180830381600087803b15801561050457600080fd5b505af1158015610518573d6000803e3d6000fd5b50505050565b6000546001600160a01b03163314610565576040805162461bcd60e51b8152602060048201526005602482015264042c2eae8d60db1b604482015290519081900360640190fd5b6001600160a01b03821673d533a949740bb3306d119cc777fa900ba034cd52148015906105af57506001600160a01b038216734e3fbd56cd56c3e72c1403e103b45db9da5b9d2b14155b80156105d857506001600160a01b0382167362b9c7356a2dc64a1969e19c23e4f579f9810aa714155b610617576040805162461bcd60e51b815260206004820152600b60248201526a1b9bdd08185b1b1bddd95960aa1b604482015290519081900360640190fd5b6000826001600160a01b03166370a08231306040518263ffffffff1660e01b815260040180826001600160a01b0316815260200191505060206040518083038186803b15801561066657600080fd5b505afa15801561067a573d6000803e3d6000fd5b505050506040513d602081101561069057600080fd5b505190506106a86001600160a01b038416838361110d565b505050565b6001600160a01b03811673d533a949740bb3306d119cc777fa900ba034cd52148015906106f757506001600160a01b0381167362b9c7356a2dc64a1969e19c23e4f579f9810aa714155b610736576040805162461bcd60e51b815260206004820152600b60248201526a1b9bdd08185b1b1bddd95960aa1b604482015290519081900360640190fd5b6000816001600160a01b03166370a08231306040518263ffffffff1660e01b815260040180826001600160a01b0316815260200191505060206040518083038186803b15801561078557600080fd5b505afa158015610799573d6000803e3d6000fd5b505050506040513d60208110156107af57600080fd5b5051905080156109395760006107dc6127106107d66002548561115f90919063ffffffff16565b906111c1565b90506107e88282611228565b91506107fe6001600160a01b038416338361110d565b6108336001600160a01b0384167f00000000000000000000000000000000000000000000000000000000000000006000611285565b6108696001600160a01b0384167f0000000000000000000000000000000000000000000000000000000000000000600019611285565b7f00000000000000000000000000000000000000000000000000000000000000006001600160a01b031663b66503cf84846040518363ffffffff1660e01b815260040180836001600160a01b0316815260200182815260200192505050600060405180830381600087803b1580156108e057600080fd5b505af11580156108f4573d6000803e3d6000fd5b50506040805185815290516001600160a01b03871693507fdf29796aad820e4bb192f3a8d631b76519bcd2cbe77cc85af20e9df53cece08692509081900360200190a2505b5050565b6000546001600160a01b03163314610984576040805162461bcd60e51b8152602060048201526005602482015264042c2eae8d60db1b604482015290519081900360640190fd5b6001546001600160a01b03166109d1576040805162461bcd60e51b815260206004820152600d60248201526c34b73b30b634b21037bbb732b960991b604482015290519081900360640190fd5b60018054600080546001600160a01b03199081166001600160a01b03841617909155169055565b733fe65692bfcd0e6cf84cb1e7d24108e434a7587e81565b610a44734e3fbd56cd56c3e72c1403e103b45db9da5b9d2b73cf50b810e57ac33b91dcf525c6ddd9881b1393326000611285565b610a79734e3fbd56cd56c3e72c1403e103b45db9da5b9d2b73cf50b810e57ac33b91dcf525c6ddd9881b139332600019611285565b610aad73d533a949740bb3306d119cc777fa900ba034cd52738014595f2ab54cd7c604b00e9fb932176fdc86ae6000611285565b610ae273d533a949740bb3306d119cc777fa900ba034cd52738014595f2ab54cd7c604b00e9fb932176fdc86ae600019611285565b610b227362b9c7356a2dc64a1969e19c23e4f579f9810aa77f00000000000000000000000000000000000000000000000000000000000000006000611285565b610b637362b9c7356a2dc64a1969e19c23e4f579f9810aa77f0000000000000000000000000000000000000000000000000000000000000000600019611285565b565b6000546001600160a01b031681565b61271081565b7f000000000000000000000000000000000000000000000000000000000000000081565b6000546001600160a01b03163314610be5576040805162461bcd60e51b8152602060048201526005602482015264042c2eae8d60db1b604482015290519081900360640190fd5b600180546001600160a01b0319166001600160a01b0392909216919091179055565b60025481565b6000546001600160a01b03163314610c54576040805162461bcd60e51b8152602060048201526005602482015264042c2eae8d60db1b604482015290519081900360640190fd5b6064811115610c95576040805162461bcd60e51b81526020600482015260086024820152670e8dede40d0d2ced60c31b604482015290519081900360640190fd5b600255565b738014595f2ab54cd7c604b00e9fb932176fdc86ae81565b73d533a949740bb3306d119cc777fa900ba034cd5281565b6001546001600160a01b031681565b6040805163a4698feb60e01b8152600060048201819052915173cf50b810e57ac33b91dcf525c6ddd9881b1393329263a4698feb926024808201939182900301818387803b158015610d2a57600080fd5b505af1158015610d3e573d6000803e3d6000fd5b5050604080516370a0823160e01b815230600482015290516000935073d533a949740bb3306d119cc777fa900ba034cd5292506370a0823191602480820192602092909190829003018186803b158015610d9757600080fd5b505afa158015610dab573d6000803e3d6000fd5b505050506040513d6020811015610dc157600080fd5b505190508015610e3e5760408051639a40832160e01b815260048101839052600160248201529051738014595f2ab54cd7c604b00e9fb932176fdc86ae91639a40832191604480830192600092919082900301818387803b158015610e2557600080fd5b505af1158015610e39573d6000803e3d6000fd5b505050505b604080516370a0823160e01b81523060048201529051600091733fe65692bfcd0e6cf84cb1e7d24108e434a7587e916370a0823191602480820192602092909190829003018186803b158015610e9357600080fd5b505afa158015610ea7573d6000803e3d6000fd5b505050506040513d6020811015610ebd57600080fd5b505190508015610f385760408051631c683a1b60e11b8152600481018390526000602482018190529151733fe65692bfcd0e6cf84cb1e7d24108e434a7587e926338d07436926044808201939182900301818387803b158015610f1f57600080fd5b505af1158015610f33573d6000803e3d6000fd5b505050505b604080516370a0823160e01b815230600482015290516000917362b9c7356a2dc64a1969e19c23e4f579f9810aa7916370a0823191602480820192602092909190829003018186803b158015610f8d57600080fd5b505afa158015610fa1573d6000803e3d6000fd5b505050506040513d6020811015610fb757600080fd5b5051905080156106a8576000610fde6127106107d66002548561115f90919063ffffffff16565b9050610fea8282611228565b915061100b7362b9c7356a2dc64a1969e19c23e4f579f9810aa7338361110d565b6040805163b66503cf60e01b81527362b9c7356a2dc64a1969e19c23e4f579f9810aa760048201526024810184905290516001600160a01b037f0000000000000000000000000000000000000000000000000000000000000000169163b66503cf91604480830192600092919082900301818387803b15801561108d57600080fd5b505af11580156110a1573d6000803e3d6000fd5b50506040805185815290517362b9c7356a2dc64a1969e19c23e4f579f9810aa793507fdf29796aad820e4bb192f3a8d631b76519bcd2cbe77cc85af20e9df53cece08692509081900360200190a250505050565b734e3fbd56cd56c3e72c1403e103b45db9da5b9d2b81565b604080516001600160a01b038416602482015260448082018490528251808303909101815260649091019091526020810180516001600160e01b031663a9059cbb60e01b1790526106a8908490611394565b60008261116e575060006111bb565b8282028284828161117b57fe5b04146111b85760405162461bcd60e51b815260040180806020018281038252602181526020018061168b6021913960400191505060405180910390fd5b90505b92915050565b6000808211611217576040805162461bcd60e51b815260206004820152601a60248201527f536166654d6174683a206469766973696f6e206279207a65726f000000000000604482015290519081900360640190fd5b81838161122057fe5b049392505050565b60008282111561127f576040805162461bcd60e51b815260206004820152601e60248201527f536166654d6174683a207375627472616374696f6e206f766572666c6f770000604482015290519081900360640190fd5b50900390565b80158061130b575060408051636eb1769f60e11b81523060048201526001600160a01b03848116602483015291519185169163dd62ed3e91604480820192602092909190829003018186803b1580156112dd57600080fd5b505afa1580156112f1573d6000803e3d6000fd5b505050506040513d602081101561130757600080fd5b5051155b6113465760405162461bcd60e51b81526004018080602001828103825260368152602001806116d66036913960400191505060405180910390fd5b604080516001600160a01b038416602482015260448082018490528251808303909101815260649091019091526020810180516001600160e01b031663095ea7b360e01b1790526106a89084905b60606113e9826040518060400160405280602081526020017f5361666545524332303a206c6f772d6c6576656c2063616c6c206661696c6564815250856001600160a01b03166114459092919063ffffffff16565b8051909150156106a85780806020019051602081101561140857600080fd5b50516106a85760405162461bcd60e51b815260040180806020018281038252602a8152602001806116ac602a913960400191505060405180910390fd5b6060611454848460008561145e565b90505b9392505050565b60608247101561149f5760405162461bcd60e51b81526004018080602001828103825260268152602001806116656026913960400191505060405180910390fd5b6114a8856115ba565b6114f9576040805162461bcd60e51b815260206004820152601d60248201527f416464726573733a2063616c6c20746f206e6f6e2d636f6e7472616374000000604482015290519081900360640190fd5b60006060866001600160a01b031685876040518082805190602001908083835b602083106115385780518252601f199092019160209182019101611519565b6001836020036101000a03801982511681845116808217855250505050505090500191505060006040518083038185875af1925050503d806000811461159a576040519150601f19603f3d011682016040523d82523d6000602084013e61159f565b606091505b50915091506115af8282866115c0565b979650505050505050565b3b151590565b606083156115cf575081611457565b8251156115df5782518084602001fd5b8160405162461bcd60e51b81526004018080602001828103825283818151815260200191508051906020019080838360005b83811015611629578181015183820152602001611611565b50505050905090810190601f1680156116565780820380516001836020036101000a031916815260200191505b509250505060405180910390fdfe416464726573733a20696e73756666696369656e742062616c616e636520666f722063616c6c536166654d6174683a206d756c7469706c69636174696f6e206f766572666c6f775361666545524332303a204552433230206f7065726174696f6e20646964206e6f7420737563636565645361666545524332303a20617070726f76652066726f6d206e6f6e2d7a65726f20746f206e6f6e2d7a65726f20616c6c6f77616e6365a26469706673582212206a1c2b1e3aad7f163284ec5f6088552d9f4ca2939d518a96da873e6dbc91166e64736f6c634300060c0033",
  "immutableReferences": {
    "21886": [
      {
        "length": 32,
        "start": 865
      },
      {
        "length": 32,
        "start": 1115
      },
      {
        "length": 32,
        "start": 2061
      },
      {
        "length": 32,
        "start": 2114
      },
      {
        "length": 32,
        "start": 2155
      },
      {
        "length": 32,
        "start": 2812
      },
      {
        "length": 32,
        "start": 2876
      },
      {
        "length": 32,
        "start": 2940
      },
      {
        "length": 32,
        "start": 4166
      }
    ]
  },
  "source": "// SPDX-License-Identifier: MIT\npragma solidity 0.6.12;\n\nimport \"./interfaces/IKglDepositor.sol\";\nimport \"@openzeppelin/contracts/utils/Address.sol\";\nimport \"@openzeppelin/contracts/token/ERC20/IERC20.sol\";\nimport \"@openzeppelin/contracts/token/ERC20/SafeERC20.sol\";\nimport \"@openzeppelin/contracts/math/SafeMath.sol\";\n\ninterface IMuuuRewards {\n  function withdraw(uint256 _amount, bool _claim) external;\n\n  function balanceOf(address _account) external view returns (uint256);\n\n  function getReward(bool _stake) external;\n\n  function stakeAll() external;\n}\n\ninterface IMuuuLocker {\n  function notifyRewardAmount(address _rewardsToken, uint256 reward) external;\n}\n\n// receive tokens to stake\n// get current staked balance\n// withdraw staked tokens\n// send rewards back to owner(muuu locker)\n// register token types that can be distributed\n\ncontract MuuuStakingProxy {\n  using SafeERC20 for IERC20;\n  using Address for address;\n  using SafeMath for uint256;\n\n  //tokens\n  address public constant kgl = address(0xD533a949740bb3306d119CC777fa900bA034cd52);\n  address public constant muuu = address(0x4e3FBD56CD56c3e72c1403e103b45Db9da5B9D2B);\n  address public constant muKgl = address(0x62B9c7356A2Dc64a1969e19C23e4f579F9810Aa7);\n\n  //muuu addresses\n  address public constant muuuStaking = address(0xCF50b810E57Ac33B91dCF525C6ddd9881B139332);\n  address public constant muKglStaking = address(0x3Fe65692bfCD0e6CF84cB1E7d24108E434A7587e);\n  address public constant kglDeposit = address(0x8014595F2AB54cD7c604B00E9fb932176fDc86Ae);\n  uint256 public constant denominator = 10000;\n\n  address public immutable rewards;\n\n  address public owner;\n  address public pendingOwner;\n  uint256 public callIncentive = 25;\n\n  event RewardsDistributed(address indexed token, uint256 amount);\n\n  constructor(address _rewards) public {\n    rewards = _rewards;\n    owner = msg.sender;\n  }\n\n  function setPendingOwner(address _po) external {\n    require(msg.sender == owner, \"!auth\");\n    pendingOwner = _po;\n  }\n\n  function applyPendingOwner() external {\n    require(msg.sender == owner, \"!auth\");\n    require(pendingOwner != address(0), \"invalid owner\");\n\n    owner = pendingOwner;\n    pendingOwner = address(0);\n  }\n\n  function setCallIncentive(uint256 _incentive) external {\n    require(msg.sender == owner, \"!auth\");\n    require(_incentive <= 100, \"too high\");\n    callIncentive = _incentive;\n  }\n\n  function setApprovals() external {\n    IERC20(muuu).safeApprove(muuuStaking, 0);\n    IERC20(muuu).safeApprove(muuuStaking, uint256(-1));\n\n    IERC20(kgl).safeApprove(kglDeposit, 0);\n    IERC20(kgl).safeApprove(kglDeposit, uint256(-1));\n\n    IERC20(muKgl).safeApprove(rewards, 0);\n    IERC20(muKgl).safeApprove(rewards, uint256(-1));\n  }\n\n  function rescueToken(address _token, address _to) external {\n    require(msg.sender == owner, \"!auth\");\n    require(_token != kgl && _token != muuu && _token != muKgl, \"not allowed\");\n\n    uint256 bal = IERC20(_token).balanceOf(address(this));\n    IERC20(_token).safeTransfer(_to, bal);\n  }\n\n  function getBalance() external view returns (uint256) {\n    return IMuuuRewards(muuuStaking).balanceOf(address(this));\n  }\n\n  function withdraw(uint256 _amount) external {\n    require(msg.sender == rewards, \"!auth\");\n\n    //unstake\n    IMuuuRewards(muuuStaking).withdraw(_amount, false);\n\n    //withdraw muuu\n    IERC20(muuu).safeTransfer(msg.sender, _amount);\n  }\n\n  function stake() external {\n    require(msg.sender == rewards, \"!auth\");\n\n    IMuuuRewards(muuuStaking).stakeAll();\n  }\n\n  function distribute() external {\n    //claim rewards\n    IMuuuRewards(muuuStaking).getReward(false);\n\n    //convert any kgl that was directly added\n    uint256 kglBal = IERC20(kgl).balanceOf(address(this));\n    if (kglBal > 0) {\n      IKglDepositor(kglDeposit).deposit(kglBal, true);\n    }\n\n    //make sure nothing is in here\n    uint256 sCheck = IMuuuRewards(muKglStaking).balanceOf(address(this));\n    if (sCheck > 0) {\n      IMuuuRewards(muKglStaking).withdraw(sCheck, false);\n    }\n\n    //distribute mukgl\n    uint256 muKglBal = IERC20(muKgl).balanceOf(address(this));\n\n    if (muKglBal > 0) {\n      uint256 incentiveAmount = muKglBal.mul(callIncentive).div(denominator);\n      muKglBal = muKglBal.sub(incentiveAmount);\n\n      //send incentives\n      IERC20(muKgl).safeTransfer(msg.sender, incentiveAmount);\n\n      //update rewards\n      IMuuuLocker(rewards).notifyRewardAmount(muKgl, muKglBal);\n\n      emit RewardsDistributed(muKgl, muKglBal);\n    }\n  }\n\n  //in case a new reward is ever added, allow generic distribution\n  function distributeOther(IERC20 _token) external {\n    require(address(_token) != kgl && address(_token) != muKgl, \"not allowed\");\n\n    uint256 bal = _token.balanceOf(address(this));\n\n    if (bal > 0) {\n      uint256 incentiveAmount = bal.mul(callIncentive).div(denominator);\n      bal = bal.sub(incentiveAmount);\n\n      //send incentives\n      _token.safeTransfer(msg.sender, incentiveAmount);\n\n      //approve\n      _token.safeApprove(rewards, 0);\n      _token.safeApprove(rewards, uint256(-1));\n\n      //update rewards\n      IMuuuLocker(rewards).notifyRewardAmount(address(_token), bal);\n\n      emit RewardsDistributed(address(_token), bal);\n    }\n  }\n}\n",
  "sourcePath": "/Users/shuto/Documents/bridges-dev/muuu/protocol/contracts/contracts/MuuuStakingProxy.sol",
  "compiler": {
    "name": "solc",
    "version": "0.6.12+commit.27d51765.Emscripten.clang"
  },
  "schemaVersion": "3.4.6",
  "updatedAt": "2022-04-04T03:30:07.325Z",
  "devdoc": {
    "kind": "dev",
    "methods": {},
    "version": 1
  },
  "userdoc": {
    "kind": "user",
    "methods": {},
    "version": 1
  }
}