{
  "contractName": "MuuuLocker",
  "abi": [
    {
      "inputs": [],
      "stateMutability": "nonpayable",
      "type": "constructor"
    },
    {
      "anonymous": false,
      "inputs": [
        {
          "indexed": true,
          "internalType": "address",
          "name": "_user",
          "type": "address"
        },
        {
          "indexed": true,
          "internalType": "address",
          "name": "_kicked",
          "type": "address"
        },
        {
          "indexed": false,
          "internalType": "uint256",
          "name": "_reward",
          "type": "uint256"
        }
      ],
      "name": "KickReward",
      "type": "event"
    },
    {
      "anonymous": false,
      "inputs": [
        {
          "indexed": true,
          "internalType": "address",
          "name": "previousOwner",
          "type": "address"
        },
        {
          "indexed": true,
          "internalType": "address",
          "name": "newOwner",
          "type": "address"
        }
      ],
      "name": "OwnershipTransferred",
      "type": "event"
    },
    {
      "anonymous": false,
      "inputs": [
        {
          "indexed": false,
          "internalType": "address",
          "name": "_token",
          "type": "address"
        },
        {
          "indexed": false,
          "internalType": "uint256",
          "name": "_amount",
          "type": "uint256"
        }
      ],
      "name": "Recovered",
      "type": "event"
    },
    {
      "anonymous": false,
      "inputs": [
        {
          "indexed": true,
          "internalType": "address",
          "name": "_token",
          "type": "address"
        },
        {
          "indexed": false,
          "internalType": "uint256",
          "name": "_reward",
          "type": "uint256"
        }
      ],
      "name": "RewardAdded",
      "type": "event"
    },
    {
      "anonymous": false,
      "inputs": [
        {
          "indexed": true,
          "internalType": "address",
          "name": "_user",
          "type": "address"
        },
        {
          "indexed": true,
          "internalType": "address",
          "name": "_rewardsToken",
          "type": "address"
        },
        {
          "indexed": false,
          "internalType": "uint256",
          "name": "_reward",
          "type": "uint256"
        }
      ],
      "name": "RewardPaid",
      "type": "event"
    },
    {
      "anonymous": false,
      "inputs": [
        {
          "indexed": true,
          "internalType": "address",
          "name": "_user",
          "type": "address"
        },
        {
          "indexed": false,
          "internalType": "uint256",
          "name": "_paidAmount",
          "type": "uint256"
        },
        {
          "indexed": false,
          "internalType": "uint256",
          "name": "_lockedAmount",
          "type": "uint256"
        },
        {
          "indexed": false,
          "internalType": "uint256",
          "name": "_boostedAmount",
          "type": "uint256"
        }
      ],
      "name": "Staked",
      "type": "event"
    },
    {
      "anonymous": false,
      "inputs": [
        {
          "indexed": true,
          "internalType": "address",
          "name": "_user",
          "type": "address"
        },
        {
          "indexed": false,
          "internalType": "uint256",
          "name": "_amount",
          "type": "uint256"
        },
        {
          "indexed": false,
          "internalType": "bool",
          "name": "_relocked",
          "type": "bool"
        }
      ],
      "name": "Withdrawn",
      "type": "event"
    },
    {
      "inputs": [
        {
          "internalType": "address",
          "name": "",
          "type": "address"
        }
      ],
      "name": "balances",
      "outputs": [
        {
          "internalType": "uint112",
          "name": "locked",
          "type": "uint112"
        },
        {
          "internalType": "uint112",
          "name": "boosted",
          "type": "uint112"
        },
        {
          "internalType": "uint32",
          "name": "nextUnlockIndex",
          "type": "uint32"
        }
      ],
      "stateMutability": "view",
      "type": "function"
    },
    {
      "inputs": [],
      "name": "boostPayment",
      "outputs": [
        {
          "internalType": "address",
          "name": "",
          "type": "address"
        }
      ],
      "stateMutability": "view",
      "type": "function"
    },
    {
      "inputs": [],
      "name": "boostRate",
      "outputs": [
        {
          "internalType": "uint256",
          "name": "",
          "type": "uint256"
        }
      ],
      "stateMutability": "view",
      "type": "function"
    },
    {
      "inputs": [],
      "name": "boostedSupply",
      "outputs": [
        {
          "internalType": "uint256",
          "name": "",
          "type": "uint256"
        }
      ],
      "stateMutability": "view",
      "type": "function"
    },
    {
      "inputs": [],
      "name": "denominator",
      "outputs": [
        {
          "internalType": "uint256",
          "name": "",
          "type": "uint256"
        }
      ],
      "stateMutability": "view",
      "type": "function"
    },
    {
      "inputs": [
        {
          "internalType": "uint256",
          "name": "",
          "type": "uint256"
        }
      ],
      "name": "epochs",
      "outputs": [
        {
          "internalType": "uint224",
          "name": "supply",
          "type": "uint224"
        },
        {
          "internalType": "uint32",
          "name": "date",
          "type": "uint32"
        }
      ],
      "stateMutability": "view",
      "type": "function"
    },
    {
      "inputs": [],
      "name": "isShutdown",
      "outputs": [
        {
          "internalType": "bool",
          "name": "",
          "type": "bool"
        }
      ],
      "stateMutability": "view",
      "type": "function"
    },
    {
      "inputs": [],
      "name": "kickRewardEpochDelay",
      "outputs": [
        {
          "internalType": "uint256",
          "name": "",
          "type": "uint256"
        }
      ],
      "stateMutability": "view",
      "type": "function"
    },
    {
      "inputs": [],
      "name": "kickRewardPerEpoch",
      "outputs": [
        {
          "internalType": "uint256",
          "name": "",
          "type": "uint256"
        }
      ],
      "stateMutability": "view",
      "type": "function"
    },
    {
      "inputs": [],
      "name": "lockDuration",
      "outputs": [
        {
          "internalType": "uint256",
          "name": "",
          "type": "uint256"
        }
      ],
      "stateMutability": "view",
      "type": "function"
    },
    {
      "inputs": [],
      "name": "lockedSupply",
      "outputs": [
        {
          "internalType": "uint256",
          "name": "",
          "type": "uint256"
        }
      ],
      "stateMutability": "view",
      "type": "function"
    },
    {
      "inputs": [],
      "name": "maximumBoostPayment",
      "outputs": [
        {
          "internalType": "uint256",
          "name": "",
          "type": "uint256"
        }
      ],
      "stateMutability": "view",
      "type": "function"
    },
    {
      "inputs": [],
      "name": "maximumStake",
      "outputs": [
        {
          "internalType": "uint256",
          "name": "",
          "type": "uint256"
        }
      ],
      "stateMutability": "view",
      "type": "function"
    },
    {
      "inputs": [],
      "name": "minimumStake",
      "outputs": [
        {
          "internalType": "uint256",
          "name": "",
          "type": "uint256"
        }
      ],
      "stateMutability": "view",
      "type": "function"
    },
    {
      "inputs": [],
      "name": "muKgl",
      "outputs": [
        {
          "internalType": "address",
          "name": "",
          "type": "address"
        }
      ],
      "stateMutability": "view",
      "type": "function"
    },
    {
      "inputs": [],
      "name": "mukglStaking",
      "outputs": [
        {
          "internalType": "address",
          "name": "",
          "type": "address"
        }
      ],
      "stateMutability": "view",
      "type": "function"
    },
    {
      "inputs": [],
      "name": "nextBoostRate",
      "outputs": [
        {
          "internalType": "uint256",
          "name": "",
          "type": "uint256"
        }
      ],
      "stateMutability": "view",
      "type": "function"
    },
    {
      "inputs": [],
      "name": "nextMaximumBoostPayment",
      "outputs": [
        {
          "internalType": "uint256",
          "name": "",
          "type": "uint256"
        }
      ],
      "stateMutability": "view",
      "type": "function"
    },
    {
      "inputs": [],
      "name": "owner",
      "outputs": [
        {
          "internalType": "address",
          "name": "",
          "type": "address"
        }
      ],
      "stateMutability": "view",
      "type": "function"
    },
    {
      "inputs": [],
      "name": "renounceOwnership",
      "outputs": [],
      "stateMutability": "nonpayable",
      "type": "function"
    },
    {
      "inputs": [
        {
          "internalType": "address",
          "name": "",
          "type": "address"
        }
      ],
      "name": "rewardData",
      "outputs": [
        {
          "internalType": "bool",
          "name": "useBoost",
          "type": "bool"
        },
        {
          "internalType": "uint40",
          "name": "periodFinish",
          "type": "uint40"
        },
        {
          "internalType": "uint208",
          "name": "rewardRate",
          "type": "uint208"
        },
        {
          "internalType": "uint40",
          "name": "lastUpdateTime",
          "type": "uint40"
        },
        {
          "internalType": "uint208",
          "name": "rewardPerTokenStored",
          "type": "uint208"
        }
      ],
      "stateMutability": "view",
      "type": "function"
    },
    {
      "inputs": [
        {
          "internalType": "address",
          "name": "",
          "type": "address"
        },
        {
          "internalType": "address",
          "name": "",
          "type": "address"
        }
      ],
      "name": "rewardDistributors",
      "outputs": [
        {
          "internalType": "bool",
          "name": "",
          "type": "bool"
        }
      ],
      "stateMutability": "view",
      "type": "function"
    },
    {
      "inputs": [
        {
          "internalType": "uint256",
          "name": "",
          "type": "uint256"
        }
      ],
      "name": "rewardTokens",
      "outputs": [
        {
          "internalType": "address",
          "name": "",
          "type": "address"
        }
      ],
      "stateMutability": "view",
      "type": "function"
    },
    {
      "inputs": [
        {
          "internalType": "address",
          "name": "",
          "type": "address"
        },
        {
          "internalType": "address",
          "name": "",
          "type": "address"
        }
      ],
      "name": "rewards",
      "outputs": [
        {
          "internalType": "uint256",
          "name": "",
          "type": "uint256"
        }
      ],
      "stateMutability": "view",
      "type": "function"
    },
    {
      "inputs": [],
      "name": "rewardsDuration",
      "outputs": [
        {
          "internalType": "uint256",
          "name": "",
          "type": "uint256"
        }
      ],
      "stateMutability": "view",
      "type": "function"
    },
    {
      "inputs": [],
      "name": "stakeOffsetOnLock",
      "outputs": [
        {
          "internalType": "uint256",
          "name": "",
          "type": "uint256"
        }
      ],
      "stateMutability": "view",
      "type": "function"
    },
    {
      "inputs": [],
      "name": "stakingProxy",
      "outputs": [
        {
          "internalType": "address",
          "name": "",
          "type": "address"
        }
      ],
      "stateMutability": "view",
      "type": "function"
    },
    {
      "inputs": [],
      "name": "stakingToken",
      "outputs": [
        {
          "internalType": "contract IERC20",
          "name": "",
          "type": "address"
        }
      ],
      "stateMutability": "view",
      "type": "function"
    },
    {
      "inputs": [
        {
          "internalType": "address",
          "name": "newOwner",
          "type": "address"
        }
      ],
      "name": "transferOwnership",
      "outputs": [],
      "stateMutability": "nonpayable",
      "type": "function"
    },
    {
      "inputs": [
        {
          "internalType": "address",
          "name": "",
          "type": "address"
        },
        {
          "internalType": "uint256",
          "name": "",
          "type": "uint256"
        }
      ],
      "name": "userLocks",
      "outputs": [
        {
          "internalType": "uint112",
          "name": "amount",
          "type": "uint112"
        },
        {
          "internalType": "uint112",
          "name": "boosted",
          "type": "uint112"
        },
        {
          "internalType": "uint32",
          "name": "unlockTime",
          "type": "uint32"
        }
      ],
      "stateMutability": "view",
      "type": "function"
    },
    {
      "inputs": [
        {
          "internalType": "address",
          "name": "",
          "type": "address"
        },
        {
          "internalType": "address",
          "name": "",
          "type": "address"
        }
      ],
      "name": "userRewardPerTokenPaid",
      "outputs": [
        {
          "internalType": "uint256",
          "name": "",
          "type": "uint256"
        }
      ],
      "stateMutability": "view",
      "type": "function"
    },
    {
      "inputs": [],
      "name": "decimals",
      "outputs": [
        {
          "internalType": "uint8",
          "name": "",
          "type": "uint8"
        }
      ],
      "stateMutability": "view",
      "type": "function"
    },
    {
      "inputs": [],
      "name": "name",
      "outputs": [
        {
          "internalType": "string",
          "name": "",
          "type": "string"
        }
      ],
      "stateMutability": "view",
      "type": "function"
    },
    {
      "inputs": [],
      "name": "symbol",
      "outputs": [
        {
          "internalType": "string",
          "name": "",
          "type": "string"
        }
      ],
      "stateMutability": "view",
      "type": "function"
    },
    {
      "inputs": [
        {
          "internalType": "address",
          "name": "_rewardsToken",
          "type": "address"
        },
        {
          "internalType": "address",
          "name": "_distributor",
          "type": "address"
        },
        {
          "internalType": "bool",
          "name": "_useBoost",
          "type": "bool"
        }
      ],
      "name": "addReward",
      "outputs": [],
      "stateMutability": "nonpayable",
      "type": "function"
    },
    {
      "inputs": [
        {
          "internalType": "address",
          "name": "_rewardsToken",
          "type": "address"
        },
        {
          "internalType": "address",
          "name": "_distributor",
          "type": "address"
        },
        {
          "internalType": "bool",
          "name": "_approved",
          "type": "bool"
        }
      ],
      "name": "approveRewardDistributor",
      "outputs": [],
      "stateMutability": "nonpayable",
      "type": "function"
    },
    {
      "inputs": [
        {
          "internalType": "address",
          "name": "_staking",
          "type": "address"
        }
      ],
      "name": "setStakingContract",
      "outputs": [],
      "stateMutability": "nonpayable",
      "type": "function"
    },
    {
      "inputs": [
        {
          "internalType": "uint256",
          "name": "_minimum",
          "type": "uint256"
        },
        {
          "internalType": "uint256",
          "name": "_maximum",
          "type": "uint256"
        }
      ],
      "name": "setStakeLimits",
      "outputs": [],
      "stateMutability": "nonpayable",
      "type": "function"
    },
    {
      "inputs": [
        {
          "internalType": "uint256",
          "name": "_max",
          "type": "uint256"
        },
        {
          "internalType": "uint256",
          "name": "_rate",
          "type": "uint256"
        },
        {
          "internalType": "address",
          "name": "_receivingAddress",
          "type": "address"
        }
      ],
      "name": "setBoost",
      "outputs": [],
      "stateMutability": "nonpayable",
      "type": "function"
    },
    {
      "inputs": [
        {
          "internalType": "uint256",
          "name": "_rate",
          "type": "uint256"
        },
        {
          "internalType": "uint256",
          "name": "_delay",
          "type": "uint256"
        }
      ],
      "name": "setKickIncentive",
      "outputs": [],
      "stateMutability": "nonpayable",
      "type": "function"
    },
    {
      "inputs": [],
      "name": "shutdown",
      "outputs": [],
      "stateMutability": "nonpayable",
      "type": "function"
    },
    {
      "inputs": [],
      "name": "setApprovals",
      "outputs": [],
      "stateMutability": "nonpayable",
      "type": "function"
    },
    {
      "inputs": [
        {
          "internalType": "address",
          "name": "_rewardsToken",
          "type": "address"
        }
      ],
      "name": "lastTimeRewardApplicable",
      "outputs": [
        {
          "internalType": "uint256",
          "name": "",
          "type": "uint256"
        }
      ],
      "stateMutability": "view",
      "type": "function"
    },
    {
      "inputs": [
        {
          "internalType": "address",
          "name": "_rewardsToken",
          "type": "address"
        }
      ],
      "name": "rewardPerToken",
      "outputs": [
        {
          "internalType": "uint256",
          "name": "",
          "type": "uint256"
        }
      ],
      "stateMutability": "view",
      "type": "function"
    },
    {
      "inputs": [
        {
          "internalType": "address",
          "name": "_rewardsToken",
          "type": "address"
        }
      ],
      "name": "getRewardForDuration",
      "outputs": [
        {
          "internalType": "uint256",
          "name": "",
          "type": "uint256"
        }
      ],
      "stateMutability": "view",
      "type": "function"
    },
    {
      "inputs": [
        {
          "internalType": "address",
          "name": "_account",
          "type": "address"
        }
      ],
      "name": "claimableRewards",
      "outputs": [
        {
          "components": [
            {
              "internalType": "address",
              "name": "token",
              "type": "address"
            },
            {
              "internalType": "uint256",
              "name": "amount",
              "type": "uint256"
            }
          ],
          "internalType": "struct MuuuLocker.EarnedData[]",
          "name": "userRewards",
          "type": "tuple[]"
        }
      ],
      "stateMutability": "view",
      "type": "function"
    },
    {
      "inputs": [
        {
          "internalType": "address",
          "name": "_user",
          "type": "address"
        }
      ],
      "name": "rewardWeightOf",
      "outputs": [
        {
          "internalType": "uint256",
          "name": "amount",
          "type": "uint256"
        }
      ],
      "stateMutability": "view",
      "type": "function"
    },
    {
      "inputs": [
        {
          "internalType": "address",
          "name": "_user",
          "type": "address"
        }
      ],
      "name": "lockedBalanceOf",
      "outputs": [
        {
          "internalType": "uint256",
          "name": "amount",
          "type": "uint256"
        }
      ],
      "stateMutability": "view",
      "type": "function"
    },
    {
      "inputs": [
        {
          "internalType": "address",
          "name": "_user",
          "type": "address"
        }
      ],
      "name": "balanceOf",
      "outputs": [
        {
          "internalType": "uint256",
          "name": "amount",
          "type": "uint256"
        }
      ],
      "stateMutability": "view",
      "type": "function"
    },
    {
      "inputs": [
        {
          "internalType": "uint256",
          "name": "_epoch",
          "type": "uint256"
        },
        {
          "internalType": "address",
          "name": "_user",
          "type": "address"
        }
      ],
      "name": "balanceAtEpochOf",
      "outputs": [
        {
          "internalType": "uint256",
          "name": "amount",
          "type": "uint256"
        }
      ],
      "stateMutability": "view",
      "type": "function"
    },
    {
      "inputs": [],
      "name": "totalSupply",
      "outputs": [
        {
          "internalType": "uint256",
          "name": "supply",
          "type": "uint256"
        }
      ],
      "stateMutability": "view",
      "type": "function"
    },
    {
      "inputs": [
        {
          "internalType": "uint256",
          "name": "_epoch",
          "type": "uint256"
        }
      ],
      "name": "totalSupplyAtEpoch",
      "outputs": [
        {
          "internalType": "uint256",
          "name": "supply",
          "type": "uint256"
        }
      ],
      "stateMutability": "view",
      "type": "function"
    },
    {
      "inputs": [
        {
          "internalType": "uint256",
          "name": "_time",
          "type": "uint256"
        }
      ],
      "name": "findEpochId",
      "outputs": [
        {
          "internalType": "uint256",
          "name": "epoch",
          "type": "uint256"
        }
      ],
      "stateMutability": "view",
      "type": "function"
    },
    {
      "inputs": [
        {
          "internalType": "address",
          "name": "_user",
          "type": "address"
        }
      ],
      "name": "lockedBalances",
      "outputs": [
        {
          "internalType": "uint256",
          "name": "total",
          "type": "uint256"
        },
        {
          "internalType": "uint256",
          "name": "unlockable",
          "type": "uint256"
        },
        {
          "internalType": "uint256",
          "name": "locked",
          "type": "uint256"
        },
        {
          "components": [
            {
              "internalType": "uint112",
              "name": "amount",
              "type": "uint112"
            },
            {
              "internalType": "uint112",
              "name": "boosted",
              "type": "uint112"
            },
            {
              "internalType": "uint32",
              "name": "unlockTime",
              "type": "uint32"
            }
          ],
          "internalType": "struct MuuuLocker.LockedBalance[]",
          "name": "lockData",
          "type": "tuple[]"
        }
      ],
      "stateMutability": "view",
      "type": "function"
    },
    {
      "inputs": [],
      "name": "epochCount",
      "outputs": [
        {
          "internalType": "uint256",
          "name": "",
          "type": "uint256"
        }
      ],
      "stateMutability": "view",
      "type": "function"
    },
    {
      "inputs": [],
      "name": "checkpointEpoch",
      "outputs": [],
      "stateMutability": "nonpayable",
      "type": "function"
    },
    {
      "inputs": [
        {
          "internalType": "address",
          "name": "_account",
          "type": "address"
        },
        {
          "internalType": "uint256",
          "name": "_amount",
          "type": "uint256"
        },
        {
          "internalType": "uint256",
          "name": "_spendRatio",
          "type": "uint256"
        }
      ],
      "name": "lock",
      "outputs": [],
      "stateMutability": "nonpayable",
      "type": "function"
    },
    {
      "inputs": [
        {
          "internalType": "bool",
          "name": "_relock",
          "type": "bool"
        }
      ],
      "name": "processExpiredLocks",
      "outputs": [],
      "stateMutability": "nonpayable",
      "type": "function"
    },
    {
      "inputs": [
        {
          "internalType": "bool",
          "name": "_relock",
          "type": "bool"
        },
        {
          "internalType": "uint256",
          "name": "_spendRatio",
          "type": "uint256"
        },
        {
          "internalType": "address",
          "name": "_withdrawTo",
          "type": "address"
        }
      ],
      "name": "processExpiredLocks",
      "outputs": [],
      "stateMutability": "nonpayable",
      "type": "function"
    },
    {
      "inputs": [
        {
          "internalType": "address",
          "name": "_account",
          "type": "address"
        }
      ],
      "name": "kickExpiredLocks",
      "outputs": [],
      "stateMutability": "nonpayable",
      "type": "function"
    },
    {
      "inputs": [
        {
          "internalType": "address",
          "name": "_account",
          "type": "address"
        },
        {
          "internalType": "bool",
          "name": "_stake",
          "type": "bool"
        }
      ],
      "name": "getReward",
      "outputs": [],
      "stateMutability": "nonpayable",
      "type": "function"
    },
    {
      "inputs": [
        {
          "internalType": "address",
          "name": "_account",
          "type": "address"
        }
      ],
      "name": "getReward",
      "outputs": [],
      "stateMutability": "nonpayable",
      "type": "function"
    },
    {
      "inputs": [
        {
          "internalType": "address",
          "name": "_rewardsToken",
          "type": "address"
        },
        {
          "internalType": "uint256",
          "name": "_reward",
          "type": "uint256"
        }
      ],
      "name": "notifyRewardAmount",
      "outputs": [],
      "stateMutability": "nonpayable",
      "type": "function"
    },
    {
      "inputs": [
        {
          "internalType": "address",
          "name": "_tokenAddress",
          "type": "address"
        },
        {
          "internalType": "uint256",
          "name": "_tokenAmount",
          "type": "uint256"
        }
      ],
      "name": "recoverERC20",
      "outputs": [],
      "stateMutability": "nonpayable",
      "type": "function"
    }
  ],
  "bytecode": "0x60a0604052600c80546001600160a01b031916731389388d01708118b497f59521f6943be2541bb71790556000600d819055612710600e819055600f9190915560108190556011819055601255606460145560046015556016805460ff191690553480156200006d57600080fd5b50600160009081556200007f62000205565b600180546001600160a01b0319166001600160a01b038316908117909155604051919250906000907f8be0079c531659141344cd1fd0a4f28419497f9722a3daafe3b4186f6b6457e0908290a3506040805180820190915260168082527f566f7465204c6f636b6564204d75757520546f6b656e000000000000000000006020909201918252620001139160179162000286565b5060408051808201909152600680825265766c4d55555560d01b6020909201918252620001439160189162000286565b50600960f91b60805260006200018262093a806200016e428262000209602090811b6200261217901c565b6200024a60201b620026441790919060201c565b60408051808201909152600080825263ffffffff9283166020830190815260098054600181018255925291517f6e1540171b6c0c960b71a7020d9f60077f6af931a8bbf590da0223dacf75c7af90910180549251909316600160e01b026001600160e01b039182166001600160e01b031990931692909217161790555062000390565b3390565b6000808211620002365760405162461bcd60e51b81526004016200022d9062000322565b60405180910390fd5b8183816200024057fe5b0490505b92915050565b600081158062000267575050808202828282816200026457fe5b04145b620002445760405162461bcd60e51b81526004016200022d9062000359565b828054600181600116156101000203166002900490600052602060002090601f016020900481019282601f10620002c957805160ff1916838001178555620002f9565b82800160010185558215620002f9579182015b82811115620002f9578251825591602001919060010190620002dc565b50620003079291506200030b565b5090565b5b808211156200030757600081556001016200030c565b6020808252601c908201527f426f72696e674d6174683a206469766973696f6e206279207a65726f00000000604082015260600190565b60208082526018908201527f426f72696e674d6174683a204d756c204f766572666c6f770000000000000000604082015260600190565b60805160f81c6148e3620003ae60003980610d3f52506148e36000f3fe608060405234801561001057600080fd5b50600436106103d05760003560e01c80638757b15b116101ff578063bcd110141161011a578063e2ab691d116100ad578063f12297771161007c578063f1229777146107a1578063f2fde38b146107b4578063f8261597146107c7578063fc0e74d1146107da576103d0565b8063e2ab691d1461076b578063e432488d1461077e578063e70b9e2714610786578063ec5ffac214610799576103d0565b8063c6b61e4c116100e9578063c6b61e4c1461070f578063ca5c7b9114610730578063d3c45c7614610738578063dc01f60d1461074b576103d0565b8063bcd11014146106d9578063bf86d690146106ec578063c00007b0146106f4578063c1009f4b14610707576103d0565b80639dd373b911610192578063b187bc2211610161578063b187bc22146106ae578063b5c6b453146106b6578063b5ed7a66146106be578063b66503cf146106c6576103d0565b80639dd373b91461066d578063a81653c914610680578063a98e05bb14610693578063aa33fedb1461069b576103d0565b80638da5cb5b116101ce5780638da5cb5b1461064d57806395d89b411461065557806396ce07951461065d5780639bdc746714610665576103d0565b80638757b15b1461060c578063887c7dc5146106145780638980f11f146106275780638c9bd1b51461063a576103d0565b806359355736116102ef57806370b36d791161028257806375aadf611161025157806375aadf61146105e15780637bb7bed1146105e95780637bd48c7c146105fc578063829965cc14610604576103d0565b806370b36d79146105ab57806370e664cd146105be578063715018a6146105d157806372f702f3146105d9576103d0565b80636724c910116102be5780636724c9101461055f5780637035ab98146105725780637050ccd91461058557806370a0823114610598576103d0565b8063593557361461051e578063638634ee1461053157806363f1c8e214610544578063648bb8ad14610557576103d0565b806327e235e311610367578063313ce56711610336578063313ce567146104bd578063386a9525146104d257806339fc9713146104da57806348e5d9f8146104fa576103d0565b806327e235e31461046b5780632e9564e41461048d5780632fe8710814610495578063312ff839146104a8576103d0565b806318160ddd116103a357806318160ddd146104405780631c6073951461044857806322f80d111461045b578063236dcb6314610463576103d0565b806304554443146103d55780630483a7f6146103f357806306fdde03146104165780630c73373e1461042b575b600080fd5b6103dd6107e2565b6040516103ea91906147a6565b60405180910390f35b610406610401366004613e46565b6107e9565b6040516103ea94939291906147ce565b61041e6109af565b6040516103ea91906141aa565b610433610a45565b6040516103ea91906140a6565b6103dd610a5d565b6103dd610456366004614019565b610b33565b610433610c5f565b610433610c6e565b61047e610479366004613e46565b610c86565b6040516103ea9392919061475e565b6103dd610cbc565b6103dd6104a3366004613e46565b610cc2565b6104bb6104b6366004613f73565b610cf1565b005b6104c5610d3d565b6040516103ea9190614850565b6103dd610d61565b6104ed6104e8366004613e61565b610d68565b6040516103ea9190614169565b61050d610508366004613e46565b610d88565b6040516103ea959493929190614174565b6103dd61052c366004613e46565b610dd4565b6103dd61053f366004613e46565b610df8565b6104bb61055236600461403c565b610e26565b6103dd610eb3565b6104bb61056d366004613e95565b610eb9565b6103dd610580366004613e61565b610f5e565b6104bb610593366004613edf565b610f7b565b6103dd6105a6366004613e46565b6112e8565b6103dd6105b9366004613fe9565b61140c565b6104bb6105cc366004613fab565b61152e565b6104bb611572565b6104336115fb565b6103dd611613565b6104336105f7366004613fe9565b611619565b6103dd611640565b6103dd611646565b6104bb61164c565b6104bb610622366004613e46565b611712565b6104bb610635366004613f16565b611763565b6104bb61064836600461403c565b611878565b610433611913565b61041e611922565b6103dd611983565b6103dd611989565b6104bb61067b366004613e46565b61198f565b6104bb61068e36600461405d565b611a2f565b610433611b04565b61047e6106a9366004613f16565b611b13565b6103dd611b5f565b6103dd611b65565b6103dd611b6b565b6104bb6106d4366004613f16565b611b71565b6103dd6106e7366004613e46565b611e12565b6104ed611e48565b6104bb610702366004613e46565b611e51565b6104bb611e5f565b61072261071d366004613fe9565b611e67565b6040516103ea929190614787565b6103dd611e9c565b6104bb610746366004613e95565b611ea2565b61075e610759366004613e46565b611ff1565b6040516103ea9190614111565b6104bb610779366004613f40565b612132565b6103dd612333565b6103dd610794366004613e61565b612339565b6103dd612356565b6103dd6107af366004613e46565b61235c565b6104bb6107c2366004613e46565b612367565b6103dd6107d5366004613fe9565b612428565b6104bb6124d2565b629ce28081565b6001600160a01b0381166000908152600b60209081526040808320600a9092528220805483928392606092600160e01b900463ffffffff1684815b8454811015610997574285828154811061083a57fe5b600091825260209091200154600160e01b900463ffffffff16111561096157816108b757845481900367ffffffffffffffff8111801561087957600080fd5b506040519080825280602002602001820160405280156108b357816020015b6108a0613df8565b8152602001906001900390816108985790505b5095505b8481815481106108c357fe5b60009182526020918290206040805160608101825291909201546001600160701b038082168352600160701b8204169382019390935263ffffffff600160e01b9093049290921690820152865187908490811061091c57fe5b6020026020010181905250818060010192505061095a85828154811061093e57fe5b60009182526020909120015488906001600160701b031661267b565b965061098f565b61098c85828154811061097057fe5b60009182526020909120015489906001600160701b031661267b565b97505b600101610824565b505090546001600160701b0316955050509193509193565b60178054604080516020601f6002600019610100600188161502019095169490940493840181900481028201810190925282815260609390929091830182828015610a3b5780601f10610a1057610100808354040283529160200191610a3b565b820191906000526020600020905b815481529060010190602001808311610a1e57829003601f168201915b5050505050905090565b733fe65692bfcd0e6cf84cb1e7d24108e434a7587e81565b600080610a7762093a80610a714282612612565b90612644565b90506000610a8882629ce28061269e565b6009805491925083906000198301838110610a9f57fe5b600091825260209091200154600160e01b900463ffffffff161415610ac357600019015b60001981015b6001810115610b2c57600060098281548110610ae157fe5b60009182526020909120018054909150600160e01b900463ffffffff168410610b0a5750610b2c565b8054610b209087906001600160e01b031661267b565b95505060001901610ac9565b5050505090565b6001600160a01b0381166000908152600b602052604081206009805483919086908110610b5c57fe5b600091825260208220015463ffffffff600160e01b90910481169250610b89908390629ce2809061269e16565b90506000610b9e62093a80610a714282612612565b8454909150600019015b6001810115610c53576000610bec62093a80601102878481548110610bc957fe5b60009182526020909120015463ffffffff600160e01b9091048116919061269e16565b9050848111158015610bfd57508281105b15610c495783811115610c4357610c3c868381548110610c1957fe5b6000918252602090912001548890600160701b90046001600160701b031661267b565b9650610c49565b50610c53565b5060001901610ba8565b50505050505b92915050565b6013546001600160a01b031681565b7362b9c7356a2dc64a1969e19c23e4f579f9810aa781565b600a602052600090815260409020546001600160701b0380821691600160701b810490911690600160e01b900463ffffffff1683565b600e5481565b6001600160a01b0381166000908152600a6020526040902054600160701b90046001600160701b03165b919050565b60026000541415610d1d5760405162461bcd60e51b8152600401610d1490614625565b60405180910390fd5b6002600081905550610d3533826000333360006126c1565b506001600055565b7f000000000000000000000000000000000000000000000000000000000000000090565b62093a8081565b600460209081526000928352604080842090915290825290205460ff1681565b6003602052600090815260409020805460019091015460ff82169164ffffffffff61010082048116926001600160d01b03600160301b90930483169291811691600160281b9091041685565b6001600160a01b03166000908152600a60205260409020546001600160701b031690565b6001600160a01b038116600090815260036020526040812054610c5990610100900464ffffffffff16612d58565b610e2e612d64565b6001600160a01b0316610e3f611913565b6001600160a01b031614610e655760405162461bcd60e51b8152600401610d1490614462565b6101f4821115610e875760405162461bcd60e51b8152600401610d149061433a565b6002811015610ea85760405162461bcd60e51b8152600401610d14906144ce565b601491909155601555565b6101f481565b610ec1612d64565b6001600160a01b0316610ed2611913565b6001600160a01b031614610ef85760405162461bcd60e51b8152600401610d1490614462565b6001600160a01b03831660009081526003602052604090206001015464ffffffffff16610f2457600080fd5b6001600160a01b03928316600090815260046020908152604080832094909516825292909252919020805460ff1916911515919091179055565b600560209081526000928352604080842090915290825290205481565b60026000541415610f9e5760405162461bcd60e51b8152600401610d1490614625565b600260009081556001600160a01b0383168152600a6020526040812080548492600160701b9091046001600160701b0316905b60025481101561115d57600060028281548110610fea57fe5b6000918252602090912001546001600160a01b0316905061101261100d82612d68565b612e71565b6001600160a01b03821660009081526003602052604090206001810180546001600160d01b0393909316600160281b02600160281b600160f81b03199093169290921790915554611078906110739064ffffffffff61010090910416612d58565b612e9e565b6001600160a01b038281166000908152600360205260409020600101805464ffffffffff191664ffffffffff9390931692909217909155851615611154576001600160a01b0381166000908152600360205260409020546110f5908690839060ff166110ee5786546001600160701b03166110f0565b855b612ec5565b6001600160a01b0386811660008181526006602090815260408083209487168084529482528083209590955560038152848220600101549282526005815284822093825292909252919020600160281b9091046001600160d01b031690555b50600101610fd1565b50505060005b6002548110156112dd5760006002828154811061117c57fe5b60009182526020808320909101546001600160a01b0388811684526006835260408085209190921680855292529091205490915080156112d3576001600160a01b038087166000908152600660209081526040808320938616808452939091528120557362b9c7356a2dc64a1969e19c23e4f579f9810aa71480156111fe5750845b15611273576040516305dc812160e31b8152733fe65692bfcd0e6cf84cb1e7d24108e434a7587e90632ee409089061123c90899085906004016140f8565b600060405180830381600087803b15801561125657600080fd5b505af115801561126a573d6000803e3d6000fd5b50505050611287565b6112876001600160a01b0383168783612f3d565b816001600160a01b0316866001600160a01b03167f540798df468d7b23d11f156fdb954cb19ad414d150722a7b6d55ba369dea792e836040516112ca91906147a6565b60405180910390a35b5050600101611163565b505060016000555050565b6001600160a01b0381166000908152600b60209081526040808320600a90925290912080548254600160701b82046001600160701b0316939291600160e01b900463ffffffff1690815b818110156113ab574285828154811061134757fe5b600091825260209091200154600160e01b900463ffffffff161161139e5761139785828154811061137457fe5b6000918252602090912001548790600160701b90046001600160701b031661269e565b95506113a3565b6113ab565b600101611332565b5060006113bf62093a80610a714282612612565b90506000821180156113e85750806113e662093a80601102876001860381548110610bc957fe5b145b15611402576113ff85600184038154811061137457fe5b95505b5050505050919050565b60008061144d62093a80610a7162093a806009878154811061142a57fe5b60009182526020909120015463ffffffff600160e01b9091048116919061261216565b9050600061145e82629ce28061269e565b9050600061147362093a80610a714282612612565b9050806009868154811061148357fe5b600091825260209091200154600160e01b900463ffffffff1614156114aa57600019909401935b845b6001810115611525576000600982815481106114c457fe5b60009182526020909120018054909150600160e01b900463ffffffff1684106114ed5750611525565b611519600983815481106114fd57fe5b60009182526020909120015487906001600160e01b031661267b565b955050600019016114ac565b50505050919050565b600260005414156115515760405162461bcd60e51b8152600401610d1490614625565b6002600081905550611568338484843360006126c1565b5050600160005550565b61157a612d64565b6001600160a01b031661158b611913565b6001600160a01b0316146115b15760405162461bcd60e51b8152600401610d1490614462565b6001546040516000916001600160a01b0316907f8be0079c531659141344cd1fd0a4f28419497f9722a3daafe3b4186f6b6457e0908390a3600180546001600160a01b0319169055565b734e3fbd56cd56c3e72c1403e103b45db9da5b9d2b81565b60085481565b6002818154811061162657fe5b6000918252602090912001546001600160a01b0316905081565b600f5481565b60095490565b6116807362b9c7356a2dc64a1969e19c23e4f579f9810aa7733fe65692bfcd0e6cf84cb1e7d24108e434a7587e6000612f93565b6116b57362b9c7356a2dc64a1969e19c23e4f579f9810aa7733fe65692bfcd0e6cf84cb1e7d24108e434a7587e600019612f93565b6013546116e290734e3fbd56cd56c3e72c1403e103b45db9da5b9d2b906001600160a01b03166000612f93565b60135461171090734e3fbd56cd56c3e72c1403e103b45db9da5b9d2b906001600160a01b0316600019612f93565b565b600260005414156117355760405162461bcd60e51b8152600401610d1490614625565b6002600081905550610d3581600080843361175e60155462093a8061264490919063ffffffff16565b6126c1565b61176b612d64565b6001600160a01b031661177c611913565b6001600160a01b0316146117a25760405162461bcd60e51b8152600401610d1490614462565b6001600160a01b038216734e3fbd56cd56c3e72c1403e103b45db9da5b9d2b14156117df5760405162461bcd60e51b8152600401610d1490614497565b6001600160a01b03821660009081526003602052604090206001015464ffffffffff161561181f5760405162461bcd60e51b8152600401610d14906145ee565b61183b61182a611913565b6001600160a01b0384169083612f3d565b7f8c1256b8896378cd5044f80c202f9772b9d77dc85c8a6eb51967210b09bfaa28828260405161186c9291906140f8565b60405180910390a15050565b611880612d64565b6001600160a01b0316611891611913565b6001600160a01b0316146118b75760405162461bcd60e51b8152600401610d1490614462565b6127108211156118d95760405162461bcd60e51b8152600401610d149061454a565b6127108111156118fb5760405162461bcd60e51b8152600401610d149061465c565b6011829055601281905561190f6000613056565b5050565b6001546001600160a01b031690565b60188054604080516020601f6002600019610100600188161502019095169490940493840181900481028201810190925282815260609390929091830182828015610a3b5780601f10610a1057610100808354040283529160200191610a3b565b61271081565b60145481565b611997612d64565b6001600160a01b03166119a8611913565b6001600160a01b0316146119ce5760405162461bcd60e51b8152600401610d1490614462565b6013546001600160a01b031615806119f157506011541580156119f15750601254155b611a0d5760405162461bcd60e51b8152600401610d1490614441565b601380546001600160a01b0319166001600160a01b0392909216919091179055565b611a37612d64565b6001600160a01b0316611a48611913565b6001600160a01b031614611a6e5760405162461bcd60e51b8152600401610d1490614462565b6105dc600d5410611a915760405162461bcd60e51b8152600401610d1490614310565b617530600e5410611ab45760405162461bcd60e51b8152600401610d149061433a565b6001600160a01b038116611ada5760405162461bcd60e51b8152600401610d1490614387565b600f92909255601055600c80546001600160a01b0319166001600160a01b03909216919091179055565b600c546001600160a01b031681565b600b6020528160005260406000208181548110611b2c57fe5b6000918252602090912001546001600160701b038082169350600160701b8204169150600160e01b900463ffffffff1683565b600d5481565b60125481565b60105481565b6000808052600a6020527f13da86008ba1c6922daee3e07db95305ef49ebced9f5467a0b8613fcc6b343e38054600160701b90046001600160701b0316825b600254811015611d2b57600060028281548110611bc957fe5b6000918252602090912001546001600160a01b03169050611bec61100d82612d68565b6001600160a01b03821660009081526003602052604090206001810180546001600160d01b0393909316600160281b02600160281b600160f81b03199093169290921790915554611c4d906110739064ffffffffff61010090910416612d58565b6001600160a01b038281166000908152600360205260409020600101805464ffffffffff191664ffffffffff9390931692909217909155851615611d22576001600160a01b038116600090815260036020526040902054611cc3908690839060ff166110ee5786546001600160701b03166110f0565b6001600160a01b0386811660008181526006602090815260408083209487168084529482528083209590955560038152848220600101549282526005815284822093825292909252919020600160281b9091046001600160d01b031690555b50600101611bb0565b5050506001600160a01b038316600090815260046020908152604080832033845290915290205460ff16611d5e57600080fd5b60008211611d7e5760405162461bcd60e51b8152600401610d149061441e565b611d888383613340565b611d9d6001600160a01b038416333085613473565b826001600160a01b03167fac24935fd910bc682b5ccb1a07b718cadf8cf2f6d1404c4f3ddc3662dae40e2983604051611dd691906147a6565b60405180910390a26001600160a01b0383167362b9c7356a2dc64a1969e19c23e4f579f9810aa71415611e0d57611e0d6000613056565b505050565b6001600160a01b038116600090815260036020526040812054610c5990600160301b90046001600160d01b031662093a80612644565b60165460ff1681565b611e5c816000610f7b565b50565b61171061349a565b60098181548110611e7457fe5b6000918252602090912001546001600160e01b0381169150600160e01b900463ffffffff1682565b60075481565b611eaa612d64565b6001600160a01b0316611ebb611913565b6001600160a01b031614611ee15760405162461bcd60e51b8152600401610d1490614462565b6001600160a01b03831660009081526003602052604090206001015464ffffffffff1615611f0e57600080fd5b6001600160a01b038316734e3fbd56cd56c3e72c1403e103b45db9da5b9d2b1415611f3857600080fd5b6002805460018082019092557f405787fa12a823e0f2b7631cc41b3ba8828b3321ca811111fa75cd3aa3bb5ace0180546001600160a01b0319166001600160a01b039586169081179091556000908152600360209081526040808320808501805464ffffffffff19164264ffffffffff16908117909155815465ffffffffff0019166101009091021760ff1990811696151596909617905560048252808320959096168252939093529290912080549091169091179055565b60025460609067ffffffffffffffff8111801561200d57600080fd5b5060405190808252806020026020018201604052801561204757816020015b612034613e18565b81526020019060019003908161202c5790505b506001600160a01b0383166000908152600a60205260408120805492935091600160701b90046001600160701b0316905b835181101561212a5760006002828154811061209057fe5b9060005260206000200160009054906101000a90046001600160a01b03169050808583815181106120bd57fe5b6020908102919091018101516001600160a01b039283169052908216600090815260039091526040902054612107908790839060ff166110ee5786546001600160701b03166110f0565b85838151811061211357fe5b602090810291909101810151015250600101612078565b505050919050565b600260005414156121555760405162461bcd60e51b8152600401610d1490614625565b600260009081556001600160a01b0384168152600a6020526040812080548592600160701b9091046001600160701b0316905b600254811015612303576000600282815481106121a157fe5b6000918252602090912001546001600160a01b031690506121c461100d82612d68565b6001600160a01b03821660009081526003602052604090206001810180546001600160d01b0393909316600160281b02600160281b600160f81b03199093169290921790915554612225906110739064ffffffffff61010090910416612d58565b6001600160a01b038281166000908152600360205260409020600101805464ffffffffff191664ffffffffff93909316929092179091558516156122fa576001600160a01b03811660009081526003602052604090205461229b908690839060ff166110ee5786546001600160701b03166110f0565b6001600160a01b0386811660008181526006602090815260408083209487168084529482528083209590955560038152848220600101549282526005815284822093825292909252919020600160281b9091046001600160d01b031690555b50600101612188565b506123289150734e3fbd56cd56c3e72c1403e103b45db9da5b9d2b9050333086613473565b6112dd848484613601565b60155481565b600660209081526000928352604080842090915290825290205481565b60115481565b6000610c5982612d68565b61236f612d64565b6001600160a01b0316612380611913565b6001600160a01b0316146123a65760405162461bcd60e51b8152600401610d1490614462565b6001600160a01b0381166123cc5760405162461bcd60e51b8152600401610d149061427a565b6001546040516001600160a01b038084169216907f8be0079c531659141344cd1fd0a4f28419497f9722a3daafe3b4186f6b6457e090600090a3600180546001600160a01b0319166001600160a01b0392909216919091179055565b600954600090600019018161244462093a80610a718682612612565b935060005b60808110156124ca5782821061245e576124ca565b6000600260018486010104905060006009828154811061247a57fe5b600091825260209091200154600160e01b900463ffffffff169050868114156124a957509350610cec92505050565b868110156124b9578193506124c0565b6001820394505b5050600101612449565b509392505050565b6124da612d64565b6001600160a01b03166124eb611913565b6001600160a01b0316146125115760405162461bcd60e51b8152600401610d1490614462565b6013546001600160a01b0316156126035760135460408051629032ff60e51b815290516000926001600160a01b0316916312065fe0916004808301926020929190829003018186803b15801561256657600080fd5b505afa15801561257a573d6000803e3d6000fd5b505050506040513d601f19601f8201168201806040525081019061259e9190614001565b601354604051632e1a7d4d60e01b81529192506001600160a01b031690632e1a7d4d906125cf9084906004016147a6565b600060405180830381600087803b1580156125e957600080fd5b505af11580156125fd573d6000803e3d6000fd5b50505050505b6016805460ff19166001179055565b60008082116126335760405162461bcd60e51b8152600401610d1490614243565b81838161263c57fe5b049392505050565b600081158061265f5750508082028282828161265c57fe5b04145b610c595760405162461bcd60e51b8152600401610d14906146d5565b81810181811015610c595760405162461bcd60e51b8152600401610d14906143b0565b80820382811115610c595760405162461bcd60e51b8152600401610d14906141dd565b6001600160a01b0386166000908152600a6020526040812080548892600160701b9091046001600160701b0316905b60025481101561286b5760006002828154811061270957fe5b6000918252602090912001546001600160a01b0316905061272c61100d82612d68565b6001600160a01b03821660009081526003602052604090206001810180546001600160d01b0393909316600160281b02600160281b600160f81b0319909316929092179091555461278d906110739064ffffffffff61010090910416612d58565b6001600160a01b038281166000908152600360205260409020600101805464ffffffffff191664ffffffffff9390931692909217909155851615612862576001600160a01b038116600090815260036020526040902054612803908690839060ff166110ee5786546001600160701b03166110f0565b6001600160a01b0386811660008181526006602090815260408083209487168084529482528083209590955560038152848220600101549282526005815284822093825292909252919020600160281b9091046001600160d01b031690555b506001016126f0565b5050506001600160a01b0387166000908152600b60209081526040808320600a9092528220815460165492939192829190829060ff16806128dc57506128b1428961269e565b8660018403815481106128c057fe5b600091825260209091200154600160e01b900463ffffffff1611155b156129ef5784546001600160701b038082169550600160701b90910416925061290482613a55565b855463ffffffff91909116600160e01b026001600160e01b0390911617855587156129ea57600061294662093a80610a7181612940428e61269e565b90612612565b9050600061298762093a806129408a600188038154811061296357fe5b600091825260209091200154859063ffffffff600160e01b90910481169061269e16565b905060006129ae6129a68360010160145461264490919063ffffffff16565b612710613a7b565b90506129e4612710612940838c60018a03815481106129c957fe5b6000918252602090912001546001600160701b031690612644565b93505050505b612b5d565b8454600160e01b900463ffffffff16805b83811015612b3d57612a12428b61269e565b888281548110612a1e57fe5b600091825260209091200154600160e01b900463ffffffff161115612a4257612b3d565b612a6f888281548110612a5157fe5b6000918252602090912001546001600160701b038881169116613a91565b9550612aa5888281548110612a8057fe5b6000918252602090912001546001600160701b0387811691600160701b900416613a91565b94508915612b31576000612ad062093a80610a7162093a806129408f4261269e90919063ffffffff16565b90506000612aea62093a806129408c868154811061296357fe5b90506000612b096129a68360010160145461264490919063ffffffff16565b9050612b2b612b24612710612940848f89815481106129c957fe5b879061267b565b95505050505b60019182019101612a00565b50855463ffffffff909116600160e01b026001600160e01b039091161785555b6000846001600160701b031611612b865760405162461bcd60e51b8152600401610d1490614361565b8454612b9b906001600160701b031685613ac0565b85546001600160701b0319166001600160701b0391821617808755612bc991600160701b9091041684613ac0565b8554600160701b600160e01b031916600160701b6001600160701b0392831602178655600754612bfa91861661269e565b600755600854612c13906001600160701b03851661269e565b6008819055508c6001600160a01b03167f2fd83d5e9f5d240bed47a97a24cf354e4047e25edc2da27b01fd95e5e8a0c9a5858e604051612c54929190614743565b60405180910390a28015612cee57612c74846001600160701b0316613aef565b612c90612c8082613bf0565b6001600160701b03861690613ac0565b9350612c9e89826000613c19565b8c6001600160a01b0316896001600160a01b03167f7e7ff29ed04cfb223bc9b02606f69520517c117ee82c9158ed2d96323c1ef38583604051612ce191906147a6565b60405180910390a3612d15565b8a15612d1557612d15612d106127106129406001600160701b0388168f612644565b613aef565b8b15612d3457612d2f8a856001600160701b03168d613601565b612d49565b612d498a856001600160701b03166001613c19565b50505050505050505050505050565b6000610c594283613a7b565b3390565b600060085460001415612da757506001600160a01b038116600090815260036020526040902060010154600160281b90046001600160d01b0316610cec565b6001600160a01b038216600090815260036020526040902054610c5990612e3f9060ff16612dd757600754612ddb565b6008545b6001600160a01b0385166000908152600360205260409020805460019091015461294091670de0b6b3a764000091610a71916001600160d01b03600160301b82041691839164ffffffffff91821691612e3991610100900416612d58565b9061269e565b6001600160a01b038416600090815260036020526040902060010154600160281b90046001600160d01b03169061267b565b60006001600160d01b03821115612e9a5760405162461bcd60e51b8152600401610d149061420c565b5090565b600064ffffffffff821115612e9a5760405162461bcd60e51b8152600401610d149061470c565b6001600160a01b038084166000818152600660209081526040808320948716808452948252808320549383526005825280832094835293905291822054612f339190612f2d90670de0b6b3a76400009061294090612f2690612e398a612d68565b8790612644565b9061267b565b90505b9392505050565b611e0d8363a9059cbb60e01b8484604051602401612f5c9291906140f8565b60408051601f198184030181529190526020810180516001600160e01b03166001600160e01b031990931692909217909152613c51565b80158061301b5750604051636eb1769f60e11b81526001600160a01b0384169063dd62ed3e90612fc990309086906004016140ba565b60206040518083038186803b158015612fe157600080fd5b505afa158015612ff5573d6000803e3d6000fd5b505050506040513d601f19601f820116820180604052508101906130199190614001565b155b6130375760405162461bcd60e51b8152600401610d149061467f565b611e0d8363095ea7b360e01b8484604051602401612f5c9291906140f8565b60165460ff161561306657611e5c565b6040516370a0823160e01b8152600090734e3fbd56cd56c3e72c1403e103b45db9da5b9d2b906370a08231906130a09030906004016140a6565b60206040518083038186803b1580156130b857600080fd5b505afa1580156130cc573d6000803e3d6000fd5b505050506040513d601f19601f820116820180604052508101906130f09190614001565b90506000601360009054906101000a90046001600160a01b03166001600160a01b03166312065fe06040518163ffffffff1660e01b815260040160206040518083038186803b15801561314257600080fd5b505afa158015613156573d6000803e3d6000fd5b505050506040513d601f19601f8201168201806040525081019061317a9190614001565b90506000613188838361267b565b90508061319757505050611e5c565b60006131a98261294085612710612644565b905060006131c9600261294060115460125461267b90919063ffffffff16565b905060006131e28760125461267b90919063ffffffff16565b905060006131f66011548960115403613a7b565b90508184111561328557600061321c6132156127106129408988612644565b889061269e565b601354604051632e1a7d4d60e01b81529192506001600160a01b031690632e1a7d4d9061324d9084906004016147a6565b600060405180830381600087803b15801561326757600080fd5b505af115801561327b573d6000803e3d6000fd5b5050505050613336565b808410156133365760006132a387612e396127106129408a89612644565b6013549091506132d290734e3fbd56cd56c3e72c1403e103b45db9da5b9d2b906001600160a01b031683612f3d565b601360009054906101000a90046001600160a01b03166001600160a01b0316633a4b66f16040518163ffffffff1660e01b8152600401600060405180830381600087803b15801561332257600080fd5b505af1158015612d49573d6000803e3d6000fd5b5050505050505050565b6001600160a01b03821660009081526003602052604090208054610100900464ffffffffff1642106133a25761337c61100d8362093a80612612565b81546001600160d01b0391909116600160301b0265ffffffffffff90911617815561341a565b80546000906133bd90610100900464ffffffffff164261269e565b82549091506000906133e0908390600160301b90046001600160d01b0316612644565b90506133f661100d62093a80612940878561267b565b83546001600160d01b0391909116600160301b0265ffffffffffff90911617835550505b61342342612e9e565b60018201805464ffffffffff191664ffffffffff929092169190911790556134516110734262093a8061267b565b815464ffffffffff919091166101000265ffffffffff00199091161790555050565b613494846323b872dd60e01b858585604051602401612f5c939291906140d4565b50505050565b60006134ad62093a80610a714282612612565b60098054919250829060001983018381106134c457fe5b600091825260209091200154600160e01b900463ffffffff16101561190f575b6009805483919060001981019081106134f957fe5b600091825260209091200154600160e01b900463ffffffff16146135da57600061355862093a8060096001600980549050038154811061353557fe5b60009182526020909120015463ffffffff600160e01b9091048116919061267b16565b60408051808201909152600080825263ffffffff9283166020830190815260098054600181018255925291517f6e1540171b6c0c960b71a7020d9f60077f6af931a8bbf590da0223dacf75c7af90910180549251909316600160e01b026001600160e01b039182166001600160e01b03199093169290921716179055506134e4565b601054600e54146135ec57601054600e555b600f54600d541461190f57600f54600d555050565b600082116136215760405162461bcd60e51b8152600401610d14906142c0565b600d548111156136435760405162461bcd60e51b8152600401610d14906142e8565b60165460ff16156136665760405162461bcd60e51b8152600401610d14906144f1565b6001600160a01b0383166000908152600a6020526040902061368661349a565b60006136986127106129408686612644565b905060006136c1600d546000146136b157600d546136b4565b60015b600e546129409087612644565b905060006136d76136d2878561269e565b613bf0565b905060006136f86136d26136f16127106129408b88612644565b899061267b565b8554909150613710906001600160701b031683613a91565b85546001600160701b0319166001600160701b039182161780875561373e91600160701b9091041682613a91565b8554600160701b600160e01b031916600160701b6001600160701b039283160217865560075461376f91841661267b565b600755600854613788906001600160701b03831661267b565b600855600061379e62093a80610a714282612612565b905060006137af82629ce28061267b565b6001600160a01b038b166000908152600b602052604090205490915080158061381957506001600160a01b038b166000908152600b60205260409020805483919060001984019081106137fe57fe5b600091825260209091200154600160e01b900463ffffffff16105b156138c8576001600160a01b038b166000908152600b6020908152604080832081516060810183526001600160701b03808b16825289811682860190815263ffffffff808a16958401958652845460018101865594885295909620915191909201805495519351909416600160e01b026001600160e01b03938316600160701b02600160701b600160e01b0319929093166001600160701b031990961695909517161716919091179055613968565b6001600160a01b038b166000908152600b60205260408120805460001984019081106138f057fe5b60009182526020909120018054909150613913906001600160701b031687613a91565b81546001600160701b0319166001600160701b039182161780835561394191600160701b9091041686613a91565b81546001600160701b0391909116600160701b02600160701b600160e01b03199091161790555b6009805460009190600019810190811061397e57fe5b600091825260209091200180549091506139aa906001600160e01b03166001600160701b038716613ce0565b81546001600160e01b0319166001600160e01b039190911617815587156139f757600c546139f790734e3fbd56cd56c3e72c1403e103b45db9da5b9d2b906001600160a01b03168a612f3d565b613a026101f4613056565b8b6001600160a01b03167fb4caaf29adda3eefee3ad552a8e85058589bf834c7466cae4ee58787f70589ed8c8888604051613a3f939291906147af565b60405180910390a2505050505050505050505050565b600063ffffffff821115612e9a5760405162461bcd60e51b8152600401610d149061456d565b6000818310613a8a5781612f36565b5090919050565b8181016001600160701b038083169082161015610c595760405162461bcd60e51b8152600401610d14906143b0565b8082036001600160701b038084169082161115610c595760405162461bcd60e51b8152600401610d14906141dd565b6040516370a0823160e01b8152600090734e3fbd56cd56c3e72c1403e103b45db9da5b9d2b906370a0823190613b299030906004016140a6565b60206040518083038186803b158015613b4157600080fd5b505afa158015613b55573d6000803e3d6000fd5b505050506040513d601f19601f82011682018060405250810190613b799190614001565b90508082111561190f576013546001600160a01b0316632e1a7d4d613b9e848461269e565b6040518263ffffffff1660e01b8152600401613bba91906147a6565b600060405180830381600087803b158015613bd457600080fd5b505af1158015613be8573d6000803e3d6000fd5b505050505050565b60006001600160701b03821115612e9a5760405162461bcd60e51b8152600401610d14906143e7565b613c2282613aef565b613c41734e3fbd56cd56c3e72c1403e103b45db9da5b9d2b8484612f3d565b8015611e0d57611e0d6000613056565b6060613ca6826040518060400160405280602081526020017f5361666545524332303a206c6f772d6c6576656c2063616c6c206661696c6564815250856001600160a01b0316613d0f9092919063ffffffff16565b805190915015611e0d5780806020019051810190613cc49190613f8f565b611e0d5760405162461bcd60e51b8152600401610d14906145a4565b8181016001600160e01b038083169082161015610c595760405162461bcd60e51b8152600401610d14906143b0565b6060612f33848460008585613d2385613db9565b613d3f5760405162461bcd60e51b8152600401610d1490614513565b60006060866001600160a01b03168587604051613d5c919061408a565b60006040518083038185875af1925050503d8060008114613d99576040519150601f19603f3d011682016040523d82523d6000602084013e613d9e565b606091505b5091509150613dae828286613dbf565b979650505050505050565b3b151590565b60608315613dce575081612f36565b825115613dde5782518084602001fd5b8160405162461bcd60e51b8152600401610d1491906141aa565b604080516060810182526000808252602082018190529181019190915290565b604080518082019091526000808252602082015290565b80356001600160a01b0381168114610c5957600080fd5b600060208284031215613e57578081fd5b612f368383613e2f565b60008060408385031215613e73578081fd5b613e7d8484613e2f565b9150613e8c8460208501613e2f565b90509250929050565b600080600060608486031215613ea9578081fd5b8335613eb48161488a565b92506020840135613ec48161488a565b91506040840135613ed48161489f565b809150509250925092565b60008060408385031215613ef1578182fd5b613efb8484613e2f565b91506020830135613f0b8161489f565b809150509250929050565b60008060408385031215613f28578182fd5b613f328484613e2f565b946020939093013593505050565b600080600060608486031215613f54578283fd5b613f5e8585613e2f565b95602085013595506040909401359392505050565b600060208284031215613f84578081fd5b8135612f368161489f565b600060208284031215613fa0578081fd5b8151612f368161489f565b600080600060608486031215613fbf578283fd5b8335613fca8161489f565b925060208401359150613fe08560408601613e2f565b90509250925092565b600060208284031215613ffa578081fd5b5035919050565b600060208284031215614012578081fd5b5051919050565b6000806040838503121561402b578182fd5b82359150613e8c8460208501613e2f565b6000806040838503121561404e578182fd5b50508035926020909101359150565b600080600060608486031215614071578283fd5b83359250602084013591506040840135613ed48161488a565b6000825161409c81846020870161485e565b9190910192915050565b6001600160a01b0391909116815260200190565b6001600160a01b0392831681529116602082015260400190565b6001600160a01b039384168152919092166020820152604081019190915260600190565b6001600160a01b03929092168252602082015260400190565b602080825282518282018190526000919060409081850190868401855b8281101561415c57815180516001600160a01b0316855286015186850152928401929085019060010161412e565b5091979650505050505050565b901515815260200190565b941515855264ffffffffff93841660208601526001600160d01b0392831660408601529216606084015216608082015260a00190565b60006020825282518060208401526141c981604085016020870161485e565b601f01601f19169190910160400192915050565b602080825260159082015274426f72696e674d6174683a20556e646572666c6f7760581b604082015260600190565b6020808252601c908201527f426f72696e674d6174683a2075696e74323038204f766572666c6f7700000000604082015260600190565b6020808252601c908201527f426f72696e674d6174683a206469766973696f6e206279207a65726f00000000604082015260600190565b60208082526026908201527f4f776e61626c653a206e6577206f776e657220697320746865207a65726f206160408201526564647265737360d01b606082015260800190565b6020808252600e908201526d043616e6e6f74207374616b6520360941b604082015260600190565b6020808252600e908201526d1bdd995c881b585e081cdc195b9960921b604082015260600190565b60208082526010908201526f1bdd995c881b585e081c185e5b595b9d60821b604082015260600190565b6020808252600d908201526c6f766572206d6178207261746560981b604082015260600190565b6020808252600c908201526b6e6f20657870206c6f636b7360a01b604082015260600190565b6020808252600f908201526e696e76616c6964206164647265737360881b604082015260600190565b60208082526018908201527f426f72696e674d6174683a20416464204f766572666c6f770000000000000000604082015260600190565b6020808252601c908201527f426f72696e674d6174683a2075696e74313132204f766572666c6f7700000000604082015260600190565b602080825260099082015268139bc81c995dd85c9960ba1b604082015260600190565b60208082526007908201526610b0b9b9b4b3b760c91b604082015260600190565b6020808252818101527f4f776e61626c653a2063616c6c6572206973206e6f7420746865206f776e6572604082015260600190565b6020808252601d908201527f43616e6e6f74207769746864726177207374616b696e6720746f6b656e000000604082015260600190565b6020808252600990820152686d696e2064656c617960b81b604082015260600190565b60208082526008908201526739b43aba3237bbb760c11b604082015260600190565b6020808252601d908201527f416464726573733a2063616c6c20746f206e6f6e2d636f6e7472616374000000604082015260600190565b6020808252600990820152686d696e2072616e676560b81b604082015260600190565b6020808252601b908201527f426f72696e674d6174683a2075696e743332204f766572666c6f770000000000604082015260600190565b6020808252602a908201527f5361666545524332303a204552433230206f7065726174696f6e20646964206e6040820152691bdd081cdd58d8d9595960b21b606082015260800190565b6020808252601c908201527f43616e6e6f742077697468647261772072657761726420746f6b656e00000000604082015260600190565b6020808252601f908201527f5265656e7472616e637947756172643a207265656e7472616e742063616c6c00604082015260600190565b6020808252600990820152686d61782072616e676560b81b604082015260600190565b60208082526036908201527f5361666545524332303a20617070726f76652066726f6d206e6f6e2d7a65726f60408201527520746f206e6f6e2d7a65726f20616c6c6f77616e636560501b606082015260800190565b60208082526018908201527f426f72696e674d6174683a204d756c204f766572666c6f770000000000000000604082015260600190565b6020808252601b908201527f426f72696e674d6174683a2075696e743430204f766572666c6f770000000000604082015260600190565b6001600160701b039290921682521515602082015260400190565b6001600160701b03938416815291909216602082015263ffffffff909116604082015260600190565b6001600160e01b0392909216825263ffffffff16602082015260400190565b90815260200190565b9283526001600160701b03918216602084015216604082015260600190565b6000608082018683526020868185015260408681860152606060808187015283875180865260a0880191508489019550865b8181101561483f57865180516001600160701b03908116855287820151168785015285015163ffffffff16858401529585019591830191600101614800565b50909b9a5050505050505050505050565b60ff91909116815260200190565b60005b83811015614879578181015183820152602001614861565b838111156134945750506000910152565b6001600160a01b0381168114611e5c57600080fd5b8015158114611e5c57600080fdfea2646970667358221220af5bcd6d5bce4c468df494f715993d3ea231c1663b7998bdc7470931e7ee5b0f64736f6c634300060c0033",
  "immutableReferences": {
    "12632": [
      {
        "length": 32,
        "start": 3391
      }
    ]
  },
  "source": "// SPDX-License-Identifier: MIT\npragma solidity 0.6.12;\npragma experimental ABIEncoderV2;\n\nimport \"./libraries/MathUtil.sol\";\nimport \"./interfaces/IStakingProxy.sol\";\nimport \"./interfaces/IRewardStaking.sol\";\nimport \"./libraries/BoringMath.sol\";\nimport \"@openzeppelin/contracts/token/ERC20/IERC20.sol\";\nimport \"@openzeppelin/contracts/token/ERC20/SafeERC20.sol\";\nimport \"@openzeppelin/contracts/math/Math.sol\";\nimport \"@openzeppelin/contracts/access/Ownable.sol\";\nimport \"@openzeppelin/contracts/utils/ReentrancyGuard.sol\";\n\n// MUUU locked in this contract will be entitled to voting rights for the Muuu Finance platform\n// Based on EPS Staking contract for http://ellipsis.finance/\n// Based on SNX MultiRewards by iamdefinitelyahuman - https://github.com/iamdefinitelyahuman/multi-rewards\ncontract MuuuLocker is ReentrancyGuard, Ownable {\n  using BoringMath for uint256;\n  using BoringMath224 for uint224;\n  using BoringMath112 for uint112;\n  using BoringMath32 for uint32;\n  using SafeERC20 for IERC20;\n\n  /* ========== STATE VARIABLES ========== */\n\n  struct Reward {\n    bool useBoost;\n    uint40 periodFinish;\n    uint208 rewardRate;\n    uint40 lastUpdateTime;\n    uint208 rewardPerTokenStored;\n  }\n  struct Balances {\n    uint112 locked;\n    uint112 boosted;\n    uint32 nextUnlockIndex;\n  }\n  struct LockedBalance {\n    uint112 amount;\n    uint112 boosted;\n    uint32 unlockTime;\n  }\n  struct EarnedData {\n    address token;\n    uint256 amount;\n  }\n  struct Epoch {\n    uint224 supply; //epoch boosted supply\n    uint32 date; //epoch start date\n  }\n\n  //token constants\n  IERC20 public constant stakingToken = IERC20(0x4e3FBD56CD56c3e72c1403e103b45Db9da5B9D2B); //muuu\n  address public constant muKgl = address(0x62B9c7356A2Dc64a1969e19C23e4f579F9810Aa7);\n\n  //rewards\n  address[] public rewardTokens;\n  mapping(address => Reward) public rewardData;\n\n  // Duration that rewards are streamed over\n  uint256 public constant rewardsDuration = 86400 * 7;\n\n  // Duration of lock/earned penalty period\n  uint256 public constant lockDuration = rewardsDuration * 17;\n\n  // reward token -> distributor -> is approved to add rewards\n  mapping(address => mapping(address => bool)) public rewardDistributors;\n\n  // user -> reward token -> amount\n  mapping(address => mapping(address => uint256)) public userRewardPerTokenPaid;\n  mapping(address => mapping(address => uint256)) public rewards;\n\n  //supplies and epochs\n  uint256 public lockedSupply;\n  uint256 public boostedSupply;\n  Epoch[] public epochs;\n\n  //mappings for balance data\n  mapping(address => Balances) public balances;\n  mapping(address => LockedBalance[]) public userLocks;\n\n  //boost\n  address public boostPayment = address(0x1389388d01708118b497f59521f6943Be2541bb7);\n  uint256 public maximumBoostPayment = 0;\n  uint256 public boostRate = 10000;\n  uint256 public nextMaximumBoostPayment = 0;\n  uint256 public nextBoostRate = 10000;\n  uint256 public constant denominator = 10000;\n\n  //staking\n  uint256 public minimumStake = 10000;\n  uint256 public maximumStake = 10000;\n  address public stakingProxy;\n  address public constant mukglStaking = address(0x3Fe65692bfCD0e6CF84cB1E7d24108E434A7587e);\n  uint256 public constant stakeOffsetOnLock = 500; //allow broader range for staking when depositing\n\n  //management\n  uint256 public kickRewardPerEpoch = 100;\n  uint256 public kickRewardEpochDelay = 4;\n\n  //shutdown\n  bool public isShutdown = false;\n\n  //erc20-like interface\n  string private _name;\n  string private _symbol;\n  uint8 private immutable _decimals;\n\n  /* ========== CONSTRUCTOR ========== */\n\n  constructor() public Ownable() {\n    _name = \"Vote Locked Muuu Token\";\n    _symbol = \"vlMUUU\";\n    _decimals = 18;\n\n    uint256 currentEpoch = block.timestamp.div(rewardsDuration).mul(rewardsDuration);\n    epochs.push(Epoch({ supply: 0, date: uint32(currentEpoch) }));\n  }\n\n  function decimals() public view returns (uint8) {\n    return _decimals;\n  }\n\n  function name() public view returns (string memory) {\n    return _name;\n  }\n\n  function symbol() public view returns (string memory) {\n    return _symbol;\n  }\n\n  /* ========== ADMIN CONFIGURATION ========== */\n\n  // Add a new reward token to be distributed to stakers\n  function addReward(\n    address _rewardsToken,\n    address _distributor,\n    bool _useBoost\n  ) public onlyOwner {\n    require(rewardData[_rewardsToken].lastUpdateTime == 0);\n    require(_rewardsToken != address(stakingToken));\n    rewardTokens.push(_rewardsToken);\n    rewardData[_rewardsToken].lastUpdateTime = uint40(block.timestamp);\n    rewardData[_rewardsToken].periodFinish = uint40(block.timestamp);\n    rewardData[_rewardsToken].useBoost = _useBoost;\n    rewardDistributors[_rewardsToken][_distributor] = true;\n  }\n\n  // Modify approval for an address to call notifyRewardAmount\n  function approveRewardDistributor(\n    address _rewardsToken,\n    address _distributor,\n    bool _approved\n  ) external onlyOwner {\n    require(rewardData[_rewardsToken].lastUpdateTime > 0);\n    rewardDistributors[_rewardsToken][_distributor] = _approved;\n  }\n\n  //Set the staking contract for the underlying muuu. only allow change if nothing is currently staked\n  function setStakingContract(address _staking) external onlyOwner {\n    require(stakingProxy == address(0) || (minimumStake == 0 && maximumStake == 0), \"!assign\");\n\n    stakingProxy = _staking;\n  }\n\n  //set staking limits. will stake the mean of the two once either ratio is crossed\n  function setStakeLimits(uint256 _minimum, uint256 _maximum) external onlyOwner {\n    require(_minimum <= denominator, \"min range\");\n    require(_maximum <= denominator, \"max range\");\n    minimumStake = _minimum;\n    maximumStake = _maximum;\n    updateStakeRatio(0);\n  }\n\n  //set boost parameters\n  function setBoost(\n    uint256 _max,\n    uint256 _rate,\n    address _receivingAddress\n  ) external onlyOwner {\n    require(maximumBoostPayment < 1500, \"over max payment\"); //max 15%\n    require(boostRate < 30000, \"over max rate\"); //max 3x\n    require(_receivingAddress != address(0), \"invalid address\"); //must point somewhere valid\n    nextMaximumBoostPayment = _max;\n    nextBoostRate = _rate;\n    boostPayment = _receivingAddress;\n  }\n\n  //set kick incentive\n  function setKickIncentive(uint256 _rate, uint256 _delay) external onlyOwner {\n    require(_rate <= 500, \"over max rate\"); //max 5% per epoch\n    require(_delay >= 2, \"min delay\"); //minimum 2 epochs of grace\n    kickRewardPerEpoch = _rate;\n    kickRewardEpochDelay = _delay;\n  }\n\n  //shutdown the contract. unstake all tokens. release all locks\n  function shutdown() external onlyOwner {\n    if (stakingProxy != address(0)) {\n      uint256 stakeBalance = IStakingProxy(stakingProxy).getBalance();\n      IStakingProxy(stakingProxy).withdraw(stakeBalance);\n    }\n    isShutdown = true;\n  }\n\n  //set approvals for staking muuu and mukgl\n  function setApprovals() external {\n    IERC20(muKgl).safeApprove(mukglStaking, 0);\n    IERC20(muKgl).safeApprove(mukglStaking, uint256(-1));\n\n    IERC20(stakingToken).safeApprove(stakingProxy, 0);\n    IERC20(stakingToken).safeApprove(stakingProxy, uint256(-1));\n  }\n\n  /* ========== VIEWS ========== */\n\n  function _rewardPerToken(address _rewardsToken) internal view returns (uint256) {\n    if (boostedSupply == 0) {\n      return rewardData[_rewardsToken].rewardPerTokenStored;\n    }\n    return\n      uint256(rewardData[_rewardsToken].rewardPerTokenStored).add(\n        _lastTimeRewardApplicable(rewardData[_rewardsToken].periodFinish)\n          .sub(rewardData[_rewardsToken].lastUpdateTime)\n          .mul(rewardData[_rewardsToken].rewardRate)\n          .mul(1e18)\n          .div(rewardData[_rewardsToken].useBoost ? boostedSupply : lockedSupply)\n      );\n  }\n\n  function _earned(\n    address _user,\n    address _rewardsToken,\n    uint256 _balance\n  ) internal view returns (uint256) {\n    return\n      _balance\n        .mul(_rewardPerToken(_rewardsToken).sub(userRewardPerTokenPaid[_user][_rewardsToken]))\n        .div(1e18)\n        .add(rewards[_user][_rewardsToken]);\n  }\n\n  function _lastTimeRewardApplicable(uint256 _finishTime) internal view returns (uint256) {\n    return Math.min(block.timestamp, _finishTime);\n  }\n\n  function lastTimeRewardApplicable(address _rewardsToken) public view returns (uint256) {\n    return _lastTimeRewardApplicable(rewardData[_rewardsToken].periodFinish);\n  }\n\n  function rewardPerToken(address _rewardsToken) external view returns (uint256) {\n    return _rewardPerToken(_rewardsToken);\n  }\n\n  function getRewardForDuration(address _rewardsToken) external view returns (uint256) {\n    return uint256(rewardData[_rewardsToken].rewardRate).mul(rewardsDuration);\n  }\n\n  // Address and claimable amount of all reward tokens for the given account\n  function claimableRewards(address _account)\n    external\n    view\n    returns (EarnedData[] memory userRewards)\n  {\n    userRewards = new EarnedData[](rewardTokens.length);\n    Balances storage userBalance = balances[_account];\n    uint256 boostedBal = userBalance.boosted;\n    for (uint256 i = 0; i < userRewards.length; i++) {\n      address token = rewardTokens[i];\n      userRewards[i].token = token;\n      userRewards[i].amount = _earned(\n        _account,\n        token,\n        rewardData[token].useBoost ? boostedBal : userBalance.locked\n      );\n    }\n    return userRewards;\n  }\n\n  // Total BOOSTED balance of an account, including unlocked but not withdrawn tokens\n  function rewardWeightOf(address _user) external view returns (uint256 amount) {\n    return balances[_user].boosted;\n  }\n\n  // total token balance of an account, including unlocked but not withdrawn tokens\n  function lockedBalanceOf(address _user) external view returns (uint256 amount) {\n    return balances[_user].locked;\n  }\n\n  //BOOSTED balance of an account which only includes properly locked tokens as of the most recent eligible epoch\n  function balanceOf(address _user) external view returns (uint256 amount) {\n    LockedBalance[] storage locks = userLocks[_user];\n    Balances storage userBalance = balances[_user];\n    uint256 nextUnlockIndex = userBalance.nextUnlockIndex;\n\n    //start with current boosted amount\n    amount = balances[_user].boosted;\n\n    uint256 locksLength = locks.length;\n    //remove old records only (will be better gas-wise than adding up)\n    for (uint i = nextUnlockIndex; i < locksLength; i++) {\n      if (locks[i].unlockTime <= block.timestamp) {\n        amount = amount.sub(locks[i].boosted);\n      } else {\n        //stop now as no futher checks are needed\n        break;\n      }\n    }\n\n    //also remove amount in the current epoch\n    uint256 currentEpoch = block.timestamp.div(rewardsDuration).mul(rewardsDuration);\n    if (\n      locksLength > 0 &&\n      uint256(locks[locksLength - 1].unlockTime).sub(lockDuration) == currentEpoch\n    ) {\n      amount = amount.sub(locks[locksLength - 1].boosted);\n    }\n\n    return amount;\n  }\n\n  //BOOSTED balance of an account which only includes properly locked tokens at the given epoch\n  function balanceAtEpochOf(uint256 _epoch, address _user) external view returns (uint256 amount) {\n    LockedBalance[] storage locks = userLocks[_user];\n\n    //get timestamp of given epoch index\n    uint256 epochTime = epochs[_epoch].date;\n    //get timestamp of first non-inclusive epoch\n    uint256 cutoffEpoch = epochTime.sub(lockDuration);\n\n    //current epoch is not counted\n    uint256 currentEpoch = block.timestamp.div(rewardsDuration).mul(rewardsDuration);\n\n    //need to add up since the range could be in the middle somewhere\n    //traverse inversely to make more current queries more gas efficient\n    for (uint i = locks.length - 1; i + 1 != 0; i--) {\n      uint256 lockEpoch = uint256(locks[i].unlockTime).sub(lockDuration);\n      //lock epoch must be less or equal to the epoch we're basing from.\n      //also not include the current epoch\n      if (lockEpoch <= epochTime && lockEpoch < currentEpoch) {\n        if (lockEpoch > cutoffEpoch) {\n          amount = amount.add(locks[i].boosted);\n        } else {\n          //stop now as no futher checks matter\n          break;\n        }\n      }\n    }\n\n    return amount;\n  }\n\n  //supply of all properly locked BOOSTED balances at most recent eligible epoch\n  function totalSupply() external view returns (uint256 supply) {\n    uint256 currentEpoch = block.timestamp.div(rewardsDuration).mul(rewardsDuration);\n    uint256 cutoffEpoch = currentEpoch.sub(lockDuration);\n    uint256 epochindex = epochs.length;\n\n    //do not include current epoch's supply\n    if (uint256(epochs[epochindex - 1].date) == currentEpoch) {\n      epochindex--;\n    }\n\n    //traverse inversely to make more current queries more gas efficient\n    for (uint i = epochindex - 1; i + 1 != 0; i--) {\n      Epoch storage e = epochs[i];\n      if (uint256(e.date) <= cutoffEpoch) {\n        break;\n      }\n      supply = supply.add(e.supply);\n    }\n\n    return supply;\n  }\n\n  //supply of all properly locked BOOSTED balances at the given epoch\n  function totalSupplyAtEpoch(uint256 _epoch) external view returns (uint256 supply) {\n    uint256 epochStart = uint256(epochs[_epoch].date).div(rewardsDuration).mul(rewardsDuration);\n    uint256 cutoffEpoch = epochStart.sub(lockDuration);\n    uint256 currentEpoch = block.timestamp.div(rewardsDuration).mul(rewardsDuration);\n\n    //do not include current epoch's supply\n    if (uint256(epochs[_epoch].date) == currentEpoch) {\n      _epoch--;\n    }\n\n    //traverse inversely to make more current queries more gas efficient\n    for (uint i = _epoch; i + 1 != 0; i--) {\n      Epoch storage e = epochs[i];\n      if (uint256(e.date) <= cutoffEpoch) {\n        break;\n      }\n      supply = supply.add(epochs[i].supply);\n    }\n\n    return supply;\n  }\n\n  //find an epoch index based on timestamp\n  function findEpochId(uint256 _time) external view returns (uint256 epoch) {\n    uint256 max = epochs.length - 1;\n    uint256 min = 0;\n\n    //convert to start point\n    _time = _time.div(rewardsDuration).mul(rewardsDuration);\n\n    for (uint256 i = 0; i < 128; i++) {\n      if (min >= max) break;\n\n      uint256 mid = (min + max + 1) / 2;\n      uint256 midEpochBlock = epochs[mid].date;\n      if (midEpochBlock == _time) {\n        //found\n        return mid;\n      } else if (midEpochBlock < _time) {\n        min = mid;\n      } else {\n        max = mid - 1;\n      }\n    }\n    return min;\n  }\n\n  // Information on a user's locked balances\n  function lockedBalances(address _user)\n    external\n    view\n    returns (\n      uint256 total,\n      uint256 unlockable,\n      uint256 locked,\n      LockedBalance[] memory lockData\n    )\n  {\n    LockedBalance[] storage locks = userLocks[_user];\n    Balances storage userBalance = balances[_user];\n    uint256 nextUnlockIndex = userBalance.nextUnlockIndex;\n    uint256 idx;\n    for (uint i = nextUnlockIndex; i < locks.length; i++) {\n      if (locks[i].unlockTime > block.timestamp) {\n        if (idx == 0) {\n          lockData = new LockedBalance[](locks.length - i);\n        }\n        lockData[idx] = locks[i];\n        idx++;\n        locked = locked.add(locks[i].amount);\n      } else {\n        unlockable = unlockable.add(locks[i].amount);\n      }\n    }\n    return (userBalance.locked, unlockable, locked, lockData);\n  }\n\n  //number of epochs\n  function epochCount() external view returns (uint256) {\n    return epochs.length;\n  }\n\n  /* ========== MUTATIVE FUNCTIONS ========== */\n\n  function checkpointEpoch() external {\n    _checkpointEpoch();\n  }\n\n  //insert a new epoch if needed. fill in any gaps\n  function _checkpointEpoch() internal {\n    uint256 currentEpoch = block.timestamp.div(rewardsDuration).mul(rewardsDuration);\n    uint256 epochindex = epochs.length;\n\n    //first epoch add in constructor, no need to check 0 length\n\n    //check to add\n    if (epochs[epochindex - 1].date < currentEpoch) {\n      //fill any epoch gaps\n      while (epochs[epochs.length - 1].date != currentEpoch) {\n        uint256 nextEpochDate = uint256(epochs[epochs.length - 1].date).add(rewardsDuration);\n        epochs.push(Epoch({ supply: 0, date: uint32(nextEpochDate) }));\n      }\n\n      //update boost parameters on a new epoch\n      if (boostRate != nextBoostRate) {\n        boostRate = nextBoostRate;\n      }\n      if (maximumBoostPayment != nextMaximumBoostPayment) {\n        maximumBoostPayment = nextMaximumBoostPayment;\n      }\n    }\n  }\n\n  // Locked tokens cannot be withdrawn for lockDuration and are eligible to receive stakingReward rewards\n  function lock(\n    address _account,\n    uint256 _amount,\n    uint256 _spendRatio\n  ) external nonReentrant updateReward(_account) {\n    //pull tokens\n    stakingToken.safeTransferFrom(msg.sender, address(this), _amount);\n\n    //lock\n    _lock(_account, _amount, _spendRatio);\n  }\n\n  //lock tokens\n  function _lock(\n    address _account,\n    uint256 _amount,\n    uint256 _spendRatio\n  ) internal {\n    require(_amount > 0, \"Cannot stake 0\");\n    require(_spendRatio <= maximumBoostPayment, \"over max spend\");\n    require(!isShutdown, \"shutdown\");\n\n    Balances storage bal = balances[_account];\n\n    //must try check pointing epoch first\n    _checkpointEpoch();\n\n    //calc lock and boosted amount\n    uint256 spendAmount = _amount.mul(_spendRatio).div(denominator);\n    uint256 boostRatio = boostRate.mul(_spendRatio).div(\n      maximumBoostPayment == 0 ? 1 : maximumBoostPayment\n    );\n    uint112 lockAmount = _amount.sub(spendAmount).to112();\n    uint112 boostedAmount = _amount.add(_amount.mul(boostRatio).div(denominator)).to112();\n\n    //add user balances\n    bal.locked = bal.locked.add(lockAmount);\n    bal.boosted = bal.boosted.add(boostedAmount);\n\n    //add to total supplies\n    lockedSupply = lockedSupply.add(lockAmount);\n    boostedSupply = boostedSupply.add(boostedAmount);\n\n    //add user lock records or add to current\n    uint256 currentEpoch = block.timestamp.div(rewardsDuration).mul(rewardsDuration);\n    uint256 unlockTime = currentEpoch.add(lockDuration);\n    uint256 idx = userLocks[_account].length;\n    if (idx == 0 || userLocks[_account][idx - 1].unlockTime < unlockTime) {\n      userLocks[_account].push(\n        LockedBalance({\n          amount: lockAmount,\n          boosted: boostedAmount,\n          unlockTime: uint32(unlockTime)\n        })\n      );\n    } else {\n      LockedBalance storage userL = userLocks[_account][idx - 1];\n      userL.amount = userL.amount.add(lockAmount);\n      userL.boosted = userL.boosted.add(boostedAmount);\n    }\n\n    //update epoch supply, epoch checkpointed above so safe to add to latest\n    Epoch storage e = epochs[epochs.length - 1];\n    e.supply = e.supply.add(uint224(boostedAmount));\n\n    //send boost payment\n    if (spendAmount > 0) {\n      stakingToken.safeTransfer(boostPayment, spendAmount);\n    }\n\n    //update staking, allow a bit of leeway for smaller deposits to reduce gas\n    updateStakeRatio(stakeOffsetOnLock);\n\n    emit Staked(_account, _amount, lockAmount, boostedAmount);\n  }\n\n  // Withdraw all currently locked tokens where the unlock time has passed\n  function _processExpiredLocks(\n    address _account,\n    bool _relock,\n    uint256 _spendRatio,\n    address _withdrawTo,\n    address _rewardAddress,\n    uint256 _checkDelay\n  ) internal updateReward(_account) {\n    LockedBalance[] storage locks = userLocks[_account];\n    Balances storage userBalance = balances[_account];\n    uint112 locked;\n    uint112 boostedAmount;\n    uint256 length = locks.length;\n    uint256 reward = 0;\n\n    if (isShutdown || locks[length - 1].unlockTime <= block.timestamp.sub(_checkDelay)) {\n      //if time is beyond last lock, can just bundle everything together\n      locked = userBalance.locked;\n      boostedAmount = userBalance.boosted;\n\n      //dont delete, just set next index\n      userBalance.nextUnlockIndex = length.to32();\n\n      //check for kick reward\n      //this wont have the exact reward rate that you would get if looped through\n      //but this section is supposed to be for quick and easy low gas processing of all locks\n      //we'll assume that if the reward was good enough someone would have processed at an earlier epoch\n      if (_checkDelay > 0) {\n        uint256 currentEpoch = block.timestamp.sub(_checkDelay).div(rewardsDuration).mul(\n          rewardsDuration\n        );\n        uint256 epochsover = currentEpoch.sub(uint256(locks[length - 1].unlockTime)).div(\n          rewardsDuration\n        );\n        uint256 rRate = MathUtil.min(kickRewardPerEpoch.mul(epochsover + 1), denominator);\n        reward = uint256(locks[length - 1].amount).mul(rRate).div(denominator);\n      }\n    } else {\n      //use a processed index(nextUnlockIndex) to not loop as much\n      //deleting does not change array length\n      uint32 nextUnlockIndex = userBalance.nextUnlockIndex;\n      for (uint i = nextUnlockIndex; i < length; i++) {\n        //unlock time must be less or equal to time\n        if (locks[i].unlockTime > block.timestamp.sub(_checkDelay)) break;\n\n        //add to cumulative amounts\n        locked = locked.add(locks[i].amount);\n        boostedAmount = boostedAmount.add(locks[i].boosted);\n\n        //check for kick reward\n        //each epoch over due increases reward\n        if (_checkDelay > 0) {\n          uint256 currentEpoch = block.timestamp.sub(_checkDelay).div(rewardsDuration).mul(\n            rewardsDuration\n          );\n          uint256 epochsover = currentEpoch.sub(uint256(locks[i].unlockTime)).div(rewardsDuration);\n          uint256 rRate = MathUtil.min(kickRewardPerEpoch.mul(epochsover + 1), denominator);\n          reward = reward.add(uint256(locks[i].amount).mul(rRate).div(denominator));\n        }\n        //set next unlock index\n        nextUnlockIndex++;\n      }\n      //update next unlock index\n      userBalance.nextUnlockIndex = nextUnlockIndex;\n    }\n    require(locked > 0, \"no exp locks\");\n\n    //update user balances and total supplies\n    userBalance.locked = userBalance.locked.sub(locked);\n    userBalance.boosted = userBalance.boosted.sub(boostedAmount);\n    lockedSupply = lockedSupply.sub(locked);\n    boostedSupply = boostedSupply.sub(boostedAmount);\n\n    emit Withdrawn(_account, locked, _relock);\n\n    //send process incentive\n    if (reward > 0) {\n      //if theres a reward(kicked), it will always be a withdraw only\n      //preallocate enough muuu from stake contract to pay for both reward and withdraw\n      allocateMUUUForTransfer(uint256(locked));\n\n      //reduce return amount by the kick reward\n      locked = locked.sub(reward.to112());\n\n      //transfer reward\n      transferMUUU(_rewardAddress, reward, false);\n\n      emit KickReward(_rewardAddress, _account, reward);\n    } else if (_spendRatio > 0) {\n      //preallocate enough muuu to transfer the boost cost\n      allocateMUUUForTransfer(uint256(locked).mul(_spendRatio).div(denominator));\n    }\n\n    //relock or return to user\n    if (_relock) {\n      _lock(_withdrawTo, locked, _spendRatio);\n    } else {\n      transferMUUU(_withdrawTo, locked, true);\n    }\n  }\n\n  // Withdraw/relock all currently locked tokens where the unlock time has passed\n  function processExpiredLocks(\n    bool _relock,\n    uint256 _spendRatio,\n    address _withdrawTo\n  ) external nonReentrant {\n    _processExpiredLocks(msg.sender, _relock, _spendRatio, _withdrawTo, msg.sender, 0);\n  }\n\n  // Withdraw/relock all currently locked tokens where the unlock time has passed\n  function processExpiredLocks(bool _relock) external nonReentrant {\n    _processExpiredLocks(msg.sender, _relock, 0, msg.sender, msg.sender, 0);\n  }\n\n  function kickExpiredLocks(address _account) external nonReentrant {\n    //allow kick after grace period of 'kickRewardEpochDelay'\n    _processExpiredLocks(\n      _account,\n      false,\n      0,\n      _account,\n      msg.sender,\n      rewardsDuration.mul(kickRewardEpochDelay)\n    );\n  }\n\n  //pull required amount of muuu from staking for an upcoming transfer\n  function allocateMUUUForTransfer(uint256 _amount) internal {\n    uint256 balance = stakingToken.balanceOf(address(this));\n    if (_amount > balance) {\n      IStakingProxy(stakingProxy).withdraw(_amount.sub(balance));\n    }\n  }\n\n  //transfer helper: pull enough from staking, transfer, updating staking ratio\n  function transferMUUU(\n    address _account,\n    uint256 _amount,\n    bool _updateStake\n  ) internal {\n    //allocate enough muuu from staking for the transfer\n    allocateMUUUForTransfer(_amount);\n    //transfer\n    stakingToken.safeTransfer(_account, _amount);\n\n    //update staking\n    if (_updateStake) {\n      updateStakeRatio(0);\n    }\n  }\n\n  //calculate how much muuu should be staked. update if needed\n  function updateStakeRatio(uint256 _offset) internal {\n    if (isShutdown) return;\n\n    //get balances\n    uint256 local = stakingToken.balanceOf(address(this));\n    uint256 staked = IStakingProxy(stakingProxy).getBalance();\n    uint256 total = local.add(staked);\n\n    if (total == 0) return;\n\n    //current staked ratio\n    uint256 ratio = staked.mul(denominator).div(total);\n    //mean will be where we reset to if unbalanced\n    uint256 mean = maximumStake.add(minimumStake).div(2);\n    uint256 max = maximumStake.add(_offset);\n    uint256 min = Math.min(minimumStake, minimumStake - _offset);\n    if (ratio > max) {\n      //remove\n      uint256 remove = staked.sub(total.mul(mean).div(denominator));\n      IStakingProxy(stakingProxy).withdraw(remove);\n    } else if (ratio < min) {\n      //add\n      uint256 increase = total.mul(mean).div(denominator).sub(staked);\n      stakingToken.safeTransfer(stakingProxy, increase);\n      IStakingProxy(stakingProxy).stake();\n    }\n  }\n\n  // Claim all pending rewards\n  function getReward(address _account, bool _stake) public nonReentrant updateReward(_account) {\n    for (uint i; i < rewardTokens.length; i++) {\n      address _rewardsToken = rewardTokens[i];\n      uint256 reward = rewards[_account][_rewardsToken];\n      if (reward > 0) {\n        rewards[_account][_rewardsToken] = 0;\n        if (_rewardsToken == muKgl && _stake) {\n          IRewardStaking(mukglStaking).stakeFor(_account, reward);\n        } else {\n          IERC20(_rewardsToken).safeTransfer(_account, reward);\n        }\n        emit RewardPaid(_account, _rewardsToken, reward);\n      }\n    }\n  }\n\n  // claim all pending rewards\n  function getReward(address _account) external {\n    getReward(_account, false);\n  }\n\n  /* ========== RESTRICTED FUNCTIONS ========== */\n\n  function _notifyReward(address _rewardsToken, uint256 _reward) internal {\n    Reward storage rdata = rewardData[_rewardsToken];\n\n    if (block.timestamp >= rdata.periodFinish) {\n      rdata.rewardRate = _reward.div(rewardsDuration).to208();\n    } else {\n      uint256 remaining = uint256(rdata.periodFinish).sub(block.timestamp);\n      uint256 leftover = remaining.mul(rdata.rewardRate);\n      rdata.rewardRate = _reward.add(leftover).div(rewardsDuration).to208();\n    }\n\n    rdata.lastUpdateTime = block.timestamp.to40();\n    rdata.periodFinish = block.timestamp.add(rewardsDuration).to40();\n  }\n\n  function notifyRewardAmount(address _rewardsToken, uint256 _reward)\n    external\n    updateReward(address(0))\n  {\n    require(rewardDistributors[_rewardsToken][msg.sender]);\n    require(_reward > 0, \"No reward\");\n\n    _notifyReward(_rewardsToken, _reward);\n\n    // handle the transfer of reward tokens via `transferFrom` to reduce the number\n    // of transactions required and ensure correctness of the _reward amount\n    IERC20(_rewardsToken).safeTransferFrom(msg.sender, address(this), _reward);\n\n    emit RewardAdded(_rewardsToken, _reward);\n\n    if (_rewardsToken == muKgl) {\n      //update staking ratio if main reward\n      updateStakeRatio(0);\n    }\n  }\n\n  // Added to support recovering LP Rewards from other systems such as BAL to be distributed to holders\n  function recoverERC20(address _tokenAddress, uint256 _tokenAmount) external onlyOwner {\n    require(_tokenAddress != address(stakingToken), \"Cannot withdraw staking token\");\n    require(rewardData[_tokenAddress].lastUpdateTime == 0, \"Cannot withdraw reward token\");\n    IERC20(_tokenAddress).safeTransfer(owner(), _tokenAmount);\n    emit Recovered(_tokenAddress, _tokenAmount);\n  }\n\n  /* ========== MODIFIERS ========== */\n\n  modifier updateReward(address _account) {\n    {\n      //stack too deep\n      Balances storage userBalance = balances[_account];\n      uint256 boostedBal = userBalance.boosted;\n      for (uint i = 0; i < rewardTokens.length; i++) {\n        address token = rewardTokens[i];\n        rewardData[token].rewardPerTokenStored = _rewardPerToken(token).to208();\n        rewardData[token].lastUpdateTime = _lastTimeRewardApplicable(rewardData[token].periodFinish)\n          .to40();\n        if (_account != address(0)) {\n          //check if reward is boostable or not. use boosted or locked balance accordingly\n          rewards[_account][token] = _earned(\n            _account,\n            token,\n            rewardData[token].useBoost ? boostedBal : userBalance.locked\n          );\n          userRewardPerTokenPaid[_account][token] = rewardData[token].rewardPerTokenStored;\n        }\n      }\n    }\n    _;\n  }\n\n  /* ========== EVENTS ========== */\n  event RewardAdded(address indexed _token, uint256 _reward);\n  event Staked(\n    address indexed _user,\n    uint256 _paidAmount,\n    uint256 _lockedAmount,\n    uint256 _boostedAmount\n  );\n  event Withdrawn(address indexed _user, uint256 _amount, bool _relocked);\n  event KickReward(address indexed _user, address indexed _kicked, uint256 _reward);\n  event RewardPaid(address indexed _user, address indexed _rewardsToken, uint256 _reward);\n  event Recovered(address _token, uint256 _amount);\n}\n",
  "sourcePath": "/Users/shuto/Documents/bridges-dev/muuu/protocol/contracts/contracts/MuuuLocker.sol",
  "compiler": {
    "name": "solc",
    "version": "0.6.12+commit.27d51765.Emscripten.clang"
  },
  "schemaVersion": "3.4.6",
  "updatedAt": "2022-04-04T03:30:07.192Z",
  "devdoc": {
    "kind": "dev",
    "methods": {
      "owner()": {
        "details": "Returns the address of the current owner."
      },
      "renounceOwnership()": {
        "details": "Leaves the contract without owner. It will not be possible to call `onlyOwner` functions anymore. Can only be called by the current owner. NOTE: Renouncing ownership will leave the contract without an owner, thereby removing any functionality that is only available to the owner."
      },
      "transferOwnership(address)": {
        "details": "Transfers ownership of the contract to a new account (`newOwner`). Can only be called by the current owner."
      }
    },
    "version": 1
  },
  "userdoc": {
    "kind": "user",
    "methods": {},
    "version": 1
  }
}