{
  "contractName": "MuuuStakingWrapperAbra",
  "abi": [
    {
      "inputs": [],
      "stateMutability": "nonpayable",
      "type": "constructor"
    },
    {
      "anonymous": false,
      "inputs": [
        {
          "indexed": true,
          "internalType": "address",
          "name": "owner",
          "type": "address"
        },
        {
          "indexed": true,
          "internalType": "address",
          "name": "spender",
          "type": "address"
        },
        {
          "indexed": false,
          "internalType": "uint256",
          "name": "value",
          "type": "uint256"
        }
      ],
      "name": "Approval",
      "type": "event"
    },
    {
      "anonymous": false,
      "inputs": [
        {
          "indexed": true,
          "internalType": "address",
          "name": "_user",
          "type": "address"
        },
        {
          "indexed": true,
          "internalType": "address",
          "name": "_account",
          "type": "address"
        },
        {
          "indexed": false,
          "internalType": "uint256",
          "name": "_amount",
          "type": "uint256"
        },
        {
          "indexed": false,
          "internalType": "bool",
          "name": "_wrapped",
          "type": "bool"
        }
      ],
      "name": "Deposited",
      "type": "event"
    },
    {
      "anonymous": false,
      "inputs": [
        {
          "indexed": true,
          "internalType": "address",
          "name": "previousOwner",
          "type": "address"
        },
        {
          "indexed": true,
          "internalType": "address",
          "name": "newOwner",
          "type": "address"
        }
      ],
      "name": "OwnershipTransferred",
      "type": "event"
    },
    {
      "anonymous": false,
      "inputs": [
        {
          "indexed": true,
          "internalType": "address",
          "name": "from",
          "type": "address"
        },
        {
          "indexed": true,
          "internalType": "address",
          "name": "to",
          "type": "address"
        },
        {
          "indexed": false,
          "internalType": "uint256",
          "name": "value",
          "type": "uint256"
        }
      ],
      "name": "Transfer",
      "type": "event"
    },
    {
      "anonymous": false,
      "inputs": [
        {
          "indexed": true,
          "internalType": "address",
          "name": "_user",
          "type": "address"
        },
        {
          "indexed": false,
          "internalType": "uint256",
          "name": "_amount",
          "type": "uint256"
        },
        {
          "indexed": false,
          "internalType": "bool",
          "name": "_unwrapped",
          "type": "bool"
        }
      ],
      "name": "Withdrawn",
      "type": "event"
    },
    {
      "inputs": [],
      "name": "addRewards",
      "outputs": [],
      "stateMutability": "nonpayable",
      "type": "function"
    },
    {
      "inputs": [
        {
          "internalType": "address",
          "name": "owner",
          "type": "address"
        },
        {
          "internalType": "address",
          "name": "spender",
          "type": "address"
        }
      ],
      "name": "allowance",
      "outputs": [
        {
          "internalType": "uint256",
          "name": "",
          "type": "uint256"
        }
      ],
      "stateMutability": "view",
      "type": "function"
    },
    {
      "inputs": [
        {
          "internalType": "address",
          "name": "spender",
          "type": "address"
        },
        {
          "internalType": "uint256",
          "name": "amount",
          "type": "uint256"
        }
      ],
      "name": "approve",
      "outputs": [
        {
          "internalType": "bool",
          "name": "",
          "type": "bool"
        }
      ],
      "stateMutability": "nonpayable",
      "type": "function"
    },
    {
      "inputs": [
        {
          "internalType": "address",
          "name": "account",
          "type": "address"
        }
      ],
      "name": "balanceOf",
      "outputs": [
        {
          "internalType": "uint256",
          "name": "",
          "type": "uint256"
        }
      ],
      "stateMutability": "view",
      "type": "function"
    },
    {
      "inputs": [
        {
          "internalType": "uint256",
          "name": "",
          "type": "uint256"
        }
      ],
      "name": "cauldrons",
      "outputs": [
        {
          "internalType": "address",
          "name": "",
          "type": "address"
        }
      ],
      "stateMutability": "view",
      "type": "function"
    },
    {
      "inputs": [],
      "name": "collateralVault",
      "outputs": [
        {
          "internalType": "address",
          "name": "",
          "type": "address"
        }
      ],
      "stateMutability": "view",
      "type": "function"
    },
    {
      "inputs": [],
      "name": "decimals",
      "outputs": [
        {
          "internalType": "uint8",
          "name": "",
          "type": "uint8"
        }
      ],
      "stateMutability": "view",
      "type": "function"
    },
    {
      "inputs": [
        {
          "internalType": "address",
          "name": "spender",
          "type": "address"
        },
        {
          "internalType": "uint256",
          "name": "subtractedValue",
          "type": "uint256"
        }
      ],
      "name": "decreaseAllowance",
      "outputs": [
        {
          "internalType": "bool",
          "name": "",
          "type": "bool"
        }
      ],
      "stateMutability": "nonpayable",
      "type": "function"
    },
    {
      "inputs": [
        {
          "internalType": "uint256",
          "name": "_amount",
          "type": "uint256"
        },
        {
          "internalType": "address",
          "name": "_to",
          "type": "address"
        }
      ],
      "name": "deposit",
      "outputs": [],
      "stateMutability": "nonpayable",
      "type": "function"
    },
    {
      "inputs": [
        {
          "internalType": "address",
          "name": "_account",
          "type": "address"
        }
      ],
      "name": "earned",
      "outputs": [
        {
          "components": [
            {
              "internalType": "address",
              "name": "token",
              "type": "address"
            },
            {
              "internalType": "uint256",
              "name": "amount",
              "type": "uint256"
            }
          ],
          "internalType": "struct MuuuStakingWrapper.EarnedData[]",
          "name": "claimable",
          "type": "tuple[]"
        }
      ],
      "stateMutability": "view",
      "type": "function"
    },
    {
      "inputs": [
        {
          "internalType": "address",
          "name": "_account",
          "type": "address"
        }
      ],
      "name": "getReward",
      "outputs": [],
      "stateMutability": "nonpayable",
      "type": "function"
    },
    {
      "inputs": [
        {
          "internalType": "address",
          "name": "spender",
          "type": "address"
        },
        {
          "internalType": "uint256",
          "name": "addedValue",
          "type": "uint256"
        }
      ],
      "name": "increaseAllowance",
      "outputs": [
        {
          "internalType": "bool",
          "name": "",
          "type": "bool"
        }
      ],
      "stateMutability": "nonpayable",
      "type": "function"
    },
    {
      "inputs": [],
      "name": "isInit",
      "outputs": [
        {
          "internalType": "bool",
          "name": "",
          "type": "bool"
        }
      ],
      "stateMutability": "view",
      "type": "function"
    },
    {
      "inputs": [],
      "name": "isShutdown",
      "outputs": [
        {
          "internalType": "bool",
          "name": "",
          "type": "bool"
        }
      ],
      "stateMutability": "view",
      "type": "function"
    },
    {
      "inputs": [],
      "name": "kaglaToken",
      "outputs": [
        {
          "internalType": "address",
          "name": "",
          "type": "address"
        }
      ],
      "stateMutability": "view",
      "type": "function"
    },
    {
      "inputs": [],
      "name": "kgl",
      "outputs": [
        {
          "internalType": "address",
          "name": "",
          "type": "address"
        }
      ],
      "stateMutability": "view",
      "type": "function"
    },
    {
      "inputs": [],
      "name": "muuu",
      "outputs": [
        {
          "internalType": "address",
          "name": "",
          "type": "address"
        }
      ],
      "stateMutability": "view",
      "type": "function"
    },
    {
      "inputs": [],
      "name": "muuuBooster",
      "outputs": [
        {
          "internalType": "address",
          "name": "",
          "type": "address"
        }
      ],
      "stateMutability": "view",
      "type": "function"
    },
    {
      "inputs": [],
      "name": "muuuPool",
      "outputs": [
        {
          "internalType": "address",
          "name": "",
          "type": "address"
        }
      ],
      "stateMutability": "view",
      "type": "function"
    },
    {
      "inputs": [],
      "name": "muuuPoolId",
      "outputs": [
        {
          "internalType": "uint256",
          "name": "",
          "type": "uint256"
        }
      ],
      "stateMutability": "view",
      "type": "function"
    },
    {
      "inputs": [],
      "name": "muuuToken",
      "outputs": [
        {
          "internalType": "address",
          "name": "",
          "type": "address"
        }
      ],
      "stateMutability": "view",
      "type": "function"
    },
    {
      "inputs": [],
      "name": "name",
      "outputs": [
        {
          "internalType": "string",
          "name": "",
          "type": "string"
        }
      ],
      "stateMutability": "view",
      "type": "function"
    },
    {
      "inputs": [],
      "name": "owner",
      "outputs": [
        {
          "internalType": "address",
          "name": "",
          "type": "address"
        }
      ],
      "stateMutability": "view",
      "type": "function"
    },
    {
      "inputs": [
        {
          "internalType": "address",
          "name": "",
          "type": "address"
        }
      ],
      "name": "registeredRewards",
      "outputs": [
        {
          "internalType": "uint256",
          "name": "",
          "type": "uint256"
        }
      ],
      "stateMutability": "view",
      "type": "function"
    },
    {
      "inputs": [],
      "name": "renounceOwnership",
      "outputs": [],
      "stateMutability": "nonpayable",
      "type": "function"
    },
    {
      "inputs": [],
      "name": "rewardLength",
      "outputs": [
        {
          "internalType": "uint256",
          "name": "",
          "type": "uint256"
        }
      ],
      "stateMutability": "view",
      "type": "function"
    },
    {
      "inputs": [
        {
          "internalType": "uint256",
          "name": "",
          "type": "uint256"
        }
      ],
      "name": "rewards",
      "outputs": [
        {
          "internalType": "address",
          "name": "reward_token",
          "type": "address"
        },
        {
          "internalType": "address",
          "name": "reward_pool",
          "type": "address"
        },
        {
          "internalType": "uint128",
          "name": "reward_integral",
          "type": "uint128"
        },
        {
          "internalType": "uint128",
          "name": "reward_remaining",
          "type": "uint128"
        }
      ],
      "stateMutability": "view",
      "type": "function"
    },
    {
      "inputs": [],
      "name": "setApprovals",
      "outputs": [],
      "stateMutability": "nonpayable",
      "type": "function"
    },
    {
      "inputs": [],
      "name": "shutdown",
      "outputs": [],
      "stateMutability": "nonpayable",
      "type": "function"
    },
    {
      "inputs": [
        {
          "internalType": "uint256",
          "name": "_amount",
          "type": "uint256"
        },
        {
          "internalType": "address",
          "name": "_to",
          "type": "address"
        }
      ],
      "name": "stake",
      "outputs": [],
      "stateMutability": "nonpayable",
      "type": "function"
    },
    {
      "inputs": [],
      "name": "symbol",
      "outputs": [
        {
          "internalType": "string",
          "name": "",
          "type": "string"
        }
      ],
      "stateMutability": "view",
      "type": "function"
    },
    {
      "inputs": [
        {
          "internalType": "address",
          "name": "_account",
          "type": "address"
        }
      ],
      "name": "totalBalanceOf",
      "outputs": [
        {
          "internalType": "uint256",
          "name": "",
          "type": "uint256"
        }
      ],
      "stateMutability": "view",
      "type": "function"
    },
    {
      "inputs": [],
      "name": "totalSupply",
      "outputs": [
        {
          "internalType": "uint256",
          "name": "",
          "type": "uint256"
        }
      ],
      "stateMutability": "view",
      "type": "function"
    },
    {
      "inputs": [
        {
          "internalType": "address",
          "name": "recipient",
          "type": "address"
        },
        {
          "internalType": "uint256",
          "name": "amount",
          "type": "uint256"
        }
      ],
      "name": "transfer",
      "outputs": [
        {
          "internalType": "bool",
          "name": "",
          "type": "bool"
        }
      ],
      "stateMutability": "nonpayable",
      "type": "function"
    },
    {
      "inputs": [
        {
          "internalType": "address",
          "name": "sender",
          "type": "address"
        },
        {
          "internalType": "address",
          "name": "recipient",
          "type": "address"
        },
        {
          "internalType": "uint256",
          "name": "amount",
          "type": "uint256"
        }
      ],
      "name": "transferFrom",
      "outputs": [
        {
          "internalType": "bool",
          "name": "",
          "type": "bool"
        }
      ],
      "stateMutability": "nonpayable",
      "type": "function"
    },
    {
      "inputs": [
        {
          "internalType": "address",
          "name": "newOwner",
          "type": "address"
        }
      ],
      "name": "transferOwnership",
      "outputs": [],
      "stateMutability": "nonpayable",
      "type": "function"
    },
    {
      "inputs": [
        {
          "internalType": "address[2]",
          "name": "_accounts",
          "type": "address[2]"
        }
      ],
      "name": "user_checkpoint",
      "outputs": [
        {
          "internalType": "bool",
          "name": "",
          "type": "bool"
        }
      ],
      "stateMutability": "nonpayable",
      "type": "function"
    },
    {
      "inputs": [
        {
          "internalType": "uint256",
          "name": "_amount",
          "type": "uint256"
        }
      ],
      "name": "withdraw",
      "outputs": [],
      "stateMutability": "nonpayable",
      "type": "function"
    },
    {
      "inputs": [
        {
          "internalType": "uint256",
          "name": "_amount",
          "type": "uint256"
        }
      ],
      "name": "withdrawAndUnwrap",
      "outputs": [],
      "stateMutability": "nonpayable",
      "type": "function"
    },
    {
      "inputs": [
        {
          "internalType": "address",
          "name": "_kaglaToken",
          "type": "address"
        },
        {
          "internalType": "address",
          "name": "_muuuToken",
          "type": "address"
        },
        {
          "internalType": "address",
          "name": "_muuuPool",
          "type": "address"
        },
        {
          "internalType": "uint256",
          "name": "_poolId",
          "type": "uint256"
        },
        {
          "internalType": "address",
          "name": "_vault",
          "type": "address"
        }
      ],
      "name": "initialize",
      "outputs": [],
      "stateMutability": "nonpayable",
      "type": "function"
    },
    {
      "inputs": [],
      "name": "cauldronsLength",
      "outputs": [
        {
          "internalType": "uint256",
          "name": "",
          "type": "uint256"
        }
      ],
      "stateMutability": "view",
      "type": "function"
    },
    {
      "inputs": [
        {
          "internalType": "address",
          "name": "_cauldron",
          "type": "address"
        }
      ],
      "name": "setCauldron",
      "outputs": [],
      "stateMutability": "nonpayable",
      "type": "function"
    }
  ],
  "bytecode": "0x60806040523480156200001157600080fd5b50604080518082018252600f81526e29ba30b5b2b226bababaaa37b5b2b760891b60208083019182528351808501909452600784526673746b4d75757560c81b908401528151919291620000689160039162000099565b5080516200007e90600490602084019062000099565b50506005805460ff1916601217905550600160065562000135565b828054600181600116156101000203166002900490600052602060002090601f016020900481019282601f10620000dc57805160ff19168380011785556200010c565b828001600101855582156200010c579182015b828111156200010c578251825591602001919060010190620000ef565b506200011a9291506200011e565b5090565b5b808211156200011a57600081556001016200011f565b61393c80620001456000396000f3fe608060405234801561001057600080fd5b506004361061025d5760003560e01c80638757b15b11610146578063bf86d690116100c3578063e2aecded11610087578063e2aecded14610496578063f2f6a6b6146104a9578063f2fde38b146104b1578063f301af42146104c4578063fc0e74d1146104e7578063ff833485146104ef5761025d565b8063bf86d6901461044d578063c00007b014610455578063c3ff0a5b14610468578063d782139a1461047b578063dd62ed3e146104835761025d565b8063a52e19a51161010a578063a52e19a51461041a578063a9059cbb14610422578063b145a5b814610435578063b95c57461461043d578063bb624f80146104455761025d565b80638757b15b146103e75780638da5cb5b146103ef57806392e37e1a146103f757806395d89b41146103ff578063a457c2d7146104075761025d565b806339509351116101df5780635626265c116101a35780635626265c1461038b5780636309752e1461039e5780636e553f65146103a657806370a08231146103b9578063715018a6146103cc5780637acb7757146103d45761025d565b806339509351146103375780633969dfb41461034a5780634b0ee02a1461035d5780634bfc6fcc14610370578063530b97a4146103785761025d565b806318160ddd1161022657806318160ddd146102df57806323b872dd146102f45780632e1a7d4d146103075780632fa73ecc1461031a578063313ce567146103225761025d565b80628cc2621461026257806306fdde031461028b578063095ea7b3146102a05780630bece79c146102c057806314d6aed0146102d5575b600080fd5b610275610270366004612ee5565b610502565b60405161028291906132cd565b60405180910390f35b610293610a62565b6040516102829190613330565b6102b36102ae366004612ffc565b610af8565b6040516102829190613325565b6102c8610b16565b60405161028291906131f0565b6102dd610b25565b005b6102e7611181565b60405161028291906137f1565b6102b3610302366004612fbc565b611187565b6102dd610315366004613108565b61120f565b6102c8611319565b61032a611331565b6040516102829190613822565b6102b3610345366004612ffc565b611336565b6102dd610358366004613108565b611384565b6102e761036b366004612ee5565b611475565b6102e7611480565b6102dd610386366004612f55565b611486565b6102c8610399366004613108565b611730565b6102c8611757565b6102dd6103b4366004613138565b611766565b6102e76103c7366004612ee5565b6118c2565b6102dd6118dd565b6102dd6103e2366004613138565b61195f565b6102dd611a7b565b6102c8611b13565b6102c8611b28565b610293611b37565b6102b3610415366004612ffc565b611b98565b6102e7611c00565b6102b3610430366004612ffc565b611c06565b6102b3611c1a565b6102e7611c28565b6102c8611c2e565b6102b3611c3d565b6102dd610463366004612ee5565b611c46565b6102dd610476366004612ee5565b611c6f565b6102c8611d77565b6102e7610491366004612f1d565b611d8f565b6102b36104a4366004613027565b611dba565b6102c8611e23565b6102dd6104bf366004612ee5565b611e3b565b6104d76104d2366004613108565b611efb565b604051610282949392919061321e565b6102dd611f4c565b6102e76104fd366004612ee5565b611f8b565b6060600061050e611f9d565b600c549091508067ffffffffffffffff8111801561052b57600080fd5b5060405190808252806020026020018201604052801561056557816020015b610552612e1d565b81526020019060019003908161054a5790505b50925060005b81811015610a59576000600c828154811061058257fe5b6000918252602090912060059091020160018101549091506001600160a01b0316610643576001600160a01b038616600090815260048201602052604090205485516105ef91908790859081106105d557fe5b602002602001015160200151611fac90919063ffffffff16565b8583815181106105fb57fe5b6020908102919091018101510152805485516001600160a01b039091169086908490811061062557fe5b60209081029190910101516001600160a01b03909116905250610a51565b80546040516370a0823160e01b81526000916001600160a01b0316906370a08231906106739030906004016131f0565b60206040518083038186803b15801561068b57600080fd5b505afa15801561069f573d6000803e3d6000fd5b505050506040513d601f19601f820116820180604052508101906106c39190613120565b60028301549091506000906106e9908390600160801b90046001600160801b0316611fd1565b60018401546040516246613160e11b8152919250610777916001600160a01b0390911690628cc262906107209030906004016131f0565b60206040518083038186803b15801561073857600080fd5b505afa15801561074c573d6000803e3d6000fd5b505050506040513d601f19601f820116820180604052508101906107709190613120565b8290611fac565b60028401549091506001600160801b031686156107ad576107ab876107a58468056bc75e2d63100000611ff9565b90612033565b015b6001600160a01b03891660009081526003850160205260408120546107f59068056bc75e2d63100000906107a5906107e6908690611fd1565b6107ef8e612065565b90611ff9565b6001600160a01b038b16600090815260048701602052604090205490915061082d906108219083611fac565b8a88815181106105d557fe5b89878151811061083957fe5b6020908102919091018101510152845489516001600160a01b03909116908a908890811061086357fe5b60209081029190910101516001600160a01b03909116905285610a4b5760028501546001600160801b0316915087156109305760018501546040516246613160e11b815261092b918a916107a59168056bc75e2d63100000916001600160a01b0390911690628cc262906108db9030906004016131f0565b60206040518083038186803b1580156108f357600080fd5b505afa158015610907573d6000803e3d6000fd5b505050506040513d601f19601f820116820180604052508101906107ef9190613120565b820191505b6001600160a01b038a1660009081526003860160205260409020546109699068056bc75e2d63100000906107a5906107e6908690611fd1565b604051638f4000bd60e01b815290915073__MuuuMining____________________________90638f4000bd906109a39084906004016137f1565b60206040518083038186803b1580156109bb57600080fd5b505af41580156109cf573d6000803e3d6000fd5b505050506040513d601f19601f820116820180604052508101906109f39190613120565b89600181518110610a0057fe5b60200260200101516020018181525050734e3fbd56cd56c3e72c1403e103b45db9da5b9d2b89600181518110610a3257fe5b60209081029190910101516001600160a01b0390911690525b50505050505b60010161056b565b5050505b919050565b600f8054604080516020601f6002600019610100600188161502019095169490940493840181900481028201810190925282815260609390929091830182828015610aee5780601f10610ac357610100808354040283529160200191610aee565b820191906000526020600020905b815481529060010190602001808311610ad157829003601f168201915b5050505050905090565b6000610b0c610b0561220c565b8484612210565b5060015b92915050565b600b546001600160a01b031681565b600954600c546001600160a01b0390911690610e3857600c604051806080016040528073d533a949740bb3306d119cc777fa900ba034cd526001600160a01b03168152602001836001600160a01b0316815260200160006001600160801b0316815260200160006001600160801b0316815250908060018154018082558091505060019003906000526020600020906005020160009091909190915060008201518160000160006101000a8154816001600160a01b0302191690836001600160a01b0316021790555060208201518160010160006101000a8154816001600160a01b0302191690836001600160a01b0316021790555060408201518160020160006101000a8154816001600160801b0302191690836001600160801b0316021790555060608201518160020160106101000a8154816001600160801b0302191690836001600160801b031602179055505050600c6040518060800160405280734e3fbd56cd56c3e72c1403e103b45db9da5b9d2b6001600160a01b0316815260200160006001600160a01b0316815260200160006001600160801b0316815260200160006001600160801b0316815250908060018154018082558091505060019003906000526020600020906005020160009091909190915060008201518160000160006101000a8154816001600160a01b0302191690836001600160a01b0316021790555060208201518160010160006101000a8154816001600160a01b0302191690836001600160a01b0316021790555060408201518160020160006101000a8154816001600160801b0302191690836001600160801b0316021790555060608201518160020160106101000a8154816001600160801b0302191690836001600160801b0316021790555050506000600101600d600073d533a949740bb3306d119cc777fa900ba034cd526001600160a01b03166001600160a01b031681526020019081526020016000208190555060018001600d6000734e3fbd56cd56c3e72c1403e103b45db9da5b9d2b6001600160a01b03166001600160a01b03168152602001908152602001600020819055505b6000816001600160a01b031663d55a23f46040518163ffffffff1660e01b815260040160206040518083038186803b158015610e7357600080fd5b505afa158015610e87573d6000803e3d6000fd5b505050506040513d601f19601f82011682018060405250810190610eab9190613120565b905060005b8181101561117c57604051632061aa2360e11b81526000906001600160a01b038516906340c3544690610ee79085906004016137f1565b60206040518083038186803b158015610eff57600080fd5b505afa158015610f13573d6000803e3d6000fd5b505050506040513d601f19601f82011682018060405250810190610f379190612f01565b90506000816001600160a01b031663f7c618c16040518163ffffffff1660e01b815260040160206040518083038186803b158015610f7457600080fd5b505afa158015610f88573d6000803e3d6000fd5b505050506040513d601f19601f82011682018060405250810190610fac9190612f01565b90506001600160a01b038116734e3fbd56cd56c3e72c1403e103b45db9da5b9d2b141561101c5781600c600181548110610fe257fe5b906000526020600020906005020160010160006101000a8154816001600160a01b0302191690836001600160a01b03160217905550611172565b6001600160a01b0381166000908152600d602052604090205461117257600c6040518060800160405280846001600160a01b031663f7c618c16040518163ffffffff1660e01b815260040160206040518083038186803b15801561107f57600080fd5b505afa158015611093573d6000803e3d6000fd5b505050506040513d601f19601f820116820180604052508101906110b79190612f01565b6001600160a01b039081168252858116602080840191909152600060408085018290526060948501829052865460018181018955978352838320875160059092020180549186166001600160a01b031992831617815587850151988101805499871699909216989098179055858101516002909701805496909501516001600160801b03908116600160801b029781166001600160801b03199097169690961790951695909517909255600c549085168452600d9091529120555b5050600101610eb0565b505050565b60025490565b60006111948484846122c4565b611204846111a061220c565b6111ff856040518060600160405280602881526020016138ba602891396001600160a01b038a166000908152600160205260408120906111de61220c565b6001600160a01b0316815260208101919091526040016000205491906123d9565b612210565b5060015b9392505050565b6002600654141561123b5760405162461bcd60e51b81526004016112329061372d565b60405180910390fd5b600260065580156112cd576112503382612405565b600954604051631c683a1b60e11b81526001600160a01b03909116906338d07436906112839084906000906004016137fa565b600060405180830381600087803b15801561129d57600080fd5b505af11580156112b1573d6000803e3d6000fd5b50506008546112cd92506001600160a01b0316905033836124e7565b336001600160a01b03167f2fd83d5e9f5d240bed47a97a24cf354e4047e25edc2da27b01fd95e5e8a0c9a58260006040516113099291906137fa565b60405180910390a2506001600655565b73f403c135812408bfbe8713b5a23a04b3d48aae3181565b601290565b6000610b0c61134361220c565b846111ff856001600061135461220c565b6001600160a01b03908116825260208083019390935260409182016000908120918c168152925290205490611fac565b600260065414156113a75760405162461bcd60e51b81526004016112329061372d565b60026006558015611439576113bc3382612405565b600954604051636197390160e11b81526001600160a01b039091169063c32e7202906113ef9084906000906004016137fa565b600060405180830381600087803b15801561140957600080fd5b505af115801561141d573d6000803e3d6000fd5b505060075461143992506001600160a01b0316905033836124e7565b336001600160a01b03167f2fd83d5e9f5d240bed47a97a24cf354e4047e25edc2da27b01fd95e5e8a0c9a58260016040516113099291906137fa565b6000610b1082612065565b600a5481565b600e54610100900460ff16156114ae5760405162461bcd60e51b815260040161123290613524565b600e80546201000033810262010000600160b01b0319909216919091179182905560405191046001600160a01b0316906000907f8be0079c531659141344cd1fd0a4f28419497f9722a3daafe3b4186f6b6457e0908290a3836001600160a01b03166306fdde036040518163ffffffff1660e01b815260040160006040518083038186803b15801561153f57600080fd5b505afa158015611553573d6000803e3d6000fd5b505050506040513d6000823e601f3d908101601f1916820160405261157b919081019061306d565b60405160200161158b9190613178565b604051602081830303815290604052600f90805190602001906115af929190612e34565b50836001600160a01b03166395d89b416040518163ffffffff1660e01b815260040160006040518083038186803b1580156115e957600080fd5b505afa1580156115fd573d6000803e3d6000fd5b505050506040513d6000823e601f3d908101601f19168201604052611625919081019061306d565b60405160200161163591906131b6565b60405160208183030381529060405260109080519060200190611659929190612e34565b50600e805461ffff1916610100179055600780546001600160a01b038088166001600160a01b0319928316179092556008805487841690831617905560098054868416908316179055600a849055600b805490911673f5bce5077908a1b7370b9ae04adc565ebd64396617905581161561171957601180546001810182556000919091527f31ecc21a745e3968a04e9570e4425bc18fa8019c68028196b546d1669c200c680180546001600160a01b0319166001600160a01b0383161790555b611721610b25565b611729611a7b565b5050505050565b6011818154811061173d57fe5b6000918252602090912001546001600160a01b0316905081565b6007546001600160a01b031681565b600260065414156117895760405162461bcd60e51b81526004016112329061372d565b6002600655600e5460ff16156117b15760405162461bcd60e51b815260040161123290613646565b811561186b576117c1818361253d565b6007546117d9906001600160a01b03163330856125f1565b600a546040516321d0683360e11b815273f403c135812408bfbe8713b5a23a04b3d48aae31916343a0d066916118179190869060019060040161380a565b602060405180830381600087803b15801561183157600080fd5b505af1158015611845573d6000803e3d6000fd5b505050506040513d601f19601f82011682018060405250810190611869919061304d565b505b806001600160a01b0316336001600160a01b03167fb32af138549e2a71563d1f2b1f7f0a139b3cdbc83d877d13603de1c3c5fd487a8460016040516118b19291906137fa565b60405180910390a350506001600655565b6001600160a01b031660009081526020819052604090205490565b600e546201000090046001600160a01b0316331461190d5760405162461bcd60e51b81526004016112329061358b565b600e546040516000916201000090046001600160a01b0316907f8be0079c531659141344cd1fd0a4f28419497f9722a3daafe3b4186f6b6457e0908390a3600e805462010000600160b01b0319169055565b600260065414156119825760405162461bcd60e51b81526004016112329061372d565b6002600655600e5460ff16156119aa5760405162461bcd60e51b815260040161123290613646565b8115611a35576119ba818361253d565b6008546119d2906001600160a01b03163330856125f1565b60095460405163534a7e1d60e11b81526001600160a01b039091169063a694fc3a90611a029085906004016137f1565b600060405180830381600087803b158015611a1c57600080fd5b505af1158015611a30573d6000803e3d6000fd5b505050505b806001600160a01b0316336001600160a01b03167fb32af138549e2a71563d1f2b1f7f0a139b3cdbc83d877d13603de1c3c5fd487a8460006040516118b19291906137fa565b600754611aa7906001600160a01b031673f403c135812408bfbe8713b5a23a04b3d48aae316000612618565b600754611ad4906001600160a01b031673f403c135812408bfbe8713b5a23a04b3d48aae31600019612618565b600954600854611af2916001600160a01b0391821691166000612618565b600954600854611b11916001600160a01b039182169116600019612618565b565b600e546201000090046001600160a01b031681565b6009546001600160a01b031681565b60108054604080516020601f6002600019610100600188161502019095169490940493840181900481028201810190925282815260609390929091830182828015610aee5780601f10610ac357610100808354040283529160200191610aee565b6000610b0c611ba561220c565b846111ff856040518060600160405280602581526020016138e26025913960016000611bcf61220c565b6001600160a01b03908116825260208083019390935260409182016000908120918d168152925290205491906123d9565b60115490565b6000610b0c611c1361220c565b84846122c4565b600e54610100900460ff1681565b600c5490565b6008546001600160a01b031681565b600e5460ff1681565b604080518082019091526001600160a01b038216815260006020820152611c6c906126db565b50565b600e546201000090046001600160a01b03163314611c9f5760405162461bcd60e51b81526004016112329061358b565b6001600160a01b038116611cc55760405162461bcd60e51b81526004016112329061342e565b60005b601154811015611d2457816001600160a01b031660118281548110611ce957fe5b6000918252602090912001546001600160a01b03161415611d1c5760405162461bcd60e51b8152600401611232906134fd565b600101611cc8565b50601180546001810182556000919091527f31ecc21a745e3968a04e9570e4425bc18fa8019c68028196b546d1669c200c680180546001600160a01b0319166001600160a01b0392909216919091179055565b73d533a949740bb3306d119cc777fa900ba034cd5281565b6001600160a01b03918216600090815260016020908152604080832093909416825291909152205490565b6000611e1b604051806040016040528084600060028110611dd757fe5b602002016020810190611dea9190612ee5565b6001600160a01b03168152602090810190611e0b9060408701908701612ee5565b6001600160a01b0316905261278d565b506001919050565b734e3fbd56cd56c3e72c1403e103b45db9da5b9d2b81565b600e546201000090046001600160a01b03163314611e6b5760405162461bcd60e51b81526004016112329061358b565b6001600160a01b038116611e915760405162461bcd60e51b8152600401611232906133a6565b600e546040516001600160a01b038084169262010000900416907f8be0079c531659141344cd1fd0a4f28419497f9722a3daafe3b4186f6b6457e090600090a3600e80546001600160a01b03909216620100000262010000600160b01b0319909216919091179055565b600c8181548110611f0857fe5b60009182526020909120600590910201805460018201546002909201546001600160a01b0391821693509116906001600160801b0380821691600160801b90041684565b600e546201000090046001600160a01b03163314611f7c5760405162461bcd60e51b81526004016112329061358b565b600e805460ff19166001179055565b600d6020526000908152604090205481565b6000611fa7611181565b905090565b6000828201838110156112085760405162461bcd60e51b815260040161123290613458565b600082821115611ff35760405162461bcd60e51b81526004016112329061348f565b50900390565b60008261200857506000610b10565b8282028284828161201557fe5b04146112085760405162461bcd60e51b81526004016112329061354a565b60008082116120545760405162461bcd60e51b8152600401611232906134c6565b81838161205d57fe5b049392505050565b60006001600160a01b038216158061208a5750600b546001600160a01b038381169116145b1561209757506000610a5d565b6011546120ae576120a7826118c2565b9050610a5d565b6000805b60115481101561216957601181815481106120c957fe5b600091825260209091200154604051631c9e379b60e01b81526001600160a01b0390911690631c9e379b906121029087906004016131f0565b60206040518083038186803b15801561211a57600080fd5b505afa92505050801561214a575060408051601f3d908101601f1916820190925261214791810190613120565b60015b61215357612161565b61215d8382611fac565b9250505b6001016120b2565b50600b54604051630acc462360e31b81526000916001600160a01b03169063566231189061219f903090869086906004016132aa565b60206040518083038186803b1580156121b757600080fd5b505afa1580156121cb573d6000803e3d6000fd5b505050506040513d601f19601f820116820180604052508101906121ef9190613120565b9050612204816121fe866118c2565b90611fac565b949350505050565b3390565b6001600160a01b0383166122365760405162461bcd60e51b815260040161123290613668565b6001600160a01b03821661225c5760405162461bcd60e51b8152600401611232906133ec565b6001600160a01b0380841660008181526001602090815260408083209487168084529490915290819020849055517f8c5be1e5ebec7d5bd14f71427d1e84f3dd0314c0f7b2291e5b200ac8c7c3b925906122b79085906137f1565b60405180910390a3505050565b6001600160a01b0383166122ea5760405162461bcd60e51b815260040161123290613601565b6001600160a01b0382166123105760405162461bcd60e51b815260040161123290613363565b61231b838383612859565b61235881604051806060016040528060268152602001613894602691396001600160a01b03861660009081526020819052604090205491906123d9565b6001600160a01b0380851660009081526020819052604080822093909355908416815220546123879082611fac565b6001600160a01b0380841660008181526020819052604090819020939093559151908516907fddf252ad1be2c89b69c2b068fc378daa952ba7f163c4a11628f55a4df523b3ef906122b79085906137f1565b600081848411156123fd5760405162461bcd60e51b81526004016112329190613330565b505050900390565b6001600160a01b03821661242b5760405162461bcd60e51b8152600401611232906135c0565b61243782600083612859565b61247481604051806060016040528060228152602001613872602291396001600160a01b03851660009081526020819052604090205491906123d9565b6001600160a01b03831660009081526020819052604090205560025461249a9082611fd1565b6002556040516000906001600160a01b038416907fddf252ad1be2c89b69c2b068fc378daa952ba7f163c4a11628f55a4df523b3ef906124db9085906137f1565b60405180910390a35050565b61117c8363a9059cbb60e01b8484604051602401612506929190613291565b60408051601f198184030181529190526020810180516001600160e01b03166001600160e01b031990931692909217909152612880565b6001600160a01b0382166125635760405162461bcd60e51b8152600401611232906137ba565b61256f60008383612859565b60025461257c9082611fac565b6002556001600160a01b0382166000908152602081905260409020546125a29082611fac565b6001600160a01b0383166000818152602081905260408082209390935591519091907fddf252ad1be2c89b69c2b068fc378daa952ba7f163c4a11628f55a4df523b3ef906124db9085906137f1565b612612846323b872dd60e01b85858560405160240161250693929190613252565b50505050565b8015806126a05750604051636eb1769f60e11b81526001600160a01b0384169063dd62ed3e9061264e9030908690600401613204565b60206040518083038186803b15801561266657600080fd5b505afa15801561267a573d6000803e3d6000fd5b505050506040513d601f19601f8201168201806040525081019061269e9190613120565b155b6126bc5760405162461bcd60e51b815260040161123290613764565b61117c8363095ea7b360e01b8484604051602401612506929190613291565b60006126e5611f9d565b90506126ef612eb2565b6127008360005b6020020151612065565b8152600954604051637050ccd960e01b81526001600160a01b0390911690637050ccd990612735903090600190600401613276565b600060405180830381600087803b15801561274f57600080fd5b505af1158015612763573d6000803e3d6000fd5b5050600c549150600090505b818110156117295761278581868587600161290f565b60010161276f565b600e5460ff161561279d57611c6c565b60006127a7611f9d565b90506127b1612eb2565b6127bc8360006126f6565b81526127c98360016126f6565b6020820152600954604051637050ccd960e01b81526001600160a01b0390911690637050ccd990612801903090600190600401613276565b600060405180830381600087803b15801561281b57600080fd5b505af115801561282f573d6000803e3d6000fd5b5050600c549150600090505b818110156117295761285181868587600061290f565b60010161283b565b604080518082019091526001600160a01b0380851682528316602082015261117c9061278d565b60606128d5826040518060400160405280602081526020017f5361666545524332303a206c6f772d6c6576656c2063616c6c206661696c6564815250856001600160a01b0316612d349092919063ffffffff16565b80519091501561117c57808060200190518101906128f3919061304d565b61117c5760405162461bcd60e51b8152600401611232906136e3565b6000600c868154811061291e57fe5b60009182526020822060059091020180546040516370a0823160e01b81529193506001600160a01b0316906370a082319061295d9030906004016131f0565b60206040518083038186803b15801561297557600080fd5b505afa158015612989573d6000803e3d6000fd5b505050506040513d601f19601f820116820180604052508101906129ad9190613120565b90506000841180156129df575060028201546000906129dd908390600160801b90046001600160801b0316611fd1565b115b15612a41576002820154612a199085906107a59068056bc75e2d63100000906107ef908690600160801b90046001600160801b0316611fd1565b6002830180546001600160801b031981166001600160801b0391821693909301169190911790555b60005b6002811015612cf2576000878260028110612a5b57fe5b60200201516001600160a01b03161415612a7457612cea565b600b546001600160a01b0316878260028110612a8c57fe5b60200201516001600160a01b03161415612aa557612cea565b6000836003016000898460028110612ab957fe5b60200201516001600160a01b03166001600160a01b031681526020019081526020016000205490508480612af9575060028401546001600160801b031681105b15612ce8578415612c11576002840154600090612b9390612b4d9068056bc75e2d63100000906107a590612b36906001600160801b031687611fd1565b8c8860028110612b4257fe5b602002015190611ff9565b8660040160008c8760028110612b5f57fe5b60200201516001600160a01b03166001600160a01b0316815260200190815260200160002054611fac90919063ffffffff16565b90508015612c0b5760008560040160008b8660028110612baf57fe5b60200201516001600160a01b03166001600160a01b0316815260200190815260200160002081905550612bfe898460028110612be757fe5b602002015186546001600160a01b031690836124e7565b612c088482611fd1565b93505b50612c9a565b6002840154612c5e90612c4c9068056bc75e2d63100000906107a590612c40906001600160801b031686611fd1565b8b8760028110612b4257fe5b8560040160008b8660028110612b5f57fe5b8460040160008a8560028110612c7057fe5b60200201516001600160a01b03166001600160a01b03168152602001908152602001600020819055505b6002808501546001600160801b03169060038601906000908b9086908110612cbe57fe5b60200201516001600160a01b03166001600160a01b03168152602001908152602001600020819055505b505b600101612a44565b506002820154600160801b90046001600160801b03168114612d2b576002820180546001600160801b03808416600160801b0291161790555b50505050505050565b6060612204848460008585612d4885612dde565b612d645760405162461bcd60e51b8152600401611232906136ac565b60006060866001600160a01b03168587604051612d81919061315c565b60006040518083038185875af1925050503d8060008114612dbe576040519150601f19603f3d011682016040523d82523d6000602084013e612dc3565b606091505b5091509150612dd3828286612de4565b979650505050505050565b3b151590565b60608315612df3575081611208565b825115612e035782518084602001fd5b8160405162461bcd60e51b81526004016112329190613330565b604080518082019091526000808252602082015290565b828054600181600116156101000203166002900490600052602060002090601f016020900481019282601f10612e7557805160ff1916838001178555612ea2565b82800160010185558215612ea2579182015b82811115612ea2578251825591602001919060010190612e87565b50612eae929150612ed0565b5090565b60405180604001604052806002906020820280368337509192915050565b5b80821115612eae5760008155600101612ed1565b600060208284031215612ef6578081fd5b81356112088161385c565b600060208284031215612f12578081fd5b81516112088161385c565b60008060408385031215612f2f578081fd5b8235612f3a8161385c565b91506020830135612f4a8161385c565b809150509250929050565b600080600080600060a08688031215612f6c578081fd5b8535612f778161385c565b94506020860135612f878161385c565b93506040860135612f978161385c565b9250606086013591506080860135612fae8161385c565b809150509295509295909350565b600080600060608486031215612fd0578283fd5b8335612fdb8161385c565b92506020840135612feb8161385c565b929592945050506040919091013590565b6000806040838503121561300e578182fd5b82356130198161385c565b946020939093013593505050565b600060408284031215613038578081fd5b82604083011115613047578081fd5b50919050565b60006020828403121561305e578081fd5b81518015158114611208578182fd5b60006020828403121561307e578081fd5b815167ffffffffffffffff80821115613095578283fd5b818401915084601f8301126130a8578283fd5b8151818111156130b6578384fd5b604051601f8201601f1916810160200183811182821017156130d6578586fd5b6040528181528382016020018710156130ed578485fd5b6130fe826020830160208701613830565b9695505050505050565b600060208284031215613119578081fd5b5035919050565b600060208284031215613131578081fd5b5051919050565b6000806040838503121561314a578182fd5b823591506020830135612f4a8161385c565b6000825161316e818460208701613830565b9190910192915050565b600066029ba30b5b2b2160cd1b8252825161319a816007850160208701613830565b64204162726160d81b6007939091019283015250600c01919050565b60006273746b60e81b825282516131d4816003850160208701613830565b642d6162726160d81b6003939091019283015250600801919050565b6001600160a01b0391909116815260200190565b6001600160a01b0392831681529116602082015260400190565b6001600160a01b0394851681529290931660208301526001600160801b039081166040830152909116606082015260800190565b6001600160a01b039384168152919092166020820152604081019190915260600190565b6001600160a01b039290921682521515602082015260400190565b6001600160a01b03929092168252602082015260400190565b6001600160a01b0393909316835260208301919091521515604082015260600190565b602080825282518282018190526000919060409081850190868401855b8281101561331857815180516001600160a01b031685528601518685015292840192908501906001016132ea565b5091979650505050505050565b901515815260200190565b600060208252825180602084015261334f816040850160208701613830565b601f01601f19169190910160400192915050565b60208082526023908201527f45524332303a207472616e7366657220746f20746865207a65726f206164647260408201526265737360e81b606082015260800190565b60208082526026908201527f4f776e61626c653a206e6577206f776e657220697320746865207a65726f206160408201526564647265737360d01b606082015260800190565b60208082526022908201527f45524332303a20617070726f766520746f20746865207a65726f206164647265604082015261737360f01b606082015260800190565b60208082526010908201526f34b73b30b634b21031b0bab6323937b760811b604082015260600190565b6020808252601b908201527f536166654d6174683a206164646974696f6e206f766572666c6f770000000000604082015260600190565b6020808252601e908201527f536166654d6174683a207375627472616374696f6e206f766572666c6f770000604082015260600190565b6020808252601a908201527f536166654d6174683a206469766973696f6e206279207a65726f000000000000604082015260600190565b6020808252600d908201526c185b1c9958591e481859191959609a1b604082015260600190565b6020808252600c908201526b185b1c9958591e481a5b9a5d60a21b604082015260600190565b60208082526021908201527f536166654d6174683a206d756c7469706c69636174696f6e206f766572666c6f6040820152607760f81b606082015260800190565b6020808252818101527f4f776e61626c653a2063616c6c6572206973206e6f7420746865206f776e6572604082015260600190565b60208082526021908201527f45524332303a206275726e2066726f6d20746865207a65726f206164647265736040820152607360f81b606082015260800190565b60208082526025908201527f45524332303a207472616e736665722066726f6d20746865207a65726f206164604082015264647265737360d81b606082015260800190565b60208082526008908201526739b43aba3237bbb760c11b604082015260600190565b60208082526024908201527f45524332303a20617070726f76652066726f6d20746865207a65726f206164646040820152637265737360e01b606082015260800190565b6020808252601d908201527f416464726573733a2063616c6c20746f206e6f6e2d636f6e7472616374000000604082015260600190565b6020808252602a908201527f5361666545524332303a204552433230206f7065726174696f6e20646964206e6040820152691bdd081cdd58d8d9595960b21b606082015260800190565b6020808252601f908201527f5265656e7472616e637947756172643a207265656e7472616e742063616c6c00604082015260600190565b60208082526036908201527f5361666545524332303a20617070726f76652066726f6d206e6f6e2d7a65726f60408201527520746f206e6f6e2d7a65726f20616c6c6f77616e636560501b606082015260800190565b6020808252601f908201527f45524332303a206d696e7420746f20746865207a65726f206164647265737300604082015260600190565b90815260200190565b9182521515602082015260400190565b92835260208301919091521515604082015260600190565b60ff91909116815260200190565b60005b8381101561384b578181015183820152602001613833565b838111156126125750506000910152565b6001600160a01b0381168114611c6c57600080fdfe45524332303a206275726e20616d6f756e7420657863656564732062616c616e636545524332303a207472616e7366657220616d6f756e7420657863656564732062616c616e636545524332303a207472616e7366657220616d6f756e74206578636565647320616c6c6f77616e636545524332303a2064656372656173656420616c6c6f77616e63652062656c6f77207a65726fa264697066735822122054faf2bdbc5793cfcb1c23d4517faec28a537dc3c2d159a960c4ac2247aa649264736f6c634300060c0033",
  "immutableReferences": {},
  "source": "// SPDX-License-Identifier: MIT\npragma solidity 0.6.12;\npragma experimental ABIEncoderV2;\n\nimport \"../interfaces/ICauldron.sol\";\nimport \"../interfaces/IBentoBox.sol\";\nimport \"./MuuuStakingWrapper.sol\";\n\n//Staking wrapper for Abracadabra platform\n//use muuu LP positions as collateral while still receiving rewards\ncontract MuuuStakingWrapperAbra is MuuuStakingWrapper {\n  using SafeERC20 for IERC20;\n  using Address for address;\n  using SafeMath for uint256;\n\n  address[] public cauldrons;\n\n  constructor() public {}\n\n  function initialize(\n    address _kaglaToken,\n    address _muuuToken,\n    address _muuuPool,\n    uint256 _poolId,\n    address _vault\n  ) external override {\n    require(!isInit, \"already init\");\n    owner = msg.sender;\n    emit OwnershipTransferred(address(0), owner);\n    _tokenname = string(abi.encodePacked(\"Staked \", ERC20(_muuuToken).name(), \" Abra\"));\n    _tokensymbol = string(abi.encodePacked(\"stk\", ERC20(_muuuToken).symbol(), \"-abra\"));\n    isShutdown = false;\n    isInit = true;\n    kaglaToken = _kaglaToken;\n    muuuToken = _muuuToken;\n    muuuPool = _muuuPool;\n    muuuPoolId = _poolId;\n    collateralVault = address(0xF5BCE5077908a1b7370B9ae04AdC565EBd643966);\n\n    if (_vault != address(0)) {\n      cauldrons.push(_vault);\n    }\n\n    //add rewards\n    addRewards();\n    setApprovals();\n  }\n\n  function cauldronsLength() external view returns (uint256) {\n    return cauldrons.length;\n  }\n\n  function setCauldron(address _cauldron) external onlyOwner {\n    //allow settings and changing cauldrons that receive staking rewards.\n    require(_cauldron != address(0), \"invalid cauldron\");\n\n    //do not allow doubles\n    for (uint256 i = 0; i < cauldrons.length; i++) {\n      require(cauldrons[i] != _cauldron, \"already added\");\n    }\n\n    //IMPORTANT: when adding a cauldron,\n    // it should be added to this list BEFORE anyone starts using it\n    // or else a user may receive more than what they should\n    cauldrons.push(_cauldron);\n  }\n\n  function _getDepositedBalance(address _account) internal view override returns (uint256) {\n    if (_account == address(0) || _account == collateralVault) {\n      return 0;\n    }\n\n    if (cauldrons.length == 0) {\n      return balanceOf(_account);\n    }\n\n    //add up all shares of all cauldrons\n    uint256 share;\n    for (uint256 i = 0; i < cauldrons.length; i++) {\n      try ICauldron(cauldrons[i]).userCollateralShare(_account) returns (uint256 _share) {\n        share = share.add(_share);\n      } catch {}\n    }\n\n    //convert shares to balance amount via bento box\n    uint256 collateral = IBentoBox(collateralVault).toAmount(address(this), share, false);\n\n    //add to balance of this token\n    return balanceOf(_account).add(collateral);\n  }\n}\n",
  "sourcePath": "/Users/linnefromice/repository/github.com/muuu-finance/muuu-protocol/contracts/contracts/wrappers/MuuuStakingWrapperAbra.sol",
  "compiler": {
    "name": "solc",
    "version": "0.6.12+commit.27d51765.Emscripten.clang"
  },
  "schemaVersion": "3.4.6",
  "updatedAt": "2022-03-20T12:14:21.253Z",
  "devdoc": {
    "kind": "dev",
    "methods": {
      "allowance(address,address)": {
        "details": "See {IERC20-allowance}."
      },
      "approve(address,uint256)": {
        "details": "See {IERC20-approve}. Requirements: - `spender` cannot be the zero address."
      },
      "balanceOf(address)": {
        "details": "See {IERC20-balanceOf}."
      },
      "decimals()": {
        "details": "Returns the number of decimals used to get its user representation. For example, if `decimals` equals `2`, a balance of `505` tokens should be displayed to a user as `5,05` (`505 / 10 ** 2`). Tokens usually opt for a value of 18, imitating the relationship between Ether and Wei. This is the value {ERC20} uses, unless {_setupDecimals} is called. NOTE: This information is only used for _display_ purposes: it in no way affects any of the arithmetic of the contract, including {IERC20-balanceOf} and {IERC20-transfer}."
      },
      "decreaseAllowance(address,uint256)": {
        "details": "Atomically decreases the allowance granted to `spender` by the caller. This is an alternative to {approve} that can be used as a mitigation for problems described in {IERC20-approve}. Emits an {Approval} event indicating the updated allowance. Requirements: - `spender` cannot be the zero address. - `spender` must have allowance for the caller of at least `subtractedValue`."
      },
      "increaseAllowance(address,uint256)": {
        "details": "Atomically increases the allowance granted to `spender` by the caller. This is an alternative to {approve} that can be used as a mitigation for problems described in {IERC20-approve}. Emits an {Approval} event indicating the updated allowance. Requirements: - `spender` cannot be the zero address."
      },
      "name()": {
        "details": "Returns the name of the token."
      },
      "symbol()": {
        "details": "Returns the symbol of the token, usually a shorter version of the name."
      },
      "totalSupply()": {
        "details": "See {IERC20-totalSupply}."
      },
      "transfer(address,uint256)": {
        "details": "See {IERC20-transfer}. Requirements: - `recipient` cannot be the zero address. - the caller must have a balance of at least `amount`."
      },
      "transferFrom(address,address,uint256)": {
        "details": "See {IERC20-transferFrom}. Emits an {Approval} event indicating the updated allowance. This is not required by the EIP. See the note at the beginning of {ERC20}. Requirements: - `sender` and `recipient` cannot be the zero address. - `sender` must have a balance of at least `amount`. - the caller must have allowance for ``sender``'s tokens of at least `amount`."
      }
    },
    "version": 1
  },
  "userdoc": {
    "kind": "user",
    "methods": {},
    "version": 1
  }
}