{
  "contractName": "MuuuStakingProxyV2",
  "abi": [
    {
      "inputs": [
        {
          "internalType": "address",
          "name": "_rewards",
          "type": "address"
        },
        {
          "internalType": "address",
          "name": "_kgl",
          "type": "address"
        },
        {
          "internalType": "address",
          "name": "_muuu",
          "type": "address"
        },
        {
          "internalType": "address",
          "name": "_muKgl",
          "type": "address"
        },
        {
          "internalType": "address",
          "name": "_muuuStaking",
          "type": "address"
        },
        {
          "internalType": "address",
          "name": "_muKglStaking",
          "type": "address"
        },
        {
          "internalType": "address",
          "name": "_kglDeposit",
          "type": "address"
        }
      ],
      "stateMutability": "nonpayable",
      "type": "constructor"
    },
    {
      "anonymous": false,
      "inputs": [
        {
          "indexed": true,
          "internalType": "address",
          "name": "_distro",
          "type": "address"
        },
        {
          "indexed": false,
          "internalType": "bool",
          "name": "_valid",
          "type": "bool"
        }
      ],
      "name": "AddDistributor",
      "type": "event"
    },
    {
      "anonymous": false,
      "inputs": [
        {
          "indexed": true,
          "internalType": "address",
          "name": "token",
          "type": "address"
        },
        {
          "indexed": false,
          "internalType": "uint256",
          "name": "amount",
          "type": "uint256"
        }
      ],
      "name": "RewardsDistributed",
      "type": "event"
    },
    {
      "inputs": [],
      "name": "UseDistributors",
      "outputs": [
        {
          "internalType": "bool",
          "name": "",
          "type": "bool"
        }
      ],
      "stateMutability": "view",
      "type": "function"
    },
    {
      "inputs": [],
      "name": "callIncentive",
      "outputs": [
        {
          "internalType": "uint256",
          "name": "",
          "type": "uint256"
        }
      ],
      "stateMutability": "view",
      "type": "function"
    },
    {
      "inputs": [],
      "name": "denominator",
      "outputs": [
        {
          "internalType": "uint256",
          "name": "",
          "type": "uint256"
        }
      ],
      "stateMutability": "view",
      "type": "function"
    },
    {
      "inputs": [
        {
          "internalType": "address",
          "name": "",
          "type": "address"
        }
      ],
      "name": "distributors",
      "outputs": [
        {
          "internalType": "bool",
          "name": "",
          "type": "bool"
        }
      ],
      "stateMutability": "view",
      "type": "function"
    },
    {
      "inputs": [],
      "name": "kgl",
      "outputs": [
        {
          "internalType": "address",
          "name": "",
          "type": "address"
        }
      ],
      "stateMutability": "view",
      "type": "function"
    },
    {
      "inputs": [],
      "name": "kglDeposit",
      "outputs": [
        {
          "internalType": "address",
          "name": "",
          "type": "address"
        }
      ],
      "stateMutability": "view",
      "type": "function"
    },
    {
      "inputs": [],
      "name": "muKgl",
      "outputs": [
        {
          "internalType": "address",
          "name": "",
          "type": "address"
        }
      ],
      "stateMutability": "view",
      "type": "function"
    },
    {
      "inputs": [],
      "name": "muKglStaking",
      "outputs": [
        {
          "internalType": "address",
          "name": "",
          "type": "address"
        }
      ],
      "stateMutability": "view",
      "type": "function"
    },
    {
      "inputs": [],
      "name": "muuu",
      "outputs": [
        {
          "internalType": "address",
          "name": "",
          "type": "address"
        }
      ],
      "stateMutability": "view",
      "type": "function"
    },
    {
      "inputs": [],
      "name": "muuuStaking",
      "outputs": [
        {
          "internalType": "address",
          "name": "",
          "type": "address"
        }
      ],
      "stateMutability": "view",
      "type": "function"
    },
    {
      "inputs": [],
      "name": "owner",
      "outputs": [
        {
          "internalType": "address",
          "name": "",
          "type": "address"
        }
      ],
      "stateMutability": "view",
      "type": "function"
    },
    {
      "inputs": [],
      "name": "pendingOwner",
      "outputs": [
        {
          "internalType": "address",
          "name": "",
          "type": "address"
        }
      ],
      "stateMutability": "view",
      "type": "function"
    },
    {
      "inputs": [],
      "name": "rewards",
      "outputs": [
        {
          "internalType": "address",
          "name": "",
          "type": "address"
        }
      ],
      "stateMutability": "view",
      "type": "function"
    },
    {
      "inputs": [
        {
          "internalType": "address",
          "name": "_po",
          "type": "address"
        }
      ],
      "name": "setPendingOwner",
      "outputs": [],
      "stateMutability": "nonpayable",
      "type": "function"
    },
    {
      "inputs": [],
      "name": "applyPendingOwner",
      "outputs": [],
      "stateMutability": "nonpayable",
      "type": "function"
    },
    {
      "inputs": [
        {
          "internalType": "uint256",
          "name": "_incentive",
          "type": "uint256"
        }
      ],
      "name": "setCallIncentive",
      "outputs": [],
      "stateMutability": "nonpayable",
      "type": "function"
    },
    {
      "inputs": [
        {
          "internalType": "address",
          "name": "_distro",
          "type": "address"
        },
        {
          "internalType": "bool",
          "name": "_valid",
          "type": "bool"
        }
      ],
      "name": "setDistributor",
      "outputs": [],
      "stateMutability": "nonpayable",
      "type": "function"
    },
    {
      "inputs": [
        {
          "internalType": "bool",
          "name": "_use",
          "type": "bool"
        }
      ],
      "name": "setUseDistributorList",
      "outputs": [],
      "stateMutability": "nonpayable",
      "type": "function"
    },
    {
      "inputs": [],
      "name": "setApprovals",
      "outputs": [],
      "stateMutability": "nonpayable",
      "type": "function"
    },
    {
      "inputs": [
        {
          "internalType": "address",
          "name": "_token",
          "type": "address"
        },
        {
          "internalType": "address",
          "name": "_to",
          "type": "address"
        }
      ],
      "name": "rescueToken",
      "outputs": [],
      "stateMutability": "nonpayable",
      "type": "function"
    },
    {
      "inputs": [],
      "name": "getBalance",
      "outputs": [
        {
          "internalType": "uint256",
          "name": "",
          "type": "uint256"
        }
      ],
      "stateMutability": "view",
      "type": "function"
    },
    {
      "inputs": [
        {
          "internalType": "uint256",
          "name": "_amount",
          "type": "uint256"
        }
      ],
      "name": "withdraw",
      "outputs": [],
      "stateMutability": "nonpayable",
      "type": "function"
    },
    {
      "inputs": [],
      "name": "stake",
      "outputs": [],
      "stateMutability": "nonpayable",
      "type": "function"
    },
    {
      "inputs": [],
      "name": "distribute",
      "outputs": [],
      "stateMutability": "nonpayable",
      "type": "function"
    },
    {
      "inputs": [
        {
          "internalType": "contract IERC20",
          "name": "_token",
          "type": "address"
        }
      ],
      "name": "distributeOther",
      "outputs": [],
      "stateMutability": "nonpayable",
      "type": "function"
    }
  ],
  "bytecode": "0x61016060405260006002556004805460ff1916600117905534801561002357600080fd5b50604051611df9380380611df9833981810160405260e081101561004657600080fd5b50805160208083015160408085015160608087015160808089015160a0808b015160c09b8c01516001600160601b03199b871b8c1661014052600080546001600160a01b03191633908117825581526003909b5297909920805460ff1916600117905596841b891690915292821b871690945292831b851690955293811b831660e05290811b8216610100529190911b166101205260805160601c60a05160601c60c05160601c60e05160601c6101005160601c6101205160601c6101405160601c611c026101f76000398061045e528061058a52806109b152806109e65280610a0f5280610d455280610d9a5280610dda5280611498525080610c9a5280610cef5280610f695280611205525080610b9e5280611269528061133252508061036d528061039352806104e252806105e65280610bef5280610c4452806110df525080610431528061071d52806108665280610d235280610d785280611392528061146f52806114c7528061155652508061054a52806106df5280610bcd5280610c2252806115ac5250806106a252806108295280610c785280610ccd5280611034528061113e5250611c026000f3fe608060405234801561001057600080fd5b50600436106101735760003560e01c806396ce0795116100de578063cc7554eb11610097578063d782139a11610071578063d782139a1461034b578063e30c397814610353578063e4fc6b6d1461035b578063f2f6a6b61461036357610173565b8063cc7554eb146102f8578063d52350ff14610315578063d59ba0df1461031d57610173565b806396ce0795146102755780639ec5a8941461027d578063ba1294b814610285578063c42069ec146102a4578063cb22356b146102ca578063cc642784146102d257610173565b80634707d000116101305780634707d0001461020157806351c92b131461022f5780636d4a2ea11461025557806379bdb63c1461025d5780638757b15b146102655780638da5cb5b1461026d57610173565b806305de6db01461017857806312065fe01461019c578063236dcb63146101b65780632e1a7d4d146101be57806338f16d28146101dd5780633a4b66f1146101f9575b600080fd5b61018061036b565b604080516001600160a01b039092168252519081900360200190f35b6101a461038f565b60408051918252519081900360200190f35b61018061042f565b6101db600480360360208110156101d457600080fd5b5035610453565b005b6101e5610576565b604080519115158252519081900360200190f35b6101db61057f565b6101db6004803603604081101561021757600080fd5b506001600160a01b0381358116916020013516610659565b6101db6004803603602081101561024557600080fd5b50356001600160a01b0316610827565b6101db610ae1565b610180610b9c565b6101db610bc0565b610180610dc3565b6101a4610dd2565b610180610dd8565b6101db6004803603602081101561029b57600080fd5b50351515610dfc565b6101db600480360360208110156102ba57600080fd5b50356001600160a01b0316610e56565b6101a4610ebf565b6101e5600480360360208110156102e857600080fd5b50356001600160a01b0316610ec5565b6101db6004803603602081101561030e57600080fd5b5035610eda565b610180610f67565b6101db6004803603604081101561033357600080fd5b506001600160a01b0381351690602001351515610f8b565b610180611032565b610180611056565b6101db611065565b6101806115aa565b7f000000000000000000000000000000000000000000000000000000000000000081565b60007f00000000000000000000000000000000000000000000000000000000000000006001600160a01b03166370a08231306040518263ffffffff1660e01b815260040180826001600160a01b0316815260200191505060206040518083038186803b1580156103fe57600080fd5b505afa158015610412573d6000803e3d6000fd5b505050506040513d602081101561042857600080fd5b5051905090565b7f000000000000000000000000000000000000000000000000000000000000000081565b336001600160a01b037f000000000000000000000000000000000000000000000000000000000000000016146104b8576040805162461bcd60e51b8152602060048201526005602482015264042c2eae8d60db1b604482015290519081900360640190fd5b60408051631c683a1b60e11b81526004810183905260006024820181905291516001600160a01b037f000000000000000000000000000000000000000000000000000000000000000016926338d07436926044808201939182900301818387803b15801561052557600080fd5b505af1158015610539573d6000803e3d6000fd5b506105739250506001600160a01b037f000000000000000000000000000000000000000000000000000000000000000016905033836115ce565b50565b60045460ff1681565b336001600160a01b037f000000000000000000000000000000000000000000000000000000000000000016146105e4576040805162461bcd60e51b8152602060048201526005602482015264042c2eae8d60db1b604482015290519081900360640190fd5b7f00000000000000000000000000000000000000000000000000000000000000006001600160a01b0316638dcb40616040518163ffffffff1660e01b8152600401600060405180830381600087803b15801561063f57600080fd5b505af1158015610653573d6000803e3d6000fd5b50505050565b6000546001600160a01b031633146106a0576040805162461bcd60e51b8152602060048201526005602482015264042c2eae8d60db1b604482015290519081900360640190fd5b7f00000000000000000000000000000000000000000000000000000000000000006001600160a01b0316826001600160a01b03161415801561071457507f00000000000000000000000000000000000000000000000000000000000000006001600160a01b0316826001600160a01b031614155b801561075257507f00000000000000000000000000000000000000000000000000000000000000006001600160a01b0316826001600160a01b031614155b610791576040805162461bcd60e51b815260206004820152600b60248201526a1b9bdd08185b1b1bddd95960aa1b604482015290519081900360640190fd5b6000826001600160a01b03166370a08231306040518263ffffffff1660e01b815260040180826001600160a01b0316815260200191505060206040518083038186803b1580156107e057600080fd5b505afa1580156107f4573d6000803e3d6000fd5b505050506040513d602081101561080a57600080fd5b505190506108226001600160a01b03841683836115ce565b505050565b7f00000000000000000000000000000000000000000000000000000000000000006001600160a01b0316816001600160a01b03161415801561089b57507f00000000000000000000000000000000000000000000000000000000000000006001600160a01b0316816001600160a01b031614155b6108da576040805162461bcd60e51b815260206004820152600b60248201526a1b9bdd08185b1b1bddd95960aa1b604482015290519081900360640190fd5b6000816001600160a01b03166370a08231306040518263ffffffff1660e01b815260040180826001600160a01b0316815260200191505060206040518083038186803b15801561092957600080fd5b505afa15801561093d573d6000803e3d6000fd5b505050506040513d602081101561095357600080fd5b505190508015610add57600061098061271061097a6002548561162090919063ffffffff16565b90611682565b905061098c82826116e9565b91506109a26001600160a01b03841633836115ce565b6109d76001600160a01b0384167f00000000000000000000000000000000000000000000000000000000000000006000611746565b610a0d6001600160a01b0384167f0000000000000000000000000000000000000000000000000000000000000000600019611746565b7f00000000000000000000000000000000000000000000000000000000000000006001600160a01b031663b66503cf84846040518363ffffffff1660e01b815260040180836001600160a01b0316815260200182815260200192505050600060405180830381600087803b158015610a8457600080fd5b505af1158015610a98573d6000803e3d6000fd5b50506040805185815290516001600160a01b03871693507fdf29796aad820e4bb192f3a8d631b76519bcd2cbe77cc85af20e9df53cece08692509081900360200190a2505b5050565b6000546001600160a01b03163314610b28576040805162461bcd60e51b8152602060048201526005602482015264042c2eae8d60db1b604482015290519081900360640190fd5b6001546001600160a01b0316610b75576040805162461bcd60e51b815260206004820152600d60248201526c34b73b30b634b21037bbb732b960991b604482015290519081900360640190fd5b60018054600080546001600160a01b03199081166001600160a01b03841617909155169055565b7f000000000000000000000000000000000000000000000000000000000000000081565b610c156001600160a01b037f0000000000000000000000000000000000000000000000000000000000000000167f00000000000000000000000000000000000000000000000000000000000000006000611746565b610c6b6001600160a01b037f0000000000000000000000000000000000000000000000000000000000000000167f0000000000000000000000000000000000000000000000000000000000000000600019611746565b610cc06001600160a01b037f0000000000000000000000000000000000000000000000000000000000000000167f00000000000000000000000000000000000000000000000000000000000000006000611746565b610d166001600160a01b037f0000000000000000000000000000000000000000000000000000000000000000167f0000000000000000000000000000000000000000000000000000000000000000600019611746565b610d6b6001600160a01b037f0000000000000000000000000000000000000000000000000000000000000000167f00000000000000000000000000000000000000000000000000000000000000006000611746565b610dc16001600160a01b037f0000000000000000000000000000000000000000000000000000000000000000167f0000000000000000000000000000000000000000000000000000000000000000600019611746565b565b6000546001600160a01b031681565b61271081565b7f000000000000000000000000000000000000000000000000000000000000000081565b6000546001600160a01b03163314610e43576040805162461bcd60e51b8152602060048201526005602482015264042c2eae8d60db1b604482015290519081900360640190fd5b6004805460ff1916911515919091179055565b6000546001600160a01b03163314610e9d576040805162461bcd60e51b8152602060048201526005602482015264042c2eae8d60db1b604482015290519081900360640190fd5b600180546001600160a01b0319166001600160a01b0392909216919091179055565b60025481565b60036020526000908152604090205460ff1681565b6000546001600160a01b03163314610f21576040805162461bcd60e51b8152602060048201526005602482015264042c2eae8d60db1b604482015290519081900360640190fd5b6064811115610f62576040805162461bcd60e51b81526020600482015260086024820152670e8dede40d0d2ced60c31b604482015290519081900360640190fd5b600255565b7f000000000000000000000000000000000000000000000000000000000000000081565b6000546001600160a01b03163314610fd2576040805162461bcd60e51b8152602060048201526005602482015264042c2eae8d60db1b604482015290519081900360640190fd5b6001600160a01b038216600081815260036020908152604091829020805460ff1916851515908117909155825190815291517f3bb4fb70bcd6f2a6c7b656049bb6f5ea7c3abc5e6f9aa7d72c621b082938174a9281900390910190a25050565b7f000000000000000000000000000000000000000000000000000000000000000081565b6001546001600160a01b031681565b60045460ff16156110bc573360009081526003602052604090205460ff166110bc576040805162461bcd60e51b8152602060048201526005602482015264042c2eae8d60db1b604482015290519081900360640190fd5b6040805163a4698feb60e01b815260006004820181905291516001600160a01b037f0000000000000000000000000000000000000000000000000000000000000000169263a4698feb926024808201939182900301818387803b15801561112257600080fd5b505af1158015611136573d6000803e3d6000fd5b5050505060007f00000000000000000000000000000000000000000000000000000000000000006001600160a01b03166370a08231306040518263ffffffff1660e01b815260040180826001600160a01b0316815260200191505060206040518083038186803b1580156111a957600080fd5b505afa1580156111bd573d6000803e3d6000fd5b505050506040513d60208110156111d357600080fd5b5051905080156112655760408051639a40832160e01b8152600481018390526001602482015290516001600160a01b037f00000000000000000000000000000000000000000000000000000000000000001691639a40832191604480830192600092919082900301818387803b15801561124c57600080fd5b505af1158015611260573d6000803e3d6000fd5b505050505b60007f00000000000000000000000000000000000000000000000000000000000000006001600160a01b03166370a08231306040518263ffffffff1660e01b815260040180826001600160a01b0316815260200191505060206040518083038186803b1580156112d457600080fd5b505afa1580156112e8573d6000803e3d6000fd5b505050506040513d60208110156112fe57600080fd5b50519050801561138e5760408051631c683a1b60e11b81526004810183905260006024820181905291516001600160a01b037f000000000000000000000000000000000000000000000000000000000000000016926338d07436926044808201939182900301818387803b15801561137557600080fd5b505af1158015611389573d6000803e3d6000fd5b505050505b60007f00000000000000000000000000000000000000000000000000000000000000006001600160a01b03166370a08231306040518263ffffffff1660e01b815260040180826001600160a01b0316815260200191505060206040518083038186803b1580156113fd57600080fd5b505afa158015611411573d6000803e3d6000fd5b505050506040513d602081101561142757600080fd5b50519050801561082257600061144e61271061097a6002548561162090919063ffffffff16565b905061145a82826116e9565b91508015611496576114966001600160a01b037f00000000000000000000000000000000000000000000000000000000000000001633836115ce565b7f00000000000000000000000000000000000000000000000000000000000000006001600160a01b031663b66503cf7f0000000000000000000000000000000000000000000000000000000000000000846040518363ffffffff1660e01b815260040180836001600160a01b0316815260200182815260200192505050600060405180830381600087803b15801561152d57600080fd5b505af1158015611541573d6000803e3d6000fd5b50506040805185815290516001600160a01b037f00000000000000000000000000000000000000000000000000000000000000001693507fdf29796aad820e4bb192f3a8d631b76519bcd2cbe77cc85af20e9df53cece08692509081900360200190a250505050565b7f000000000000000000000000000000000000000000000000000000000000000081565b604080516001600160a01b038416602482015260448082018490528251808303909101815260649091019091526020810180516001600160e01b031663a9059cbb60e01b179052610822908490611855565b60008261162f5750600061167c565b8282028284828161163c57fe5b04146116795760405162461bcd60e51b8152600401808060200182810382526021815260200180611b4c6021913960400191505060405180910390fd5b90505b92915050565b60008082116116d8576040805162461bcd60e51b815260206004820152601a60248201527f536166654d6174683a206469766973696f6e206279207a65726f000000000000604482015290519081900360640190fd5b8183816116e157fe5b049392505050565b600082821115611740576040805162461bcd60e51b815260206004820152601e60248201527f536166654d6174683a207375627472616374696f6e206f766572666c6f770000604482015290519081900360640190fd5b50900390565b8015806117cc575060408051636eb1769f60e11b81523060048201526001600160a01b03848116602483015291519185169163dd62ed3e91604480820192602092909190829003018186803b15801561179e57600080fd5b505afa1580156117b2573d6000803e3d6000fd5b505050506040513d60208110156117c857600080fd5b5051155b6118075760405162461bcd60e51b8152600401808060200182810382526036815260200180611b976036913960400191505060405180910390fd5b604080516001600160a01b038416602482015260448082018490528251808303909101815260649091019091526020810180516001600160e01b031663095ea7b360e01b1790526108229084905b60606118aa826040518060400160405280602081526020017f5361666545524332303a206c6f772d6c6576656c2063616c6c206661696c6564815250856001600160a01b03166119069092919063ffffffff16565b805190915015610822578080602001905160208110156118c957600080fd5b50516108225760405162461bcd60e51b815260040180806020018281038252602a815260200180611b6d602a913960400191505060405180910390fd5b6060611915848460008561191f565b90505b9392505050565b6060824710156119605760405162461bcd60e51b8152600401808060200182810382526026815260200180611b266026913960400191505060405180910390fd5b61196985611a7b565b6119ba576040805162461bcd60e51b815260206004820152601d60248201527f416464726573733a2063616c6c20746f206e6f6e2d636f6e7472616374000000604482015290519081900360640190fd5b60006060866001600160a01b031685876040518082805190602001908083835b602083106119f95780518252601f1990920191602091820191016119da565b6001836020036101000a03801982511681845116808217855250505050505090500191505060006040518083038185875af1925050503d8060008114611a5b576040519150601f19603f3d011682016040523d82523d6000602084013e611a60565b606091505b5091509150611a70828286611a81565b979650505050505050565b3b151590565b60608315611a90575081611918565b825115611aa05782518084602001fd5b8160405162461bcd60e51b81526004018080602001828103825283818151815260200191508051906020019080838360005b83811015611aea578181015183820152602001611ad2565b50505050905090810190601f168015611b175780820380516001836020036101000a031916815260200191505b509250505060405180910390fdfe416464726573733a20696e73756666696369656e742062616c616e636520666f722063616c6c536166654d6174683a206d756c7469706c69636174696f6e206f766572666c6f775361666545524332303a204552433230206f7065726174696f6e20646964206e6f7420737563636565645361666545524332303a20617070726f76652066726f6d206e6f6e2d7a65726f20746f206e6f6e2d7a65726f20616c6c6f77616e6365a2646970667358221220a10a5ced96fcd7bc8ec36848c94f7343f2f245302cce741e5a309e295e4da91464736f6c634300060c0033",
  "immutableReferences": {
    "11225": [
      {
        "length": 32,
        "start": 1698
      },
      {
        "length": 32,
        "start": 2089
      },
      {
        "length": 32,
        "start": 3192
      },
      {
        "length": 32,
        "start": 3277
      },
      {
        "length": 32,
        "start": 4148
      },
      {
        "length": 32,
        "start": 4414
      }
    ],
    "11227": [
      {
        "length": 32,
        "start": 1354
      },
      {
        "length": 32,
        "start": 1759
      },
      {
        "length": 32,
        "start": 3021
      },
      {
        "length": 32,
        "start": 3106
      },
      {
        "length": 32,
        "start": 5548
      }
    ],
    "11229": [
      {
        "length": 32,
        "start": 1073
      },
      {
        "length": 32,
        "start": 1821
      },
      {
        "length": 32,
        "start": 2150
      },
      {
        "length": 32,
        "start": 3363
      },
      {
        "length": 32,
        "start": 3448
      },
      {
        "length": 32,
        "start": 5010
      },
      {
        "length": 32,
        "start": 5231
      },
      {
        "length": 32,
        "start": 5319
      },
      {
        "length": 32,
        "start": 5462
      }
    ],
    "11231": [
      {
        "length": 32,
        "start": 877
      },
      {
        "length": 32,
        "start": 915
      },
      {
        "length": 32,
        "start": 1250
      },
      {
        "length": 32,
        "start": 1510
      },
      {
        "length": 32,
        "start": 3055
      },
      {
        "length": 32,
        "start": 3140
      },
      {
        "length": 32,
        "start": 4319
      }
    ],
    "11233": [
      {
        "length": 32,
        "start": 2974
      },
      {
        "length": 32,
        "start": 4713
      },
      {
        "length": 32,
        "start": 4914
      }
    ],
    "11235": [
      {
        "length": 32,
        "start": 3226
      },
      {
        "length": 32,
        "start": 3311
      },
      {
        "length": 32,
        "start": 3945
      },
      {
        "length": 32,
        "start": 4613
      }
    ],
    "11240": [
      {
        "length": 32,
        "start": 1118
      },
      {
        "length": 32,
        "start": 1418
      },
      {
        "length": 32,
        "start": 2481
      },
      {
        "length": 32,
        "start": 2534
      },
      {
        "length": 32,
        "start": 2575
      },
      {
        "length": 32,
        "start": 3397
      },
      {
        "length": 32,
        "start": 3482
      },
      {
        "length": 32,
        "start": 3546
      },
      {
        "length": 32,
        "start": 5272
      }
    ]
  },
  "source": "// SPDX-License-Identifier: MIT\npragma solidity 0.6.12;\n\nimport \"./interfaces/IKglDepositor.sol\";\nimport \"@openzeppelin/contracts/utils/Address.sol\";\nimport \"@openzeppelin/contracts/token/ERC20/IERC20.sol\";\nimport \"@openzeppelin/contracts/token/ERC20/SafeERC20.sol\";\nimport \"@openzeppelin/contracts/math/SafeMath.sol\";\n\ninterface IMuuuRewards {\n  function withdraw(uint256 _amount, bool _claim) external;\n\n  function balanceOf(address _account) external view returns (uint256);\n\n  function getReward(bool _stake) external;\n\n  function stakeAll() external;\n}\n\ninterface IMuuuLocker {\n  function notifyRewardAmount(address _rewardsToken, uint256 reward) external;\n}\n\n// receive tokens to stake\n// get current staked balance\n// withdraw staked tokens\n// send rewards back to owner(muuu locker)\n// register token types that can be distributed\n\ncontract MuuuStakingProxyV2 {\n  using SafeERC20 for IERC20;\n  using Address for address;\n  using SafeMath for uint256;\n\n  // tokens' addreesses\n  address public immutable kgl;\n  address public immutable muuu;\n  address public immutable muKgl;\n\n  // muuu addresses\n  address public immutable muuuStaking;\n  address public immutable muKglStaking;\n  address public immutable kglDeposit;\n  uint256 public constant denominator = 10000;\n\n  address public immutable rewards;\n\n  address public owner;\n  address public pendingOwner;\n  uint256 public callIncentive = 0;\n\n  mapping(address => bool) public distributors;\n  bool public UseDistributors = true;\n\n  event AddDistributor(address indexed _distro, bool _valid);\n  event RewardsDistributed(address indexed token, uint256 amount);\n\n  constructor(\n    address _rewards,\n    address _kgl,\n    address _muuu,\n    address _muKgl,\n    address _muuuStaking,\n    address _muKglStaking,\n    address _kglDeposit\n  ) public {\n    rewards = _rewards;\n    owner = msg.sender;\n    distributors[msg.sender] = true;\n    kgl = _kgl;\n    muuu = _muuu;\n    muKgl = _muKgl;\n    muuuStaking = _muuuStaking;\n    muKglStaking = _muKglStaking;\n    kglDeposit = _kglDeposit;\n  }\n\n  function setPendingOwner(address _po) external {\n    require(msg.sender == owner, \"!auth\");\n    pendingOwner = _po;\n  }\n\n  function applyPendingOwner() external {\n    require(msg.sender == owner, \"!auth\");\n    require(pendingOwner != address(0), \"invalid owner\");\n\n    owner = pendingOwner;\n    pendingOwner = address(0);\n  }\n\n  function setCallIncentive(uint256 _incentive) external {\n    require(msg.sender == owner, \"!auth\");\n    require(_incentive <= 100, \"too high\");\n    callIncentive = _incentive;\n  }\n\n  function setDistributor(address _distro, bool _valid) external {\n    require(msg.sender == owner, \"!auth\");\n    distributors[_distro] = _valid;\n    emit AddDistributor(_distro, _valid);\n  }\n\n  function setUseDistributorList(bool _use) external {\n    require(msg.sender == owner, \"!auth\");\n    UseDistributors = _use;\n  }\n\n  function setApprovals() external {\n    IERC20(muuu).safeApprove(muuuStaking, 0);\n    IERC20(muuu).safeApprove(muuuStaking, uint256(-1));\n\n    IERC20(kgl).safeApprove(kglDeposit, 0);\n    IERC20(kgl).safeApprove(kglDeposit, uint256(-1));\n\n    IERC20(muKgl).safeApprove(rewards, 0);\n    IERC20(muKgl).safeApprove(rewards, uint256(-1));\n  }\n\n  function rescueToken(address _token, address _to) external {\n    require(msg.sender == owner, \"!auth\");\n    require(_token != kgl && _token != muuu && _token != muKgl, \"not allowed\");\n\n    uint256 bal = IERC20(_token).balanceOf(address(this));\n    IERC20(_token).safeTransfer(_to, bal);\n  }\n\n  function getBalance() external view returns (uint256) {\n    return IMuuuRewards(muuuStaking).balanceOf(address(this));\n  }\n\n  function withdraw(uint256 _amount) external {\n    require(msg.sender == rewards, \"!auth\");\n\n    //unstake\n    IMuuuRewards(muuuStaking).withdraw(_amount, false);\n\n    //withdraw muuu\n    IERC20(muuu).safeTransfer(msg.sender, _amount);\n  }\n\n  function stake() external {\n    require(msg.sender == rewards, \"!auth\");\n\n    IMuuuRewards(muuuStaking).stakeAll();\n  }\n\n  function distribute() external {\n    if (UseDistributors) {\n      require(distributors[msg.sender], \"!auth\");\n    }\n\n    //claim rewards\n    IMuuuRewards(muuuStaking).getReward(false);\n\n    //convert any kgl that was directly added\n    uint256 kglBal = IERC20(kgl).balanceOf(address(this));\n    if (kglBal > 0) {\n      IKglDepositor(kglDeposit).deposit(kglBal, true);\n    }\n\n    //make sure nothing is in here\n    uint256 sCheck = IMuuuRewards(muKglStaking).balanceOf(address(this));\n    if (sCheck > 0) {\n      IMuuuRewards(muKglStaking).withdraw(sCheck, false);\n    }\n\n    //distribute mukgl\n    uint256 muKglBal = IERC20(muKgl).balanceOf(address(this));\n\n    if (muKglBal > 0) {\n      uint256 incentiveAmount = muKglBal.mul(callIncentive).div(denominator);\n      muKglBal = muKglBal.sub(incentiveAmount);\n      \n      if (incentiveAmount > 0) {\n        //send incentives\n        IERC20(muKgl).safeTransfer(msg.sender, incentiveAmount);\n      }\n\n      //update rewards\n      IMuuuLocker(rewards).notifyRewardAmount(muKgl, muKglBal);\n\n      emit RewardsDistributed(muKgl, muKglBal);\n    }\n  }\n\n  //in case a new reward is ever added, allow generic distribution\n  function distributeOther(IERC20 _token) external {\n    require(address(_token) != kgl && address(_token) != muKgl, \"not allowed\");\n\n    uint256 bal = _token.balanceOf(address(this));\n\n    if (bal > 0) {\n      uint256 incentiveAmount = bal.mul(callIncentive).div(denominator);\n      bal = bal.sub(incentiveAmount);\n\n      //send incentives\n      _token.safeTransfer(msg.sender, incentiveAmount);\n\n      //approve\n      _token.safeApprove(rewards, 0);\n      _token.safeApprove(rewards, uint256(-1));\n\n      //update rewards\n      IMuuuLocker(rewards).notifyRewardAmount(address(_token), bal);\n\n      emit RewardsDistributed(address(_token), bal);\n    }\n  }\n}\n",
  "sourcePath": "/Users/shuto/Documents/bridges-dev/muuu/protocol/contracts/contracts/MuuuStakingProxyV2.sol",
  "compiler": {
    "name": "solc",
    "version": "0.6.12+commit.27d51765.Emscripten.clang"
  },
  "schemaVersion": "3.4.6",
  "updatedAt": "2022-04-25T07:58:50.502Z",
  "devdoc": {
    "kind": "dev",
    "methods": {},
    "version": 1
  },
  "userdoc": {
    "kind": "user",
    "methods": {},
    "version": 1
  }
}