{
  "contractName": "PoolManagerProxy",
  "abi": [
    {
      "inputs": [],
      "stateMutability": "nonpayable",
      "type": "constructor"
    },
    {
      "inputs": [],
      "name": "operator",
      "outputs": [
        {
          "internalType": "address",
          "name": "",
          "type": "address"
        }
      ],
      "stateMutability": "view",
      "type": "function"
    },
    {
      "inputs": [],
      "name": "owner",
      "outputs": [
        {
          "internalType": "address",
          "name": "",
          "type": "address"
        }
      ],
      "stateMutability": "view",
      "type": "function"
    },
    {
      "inputs": [],
      "name": "pools",
      "outputs": [
        {
          "internalType": "address",
          "name": "",
          "type": "address"
        }
      ],
      "stateMutability": "view",
      "type": "function"
    },
    {
      "inputs": [
        {
          "internalType": "address",
          "name": "_owner",
          "type": "address"
        }
      ],
      "name": "setOwner",
      "outputs": [],
      "stateMutability": "nonpayable",
      "type": "function"
    },
    {
      "inputs": [
        {
          "internalType": "address",
          "name": "_operator",
          "type": "address"
        }
      ],
      "name": "setOperator",
      "outputs": [],
      "stateMutability": "nonpayable",
      "type": "function"
    },
    {
      "inputs": [
        {
          "internalType": "uint256",
          "name": "_pid",
          "type": "uint256"
        }
      ],
      "name": "shutdownPool",
      "outputs": [
        {
          "internalType": "bool",
          "name": "",
          "type": "bool"
        }
      ],
      "stateMutability": "nonpayable",
      "type": "function"
    },
    {
      "inputs": [
        {
          "internalType": "address",
          "name": "_lptoken",
          "type": "address"
        },
        {
          "internalType": "address",
          "name": "_gauge",
          "type": "address"
        },
        {
          "internalType": "uint256",
          "name": "_stashVersion",
          "type": "uint256"
        }
      ],
      "name": "addPool",
      "outputs": [
        {
          "internalType": "bool",
          "name": "",
          "type": "bool"
        }
      ],
      "stateMutability": "nonpayable",
      "type": "function"
    }
  ],
  "bytecode": "0x608060405234801561001057600080fd5b5060008054336001600160a01b031991821681178355600180549092161790556106b990819061004090396000f3fe608060405234801561001057600080fd5b506004361061007d5760003560e01c80637e29d6c21161005b5780637e29d6c2146100ff5780638da5cb5b14610135578063b3ab15fb1461013d578063c5c51dca146101635761007d565b806313af403514610082578063570ca735146100aa57806360cafe84146100ce575b600080fd5b6100a86004803603602081101561009857600080fd5b50356001600160a01b031661016b565b005b6100b26101d5565b604080516001600160a01b039092168252519081900360200190f35b6100eb600480360360208110156100e457600080fd5b50356101e4565b604080519115158252519081900360200190f35b6100eb6004803603606081101561011557600080fd5b506001600160a01b038135811691602081013590911690604001356102b8565b6100b26105f2565b6100a86004803603602081101561015357600080fd5b50356001600160a01b0316610601565b6100b261066b565b6000546001600160a01b031633146101b3576040805162461bcd60e51b815260206004820152600660248201526510b7bbb732b960d11b604482015290519081900360640190fd5b600080546001600160a01b0319166001600160a01b0392909216919091179055565b6001546001600160a01b031681565b6001546000906001600160a01b0316331461022c576040805162461bcd60e51b81526020600482015260036024820152620216f760ec1b604482015290519081900360640190fd5b73f403c135812408bfbe8713b5a23a04b3d48aae316001600160a01b03166360cafe84836040518263ffffffff1660e01b815260040180828152602001915050602060405180830381600087803b15801561028657600080fd5b505af115801561029a573d6000803e3d6000fd5b505050506040513d60208110156102b057600080fd5b505192915050565b6001546000906001600160a01b03163314610300576040805162461bcd60e51b81526020600482015260036024820152620216f760ec1b604482015290519081900360640190fd5b6001600160a01b038316610348576040805162461bcd60e51b815260206004820152600a6024820152690676175676520697320360b41b604482015290519081900360640190fd5b6001600160a01b038416610393576040805162461bcd60e51b815260206004820152600d60248201526c06c7020746f6b656e206973203609c1b604482015290519081900360640190fd5b600073f403c135812408bfbe8713b5a23a04b3d48aae316001600160a01b031663cb0d5b52856040518263ffffffff1660e01b815260040180826001600160a01b0316815260200191505060206040518083038186803b1580156103f657600080fd5b505afa15801561040a573d6000803e3d6000fd5b505050506040513d602081101561042057600080fd5b505190508015610477576040805162461bcd60e51b815260206004820152601860248201527f616c726561647920726567697374657265642067617567650000000000000000604482015290519081900360640190fd5b60408051636586ada960e11b81526001600160a01b0387166004820152905173f403c135812408bfbe8713b5a23a04b3d48aae319163cb0d5b52916024808301926020929190829003018186803b1580156104d157600080fd5b505afa1580156104e5573d6000803e3d6000fd5b505050506040513d60208110156104fb57600080fd5b505190508015610552576040805162461bcd60e51b815260206004820152601a60248201527f616c72656164792072656769737465726564206c70746f6b656e000000000000604482015290519081900360640190fd5b60408051633f14eb6160e11b81526001600160a01b0387811660048301528616602482015260448101859052905173f403c135812408bfbe8713b5a23a04b3d48aae3191637e29d6c29160648083019260209291908290030181600087803b1580156105bd57600080fd5b505af11580156105d1573d6000803e3d6000fd5b505050506040513d60208110156105e757600080fd5b505195945050505050565b6000546001600160a01b031681565b6000546001600160a01b03163314610649576040805162461bcd60e51b815260206004820152600660248201526510b7bbb732b960d11b604482015290519081900360640190fd5b600180546001600160a01b0319166001600160a01b0392909216919091179055565b73f403c135812408bfbe8713b5a23a04b3d48aae318156fea264697066735822122006662d0de38b9c1a8eb6d5c410f70c6e294e0e2be288d55db7cfcf359983d61564736f6c634300060c0033",
  "immutableReferences": {},
  "source": "// SPDX-License-Identifier: MIT\npragma solidity 0.6.12;\n\nimport \"./Interfaces.sol\";\n\n/*\nImmutable pool manager proxy to enforce that there are no multiple pools of the same gauge\nas well as new lp tokens are not gauge tokens\n*/\ncontract PoolManagerProxy {\n  address public constant pools = address(0xF403C135812408BFbE8713b5A23a04b3D48AAE31);\n  address public owner;\n  address public operator;\n\n  constructor() public {\n    owner = msg.sender;\n    operator = msg.sender;\n  }\n\n  modifier onlyOwner() {\n    require(owner == msg.sender, \"!owner\");\n    _;\n  }\n\n  modifier onlyOperator() {\n    require(operator == msg.sender, \"!op\");\n    _;\n  }\n\n  //set owner - only OWNER\n  function setOwner(address _owner) external onlyOwner {\n    owner = _owner;\n  }\n\n  //set operator - only OWNER\n  function setOperator(address _operator) external onlyOwner {\n    operator = _operator;\n  }\n\n  // sealed to be immutable\n  // function revertControl() external{\n  // }\n\n  //shutdown a pool - only OPERATOR\n  function shutdownPool(uint256 _pid) external onlyOperator returns (bool) {\n    return IPools(pools).shutdownPool(_pid);\n  }\n\n  //add a new pool - only OPERATOR\n  function addPool(\n    address _lptoken,\n    address _gauge,\n    uint256 _stashVersion\n  ) external onlyOperator returns (bool) {\n    require(_gauge != address(0), \"gauge is 0\");\n    require(_lptoken != address(0), \"lp token is 0\");\n\n    //check if a pool with this gauge already exists\n    bool gaugeExists = IPools(pools).gaugeMap(_gauge);\n    require(!gaugeExists, \"already registered gauge\");\n\n    //must also check that the lp token is not a registered gauge\n    //because kagla gauges are tokenized\n    gaugeExists = IPools(pools).gaugeMap(_lptoken);\n    require(!gaugeExists, \"already registered lptoken\");\n\n    return IPools(pools).addPool(_lptoken, _gauge, _stashVersion);\n  }\n}\n",
  "sourcePath": "/Users/shuto/Documents/bridges-dev/muuu/protocol/contracts/contracts/PoolManagerProxy.sol",
  "compiler": {
    "name": "solc",
    "version": "0.6.12+commit.27d51765.Emscripten.clang"
  },
  "schemaVersion": "3.4.6",
  "updatedAt": "2022-04-04T03:30:07.342Z",
  "devdoc": {
    "kind": "dev",
    "methods": {},
    "version": 1
  },
  "userdoc": {
    "kind": "user",
    "methods": {},
    "version": 1
  }
}