{
  "contractName": "PoolManagerProxy",
  "abi": [
    {
      "inputs": [
        {
          "internalType": "address",
          "name": "_pools",
          "type": "address"
        }
      ],
      "stateMutability": "nonpayable",
      "type": "constructor"
    },
    {
      "inputs": [],
      "name": "operator",
      "outputs": [
        {
          "internalType": "address",
          "name": "",
          "type": "address"
        }
      ],
      "stateMutability": "view",
      "type": "function"
    },
    {
      "inputs": [],
      "name": "owner",
      "outputs": [
        {
          "internalType": "address",
          "name": "",
          "type": "address"
        }
      ],
      "stateMutability": "view",
      "type": "function"
    },
    {
      "inputs": [],
      "name": "pools",
      "outputs": [
        {
          "internalType": "address",
          "name": "",
          "type": "address"
        }
      ],
      "stateMutability": "view",
      "type": "function"
    },
    {
      "inputs": [
        {
          "internalType": "address",
          "name": "_owner",
          "type": "address"
        }
      ],
      "name": "setOwner",
      "outputs": [],
      "stateMutability": "nonpayable",
      "type": "function"
    },
    {
      "inputs": [
        {
          "internalType": "address",
          "name": "_operator",
          "type": "address"
        }
      ],
      "name": "setOperator",
      "outputs": [],
      "stateMutability": "nonpayable",
      "type": "function"
    },
    {
      "inputs": [
        {
          "internalType": "address",
          "name": "_pools",
          "type": "address"
        }
      ],
      "name": "setPools",
      "outputs": [],
      "stateMutability": "nonpayable",
      "type": "function"
    },
    {
      "inputs": [
        {
          "internalType": "uint256",
          "name": "_pid",
          "type": "uint256"
        }
      ],
      "name": "shutdownPool",
      "outputs": [
        {
          "internalType": "bool",
          "name": "",
          "type": "bool"
        }
      ],
      "stateMutability": "nonpayable",
      "type": "function"
    },
    {
      "inputs": [
        {
          "internalType": "address",
          "name": "_lptoken",
          "type": "address"
        },
        {
          "internalType": "address",
          "name": "_gauge",
          "type": "address"
        },
        {
          "internalType": "uint256",
          "name": "_stashVersion",
          "type": "uint256"
        }
      ],
      "name": "addPool",
      "outputs": [
        {
          "internalType": "bool",
          "name": "",
          "type": "bool"
        }
      ],
      "stateMutability": "nonpayable",
      "type": "function"
    }
  ],
  "bytecode": "0x608060405234801561001057600080fd5b506040516107943803806107948339818101604052602081101561003357600080fd5b5051600180546001600160a01b031990811633908117909255600280548216909217909155600080546001600160a01b0390931692909116919091179055610714806100806000396000f3fe608060405234801561001057600080fd5b50600436106100885760003560e01c80638da5cb5b1161005b5780638da5cb5b14610140578063b3ab15fb14610148578063c5c51dca1461016e578063f245036e1461017657610088565b806313af40351461008d578063570ca735146100b557806360cafe84146100d95780637e29d6c21461010a575b600080fd5b6100b3600480360360208110156100a357600080fd5b50356001600160a01b031661019c565b005b6100bd610206565b604080516001600160a01b039092168252519081900360200190f35b6100f6600480360360208110156100ef57600080fd5b5035610215565b604080519115158252519081900360200190f35b6100f66004803603606081101561012057600080fd5b506001600160a01b038135811691602081013590911690604001356102de565b6100bd6105ec565b6100b36004803603602081101561015e57600080fd5b50356001600160a01b03166105fb565b6100bd610665565b6100b36004803603602081101561018c57600080fd5b50356001600160a01b0316610674565b6001546001600160a01b031633146101e4576040805162461bcd60e51b815260206004820152600660248201526510b7bbb732b960d11b604482015290519081900360640190fd5b600180546001600160a01b0319166001600160a01b0392909216919091179055565b6002546001600160a01b031681565b6002546000906001600160a01b0316331461025d576040805162461bcd60e51b81526020600482015260036024820152620216f760ec1b604482015290519081900360640190fd5b6000805460408051631832bfa160e21b81526004810186905290516001600160a01b03909216926360cafe84926024808401936020939083900390910190829087803b1580156102ac57600080fd5b505af11580156102c0573d6000803e3d6000fd5b505050506040513d60208110156102d657600080fd5b505192915050565b6002546000906001600160a01b03163314610326576040805162461bcd60e51b81526020600482015260036024820152620216f760ec1b604482015290519081900360640190fd5b6001600160a01b03831661036e576040805162461bcd60e51b815260206004820152600a6024820152690676175676520697320360b41b604482015290519081900360640190fd5b6001600160a01b0384166103b9576040805162461bcd60e51b815260206004820152600d60248201526c06c7020746f6b656e206973203609c1b604482015290519081900360640190fd5b6000805460408051636586ada960e11b81526001600160a01b0387811660048301529151919092169163cb0d5b52916024808301926020929190829003018186803b15801561040757600080fd5b505afa15801561041b573d6000803e3d6000fd5b505050506040513d602081101561043157600080fd5b505190508015610488576040805162461bcd60e51b815260206004820152601860248201527f616c726561647920726567697374657265642067617567650000000000000000604482015290519081900360640190fd5b60005460408051636586ada960e11b81526001600160a01b0388811660048301529151919092169163cb0d5b52916024808301926020929190829003018186803b1580156104d557600080fd5b505afa1580156104e9573d6000803e3d6000fd5b505050506040513d60208110156104ff57600080fd5b505190508015610556576040805162461bcd60e51b815260206004820152601a60248201527f616c72656164792072656769737465726564206c70746f6b656e000000000000604482015290519081900360640190fd5b6000805460408051633f14eb6160e11b81526001600160a01b03898116600483015288811660248301526044820188905291519190921692637e29d6c292606480820193602093909283900390910190829087803b1580156105b757600080fd5b505af11580156105cb573d6000803e3d6000fd5b505050506040513d60208110156105e157600080fd5b505195945050505050565b6001546001600160a01b031681565b6001546001600160a01b03163314610643576040805162461bcd60e51b815260206004820152600660248201526510b7bbb732b960d11b604482015290519081900360640190fd5b600280546001600160a01b0319166001600160a01b0392909216919091179055565b6000546001600160a01b031681565b6001546001600160a01b031633146106bc576040805162461bcd60e51b815260206004820152600660248201526510b7bbb732b960d11b604482015290519081900360640190fd5b600080546001600160a01b0319166001600160a01b039290921691909117905556fea2646970667358221220b612fc4e33532b12d229a6feae41b08d6d7c60f741783fc5bbfcb4361051df1564736f6c634300060c0033",
  "immutableReferences": {},
  "source": "// SPDX-License-Identifier: MIT\npragma solidity 0.6.12;\n\nimport \"./Interfaces.sol\";\n\n/*\nImmutable pool manager proxy to enforce that there are no multiple pools of the same gauge\nas well as new lp tokens are not gauge tokens\n*/\ncontract PoolManagerProxy {\n  address public pools;\n  address public owner;\n  address public operator;\n\n  constructor(address _pools) public {\n    owner = msg.sender;\n    operator = msg.sender;\n    pools = _pools;\n  }\n\n  modifier onlyOwner() {\n    require(owner == msg.sender, \"!owner\");\n    _;\n  }\n\n  modifier onlyOperator() {\n    require(operator == msg.sender, \"!op\");\n    _;\n  }\n\n  //set owner - only OWNER\n  function setOwner(address _owner) external onlyOwner {\n    owner = _owner;\n  }\n\n  //set operator - only OWNER\n  function setOperator(address _operator) external onlyOwner {\n    operator = _operator;\n  }\n\n  function setPools(address _pools) external onlyOwner {\n    pools = _pools;\n  }\n\n  // sealed to be immutable\n  // function revertControl() external{\n  // }\n\n  //shutdown a pool - only OPERATOR\n  function shutdownPool(uint256 _pid) external onlyOperator returns (bool) {\n    return IPools(pools).shutdownPool(_pid);\n  }\n\n  //add a new pool - only OPERATOR\n  function addPool(\n    address _lptoken,\n    address _gauge,\n    uint256 _stashVersion\n  ) external onlyOperator returns (bool) {\n    require(_gauge != address(0), \"gauge is 0\");\n    require(_lptoken != address(0), \"lp token is 0\");\n\n    //check if a pool with this gauge already exists\n    bool gaugeExists = IPools(pools).gaugeMap(_gauge);\n    require(!gaugeExists, \"already registered gauge\");\n\n    //must also check that the lp token is not a registered gauge\n    //because kagla gauges are tokenized\n    gaugeExists = IPools(pools).gaugeMap(_lptoken);\n    require(!gaugeExists, \"already registered lptoken\");\n\n    return IPools(pools).addPool(_lptoken, _gauge, _stashVersion);\n  }\n}\n",
  "sourcePath": "/Users/shuto/Documents/bridges-dev/muuu/protocol/contracts/contracts/PoolManagerProxy.sol",
  "compiler": {
    "name": "solc",
    "version": "0.6.12+commit.27d51765.Emscripten.clang"
  },
  "schemaVersion": "3.4.6",
  "updatedAt": "2022-04-25T07:58:50.515Z",
  "devdoc": {
    "kind": "dev",
    "methods": {},
    "version": 1
  },
  "userdoc": {
    "kind": "user",
    "methods": {},
    "version": 1
  }
}