{
  "contractName": "PoolManagerSecondaryProxy",
  "abi": [
    {
      "inputs": [],
      "stateMutability": "nonpayable",
      "type": "constructor"
    },
    {
      "inputs": [],
      "name": "booster",
      "outputs": [
        {
          "internalType": "address",
          "name": "",
          "type": "address"
        }
      ],
      "stateMutability": "view",
      "type": "function"
    },
    {
      "inputs": [],
      "name": "gaugeController",
      "outputs": [
        {
          "internalType": "address",
          "name": "",
          "type": "address"
        }
      ],
      "stateMutability": "view",
      "type": "function"
    },
    {
      "inputs": [],
      "name": "isShutdown",
      "outputs": [
        {
          "internalType": "bool",
          "name": "",
          "type": "bool"
        }
      ],
      "stateMutability": "view",
      "type": "function"
    },
    {
      "inputs": [],
      "name": "operator",
      "outputs": [
        {
          "internalType": "address",
          "name": "",
          "type": "address"
        }
      ],
      "stateMutability": "view",
      "type": "function"
    },
    {
      "inputs": [],
      "name": "owner",
      "outputs": [
        {
          "internalType": "address",
          "name": "",
          "type": "address"
        }
      ],
      "stateMutability": "view",
      "type": "function"
    },
    {
      "inputs": [],
      "name": "pools",
      "outputs": [
        {
          "internalType": "address",
          "name": "",
          "type": "address"
        }
      ],
      "stateMutability": "view",
      "type": "function"
    },
    {
      "inputs": [
        {
          "internalType": "address",
          "name": "",
          "type": "address"
        }
      ],
      "name": "usedMap",
      "outputs": [
        {
          "internalType": "bool",
          "name": "",
          "type": "bool"
        }
      ],
      "stateMutability": "view",
      "type": "function"
    },
    {
      "inputs": [
        {
          "internalType": "address",
          "name": "_owner",
          "type": "address"
        }
      ],
      "name": "setOwner",
      "outputs": [],
      "stateMutability": "nonpayable",
      "type": "function"
    },
    {
      "inputs": [
        {
          "internalType": "address",
          "name": "_operator",
          "type": "address"
        }
      ],
      "name": "setOperator",
      "outputs": [],
      "stateMutability": "nonpayable",
      "type": "function"
    },
    {
      "inputs": [
        {
          "internalType": "address[]",
          "name": "usedList",
          "type": "address[]"
        }
      ],
      "name": "setUsedAddress",
      "outputs": [],
      "stateMutability": "nonpayable",
      "type": "function"
    },
    {
      "inputs": [],
      "name": "shutdownSystem",
      "outputs": [],
      "stateMutability": "nonpayable",
      "type": "function"
    },
    {
      "inputs": [
        {
          "internalType": "uint256",
          "name": "_pid",
          "type": "uint256"
        }
      ],
      "name": "shutdownPool",
      "outputs": [
        {
          "internalType": "bool",
          "name": "",
          "type": "bool"
        }
      ],
      "stateMutability": "nonpayable",
      "type": "function"
    },
    {
      "inputs": [
        {
          "internalType": "address",
          "name": "_lptoken",
          "type": "address"
        },
        {
          "internalType": "address",
          "name": "_gauge",
          "type": "address"
        },
        {
          "internalType": "uint256",
          "name": "_stashVersion",
          "type": "uint256"
        }
      ],
      "name": "addPool",
      "outputs": [
        {
          "internalType": "bool",
          "name": "",
          "type": "bool"
        }
      ],
      "stateMutability": "nonpayable",
      "type": "function"
    },
    {
      "inputs": [
        {
          "internalType": "address",
          "name": "_lptoken",
          "type": "address"
        },
        {
          "internalType": "address",
          "name": "_gauge",
          "type": "address"
        },
        {
          "internalType": "uint256",
          "name": "_stashVersion",
          "type": "uint256"
        }
      ],
      "name": "forceAddPool",
      "outputs": [
        {
          "internalType": "bool",
          "name": "",
          "type": "bool"
        }
      ],
      "stateMutability": "nonpayable",
      "type": "function"
    }
  ],
  "bytecode": "0x608060405234801561001057600080fd5b5060008054336001600160a01b03199182168117835560018054909216179055610cb690819061004090396000f3fe608060405234801561001057600080fd5b50600436106100ea5760003560e01c80637fb96d251161008c578063b3ab15fb11610066578063b3ab15fb146102b9578063bf86d690146102df578063c5c51dca146102e7578063c6def076146102ef576100ea565b80637fb96d25146102065780638da5cb5b146102a957806399eecb3b146102b1576100ea565b8063570ca735116100c8578063570ca735146101595780635744887d1461017d57806360cafe84146101b35780637e29d6c2146101d0576100ea565b806313af4035146100ef5780632d59dca514610117578063354af91914610151575b600080fd5b6101156004803603602081101561010557600080fd5b50356001600160a01b03166102f7565b005b61013d6004803603602081101561012d57600080fd5b50356001600160a01b0316610361565b604080519115158252519081900360200190f35b610115610376565b6101616103d3565b604080516001600160a01b039092168252519081900360200190f35b61013d6004803603606081101561019357600080fd5b506001600160a01b038135811691602081013590911690604001356103e2565b61013d600480360360208110156101c957600080fd5b50356104c7565b61013d600480360360608110156101e657600080fd5b506001600160a01b0381358116916020810135909116906040013561085b565b6101156004803603602081101561021c57600080fd5b81019060208101813564010000000081111561023757600080fd5b82018360208201111561024957600080fd5b8035906020019184602083028401116401000000008311171561026b57600080fd5b91908080602002602001604051908101604052809392919081815260200183836020028082843760009201919091525092955061098d945050505050565b610161610a31565b610161610a40565b610115600480360360208110156102cf57600080fd5b50356001600160a01b0316610a58565b61013d610ac2565b610161610ad2565b610161610aea565b6000546001600160a01b0316331461033f576040805162461bcd60e51b815260206004820152600660248201526510b7bbb732b960d11b604482015290519081900360640190fd5b600080546001600160a01b0319166001600160a01b0392909216919091179055565b60026020526000908152604090205460ff1681565b6000546001600160a01b031633146103be576040805162461bcd60e51b815260206004820152600660248201526510b7bbb732b960d11b604482015290519081900360640190fd5b6001805460ff60a01b1916600160a01b179055565b6001546001600160a01b031681565b6001546000906001600160a01b0316331461042a576040805162461bcd60e51b81526020600482015260036024820152620216f760ec1b604482015290519081900360640190fd5b6001600160a01b03841660009081526002602052604090205460ff1615801561046c57506001600160a01b03831660009081526002602052604090205460ff16155b6104b4576040805162461bcd60e51b815260206004820152601460248201527318d85b9d08199bdc98d9481d5cd959081c1bdbdb60621b604482015290519081900360640190fd5b6104bf848484610b02565b949350505050565b6001546000906001600160a01b0316331461050f576040805162461bcd60e51b81526020600482015260036024820152620216f760ec1b604482015290519081900360640190fd5b600080600073f403c135812408bfbe8713b5a23a04b3d48aae316001600160a01b0316631526fe27866040518263ffffffff1660e01b81526004018082815260200191505060c06040518083038186803b15801561056c57600080fd5b505afa158015610580573d6000803e3d6000fd5b505050506040513d60c081101561059657600080fd5b508051602082015160a090920151909450909250905080156105f2576040805162461bcd60e51b815260206004820152601060248201526f30b63932b0b23c9039b43aba3237bbb760811b604482015290519081900360640190fd5b6000836001600160a01b03166370a0823173f403c135812408bfbe8713b5a23a04b3d48aae316040518263ffffffff1660e01b815260040180826001600160a01b0316815260200191505060206040518083038186803b15801561065557600080fd5b505afa158015610669573d6000803e3d6000fd5b505050506040513d602081101561067f57600080fd5b505160408051631832bfa160e21b8152600481018990529051919250735f47010f230ce1568bea53a06ebaf528d05c5c1b916360cafe84916024808201926020929091908290030181600087803b1580156106d957600080fd5b505af11580156106ed573d6000803e3d6000fd5b505050506040513d602081101561070357600080fd5b5050604080516370a0823160e01b815273f403c135812408bfbe8713b5a23a04b3d48aae31600482015290516000916001600160a01b038716916370a0823191602480820192602092909190829003018186803b15801561076357600080fd5b505afa158015610777573d6000803e3d6000fd5b505050506040513d602081101561078d57600080fd5b5051604080516318160ddd60e01b815290519192506001600160a01b038616916318160ddd91600480820192602092909190829003018186803b1580156107d357600080fd5b505afa1580156107e7573d6000803e3d6000fd5b505050506040513d60208110156107fd57600080fd5b50516108098284610c23565b101561084e576040805162461bcd60e51b815260206004820152600f60248201526e0e6eae0e0d8f240dad2e6dac2e8c6d608b1b604482015290519081900360640190fd5b5060019695505050505050565b6001546000906001600160a01b031633146108a3576040805162461bcd60e51b81526020600482015260036024820152620216f760ec1b604482015290519081900360640190fd5b6000732f50d538606fa9edd2b11e2446beb18c9d5846bb6001600160a01b0316634e791a3a856040518263ffffffff1660e01b815260040180826001600160a01b0316815260200191505060206040518083038186803b15801561090657600080fd5b505afa15801561091a573d6000803e3d6000fd5b505050506040513d602081101561093057600080fd5b5051905080610979576040805162461bcd60e51b815260206004820152601060248201526f1b5d5cdd081a185d99481dd95a59da1d60821b604482015290519081900360640190fd5b610984858585610b02565b95945050505050565b6000546001600160a01b031633146109d5576040805162461bcd60e51b815260206004820152600660248201526510b7bbb732b960d11b604482015290519081900360640190fd5b60005b8151811015610a2d576001600260008484815181106109f357fe5b6020908102919091018101516001600160a01b03168252810191909152604001600020805460ff19169115159190911790556001016109d8565b5050565b6000546001600160a01b031681565b732f50d538606fa9edd2b11e2446beb18c9d5846bb81565b6000546001600160a01b03163314610aa0576040805162461bcd60e51b815260206004820152600660248201526510b7bbb732b960d11b604482015290519081900360640190fd5b600180546001600160a01b0319166001600160a01b0392909216919091179055565b600154600160a01b900460ff1681565b735f47010f230ce1568bea53a06ebaf528d05c5c1b81565b73f403c135812408bfbe8713b5a23a04b3d48aae3181565b600154600090600160a01b900460ff1615610b4f576040805162461bcd60e51b815260206004820152600860248201526739b43aba3237bbb760c11b604482015290519081900360640190fd5b6001600160a01b0384811660008181526002602090815260408083208054600160ff19918216811790925595891680855282852080549097169091179095558051633f14eb6160e11b815260048101949094526024840194909452604483018690529251735f47010f230ce1568bea53a06ebaf528d05c5c1b93637e29d6c293606480820194929392918390030190829087803b158015610bef57600080fd5b505af1158015610c03573d6000803e3d6000fd5b505050506040513d6020811015610c1957600080fd5b5051949350505050565b600082821115610c7a576040805162461bcd60e51b815260206004820152601e60248201527f536166654d6174683a207375627472616374696f6e206f766572666c6f770000604482015290519081900360640190fd5b5090039056fea2646970667358221220793ac43e6059a43224806510a4f85f9a4f9d213f39e8802b28e8c43e1143432264736f6c634300060c0033",
  "immutableReferences": {},
  "source": "// SPDX-License-Identifier: MIT\npragma solidity 0.6.12;\n\nimport \"./Interfaces.sol\";\nimport \"./interfaces/IGaugeController.sol\";\nimport \"@openzeppelin/contracts/token/ERC20/IERC20.sol\";\nimport \"@openzeppelin/contracts/math/SafeMath.sol\";\n\n/*\nImmutable pool manager proxy to enforce that when a pool is shutdown, the proper number\nof lp tokens are returned to the booster contract for withdrawal\n*/\ncontract PoolManagerSecondaryProxy {\n  using SafeMath for uint256;\n\n  address public constant gaugeController = address(0x2F50D538606Fa9EDD2B11E2446BEb18C9D5846bB);\n  address public constant pools = address(0x5F47010F230cE1568BeA53a06eBAF528D05c5c1B);\n  address public constant booster = address(0xF403C135812408BFbE8713b5A23a04b3D48AAE31);\n  address public owner;\n  address public operator;\n  bool public isShutdown;\n\n  mapping(address => bool) public usedMap;\n\n  constructor() public {\n    owner = msg.sender;\n    operator = msg.sender;\n  }\n\n  modifier onlyOwner() {\n    require(owner == msg.sender, \"!owner\");\n    _;\n  }\n\n  modifier onlyOperator() {\n    require(operator == msg.sender, \"!op\");\n    _;\n  }\n\n  //set owner - only OWNER\n  function setOwner(address _owner) external onlyOwner {\n    owner = _owner;\n  }\n\n  //set operator - only OWNER\n  function setOperator(address _operator) external onlyOwner {\n    operator = _operator;\n  }\n\n  //manual set an address to used state\n  function setUsedAddress(address[] memory usedList) external onlyOwner {\n    for (uint i = 0; i < usedList.length; i++) {\n      usedMap[usedList[i]] = true;\n    }\n  }\n\n  //shutdown pool management and disallow new pools. change is immutable\n  function shutdownSystem() external onlyOwner {\n    isShutdown = true;\n  }\n\n  //shutdown a pool - only OPERATOR\n  function shutdownPool(uint256 _pid) external onlyOperator returns (bool) {\n    //get pool info\n    (address lptoken, address depositToken, , , , bool isshutdown) = IPools(booster).poolInfo(_pid);\n    require(!isshutdown, \"already shutdown\");\n\n    //shutdown pool and get before and after amounts\n    uint256 beforeBalance = IERC20(lptoken).balanceOf(booster);\n    IPools(pools).shutdownPool(_pid);\n    uint256 afterBalance = IERC20(lptoken).balanceOf(booster);\n\n    //check that proper amount of tokens were withdrawn(will also fail if already shutdown)\n    require(\n      afterBalance.sub(beforeBalance) >= IERC20(depositToken).totalSupply(),\n      \"supply mismatch\"\n    );\n\n    return true;\n  }\n\n  //add a new pool if it has weight on the gauge controller - only OPERATOR\n  function addPool(\n    address _lptoken,\n    address _gauge,\n    uint256 _stashVersion\n  ) external onlyOperator returns (bool) {\n    //check that the pool as weight\n    uint256 weight = IGaugeController(gaugeController).get_gauge_weight(_gauge);\n    require(weight > 0, \"must have weight\");\n\n    return _addPool(_lptoken, _gauge, _stashVersion);\n  }\n\n  //force add a new pool, but only for addresses that have never been used before - only OPERATOR\n  function forceAddPool(\n    address _lptoken,\n    address _gauge,\n    uint256 _stashVersion\n  ) external onlyOperator returns (bool) {\n    require(!usedMap[_lptoken] && !usedMap[_gauge], \"cant force used pool\");\n\n    return _addPool(_lptoken, _gauge, _stashVersion);\n  }\n\n  //internal add pool and updated used list\n  function _addPool(\n    address _lptoken,\n    address _gauge,\n    uint256 _stashVersion\n  ) internal returns (bool) {\n    require(!isShutdown, \"shutdown\");\n\n    usedMap[_lptoken] = true;\n    usedMap[_gauge] = true;\n\n    return IPools(pools).addPool(_lptoken, _gauge, _stashVersion);\n  }\n}\n",
  "sourcePath": "/Users/linnefromice/repository/github.com/muuu-finance/muuu-protocol/contracts/contracts/PoolManagerSecondaryProxy.sol",
  "compiler": {
    "name": "solc",
    "version": "0.6.12+commit.27d51765.Emscripten.clang"
  },
  "schemaVersion": "3.4.6",
  "updatedAt": "2022-03-20T12:14:21.140Z",
  "devdoc": {
    "kind": "dev",
    "methods": {},
    "version": 1
  },
  "userdoc": {
    "kind": "user",
    "methods": {},
    "version": 1
  }
}