{
  "contractName": "PoolManagerV3",
  "abi": [
    {
      "inputs": [
        {
          "internalType": "address",
          "name": "_pools",
          "type": "address"
        }
      ],
      "stateMutability": "nonpayable",
      "type": "constructor"
    },
    {
      "inputs": [],
      "name": "gaugeController",
      "outputs": [
        {
          "internalType": "address",
          "name": "",
          "type": "address"
        }
      ],
      "stateMutability": "view",
      "type": "function"
    },
    {
      "inputs": [],
      "name": "operator",
      "outputs": [
        {
          "internalType": "address",
          "name": "",
          "type": "address"
        }
      ],
      "stateMutability": "view",
      "type": "function"
    },
    {
      "inputs": [],
      "name": "pools",
      "outputs": [
        {
          "internalType": "address",
          "name": "",
          "type": "address"
        }
      ],
      "stateMutability": "view",
      "type": "function"
    },
    {
      "inputs": [
        {
          "internalType": "address",
          "name": "_operator",
          "type": "address"
        }
      ],
      "name": "setOperator",
      "outputs": [],
      "stateMutability": "nonpayable",
      "type": "function"
    },
    {
      "inputs": [
        {
          "internalType": "address",
          "name": "_gauge",
          "type": "address"
        },
        {
          "internalType": "uint256",
          "name": "_stashVersion",
          "type": "uint256"
        }
      ],
      "name": "addPool",
      "outputs": [
        {
          "internalType": "bool",
          "name": "",
          "type": "bool"
        }
      ],
      "stateMutability": "nonpayable",
      "type": "function"
    },
    {
      "inputs": [
        {
          "internalType": "address",
          "name": "_gauge",
          "type": "address"
        }
      ],
      "name": "addPool",
      "outputs": [
        {
          "internalType": "bool",
          "name": "",
          "type": "bool"
        }
      ],
      "stateMutability": "nonpayable",
      "type": "function"
    },
    {
      "inputs": [
        {
          "internalType": "address",
          "name": "_lptoken",
          "type": "address"
        },
        {
          "internalType": "address",
          "name": "_gauge",
          "type": "address"
        },
        {
          "internalType": "uint256",
          "name": "_stashVersion",
          "type": "uint256"
        }
      ],
      "name": "forceAddPool",
      "outputs": [
        {
          "internalType": "bool",
          "name": "",
          "type": "bool"
        }
      ],
      "stateMutability": "nonpayable",
      "type": "function"
    },
    {
      "inputs": [
        {
          "internalType": "uint256",
          "name": "_pid",
          "type": "uint256"
        }
      ],
      "name": "shutdownPool",
      "outputs": [
        {
          "internalType": "bool",
          "name": "",
          "type": "bool"
        }
      ],
      "stateMutability": "nonpayable",
      "type": "function"
    }
  ],
  "bytecode": "0x60a060405234801561001057600080fd5b506040516106393803806106398339818101604052602081101561003357600080fd5b5051600080546001600160a01b031916331790556001600160601b031960609190911b1660805260805160601c6105b3610086600039806102105280610314528061042f528061050152506105b36000f3fe608060405234801561001057600080fd5b50600436106100885760003560e01c806399eecb3b1161005b57806399eecb3b14610144578063b3ab15fb1461014c578063c5c51dca14610174578063d914cd4b1461017c57610088565b806332a9caba1461008d578063570ca735146100cd5780635744887d146100f157806360cafe8414610127575b600080fd5b6100b9600480360360408110156100a357600080fd5b506001600160a01b0381351690602001356101a2565b604080519115158252519081900360200190f35b6100d56101b7565b604080516001600160a01b039092168252519081900360200190f35b6100b96004803603606081101561010757600080fd5b506001600160a01b038135811691602081013590911690604001356101c6565b6100b96004803603602081101561013d57600080fd5b50356102ca565b6100d56103ac565b6101726004803603602081101561016257600080fd5b50356001600160a01b03166103c4565b005b6100d561042d565b6100b96004803603602081101561019257600080fd5b50356001600160a01b0316610451565b60006101ae8383610466565b50600192915050565b6000546001600160a01b031681565b600080546001600160a01b0316331461020e576040805162461bcd60e51b8152602060048201526005602482015264042c2eae8d60db1b604482015290519081900360640190fd5b7f00000000000000000000000000000000000000000000000000000000000000006001600160a01b0316635744887d8585856040518463ffffffff1660e01b815260040180846001600160a01b03168152602001836001600160a01b031681526020018281526020019350505050602060405180830381600087803b15801561029657600080fd5b505af11580156102aa573d6000803e3d6000fd5b505050506040513d60208110156102c057600080fd5b5051949350505050565b600080546001600160a01b03163314610312576040805162461bcd60e51b8152602060048201526005602482015264042c2eae8d60db1b604482015290519081900360640190fd5b7f00000000000000000000000000000000000000000000000000000000000000006001600160a01b03166360cafe84836040518263ffffffff1660e01b815260040180828152602001915050602060405180830381600087803b15801561037857600080fd5b505af115801561038c573d6000803e3d6000fd5b505050506040513d60208110156103a257600080fd5b5060019392505050565b732f50d538606fa9edd2b11e2446beb18c9d5846bb81565b6000546001600160a01b0316331461040b576040805162461bcd60e51b8152602060048201526005602482015264042c2eae8d60db1b604482015290519081900360640190fd5b600080546001600160a01b0319166001600160a01b0392909216919091179055565b7f000000000000000000000000000000000000000000000000000000000000000081565b600061045e826003610466565b506001919050565b6000826001600160a01b03166382c630666040518163ffffffff1660e01b815260040160206040518083038186803b1580156104a157600080fd5b505afa1580156104b5573d6000803e3d6000fd5b505050506040513d60208110156104cb57600080fd5b505160408051633f14eb6160e11b81526001600160a01b03808416600483015286811660248301526044820186905291519293507f000000000000000000000000000000000000000000000000000000000000000090911691637e29d6c2916064808201926020929091908290030181600087803b15801561054c57600080fd5b505af1158015610560573d6000803e3d6000fd5b505050506040513d602081101561057657600080fd5b505050505056fea2646970667358221220f7f2cdf939ef9b88ba12a3ab54ced4441fdb72403bd9e5190dce914fcd2c8b2c64736f6c634300060c0033",
  "immutableReferences": {
    "24139": [
      {
        "length": 32,
        "start": 528
      },
      {
        "length": 32,
        "start": 788
      },
      {
        "length": 32,
        "start": 1071
      },
      {
        "length": 32,
        "start": 1281
      }
    ]
  },
  "source": "// SPDX-License-Identifier: MIT\npragma solidity 0.6.12;\n\nimport \"./Interfaces.sol\";\nimport \"./interfaces/IGaugeController.sol\";\n\n/*\nPool Manager v3\n\nChanges:\n- pass through pool manager proxy\n*/\n\ncontract PoolManagerV3 {\n  address public constant gaugeController = address(0x2F50D538606Fa9EDD2B11E2446BEb18C9D5846bB);\n  address public immutable pools;\n\n  address public operator;\n\n  constructor(address _pools) public {\n    operator = msg.sender;\n    pools = _pools;\n  }\n\n  function setOperator(address _operator) external {\n    require(msg.sender == operator, \"!auth\");\n    operator = _operator;\n  }\n\n  //add a new kagla pool to the system. (default stash to v3)\n  function addPool(address _gauge) external returns (bool) {\n    _addPool(_gauge, 3);\n    return true;\n  }\n\n  //add a new kagla pool to the system.\n  function addPool(address _gauge, uint256 _stashVersion) external returns (bool) {\n    _addPool(_gauge, _stashVersion);\n    return true;\n  }\n\n  function _addPool(address _gauge, uint256 _stashVersion) internal {\n    //get lp token from gauge\n    address lptoken = IKaglaGauge(_gauge).lp_token();\n\n    //gauge/lptoken address checks will happen in the next call\n    IPools(pools).addPool(lptoken, _gauge, _stashVersion);\n  }\n\n  function forceAddPool(\n    address _lptoken,\n    address _gauge,\n    uint256 _stashVersion\n  ) external returns (bool) {\n    require(msg.sender == operator, \"!auth\");\n\n    //force add pool without weight checks (can only be used on new token and gauge addresses)\n    return IPools(pools).forceAddPool(_lptoken, _gauge, _stashVersion);\n  }\n\n  function shutdownPool(uint256 _pid) external returns (bool) {\n    require(msg.sender == operator, \"!auth\");\n\n    IPools(pools).shutdownPool(_pid);\n    return true;\n  }\n}\n",
  "sourcePath": "/Users/shuto/Documents/bridges-dev/muuu/protocol/contracts/contracts/PoolManagerV3.sol",
  "compiler": {
    "name": "solc",
    "version": "0.6.12+commit.27d51765.Emscripten.clang"
  },
  "schemaVersion": "3.4.6",
  "updatedAt": "2022-04-04T03:30:07.349Z",
  "devdoc": {
    "kind": "dev",
    "methods": {},
    "version": 1
  },
  "userdoc": {
    "kind": "user",
    "methods": {},
    "version": 1
  }
}