{
  "contractName": "PoolManagerV2",
  "abi": [
    {
      "inputs": [
        {
          "internalType": "address",
          "name": "_pools",
          "type": "address"
        }
      ],
      "stateMutability": "nonpayable",
      "type": "constructor"
    },
    {
      "inputs": [],
      "name": "gaugeController",
      "outputs": [
        {
          "internalType": "address",
          "name": "",
          "type": "address"
        }
      ],
      "stateMutability": "view",
      "type": "function"
    },
    {
      "inputs": [],
      "name": "operator",
      "outputs": [
        {
          "internalType": "address",
          "name": "",
          "type": "address"
        }
      ],
      "stateMutability": "view",
      "type": "function"
    },
    {
      "inputs": [],
      "name": "pools",
      "outputs": [
        {
          "internalType": "address",
          "name": "",
          "type": "address"
        }
      ],
      "stateMutability": "view",
      "type": "function"
    },
    {
      "inputs": [
        {
          "internalType": "address",
          "name": "_operator",
          "type": "address"
        }
      ],
      "name": "setOperator",
      "outputs": [],
      "stateMutability": "nonpayable",
      "type": "function"
    },
    {
      "inputs": [],
      "name": "revertControl",
      "outputs": [],
      "stateMutability": "nonpayable",
      "type": "function"
    },
    {
      "inputs": [
        {
          "internalType": "address",
          "name": "_gauge",
          "type": "address"
        },
        {
          "internalType": "uint256",
          "name": "_stashVersion",
          "type": "uint256"
        }
      ],
      "name": "addPool",
      "outputs": [
        {
          "internalType": "bool",
          "name": "",
          "type": "bool"
        }
      ],
      "stateMutability": "nonpayable",
      "type": "function"
    },
    {
      "inputs": [
        {
          "internalType": "uint256",
          "name": "_pid",
          "type": "uint256"
        }
      ],
      "name": "shutdownPool",
      "outputs": [
        {
          "internalType": "bool",
          "name": "",
          "type": "bool"
        }
      ],
      "stateMutability": "nonpayable",
      "type": "function"
    }
  ],
  "bytecode": "0x608060405234801561001057600080fd5b506040516107303803806107308339818101604052602081101561003357600080fd5b5051600080546001600160a01b03199081163317909155600180546001600160a01b03909316929091169190911790556106be806100726000396000f3fe608060405234801561001057600080fd5b506004361061007d5760003560e01c806399eecb3b1161005b57806399eecb3b14610103578063b3ab15fb1461010b578063c5c51dca14610133578063f7b48e961461013b5761007d565b806332a9caba14610082578063570ca735146100c257806360cafe84146100e6575b600080fd5b6100ae6004803603604081101561009857600080fd5b506001600160a01b038135169060200135610143565b604080519115158252519081900360200190f35b6100ca61046f565b604080516001600160a01b039092168252519081900360200190f35b6100ae600480360360208110156100fc57600080fd5b503561047e565b6100ca610548565b6101316004803603602081101561012157600080fd5b50356001600160a01b0316610560565b005b6100ca6105c9565b6101316105d8565b60006001600160a01b03831661018d576040805162461bcd60e51b815260206004820152600a6024820152690676175676520697320360b41b604482015290519081900360640190fd5b6000732f50d538606fa9edd2b11e2446beb18c9d5846bb6001600160a01b0316634e791a3a856040518263ffffffff1660e01b815260040180826001600160a01b0316815260200191505060206040518083038186803b1580156101f057600080fd5b505afa158015610204573d6000803e3d6000fd5b505050506040513d602081101561021a57600080fd5b5051905080610263576040805162461bcd60e51b815260206004820152601060248201526f1b5d5cdd081a185d99481dd95a59da1d60821b604482015290519081900360640190fd5b60015460408051636586ada960e11b81526001600160a01b0387811660048301529151600093929092169163cb0d5b5291602480820192602092909190829003018186803b1580156102b457600080fd5b505afa1580156102c8573d6000803e3d6000fd5b505050506040513d60208110156102de57600080fd5b50519050801561032a576040805162461bcd60e51b8152602060048201526012602482015271185b1c9958591e481c9959da5cdd195c995960721b604482015290519081900360640190fd5b6000856001600160a01b03166382c630666040518163ffffffff1660e01b815260040160206040518083038186803b15801561036557600080fd5b505afa158015610379573d6000803e3d6000fd5b505050506040513d602081101561038f57600080fd5b505190506001600160a01b0381166103d9576040805162461bcd60e51b81526020600482015260086024820152673737903a37b5b2b760c11b604482015290519081900360640190fd5b60015460408051633f14eb6160e11b81526001600160a01b03848116600483015289811660248301526044820189905291519190921691637e29d6c29160648083019260209291908290030181600087803b15801561043757600080fd5b505af115801561044b573d6000803e3d6000fd5b505050506040513d602081101561046157600080fd5b506001979650505050505050565b6000546001600160a01b031681565b600080546001600160a01b031633146104c6576040805162461bcd60e51b8152602060048201526005602482015264042c2eae8d60db1b604482015290519081900360640190fd5b60015460408051631832bfa160e21b81526004810185905290516001600160a01b03909216916360cafe84916024808201926020929091908290030181600087803b15801561051457600080fd5b505af1158015610528573d6000803e3d6000fd5b505050506040513d602081101561053e57600080fd5b5060019392505050565b732f50d538606fa9edd2b11e2446beb18c9d5846bb81565b6000546001600160a01b031633146105a7576040805162461bcd60e51b8152602060048201526005602482015264042c2eae8d60db1b604482015290519081900360640190fd5b600080546001600160a01b0319166001600160a01b0392909216919091179055565b6001546001600160a01b031681565b6000546001600160a01b0316331461061f576040805162461bcd60e51b8152602060048201526005602482015264042c2eae8d60db1b604482015290519081900360640190fd5b6001546000805460408051637aef671560e01b81526001600160a01b03928316600482015290519190931692637aef671592602480830193919282900301818387803b15801561066e57600080fd5b505af1158015610682573d6000803e3d6000fd5b5050505056fea2646970667358221220235d522087872f79d1d0af680fd005dffbd66a4ad33b0c4ea046b2b72196d86d64736f6c634300060c0033",
  "immutableReferences": {},
  "source": "// SPDX-License-Identifier: MIT\npragma solidity 0.6.12;\n\nimport \"./Interfaces.sol\";\nimport \"./interfaces/IGaugeController.sol\";\nimport \"@openzeppelin/contracts/math/SafeMath.sol\";\nimport \"@openzeppelin/contracts/token/ERC20/IERC20.sol\";\nimport \"@openzeppelin/contracts/utils/Address.sol\";\nimport \"@openzeppelin/contracts/token/ERC20/SafeERC20.sol\";\n\n/*\nPool Manager v2\n\nChanges:\n- check validity of a gauge and token by going through the gauge controller instead of kagla's registry\n*/\n\ncontract PoolManagerV2 {\n  using SafeERC20 for IERC20;\n  using Address for address;\n  using SafeMath for uint256;\n\n  address public constant gaugeController = address(0x2F50D538606Fa9EDD2B11E2446BEb18C9D5846bB);\n\n  address public operator;\n  address public pools;\n\n  constructor(address _pools) public {\n    operator = msg.sender;\n    pools = _pools;\n  }\n\n  function setOperator(address _operator) external {\n    require(msg.sender == operator, \"!auth\");\n    operator = _operator;\n  }\n\n  //revert control of adding  pools back to operator\n  function revertControl() external {\n    require(msg.sender == operator, \"!auth\");\n    IPools(pools).setPoolManager(operator);\n  }\n\n  //add a new kagla pool to the system.\n  //gauge must be on gauge controller\n  function addPool(address _gauge, uint256 _stashVersion) external returns (bool) {\n    require(_gauge != address(0), \"gauge is 0\");\n\n    uint256 weight = IGaugeController(gaugeController).get_gauge_weight(_gauge);\n    require(weight > 0, \"must have weight\");\n\n    bool gaugeExists = IPools(pools).gaugeMap(_gauge);\n    require(!gaugeExists, \"already registered\");\n\n    address lptoken = IKaglaGauge(_gauge).lp_token();\n    require(lptoken != address(0), \"no token\");\n\n    IPools(pools).addPool(lptoken, _gauge, _stashVersion);\n\n    return true;\n  }\n\n  function shutdownPool(uint256 _pid) external returns (bool) {\n    require(msg.sender == operator, \"!auth\");\n\n    IPools(pools).shutdownPool(_pid);\n    return true;\n  }\n}\n",
  "sourcePath": "/Users/shuto/Documents/bridges-dev/muuu/protocol/contracts/contracts/PoolManagerV2.sol",
  "compiler": {
    "name": "solc",
    "version": "0.6.12+commit.27d51765.Emscripten.clang"
  },
  "schemaVersion": "3.4.6",
  "updatedAt": "2022-04-04T03:30:07.347Z",
  "devdoc": {
    "kind": "dev",
    "methods": {},
    "version": 1
  },
  "userdoc": {
    "kind": "user",
    "methods": {},
    "version": 1
  }
}