{
  "contractName": "PoolManager",
  "abi": [
    {
      "inputs": [
        {
          "internalType": "address",
          "name": "_pools",
          "type": "address"
        },
        {
          "internalType": "address",
          "name": "_addressProvider",
          "type": "address"
        }
      ],
      "stateMutability": "nonpayable",
      "type": "constructor"
    },
    {
      "inputs": [],
      "name": "addressProvider",
      "outputs": [
        {
          "internalType": "address",
          "name": "",
          "type": "address"
        }
      ],
      "stateMutability": "view",
      "type": "function"
    },
    {
      "inputs": [],
      "name": "operator",
      "outputs": [
        {
          "internalType": "address",
          "name": "",
          "type": "address"
        }
      ],
      "stateMutability": "view",
      "type": "function"
    },
    {
      "inputs": [],
      "name": "pools",
      "outputs": [
        {
          "internalType": "address",
          "name": "",
          "type": "address"
        }
      ],
      "stateMutability": "view",
      "type": "function"
    },
    {
      "inputs": [
        {
          "internalType": "address",
          "name": "_operator",
          "type": "address"
        }
      ],
      "name": "setOperator",
      "outputs": [],
      "stateMutability": "nonpayable",
      "type": "function"
    },
    {
      "inputs": [
        {
          "internalType": "address",
          "name": "_addressProvider",
          "type": "address"
        }
      ],
      "name": "setRegistryAddressProvider",
      "outputs": [],
      "stateMutability": "nonpayable",
      "type": "function"
    },
    {
      "inputs": [],
      "name": "revertControl",
      "outputs": [],
      "stateMutability": "nonpayable",
      "type": "function"
    },
    {
      "inputs": [
        {
          "internalType": "address",
          "name": "_swap",
          "type": "address"
        },
        {
          "internalType": "address",
          "name": "_gauge",
          "type": "address"
        },
        {
          "internalType": "uint256",
          "name": "_stashVersion",
          "type": "uint256"
        }
      ],
      "name": "addPool",
      "outputs": [
        {
          "internalType": "bool",
          "name": "",
          "type": "bool"
        }
      ],
      "stateMutability": "nonpayable",
      "type": "function"
    },
    {
      "inputs": [
        {
          "internalType": "uint256",
          "name": "_pid",
          "type": "uint256"
        }
      ],
      "name": "shutdownPool",
      "outputs": [
        {
          "internalType": "bool",
          "name": "",
          "type": "bool"
        }
      ],
      "stateMutability": "nonpayable",
      "type": "function"
    }
  ],
  "bytecode": "0x608060405234801561001057600080fd5b506040516108cb3803806108cb8339818101604052604081101561003357600080fd5b508051602090910151600080546001600160a01b03199081163317909155600180546001600160a01b0394851690831617905560028054939092169216919091179055610846806100856000396000f3fe608060405234801561001057600080fd5b50600436106100885760003560e01c80637e29d6c21161005b5780637e29d6c214610112578063b3ab15fb14610148578063c5c51dca1461016e578063f7b48e961461017657610088565b80632954018c1461008d578063570ca735146100b157806360cafe84146100b95780637386c54c146100ea575b600080fd5b61009561017e565b604080516001600160a01b039092168252519081900360200190f35b61009561018d565b6100d6600480360360208110156100cf57600080fd5b503561019c565b604080519115158252519081900360200190f35b6101106004803603602081101561010057600080fd5b50356001600160a01b0316610266565b005b6100d66004803603606081101561012857600080fd5b506001600160a01b038135811691602081013590911690604001356102cf565b6101106004803603602081101561015e57600080fd5b50356001600160a01b03166106c9565b610095610732565b610110610741565b6002546001600160a01b031681565b6000546001600160a01b031681565b600080546001600160a01b031633146101e4576040805162461bcd60e51b8152602060048201526005602482015264042c2eae8d60db1b604482015290519081900360640190fd5b60015460408051631832bfa160e21b81526004810185905290516001600160a01b03909216916360cafe84916024808201926020929091908290030181600087803b15801561023257600080fd5b505af1158015610246573d6000803e3d6000fd5b505050506040513d602081101561025c57600080fd5b5060019392505050565b6000546001600160a01b031633146102ad576040805162461bcd60e51b8152602060048201526005602482015264042c2eae8d60db1b604482015290519081900360640190fd5b600280546001600160a01b0319166001600160a01b0392909216919091179055565b60006001600160a01b038316610319576040805162461bcd60e51b815260206004820152600a6024820152690676175676520697320360b41b604482015290519081900360640190fd5b6001600160a01b038416610360576040805162461bcd60e51b815260206004820152600960248201526807377617020697320360bc1b604482015290519081900360640190fd5b6002546040805163a262904b60e01b815290516000926001600160a01b03169163a262904b916004808301926020929190829003018186803b1580156103a557600080fd5b505afa1580156103b9573d6000803e3d6000fd5b505050506040513d60208110156103cf57600080fd5b505160408051633795104960e01b81526001600160a01b038881166004830152915192935060009291841691633795104991602480820192602092909190829003018186803b15801561042157600080fd5b505afa158015610435573d6000803e3d6000fd5b505050506040513d602081101561044b57600080fd5b505190506104576107f1565b826001600160a01b03166356059ffb886040518263ffffffff1660e01b815260040180826001600160a01b031681526020019150506102806040518083038186803b1580156104a557600080fd5b505afa1580156104b9573d6000803e3d6000fd5b505050506040513d601f19601f820116820180604052506102808110156104df57600080fd5b5090506000805b600a81101561052a57876001600160a01b03168382600a811061050557fe5b60200201516001600160a01b03161415610522576001915061052a565b6001016104e6565b5080610569576040805162461bcd60e51b815260206004820152600960248201526821726567697374727960b81b604482015290519081900360640190fd5b60015460408051636586ada960e11b81526001600160a01b038a811660048301529151600093929092169163cb0d5b5291602480820192602092909190829003018186803b1580156105ba57600080fd5b505afa1580156105ce573d6000803e3d6000fd5b505050506040513d60208110156105e457600080fd5b505190508015610630576040805162461bcd60e51b8152602060048201526012602482015271185b1c9958591e481c9959da5cdd195c995960721b604482015290519081900360640190fd5b60015460408051633f14eb6160e11b81526001600160a01b0387811660048301528b81166024830152604482018b905291519190921691637e29d6c29160648083019260209291908290030181600087803b15801561068e57600080fd5b505af11580156106a2573d6000803e3d6000fd5b505050506040513d60208110156106b857600080fd5b5060019a9950505050505050505050565b6000546001600160a01b03163314610710576040805162461bcd60e51b8152602060048201526005602482015264042c2eae8d60db1b604482015290519081900360640190fd5b600080546001600160a01b0319166001600160a01b0392909216919091179055565b6001546001600160a01b031681565b6000546001600160a01b03163314610788576040805162461bcd60e51b8152602060048201526005602482015264042c2eae8d60db1b604482015290519081900360640190fd5b6001546000805460408051637aef671560e01b81526001600160a01b03928316600482015290519190931692637aef671592602480830193919282900301818387803b1580156107d757600080fd5b505af11580156107eb573d6000803e3d6000fd5b50505050565b604051806101400160405280600a90602082028036833750919291505056fea2646970667358221220042d425c3be282154088f0d1d5c365cd9fad15b2e3508107c603022621b71af664736f6c634300060c0033",
  "immutableReferences": {},
  "source": "// SPDX-License-Identifier: MIT\npragma solidity 0.6.12;\n\nimport \"./Interfaces.sol\";\nimport \"@openzeppelin/contracts/math/SafeMath.sol\";\nimport \"@openzeppelin/contracts/token/ERC20/IERC20.sol\";\nimport \"@openzeppelin/contracts/utils/Address.sol\";\nimport \"@openzeppelin/contracts/token/ERC20/SafeERC20.sol\";\n\ncontract PoolManager {\n  using SafeERC20 for IERC20;\n  using Address for address;\n  using SafeMath for uint256;\n\n  // address public constant registry = address(0x0000000022D53366457F9d5E68Ec105046FC4383);\n\n  address public operator;\n  address public pools;\n  address public addressProvider;\n\n  constructor(address _pools, address _addressProvider) public {\n    operator = msg.sender;\n    pools = _pools;\n    addressProvider = _addressProvider;\n  }\n\n  function setOperator(address _operator) external {\n    require(msg.sender == operator, \"!auth\");\n    operator = _operator;\n  }\n\n  function setRegistryAddressProvider(address _addressProvider) external {\n    require(msg.sender == operator, \"!auth\");\n    addressProvider = _addressProvider;\n  }\n\n  //revert control of adding  pools back to operator\n  function revertControl() external {\n    require(msg.sender == operator, \"!auth\");\n    IPools(pools).setPoolManager(operator);\n  }\n\n  //add a new kagla pool to the system.\n  //gauge must be on kagla's registry, thus anyone can call\n  function addPool(\n    address _swap,\n    address _gauge,\n    uint256 _stashVersion\n  ) external returns (bool) {\n    require(_gauge != address(0), \"gauge is 0\");\n    require(_swap != address(0), \"swap is 0\");\n\n    //get kagla's registery\n    address mainReg = IRegistry(addressProvider).get_registry();\n\n    //get lp token and gauge list from swap address\n    address lptoken = IRegistry(mainReg).get_lp_token(_swap);\n\n    (address[10] memory gaugeList, ) = IRegistry(mainReg).get_gauges(_swap);\n\n    //confirm the gauge passed in calldata is in the list\n    //  a passed gauge address is needed if there is ever multiple gauges\n    //  as the fact that an array is returned implies.\n    bool found = false;\n    for (uint256 i = 0; i < gaugeList.length; i++) {\n      if (gaugeList[i] == _gauge) {\n        found = true;\n        break;\n      }\n    }\n    require(found, \"!registry\");\n\n    bool gaugeExists = IPools(pools).gaugeMap(_gauge);\n    require(!gaugeExists, \"already registered\");\n\n    IPools(pools).addPool(lptoken, _gauge, _stashVersion);\n\n    return true;\n  }\n\n  function shutdownPool(uint256 _pid) external returns (bool) {\n    require(msg.sender == operator, \"!auth\");\n\n    IPools(pools).shutdownPool(_pid);\n    return true;\n  }\n}\n",
  "sourcePath": "/Users/shuto/Documents/bridges-dev/muuu/protocol/contracts/contracts/PoolManager.sol",
  "compiler": {
    "name": "solc",
    "version": "0.6.12+commit.27d51765.Emscripten.clang"
  },
  "schemaVersion": "3.4.6",
  "updatedAt": "2022-04-04T03:30:07.339Z",
  "devdoc": {
    "kind": "dev",
    "methods": {},
    "version": 1
  },
  "userdoc": {
    "kind": "user",
    "methods": {},
    "version": 1
  }
}