{
  "contractName": "ProxyFactory",
  "abi": [
    {
      "inputs": [
        {
          "internalType": "address",
          "name": "target",
          "type": "address"
        }
      ],
      "name": "clone",
      "outputs": [
        {
          "internalType": "address",
          "name": "result",
          "type": "address"
        }
      ],
      "stateMutability": "nonpayable",
      "type": "function"
    }
  ],
  "bytecode": "0x6080604052348015600f57600080fd5b5060f48061001e6000396000f3fe6080604052348015600f57600080fd5b506004361060285760003560e01c80638124b78e14602d575b600080fd5b605060048036036020811015604157600080fd5b50356001600160a01b0316606c565b604080516001600160a01b039092168252519081900360200190f35b6000808260601b9050604051733d602d80600a3d3981f3363d3d373d3d3d363d7360601b81528160148201526e5af43d82803e903d91602b57fd5bf360881b60288201526037816000f094935050505056fea2646970667358221220b89ea7ee5796a567a8ce844792d0ca1301c37a537d76d485bf3323b3e139dbd564736f6c634300060c0033",
  "immutableReferences": {},
  "source": "// SPDX-License-Identifier: MIT\npragma solidity 0.6.12;\n\n// original code\n// https://github.com/optionality/clone-factory/blob/master/contracts/CloneFactory.sol\ncontract ProxyFactory {\n  function clone(address target) external returns (address result) {\n    bytes20 targetBytes = bytes20(target);\n    assembly {\n      let clone := mload(0x40)\n      mstore(clone, 0x3d602d80600a3d3981f3363d3d373d3d3d363d73000000000000000000000000)\n      mstore(add(clone, 0x14), targetBytes)\n      mstore(add(clone, 0x28), 0x5af43d82803e903d91602b57fd5bf30000000000000000000000000000000000)\n      result := create(0, clone, 0x37)\n    }\n  }\n}\n",
  "sourcePath": "/Users/shuto/Documents/bridges-dev/muuu/protocol/contracts/contracts/ProxyFactory.sol",
  "compiler": {
    "name": "solc",
    "version": "0.6.12+commit.27d51765.Emscripten.clang"
  },
  "schemaVersion": "3.4.6",
  "updatedAt": "2022-04-04T03:30:07.351Z",
  "devdoc": {
    "kind": "dev",
    "methods": {},
    "version": 1
  },
  "userdoc": {
    "kind": "user",
    "methods": {},
    "version": 1
  }
}