{
  "contractName": "RedirectableGauge",
  "abi": [
    {
      "inputs": [],
      "stateMutability": "nonpayable",
      "type": "constructor"
    },
    {
      "inputs": [
        {
          "internalType": "address",
          "name": "",
          "type": "address"
        }
      ],
      "name": "redirectMap",
      "outputs": [
        {
          "internalType": "address",
          "name": "",
          "type": "address"
        }
      ],
      "stateMutability": "view",
      "type": "function"
    },
    {
      "inputs": [
        {
          "internalType": "uint256",
          "name": "_amount",
          "type": "uint256"
        }
      ],
      "name": "deposit",
      "outputs": [],
      "stateMutability": "nonpayable",
      "type": "function"
    },
    {
      "inputs": [
        {
          "internalType": "address",
          "name": "_account",
          "type": "address"
        }
      ],
      "name": "balanceOf",
      "outputs": [
        {
          "internalType": "uint256",
          "name": "",
          "type": "uint256"
        }
      ],
      "stateMutability": "view",
      "type": "function"
    },
    {
      "inputs": [
        {
          "internalType": "uint256",
          "name": "_amount",
          "type": "uint256"
        }
      ],
      "name": "withdraw",
      "outputs": [],
      "stateMutability": "nonpayable",
      "type": "function"
    },
    {
      "inputs": [],
      "name": "claim_rewards",
      "outputs": [],
      "stateMutability": "nonpayable",
      "type": "function"
    },
    {
      "inputs": [
        {
          "internalType": "uint256",
          "name": "_token",
          "type": "uint256"
        }
      ],
      "name": "reward_tokens",
      "outputs": [
        {
          "internalType": "address",
          "name": "",
          "type": "address"
        }
      ],
      "stateMutability": "view",
      "type": "function"
    },
    {
      "inputs": [
        {
          "internalType": "address",
          "name": "_receiver",
          "type": "address"
        }
      ],
      "name": "set_rewards_receiver",
      "outputs": [
        {
          "internalType": "bool",
          "name": "",
          "type": "bool"
        }
      ],
      "stateMutability": "nonpayable",
      "type": "function"
    }
  ],
  "bytecode": "0x608060405234801561001057600080fd5b50610207806100206000396000f3fe608060405234801561001057600080fd5b506004361061007d5760003560e01c80638fdc44fb1161005b5780638fdc44fb14610112578063b6b55f2514610082578063bdf9811614610138578063e6f1daf2146101725761007d565b80632e1a7d4d1461008257806354c49fe9146100a157806370a08231146100da575b600080fd5b61009f6004803603602081101561009857600080fd5b503561017a565b005b6100be600480360360208110156100b757600080fd5b503561017d565b604080516001600160a01b039092168252519081900360200190f35b610100600480360360208110156100f057600080fd5b50356001600160a01b031661017d565b60408051918252519081900360200190f35b6100be6004803603602081101561012857600080fd5b50356001600160a01b0316610183565b61015e6004803603602081101561014e57600080fd5b50356001600160a01b031661019e565b604080519115158252519081900360200190f35b61009f6101cf565b50565b50600090565b6000602081905290815260409020546001600160a01b031681565b33600090815260208190526040902080546001600160a01b0383166001600160a01b03199091161790556001919050565b56fea2646970667358221220d84b697725d37e5704478260bc743ae7d93e874964fe705dfaa2645cf0222e5664736f6c634300060c0033",
  "immutableReferences": {},
  "source": "// SPDX-License-Identifier: MIT\npragma solidity 0.6.12;\n\nimport \"@openzeppelin/contracts/token/ERC20/IERC20.sol\";\nimport \"@openzeppelin/contracts/utils/Address.sol\";\nimport \"@openzeppelin/contracts/token/ERC20/SafeERC20.sol\";\n\ncontract RedirectableGauge {\n  using SafeERC20 for IERC20;\n  using Address for address;\n\n  mapping(address => address) public redirectMap;\n\n  constructor() public {}\n\n  function deposit(uint256 _amount) external {}\n\n  function balanceOf(address _account) external view returns (uint256) {\n    return 0;\n  }\n\n  function withdraw(uint256 _amount) external {}\n\n  function claim_rewards() external {}\n\n  function reward_tokens(uint256 _token) external view returns (address) {\n    return address(0);\n  }\n\n  function set_rewards_receiver(address _receiver) external returns (bool) {\n    redirectMap[msg.sender] = _receiver;\n    return true;\n  }\n}\n",
  "sourcePath": "/Users/linnefromice/repository/github.com/muuu-finance/muuu-protocol/contracts/contracts/RedirectableGauge.sol",
  "compiler": {
    "name": "solc",
    "version": "0.6.12+commit.27d51765.Emscripten.clang"
  },
  "schemaVersion": "3.4.6",
  "updatedAt": "2022-03-20T12:14:21.147Z",
  "devdoc": {
    "kind": "dev",
    "methods": {},
    "version": 1
  },
  "userdoc": {
    "kind": "user",
    "methods": {},
    "version": 1
  }
}