{
  "contractName": "RewardHook",
  "abi": [
    {
      "inputs": [
        {
          "internalType": "address",
          "name": "_stash",
          "type": "address"
        },
        {
          "internalType": "address",
          "name": "_reward",
          "type": "address"
        }
      ],
      "stateMutability": "nonpayable",
      "type": "constructor"
    },
    {
      "inputs": [],
      "name": "rewardToken",
      "outputs": [
        {
          "internalType": "address",
          "name": "",
          "type": "address"
        }
      ],
      "stateMutability": "view",
      "type": "function"
    },
    {
      "inputs": [],
      "name": "stash",
      "outputs": [
        {
          "internalType": "address",
          "name": "",
          "type": "address"
        }
      ],
      "stateMutability": "view",
      "type": "function"
    },
    {
      "inputs": [],
      "name": "onRewardClaim",
      "outputs": [],
      "stateMutability": "nonpayable",
      "type": "function"
    }
  ],
  "bytecode": "0x60c060405234801561001057600080fd5b506040516105f13803806105f18339818101604052604081101561003357600080fd5b5080516020909101516001600160601b0319606092831b811660a052911b1660805260805160601c60a05160601c61056561008c60003980610148528061017252508060805280610126528061019652506105656000f3fe608060405234801561001057600080fd5b50600436106100415760003560e01c80632663fcfc14610046578063d8da813114610050578063f7c618c114610074575b600080fd5b61004e61007c565b005b610058610170565b604080516001600160a01b039092168252519081900360200190f35b610058610194565b60007f00000000000000000000000000000000000000000000000000000000000000006001600160a01b03166370a08231306040518263ffffffff1660e01b815260040180826001600160a01b0316815260200191505060206040518083038186803b1580156100eb57600080fd5b505afa1580156100ff573d6000803e3d6000fd5b505050506040513d602081101561011557600080fd5b5051905061016d6001600160a01b037f0000000000000000000000000000000000000000000000000000000000000000167f0000000000000000000000000000000000000000000000000000000000000000836101b8565b50565b7f000000000000000000000000000000000000000000000000000000000000000081565b7f000000000000000000000000000000000000000000000000000000000000000081565b604080516001600160a01b038416602482015260448082018490528251808303909101815260649091019091526020810180516001600160e01b031663a9059cbb60e01b17905261020a90849061020f565b505050565b6060610264826040518060400160405280602081526020017f5361666545524332303a206c6f772d6c6576656c2063616c6c206661696c6564815250856001600160a01b03166102c09092919063ffffffff16565b80519091501561020a5780806020019051602081101561028357600080fd5b505161020a5760405162461bcd60e51b815260040180806020018281038252602a815260200180610506602a913960400191505060405180910390fd5b60606102cf84846000856102d9565b90505b9392505050565b60608247101561031a5760405162461bcd60e51b81526004018080602001828103825260268152602001806104e06026913960400191505060405180910390fd5b61032385610435565b610374576040805162461bcd60e51b815260206004820152601d60248201527f416464726573733a2063616c6c20746f206e6f6e2d636f6e7472616374000000604482015290519081900360640190fd5b60006060866001600160a01b031685876040518082805190602001908083835b602083106103b35780518252601f199092019160209182019101610394565b6001836020036101000a03801982511681845116808217855250505050505090500191505060006040518083038185875af1925050503d8060008114610415576040519150601f19603f3d011682016040523d82523d6000602084013e61041a565b606091505b509150915061042a82828661043b565b979650505050505050565b3b151590565b6060831561044a5750816102d2565b82511561045a5782518084602001fd5b8160405162461bcd60e51b81526004018080602001828103825283818151815260200191508051906020019080838360005b838110156104a457818101518382015260200161048c565b50505050905090810190601f1680156104d15780820380516001836020036101000a031916815260200191505b509250505060405180910390fdfe416464726573733a20696e73756666696369656e742062616c616e636520666f722063616c6c5361666545524332303a204552433230206f7065726174696f6e20646964206e6f742073756363656564a2646970667358221220402f51a948ffe143d5e357e8c5bbdf26b4f9e4291bec0177576a6a982c339a2264736f6c634300060c0033",
  "immutableReferences": {
    "22987": [
      {
        "length": 32,
        "start": 128
      },
      {
        "length": 32,
        "start": 294
      },
      {
        "length": 32,
        "start": 406
      }
    ],
    "22989": [
      {
        "length": 32,
        "start": 328
      },
      {
        "length": 32,
        "start": 370
      }
    ]
  },
  "source": "// SPDX-License-Identifier: MIT\npragma solidity 0.6.12;\n\nimport \"@openzeppelin/contracts/utils/Address.sol\";\nimport \"@openzeppelin/contracts/token/ERC20/IERC20.sol\";\nimport \"@openzeppelin/contracts/token/ERC20/SafeERC20.sol\";\nimport \"@openzeppelin/contracts/math/SafeMath.sol\";\n\n/*\n   Test Reward hook for stash\n*/\ncontract RewardHook {\n  using SafeERC20 for IERC20;\n  using Address for address;\n  using SafeMath for uint256;\n\n  address public immutable rewardToken;\n  address public immutable stash;\n\n  constructor(address _stash, address _reward) public {\n    stash = _stash;\n    rewardToken = _reward;\n  }\n\n  function onRewardClaim() external {\n    //get balance\n    uint256 bal = IERC20(rewardToken).balanceOf(address(this));\n\n    //send\n    IERC20(rewardToken).safeTransfer(stash, bal);\n  }\n}\n",
  "sourcePath": "/Users/linnefromice/repository/github.com/muuu-finance/muuu-protocol/contracts/contracts/RewardHook.sol",
  "compiler": {
    "name": "solc",
    "version": "0.6.12+commit.27d51765.Emscripten.clang"
  },
  "schemaVersion": "3.4.6",
  "updatedAt": "2022-03-16T12:46:39.316Z",
  "devdoc": {
    "kind": "dev",
    "methods": {},
    "version": 1
  },
  "userdoc": {
    "kind": "user",
    "methods": {},
    "version": 1
  }
}