{
  "contractName": "StashFactoryV2",
  "abi": [
    {
      "inputs": [
        {
          "internalType": "address",
          "name": "_operator",
          "type": "address"
        },
        {
          "internalType": "address",
          "name": "_rewardFactory",
          "type": "address"
        },
        {
          "internalType": "address",
          "name": "_proxyFactory",
          "type": "address"
        }
      ],
      "stateMutability": "nonpayable",
      "type": "constructor"
    },
    {
      "inputs": [],
      "name": "operator",
      "outputs": [
        {
          "internalType": "address",
          "name": "",
          "type": "address"
        }
      ],
      "stateMutability": "view",
      "type": "function"
    },
    {
      "inputs": [],
      "name": "proxyFactory",
      "outputs": [
        {
          "internalType": "address",
          "name": "",
          "type": "address"
        }
      ],
      "stateMutability": "view",
      "type": "function"
    },
    {
      "inputs": [],
      "name": "rewardFactory",
      "outputs": [
        {
          "internalType": "address",
          "name": "",
          "type": "address"
        }
      ],
      "stateMutability": "view",
      "type": "function"
    },
    {
      "inputs": [],
      "name": "v3Implementation",
      "outputs": [
        {
          "internalType": "address",
          "name": "",
          "type": "address"
        }
      ],
      "stateMutability": "view",
      "type": "function"
    },
    {
      "inputs": [
        {
          "internalType": "address",
          "name": "_v3",
          "type": "address"
        }
      ],
      "name": "setImplementation",
      "outputs": [],
      "stateMutability": "nonpayable",
      "type": "function"
    },
    {
      "inputs": [
        {
          "internalType": "uint256",
          "name": "_pid",
          "type": "uint256"
        },
        {
          "internalType": "address",
          "name": "_gauge",
          "type": "address"
        },
        {
          "internalType": "address",
          "name": "_staker",
          "type": "address"
        },
        {
          "internalType": "uint256",
          "name": "_stashVersion",
          "type": "uint256"
        }
      ],
      "name": "CreateStash",
      "outputs": [
        {
          "internalType": "address",
          "name": "",
          "type": "address"
        }
      ],
      "stateMutability": "nonpayable",
      "type": "function"
    }
  ],
  "bytecode": "0x60e060405234801561001057600080fd5b506040516106c33803806106c38339818101604052606081101561003357600080fd5b50805160208201516040909201516001600160601b0319606092831b811660805292821b831660a052901b1660c05260805160601c60a05160601c60c05160601c6106136100b06000398061028552806103d7525080610109528061035252508061012d528061015c528061031a52806103fb52506106136000f3fe608060405234801561001057600080fd5b50600436106100625760003560e01c8063245e4bf014610067578063570ca7351461008b57806399cb12de14610093578063c10f1a75146100cf578063d784d426146100d7578063f3cbcdd3146100ff575b600080fd5b61006f610107565b604080516001600160a01b039092168252519081900360200190f35b61006f61012b565b61006f600480360360808110156100a957600080fd5b508035906001600160a01b0360208201358116916040810135909116906060013561014f565b61006f6103d5565b6100fd600480360360208110156100ed57600080fd5b50356001600160a01b03166103f9565b005b61006f6104e6565b7f000000000000000000000000000000000000000000000000000000000000000081565b7f000000000000000000000000000000000000000000000000000000000000000081565b6000336001600160a01b037f000000000000000000000000000000000000000000000000000000000000000016146101bc576040805162461bcd60e51b815260206004820152600b60248201526a08585d5d1a1bdc9a5e995960aa1b604482015290519081900360640190fd5b81600314156103c9576000546001600160a01b031661020b576040805162461bcd60e51b81526020600482015260066024820152650c081a5b5c1b60d21b604482015290519081900360640190fd5b610214846104f5565b1561025f576040805162461bcd60e51b81526020600482015260166024820152750e6e8c2e6d040eccae4e6d2dedc40dad2e6dac2e8c6d60531b604482015290519081900360640190fd5b60008054604080516340925bc760e11b81526001600160a01b03928316600482015290517f000000000000000000000000000000000000000000000000000000000000000090921691638124b78e9160248082019260209290919082900301818787803b1580156102cf57600080fd5b505af11580156102e3573d6000803e3d6000fd5b505050506040513d60208110156102f957600080fd5b505160408051633641e08360e01b8152600481018990526001600160a01b037f000000000000000000000000000000000000000000000000000000000000000081166024830152878116604483015288811660648301527f000000000000000000000000000000000000000000000000000000000000000081166084830152915192935090831691633641e0839160a48082019260009290919082900301818387803b1580156103a857600080fd5b505af11580156103bc573d6000803e3d6000fd5b50505050809150506103cd565b5060005b949350505050565b7f000000000000000000000000000000000000000000000000000000000000000081565b7f00000000000000000000000000000000000000000000000000000000000000006001600160a01b0316638da5cb5b6040518163ffffffff1660e01b8152600401602060405180830381600087803b15801561045457600080fd5b505af1158015610468573d6000803e3d6000fd5b505050506040513d602081101561047e57600080fd5b50516001600160a01b031633146104c4576040805162461bcd60e51b8152602060048201526005602482015264042c2eae8d60db1b604482015290519081900360640190fd5b600080546001600160a01b0319166001600160a01b0392909216919091179055565b6000546001600160a01b031681565b604080516000602480830182905283518084039091018152604490920183526020820180516001600160e01b03166301ddabf160e01b17815292518251919384926001600160a01b03871692859290918291908083835b6020831061056b5780518252601f19909201916020918201910161054c565b6001836020036101000a0380198251168184511680821785525050505050509050019150506000604051808303816000865af19150503d80600081146105cd576040519150601f19603f3d011682016040523d82523d6000602084013e6105d2565b606091505b50909594505050505056fea2646970667358221220ab6545605466d082667837211854b9f90e6b50d83b6faf1eaf44976db6d12d1864736f6c634300060c0033",
  "immutableReferences": {
    "13278": [
      {
        "length": 32,
        "start": 301
      },
      {
        "length": 32,
        "start": 348
      },
      {
        "length": 32,
        "start": 794
      },
      {
        "length": 32,
        "start": 1019
      }
    ],
    "13280": [
      {
        "length": 32,
        "start": 265
      },
      {
        "length": 32,
        "start": 850
      }
    ],
    "13282": [
      {
        "length": 32,
        "start": 645
      },
      {
        "length": 32,
        "start": 983
      }
    ]
  },
  "source": "// SPDX-License-Identifier: MIT\npragma solidity 0.6.12;\n\nimport \"./Interfaces.sol\";\nimport \"./interfaces/IProxyFactory.sol\";\nimport \"@openzeppelin/contracts/math/SafeMath.sol\";\nimport \"@openzeppelin/contracts/token/ERC20/IERC20.sol\";\nimport \"@openzeppelin/contracts/utils/Address.sol\";\nimport \"@openzeppelin/contracts/token/ERC20/SafeERC20.sol\";\n\ncontract StashFactoryV2 {\n  using Address for address;\n\n  bytes4 private constant rewards_receiver = 0x01ddabf1; //rewards_receiver(address)\n\n  address public immutable operator;\n  address public immutable rewardFactory;\n  address public immutable proxyFactory;\n\n  address public v3Implementation;\n\n  constructor(\n    address _operator,\n    address _rewardFactory,\n    address _proxyFactory\n  ) public {\n    operator = _operator;\n    rewardFactory = _rewardFactory;\n    proxyFactory = _proxyFactory;\n  }\n\n  function setImplementation(address _v3) external {\n    require(msg.sender == IDeposit(operator).owner(), \"!auth\");\n    v3Implementation = _v3;\n  }\n\n  //Create a stash contract for the given gauge.\n  //function calls are different depending on the version of kagla gauges so determine which stash type is needed\n  function CreateStash(\n    uint256 _pid,\n    address _gauge,\n    address _staker,\n    uint256 _stashVersion\n  ) external returns (address) {\n    require(msg.sender == operator, \"!authorized\");\n    if (_stashVersion == 3) {\n      require(v3Implementation != address(0), \"0 impl\");\n      require(!IsV3(_gauge), \"stash version mismatch\");\n\n      address stash = IProxyFactory(proxyFactory).clone(v3Implementation);\n      IStash(stash).initialize(_pid, operator, _staker, _gauge, rewardFactory);\n      return stash;\n    } else {\n      return address(0);\n    }\n  }\n\n  function IsV3(address _gauge) private returns (bool) {\n    bytes memory data = abi.encodeWithSelector(rewards_receiver, address(0));\n    (bool success, ) = _gauge.call(data);\n    return success;\n  }\n}\n",
  "sourcePath": "/Users/shuto/Documents/bridges-dev/muuu/protocol/contracts/contracts/StashFactoryV2.sol",
  "compiler": {
    "name": "solc",
    "version": "0.6.12+commit.27d51765.Emscripten.clang"
  },
  "schemaVersion": "3.4.6",
  "updatedAt": "2022-04-25T07:58:50.537Z",
  "devdoc": {
    "kind": "dev",
    "methods": {},
    "version": 1
  },
  "userdoc": {
    "kind": "user",
    "methods": {},
    "version": 1
  }
}