{
  "contractName": "StashFactory",
  "abi": [
    {
      "inputs": [
        {
          "internalType": "address",
          "name": "_operator",
          "type": "address"
        },
        {
          "internalType": "address",
          "name": "_rewardFactory",
          "type": "address"
        }
      ],
      "stateMutability": "nonpayable",
      "type": "constructor"
    },
    {
      "inputs": [],
      "name": "operator",
      "outputs": [
        {
          "internalType": "address",
          "name": "",
          "type": "address"
        }
      ],
      "stateMutability": "view",
      "type": "function"
    },
    {
      "inputs": [],
      "name": "rewardFactory",
      "outputs": [
        {
          "internalType": "address",
          "name": "",
          "type": "address"
        }
      ],
      "stateMutability": "view",
      "type": "function"
    },
    {
      "inputs": [
        {
          "internalType": "uint256",
          "name": "_pid",
          "type": "uint256"
        },
        {
          "internalType": "address",
          "name": "_gauge",
          "type": "address"
        },
        {
          "internalType": "address",
          "name": "_staker",
          "type": "address"
        },
        {
          "internalType": "uint256",
          "name": "_stashVersion",
          "type": "uint256"
        }
      ],
      "name": "CreateStash",
      "outputs": [
        {
          "internalType": "address",
          "name": "",
          "type": "address"
        }
      ],
      "stateMutability": "nonpayable",
      "type": "function"
    }
  ],
  "bytecode": "0x608060405234801561001057600080fd5b506040516101d53803806101d58339818101604052604081101561003357600080fd5b508051602090910151600080546001600160a01b039384166001600160a01b0319918216179091556001805493909216921691909117905561015b8061007a6000396000f3fe608060405234801561001057600080fd5b50600436106100415760003560e01c8063245e4bf014610046578063570ca7351461006a57806399cb12de14610072575b600080fd5b61004e6100ae565b604080516001600160a01b039092168252519081900360200190f35b61004e6100bd565b61004e6004803603608081101561008857600080fd5b508035906001600160a01b036020820135811691604081013590911690606001356100cc565b6001546001600160a01b031681565b6000546001600160a01b031681565b600080546001600160a01b0316331461011a576040805162461bcd60e51b815260206004820152600b60248201526a08585d5d1a1bdc9a5e995960aa1b604482015290519081900360640190fd5b50600094935050505056fea2646970667358221220882b49ede495a9d26c8a33df18840430c3629e34a049eef316f5319b6b14084564736f6c634300060c0033",
  "immutableReferences": {},
  "source": "// SPDX-License-Identifier: MIT\npragma solidity 0.6.12;\n\nimport \"./Interfaces.sol\";\nimport \"./ExtraRewardStashV1.sol\";\nimport \"./ExtraRewardStashV2.sol\";\nimport \"./ExtraRewardStashV3.sol\";\nimport \"@openzeppelin/contracts/math/SafeMath.sol\";\nimport \"@openzeppelin/contracts/token/ERC20/IERC20.sol\";\nimport \"@openzeppelin/contracts/utils/Address.sol\";\nimport \"@openzeppelin/contracts/token/ERC20/SafeERC20.sol\";\n\ncontract StashFactory {\n  using Address for address;\n\n  bytes4 private constant rewarded_token = 0x16fa50b1; //rewarded_token()\n  bytes4 private constant reward_tokens = 0x54c49fe9; //reward_tokens(uint256)\n  bytes4 private constant rewards_receiver = 0x01ddabf1; //rewards_receiver(address)\n\n  address public operator;\n  address public rewardFactory;\n\n  constructor(address _operator, address _rewardFactory) public {\n    operator = _operator;\n    rewardFactory = _rewardFactory;\n  }\n\n  //Create a stash contract for the given gauge.\n  //function calls are different depending on the version of kagla gauges so determine which stash type is needed\n  function CreateStash(\n    uint256 _pid,\n    address _gauge,\n    address _staker,\n    uint256 _stashVersion\n  ) external returns (address) {\n    require(msg.sender == operator, \"!authorized\");\n\n    // if(_stashVersion == uint256(3) && IsV3(_gauge)){\n    //     //v3\n    //     ExtraRewardStashV3 stash = new ExtraRewardStashV3(_pid,operator,_staker,_gauge,rewardFactory);\n    //     return address(stash);\n    // }else if(_stashVersion == uint256(1) && IsV1(_gauge)){\n    //     //v1\n    //     ExtraRewardStashV1 stash = new ExtraRewardStashV1(_pid,operator,_staker,_gauge,rewardFactory);\n    //     return address(stash);\n    // }else if(_stashVersion == uint256(2) && !IsV3(_gauge) && IsV2(_gauge)){\n    //     //v2\n    //     ExtraRewardStashV2 stash = new ExtraRewardStashV2(_pid,operator,_staker,_gauge,rewardFactory);\n    //     return address(stash);\n    // }\n    // bool isV1 = IsV1(_gauge);\n    // bool isV2 = IsV2(_gauge);\n    // bool isV3 = IsV3(_gauge);\n    // require(!isV1 && !isV2 && !isV3,\"stash version mismatch\");\n    return address(0);\n  }\n\n  function IsV1(address _gauge) private returns (bool) {\n    bytes memory data = abi.encode(rewarded_token);\n    (bool success, ) = _gauge.call(data);\n    return success;\n  }\n\n  function IsV2(address _gauge) private returns (bool) {\n    bytes memory data = abi.encodeWithSelector(reward_tokens, uint256(0));\n    (bool success, ) = _gauge.call(data);\n    return success;\n  }\n\n  function IsV3(address _gauge) private returns (bool) {\n    bytes memory data = abi.encodeWithSelector(rewards_receiver, address(0));\n    (bool success, ) = _gauge.call(data);\n    return success;\n  }\n}\n",
  "sourcePath": "/Users/shuto/Documents/bridges-dev/muuu/protocol/contracts/contracts/StashFactory.sol",
  "compiler": {
    "name": "solc",
    "version": "0.6.12+commit.27d51765.Emscripten.clang"
  },
  "schemaVersion": "3.4.6",
  "updatedAt": "2022-04-25T07:58:50.532Z",
  "devdoc": {
    "kind": "dev",
    "methods": {},
    "version": 1
  },
  "userdoc": {
    "kind": "user",
    "methods": {},
    "version": 1
  }
}