{
  "contractName": "StashFactoryV2",
  "abi": [
    {
      "inputs": [
        {
          "internalType": "address",
          "name": "_operator",
          "type": "address"
        },
        {
          "internalType": "address",
          "name": "_rewardFactory",
          "type": "address"
        },
        {
          "internalType": "address",
          "name": "_proxyFactory",
          "type": "address"
        }
      ],
      "stateMutability": "nonpayable",
      "type": "constructor"
    },
    {
      "inputs": [],
      "name": "operator",
      "outputs": [
        {
          "internalType": "address",
          "name": "",
          "type": "address"
        }
      ],
      "stateMutability": "view",
      "type": "function"
    },
    {
      "inputs": [],
      "name": "proxyFactory",
      "outputs": [
        {
          "internalType": "address",
          "name": "",
          "type": "address"
        }
      ],
      "stateMutability": "view",
      "type": "function"
    },
    {
      "inputs": [],
      "name": "rewardFactory",
      "outputs": [
        {
          "internalType": "address",
          "name": "",
          "type": "address"
        }
      ],
      "stateMutability": "view",
      "type": "function"
    },
    {
      "inputs": [],
      "name": "v1Implementation",
      "outputs": [
        {
          "internalType": "address",
          "name": "",
          "type": "address"
        }
      ],
      "stateMutability": "view",
      "type": "function"
    },
    {
      "inputs": [],
      "name": "v2Implementation",
      "outputs": [
        {
          "internalType": "address",
          "name": "",
          "type": "address"
        }
      ],
      "stateMutability": "view",
      "type": "function"
    },
    {
      "inputs": [],
      "name": "v3Implementation",
      "outputs": [
        {
          "internalType": "address",
          "name": "",
          "type": "address"
        }
      ],
      "stateMutability": "view",
      "type": "function"
    },
    {
      "inputs": [
        {
          "internalType": "address",
          "name": "_v1",
          "type": "address"
        },
        {
          "internalType": "address",
          "name": "_v2",
          "type": "address"
        },
        {
          "internalType": "address",
          "name": "_v3",
          "type": "address"
        }
      ],
      "name": "setImplementation",
      "outputs": [],
      "stateMutability": "nonpayable",
      "type": "function"
    },
    {
      "inputs": [
        {
          "internalType": "uint256",
          "name": "_pid",
          "type": "uint256"
        },
        {
          "internalType": "address",
          "name": "_gauge",
          "type": "address"
        },
        {
          "internalType": "address",
          "name": "_staker",
          "type": "address"
        },
        {
          "internalType": "uint256",
          "name": "_stashVersion",
          "type": "uint256"
        }
      ],
      "name": "CreateStash",
      "outputs": [
        {
          "internalType": "address",
          "name": "",
          "type": "address"
        }
      ],
      "stateMutability": "nonpayable",
      "type": "function"
    }
  ],
  "bytecode": "0x60e060405234801561001057600080fd5b50604051610a1c380380610a1c8339818101604052606081101561003357600080fd5b50805160208201516040909201516001600160601b0319606092831b811660805292821b831660a052901b1660c05260805160601c60a05160601c60c05160601c6109626100ba600039806103a4528061056a528061064d528061073c525080610151528061046e525080610175528061028e52806102bd528061043652506109626000f3fe608060405234801561001057600080fd5b50600436106100885760003560e01c806399cb12de1161005b57806399cb12de146100fb578063b345e61614610137578063c10f1a751461013f578063f3cbcdd31461014757610088565b8063245e4bf01461008d5780632fa6cbe9146100b15780634f349cdc146100eb578063570ca735146100f3575b600080fd5b61009561014f565b604080516001600160a01b039092168252519081900360200190f35b6100e9600480360360608110156100c757600080fd5b506001600160a01b038135811691602081013582169160409091013516610173565b005b61009561027d565b61009561028c565b6100956004803603608081101561011157600080fd5b508035906001600160a01b036020820135811691604081013590911690606001356102b0565b61009561072b565b61009561073a565b61009561075e565b7f000000000000000000000000000000000000000000000000000000000000000081565b7f00000000000000000000000000000000000000000000000000000000000000006001600160a01b0316638da5cb5b6040518163ffffffff1660e01b8152600401602060405180830381600087803b1580156101ce57600080fd5b505af11580156101e2573d6000803e3d6000fd5b505050506040513d60208110156101f857600080fd5b50516001600160a01b0316331461023e576040805162461bcd60e51b8152602060048201526005602482015264042c2eae8d60db1b604482015290519081900360640190fd5b600080546001600160a01b039485166001600160a01b031991821617909155600180549385169382169390931790925560028054919093169116179055565b6001546001600160a01b031681565b7f000000000000000000000000000000000000000000000000000000000000000081565b6000336001600160a01b037f0000000000000000000000000000000000000000000000000000000000000000161461031d576040805162461bcd60e51b815260206004820152600b60248201526a08585d5d1a1bdc9a5e995960aa1b604482015290519081900360640190fd5b60038214801561033157506103318461076d565b156104e5576002546001600160a01b031661037c576040805162461bcd60e51b81526020600482015260066024820152650c081a5b5c1b60d21b604482015290519081900360640190fd5b600254604080516340925bc760e11b81526001600160a01b03928316600482015290516000927f00000000000000000000000000000000000000000000000000000000000000001691638124b78e91602480830192602092919082900301818787803b1580156103eb57600080fd5b505af11580156103ff573d6000803e3d6000fd5b505050506040513d602081101561041557600080fd5b505160408051633641e08360e01b8152600481018990526001600160a01b037f000000000000000000000000000000000000000000000000000000000000000081166024830152878116604483015288811660648301527f000000000000000000000000000000000000000000000000000000000000000081166084830152915192935090831691633641e0839160a48082019260009290919082900301818387803b1580156104c457600080fd5b505af11580156104d8573d6000803e3d6000fd5b5050505080915050610723565b6001821480156104f957506104f984610855565b156105b4576000546001600160a01b0316610544576040805162461bcd60e51b81526020600482015260066024820152650c081a5b5c1b60d21b604482015290519081900360640190fd5b60008054604080516340925bc760e11b81526001600160a01b03928316600482015290517f000000000000000000000000000000000000000000000000000000000000000090921691638124b78e9160248082019260209290919082900301818787803b1580156103eb57600080fd5b6002821480156105ca57506105c88461076d565b155b80156105da57506105da846108b7565b15610694576001546001600160a01b0316610625576040805162461bcd60e51b81526020600482015260066024820152650c081a5b5c1b60d21b604482015290519081900360640190fd5b600154604080516340925bc760e11b81526001600160a01b03928316600482015290516000927f00000000000000000000000000000000000000000000000000000000000000001691638124b78e91602480830192602092919082900301818787803b1580156103eb57600080fd5b600061069f85610855565b905060006106ac866108b7565b905060006106b98761076d565b9050821580156106c7575081155b80156106d1575080155b61071b576040805162461bcd60e51b81526020600482015260166024820152750e6e8c2e6d040eccae4e6d2dedc40dad2e6dac2e8c6d60531b604482015290519081900360640190fd5b600093505050505b949350505050565b6000546001600160a01b031681565b7f000000000000000000000000000000000000000000000000000000000000000081565b6002546001600160a01b031681565b604080516000602480830182905283518084039091018152604490920183526020820180516001600160e01b03166301ddabf160e01b17815292518251919384926001600160a01b03871692859290918291908083835b602083106107e35780518252601f1990920191602091820191016107c4565b6001836020036101000a0380198251168184511680821785525050505050509050019150506000604051808303816000865af19150503d8060008114610845576040519150601f19603f3d011682016040523d82523d6000602084013e61084a565b606091505b509095945050505050565b604080516316fa50b160e01b60208083019190915282518083038201815291830192839052815160009384926001600160a01b03871692859291829190840190808383602083106107e35780518252601f1990920191602091820191016107c4565b604080516000602480830182905283518084039091018152604490920183526020820180516001600160e01b03166354c49fe960e01b17815292518251919384926001600160a01b0387169285929091829190808383602083106107e35780518252601f1990920191602091820191016107c456fea264697066735822122070aba4601461df2b1c39e9cecb040c97b15b3a3735ed7f7ee1a15b2dc84799a764736f6c634300060c0033",
  "immutableReferences": {
    "25216": [
      {
        "length": 32,
        "start": 373
      },
      {
        "length": 32,
        "start": 654
      },
      {
        "length": 32,
        "start": 701
      },
      {
        "length": 32,
        "start": 1078
      }
    ],
    "25218": [
      {
        "length": 32,
        "start": 337
      },
      {
        "length": 32,
        "start": 1134
      }
    ],
    "25220": [
      {
        "length": 32,
        "start": 932
      },
      {
        "length": 32,
        "start": 1386
      },
      {
        "length": 32,
        "start": 1613
      },
      {
        "length": 32,
        "start": 1852
      }
    ]
  },
  "source": "// SPDX-License-Identifier: MIT\npragma solidity 0.6.12;\n\nimport \"./Interfaces.sol\";\nimport \"./interfaces/IProxyFactory.sol\";\nimport \"@openzeppelin/contracts/math/SafeMath.sol\";\nimport \"@openzeppelin/contracts/token/ERC20/IERC20.sol\";\nimport \"@openzeppelin/contracts/utils/Address.sol\";\nimport \"@openzeppelin/contracts/token/ERC20/SafeERC20.sol\";\n\ncontract StashFactoryV2 {\n  using Address for address;\n\n  bytes4 private constant rewarded_token = 0x16fa50b1; //rewarded_token()\n  bytes4 private constant reward_tokens = 0x54c49fe9; //reward_tokens(uint256)\n  bytes4 private constant rewards_receiver = 0x01ddabf1; //rewards_receiver(address)\n\n  address public immutable operator;\n  address public immutable rewardFactory;\n  address public immutable proxyFactory;\n\n  address public v1Implementation;\n  address public v2Implementation;\n  address public v3Implementation;\n\n  constructor(\n    address _operator,\n    address _rewardFactory,\n    address _proxyFactory\n  ) public {\n    operator = _operator;\n    rewardFactory = _rewardFactory;\n    proxyFactory = _proxyFactory;\n  }\n\n  function setImplementation(\n    address _v1,\n    address _v2,\n    address _v3\n  ) external {\n    require(msg.sender == IDeposit(operator).owner(), \"!auth\");\n\n    v1Implementation = _v1;\n    v2Implementation = _v2;\n    v3Implementation = _v3;\n  }\n\n  //Create a stash contract for the given gauge.\n  //function calls are different depending on the version of kagla gauges so determine which stash type is needed\n  function CreateStash(\n    uint256 _pid,\n    address _gauge,\n    address _staker,\n    uint256 _stashVersion\n  ) external returns (address) {\n    require(msg.sender == operator, \"!authorized\");\n\n    if (_stashVersion == uint256(3) && IsV3(_gauge)) {\n      //v3\n      require(v3Implementation != address(0), \"0 impl\");\n      address stash = IProxyFactory(proxyFactory).clone(v3Implementation);\n      IStash(stash).initialize(_pid, operator, _staker, _gauge, rewardFactory);\n      return stash;\n    } else if (_stashVersion == uint256(1) && IsV1(_gauge)) {\n      //v1\n      require(v1Implementation != address(0), \"0 impl\");\n      address stash = IProxyFactory(proxyFactory).clone(v1Implementation);\n      IStash(stash).initialize(_pid, operator, _staker, _gauge, rewardFactory);\n      return stash;\n    } else if (_stashVersion == uint256(2) && !IsV3(_gauge) && IsV2(_gauge)) {\n      //v2\n      require(v2Implementation != address(0), \"0 impl\");\n      address stash = IProxyFactory(proxyFactory).clone(v2Implementation);\n      IStash(stash).initialize(_pid, operator, _staker, _gauge, rewardFactory);\n      return stash;\n    }\n    bool isV1 = IsV1(_gauge);\n    bool isV2 = IsV2(_gauge);\n    bool isV3 = IsV3(_gauge);\n    require(!isV1 && !isV2 && !isV3, \"stash version mismatch\");\n    return address(0);\n  }\n\n  function IsV1(address _gauge) private returns (bool) {\n    bytes memory data = abi.encode(rewarded_token);\n    (bool success, ) = _gauge.call(data);\n    return success;\n  }\n\n  function IsV2(address _gauge) private returns (bool) {\n    bytes memory data = abi.encodeWithSelector(reward_tokens, uint256(0));\n    (bool success, ) = _gauge.call(data);\n    return success;\n  }\n\n  function IsV3(address _gauge) private returns (bool) {\n    bytes memory data = abi.encodeWithSelector(rewards_receiver, address(0));\n    (bool success, ) = _gauge.call(data);\n    return success;\n  }\n}\n",
  "sourcePath": "/Users/shuto/Documents/bridges-dev/muuu/protocol/contracts/contracts/StashFactoryV2.sol",
  "compiler": {
    "name": "solc",
    "version": "0.6.12+commit.27d51765.Emscripten.clang"
  },
  "schemaVersion": "3.4.6",
  "updatedAt": "2022-04-04T03:30:07.362Z",
  "devdoc": {
    "kind": "dev",
    "methods": {},
    "version": 1
  },
  "userdoc": {
    "kind": "user",
    "methods": {},
    "version": 1
  }
}