{
  "contractName": "TokenFactory",
  "abi": [
    {
      "inputs": [
        {
          "internalType": "address",
          "name": "_operator",
          "type": "address"
        }
      ],
      "stateMutability": "nonpayable",
      "type": "constructor"
    },
    {
      "inputs": [],
      "name": "operator",
      "outputs": [
        {
          "internalType": "address",
          "name": "",
          "type": "address"
        }
      ],
      "stateMutability": "view",
      "type": "function"
    },
    {
      "inputs": [
        {
          "internalType": "address",
          "name": "_lptoken",
          "type": "address"
        }
      ],
      "name": "CreateDepositToken",
      "outputs": [
        {
          "internalType": "address",
          "name": "",
          "type": "address"
        }
      ],
      "stateMutability": "nonpayable",
      "type": "function"
    }
  ],
  "bytecode": "0x608060405234801561001057600080fd5b506040516114b03803806114b08339818101604052602081101561003357600080fd5b5051600080546001600160a01b039092166001600160a01b031990921691909117905561144b806100656000396000f3fe608060405234801561001057600080fd5b50600436106100365760003560e01c8063114a899c1461003b578063570ca7351461007d575b600080fd5b6100616004803603602081101561005157600080fd5b50356001600160a01b0316610085565b604080516001600160a01b039092168252519081900360200190f35b61006161012c565b600080546001600160a01b031633146100d3576040805162461bcd60e51b815260206004820152600b60248201526a08585d5d1a1bdc9a5e995960aa1b604482015290519081900360640190fd5b600080546040516001600160a01b039091169084906100f19061013b565b6001600160a01b03928316815291166020820152604080519182900301906000f080158015610124573d6000803e3d6000fd5b509392505050565b6000546001600160a01b031681565b6112cd806101498339019056fe60806040523480156200001157600080fd5b50604051620012cd380380620012cd833981810160405260408110156200003757600080fd5b508051602090910151604080516306fdde0360e01b815290516001600160a01b038316916306fdde03916004808301926000929190829003018186803b1580156200008157600080fd5b505afa15801562000096573d6000803e3d6000fd5b505050506040513d6000823e601f3d908101601f191682016040526020811015620000c057600080fd5b8101908080516040519392919084640100000000821115620000e157600080fd5b908301906020820185811115620000f757600080fd5b82516401000000008111828201881017156200011257600080fd5b82525081516020918201929091019080838360005b838110156200014157818101518382015260200162000127565b50505050905090810190601f1680156200016f5780820380516001836020036101000a031916815260200191505b506040525050506040516020018082805190602001908083835b60208310620001aa5780518252601f19909201916020918201910162000189565b6001836020036101000a038019825116818451168082178552505050505050905001807f204d757575204465706f73697420546f6b656e00000000000000000000000000815250601301915050604051602081830303815290604052816001600160a01b03166395d89b416040518163ffffffff1660e01b815260040160006040518083038186803b1580156200024057600080fd5b505afa15801562000255573d6000803e3d6000fd5b505050506040513d6000823e601f3d908101601f1916820160405260208110156200027f57600080fd5b8101908080516040519392919084640100000000821115620002a057600080fd5b908301906020820185811115620002b657600080fd5b8251640100000000811182820188101715620002d157600080fd5b82525081516020918201929091019080838360005b8381101562000300578181015183820152602001620002e6565b50505050905090810190601f1680156200032e5780820380516001836020036101000a031916815260200191505b506040525050506040516020018080616d7560f01b81525060020182805190602001908083835b60208310620003765780518252601f19909201916020918201910162000355565b6001836020036101000a0380198251168184511680821785525050505050509050019150506040516020818303038152906040528160039080519060200190620003c292919062000414565b508051620003d890600490602084019062000414565b5050600580546001600160a01b0390941661010002610100600160a81b031960ff19909516601217949094169390931790925550620004b09050565b828054600181600116156101000203166002900490600052602060002090601f016020900481019282601f106200045757805160ff191683800117855562000487565b8280016001018555821562000487579182015b82811115620004875782518255916020019190600101906200046a565b506200049592915062000499565b5090565b5b808211156200049557600081556001016200049a565b610e0d80620004c06000396000f3fe608060405234801561001057600080fd5b50600436106100ea5760003560e01c8063570ca7351161008c5780639dc29fac116100665780639dc29fac146102c6578063a457c2d7146102f2578063a9059cbb1461031e578063dd62ed3e1461034a576100ea565b8063570ca7351461027457806370a082311461029857806395d89b41146102be576100ea565b806323b872dd116100c857806323b872dd146101c6578063313ce567146101fc578063395093511461021a57806340c10f1914610246576100ea565b806306fdde03146100ef578063095ea7b31461016c57806318160ddd146101ac575b600080fd5b6100f7610378565b6040805160208082528351818301528351919283929083019185019080838360005b83811015610131578181015183820152602001610119565b50505050905090810190601f16801561015e5780820380516001836020036101000a031916815260200191505b509250505060405180910390f35b6101986004803603604081101561018257600080fd5b506001600160a01b03813516906020013561040e565b604080519115158252519081900360200190f35b6101b461042b565b60408051918252519081900360200190f35b610198600480360360608110156101dc57600080fd5b506001600160a01b03813581169160208101359091169060400135610431565b6102046104b8565b6040805160ff9092168252519081900360200190f35b6101986004803603604081101561023057600080fd5b506001600160a01b0381351690602001356104c1565b6102726004803603604081101561025c57600080fd5b506001600160a01b03813516906020013561050f565b005b61027c61056f565b604080516001600160a01b039092168252519081900360200190f35b6101b4600480360360208110156102ae57600080fd5b50356001600160a01b0316610583565b6100f761059e565b610272600480360360408110156102dc57600080fd5b506001600160a01b0381351690602001356105ff565b6101986004803603604081101561030857600080fd5b506001600160a01b03813516906020013561065b565b6101986004803603604081101561033457600080fd5b506001600160a01b0381351690602001356106c3565b6101b46004803603604081101561036057600080fd5b506001600160a01b03813581169160200135166106d7565b60038054604080516020601f60026000196101006001881615020190951694909404938401819004810282018101909252828152606093909290918301828280156104045780601f106103d957610100808354040283529160200191610404565b820191906000526020600020905b8154815290600101906020018083116103e757829003601f168201915b5050505050905090565b600061042261041b610702565b8484610706565b50600192915050565b60025490565b600061043e8484846107f2565b6104ae8461044a610702565b6104a985604051806060016040528060288152602001610d21602891396001600160a01b038a16600090815260016020526040812090610488610702565b6001600160a01b03168152602081019190915260400160002054919061094d565b610706565b5060019392505050565b60055460ff1690565b60006104226104ce610702565b846104a985600160006104df610702565b6001600160a01b03908116825260208083019390935260409182016000908120918c1681529252902054906109e4565b60055461010090046001600160a01b03163314610561576040805162461bcd60e51b815260206004820152600b60248201526a08585d5d1a1bdc9a5e995960aa1b604482015290519081900360640190fd5b61056b8282610a45565b5050565b60055461010090046001600160a01b031681565b6001600160a01b031660009081526020819052604090205490565b60048054604080516020601f60026000196101006001881615020190951694909404938401819004810282018101909252828152606093909290918301828280156104045780601f106103d957610100808354040283529160200191610404565b60055461010090046001600160a01b03163314610651576040805162461bcd60e51b815260206004820152600b60248201526a08585d5d1a1bdc9a5e995960aa1b604482015290519081900360640190fd5b61056b8282610b35565b6000610422610668610702565b846104a985604051806060016040528060258152602001610db36025913960016000610692610702565b6001600160a01b03908116825260208083019390935260409182016000908120918d1681529252902054919061094d565b60006104226106d0610702565b84846107f2565b6001600160a01b03918216600090815260016020908152604080832093909416825291909152205490565b3390565b6001600160a01b03831661074b5760405162461bcd60e51b8152600401808060200182810382526024815260200180610d8f6024913960400191505060405180910390fd5b6001600160a01b0382166107905760405162461bcd60e51b8152600401808060200182810382526022815260200180610cd96022913960400191505060405180910390fd5b6001600160a01b03808416600081815260016020908152604080832094871680845294825291829020859055815185815291517f8c5be1e5ebec7d5bd14f71427d1e84f3dd0314c0f7b2291e5b200ac8c7c3b9259281900390910190a3505050565b6001600160a01b0383166108375760405162461bcd60e51b8152600401808060200182810382526025815260200180610d6a6025913960400191505060405180910390fd5b6001600160a01b03821661087c5760405162461bcd60e51b8152600401808060200182810382526023815260200180610c946023913960400191505060405180910390fd5b610887838383610c31565b6108c481604051806060016040528060268152602001610cfb602691396001600160a01b038616600090815260208190526040902054919061094d565b6001600160a01b0380851660009081526020819052604080822093909355908416815220546108f390826109e4565b6001600160a01b038084166000818152602081815260409182902094909455805185815290519193928716927fddf252ad1be2c89b69c2b068fc378daa952ba7f163c4a11628f55a4df523b3ef92918290030190a3505050565b600081848411156109dc5760405162461bcd60e51b81526004018080602001828103825283818151815260200191508051906020019080838360005b838110156109a1578181015183820152602001610989565b50505050905090810190601f1680156109ce5780820380516001836020036101000a031916815260200191505b509250505060405180910390fd5b505050900390565b600082820183811015610a3e576040805162461bcd60e51b815260206004820152601b60248201527f536166654d6174683a206164646974696f6e206f766572666c6f770000000000604482015290519081900360640190fd5b9392505050565b6001600160a01b038216610aa0576040805162461bcd60e51b815260206004820152601f60248201527f45524332303a206d696e7420746f20746865207a65726f206164647265737300604482015290519081900360640190fd5b610aac60008383610c31565b600254610ab990826109e4565b6002556001600160a01b038216600090815260208190526040902054610adf90826109e4565b6001600160a01b0383166000818152602081815260408083209490945583518581529351929391927fddf252ad1be2c89b69c2b068fc378daa952ba7f163c4a11628f55a4df523b3ef9281900390910190a35050565b6001600160a01b038216610b7a5760405162461bcd60e51b8152600401808060200182810382526021815260200180610d496021913960400191505060405180910390fd5b610b8682600083610c31565b610bc381604051806060016040528060228152602001610cb7602291396001600160a01b038516600090815260208190526040902054919061094d565b6001600160a01b038316600090815260208190526040902055600254610be99082610c36565b6002556040805182815290516000916001600160a01b038516917fddf252ad1be2c89b69c2b068fc378daa952ba7f163c4a11628f55a4df523b3ef9181900360200190a35050565b505050565b600082821115610c8d576040805162461bcd60e51b815260206004820152601e60248201527f536166654d6174683a207375627472616374696f6e206f766572666c6f770000604482015290519081900360640190fd5b5090039056fe45524332303a207472616e7366657220746f20746865207a65726f206164647265737345524332303a206275726e20616d6f756e7420657863656564732062616c616e636545524332303a20617070726f766520746f20746865207a65726f206164647265737345524332303a207472616e7366657220616d6f756e7420657863656564732062616c616e636545524332303a207472616e7366657220616d6f756e74206578636565647320616c6c6f77616e636545524332303a206275726e2066726f6d20746865207a65726f206164647265737345524332303a207472616e736665722066726f6d20746865207a65726f206164647265737345524332303a20617070726f76652066726f6d20746865207a65726f206164647265737345524332303a2064656372656173656420616c6c6f77616e63652062656c6f77207a65726fa2646970667358221220afaecc6b1b09fd6e98adbd12c2813e475fc374c06253437bcd1f98f79474512264736f6c634300060c0033a26469706673582212203802f54b8da0647e3a304118fb8a342cb6575ab80972500e48fd813b4164e11e64736f6c634300060c0033",
  "immutableReferences": {},
  "source": "// SPDX-License-Identifier: MIT\npragma solidity 0.6.12;\n\nimport \"./Interfaces.sol\";\nimport \"./DepositToken.sol\";\nimport \"@openzeppelin/contracts/math/SafeMath.sol\";\nimport \"@openzeppelin/contracts/token/ERC20/IERC20.sol\";\nimport \"@openzeppelin/contracts/utils/Address.sol\";\nimport \"@openzeppelin/contracts/token/ERC20/SafeERC20.sol\";\n\ncontract TokenFactory {\n  using Address for address;\n\n  address public operator;\n\n  constructor(address _operator) public {\n    operator = _operator;\n  }\n\n  function CreateDepositToken(address _lptoken) external returns (address) {\n    require(msg.sender == operator, \"!authorized\");\n\n    DepositToken dtoken = new DepositToken(operator, _lptoken);\n    return address(dtoken);\n  }\n}\n",
  "sourcePath": "/Users/shuto/Documents/bridges-dev/muuu/protocol/contracts/contracts/TokenFactory.sol",
  "compiler": {
    "name": "solc",
    "version": "0.6.12+commit.27d51765.Emscripten.clang"
  },
  "schemaVersion": "3.4.6",
  "updatedAt": "2022-04-04T03:30:07.366Z",
  "devdoc": {
    "kind": "dev",
    "methods": {},
    "version": 1
  },
  "userdoc": {
    "kind": "user",
    "methods": {},
    "version": 1
  }
}