{
  "contractName": "TreasuryFunds",
  "abi": [
    {
      "inputs": [
        {
          "internalType": "address",
          "name": "_operator",
          "type": "address"
        }
      ],
      "stateMutability": "nonpayable",
      "type": "constructor"
    },
    {
      "anonymous": false,
      "inputs": [
        {
          "indexed": true,
          "internalType": "address",
          "name": "user",
          "type": "address"
        },
        {
          "indexed": false,
          "internalType": "uint256",
          "name": "amount",
          "type": "uint256"
        }
      ],
      "name": "WithdrawTo",
      "type": "event"
    },
    {
      "inputs": [],
      "name": "operator",
      "outputs": [
        {
          "internalType": "address",
          "name": "",
          "type": "address"
        }
      ],
      "stateMutability": "view",
      "type": "function"
    },
    {
      "inputs": [
        {
          "internalType": "address",
          "name": "_op",
          "type": "address"
        }
      ],
      "name": "setOperator",
      "outputs": [],
      "stateMutability": "nonpayable",
      "type": "function"
    },
    {
      "inputs": [
        {
          "internalType": "contract IERC20",
          "name": "_asset",
          "type": "address"
        },
        {
          "internalType": "uint256",
          "name": "_amount",
          "type": "uint256"
        },
        {
          "internalType": "address",
          "name": "_to",
          "type": "address"
        }
      ],
      "name": "withdrawTo",
      "outputs": [],
      "stateMutability": "nonpayable",
      "type": "function"
    },
    {
      "inputs": [
        {
          "internalType": "address",
          "name": "_to",
          "type": "address"
        },
        {
          "internalType": "uint256",
          "name": "_value",
          "type": "uint256"
        },
        {
          "internalType": "bytes",
          "name": "_data",
          "type": "bytes"
        }
      ],
      "name": "execute",
      "outputs": [
        {
          "internalType": "bool",
          "name": "",
          "type": "bool"
        },
        {
          "internalType": "bytes",
          "name": "",
          "type": "bytes"
        }
      ],
      "stateMutability": "nonpayable",
      "type": "function"
    }
  ],
  "bytecode": "0x608060405234801561001057600080fd5b506040516107c43803806107c48339818101604052602081101561003357600080fd5b5051600080546001600160a01b039092166001600160a01b031990921691909117905561075f806100656000396000f3fe608060405234801561001057600080fd5b506004361061004c5760003560e01c8063570ca73514610051578063b3ab15fb14610075578063b61d27f61461009d578063c4e2c1e6146101a3575b600080fd5b6100596101d9565b604080516001600160a01b039092168252519081900360200190f35b61009b6004803603602081101561008b57600080fd5b50356001600160a01b03166101e8565b005b610122600480360360608110156100b357600080fd5b6001600160a01b03823516916020810135918101906060810160408201356401000000008111156100e357600080fd5b8201836020820111156100f557600080fd5b8035906020019184600183028401116401000000008311171561011757600080fd5b509092509050610251565b60405180831515815260200180602001828103825283818151815260200191508051906020019080838360005b8381101561016757818101518382015260200161014f565b50505050905090810190601f1680156101945780820380516001836020036101000a031916815260200191505b50935050505060405180910390f35b61009b600480360360608110156101b957600080fd5b506001600160a01b03813581169160208101359160409091013516610313565b6000546001600160a01b031681565b6000546001600160a01b0316331461022f576040805162461bcd60e51b8152602060048201526005602482015264042c2eae8d60db1b604482015290519081900360640190fd5b600080546001600160a01b0319166001600160a01b0392909216919091179055565b600080546060906001600160a01b0316331461029c576040805162461bcd60e51b8152602060048201526005602482015264042c2eae8d60db1b604482015290519081900360640190fd5b60006060876001600160a01b0316878787604051808383808284376040519201945060009350909150508083038185875af1925050503d80600081146102fe576040519150601f19603f3d011682016040523d82523d6000602084013e610303565b606091505b5090999098509650505050505050565b6000546001600160a01b0316331461035a576040805162461bcd60e51b8152602060048201526005602482015264042c2eae8d60db1b604482015290519081900360640190fd5b61036e6001600160a01b03841682846103b2565b6040805183815290516001600160a01b038316917f47096d7b247e809edf18e9bccfcb92f2af426ce8e6b40c923e65cb1b8394cef7919081900360200190a2505050565b604080516001600160a01b038416602482015260448082018490528251808303909101815260649091019091526020810180516001600160e01b031663a9059cbb60e01b179052610404908490610409565b505050565b606061045e826040518060400160405280602081526020017f5361666545524332303a206c6f772d6c6576656c2063616c6c206661696c6564815250856001600160a01b03166104ba9092919063ffffffff16565b8051909150156104045780806020019051602081101561047d57600080fd5b50516104045760405162461bcd60e51b815260040180806020018281038252602a815260200180610700602a913960400191505060405180910390fd5b60606104c984846000856104d3565b90505b9392505050565b6060824710156105145760405162461bcd60e51b81526004018080602001828103825260268152602001806106da6026913960400191505060405180910390fd5b61051d8561062f565b61056e576040805162461bcd60e51b815260206004820152601d60248201527f416464726573733a2063616c6c20746f206e6f6e2d636f6e7472616374000000604482015290519081900360640190fd5b60006060866001600160a01b031685876040518082805190602001908083835b602083106105ad5780518252601f19909201916020918201910161058e565b6001836020036101000a03801982511681845116808217855250505050505090500191505060006040518083038185875af1925050503d806000811461060f576040519150601f19603f3d011682016040523d82523d6000602084013e610614565b606091505b5091509150610624828286610635565b979650505050505050565b3b151590565b606083156106445750816104cc565b8251156106545782518084602001fd5b8160405162461bcd60e51b81526004018080602001828103825283818151815260200191508051906020019080838360005b8381101561069e578181015183820152602001610686565b50505050905090810190601f1680156106cb5780820380516001836020036101000a031916815260200191505b509250505060405180910390fdfe416464726573733a20696e73756666696369656e742062616c616e636520666f722063616c6c5361666545524332303a204552433230206f7065726174696f6e20646964206e6f742073756363656564a264697066735822122081e701bfea7d0a98b37897dec439c8ea3cabb7187aa6a45bca4db7736717ef0a64736f6c634300060c0033",
  "immutableReferences": {},
  "source": "// SPDX-License-Identifier: MIT\npragma solidity 0.6.12;\n\nimport \"@openzeppelin/contracts/token/ERC20/IERC20.sol\";\nimport \"@openzeppelin/contracts/utils/Address.sol\";\nimport \"@openzeppelin/contracts/token/ERC20/SafeERC20.sol\";\n\n//receive treasury funds. operator can withdraw\n//allow execute so that certain funds could be staked etc\n//allow treasury ownership to be transfered during the vesting stage\ncontract TreasuryFunds {\n  using SafeERC20 for IERC20;\n  using Address for address;\n\n  address public operator;\n  event WithdrawTo(address indexed user, uint256 amount);\n\n  constructor(address _operator) public {\n    operator = _operator;\n  }\n\n  function setOperator(address _op) external {\n    require(msg.sender == operator, \"!auth\");\n    operator = _op;\n  }\n\n  function withdrawTo(\n    IERC20 _asset,\n    uint256 _amount,\n    address _to\n  ) external {\n    require(msg.sender == operator, \"!auth\");\n\n    _asset.safeTransfer(_to, _amount);\n    emit WithdrawTo(_to, _amount);\n  }\n\n  function execute(\n    address _to,\n    uint256 _value,\n    bytes calldata _data\n  ) external returns (bool, bytes memory) {\n    require(msg.sender == operator, \"!auth\");\n\n    (bool success, bytes memory result) = _to.call{ value: _value }(_data);\n\n    return (success, result);\n  }\n}\n",
  "sourcePath": "/Users/linnefromice/repository/github.com/muuu-finance/muuu-protocol/contracts/contracts/TreasuryFunds.sol",
  "compiler": {
    "name": "solc",
    "version": "0.6.12+commit.27d51765.Emscripten.clang"
  },
  "schemaVersion": "3.4.6",
  "updatedAt": "2022-03-16T12:46:39.321Z",
  "devdoc": {
    "kind": "dev",
    "methods": {},
    "version": 1
  },
  "userdoc": {
    "kind": "user",
    "methods": {},
    "version": 1
  }
}