{
  "contractName": "VirtualBalanceWrapper",
  "abi": [
    {
      "inputs": [],
      "name": "deposits",
      "outputs": [
        {
          "internalType": "contract IDeposit",
          "name": "",
          "type": "address"
        }
      ],
      "stateMutability": "view",
      "type": "function"
    },
    {
      "inputs": [],
      "name": "totalSupply",
      "outputs": [
        {
          "internalType": "uint256",
          "name": "",
          "type": "uint256"
        }
      ],
      "stateMutability": "view",
      "type": "function"
    },
    {
      "inputs": [
        {
          "internalType": "address",
          "name": "account",
          "type": "address"
        }
      ],
      "name": "balanceOf",
      "outputs": [
        {
          "internalType": "uint256",
          "name": "",
          "type": "uint256"
        }
      ],
      "stateMutability": "view",
      "type": "function"
    }
  ],
  "bytecode": "0x608060405234801561001057600080fd5b506101ef806100206000396000f3fe608060405234801561001057600080fd5b50600436106100415760003560e01c806318160ddd14610046578063323a5e0b1461006057806370a0823114610084575b600080fd5b61004e6100aa565b60408051918252519081900360200190f35b61006861012a565b604080516001600160a01b039092168252519081900360200190f35b61004e6004803603602081101561009a57600080fd5b50356001600160a01b0316610139565b60008060009054906101000a90046001600160a01b03166001600160a01b03166318160ddd6040518163ffffffff1660e01b815260040160206040518083038186803b1580156100f957600080fd5b505afa15801561010d573d6000803e3d6000fd5b505050506040513d602081101561012357600080fd5b5051905090565b6000546001600160a01b031681565b60008054604080516370a0823160e01b81526001600160a01b038581166004830152915191909216916370a08231916024808301926020929190829003018186803b15801561018757600080fd5b505afa15801561019b573d6000803e3d6000fd5b505050506040513d60208110156101b157600080fd5b50519291505056fea26469706673582212209f164f95db20f02650b7cc05863c5cf5bccd45197beb1ae949e95979a307b28064736f6c634300060c0033",
  "immutableReferences": {},
  "source": "// SPDX-License-Identifier: MIT\npragma solidity 0.6.12;\n/**\n *Submitted for verification at Etherscan.io on 2020-07-17\n */\n\n/*\n   ____            __   __        __   _\n  / __/__ __ ___  / /_ / /  ___  / /_ (_)__ __\n _\\ \\ / // // _ \\/ __// _ \\/ -_)/ __// / \\ \\ /\n/___/ \\_, //_//_/\\__//_//_/\\__/ \\__//_/ /_\\_\\\n     /___/\n\n* Synthetix: VirtualBalanceRewardPool.sol\n*\n* Docs: https://docs.synthetix.io/\n*\n*\n* MIT License\n* ===========\n*\n* Copyright (c) 2020 Synthetix\n*\n* Permission is hereby granted, free of charge, to any person obtaining a copy\n* of this software and associated documentation files (the \"Software\"), to deal\n* in the Software without restriction, including without limitation the rights\n* to use, copy, modify, merge, publish, distribute, sublicense, and/or sell\n* copies of the Software, and to permit persons to whom the Software is\n* furnished to do so, subject to the following conditions:\n*\n* The above copyright notice and this permission notice shall be included in all\n* copies or substantial portions of the Software.\n*\n* THE SOFTWARE IS PROVIDED \"AS IS\", WITHOUT WARRANTY OF ANY KIND, EXPRESS OR\n* IMPLIED, INCLUDING BUT NOT LIMITED TO THE WARRANTIES OF MERCHANTABILITY,\n* FITNESS FOR A PARTICULAR PURPOSE AND NONINFRINGEMENT. IN NO EVENT SHALL THE\n* AUTHORS OR COPYRIGHT HOLDERS BE LIABLE FOR ANY CLAIM, DAMAGES OR OTHER\n* LIABILITY, WHETHER IN AN ACTION OF CONTRACT, TORT OR OTHERWISE, ARISING FROM,\n* OUT OF OR IN CONNECTION WITH THE SOFTWARE OR THE USE OR OTHER DEALINGS IN THE\n*/\n\nimport \"./Interfaces.sol\";\nimport \"./libraries/MathUtil.sol\";\nimport \"@openzeppelin/contracts/math/SafeMath.sol\";\nimport \"@openzeppelin/contracts/token/ERC20/IERC20.sol\";\nimport \"@openzeppelin/contracts/utils/Address.sol\";\nimport \"@openzeppelin/contracts/token/ERC20/SafeERC20.sol\";\n\ncontract VirtualBalanceWrapper {\n  using SafeMath for uint256;\n  using SafeERC20 for IERC20;\n\n  IDeposit public deposits;\n\n  function totalSupply() public view returns (uint256) {\n    return deposits.totalSupply();\n  }\n\n  function balanceOf(address account) public view returns (uint256) {\n    return deposits.balanceOf(account);\n  }\n}\n\ncontract VirtualBalanceRewardPool is VirtualBalanceWrapper {\n  using SafeERC20 for IERC20;\n\n  IERC20 public rewardToken;\n  uint256 public constant duration = 7 days;\n\n  address public operator;\n\n  uint256 public periodFinish = 0;\n  uint256 public rewardRate = 0;\n  uint256 public lastUpdateTime;\n  uint256 public rewardPerTokenStored;\n  uint256 public queuedRewards = 0;\n  uint256 public currentRewards = 0;\n  uint256 public historicalRewards = 0;\n  uint256 public newRewardRatio = 830;\n  mapping(address => uint256) public userRewardPerTokenPaid;\n  mapping(address => uint256) public rewards;\n\n  event RewardAdded(uint256 reward);\n  event Staked(address indexed user, uint256 amount);\n  event Withdrawn(address indexed user, uint256 amount);\n  event RewardPaid(address indexed user, uint256 reward);\n\n  constructor(\n    address deposit_,\n    address reward_,\n    address op_\n  ) public {\n    deposits = IDeposit(deposit_);\n    rewardToken = IERC20(reward_);\n    operator = op_;\n  }\n\n  modifier updateReward(address account) {\n    rewardPerTokenStored = rewardPerToken();\n    lastUpdateTime = lastTimeRewardApplicable();\n    if (account != address(0)) {\n      rewards[account] = earned(account);\n      userRewardPerTokenPaid[account] = rewardPerTokenStored;\n    }\n    _;\n  }\n\n  function lastTimeRewardApplicable() public view returns (uint256) {\n    return MathUtil.min(block.timestamp, periodFinish);\n  }\n\n  function rewardPerToken() public view returns (uint256) {\n    if (totalSupply() == 0) {\n      return rewardPerTokenStored;\n    }\n    return\n      rewardPerTokenStored.add(\n        lastTimeRewardApplicable().sub(lastUpdateTime).mul(rewardRate).mul(1e18).div(totalSupply())\n      );\n  }\n\n  function earned(address account) public view returns (uint256) {\n    return\n      balanceOf(account).mul(rewardPerToken().sub(userRewardPerTokenPaid[account])).div(1e18).add(\n        rewards[account]\n      );\n  }\n\n  //update reward, emit, call linked reward's stake\n  function stake(address _account, uint256 amount) external updateReward(_account) {\n    require(msg.sender == address(deposits), \"!authorized\");\n    // require(amount > 0, 'VirtualDepositRewardPool: Cannot stake 0');\n    emit Staked(_account, amount);\n  }\n\n  function withdraw(address _account, uint256 amount) public updateReward(_account) {\n    require(msg.sender == address(deposits), \"!authorized\");\n    //require(amount > 0, 'VirtualDepositRewardPool : Cannot withdraw 0');\n\n    emit Withdrawn(_account, amount);\n  }\n\n  function getReward(address _account) public updateReward(_account) {\n    uint256 reward = earned(_account);\n    if (reward > 0) {\n      rewards[_account] = 0;\n      rewardToken.safeTransfer(_account, reward);\n      emit RewardPaid(_account, reward);\n    }\n  }\n\n  function getReward() external {\n    getReward(msg.sender);\n  }\n\n  function donate(uint256 _amount) external returns (bool) {\n    IERC20(rewardToken).safeTransferFrom(msg.sender, address(this), _amount);\n    queuedRewards = queuedRewards.add(_amount);\n  }\n\n  function queueNewRewards(uint256 _rewards) external {\n    require(msg.sender == operator, \"!authorized\");\n\n    _rewards = _rewards.add(queuedRewards);\n\n    if (block.timestamp >= periodFinish) {\n      notifyRewardAmount(_rewards);\n      queuedRewards = 0;\n      return;\n    }\n\n    //et = now - (finish-duration)\n    uint256 elapsedTime = block.timestamp.sub(periodFinish.sub(duration));\n    //current at now: rewardRate * elapsedTime\n    uint256 currentAtNow = rewardRate * elapsedTime;\n    uint256 queuedRatio = currentAtNow.mul(1000).div(_rewards);\n    if (queuedRatio < newRewardRatio) {\n      notifyRewardAmount(_rewards);\n      queuedRewards = 0;\n    } else {\n      queuedRewards = _rewards;\n    }\n  }\n\n  function notifyRewardAmount(uint256 reward) internal updateReward(address(0)) {\n    historicalRewards = historicalRewards.add(reward);\n    if (block.timestamp >= periodFinish) {\n      rewardRate = reward.div(duration);\n    } else {\n      uint256 remaining = periodFinish.sub(block.timestamp);\n      uint256 leftover = remaining.mul(rewardRate);\n      reward = reward.add(leftover);\n      rewardRate = reward.div(duration);\n    }\n    currentRewards = reward;\n    lastUpdateTime = block.timestamp;\n    periodFinish = block.timestamp.add(duration);\n    emit RewardAdded(reward);\n  }\n}\n",
  "sourcePath": "/Users/linnefromice/repository/github.com/muuu-finance/muuu-protocol/contracts/contracts/VirtualBalanceRewardPool.sol",
  "compiler": {
    "name": "solc",
    "version": "0.6.12+commit.27d51765.Emscripten.clang"
  },
  "schemaVersion": "3.4.6",
  "updatedAt": "2022-03-20T12:14:21.169Z",
  "devdoc": {
    "kind": "dev",
    "methods": {},
    "version": 1
  },
  "userdoc": {
    "kind": "user",
    "methods": {},
    "version": 1
  }
}