{
  "contractName": "VoteDelegateExtension",
  "abi": [
    {
      "inputs": [],
      "stateMutability": "nonpayable",
      "type": "constructor"
    },
    {
      "inputs": [],
      "name": "booster",
      "outputs": [
        {
          "internalType": "address",
          "name": "",
          "type": "address"
        }
      ],
      "stateMutability": "view",
      "type": "function"
    },
    {
      "inputs": [],
      "name": "daoOperator",
      "outputs": [
        {
          "internalType": "address",
          "name": "",
          "type": "address"
        }
      ],
      "stateMutability": "view",
      "type": "function"
    },
    {
      "inputs": [],
      "name": "gaugeOperator",
      "outputs": [
        {
          "internalType": "address",
          "name": "",
          "type": "address"
        }
      ],
      "stateMutability": "view",
      "type": "function"
    },
    {
      "inputs": [],
      "name": "owner",
      "outputs": [
        {
          "internalType": "address",
          "name": "",
          "type": "address"
        }
      ],
      "stateMutability": "view",
      "type": "function"
    },
    {
      "inputs": [],
      "name": "voteOwnership",
      "outputs": [
        {
          "internalType": "address",
          "name": "",
          "type": "address"
        }
      ],
      "stateMutability": "view",
      "type": "function"
    },
    {
      "inputs": [],
      "name": "voteParameter",
      "outputs": [
        {
          "internalType": "address",
          "name": "",
          "type": "address"
        }
      ],
      "stateMutability": "view",
      "type": "function"
    },
    {
      "inputs": [
        {
          "internalType": "address",
          "name": "_owner",
          "type": "address"
        }
      ],
      "name": "setOwner",
      "outputs": [],
      "stateMutability": "nonpayable",
      "type": "function"
    },
    {
      "inputs": [
        {
          "internalType": "address",
          "name": "_operator",
          "type": "address"
        }
      ],
      "name": "setDaoOperator",
      "outputs": [],
      "stateMutability": "nonpayable",
      "type": "function"
    },
    {
      "inputs": [
        {
          "internalType": "address",
          "name": "_operator",
          "type": "address"
        }
      ],
      "name": "setGaugeOperator",
      "outputs": [],
      "stateMutability": "nonpayable",
      "type": "function"
    },
    {
      "inputs": [],
      "name": "revertControl",
      "outputs": [],
      "stateMutability": "nonpayable",
      "type": "function"
    },
    {
      "inputs": [
        {
          "internalType": "uint256",
          "name": "_voteId",
          "type": "uint256"
        },
        {
          "internalType": "uint256",
          "name": "_yay",
          "type": "uint256"
        },
        {
          "internalType": "uint256",
          "name": "_nay",
          "type": "uint256"
        }
      ],
      "name": "packData",
      "outputs": [
        {
          "internalType": "uint256",
          "name": "",
          "type": "uint256"
        }
      ],
      "stateMutability": "pure",
      "type": "function"
    },
    {
      "inputs": [
        {
          "internalType": "uint256",
          "name": "_voteId",
          "type": "uint256"
        },
        {
          "internalType": "uint256",
          "name": "_yay",
          "type": "uint256"
        },
        {
          "internalType": "uint256",
          "name": "_nay",
          "type": "uint256"
        },
        {
          "internalType": "bool",
          "name": "_isOwnership",
          "type": "bool"
        }
      ],
      "name": "DaoVoteWithWeights",
      "outputs": [
        {
          "internalType": "bool",
          "name": "",
          "type": "bool"
        }
      ],
      "stateMutability": "nonpayable",
      "type": "function"
    },
    {
      "inputs": [
        {
          "internalType": "uint256",
          "name": "_voteId",
          "type": "uint256"
        },
        {
          "internalType": "bool",
          "name": "_support",
          "type": "bool"
        },
        {
          "internalType": "bool",
          "name": "_isOwnership",
          "type": "bool"
        }
      ],
      "name": "DaoVote",
      "outputs": [
        {
          "internalType": "bool",
          "name": "",
          "type": "bool"
        }
      ],
      "stateMutability": "nonpayable",
      "type": "function"
    },
    {
      "inputs": [
        {
          "internalType": "address[]",
          "name": "_gauge",
          "type": "address[]"
        },
        {
          "internalType": "uint256[]",
          "name": "_weight",
          "type": "uint256[]"
        }
      ],
      "name": "GaugeVote",
      "outputs": [
        {
          "internalType": "bool",
          "name": "",
          "type": "bool"
        }
      ],
      "stateMutability": "nonpayable",
      "type": "function"
    }
  ],
  "bytecode": "0x608060405234801561001057600080fd5b506000805473a3c5a1e09150b75ff251c1a7815a07182c3de2fb6001600160a01b0319918216811783556001805483168217905560028054909216179055610be790819061005e90396000f3fe608060405234801561001057600080fd5b50600436106100ea5760003560e01c80638c9bc2081161008c578063b42eda7111610066578063b42eda71146102dd578063c33d8755146102e5578063c6def07614610316578063f7b48e961461031e576100ea565b80638c9bc208146102c55780638da5cb5b146102cd578063a386a080146102d5576100ea565b80632d1e639d116100c85780632d1e639d146101785780634b35f39e1461024e578063521be1961461027b57806364354d651461029f576100ea565b806313af4035146100ef578063156f9d8f146101175780632888fc5314610152575b600080fd5b6101156004803603602081101561010557600080fd5b50356001600160a01b0316610326565b005b6101406004803603606081101561012d57600080fd5b5080359060208101359060400135610390565b60408051918252519081900360200190f35b6101156004803603602081101561016857600080fd5b50356001600160a01b03166103c5565b61023a6004803603604081101561018e57600080fd5b8101906020810181356401000000008111156101a957600080fd5b8201836020820111156101bb57600080fd5b803590602001918460208302840111640100000000831117156101dd57600080fd5b9193909290916020810190356401000000008111156101fb57600080fd5b82018360208201111561020d57600080fd5b8035906020019184602083028401116401000000008311171561022f57600080fd5b50909250905061042f565b604080519115158252519081900360200190f35b61023a6004803603606081101561026457600080fd5b508035906020810135151590604001351515610562565b610283610681565b604080516001600160a01b039092168252519081900360200190f35b610115600480360360208110156102b557600080fd5b50356001600160a01b0316610690565b6102836106fa565b610283610709565b610283610718565b610283610730565b61023a600480360360808110156102fb57600080fd5b50803590602081013590604081013590606001351515610748565b61028361090a565b610115610922565b6000546001600160a01b0316331461036e576040805162461bcd60e51b815260206004820152600660248201526510b7bbb732b960d11b604482015290519081900360640190fd5b600080546001600160a01b0319166001600160a01b0392909216919091179055565b6000806103a08460c06000610a66565b90506103ae83608083610a66565b90506103bc85600083610a66565b95945050505050565b6000546001600160a01b0316331461040d576040805162461bcd60e51b815260206004820152600660248201526510b7bbb732b960d11b604482015290519081900360640190fd5b600280546001600160a01b0319166001600160a01b0392909216919091179055565b6002546000906001600160a01b0316331461047a576040805162461bcd60e51b81526020600480830191909152602482015263021676f760e41b604482015290519081900360640190fd5b60408051635fd6cb5d60e11b8152600481019182526044810186905273f403c135812408bfbe8713b5a23a04b3d48aae319163bfad96ba91889188918891889181906024810190606401876020880280828437600083820152601f01601f19169091018481038352858152602090810191508690860280828437600081840152601f19601f8201169050808301925050509650505050505050602060405180830381600087803b15801561052d57600080fd5b505af1158015610541573d6000803e3d6000fd5b505050506040513d602081101561055757600080fd5b505195945050505050565b6001546000906001600160a01b031633146105ad576040805162461bcd60e51b81526020600480830191909152602482015263021646f760e41b604482015290519081900360640190fd5b73f403c135812408bfbe8713b5a23a04b3d48aae3163e2cdd42a85846105e75773bcff8b0b9419b9a88c44546519b1e909cf3303996105fd565b73e478de485ad2fe566d49342cbd03e49ed7db33565b866040518463ffffffff1660e01b815260040180848152602001836001600160a01b0316815260200182151581526020019350505050602060405180830381600087803b15801561064d57600080fd5b505af1158015610661573d6000803e3d6000fd5b505050506040513d602081101561067757600080fd5b5051949350505050565b6002546001600160a01b031681565b6000546001600160a01b031633146106d8576040805162461bcd60e51b815260206004820152600660248201526510b7bbb732b960d11b604482015290519081900360640190fd5b600180546001600160a01b0319166001600160a01b0392909216919091179055565b6001546001600160a01b031681565b6000546001600160a01b031681565b73e478de485ad2fe566d49342cbd03e49ed7db335681565b73bcff8b0b9419b9a88c44546519b1e909cf33039981565b6001546000906001600160a01b03163314610793576040805162461bcd60e51b81526020600480830191909152602482015263021646f760e41b604482015290519081900360640190fd5b6107b16127106107ab86670de0b6b3a7640000610a6d565b90610acf565b93506107cb6127106107ab85670de0b6b3a7640000610a6d565b9250670de0b6b3a76400006107e08585610b36565b14610824576040805162461bcd60e51b815260206004820152600f60248201526e21657175616c206d61785f766f746560881b604482015290519081900360640190fd5b6000610831868686610390565b905073f403c135812408bfbe8713b5a23a04b3d48aae3163e2cdd42a828561086d5773bcff8b0b9419b9a88c44546519b1e909cf330399610883565b73e478de485ad2fe566d49342cbd03e49ed7db33565b60006040518463ffffffff1660e01b815260040180848152602001836001600160a01b0316815260200182151581526020019350505050602060405180830381600087803b1580156108d457600080fd5b505af11580156108e8573d6000803e3d6000fd5b505050506040513d60208110156108fe57600080fd5b50519695505050505050565b73f403c135812408bfbe8713b5a23a04b3d48aae3181565b6000546001600160a01b0316331461096a576040805162461bcd60e51b815260206004820152600660248201526510b7bbb732b960d11b604482015290519081900360640190fd5b73f403c135812408bfbe8713b5a23a04b3d48aae316001600160a01b0316637487432373f403c135812408bfbe8713b5a23a04b3d48aae316001600160a01b0316638da5cb5b6040518163ffffffff1660e01b815260040160206040518083038186803b1580156109da57600080fd5b505afa1580156109ee573d6000803e3d6000fd5b505050506040513d6020811015610a0457600080fd5b5051604080516001600160e01b031960e085901b1681526001600160a01b03909216600483015251602480830192600092919082900301818387803b158015610a4c57600080fd5b505af1158015610a60573d6000803e3d6000fd5b50505050565b91901b1790565b600082610a7c57506000610ac9565b82820282848281610a8957fe5b0414610ac65760405162461bcd60e51b8152600401808060200182810382526021815260200180610b916021913960400191505060405180910390fd5b90505b92915050565b6000808211610b25576040805162461bcd60e51b815260206004820152601a60248201527f536166654d6174683a206469766973696f6e206279207a65726f000000000000604482015290519081900360640190fd5b818381610b2e57fe5b049392505050565b600082820183811015610ac6576040805162461bcd60e51b815260206004820152601b60248201527f536166654d6174683a206164646974696f6e206f766572666c6f770000000000604482015290519081900360640190fdfe536166654d6174683a206d756c7469706c69636174696f6e206f766572666c6f77a2646970667358221220c6d2632719468754b191d60f05476f3b6b35452540fd7a6e4e75b0f01b401ab464736f6c634300060c0033",
  "immutableReferences": {},
  "source": "// SPDX-License-Identifier: MIT\npragma solidity 0.6.12;\n\nimport \"./interfaces/IBooster.sol\";\nimport \"@openzeppelin/contracts/math/SafeMath.sol\";\n\n/*\nAdd a layer to voting to easily apply data packing into vote id, as well as simplify calling functions\n*/\ncontract VoteDelegateExtension {\n  using SafeMath for uint256;\n\n  address public constant voteOwnership = address(0xE478de485ad2fe566d49342Cbd03E49ed7DB3356);\n  address public constant voteParameter = address(0xBCfF8B0b9419b9A88c44546519b1e909cF330399);\n  address public constant booster = address(0xF403C135812408BFbE8713b5A23a04b3D48AAE31);\n\n  uint256 private constant MAX_UINT_128 = (2**128) - 1;\n  uint256 private constant MAX_UINT_64 = (2**64) - 1;\n  uint256 private constant MAX_VOTE = 1e18;\n\n  address public owner;\n  address public daoOperator;\n  address public gaugeOperator;\n\n  constructor() public {\n    //default to multisig\n    owner = address(0xa3C5A1e09150B75ff251c1a7815A07182c3de2FB);\n    daoOperator = address(0xa3C5A1e09150B75ff251c1a7815A07182c3de2FB);\n    gaugeOperator = address(0xa3C5A1e09150B75ff251c1a7815A07182c3de2FB);\n  }\n\n  modifier onlyOwner() {\n    require(owner == msg.sender, \"!owner\");\n    _;\n  }\n\n  modifier onlyDaoOperator() {\n    require(daoOperator == msg.sender, \"!dop\");\n    _;\n  }\n\n  modifier onlyGaugeOperator() {\n    require(gaugeOperator == msg.sender, \"!gop\");\n    _;\n  }\n\n  //set owner - only OWNER\n  function setOwner(address _owner) external onlyOwner {\n    owner = _owner;\n  }\n\n  //set operator - only OWNER\n  function setDaoOperator(address _operator) external onlyOwner {\n    daoOperator = _operator;\n  }\n\n  function setGaugeOperator(address _operator) external onlyOwner {\n    gaugeOperator = _operator;\n  }\n\n  //revert to booster's owner\n  function revertControl() external onlyOwner {\n    IBooster(booster).setVoteDelegate(IBooster(booster).owner());\n  }\n\n  //pack data by shifting and ORing\n  function _encodeData(\n    uint256 _value,\n    uint256 _shiftValue,\n    uint256 _base\n  ) internal pure returns (uint256) {\n    return uint256((_value << _shiftValue) | _base);\n  }\n\n  function packData(\n    uint256 _voteId,\n    uint256 _yay,\n    uint256 _nay\n  ) public pure returns (uint256) {\n    uint256 pack = _encodeData(_yay, 192, 0);\n    pack = _encodeData(_nay, 128, pack);\n    pack = _encodeData(_voteId, 0, pack);\n    return pack;\n  }\n\n  //Submit a DAO vote (with weights)\n  function DaoVoteWithWeights(\n    uint256 _voteId,\n    uint256 _yay,\n    uint256 _nay,\n    bool _isOwnership\n  ) external onlyDaoOperator returns (bool) {\n    //convert 10,000 to 1e18\n    _yay = _yay.mul(1e18).div(10000);\n    _nay = _nay.mul(1e18).div(10000);\n    require(_yay.add(_nay) == MAX_VOTE, \"!equal max_vote\");\n\n    uint256 data = packData(_voteId, _yay, _nay);\n\n    //vote with enocded vote id.  \"supported\" needs to be false if doing this type\n    return IBooster(booster).vote(data, _isOwnership ? voteOwnership : voteParameter, false);\n  }\n\n  //Submit a DAO vote\n  function DaoVote(\n    uint256 _voteId,\n    bool _support,\n    bool _isOwnership\n  ) external onlyDaoOperator returns (bool) {\n    //vote with full voting power on either choice\n    return IBooster(booster).vote(_voteId, _isOwnership ? voteOwnership : voteParameter, _support);\n  }\n\n  //Submit Gauge Weights\n  function GaugeVote(address[] calldata _gauge, uint256[] calldata _weight)\n    external\n    onlyGaugeOperator\n    returns (bool)\n  {\n    //vote for gauge weights\n    return IBooster(booster).voteGaugeWeight(_gauge, _weight);\n  }\n}\n",
  "sourcePath": "/Users/shuto/Documents/bridges-dev/muuu/protocol/contracts/contracts/VoteDelegateExtension.sol",
  "compiler": {
    "name": "solc",
    "version": "0.6.12+commit.27d51765.Emscripten.clang"
  },
  "schemaVersion": "3.4.6",
  "updatedAt": "2022-04-04T03:30:07.385Z",
  "devdoc": {
    "kind": "dev",
    "methods": {},
    "version": 1
  },
  "userdoc": {
    "kind": "user",
    "methods": {},
    "version": 1
  }
}