{
  "contractName": "VotingBalanceV2Gauges",
  "abi": [
    {
      "inputs": [
        {
          "internalType": "address",
          "name": "_locker",
          "type": "address"
        }
      ],
      "stateMutability": "nonpayable",
      "type": "constructor"
    },
    {
      "inputs": [],
      "name": "locker",
      "outputs": [
        {
          "internalType": "address",
          "name": "",
          "type": "address"
        }
      ],
      "stateMutability": "view",
      "type": "function"
    },
    {
      "inputs": [],
      "name": "rewardsDuration",
      "outputs": [
        {
          "internalType": "uint256",
          "name": "",
          "type": "uint256"
        }
      ],
      "stateMutability": "view",
      "type": "function"
    },
    {
      "inputs": [
        {
          "internalType": "address",
          "name": "_account",
          "type": "address"
        }
      ],
      "name": "balanceOf",
      "outputs": [
        {
          "internalType": "uint256",
          "name": "",
          "type": "uint256"
        }
      ],
      "stateMutability": "view",
      "type": "function"
    },
    {
      "inputs": [],
      "name": "totalSupply",
      "outputs": [
        {
          "internalType": "uint256",
          "name": "",
          "type": "uint256"
        }
      ],
      "stateMutability": "view",
      "type": "function"
    }
  ],
  "bytecode": "0x60a060405234801561001057600080fd5b5060405161066838038061066883398101604081905261002f91610044565b60601b6001600160601b031916608052610072565b600060208284031215610055578081fd5b81516001600160a01b038116811461006b578182fd5b9392505050565b60805160601c6105bc6100ac6000398060a3528061015152806101e752806102af528061036552806103f2528061049e52506105bc6000f3fe608060405234801561001057600080fd5b506004361061004c5760003560e01c806318160ddd14610051578063386a95251461006f57806370a0823114610077578063d7b96d4e1461008a575b600080fd5b61005961009f565b6040516100669190610566565b60405180910390f35b610059610137565b6100596100853660046104c0565b61013e565b61009261049c565b6040516100669190610552565b60007f00000000000000000000000000000000000000000000000000000000000000006001600160a01b03166318160ddd6040518163ffffffff1660e01b815260040160206040518083038186803b1580156100fa57600080fd5b505afa15801561010e573d6000803e3d6000fd5b505050506040513d601f19601f82011682018060405250810190610132919061053a565b905090565b62093a8081565b60008062093a80804204029050600060017f00000000000000000000000000000000000000000000000000000000000000006001600160a01b031663829965cc6040518163ffffffff1660e01b815260040160206040518083038186803b1580156101a857600080fd5b505afa1580156101bc573d6000803e3d6000fd5b505050506040513d601f19601f820116820180604052508101906101e0919061053a565b03905060007f00000000000000000000000000000000000000000000000000000000000000006001600160a01b031663c6b61e4c836040518263ffffffff1660e01b81526004016102319190610566565b604080518083038186803b15801561024857600080fd5b505afa15801561025c573d6000803e3d6000fd5b505050506040513d601f19601f8201168201806040525081019061028091906104ee565b915050828163ffffffff161061029857600019909101905b6040516331ad879360e21b81526001600160a01b037f0000000000000000000000000000000000000000000000000000000000000000169063c6b61e4c906102e4908590600401610566565b604080518083038186803b1580156102fb57600080fd5b505afa15801561030f573d6000803e3d6000fd5b505050506040513d601f19601f8201168201806040525081019061033391906104ee565b91505063ffffffff8116831161034b57600019909101905b604051631c60739560e01b81526000906001600160a01b037f00000000000000000000000000000000000000000000000000000000000000001690631c6073959061039c9086908a9060040161056f565b60206040518083038186803b1580156103b457600080fd5b505afa1580156103c8573d6000803e3d6000fd5b505050506040513d601f19601f820116820180604052508101906103ec919061053a565b905060007f00000000000000000000000000000000000000000000000000000000000000006001600160a01b031663cb1b9a7485896040518363ffffffff1660e01b815260040161043e92919061056f565b60206040518083038186803b15801561045657600080fd5b505afa15801561046a573d6000803e3d6000fd5b505050506040513d601f19601f8201168201806040525081019061048e919061053a565b919091019695505050505050565b7f000000000000000000000000000000000000000000000000000000000000000081565b6000602082840312156104d1578081fd5b81356001600160a01b03811681146104e7578182fd5b9392505050565b60008060408385031215610500578081fd5b82516001600160e01b0381168114610516578182fd5b602084015190925063ffffffff8116811461052f578182fd5b809150509250929050565b60006020828403121561054b578081fd5b5051919050565b6001600160a01b0391909116815260200190565b90815260200190565b9182526001600160a01b031660208201526040019056fea2646970667358221220d2129ed0a2369e0774b3ce844e4ef67182a7a27cf89c4b22835217ab1ed32fdf64736f6c634300060c0033",
  "immutableReferences": {
    "13973": [
      {
        "length": 32,
        "start": 163
      },
      {
        "length": 32,
        "start": 337
      },
      {
        "length": 32,
        "start": 487
      },
      {
        "length": 32,
        "start": 687
      },
      {
        "length": 32,
        "start": 869
      },
      {
        "length": 32,
        "start": 1010
      },
      {
        "length": 32,
        "start": 1182
      }
    ]
  },
  "source": "// SPDX-License-Identifier: MIT\npragma solidity 0.6.12;\npragma experimental ABIEncoderV2;\n\nimport \"./interfaces/ILockedMuuu.sol\";\n\ncontract VotingBalanceV2Gauges {\n  address public immutable locker;\n  uint256 public constant rewardsDuration = 86400 * 7;\n\n  constructor(\n    address _locker\n  ) public {\n    locker = _locker;\n  }\n\n  function balanceOf(address _account) external view returns (uint256) {\n    //compute to find previous epoch\n    uint256 currentEpoch = (block.timestamp / rewardsDuration) * rewardsDuration;\n    uint256 epochindex = ILockedMuuu(locker).epochCount() - 1;\n\n    //there may or may not have been a checkpoint in the new epoch\n    //thus get date of latest epoch and compare to block.timestamp\n    //if epoch.date >= current epoch then there was a checkpoint and need to move index back to get prev\n    (, uint32 _date) = ILockedMuuu(locker).epochs(epochindex);\n    if (_date >= currentEpoch) {\n      //if end date is already the current epoch,  minus 1 to get the previous\n      epochindex--;\n    }\n\n    //check again because new locker has an extra epoch for the following week\n    // note: the epochindex-- above can not be -= 2 because there may have been 0 locks for a given week\n    //       thus best to check one at a time\n    // length -1 = next\n    // length -2 = current\n    // length -3 = previous\n    (, _date) = ILockedMuuu(locker).epochs(epochindex);\n    if (_date >= currentEpoch) {\n      //if end date is already the current epoch,  minus 1 to get the previous\n      epochindex--;\n    }\n\n    //get balances of previous epoch\n    uint256 balanceAtPrev = ILockedMuuu(locker).balanceAtEpochOf(epochindex, _account);\n\n    //get pending\n    uint256 pending = ILockedMuuu(locker).pendingLockAtEpochOf(epochindex, _account);\n\n    return balanceAtPrev + pending;\n  }\n\n  function totalSupply() external view returns (uint256) {\n    return ILockedMuuu(locker).totalSupply();\n  }\n}\n",
  "sourcePath": "/Users/shuto/Documents/bridges-dev/muuu/protocol/contracts/contracts/VotingBalanceV2Gauges.sol",
  "compiler": {
    "name": "solc",
    "version": "0.6.12+commit.27d51765.Emscripten.clang"
  },
  "schemaVersion": "3.4.6",
  "updatedAt": "2022-04-25T07:58:50.544Z",
  "devdoc": {
    "kind": "dev",
    "methods": {},
    "version": 1
  },
  "userdoc": {
    "kind": "user",
    "methods": {},
    "version": 1
  }
}