{
  "contractName": "VotingBalanceV2Gauges",
  "abi": [
    {
      "inputs": [],
      "stateMutability": "nonpayable",
      "type": "constructor"
    },
    {
      "inputs": [],
      "name": "UseOldLocker",
      "outputs": [
        {
          "internalType": "bool",
          "name": "",
          "type": "bool"
        }
      ],
      "stateMutability": "view",
      "type": "function"
    },
    {
      "inputs": [],
      "name": "lockDuration",
      "outputs": [
        {
          "internalType": "uint256",
          "name": "",
          "type": "uint256"
        }
      ],
      "stateMutability": "view",
      "type": "function"
    },
    {
      "inputs": [],
      "name": "locker",
      "outputs": [
        {
          "internalType": "address",
          "name": "",
          "type": "address"
        }
      ],
      "stateMutability": "view",
      "type": "function"
    },
    {
      "inputs": [],
      "name": "oldlocker",
      "outputs": [
        {
          "internalType": "address",
          "name": "",
          "type": "address"
        }
      ],
      "stateMutability": "view",
      "type": "function"
    },
    {
      "inputs": [],
      "name": "owner",
      "outputs": [
        {
          "internalType": "address",
          "name": "",
          "type": "address"
        }
      ],
      "stateMutability": "view",
      "type": "function"
    },
    {
      "inputs": [],
      "name": "rewardsDuration",
      "outputs": [
        {
          "internalType": "uint256",
          "name": "",
          "type": "uint256"
        }
      ],
      "stateMutability": "view",
      "type": "function"
    },
    {
      "inputs": [
        {
          "internalType": "bool",
          "name": "_use",
          "type": "bool"
        }
      ],
      "name": "setUseOldLocker",
      "outputs": [],
      "stateMutability": "nonpayable",
      "type": "function"
    },
    {
      "inputs": [
        {
          "internalType": "address",
          "name": "_account",
          "type": "address"
        }
      ],
      "name": "balanceOf",
      "outputs": [
        {
          "internalType": "uint256",
          "name": "",
          "type": "uint256"
        }
      ],
      "stateMutability": "view",
      "type": "function"
    },
    {
      "inputs": [],
      "name": "totalSupply",
      "outputs": [
        {
          "internalType": "uint256",
          "name": "",
          "type": "uint256"
        }
      ],
      "stateMutability": "view",
      "type": "function"
    }
  ],
  "bytecode": "0x60806040526000805460ff1916600117905534801561001d57600080fd5b506109048061002d6000396000f3fe608060405234801561001057600080fd5b50600436106100935760003560e01c8063765887b211610066578063765887b2146100d957806389ce8c1f146100ee5780638da5cb5b14610103578063a1a991f91461010b578063d7b96d4e1461012057610093565b8063045544431461009857806318160ddd146100b6578063386a9525146100be57806370a08231146100c6575b600080fd5b6100a0610128565b6040516100ad91906108ae565b60405180910390f35b6100a061012f565b6100a06101bb565b6100a06100d43660046107be565b6101c2565b6100e161071e565b6040516100ad9190610870565b6100f6610736565b6040516100ad9190610884565b6100e161073f565b61011e6101193660046107ec565b610757565b005b6100e16107a6565b629ce28081565b60007372a19342e8f1838460ebfccef09f6585e32db86e6001600160a01b03166318160ddd6040518163ffffffff1660e01b815260040160206040518083038186803b15801561017e57600080fd5b505afa158015610192573d6000803e3d6000fd5b505050506040513d601f19601f820116820180604052508101906101b69190610858565b905090565b62093a8081565b60008062093a80804204029050600060017372a19342e8f1838460ebfccef09f6585e32db86e6001600160a01b031663829965cc6040518163ffffffff1660e01b815260040160206040518083038186803b15801561022057600080fd5b505afa158015610234573d6000803e3d6000fd5b505050506040513d601f19601f820116820180604052508101906102589190610858565b6040516331ad879360e21b815291900391506000907372a19342e8f1838460ebfccef09f6585e32db86e9063c6b61e4c906102979085906004016108ae565b604080518083038186803b1580156102ae57600080fd5b505afa1580156102c2573d6000803e3d6000fd5b505050506040513d601f19601f820116820180604052508101906102e6919061080c565b915050828163ffffffff16106102fe57600019909101905b6040516331ad879360e21b81527372a19342e8f1838460ebfccef09f6585e32db86e9063c6b61e4c906103359085906004016108ae565b604080518083038186803b15801561034c57600080fd5b505afa158015610360573d6000803e3d6000fd5b505050506040513d601f19601f82011682018060405250810190610384919061080c565b91505063ffffffff8116831161039c57600019909101905b604051631c60739560e01b81526000907372a19342e8f1838460ebfccef09f6585e32db86e90631c607395906103d89086908a906004016108b7565b60206040518083038186803b1580156103f057600080fd5b505afa158015610404573d6000803e3d6000fd5b505050506040513d601f19601f820116820180604052508101906104289190610858565b6040516332c6e69d60e21b81529091506000907372a19342e8f1838460ebfccef09f6585e32db86e9063cb1b9a74906104679087908b906004016108b7565b60206040518083038186803b15801561047f57600080fd5b505afa158015610493573d6000803e3d6000fd5b505050506040513d601f19601f820116820180604052508101906104b79190610858565b60005490915060ff161561071457604051632c9aab9b60e11b815260009073d18140b4b819b895a3dba5442f959fa44994af50906359355736906104ff908b90600401610870565b60206040518083038186803b15801561051757600080fd5b505afa15801561052b573d6000803e3d6000fd5b505050506040513d601f19601f8201168201806040525081019061054f9190610858565b1115610714576000600173d18140b4b819b895a3dba5442f959fa44994af506001600160a01b031663829965cc6040518163ffffffff1660e01b815260040160206040518083038186803b1580156105a657600080fd5b505afa1580156105ba573d6000803e3d6000fd5b505050506040513d601f19601f820116820180604052508101906105de9190610858565b6040516331ad879360e21b8152919003915060009073d18140b4b819b895a3dba5442f959fa44994af509063c6b61e4c9061061d9085906004016108ae565b604080518083038186803b15801561063457600080fd5b505afa158015610648573d6000803e3d6000fd5b505050506040513d601f19601f8201168201806040525081019061066c919061080c565b915050868163ffffffff161061068457600019909101905b604051631c60739560e01b815273d18140b4b819b895a3dba5442f959fa44994af5090631c607395906106bd9085908d906004016108b7565b60206040518083038186803b1580156106d557600080fd5b505afa1580156106e9573d6000803e3d6000fd5b505050506040513d601f19601f8201168201806040525081019061070d9190610858565b8301925050505b0195945050505050565b73d18140b4b819b895a3dba5442f959fa44994af5081565b60005460ff1681565b73a3c5a1e09150b75ff251c1a7815a07182c3de2fb81565b3373a3c5a1e09150b75ff251c1a7815a07182c3de2fb146107935760405162461bcd60e51b815260040161078a9061088f565b60405180910390fd5b6000805460ff1916911515919091179055565b7372a19342e8f1838460ebfccef09f6585e32db86e81565b6000602082840312156107cf578081fd5b81356001600160a01b03811681146107e5578182fd5b9392505050565b6000602082840312156107fd578081fd5b813580151581146107e5578182fd5b6000806040838503121561081e578081fd5b82516001600160e01b0381168114610834578182fd5b602084015190925063ffffffff8116811461084d578182fd5b809150509250929050565b600060208284031215610869578081fd5b5051919050565b6001600160a01b0391909116815260200190565b901515815260200190565b602080825260059082015264042c2eae8d60db1b604082015260600190565b90815260200190565b9182526001600160a01b031660208201526040019056fea2646970667358221220d6e3c63d1fa65b17d088c27ae7c37e208e2e2f419e2e93197e9ec94529cb454864736f6c634300060c0033",
  "immutableReferences": {},
  "source": "// SPDX-License-Identifier: MIT\npragma solidity 0.6.12;\npragma experimental ABIEncoderV2;\n\nimport \"./interfaces/ILockedMuuu.sol\";\n\ncontract VotingBalanceV2Gauges {\n  address public constant oldlocker = address(0xD18140b4B819b895A3dba5442F959fA44994AF50);\n  address public constant locker = address(0x72a19342e8F1838460eBFCCEf09F6585e32db86E);\n  uint256 public constant rewardsDuration = 86400 * 7;\n  uint256 public constant lockDuration = rewardsDuration * 17;\n\n  bool public UseOldLocker = true;\n  address public constant owner = address(0xa3C5A1e09150B75ff251c1a7815A07182c3de2FB);\n\n  constructor() public {}\n\n  function setUseOldLocker(bool _use) external {\n    require(msg.sender == owner, \"!auth\");\n\n    UseOldLocker = _use;\n  }\n\n  function balanceOf(address _account) external view returns (uint256) {\n    //compute to find previous epoch\n    uint256 currentEpoch = (block.timestamp / rewardsDuration) * rewardsDuration;\n    uint256 epochindex = ILockedMuuu(locker).epochCount() - 1;\n\n    //there may or may not have been a checkpoint in the new epoch\n    //thus get date of latest epoch and compare to block.timestamp\n    //if epoch.date >= current epoch then there was a checkpoint and need to move index back to get prev\n    (, uint32 _date) = ILockedMuuu(locker).epochs(epochindex);\n    if (_date >= currentEpoch) {\n      //if end date is already the current epoch,  minus 1 to get the previous\n      epochindex--;\n    }\n\n    //check again because new locker has an extra epoch for the following week\n    // note: the epochindex-- above can not be -= 2 because there may have been 0 locks for a given week\n    //       thus best to check one at a time\n    // length -1 = next\n    // length -2 = current\n    // length -3 = previous\n    (, _date) = ILockedMuuu(locker).epochs(epochindex);\n    if (_date >= currentEpoch) {\n      //if end date is already the current epoch,  minus 1 to get the previous\n      epochindex--;\n    }\n\n    //get balances of previous epoch\n    uint256 balanceAtPrev = ILockedMuuu(locker).balanceAtEpochOf(epochindex, _account);\n\n    //get pending\n    uint256 pending = ILockedMuuu(locker).pendingLockAtEpochOf(epochindex, _account);\n\n    //if using old locker for grace period\n    if (UseOldLocker) {\n      //check if tokens have not been withdrawn yet\n      if (ILockedMuuu(oldlocker).lockedBalanceOf(_account) > 0) {\n        uint256 eindex = ILockedMuuu(oldlocker).epochCount() - 1;\n        (, uint32 _edate) = ILockedMuuu(oldlocker).epochs(eindex);\n        if (_edate >= currentEpoch) {\n          //if end date is already the current epoch,  minus 1 to get the previous\n          eindex--;\n        }\n        //add to current balance\n        pending += ILockedMuuu(oldlocker).balanceAtEpochOf(eindex, _account);\n      }\n    }\n\n    return balanceAtPrev + pending;\n  }\n\n  function totalSupply() external view returns (uint256) {\n    return ILockedMuuu(locker).totalSupply();\n  }\n}\n",
  "sourcePath": "/Users/linnefromice/repository/github.com/muuu-finance/muuu-protocol/contracts/contracts/VotingBalanceV2Gauges.sol",
  "compiler": {
    "name": "solc",
    "version": "0.6.12+commit.27d51765.Emscripten.clang"
  },
  "schemaVersion": "3.4.6",
  "updatedAt": "2022-03-16T12:46:39.350Z",
  "devdoc": {
    "kind": "dev",
    "methods": {},
    "version": 1
  },
  "userdoc": {
    "kind": "user",
    "methods": {},
    "version": 1
  }
}