{
  "contractName": "VotingBalanceMax",
  "abi": [
    {
      "inputs": [
        {
          "internalType": "address",
          "name": "_eligiblelist",
          "type": "address"
        }
      ],
      "stateMutability": "nonpayable",
      "type": "constructor"
    },
    {
      "inputs": [],
      "name": "eligiblelist",
      "outputs": [
        {
          "internalType": "address",
          "name": "",
          "type": "address"
        }
      ],
      "stateMutability": "view",
      "type": "function"
    },
    {
      "inputs": [],
      "name": "lockDuration",
      "outputs": [
        {
          "internalType": "uint256",
          "name": "",
          "type": "uint256"
        }
      ],
      "stateMutability": "view",
      "type": "function"
    },
    {
      "inputs": [],
      "name": "locker",
      "outputs": [
        {
          "internalType": "address",
          "name": "",
          "type": "address"
        }
      ],
      "stateMutability": "view",
      "type": "function"
    },
    {
      "inputs": [],
      "name": "rewardsDuration",
      "outputs": [
        {
          "internalType": "uint256",
          "name": "",
          "type": "uint256"
        }
      ],
      "stateMutability": "view",
      "type": "function"
    },
    {
      "inputs": [
        {
          "internalType": "address",
          "name": "_account",
          "type": "address"
        }
      ],
      "name": "balanceOf",
      "outputs": [
        {
          "internalType": "uint256",
          "name": "",
          "type": "uint256"
        }
      ],
      "stateMutability": "view",
      "type": "function"
    },
    {
      "inputs": [
        {
          "internalType": "address",
          "name": "_account",
          "type": "address"
        }
      ],
      "name": "pendingBalanceOf",
      "outputs": [
        {
          "internalType": "uint256",
          "name": "",
          "type": "uint256"
        }
      ],
      "stateMutability": "view",
      "type": "function"
    },
    {
      "inputs": [],
      "name": "totalSupply",
      "outputs": [
        {
          "internalType": "uint256",
          "name": "",
          "type": "uint256"
        }
      ],
      "stateMutability": "view",
      "type": "function"
    }
  ],
  "bytecode": "0x60a060405234801561001057600080fd5b50604051610b26380380610b2683398101604081905261002f91610044565b60601b6001600160601b031916608052610072565b600060208284031215610055578081fd5b81516001600160a01b038116811461006b578182fd5b9392505050565b60805160601c610a8d610099600039806101a7528061036b52806106895250610a8d6000f3fe608060405234801561001057600080fd5b506004361061007d5760003560e01c806359b8c7631161005b57806359b8c763146100b057806370a08231146100c3578063d7b96d4e146100d6578063fad26719146100eb5761007d565b8063045544431461008257806318160ddd146100a0578063386a9525146100a8575b600080fd5b61008a6100f3565b6040516100979190610a10565b60405180910390f35b61008a6100fa565b61008a610186565b61008a6100be3660046107d9565b61018d565b61008a6100d13660046107d9565b610351565b6100de61066f565b604051610097919061094d565b6100de610687565b629ce28081565b600073d18140b4b819b895a3dba5442f959fa44994af506001600160a01b03166318160ddd6040518163ffffffff1660e01b815260040160206040518083038186803b15801561014957600080fd5b505afa15801561015d573d6000803e3d6000fd5b505050506040513d601f19601f82011682018060405250810190610181919061086c565b905090565b62093a8081565b6040516366e305fd60e01b81526000906001600160a01b037f000000000000000000000000000000000000000000000000000000000000000016906366e305fd906101dc90859060040161094d565b60206040518083038186803b1580156101f457600080fd5b505afa158015610208573d6000803e3d6000fd5b505050506040513d601f19601f8201168201806040525081019061022c9190610800565b6102385750600061034c565b600061025e629ce28061025862093a8061025242826106ab565b906106e8565b90610729565b604051630241d3fb60e11b815290915060609073d18140b4b819b895a3dba5442f959fa44994af5090630483a7f69061029b90879060040161094d565b60006040518083038186803b1580156102b357600080fd5b505afa1580156102c7573d6000803e3d6000fd5b505050506040513d6000823e601f3d908101601f191682016040526102ef9190810190610884565b93505050506000828260018451038151811061030757fe5b60200260200101516040015163ffffffff161415610347578160018351038151811061032f57fe5b6020026020010151602001516001600160701b031690505b925050505b919050565b6040516366e305fd60e01b81526000906001600160a01b037f000000000000000000000000000000000000000000000000000000000000000016906366e305fd906103a090859060040161094d565b60206040518083038186803b1580156103b857600080fd5b505afa1580156103cc573d6000803e3d6000fd5b505050506040513d601f19601f820116820180604052508101906103f09190610800565b6103fc5750600061034c565b600061040f62093a8061025242826106ab565b90506000600173d18140b4b819b895a3dba5442f959fa44994af506001600160a01b031663829965cc6040518163ffffffff1660e01b815260040160206040518083038186803b15801561046257600080fd5b505afa158015610476573d6000803e3d6000fd5b505050506040513d601f19601f8201168201806040525081019061049a919061086c565b6040516331ad879360e21b8152919003915060009073d18140b4b819b895a3dba5442f959fa44994af509063c6b61e4c906104d9908590600401610a10565b604080518083038186803b1580156104f057600080fd5b505afa158015610504573d6000803e3d6000fd5b505050506040513d601f19601f820116820180604052508101906105289190610820565b915050828163ffffffff161061053f576001820391505b604051631c60739560e01b815260009073d18140b4b819b895a3dba5442f959fa44994af5090631c6073959061057b9086908a90600401610a19565b60206040518083038186803b15801561059357600080fd5b505afa1580156105a7573d6000803e3d6000fd5b505050506040513d601f19601f820116820180604052508101906105cb919061086c565b6040516370a0823160e01b815290915060009073d18140b4b819b895a3dba5442f959fa44994af50906370a0823190610608908a9060040161094d565b60206040518083038186803b15801561062057600080fd5b505afa158015610634573d6000803e3d6000fd5b505050506040513d601f19601f82011682018060405250810190610658919061086c565b9050610664828261074e565b979650505050505050565b73d18140b4b819b895a3dba5442f959fa44994af5081565b7f000000000000000000000000000000000000000000000000000000000000000081565b60008082116106d55760405162461bcd60e51b81526004016106cc90610998565b60405180910390fd5b8183816106de57fe5b0490505b92915050565b6000826106f7575060006106e2565b8282028284828161070457fe5b04146107225760405162461bcd60e51b81526004016106cc906109cf565b9392505050565b6000828201838110156107225760405162461bcd60e51b81526004016106cc90610961565b60008183101561075e5781610722565b5090919050565b600060608284031215610776578081fd5b6107806060610a30565b905061078c83836107c2565b815261079b83602084016107c2565b6020820152604082015163ffffffff811681146107b757600080fd5b604082015292915050565b80516001600160701b03811681146106e257600080fd5b6000602082840312156107ea578081fd5b81356001600160a01b0381168114610722578182fd5b600060208284031215610811578081fd5b81518015158114610722578182fd5b60008060408385031215610832578081fd5b82516001600160e01b0381168114610848578182fd5b602084015190925063ffffffff81168114610861578182fd5b809150509250929050565b60006020828403121561087d578081fd5b5051919050565b60008060008060808587031215610899578182fd5b8451935060208086015193506040860151925060608087015167ffffffffffffffff808211156108c7578485fd5b818901915089601f8301126108da578485fd5b8151818111156108e8578586fd5b6108f58586830201610a30565b8181528581019250838601858302850187018d1015610912578788fd5b8794505b8285101561093c576109288d82610765565b845260019490940193928601928501610916565b50989b979a50959850505050505050565b6001600160a01b0391909116815260200190565b6020808252601b908201527f536166654d6174683a206164646974696f6e206f766572666c6f770000000000604082015260600190565b6020808252601a908201527f536166654d6174683a206469766973696f6e206279207a65726f000000000000604082015260600190565b60208082526021908201527f536166654d6174683a206d756c7469706c69636174696f6e206f766572666c6f6040820152607760f81b606082015260800190565b90815260200190565b9182526001600160a01b0316602082015260400190565b60405181810167ffffffffffffffff81118282101715610a4f57600080fd5b60405291905056fea2646970667358221220efaf64f3b596845b6942be7b46834a8ca71a2963d5a324b47bc9a2ff0ca9644b64736f6c634300060c0033",
  "immutableReferences": {
    "27398": [
      {
        "length": 32,
        "start": 423
      },
      {
        "length": 32,
        "start": 875
      },
      {
        "length": 32,
        "start": 1673
      }
    ]
  },
  "source": "// SPDX-License-Identifier: MIT\npragma solidity 0.6.12;\npragma experimental ABIEncoderV2;\n\nimport \"./interfaces/ILockedMuuu.sol\";\nimport \"./interfaces/IVotingEligibility.sol\";\nimport \"@openzeppelin/contracts/math/SafeMath.sol\";\n\ncontract VotingBalanceMax {\n  using SafeMath for uint256;\n\n  address public constant locker = address(0xD18140b4B819b895A3dba5442F959fA44994AF50);\n  address public immutable eligiblelist;\n  uint256 public constant rewardsDuration = 86400 * 7;\n  uint256 public constant lockDuration = rewardsDuration * 17;\n\n  constructor(address _eligiblelist) public {\n    eligiblelist = _eligiblelist;\n  }\n\n  function balanceOf(address _account) external view returns (uint256) {\n    //check eligibility list\n    if (!IVotingEligibility(eligiblelist).isEligible(_account)) {\n      return 0;\n    }\n\n    //compute to find previous epoch\n    uint256 currentEpoch = block.timestamp.div(rewardsDuration).mul(rewardsDuration);\n    uint256 epochindex = ILockedMuuu(locker).epochCount() - 1;\n    (, uint32 _enddate) = ILockedMuuu(locker).epochs(epochindex);\n    if (_enddate >= currentEpoch) {\n      //if end date is already the current epoch,  minus 1 to get the previous\n      epochindex -= 1;\n    }\n    //get balances of current and previous\n    uint256 balanceAtPrev = ILockedMuuu(locker).balanceAtEpochOf(epochindex, _account);\n    uint256 currentBalance = ILockedMuuu(locker).balanceOf(_account);\n\n    //return greater balance\n    return max(balanceAtPrev, currentBalance);\n  }\n\n  function pendingBalanceOf(address _account) external view returns (uint256) {\n    //check eligibility list\n    if (!IVotingEligibility(eligiblelist).isEligible(_account)) {\n      return 0;\n    }\n\n    //determine when current epoch would end\n    uint256 currentEpochUnlock = block.timestamp.div(rewardsDuration).mul(rewardsDuration).add(\n      lockDuration\n    );\n\n    //grab account lock list\n    (, , , ILockedMuuu.LockedBalance[] memory balances) = ILockedMuuu(locker).lockedBalances(\n      _account\n    );\n\n    //if most recent lock is current epoch, then lock amount is pending balance\n    uint256 pending;\n    if (balances[balances.length - 1].unlockTime == currentEpochUnlock) {\n      pending = balances[balances.length - 1].boosted;\n    }\n\n    return pending;\n  }\n\n  function max(uint256 a, uint256 b) internal pure returns (uint256) {\n    return a >= b ? a : b;\n  }\n\n  function totalSupply() external view returns (uint256) {\n    return ILockedMuuu(locker).totalSupply();\n  }\n}\n",
  "sourcePath": "/Users/shuto/Documents/bridges-dev/muuu/protocol/contracts/contracts/VotingBalanceMax.sol",
  "compiler": {
    "name": "solc",
    "version": "0.6.12+commit.27d51765.Emscripten.clang"
  },
  "schemaVersion": "3.4.6",
  "updatedAt": "2022-04-04T03:30:07.392Z",
  "devdoc": {
    "kind": "dev",
    "methods": {},
    "version": 1
  },
  "userdoc": {
    "kind": "user",
    "methods": {},
    "version": 1
  }
}