{
  "contractName": "VotingEligibility",
  "abi": [
    {
      "inputs": [],
      "stateMutability": "nonpayable",
      "type": "constructor"
    },
    {
      "anonymous": false,
      "inputs": [
        {
          "indexed": true,
          "internalType": "address",
          "name": "previousOwner",
          "type": "address"
        },
        {
          "indexed": true,
          "internalType": "address",
          "name": "newOwner",
          "type": "address"
        }
      ],
      "name": "OwnershipTransferred",
      "type": "event"
    },
    {
      "anonymous": false,
      "inputs": [
        {
          "indexed": true,
          "internalType": "address",
          "name": "_account",
          "type": "address"
        },
        {
          "indexed": false,
          "internalType": "bool",
          "name": "_state",
          "type": "bool"
        }
      ],
      "name": "changeAllow",
      "type": "event"
    },
    {
      "anonymous": false,
      "inputs": [
        {
          "indexed": true,
          "internalType": "address",
          "name": "_account",
          "type": "address"
        },
        {
          "indexed": false,
          "internalType": "bool",
          "name": "_state",
          "type": "bool"
        }
      ],
      "name": "changeBlock",
      "type": "event"
    },
    {
      "inputs": [
        {
          "internalType": "address",
          "name": "",
          "type": "address"
        }
      ],
      "name": "allowedList",
      "outputs": [
        {
          "internalType": "bool",
          "name": "",
          "type": "bool"
        }
      ],
      "stateMutability": "view",
      "type": "function"
    },
    {
      "inputs": [
        {
          "internalType": "address",
          "name": "",
          "type": "address"
        }
      ],
      "name": "blockList",
      "outputs": [
        {
          "internalType": "bool",
          "name": "",
          "type": "bool"
        }
      ],
      "stateMutability": "view",
      "type": "function"
    },
    {
      "inputs": [],
      "name": "owner",
      "outputs": [
        {
          "internalType": "address",
          "name": "",
          "type": "address"
        }
      ],
      "stateMutability": "view",
      "type": "function"
    },
    {
      "inputs": [],
      "name": "renounceOwnership",
      "outputs": [],
      "stateMutability": "nonpayable",
      "type": "function"
    },
    {
      "inputs": [
        {
          "internalType": "address",
          "name": "newOwner",
          "type": "address"
        }
      ],
      "name": "transferOwnership",
      "outputs": [],
      "stateMutability": "nonpayable",
      "type": "function"
    },
    {
      "inputs": [],
      "name": "useAllow",
      "outputs": [
        {
          "internalType": "bool",
          "name": "",
          "type": "bool"
        }
      ],
      "stateMutability": "view",
      "type": "function"
    },
    {
      "inputs": [],
      "name": "useBlock",
      "outputs": [
        {
          "internalType": "bool",
          "name": "",
          "type": "bool"
        }
      ],
      "stateMutability": "view",
      "type": "function"
    },
    {
      "inputs": [
        {
          "internalType": "bool",
          "name": "_b",
          "type": "bool"
        }
      ],
      "name": "setUseBlock",
      "outputs": [],
      "stateMutability": "nonpayable",
      "type": "function"
    },
    {
      "inputs": [
        {
          "internalType": "bool",
          "name": "_a",
          "type": "bool"
        }
      ],
      "name": "setUseAllow",
      "outputs": [],
      "stateMutability": "nonpayable",
      "type": "function"
    },
    {
      "inputs": [
        {
          "internalType": "address",
          "name": "_account",
          "type": "address"
        },
        {
          "internalType": "bool",
          "name": "_block",
          "type": "bool"
        }
      ],
      "name": "setAccountBlock",
      "outputs": [],
      "stateMutability": "nonpayable",
      "type": "function"
    },
    {
      "inputs": [
        {
          "internalType": "address",
          "name": "_account",
          "type": "address"
        },
        {
          "internalType": "bool",
          "name": "_allowed",
          "type": "bool"
        }
      ],
      "name": "setAccountAllow",
      "outputs": [],
      "stateMutability": "nonpayable",
      "type": "function"
    },
    {
      "inputs": [
        {
          "internalType": "address",
          "name": "_account",
          "type": "address"
        }
      ],
      "name": "isEligible",
      "outputs": [
        {
          "internalType": "bool",
          "name": "",
          "type": "bool"
        }
      ],
      "stateMutability": "view",
      "type": "function"
    }
  ],
  "bytecode": "0x60806040526003805461ff001960ff1990911660011716905534801561002457600080fd5b50600061002f61007e565b600080546001600160a01b0319166001600160a01b0383169081178255604051929350917f8be0079c531659141344cd1fd0a4f28419497f9722a3daafe3b4186f6b6457e0908290a350610082565b3390565b6107c1806100916000396000f3fe608060405234801561001057600080fd5b50600436106100b45760003560e01c8063a075fbde11610071578063a075fbde14610176578063a1d9c4c51461019c578063b11b36cd146101a4578063b5399283146101c3578063dac8d982146101e9578063f2fde38b14610217576100b4565b8063143fbf93146100b957806331bd3180146100da57806366e305fd14610108578063715018a6146101425780637f99b10f1461014a5780638da5cb5b14610152575b600080fd5b6100d8600480360360208110156100cf57600080fd5b5035151561023d565b005b6100d8600480360360408110156100f057600080fd5b506001600160a01b03813516906020013515156102b2565b61012e6004803603602081101561011e57600080fd5b50356001600160a01b0316610374565b604080519115158252519081900360200190f35b6100d86103ff565b61012e6104ab565b61015a6104b4565b604080516001600160a01b039092168252519081900360200190f35b61012e6004803603602081101561018c57600080fd5b50356001600160a01b03166104c3565b61012e6104d8565b6100d8600480360360208110156101ba57600080fd5b503515156104e6565b61012e600480360360208110156101d957600080fd5b50356001600160a01b0316610562565b6100d8600480360360408110156101ff57600080fd5b506001600160a01b0381351690602001351515610577565b6100d86004803603602081101561022d57600080fd5b50356001600160a01b0316610639565b61024561073b565b6001600160a01b03166102566104b4565b6001600160a01b03161461029f576040805162461bcd60e51b8152602060048201819052602482015260008051602061076c833981519152604482015290519081900360640190fd5b6003805460ff1916911515919091179055565b6102ba61073b565b6001600160a01b03166102cb6104b4565b6001600160a01b031614610314576040805162461bcd60e51b8152602060048201819052602482015260008051602061076c833981519152604482015290519081900360640190fd5b6001600160a01b038216600081815260026020908152604091829020805460ff1916851515908117909155825190815291517f1dc61ca8cf62d81034ef947585de3a1a2bcb23fe4f8483e7cfce98838fe6aefe9281900390910190a25050565b60035460009060ff16156103ab576001600160a01b03821660009081526001602052604090205460ff16156103ab575060006103fa565b600354610100900460ff16156103f6576103c48261073f565b80156103e957506001600160a01b03821660009081526002602052604090205460ff16155b156103f6575060006103fa565b5060015b919050565b61040761073b565b6001600160a01b03166104186104b4565b6001600160a01b031614610461576040805162461bcd60e51b8152602060048201819052602482015260008051602061076c833981519152604482015290519081900360640190fd5b600080546040516001600160a01b03909116907f8be0079c531659141344cd1fd0a4f28419497f9722a3daafe3b4186f6b6457e0908390a3600080546001600160a01b0319169055565b60035460ff1681565b6000546001600160a01b031690565b60026020526000908152604090205460ff1681565b600354610100900460ff1681565b6104ee61073b565b6001600160a01b03166104ff6104b4565b6001600160a01b031614610548576040805162461bcd60e51b8152602060048201819052602482015260008051602061076c833981519152604482015290519081900360640190fd5b600380549115156101000261ff0019909216919091179055565b60016020526000908152604090205460ff1681565b61057f61073b565b6001600160a01b03166105906104b4565b6001600160a01b0316146105d9576040805162461bcd60e51b8152602060048201819052602482015260008051602061076c833981519152604482015290519081900360640190fd5b6001600160a01b038216600081815260016020908152604091829020805460ff1916851515908117909155825190815291517fdac6b15eb15cc5583380e88c0f4ccabc39a88e35734a38e62e4fb03eeb8c8a029281900390910190a25050565b61064161073b565b6001600160a01b03166106526104b4565b6001600160a01b03161461069b576040805162461bcd60e51b8152602060048201819052602482015260008051602061076c833981519152604482015290519081900360640190fd5b6001600160a01b0381166106e05760405162461bcd60e51b81526004018080602001828103825260268152602001806107466026913960400191505060405180910390fd5b600080546040516001600160a01b03808516939216917f8be0079c531659141344cd1fd0a4f28419497f9722a3daafe3b4186f6b6457e091a3600080546001600160a01b0319166001600160a01b0392909216919091179055565b3390565b3b15159056fe4f776e61626c653a206e6577206f776e657220697320746865207a65726f20616464726573734f776e61626c653a2063616c6c6572206973206e6f7420746865206f776e6572a264697066735822122079ea0ae0acc8b481cf9580e065f285a2f6641504aac80c26867797498420cc9164736f6c634300060c0033",
  "immutableReferences": {},
  "source": "// SPDX-License-Identifier: MIT\npragma solidity 0.6.12;\n\nimport \"@openzeppelin/contracts/utils/Address.sol\";\nimport \"@openzeppelin/contracts/access/Ownable.sol\";\n\ncontract VotingEligibility is Ownable {\n  using Address for address;\n\n  mapping(address => bool) public blockList;\n  mapping(address => bool) public allowedList;\n  bool public useBlock = true;\n  bool public useAllow = false;\n\n  event changeBlock(address indexed _account, bool _state);\n  event changeAllow(address indexed _account, bool _state);\n\n  constructor() public {}\n\n  function setUseBlock(bool _b) external onlyOwner {\n    useBlock = _b;\n  }\n\n  function setUseAllow(bool _a) external onlyOwner {\n    useAllow = _a;\n  }\n\n  function setAccountBlock(address _account, bool _block) external onlyOwner {\n    blockList[_account] = _block;\n    emit changeBlock(_account, _block);\n  }\n\n  function setAccountAllow(address _account, bool _allowed) external onlyOwner {\n    allowedList[_account] = _allowed;\n    emit changeAllow(_account, _allowed);\n  }\n\n  function isEligible(address _account) external view returns (bool) {\n    if (useBlock) {\n      if (blockList[_account]) {\n        return false;\n      }\n    }\n\n    if (useAllow) {\n      if (Address.isContract(_account) && !allowedList[_account]) {\n        return false;\n      }\n    }\n\n    return true;\n  }\n}\n",
  "sourcePath": "/Users/shuto/Documents/bridges-dev/muuu/protocol/contracts/contracts/VotingEligibility.sol",
  "compiler": {
    "name": "solc",
    "version": "0.6.12+commit.27d51765.Emscripten.clang"
  },
  "schemaVersion": "3.4.6",
  "updatedAt": "2022-04-04T03:30:07.398Z",
  "devdoc": {
    "kind": "dev",
    "methods": {
      "owner()": {
        "details": "Returns the address of the current owner."
      },
      "renounceOwnership()": {
        "details": "Leaves the contract without owner. It will not be possible to call `onlyOwner` functions anymore. Can only be called by the current owner. NOTE: Renouncing ownership will leave the contract without an owner, thereby removing any functionality that is only available to the owner."
      },
      "transferOwnership(address)": {
        "details": "Transfers ownership of the contract to a new account (`newOwner`). Can only be called by the current owner."
      }
    },
    "version": 1
  },
  "userdoc": {
    "kind": "user",
    "methods": {},
    "version": 1
  }
}