{
  "contractName": "VotingBalance",
  "abi": [
    {
      "inputs": [],
      "stateMutability": "nonpayable",
      "type": "constructor"
    },
    {
      "anonymous": false,
      "inputs": [
        {
          "indexed": true,
          "internalType": "address",
          "name": "previousOwner",
          "type": "address"
        },
        {
          "indexed": true,
          "internalType": "address",
          "name": "newOwner",
          "type": "address"
        }
      ],
      "name": "OwnershipTransferred",
      "type": "event"
    },
    {
      "anonymous": false,
      "inputs": [
        {
          "indexed": true,
          "internalType": "address",
          "name": "_account",
          "type": "address"
        },
        {
          "indexed": false,
          "internalType": "bool",
          "name": "_state",
          "type": "bool"
        }
      ],
      "name": "changeAllow",
      "type": "event"
    },
    {
      "anonymous": false,
      "inputs": [
        {
          "indexed": true,
          "internalType": "address",
          "name": "_account",
          "type": "address"
        },
        {
          "indexed": false,
          "internalType": "bool",
          "name": "_state",
          "type": "bool"
        }
      ],
      "name": "changeBlock",
      "type": "event"
    },
    {
      "inputs": [],
      "name": "locker",
      "outputs": [
        {
          "internalType": "address",
          "name": "",
          "type": "address"
        }
      ],
      "stateMutability": "view",
      "type": "function"
    },
    {
      "inputs": [],
      "name": "owner",
      "outputs": [
        {
          "internalType": "address",
          "name": "",
          "type": "address"
        }
      ],
      "stateMutability": "view",
      "type": "function"
    },
    {
      "inputs": [],
      "name": "renounceOwnership",
      "outputs": [],
      "stateMutability": "nonpayable",
      "type": "function"
    },
    {
      "inputs": [
        {
          "internalType": "address",
          "name": "newOwner",
          "type": "address"
        }
      ],
      "name": "transferOwnership",
      "outputs": [],
      "stateMutability": "nonpayable",
      "type": "function"
    },
    {
      "inputs": [],
      "name": "useAllow",
      "outputs": [
        {
          "internalType": "bool",
          "name": "",
          "type": "bool"
        }
      ],
      "stateMutability": "view",
      "type": "function"
    },
    {
      "inputs": [],
      "name": "useBlock",
      "outputs": [
        {
          "internalType": "bool",
          "name": "",
          "type": "bool"
        }
      ],
      "stateMutability": "view",
      "type": "function"
    },
    {
      "inputs": [
        {
          "internalType": "bool",
          "name": "_b",
          "type": "bool"
        }
      ],
      "name": "setUseBlock",
      "outputs": [],
      "stateMutability": "nonpayable",
      "type": "function"
    },
    {
      "inputs": [
        {
          "internalType": "bool",
          "name": "_a",
          "type": "bool"
        }
      ],
      "name": "setUseAllow",
      "outputs": [],
      "stateMutability": "nonpayable",
      "type": "function"
    },
    {
      "inputs": [
        {
          "internalType": "address",
          "name": "_account",
          "type": "address"
        },
        {
          "internalType": "bool",
          "name": "_block",
          "type": "bool"
        }
      ],
      "name": "setAccountBlock",
      "outputs": [],
      "stateMutability": "nonpayable",
      "type": "function"
    },
    {
      "inputs": [
        {
          "internalType": "address",
          "name": "_account",
          "type": "address"
        },
        {
          "internalType": "bool",
          "name": "_allowed",
          "type": "bool"
        }
      ],
      "name": "setAccountAllow",
      "outputs": [],
      "stateMutability": "nonpayable",
      "type": "function"
    },
    {
      "inputs": [
        {
          "internalType": "address",
          "name": "_account",
          "type": "address"
        }
      ],
      "name": "balanceOf",
      "outputs": [
        {
          "internalType": "uint256",
          "name": "",
          "type": "uint256"
        }
      ],
      "stateMutability": "view",
      "type": "function"
    },
    {
      "inputs": [],
      "name": "totalSupply",
      "outputs": [
        {
          "internalType": "uint256",
          "name": "",
          "type": "uint256"
        }
      ],
      "stateMutability": "view",
      "type": "function"
    }
  ],
  "bytecode": "0x60806040526003805461ff001960ff1990911660011716905534801561002457600080fd5b50600061002f61007e565b600080546001600160a01b0319166001600160a01b0383169081178255604051929350917f8be0079c531659141344cd1fd0a4f28419497f9722a3daafe3b4186f6b6457e0908290a350610082565b3390565b61088a806100916000396000f3fe608060405234801561001057600080fd5b50600436106100b45760003560e01c80638da5cb5b116100715780638da5cb5b1461016c578063a1d9c4c514610190578063b11b36cd14610198578063d7b96d4e146101b7578063dac8d982146101bf578063f2fde38b146101ed576100b4565b8063143fbf93146100b957806318160ddd146100da57806331bd3180146100f457806370a0823114610122578063715018a6146101485780637f99b10f14610150575b600080fd5b6100d8600480360360208110156100cf57600080fd5b50351515610213565b005b6100e2610288565b60408051918252519081900360200190f35b6100d86004803603604081101561010a57600080fd5b506001600160a01b0381351690602001351515610308565b6100e26004803603602081101561013857600080fd5b50356001600160a01b03166103ca565b6100d86104da565b610158610586565b604080519115158252519081900360200190f35b61017461058f565b604080516001600160a01b039092168252519081900360200190f35b61015861059e565b6100d8600480360360208110156101ae57600080fd5b503515156105ac565b610174610628565b6100d8600480360360408110156101d557600080fd5b506001600160a01b0381351690602001351515610640565b6100d86004803603602081101561020357600080fd5b50356001600160a01b0316610702565b61021b610804565b6001600160a01b031661022c61058f565b6001600160a01b031614610275576040805162461bcd60e51b81526020600482018190526024820152600080516020610835833981519152604482015290519081900360640190fd5b6003805460ff1916911515919091179055565b600073d18140b4b819b895a3dba5442f959fa44994af506001600160a01b03166318160ddd6040518163ffffffff1660e01b815260040160206040518083038186803b1580156102d757600080fd5b505afa1580156102eb573d6000803e3d6000fd5b505050506040513d602081101561030157600080fd5b5051905090565b610310610804565b6001600160a01b031661032161058f565b6001600160a01b03161461036a576040805162461bcd60e51b81526020600482018190526024820152600080516020610835833981519152604482015290519081900360640190fd5b6001600160a01b038216600081815260026020908152604091829020805460ff1916851515908117909155825190815291517f1dc61ca8cf62d81034ef947585de3a1a2bcb23fe4f8483e7cfce98838fe6aefe9281900390910190a25050565b60035460009060ff1615610401576001600160a01b03821660009081526001602052604090205460ff1615610401575060006104d5565b600354610100900460ff161561044c5761041a82610808565b801561043f57506001600160a01b03821660009081526002602052604090205460ff16155b1561044c575060006104d5565b604080516370a0823160e01b81526001600160a01b0384166004820152905173d18140b4b819b895a3dba5442f959fa44994af50916370a08231916024808301926020929190829003018186803b1580156104a657600080fd5b505afa1580156104ba573d6000803e3d6000fd5b505050506040513d60208110156104d057600080fd5b505190505b919050565b6104e2610804565b6001600160a01b03166104f361058f565b6001600160a01b03161461053c576040805162461bcd60e51b81526020600482018190526024820152600080516020610835833981519152604482015290519081900360640190fd5b600080546040516001600160a01b03909116907f8be0079c531659141344cd1fd0a4f28419497f9722a3daafe3b4186f6b6457e0908390a3600080546001600160a01b0319169055565b60035460ff1681565b6000546001600160a01b031690565b600354610100900460ff1681565b6105b4610804565b6001600160a01b03166105c561058f565b6001600160a01b03161461060e576040805162461bcd60e51b81526020600482018190526024820152600080516020610835833981519152604482015290519081900360640190fd5b600380549115156101000261ff0019909216919091179055565b73d18140b4b819b895a3dba5442f959fa44994af5081565b610648610804565b6001600160a01b031661065961058f565b6001600160a01b0316146106a2576040805162461bcd60e51b81526020600482018190526024820152600080516020610835833981519152604482015290519081900360640190fd5b6001600160a01b038216600081815260016020908152604091829020805460ff1916851515908117909155825190815291517fdac6b15eb15cc5583380e88c0f4ccabc39a88e35734a38e62e4fb03eeb8c8a029281900390910190a25050565b61070a610804565b6001600160a01b031661071b61058f565b6001600160a01b031614610764576040805162461bcd60e51b81526020600482018190526024820152600080516020610835833981519152604482015290519081900360640190fd5b6001600160a01b0381166107a95760405162461bcd60e51b815260040180806020018281038252602681526020018061080f6026913960400191505060405180910390fd5b600080546040516001600160a01b03808516939216917f8be0079c531659141344cd1fd0a4f28419497f9722a3daafe3b4186f6b6457e091a3600080546001600160a01b0319166001600160a01b0392909216919091179055565b3390565b3b15159056fe4f776e61626c653a206e6577206f776e657220697320746865207a65726f20616464726573734f776e61626c653a2063616c6c6572206973206e6f7420746865206f776e6572a264697066735822122071a5c168ea824c314607ec061dd0334de379641d2348ddd3dfa7c877b08b4b2b64736f6c634300060c0033",
  "immutableReferences": {},
  "source": "// SPDX-License-Identifier: MIT\npragma solidity 0.6.12;\n\nimport \"./interfaces/ILockedMuuu.sol\";\nimport \"@openzeppelin/contracts/utils/Address.sol\";\nimport \"@openzeppelin/contracts/access/Ownable.sol\";\n\ncontract VotingBalance is Ownable {\n  using Address for address;\n\n  address public constant locker = address(0xD18140b4B819b895A3dba5442F959fA44994AF50);\n\n  mapping(address => bool) blockList;\n  mapping(address => bool) allowedList;\n  bool public useBlock = true;\n  bool public useAllow = false;\n\n  event changeBlock(address indexed _account, bool _state);\n  event changeAllow(address indexed _account, bool _state);\n\n  constructor() public {}\n\n  function setUseBlock(bool _b) external onlyOwner {\n    useBlock = _b;\n  }\n\n  function setUseAllow(bool _a) external onlyOwner {\n    useAllow = _a;\n  }\n\n  function setAccountBlock(address _account, bool _block) external onlyOwner {\n    blockList[_account] = _block;\n    emit changeBlock(_account, _block);\n  }\n\n  function setAccountAllow(address _account, bool _allowed) external onlyOwner {\n    allowedList[_account] = _allowed;\n    emit changeAllow(_account, _allowed);\n  }\n\n  function balanceOf(address _account) external view returns (uint256) {\n    if (useBlock) {\n      if (blockList[_account]) {\n        return 0;\n      }\n    }\n\n    if (useAllow) {\n      if (Address.isContract(_account) && !allowedList[_account]) {\n        return 0;\n      }\n    }\n\n    return ILockedMuuu(locker).balanceOf(_account);\n  }\n\n  function totalSupply() external view returns (uint256) {\n    return ILockedMuuu(locker).totalSupply();\n  }\n}\n",
  "sourcePath": "/Users/shuto/Documents/bridges-dev/muuu/protocol/contracts/contracts/VotingBalance.sol",
  "compiler": {
    "name": "solc",
    "version": "0.6.12+commit.27d51765.Emscripten.clang"
  },
  "schemaVersion": "3.4.6",
  "updatedAt": "2022-04-04T03:30:07.390Z",
  "devdoc": {
    "kind": "dev",
    "methods": {
      "owner()": {
        "details": "Returns the address of the current owner."
      },
      "renounceOwnership()": {
        "details": "Leaves the contract without owner. It will not be possible to call `onlyOwner` functions anymore. Can only be called by the current owner. NOTE: Renouncing ownership will leave the contract without an owner, thereby removing any functionality that is only available to the owner."
      },
      "transferOwnership(address)": {
        "details": "Transfers ownership of the contract to a new account (`newOwner`). Can only be called by the current owner."
      }
    },
    "version": 1
  },
  "userdoc": {
    "kind": "user",
    "methods": {},
    "version": 1
  }
}