{
  "_format": "hh-sol-artifact-1",
  "contractName": "VotingBalanceMax",
  "sourceName": "contracts/VotingBalanceMax.sol",
  "abi": [
    {
      "inputs": [
        {
          "internalType": "address",
          "name": "_eligiblelist",
          "type": "address"
        }
      ],
      "stateMutability": "nonpayable",
      "type": "constructor"
    },
    {
      "inputs": [
        {
          "internalType": "address",
          "name": "_account",
          "type": "address"
        }
      ],
      "name": "balanceOf",
      "outputs": [
        {
          "internalType": "uint256",
          "name": "",
          "type": "uint256"
        }
      ],
      "stateMutability": "view",
      "type": "function"
    },
    {
      "inputs": [],
      "name": "eligiblelist",
      "outputs": [
        {
          "internalType": "address",
          "name": "",
          "type": "address"
        }
      ],
      "stateMutability": "view",
      "type": "function"
    },
    {
      "inputs": [],
      "name": "lockDuration",
      "outputs": [
        {
          "internalType": "uint256",
          "name": "",
          "type": "uint256"
        }
      ],
      "stateMutability": "view",
      "type": "function"
    },
    {
      "inputs": [],
      "name": "locker",
      "outputs": [
        {
          "internalType": "address",
          "name": "",
          "type": "address"
        }
      ],
      "stateMutability": "view",
      "type": "function"
    },
    {
      "inputs": [
        {
          "internalType": "address",
          "name": "_account",
          "type": "address"
        }
      ],
      "name": "pendingBalanceOf",
      "outputs": [
        {
          "internalType": "uint256",
          "name": "",
          "type": "uint256"
        }
      ],
      "stateMutability": "view",
      "type": "function"
    },
    {
      "inputs": [],
      "name": "rewardsDuration",
      "outputs": [
        {
          "internalType": "uint256",
          "name": "",
          "type": "uint256"
        }
      ],
      "stateMutability": "view",
      "type": "function"
    },
    {
      "inputs": [],
      "name": "totalSupply",
      "outputs": [
        {
          "internalType": "uint256",
          "name": "",
          "type": "uint256"
        }
      ],
      "stateMutability": "view",
      "type": "function"
    }
  ],
  "bytecode": "0x60a060405234801561001057600080fd5b50604051610b3c380380610b3c83398101604081905261002f91610044565b60601b6001600160601b031916608052610072565b600060208284031215610055578081fd5b81516001600160a01b038116811461006b578182fd5b9392505050565b60805160601c610aa3610099600039806101a7528061036b52806106895250610aa36000f3fe608060405234801561001057600080fd5b506004361061007d5760003560e01c806359b8c7631161005b57806359b8c763146100b057806370a08231146100c3578063d7b96d4e146100d6578063fad26719146100eb5761007d565b8063045544431461008257806318160ddd146100a0578063386a9525146100a8575b600080fd5b61008a6100f3565b60405161009791906109ee565b60405180910390f35b61008a6100fa565b61008a610186565b61008a6100be3660046107c4565b61018d565b61008a6100d13660046107c4565b610351565b6100de61066f565b604051610097919061092b565b6100de610687565b629ce28081565b600073d18140b4b819b895a3dba5442f959fa44994af506001600160a01b03166318160ddd6040518163ffffffff1660e01b815260040160206040518083038186803b15801561014957600080fd5b505afa15801561015d573d6000803e3d6000fd5b505050506040513d601f19601f820116820180604052508101906101819190610857565b905090565b62093a8081565b6040516366e305fd60e01b81526000906001600160a01b037f000000000000000000000000000000000000000000000000000000000000000016906366e305fd906101dc90859060040161092b565b60206040518083038186803b1580156101f457600080fd5b505afa158015610208573d6000803e3d6000fd5b505050506040513d601f19601f8201168201806040525081019061022c91906107eb565b6102385750600061034c565b600061025e629ce28061025862093a8061025242826106ab565b906106e8565b90610729565b604051630241d3fb60e11b815290915060609073d18140b4b819b895a3dba5442f959fa44994af5090630483a7f69061029b90879060040161092b565b60006040518083038186803b1580156102b357600080fd5b505afa1580156102c7573d6000803e3d6000fd5b505050506040513d6000823e601f3d908101601f191682016040526102ef919081019061086f565b93505050506000828260018451038151811061030757fe5b60200260200101516040015163ffffffff161415610347578160018351038151811061032f57fe5b6020026020010151602001516001600160701b031690505b925050505b919050565b6040516366e305fd60e01b81526000906001600160a01b037f000000000000000000000000000000000000000000000000000000000000000016906366e305fd906103a090859060040161092b565b60206040518083038186803b1580156103b857600080fd5b505afa1580156103cc573d6000803e3d6000fd5b505050506040513d601f19601f820116820180604052508101906103f091906107eb565b6103fc5750600061034c565b600061040f62093a8061025242826106ab565b90506000600173d18140b4b819b895a3dba5442f959fa44994af506001600160a01b031663829965cc6040518163ffffffff1660e01b815260040160206040518083038186803b15801561046257600080fd5b505afa158015610476573d6000803e3d6000fd5b505050506040513d601f19601f8201168201806040525081019061049a9190610857565b6040516331ad879360e21b8152919003915060009073d18140b4b819b895a3dba5442f959fa44994af509063c6b61e4c906104d99085906004016109ee565b604080518083038186803b1580156104f057600080fd5b505afa158015610504573d6000803e3d6000fd5b505050506040513d601f19601f82011682018060405250810190610528919061080b565b915050828163ffffffff161061053f576001820391505b604051631c60739560e01b815260009073d18140b4b819b895a3dba5442f959fa44994af5090631c6073959061057b9086908a906004016109f7565b60206040518083038186803b15801561059357600080fd5b505afa1580156105a7573d6000803e3d6000fd5b505050506040513d601f19601f820116820180604052508101906105cb9190610857565b6040516370a0823160e01b815290915060009073d18140b4b819b895a3dba5442f959fa44994af50906370a0823190610608908a9060040161092b565b60206040518083038186803b15801561062057600080fd5b505afa158015610634573d6000803e3d6000fd5b505050506040513d601f19601f820116820180604052508101906106589190610857565b9050610664828261074e565b979650505050505050565b73d18140b4b819b895a3dba5442f959fa44994af5081565b7f000000000000000000000000000000000000000000000000000000000000000081565b60008082116106d55760405162461bcd60e51b81526004016106cc90610976565b60405180910390fd5b8183816106de57fe5b0490505b92915050565b6000826106f7575060006106e2565b8282028284828161070457fe5b04146107225760405162461bcd60e51b81526004016106cc906109ad565b9392505050565b6000828201838110156107225760405162461bcd60e51b81526004016106cc9061093f565b60008183101561075e5781610722565b5090919050565b600060608284031215610776578081fd5b6107806060610a0e565b9050815161078d81610a55565b8152602082015161079d81610a55565b6020820152604082015163ffffffff811681146107b957600080fd5b604082015292915050565b6000602082840312156107d5578081fd5b81356001600160a01b0381168114610722578182fd5b6000602082840312156107fc578081fd5b81518015158114610722578182fd5b6000806040838503121561081d578081fd5b82516001600160e01b0381168114610833578182fd5b602084015190925063ffffffff8116811461084c578182fd5b809150509250929050565b600060208284031215610868578081fd5b5051919050565b60008060008060808587031215610884578182fd5b8451935060208086015193506040860151925060608087015167ffffffffffffffff8111156108b1578384fd5b8701601f810189136108c1578384fd5b80516108d46108cf82610a35565b610a0e565b81815284810190838601858402850187018d10156108f0578788fd5b8794505b8385101561091a576109068d82610765565b8352600194909401939186019185016108f4565b50989b979a50959850505050505050565b6001600160a01b0391909116815260200190565b6020808252601b908201527f536166654d6174683a206164646974696f6e206f766572666c6f770000000000604082015260600190565b6020808252601a908201527f536166654d6174683a206469766973696f6e206279207a65726f000000000000604082015260600190565b60208082526021908201527f536166654d6174683a206d756c7469706c69636174696f6e206f766572666c6f6040820152607760f81b606082015260800190565b90815260200190565b9182526001600160a01b0316602082015260400190565b60405181810167ffffffffffffffff81118282101715610a2d57600080fd5b604052919050565b600067ffffffffffffffff821115610a4b578081fd5b5060209081020190565b6001600160701b0381168114610a6a57600080fd5b5056fea264697066735822122054cf7253c2a2f9c48214f2ee075967b274017c33f33dcf39d28532828ab1853164736f6c634300060c0033",
  "linkReferences": {},
  "deployedLinkReferences": {}
}