{
  "_format": "hh-sol-artifact-1",
  "contractName": "VestedEscrow",
  "sourceName": "contracts/VestedEscrow.sol",
  "abi": [
    {
      "inputs": [
        {
          "internalType": "address",
          "name": "rewardToken_",
          "type": "address"
        },
        {
          "internalType": "uint256",
          "name": "starttime_",
          "type": "uint256"
        },
        {
          "internalType": "uint256",
          "name": "endtime_",
          "type": "uint256"
        },
        {
          "internalType": "address",
          "name": "stakeContract_",
          "type": "address"
        },
        {
          "internalType": "address",
          "name": "fundAdmin_",
          "type": "address"
        }
      ],
      "stateMutability": "nonpayable",
      "type": "constructor"
    },
    {
      "anonymous": false,
      "inputs": [
        {
          "indexed": true,
          "internalType": "address",
          "name": "user",
          "type": "address"
        },
        {
          "indexed": false,
          "internalType": "uint256",
          "name": "amount",
          "type": "uint256"
        }
      ],
      "name": "Claim",
      "type": "event"
    },
    {
      "anonymous": false,
      "inputs": [
        {
          "indexed": true,
          "internalType": "address",
          "name": "recipient",
          "type": "address"
        },
        {
          "indexed": false,
          "internalType": "uint256",
          "name": "reward",
          "type": "uint256"
        }
      ],
      "name": "Fund",
      "type": "event"
    },
    {
      "inputs": [
        {
          "internalType": "uint256",
          "name": "_amount",
          "type": "uint256"
        }
      ],
      "name": "addTokens",
      "outputs": [
        {
          "internalType": "bool",
          "name": "",
          "type": "bool"
        }
      ],
      "stateMutability": "nonpayable",
      "type": "function"
    },
    {
      "inputs": [],
      "name": "admin",
      "outputs": [
        {
          "internalType": "address",
          "name": "",
          "type": "address"
        }
      ],
      "stateMutability": "view",
      "type": "function"
    },
    {
      "inputs": [
        {
          "internalType": "address",
          "name": "_recipient",
          "type": "address"
        }
      ],
      "name": "balanceOf",
      "outputs": [
        {
          "internalType": "uint256",
          "name": "",
          "type": "uint256"
        }
      ],
      "stateMutability": "view",
      "type": "function"
    },
    {
      "inputs": [
        {
          "internalType": "address",
          "name": "_recipient",
          "type": "address"
        }
      ],
      "name": "claim",
      "outputs": [],
      "stateMutability": "nonpayable",
      "type": "function"
    },
    {
      "inputs": [],
      "name": "claim",
      "outputs": [],
      "stateMutability": "nonpayable",
      "type": "function"
    },
    {
      "inputs": [],
      "name": "claimAndStake",
      "outputs": [],
      "stateMutability": "nonpayable",
      "type": "function"
    },
    {
      "inputs": [],
      "name": "endTime",
      "outputs": [
        {
          "internalType": "uint256",
          "name": "",
          "type": "uint256"
        }
      ],
      "stateMutability": "view",
      "type": "function"
    },
    {
      "inputs": [
        {
          "internalType": "uint256",
          "name": "",
          "type": "uint256"
        }
      ],
      "name": "extraRewards",
      "outputs": [
        {
          "internalType": "address",
          "name": "",
          "type": "address"
        }
      ],
      "stateMutability": "view",
      "type": "function"
    },
    {
      "inputs": [
        {
          "internalType": "address[]",
          "name": "_recipient",
          "type": "address[]"
        },
        {
          "internalType": "uint256[]",
          "name": "_amount",
          "type": "uint256[]"
        }
      ],
      "name": "fund",
      "outputs": [
        {
          "internalType": "bool",
          "name": "",
          "type": "bool"
        }
      ],
      "stateMutability": "nonpayable",
      "type": "function"
    },
    {
      "inputs": [],
      "name": "fundAdmin",
      "outputs": [
        {
          "internalType": "address",
          "name": "",
          "type": "address"
        }
      ],
      "stateMutability": "view",
      "type": "function"
    },
    {
      "inputs": [
        {
          "internalType": "address",
          "name": "",
          "type": "address"
        }
      ],
      "name": "initialLocked",
      "outputs": [
        {
          "internalType": "uint256",
          "name": "",
          "type": "uint256"
        }
      ],
      "stateMutability": "view",
      "type": "function"
    },
    {
      "inputs": [],
      "name": "initialLockedSupply",
      "outputs": [
        {
          "internalType": "uint256",
          "name": "",
          "type": "uint256"
        }
      ],
      "stateMutability": "view",
      "type": "function"
    },
    {
      "inputs": [
        {
          "internalType": "address",
          "name": "_recipient",
          "type": "address"
        }
      ],
      "name": "lockedOf",
      "outputs": [
        {
          "internalType": "uint256",
          "name": "",
          "type": "uint256"
        }
      ],
      "stateMutability": "view",
      "type": "function"
    },
    {
      "inputs": [],
      "name": "lockedSupply",
      "outputs": [
        {
          "internalType": "uint256",
          "name": "",
          "type": "uint256"
        }
      ],
      "stateMutability": "view",
      "type": "function"
    },
    {
      "inputs": [],
      "name": "rewardToken",
      "outputs": [
        {
          "internalType": "contract IERC20",
          "name": "",
          "type": "address"
        }
      ],
      "stateMutability": "view",
      "type": "function"
    },
    {
      "inputs": [
        {
          "internalType": "address",
          "name": "_admin",
          "type": "address"
        }
      ],
      "name": "setAdmin",
      "outputs": [],
      "stateMutability": "nonpayable",
      "type": "function"
    },
    {
      "inputs": [
        {
          "internalType": "address",
          "name": "_fundadmin",
          "type": "address"
        }
      ],
      "name": "setFundAdmin",
      "outputs": [],
      "stateMutability": "nonpayable",
      "type": "function"
    },
    {
      "inputs": [],
      "name": "stakeContract",
      "outputs": [
        {
          "internalType": "address",
          "name": "",
          "type": "address"
        }
      ],
      "stateMutability": "view",
      "type": "function"
    },
    {
      "inputs": [],
      "name": "startTime",
      "outputs": [
        {
          "internalType": "uint256",
          "name": "",
          "type": "uint256"
        }
      ],
      "stateMutability": "view",
      "type": "function"
    },
    {
      "inputs": [
        {
          "internalType": "address",
          "name": "",
          "type": "address"
        }
      ],
      "name": "totalClaimed",
      "outputs": [
        {
          "internalType": "uint256",
          "name": "",
          "type": "uint256"
        }
      ],
      "stateMutability": "view",
      "type": "function"
    },
    {
      "inputs": [],
      "name": "totalTime",
      "outputs": [
        {
          "internalType": "uint256",
          "name": "",
          "type": "uint256"
        }
      ],
      "stateMutability": "view",
      "type": "function"
    },
    {
      "inputs": [],
      "name": "unallocatedSupply",
      "outputs": [
        {
          "internalType": "uint256",
          "name": "",
          "type": "uint256"
        }
      ],
      "stateMutability": "view",
      "type": "function"
    },
    {
      "inputs": [
        {
          "internalType": "address",
          "name": "_recipient",
          "type": "address"
        }
      ],
      "name": "vestedOf",
      "outputs": [
        {
          "internalType": "uint256",
          "name": "",
          "type": "uint256"
        }
      ],
      "stateMutability": "view",
      "type": "function"
    },
    {
      "inputs": [],
      "name": "vestedSupply",
      "outputs": [
        {
          "internalType": "uint256",
          "name": "",
          "type": "uint256"
        }
      ],
      "stateMutability": "view",
      "type": "function"
    }
  ],
  "bytecode": "0x608060405234801561001057600080fd5b506040516115a23803806115a2833981810160405260a081101561003357600080fd5b508051602082015160408301516060840151608090940151600160005592939192909190428410156100ac576040805162461bcd60e51b815260206004820152601460248201527f7374617274206d75737420626520667574757265000000000000000000000000604482015290519081900360640190fd5b838311610100576040805162461bcd60e51b815260206004820152601360248201527f656e64206d757374206265206772656174657200000000000000000000000000604482015290519081900360640190fd5b600180546001600160a01b0319166001600160a01b0387161790556005849055600683905561013a8385610180602090811b610a0b17901c565b600755600280546001600160a01b03199081163317909155600380546001600160a01b0393841690831617905560048054939092169216919091179055506101dd915050565b6000828211156101d7576040805162461bcd60e51b815260206004820152601e60248201527f536166654d6174683a207375627472616374696f6e206f766572666c6f770000604482015290519081900360640190fd5b50900390565b6113b6806101ec6000396000f3fe608060405234801561001057600080fd5b50600436106101585760003560e01c80639c456583116100c3578063ca5c7b911161007c578063ca5c7b91146103e7578063cb1a4fc0146103ef578063d9844dc0146103f7578063ef5d9ae8146103ff578063f7c618c114610425578063f851a4401461042d57610158565b80639c45658314610298578063a5f1e282146102a0578063a96d1edc146102c6578063aa04ae78146102ec578063b1e56f6b146102f4578063c6ed8990146103ca57610158565b806358533e0a1161011557806358533e0a1461020e578063704b6c021461021657806370a082311461023c57806378e97925146102625780637d086b291461026a578063944771041461027257610158565b8063099d695f1461015d5780631a186227146101955780631e83409a146101b95780633197cbb6146101e157806340c35446146101e95780634e71d92d14610206575b600080fd5b6101836004803603602081101561017357600080fd5b50356001600160a01b0316610435565b60408051918252519081900360200190f35b61019d610447565b604080516001600160a01b039092168252519081900360200190f35b6101df600480360360208110156101cf57600080fd5b50356001600160a01b0316610456565b005b610183610579565b61019d600480360360208110156101ff57600080fd5b503561057f565b6101df6105a6565b6101836105b1565b6101df6004803603602081101561022c57600080fd5b50356001600160a01b03166105b7565b6101836004803603602081101561025257600080fd5b50356001600160a01b0316610620565b61018361065b565b610183610661565b6101836004803603602081101561028857600080fd5b50356001600160a01b0316610667565b61019d610679565b610183600480360360208110156102b657600080fd5b50356001600160a01b0316610688565b6101df600480360360208110156102dc57600080fd5b50356001600160a01b03166106bb565b610183610724565b6103b66004803603604081101561030a57600080fd5b81019060208101813564010000000081111561032557600080fd5b82018360208201111561033757600080fd5b8035906020019184602083028401116401000000008311171561035957600080fd5b91939092909160208101903564010000000081111561037757600080fd5b82018360208201111561038957600080fd5b803590602001918460208302840111640100000000831117156103ab57600080fd5b50909250905061072a565b604080519115158252519081900360200190f35b6103b6600480360360208110156103e057600080fd5b5035610932565b6101836109ac565b6101df6109c8565b6101836109d1565b6101836004803603602081101561041557600080fd5b50356001600160a01b03166109db565b61019d6109ed565b61019d6109fc565b600a6020526000908152604090205481565b6004546001600160a01b031681565b600260005414156104ae576040805162461bcd60e51b815260206004820152601f60248201527f5265656e7472616e637947756172643a207265656e7472616e742063616c6c00604482015290519081900360640190fd5b600260009081556104bf8242610a68565b6001600160a01b0383166000908152600b6020526040812054919250906104e7908390610a0b565b6001600160a01b0384166000908152600b602052604090205490915061050d9082610acb565b6001600160a01b038085166000908152600b602052604090209190915560015461053991168483610b25565b60408051828152905133917f47cee97cb7acd717b3c0aa1435d004cd5b3c8c57d70dbceb4e4458bbd60e39d4919081900360200190a25050600160005550565b60065481565b600c818154811061058c57fe5b6000918252602090912001546001600160a01b0316905081565b6105af33610456565b565b60075481565b6002546001600160a01b031633146105fe576040805162461bcd60e51b8152602060048201526005602482015264042c2eae8d60db1b604482015290519081900360640190fd5b600280546001600160a01b0319166001600160a01b0392909216919091179055565b60008061062d8342610a68565b6001600160a01b0384166000908152600b6020526040902054909150610654908290610a0b565b9392505050565b60055481565b60085481565b60006106738242610a68565b92915050565b6003546001600160a01b031681565b6000806106958342610a68565b6001600160a01b0384166000908152600a60205260409020549091506106549082610a0b565b6002546001600160a01b03163314610702576040805162461bcd60e51b8152602060048201526005602482015264042c2eae8d60db1b604482015290519081900360640190fd5b600380546001600160a01b0319166001600160a01b0392909216919091179055565b60095481565b600060026000541415610784576040805162461bcd60e51b815260206004820152601f60248201527f5265656e7472616e637947756172643a207265656e7472616e742063616c6c00604482015290519081900360640190fd5b60026000556003546001600160a01b03163314806107ac57506002546001600160a01b031633145b6107e5576040805162461bcd60e51b8152602060048201526005602482015264042c2eae8d60db1b604482015290519081900360640190fd5b6000805b858110156108ff5760008585838181106107ff57fe5b90506020020135905061085b81600a60008b8b8781811061081c57fe5b905060200201356001600160a01b03166001600160a01b03166001600160a01b0316815260200190815260200160002054610acb90919063ffffffff16565b600a60008a8a8681811061086b57fe5b602090810292909201356001600160a01b0316835250810191909152604001600020556108988382610acb565b92508787838181106108a657fe5b905060200201356001600160a01b03166001600160a01b03167fda8220a878ff7a89474ccffdaa31ea1ed1ffbb0207d5051afccc4fbaf81f9bcd826040518082815260200191505060405180910390a2506001016107e9565b5060085461090d9082610acb565b60085560095461091d9082610a0b565b60095550600190506001600055949350505050565b6002546000906001600160a01b0316331461097c576040805162461bcd60e51b8152602060048201526005602482015264042c2eae8d60db1b604482015290519081900360640190fd5b600154610994906001600160a01b0316333085610b7c565b6009546109a19083610acb565b600955506001919050565b60006109c26109b9610bdc565b60085490610a0b565b90505b90565b6105af33610c26565b60006109c2610bdc565b600b6020526000908152604090205481565b6001546001600160a01b031681565b6002546001600160a01b031681565b600082821115610a62576040805162461bcd60e51b815260206004820152601e60248201527f536166654d6174683a207375627472616374696f6e206f766572666c6f770000604482015290519081900360640190fd5b50900390565b6000600554821015610a7c57506000610673565b6001600160a01b0383166000908152600a6020526040812054600554909190610aa6908590610a0b565b90506000610ac160075483850281610aba57fe5b0484610f03565b9695505050505050565b600082820183811015610654576040805162461bcd60e51b815260206004820152601b60248201527f536166654d6174683a206164646974696f6e206f766572666c6f770000000000604482015290519081900360640190fd5b604080516001600160a01b038416602482015260448082018490528251808303909101815260649091019091526020810180516001600160e01b031663a9059cbb60e01b179052610b77908490610f19565b505050565b604080516001600160a01b0380861660248301528416604482015260648082018490528251808303909101815260849091019091526020810180516001600160e01b03166323b872dd60e01b179052610bd6908590610f19565b50505050565b6005546000904290811015610bf55760009150506109c5565b600854600554600090610c09908490610a0b565b90506000610c1d60075483850281610aba57fe5b94505050505090565b60026000541415610c7e576040805162461bcd60e51b815260206004820152601f60248201527f5265656e7472616e637947756172643a207265656e7472616e742063616c6c00604482015290519081900360640190fd5b60026000556004546001600160a01b0316610cd6576040805162461bcd60e51b81526020600482015260136024820152721b9bc81cdd185ada5b99c818dbdb9d1c9858dd606a1b604482015290519081900360640190fd5b60015460048054604080516372f702f360e01b815290516001600160a01b0394851694909216926372f702f3928282019260209290829003018186803b158015610d1f57600080fd5b505afa158015610d33573d6000803e3d6000fd5b505050506040513d6020811015610d4957600080fd5b50516001600160a01b031614610d9d576040805162461bcd60e51b81526020600482015260146024820152730e6e8c2d6ca40e8ded6cadc40dad2e6dac2e8c6d60631b604482015290519081900360640190fd5b6000610da98242610a68565b6001600160a01b0383166000908152600b602052604081205491925090610dd1908390610a0b565b6001600160a01b0384166000908152600b6020526040902054909150610df79082610acb565b6001600160a01b038085166000908152600b6020526040812092909255600454600154610e2c93908316929190911690610fca565b600454600154610e49916001600160a01b03918216911683610fca565b60048054604080516305dc812160e31b81526001600160a01b03878116948201949094526024810185905290519290911691632ee409089160448082019260009290919082900301818387803b158015610ea257600080fd5b505af1158015610eb6573d6000803e3d6000fd5b50506040805184815290516001600160a01b03871693507f47cee97cb7acd717b3c0aa1435d004cd5b3c8c57d70dbceb4e4458bbd60e39d492509081900360200190a25050600160005550565b6000818310610f125781610654565b5090919050565b6060610f6e826040518060400160405280602081526020017f5361666545524332303a206c6f772d6c6576656c2063616c6c206661696c6564815250856001600160a01b03166110dd9092919063ffffffff16565b805190915015610b7757808060200190516020811015610f8d57600080fd5b5051610b775760405162461bcd60e51b815260040180806020018281038252602a815260200180611321602a913960400191505060405180910390fd5b801580611050575060408051636eb1769f60e11b81523060048201526001600160a01b03848116602483015291519185169163dd62ed3e91604480820192602092909190829003018186803b15801561102257600080fd5b505afa158015611036573d6000803e3d6000fd5b505050506040513d602081101561104c57600080fd5b5051155b61108b5760405162461bcd60e51b815260040180806020018281038252603681526020018061134b6036913960400191505060405180910390fd5b604080516001600160a01b038416602482015260448082018490528251808303909101815260649091019091526020810180516001600160e01b031663095ea7b360e01b179052610b77908490610f19565b60606110ec84846000856110f4565b949350505050565b6060824710156111355760405162461bcd60e51b81526004018080602001828103825260268152602001806112fb6026913960400191505060405180910390fd5b61113e85611250565b61118f576040805162461bcd60e51b815260206004820152601d60248201527f416464726573733a2063616c6c20746f206e6f6e2d636f6e7472616374000000604482015290519081900360640190fd5b60006060866001600160a01b031685876040518082805190602001908083835b602083106111ce5780518252601f1990920191602091820191016111af565b6001836020036101000a03801982511681845116808217855250505050505090500191505060006040518083038185875af1925050503d8060008114611230576040519150601f19603f3d011682016040523d82523d6000602084013e611235565b606091505b5091509150611245828286611256565b979650505050505050565b3b151590565b60608315611265575081610654565b8251156112755782518084602001fd5b8160405162461bcd60e51b81526004018080602001828103825283818151815260200191508051906020019080838360005b838110156112bf5781810151838201526020016112a7565b50505050905090810190601f1680156112ec5780820380516001836020036101000a031916815260200191505b509250505060405180910390fdfe416464726573733a20696e73756666696369656e742062616c616e636520666f722063616c6c5361666545524332303a204552433230206f7065726174696f6e20646964206e6f7420737563636565645361666545524332303a20617070726f76652066726f6d206e6f6e2d7a65726f20746f206e6f6e2d7a65726f20616c6c6f77616e6365a2646970667358221220dcff6ad76e08e8a24dd57473719bc43f246b60ad7d07dbe527c8b6925d739c8a64736f6c634300060c0033",
  "linkReferences": {},
  "deployedLinkReferences": {}
}