{
  "_format": "hh-sol-artifact-1",
  "contractName": "SimpleProxy",
  "sourceName": "contracts/SimpleProxy.sol",
  "abi": [
    {
      "inputs": [],
      "stateMutability": "nonpayable",
      "type": "constructor"
    },
    {
      "inputs": [],
      "name": "acceptOwner",
      "outputs": [],
      "stateMutability": "nonpayable",
      "type": "function"
    },
    {
      "inputs": [
        {
          "internalType": "address",
          "name": "_to",
          "type": "address"
        },
        {
          "internalType": "uint256",
          "name": "_value",
          "type": "uint256"
        },
        {
          "internalType": "bytes",
          "name": "_data",
          "type": "bytes"
        }
      ],
      "name": "execute",
      "outputs": [
        {
          "internalType": "bool",
          "name": "",
          "type": "bool"
        },
        {
          "internalType": "bytes",
          "name": "",
          "type": "bytes"
        }
      ],
      "stateMutability": "payable",
      "type": "function"
    },
    {
      "inputs": [],
      "name": "owner",
      "outputs": [
        {
          "internalType": "address",
          "name": "",
          "type": "address"
        }
      ],
      "stateMutability": "view",
      "type": "function"
    },
    {
      "inputs": [],
      "name": "pendingOwner",
      "outputs": [
        {
          "internalType": "address",
          "name": "",
          "type": "address"
        }
      ],
      "stateMutability": "view",
      "type": "function"
    },
    {
      "inputs": [
        {
          "internalType": "address",
          "name": "_owner",
          "type": "address"
        }
      ],
      "name": "setPendingOwner",
      "outputs": [],
      "stateMutability": "nonpayable",
      "type": "function"
    }
  ],
  "bytecode": "0x608060405234801561001057600080fd5b50600080546001600160a01b031916331790556103d2806100326000396000f3fe60806040526004361061004a5760003560e01c80638da5cb5b1461004f578063b61d27f614610080578063c42069ec14610186578063e30c3978146101bb578063ebbc4965146101d0575b600080fd5b34801561005b57600080fd5b506100646101e5565b604080516001600160a01b039092168252519081900360200190f35b6101056004803603606081101561009657600080fd5b6001600160a01b03823516916020810135918101906060810160408201356401000000008111156100c657600080fd5b8201836020820111156100d857600080fd5b803590602001918460018302840111640100000000831117156100fa57600080fd5b5090925090506101f4565b60405180831515815260200180602001828103825283818151815260200191508051906020019080838360005b8381101561014a578181015183820152602001610132565b50505050905090810190601f1680156101775780820380516001836020036101000a031916815260200191505b50935050505060405180910390f35b34801561019257600080fd5b506101b9600480360360208110156101a957600080fd5b50356001600160a01b03166102b6565b005b3480156101c757600080fd5b5061006461031f565b3480156101dc57600080fd5b506101b961032e565b6000546001600160a01b031681565b600080546060906001600160a01b0316331461023f576040805162461bcd60e51b8152602060048201526005602482015264042c2eae8d60db1b604482015290519081900360640190fd5b60006060876001600160a01b0316878787604051808383808284376040519201945060009350909150508083038185875af1925050503d80600081146102a1576040519150601f19603f3d011682016040523d82523d6000602084013e6102a6565b606091505b5090999098509650505050505050565b6000546001600160a01b031633146102fd576040805162461bcd60e51b8152602060048201526005602482015264042c2eae8d60db1b604482015290519081900360640190fd5b600180546001600160a01b0319166001600160a01b0392909216919091179055565b6001546001600160a01b031681565b6001546001600160a01b03163314610375576040805162461bcd60e51b8152602060048201526005602482015264042c2eae8d60db1b604482015290519081900360640190fd5b60018054600080546001600160a01b03199081166001600160a01b0384161790915516905556fea2646970667358221220b4d739be1c4b12d266af1cbc983f42ea06df5d2b1b35ea813efc3e2e19c7092e64736f6c634300060c0033",
  "linkReferences": {},
  "deployedLinkReferences": {}
}