{
  "_format": "hh-sol-artifact-1",
  "contractName": "ChefRewardHook",
  "sourceName": "contracts/ChefRewardHook.sol",
  "abi": [
    {
      "inputs": [],
      "stateMutability": "nonpayable",
      "type": "constructor"
    },
    {
      "inputs": [],
      "name": "chef",
      "outputs": [
        {
          "internalType": "address",
          "name": "",
          "type": "address"
        }
      ],
      "stateMutability": "view",
      "type": "function"
    },
    {
      "inputs": [],
      "name": "distributor",
      "outputs": [
        {
          "internalType": "address",
          "name": "",
          "type": "address"
        }
      ],
      "stateMutability": "view",
      "type": "function"
    },
    {
      "inputs": [
        {
          "internalType": "address",
          "name": "_distributor",
          "type": "address"
        },
        {
          "internalType": "uint256",
          "name": "_pid",
          "type": "uint256"
        },
        {
          "internalType": "contract IERC20",
          "name": "dummyToken",
          "type": "address"
        }
      ],
      "name": "init",
      "outputs": [],
      "stateMutability": "nonpayable",
      "type": "function"
    },
    {
      "inputs": [],
      "name": "isInit",
      "outputs": [
        {
          "internalType": "bool",
          "name": "",
          "type": "bool"
        }
      ],
      "stateMutability": "view",
      "type": "function"
    },
    {
      "inputs": [],
      "name": "onRewardClaim",
      "outputs": [],
      "stateMutability": "nonpayable",
      "type": "function"
    },
    {
      "inputs": [],
      "name": "owner",
      "outputs": [
        {
          "internalType": "address",
          "name": "",
          "type": "address"
        }
      ],
      "stateMutability": "view",
      "type": "function"
    },
    {
      "inputs": [],
      "name": "pid",
      "outputs": [
        {
          "internalType": "uint256",
          "name": "",
          "type": "uint256"
        }
      ],
      "stateMutability": "view",
      "type": "function"
    },
    {
      "inputs": [],
      "name": "rewardHook",
      "outputs": [
        {
          "internalType": "address",
          "name": "",
          "type": "address"
        }
      ],
      "stateMutability": "view",
      "type": "function"
    },
    {
      "inputs": [],
      "name": "rewardToken",
      "outputs": [
        {
          "internalType": "contract IERC20",
          "name": "",
          "type": "address"
        }
      ],
      "stateMutability": "view",
      "type": "function"
    },
    {
      "inputs": [
        {
          "internalType": "address",
          "name": "_hook",
          "type": "address"
        }
      ],
      "name": "setRewardHook",
      "outputs": [],
      "stateMutability": "nonpayable",
      "type": "function"
    }
  ],
  "bytecode": "0x6080604052600380546001600160a01b03191673a3c5a1e09150b75ff251c1a7815a07182c3de2fb17905534801561003657600080fd5b50610aaf806100466000396000f3fe608060405234801561001057600080fd5b506004361061009e5760003560e01c80638da5cb5b116100665780638da5cb5b14610135578063b145a5b81461013d578063bfe1092814610159578063f106845414610161578063f7c618c11461017b5761009e565b80630d5225de146100a35780631fc8bc5d146100cb5780632663fcfc146100ef57806343fc00b8146100f757806344214ecf1461012d575b600080fd5b6100c9600480360360208110156100b957600080fd5b50356001600160a01b0316610183565b005b6100d36101f2565b604080516001600160a01b039092168252519081900360200190f35b6100c961020a565b6100c96004803603606081101561010d57600080fd5b506001600160a01b038135811691602081013591604090910135166103f6565b6100d3610649565b6100d361065d565b61014561066c565b604080519115158252519081900360200190f35b6100d3610675565b610169610684565b60408051918252519081900360200190f35b6100d361068a565b6003546001600160a01b031633146101ca576040805162461bcd60e51b8152602060048201526005602482015264042c2eae8d60db1b604482015290519081900360640190fd5b600280546001600160a01b0390921661010002610100600160a81b0319909216919091179055565b735f465e9fcffc217c5849906216581a657cd6060581565b6000546001600160a01b03163314610251576040805162461bcd60e51b8152602060048201526005602482015264042c2eae8d60db1b604482015290519081900360640190fd5b60015460408051636eeaf0d960e11b8152600481019290925230602483015251735f465e9fcffc217c5849906216581a657cd606059163ddd5e1b291604480830192600092919082900301818387803b1580156102ad57600080fd5b505af11580156102c1573d6000803e3d6000fd5b5050604080516370a0823160e01b8152306004820152905160009350734e3fbd56cd56c3e72c1403e103b45db9da5b9d2b92506370a0823191602480820192602092909190829003018186803b15801561031a57600080fd5b505afa15801561032e573d6000803e3d6000fd5b505050506040513d602081101561034457600080fd5b50519050801561037a5760005461037a90734e3fbd56cd56c3e72c1403e103b45db9da5b9d2b906001600160a01b0316836106a2565b60025461010090046001600160a01b0316156103f357600260019054906101000a90046001600160a01b03166001600160a01b0316632663fcfc6040518163ffffffff1660e01b8152600401600060405180830381600087803b1580156103e057600080fd5b505af19250505080156103f1575060015b505b50565b60025460ff161561043d576040805162461bcd60e51b815260206004820152600c60248201526b185b1c9958591e481a5b9a5d60a21b604482015290519081900360640190fd5b60028054600160ff199091168117909155600080546001600160a01b0319166001600160a01b0386811691909117825591849055604080516370a0823160e01b8152336004820152905191928416916370a0823191602480820192602092909190829003018186803b1580156104b257600080fd5b505afa1580156104c6573d6000803e3d6000fd5b505050506040513d60208110156104dc57600080fd5b505190508061052a576040805162461bcd60e51b8152602060048201526015602482015274042616c616e6365206d75737420657863656564203605c1b604482015290519081900360640190fd5b61053f6001600160a01b0383163330846106f9565b6040805163095ea7b360e01b8152735f465e9fcffc217c5849906216581a657cd6060560048201526024810183905290516001600160a01b0384169163095ea7b39160448083019260209291908290030181600087803b1580156105a257600080fd5b505af11580156105b6573d6000803e3d6000fd5b505050506040513d60208110156105cc57600080fd5b505060015460408051631c57762b60e31b815260048101929092526024820183905251735f465e9fcffc217c5849906216581a657cd606059163e2bbb15891604480830192600092919082900301818387803b15801561062b57600080fd5b505af115801561063f573d6000803e3d6000fd5b5050505050505050565b60025461010090046001600160a01b031681565b6003546001600160a01b031681565b60025460ff1681565b6000546001600160a01b031681565b60015481565b734e3fbd56cd56c3e72c1403e103b45db9da5b9d2b81565b604080516001600160a01b038416602482015260448082018490528251808303909101815260649091019091526020810180516001600160e01b031663a9059cbb60e01b1790526106f4908490610759565b505050565b604080516001600160a01b0380861660248301528416604482015260648082018490528251808303909101815260849091019091526020810180516001600160e01b03166323b872dd60e01b179052610753908590610759565b50505050565b60606107ae826040518060400160405280602081526020017f5361666545524332303a206c6f772d6c6576656c2063616c6c206661696c6564815250856001600160a01b031661080a9092919063ffffffff16565b8051909150156106f4578080602001905160208110156107cd57600080fd5b50516106f45760405162461bcd60e51b815260040180806020018281038252602a815260200180610a50602a913960400191505060405180910390fd5b60606108198484600085610823565b90505b9392505050565b6060824710156108645760405162461bcd60e51b8152600401808060200182810382526026815260200180610a2a6026913960400191505060405180910390fd5b61086d8561097f565b6108be576040805162461bcd60e51b815260206004820152601d60248201527f416464726573733a2063616c6c20746f206e6f6e2d636f6e7472616374000000604482015290519081900360640190fd5b60006060866001600160a01b031685876040518082805190602001908083835b602083106108fd5780518252601f1990920191602091820191016108de565b6001836020036101000a03801982511681845116808217855250505050505090500191505060006040518083038185875af1925050503d806000811461095f576040519150601f19603f3d011682016040523d82523d6000602084013e610964565b606091505b5091509150610974828286610985565b979650505050505050565b3b151590565b6060831561099457508161081c565b8251156109a45782518084602001fd5b8160405162461bcd60e51b81526004018080602001828103825283818151815260200191508051906020019080838360005b838110156109ee5781810151838201526020016109d6565b50505050905090810190601f168015610a1b5780820380516001836020036101000a031916815260200191505b509250505060405180910390fdfe416464726573733a20696e73756666696369656e742062616c616e636520666f722063616c6c5361666545524332303a204552433230206f7065726174696f6e20646964206e6f742073756363656564a2646970667358221220e6c640ffe0397db4340b52f0958e2a62221fc2daa7c29c3ab319edb4c0e4a62f64736f6c634300060c0033",
  "linkReferences": {},
  "deployedLinkReferences": {}
}