{
  "_format": "hh-sol-artifact-1",
  "contractName": "VlMuuuExtraRewardDistribution",
  "sourceName": "contracts/vlMuuuExtraRewardDistribution.sol",
  "abi": [
    {
      "inputs": [
        {
          "internalType": "address",
          "name": "_locker",
          "type": "address"
        }
      ],
      "stateMutability": "nonpayable",
      "type": "constructor"
    },
    {
      "anonymous": false,
      "inputs": [
        {
          "indexed": true,
          "internalType": "address",
          "name": "_user",
          "type": "address"
        },
        {
          "indexed": true,
          "internalType": "address",
          "name": "_rewardsToken",
          "type": "address"
        },
        {
          "indexed": false,
          "internalType": "uint256",
          "name": "_index",
          "type": "uint256"
        }
      ],
      "name": "ForcedClaimIndex",
      "type": "event"
    },
    {
      "anonymous": false,
      "inputs": [
        {
          "indexed": true,
          "internalType": "address",
          "name": "_token",
          "type": "address"
        },
        {
          "indexed": true,
          "internalType": "uint256",
          "name": "_epoch",
          "type": "uint256"
        },
        {
          "indexed": false,
          "internalType": "uint256",
          "name": "_reward",
          "type": "uint256"
        }
      ],
      "name": "RewardAdded",
      "type": "event"
    },
    {
      "anonymous": false,
      "inputs": [
        {
          "indexed": true,
          "internalType": "address",
          "name": "_user",
          "type": "address"
        },
        {
          "indexed": true,
          "internalType": "address",
          "name": "_rewardsToken",
          "type": "address"
        },
        {
          "indexed": false,
          "internalType": "uint256",
          "name": "_reward",
          "type": "uint256"
        }
      ],
      "name": "RewardPaid",
      "type": "event"
    },
    {
      "inputs": [
        {
          "internalType": "address",
          "name": "_token",
          "type": "address"
        },
        {
          "internalType": "uint256",
          "name": "_amount",
          "type": "uint256"
        }
      ],
      "name": "addReward",
      "outputs": [],
      "stateMutability": "nonpayable",
      "type": "function"
    },
    {
      "inputs": [
        {
          "internalType": "address",
          "name": "_token",
          "type": "address"
        },
        {
          "internalType": "uint256",
          "name": "_amount",
          "type": "uint256"
        },
        {
          "internalType": "uint256",
          "name": "_epoch",
          "type": "uint256"
        }
      ],
      "name": "addRewardToEpoch",
      "outputs": [],
      "stateMutability": "nonpayable",
      "type": "function"
    },
    {
      "inputs": [
        {
          "internalType": "address",
          "name": "_account",
          "type": "address"
        },
        {
          "internalType": "address",
          "name": "_token",
          "type": "address"
        }
      ],
      "name": "claimableRewards",
      "outputs": [
        {
          "internalType": "uint256",
          "name": "",
          "type": "uint256"
        }
      ],
      "stateMutability": "view",
      "type": "function"
    },
    {
      "inputs": [
        {
          "internalType": "address",
          "name": "_account",
          "type": "address"
        },
        {
          "internalType": "address",
          "name": "_token",
          "type": "address"
        },
        {
          "internalType": "uint256",
          "name": "_epoch",
          "type": "uint256"
        }
      ],
      "name": "claimableRewardsAtEpoch",
      "outputs": [
        {
          "internalType": "uint256",
          "name": "",
          "type": "uint256"
        }
      ],
      "stateMutability": "view",
      "type": "function"
    },
    {
      "inputs": [
        {
          "internalType": "address",
          "name": "_account",
          "type": "address"
        },
        {
          "internalType": "address",
          "name": "_token",
          "type": "address"
        }
      ],
      "name": "getNextClaimableIndex",
      "outputs": [
        {
          "internalType": "uint256",
          "name": "",
          "type": "uint256"
        }
      ],
      "stateMutability": "view",
      "type": "function"
    },
    {
      "inputs": [
        {
          "internalType": "address",
          "name": "_account",
          "type": "address"
        },
        {
          "internalType": "address",
          "name": "_token",
          "type": "address"
        }
      ],
      "name": "getReward",
      "outputs": [],
      "stateMutability": "nonpayable",
      "type": "function"
    },
    {
      "inputs": [],
      "name": "muuulocker",
      "outputs": [
        {
          "internalType": "contract ILockedMuuu",
          "name": "",
          "type": "address"
        }
      ],
      "stateMutability": "view",
      "type": "function"
    },
    {
      "inputs": [
        {
          "internalType": "address",
          "name": "",
          "type": "address"
        },
        {
          "internalType": "uint256",
          "name": "",
          "type": "uint256"
        }
      ],
      "name": "rewardData",
      "outputs": [
        {
          "internalType": "uint256",
          "name": "",
          "type": "uint256"
        }
      ],
      "stateMutability": "view",
      "type": "function"
    },
    {
      "inputs": [
        {
          "internalType": "address",
          "name": "",
          "type": "address"
        },
        {
          "internalType": "uint256",
          "name": "",
          "type": "uint256"
        }
      ],
      "name": "rewardEpochs",
      "outputs": [
        {
          "internalType": "uint256",
          "name": "",
          "type": "uint256"
        }
      ],
      "stateMutability": "view",
      "type": "function"
    },
    {
      "inputs": [
        {
          "internalType": "address",
          "name": "_token",
          "type": "address"
        }
      ],
      "name": "rewardEpochsCount",
      "outputs": [
        {
          "internalType": "uint256",
          "name": "",
          "type": "uint256"
        }
      ],
      "stateMutability": "view",
      "type": "function"
    },
    {
      "inputs": [],
      "name": "rewardsDuration",
      "outputs": [
        {
          "internalType": "uint256",
          "name": "",
          "type": "uint256"
        }
      ],
      "stateMutability": "view",
      "type": "function"
    },
    {
      "inputs": [
        {
          "internalType": "address",
          "name": "_token",
          "type": "address"
        },
        {
          "internalType": "uint256",
          "name": "_index",
          "type": "uint256"
        }
      ],
      "name": "setClaimIndex",
      "outputs": [],
      "stateMutability": "nonpayable",
      "type": "function"
    },
    {
      "inputs": [
        {
          "internalType": "address",
          "name": "",
          "type": "address"
        },
        {
          "internalType": "address",
          "name": "",
          "type": "address"
        }
      ],
      "name": "userClaims",
      "outputs": [
        {
          "internalType": "uint256",
          "name": "",
          "type": "uint256"
        }
      ],
      "stateMutability": "view",
      "type": "function"
    }
  ],
  "bytecode": "0x60a060405234801561001057600080fd5b506040516112073803806112078339818101604052602081101561003357600080fd5b5051606081901b6001600160601b0319166080526001600160a01b03166111876100806000398061030c52806104c452806105cd5280610892528061091f5280610afe52506111876000f3fe608060405234801561001057600080fd5b50600436106100cf5760003560e01c806361544f601161008c5780639feb8f50116100665780639feb8f501461025e578063a7205d071461028a578063d527f4b9146102b6578063e27739a9146102dc576100cf565b806361544f60146101d65780636b091695146102025780636be9dcce14610230576100cf565b806329919002146100d45780632fae1e14146101085780633817486214610150578063386a95251461017c578063408ad08b1461018457806359533208146101b2575b600080fd5b610106600480360360608110156100ea57600080fd5b506001600160a01b03813516906020810135906040013561030a565b005b61013e6004803603606081101561011e57600080fd5b506001600160a01b0381358116916020810135909116906040013561046d565b60408051918252519081900360200190f35b61013e6004803603604081101561016657600080fd5b506001600160a01b038135169060200135610484565b61013e61049e565b61013e6004803603604081101561019a57600080fd5b506001600160a01b03813581169160200135166104a5565b6101ba6104c2565b604080516001600160a01b039092168252519081900360200190f35b61013e600480360360408110156101ec57600080fd5b506001600160a01b0381351690602001356104e6565b6101066004803603604081101561021857600080fd5b506001600160a01b0381358116916020013516610514565b61013e6004803603604081101561024657600080fd5b506001600160a01b03813581169160200135166105b3565b6101066004803603604081101561027457600080fd5b506001600160a01b0381351690602001356105cb565b610106600480360360408110156102a057600080fd5b506001600160a01b03813516906020013561065a565b61013e600480360360208110156102cc57600080fd5b50356001600160a01b0316610783565b61013e600480360360408110156102f257600080fd5b506001600160a01b038135811691602001351661079e565b7f00000000000000000000000000000000000000000000000000000000000000006001600160a01b031663c1009f4b6040518163ffffffff1660e01b8152600401600060405180830381600087803b15801561036557600080fd5b505af1158015610379573d6000803e3d6000fd5b5050505061038561088c565b81106103c6576040805162461bcd60e51b815260206004820152600b60248201526a042e0e4caec40cae0dec6d60ab1b604482015290519081900360640190fd5b6001600160a01b03831660009081526001602052604090205480158061041f57506001600160a01b03841660009081526001602052604090208054839190600019840190811061041257fe5b9060005260206000200154105b61045c576040805162461bcd60e51b81526020600482015260096024820152680ded8c840cae0dec6d60bb1b604482015290519081900360640190fd5b61046784848461091b565b50505050565b600061047a848484610af9565b90505b9392505050565b600060208181529281526040808220909352908152205481565b62093a8081565b600260209081526000928352604080842090915290825290205481565b7f000000000000000000000000000000000000000000000000000000000000000081565b600160205281600052604060002081815481106104ff57fe5b90600052602060002001600091509150505481565b6000806105218484610be5565b90925090508115610467576001600160a01b038084166000818152600260209081526040808320948916835293905291909120829055610562908584610cd3565b826001600160a01b0316846001600160a01b03167f540798df468d7b23d11f156fdb954cb19ad414d150722a7b6d55ba369dea792e846040518082815260200191505060405180910390a350505050565b6000806105c08484610be5565b509150505b92915050565b7f00000000000000000000000000000000000000000000000000000000000000006001600160a01b031663c1009f4b6040518163ffffffff1660e01b8152600401600060405180830381600087803b15801561062657600080fd5b505af115801561063a573d6000803e3d6000fd5b50505050600061064861088c565b905061065583838361091b565b505050565b60008111801561068157506001600160a01b03821660009081526001602052604090205481105b6106ba576040805162461bcd60e51b8152602060048201526005602482015264085c185cdd60da1b604482015290519081900360640190fd5b6001600160a01b0382166000908152600260209081526040808320338452909152902054811015610724576040805162461bcd60e51b815260206004820152600f60248201526e185b1c9958591e4818db185a5b5959608a1b604482015290519081900360640190fd5b6001600160a01b03821660008181526002602090815260408083203380855290835292819020859055805185815290517fb9dfc6b23a78c72c8ee40a01dc92cec7c30f2f1d85f2f4bc53b1a8ac7631ac8c929181900390910190a35050565b6001600160a01b031660009081526001602052604090205490565b6001600160a01b038082166000908152600260209081526040808320938616835292905290812054816107cf61088c565b9050815b6001600160a01b038516600090815260016020526040902054811015610880576001600160a01b038516600090815260016020526040902080548391908390811061081a57fe5b90600052602060002001541015610878576001600160a01b038516600090815260016020526040812080546108689189918991908690811061085857fe5b9060005260206000200154610af9565b11156108785792506105c5915050565b6001016107d3565b50600095945050505050565b600060037f00000000000000000000000000000000000000000000000000000000000000006001600160a01b031663829965cc6040518163ffffffff1660e01b815260040160206040518083038186803b1580156108e957600080fd5b505afa1580156108fd573d6000803e3d6000fd5b505050506040513d602081101561091357600080fd5b505103905090565b60007f00000000000000000000000000000000000000000000000000000000000000006001600160a01b03166370b36d79836040518263ffffffff1660e01b81526004018082815260200191505060206040518083038186803b15801561098157600080fd5b505afa158015610995573d6000803e3d6000fd5b505050506040513d60208110156109ab57600080fd5b5051905060006109ce826109c88668056bc75e2d63100000610d25565b90610d91565b6001600160a01b0386166000908152602081815260408083208784529091529020549091506109fd9082610df8565b6001600160a01b03861660008181526020818152604080832088845282528083209490945591815260019091522054801580610a6c57506001600160a01b038616600090815260016020526040902080548591906000198401908110610a5f57fe5b9060005260206000200154105b15610a9c576001600160a01b03861660009081526001602081815260408320805492830181558352909120018490555b610ab16001600160a01b038716333088610e50565b60408051868152905185916001600160a01b038916917f6a6f77044107a33658235d41bedbbaf2fe9ccdceb313143c947a5e76e1ec84749181900360200190a3505050505050565b6000807f00000000000000000000000000000000000000000000000000000000000000006001600160a01b0316631c60739584876040518363ffffffff1660e01b815260040180838152602001826001600160a01b031681526020019250505060206040518083038186803b158015610b7157600080fd5b505afa158015610b85573d6000803e3d6000fd5b505050506040513d6020811015610b9b57600080fd5b50516001600160a01b038516600090815260208181526040808320878452909152902054909150610bdc9068056bc75e2d63100000906109c8908490610d25565b95945050505050565b6001600160a01b038082166000908152600260209081526040808320938616835292905290812054819081610c1861088c565b90506000825b6001600160a01b038716600090815260016020526040902054811015610cc6576001600160a01b0387166000908152600160205260409020805484919083908110610c6557fe5b90600052602060002001541015610cbe57610cb5610cae8989600160008c6001600160a01b03166001600160a01b03168152602001908152602001600020858154811061085857fe5b8390610df8565b91508060010193505b600101610c1e565b5096919550909350505050565b604080516001600160a01b038416602482015260448082018490528251808303909101815260649091019091526020810180516001600160e01b031663a9059cbb60e01b179052610655908490610ea6565b6000811580610d4057505080820282828281610d3d57fe5b04145b6105c5576040805162461bcd60e51b815260206004820152601860248201527f426f72696e674d6174683a204d756c204f766572666c6f770000000000000000604482015290519081900360640190fd5b6000808211610de7576040805162461bcd60e51b815260206004820152601c60248201527f426f72696e674d6174683a206469766973696f6e206279207a65726f00000000604482015290519081900360640190fd5b818381610df057fe5b049392505050565b818101818110156105c5576040805162461bcd60e51b815260206004820152601860248201527f426f72696e674d6174683a20416464204f766572666c6f770000000000000000604482015290519081900360640190fd5b604080516001600160a01b0380861660248301528416604482015260648082018490528251808303909101815260849091019091526020810180516001600160e01b03166323b872dd60e01b1790526104679085905b6060610efb826040518060400160405280602081526020017f5361666545524332303a206c6f772d6c6576656c2063616c6c206661696c6564815250856001600160a01b0316610f579092919063ffffffff16565b80519091501561065557808060200190516020811015610f1a57600080fd5b50516106555760405162461bcd60e51b815260040180806020018281038252602a815260200180611128602a913960400191505060405180910390fd5b606061047a848460008585610f6b8561107d565b610fbc576040805162461bcd60e51b815260206004820152601d60248201527f416464726573733a2063616c6c20746f206e6f6e2d636f6e7472616374000000604482015290519081900360640190fd5b60006060866001600160a01b031685876040518082805190602001908083835b60208310610ffb5780518252601f199092019160209182019101610fdc565b6001836020036101000a03801982511681845116808217855250505050505090500191505060006040518083038185875af1925050503d806000811461105d576040519150601f19603f3d011682016040523d82523d6000602084013e611062565b606091505b5091509150611072828286611083565b979650505050505050565b3b151590565b6060831561109257508161047d565b8251156110a25782518084602001fd5b8160405162461bcd60e51b81526004018080602001828103825283818151815260200191508051906020019080838360005b838110156110ec5781810151838201526020016110d4565b50505050905090810190601f1680156111195780820380516001836020036101000a031916815260200191505b509250505060405180910390fdfe5361666545524332303a204552433230206f7065726174696f6e20646964206e6f742073756363656564a2646970667358221220da6f5a09313de58c6f2b3193833e40939729c1658c04f701cd9e2e456d3ad10964736f6c634300060c0033",
  "linkReferences": {},
  "deployedLinkReferences": {}
}