{
  "contracts/ClaimVekglFees.sol": {
    "ClaimVekglFees": {
      "abi": [
        {
          "inputs": [],
          "stateMutability": "nonpayable",
          "type": "constructor"
        },
        {
          "inputs": [],
          "name": "account",
          "outputs": [
            {
              "internalType": "address",
              "name": "",
              "type": "address"
            }
          ],
          "stateMutability": "view",
          "type": "function"
        },
        {
          "inputs": [],
          "name": "booster",
          "outputs": [
            {
              "internalType": "address",
              "name": "",
              "type": "address"
            }
          ],
          "stateMutability": "view",
          "type": "function"
        },
        {
          "inputs": [],
          "name": "claimFees",
          "outputs": [],
          "stateMutability": "nonpayable",
          "type": "function"
        },
        {
          "inputs": [],
          "name": "feeClaim",
          "outputs": [
            {
              "internalType": "address",
              "name": "",
              "type": "address"
            }
          ],
          "stateMutability": "view",
          "type": "function"
        },
        {
          "inputs": [],
          "name": "getName",
          "outputs": [
            {
              "internalType": "string",
              "name": "",
              "type": "string"
            }
          ],
          "stateMutability": "pure",
          "type": "function"
        },
        {
          "inputs": [],
          "name": "lastTokenTime",
          "outputs": [
            {
              "internalType": "uint256",
              "name": "",
              "type": "uint256"
            }
          ],
          "stateMutability": "view",
          "type": "function"
        },
        {
          "inputs": [],
          "name": "tokenaddress",
          "outputs": [
            {
              "internalType": "address",
              "name": "",
              "type": "address"
            }
          ],
          "stateMutability": "view",
          "type": "function"
        },
        {
          "inputs": [],
          "name": "vekgl",
          "outputs": [
            {
              "internalType": "address",
              "name": "",
              "type": "address"
            }
          ],
          "stateMutability": "view",
          "type": "function"
        }
      ],
      "evm": {
        "bytecode": {
          "linkReferences": {},
          "object": "608060405234801561001057600080fd5b506105cb806100206000396000f3fe608060405234801561001057600080fd5b50600436106100885760003560e01c806374cd64651161005b57806374cd64651461013e578063939ea66b14610146578063c6def07614610160578063d294f0931461016857610088565b806317d7de7c1461008d578063264f6efa1461010a5780633feff76d1461012e5780635dab242014610136575b600080fd5b610095610172565b6040805160208082528351818301528351919283929083019185019080838360005b838110156100cf5781810151838201526020016100b7565b50505050905090810190601f1680156100fc5780820380516001836020036101000a031916815260200191505b509250505060405180910390f35b61011261019f565b604080516001600160a01b039092168252519081900360200190f35b6101126101b7565b6101126101cf565b6101126101e7565b61014e6101ff565b60408051918252519081900360200190f35b610112610205565b61017061021d565b005b6040805180820190915260138152720436c61696d56656b676c466565732056312e3606c1b602082015290565b735f3b5dfeb7b28cdbd7faba78963ee202a494e2a281565b736c3f90f043a72fa612cbac8115ee7e52bde6e49081565b73989aeb4d175e16225e39e87d0d97a3360524ad8081565b73a464e6dcda8ac41e03616f95f4bc98a13b8922dc81565b60005481565b73f403c135812408bfbe8713b5a23a04b3d48aae3181565b600073a464e6dcda8ac41e03616f95f4bc98a13b8922dc6001600160a01b0316637f58e8f86040518163ffffffff1660e01b815260040160206040518083038186803b15801561026c57600080fd5b505afa158015610280573d6000803e3d6000fd5b505050506040513d602081101561029657600080fd5b505160005490915081116102e0576040805162461bcd60e51b815260206004820152600c60248201526b1b9bdd081d1a5b59481e595d60a21b604482015290519081900360640190fd5b604080516370a0823160e01b815273989aeb4d175e16225e39e87d0d97a3360524ad8060048201529051600091736c3f90f043a72fa612cbac8115ee7e52bde6e490916370a0823191602480820192602092909190829003018186803b15801561034957600080fd5b505afa15801561035d573d6000803e3d6000fd5b505050506040513d602081101561037357600080fd5b505160408051630f41a04d60e11b815273989aeb4d175e16225e39e87d0d97a3360524ad806004820152905191925073a464e6dcda8ac41e03616f95f4bc98a13b8922dc91631e83409a9160248082019260009290919082900301818387803b1580156103df57600080fd5b505af11580156103f3573d6000803e3d6000fd5b505050505b604080516370a0823160e01b815273989aeb4d175e16225e39e87d0d97a3360524ad80600482015290518291736c3f90f043a72fa612cbac8115ee7e52bde6e490916370a0823191602480820192602092909190829003018186803b15801561046057600080fd5b505afa158015610474573d6000803e3d6000fd5b505050506040513d602081101561048a57600080fd5b5051116105145760408051630f41a04d60e11b815273989aeb4d175e16225e39e87d0d97a3360524ad806004820152905173a464e6dcda8ac41e03616f95f4bc98a13b8922dc91631e83409a91602480830192600092919082900301818387803b1580156104f757600080fd5b505af115801561050b573d6000803e3d6000fd5b505050506103f8565b73f403c135812408bfbe8713b5a23a04b3d48aae316001600160a01b03166322230b966040518163ffffffff1660e01b8152600401602060405180830381600087803b15801561056357600080fd5b505af1158015610577573d6000803e3d6000fd5b505050506040513d602081101561058d57600080fd5b50505060005556fea26469706673582212205017dc647c379eb245ed7b29c9511f7f7e04803c9de1bbdb2fcc88679c9eaf9e64736f6c634300060c0033",
          "opcodes": "PUSH1 0x80 PUSH1 0x40 MSTORE CALLVALUE DUP1 ISZERO PUSH2 0x10 JUMPI PUSH1 0x0 DUP1 REVERT JUMPDEST POP PUSH2 0x5CB DUP1 PUSH2 0x20 PUSH1 0x0 CODECOPY PUSH1 0x0 RETURN INVALID PUSH1 0x80 PUSH1 0x40 MSTORE CALLVALUE DUP1 ISZERO PUSH2 0x10 JUMPI PUSH1 0x0 DUP1 REVERT JUMPDEST POP PUSH1 0x4 CALLDATASIZE LT PUSH2 0x88 JUMPI PUSH1 0x0 CALLDATALOAD PUSH1 0xE0 SHR DUP1 PUSH4 0x74CD6465 GT PUSH2 0x5B JUMPI DUP1 PUSH4 0x74CD6465 EQ PUSH2 0x13E JUMPI DUP1 PUSH4 0x939EA66B EQ PUSH2 0x146 JUMPI DUP1 PUSH4 0xC6DEF076 EQ PUSH2 0x160 JUMPI DUP1 PUSH4 0xD294F093 EQ PUSH2 0x168 JUMPI PUSH2 0x88 JUMP JUMPDEST DUP1 PUSH4 0x17D7DE7C EQ PUSH2 0x8D JUMPI DUP1 PUSH4 0x264F6EFA EQ PUSH2 0x10A JUMPI DUP1 PUSH4 0x3FEFF76D EQ PUSH2 0x12E JUMPI DUP1 PUSH4 0x5DAB2420 EQ PUSH2 0x136 JUMPI JUMPDEST PUSH1 0x0 DUP1 REVERT JUMPDEST PUSH2 0x95 PUSH2 0x172 JUMP JUMPDEST PUSH1 0x40 DUP1 MLOAD PUSH1 0x20 DUP1 DUP3 MSTORE DUP4 MLOAD DUP2 DUP4 ADD MSTORE DUP4 MLOAD SWAP2 SWAP3 DUP4 SWAP3 SWAP1 DUP4 ADD SWAP2 DUP6 ADD SWAP1 DUP1 DUP4 DUP4 PUSH1 0x0 JUMPDEST DUP4 DUP2 LT ISZERO PUSH2 0xCF JUMPI DUP2 DUP2 ADD MLOAD DUP4 DUP3 ADD MSTORE PUSH1 0x20 ADD PUSH2 0xB7 JUMP JUMPDEST POP POP POP POP SWAP1 POP SWAP1 DUP2 ADD SWAP1 PUSH1 0x1F AND DUP1 ISZERO PUSH2 0xFC JUMPI DUP1 DUP3 SUB DUP1 MLOAD PUSH1 0x1 DUP4 PUSH1 0x20 SUB PUSH2 0x100 EXP SUB NOT AND DUP2 MSTORE PUSH1 0x20 ADD SWAP2 POP JUMPDEST POP SWAP3 POP POP POP PUSH1 0x40 MLOAD DUP1 SWAP2 SUB SWAP1 RETURN JUMPDEST PUSH2 0x112 PUSH2 0x19F JUMP JUMPDEST PUSH1 0x40 DUP1 MLOAD PUSH1 0x1 PUSH1 0x1 PUSH1 0xA0 SHL SUB SWAP1 SWAP3 AND DUP3 MSTORE MLOAD SWAP1 DUP2 SWAP1 SUB PUSH1 0x20 ADD SWAP1 RETURN JUMPDEST PUSH2 0x112 PUSH2 0x1B7 JUMP JUMPDEST PUSH2 0x112 PUSH2 0x1CF JUMP JUMPDEST PUSH2 0x112 PUSH2 0x1E7 JUMP JUMPDEST PUSH2 0x14E PUSH2 0x1FF JUMP JUMPDEST PUSH1 0x40 DUP1 MLOAD SWAP2 DUP3 MSTORE MLOAD SWAP1 DUP2 SWAP1 SUB PUSH1 0x20 ADD SWAP1 RETURN JUMPDEST PUSH2 0x112 PUSH2 0x205 JUMP JUMPDEST PUSH2 0x170 PUSH2 0x21D JUMP JUMPDEST STOP JUMPDEST PUSH1 0x40 DUP1 MLOAD DUP1 DUP3 ADD SWAP1 SWAP2 MSTORE PUSH1 0x13 DUP2 MSTORE PUSH19 0x436C61696D56656B676C466565732056312E3 PUSH1 0x6C SHL PUSH1 0x20 DUP3 ADD MSTORE SWAP1 JUMP JUMPDEST PUSH20 0x5F3B5DFEB7B28CDBD7FABA78963EE202A494E2A2 DUP2 JUMP JUMPDEST PUSH20 0x6C3F90F043A72FA612CBAC8115EE7E52BDE6E490 DUP2 JUMP JUMPDEST PUSH20 0x989AEB4D175E16225E39E87D0D97A3360524AD80 DUP2 JUMP JUMPDEST PUSH20 0xA464E6DCDA8AC41E03616F95F4BC98A13B8922DC DUP2 JUMP JUMPDEST PUSH1 0x0 SLOAD DUP2 JUMP JUMPDEST PUSH20 0xF403C135812408BFBE8713B5A23A04B3D48AAE31 DUP2 JUMP JUMPDEST PUSH1 0x0 PUSH20 0xA464E6DCDA8AC41E03616F95F4BC98A13B8922DC PUSH1 0x1 PUSH1 0x1 PUSH1 0xA0 SHL SUB AND PUSH4 0x7F58E8F8 PUSH1 0x40 MLOAD DUP2 PUSH4 0xFFFFFFFF AND PUSH1 0xE0 SHL DUP2 MSTORE PUSH1 0x4 ADD PUSH1 0x20 PUSH1 0x40 MLOAD DUP1 DUP4 SUB DUP2 DUP7 DUP1 EXTCODESIZE ISZERO DUP1 ISZERO PUSH2 0x26C JUMPI PUSH1 0x0 DUP1 REVERT JUMPDEST POP GAS STATICCALL ISZERO DUP1 ISZERO PUSH2 0x280 JUMPI RETURNDATASIZE PUSH1 0x0 DUP1 RETURNDATACOPY RETURNDATASIZE PUSH1 0x0 REVERT JUMPDEST POP POP POP POP PUSH1 0x40 MLOAD RETURNDATASIZE PUSH1 0x20 DUP2 LT ISZERO PUSH2 0x296 JUMPI PUSH1 0x0 DUP1 REVERT JUMPDEST POP MLOAD PUSH1 0x0 SLOAD SWAP1 SWAP2 POP DUP2 GT PUSH2 0x2E0 JUMPI PUSH1 0x40 DUP1 MLOAD PUSH3 0x461BCD PUSH1 0xE5 SHL DUP2 MSTORE PUSH1 0x20 PUSH1 0x4 DUP3 ADD MSTORE PUSH1 0xC PUSH1 0x24 DUP3 ADD MSTORE PUSH12 0x1B9BDD081D1A5B59481E595D PUSH1 0xA2 SHL PUSH1 0x44 DUP3 ADD MSTORE SWAP1 MLOAD SWAP1 DUP2 SWAP1 SUB PUSH1 0x64 ADD SWAP1 REVERT JUMPDEST PUSH1 0x40 DUP1 MLOAD PUSH4 0x70A08231 PUSH1 0xE0 SHL DUP2 MSTORE PUSH20 0x989AEB4D175E16225E39E87D0D97A3360524AD80 PUSH1 0x4 DUP3 ADD MSTORE SWAP1 MLOAD PUSH1 0x0 SWAP2 PUSH20 0x6C3F90F043A72FA612CBAC8115EE7E52BDE6E490 SWAP2 PUSH4 0x70A08231 SWAP2 PUSH1 0x24 DUP1 DUP3 ADD SWAP3 PUSH1 0x20 SWAP3 SWAP1 SWAP2 SWAP1 DUP3 SWAP1 SUB ADD DUP2 DUP7 DUP1 EXTCODESIZE ISZERO DUP1 ISZERO PUSH2 0x349 JUMPI PUSH1 0x0 DUP1 REVERT JUMPDEST POP GAS STATICCALL ISZERO DUP1 ISZERO PUSH2 0x35D JUMPI RETURNDATASIZE PUSH1 0x0 DUP1 RETURNDATACOPY RETURNDATASIZE PUSH1 0x0 REVERT JUMPDEST POP POP POP POP PUSH1 0x40 MLOAD RETURNDATASIZE PUSH1 0x20 DUP2 LT ISZERO PUSH2 0x373 JUMPI PUSH1 0x0 DUP1 REVERT JUMPDEST POP MLOAD PUSH1 0x40 DUP1 MLOAD PUSH4 0xF41A04D PUSH1 0xE1 SHL DUP2 MSTORE PUSH20 0x989AEB4D175E16225E39E87D0D97A3360524AD80 PUSH1 0x4 DUP3 ADD MSTORE SWAP1 MLOAD SWAP2 SWAP3 POP PUSH20 0xA464E6DCDA8AC41E03616F95F4BC98A13B8922DC SWAP2 PUSH4 0x1E83409A SWAP2 PUSH1 0x24 DUP1 DUP3 ADD SWAP3 PUSH1 0x0 SWAP3 SWAP1 SWAP2 SWAP1 DUP3 SWAP1 SUB ADD DUP2 DUP4 DUP8 DUP1 EXTCODESIZE ISZERO DUP1 ISZERO PUSH2 0x3DF JUMPI PUSH1 0x0 DUP1 REVERT JUMPDEST POP GAS CALL ISZERO DUP1 ISZERO PUSH2 0x3F3 JUMPI RETURNDATASIZE PUSH1 0x0 DUP1 RETURNDATACOPY RETURNDATASIZE PUSH1 0x0 REVERT JUMPDEST POP POP POP POP JUMPDEST PUSH1 0x40 DUP1 MLOAD PUSH4 0x70A08231 PUSH1 0xE0 SHL DUP2 MSTORE PUSH20 0x989AEB4D175E16225E39E87D0D97A3360524AD80 PUSH1 0x4 DUP3 ADD MSTORE SWAP1 MLOAD DUP3 SWAP2 PUSH20 0x6C3F90F043A72FA612CBAC8115EE7E52BDE6E490 SWAP2 PUSH4 0x70A08231 SWAP2 PUSH1 0x24 DUP1 DUP3 ADD SWAP3 PUSH1 0x20 SWAP3 SWAP1 SWAP2 SWAP1 DUP3 SWAP1 SUB ADD DUP2 DUP7 DUP1 EXTCODESIZE ISZERO DUP1 ISZERO PUSH2 0x460 JUMPI PUSH1 0x0 DUP1 REVERT JUMPDEST POP GAS STATICCALL ISZERO DUP1 ISZERO PUSH2 0x474 JUMPI RETURNDATASIZE PUSH1 0x0 DUP1 RETURNDATACOPY RETURNDATASIZE PUSH1 0x0 REVERT JUMPDEST POP POP POP POP PUSH1 0x40 MLOAD RETURNDATASIZE PUSH1 0x20 DUP2 LT ISZERO PUSH2 0x48A JUMPI PUSH1 0x0 DUP1 REVERT JUMPDEST POP MLOAD GT PUSH2 0x514 JUMPI PUSH1 0x40 DUP1 MLOAD PUSH4 0xF41A04D PUSH1 0xE1 SHL DUP2 MSTORE PUSH20 0x989AEB4D175E16225E39E87D0D97A3360524AD80 PUSH1 0x4 DUP3 ADD MSTORE SWAP1 MLOAD PUSH20 0xA464E6DCDA8AC41E03616F95F4BC98A13B8922DC SWAP2 PUSH4 0x1E83409A SWAP2 PUSH1 0x24 DUP1 DUP4 ADD SWAP3 PUSH1 0x0 SWAP3 SWAP2 SWAP1 DUP3 SWAP1 SUB ADD DUP2 DUP4 DUP8 DUP1 EXTCODESIZE ISZERO DUP1 ISZERO PUSH2 0x4F7 JUMPI PUSH1 0x0 DUP1 REVERT JUMPDEST POP GAS CALL ISZERO DUP1 ISZERO PUSH2 0x50B JUMPI RETURNDATASIZE PUSH1 0x0 DUP1 RETURNDATACOPY RETURNDATASIZE PUSH1 0x0 REVERT JUMPDEST POP POP POP POP PUSH2 0x3F8 JUMP JUMPDEST PUSH20 0xF403C135812408BFBE8713B5A23A04B3D48AAE31 PUSH1 0x1 PUSH1 0x1 PUSH1 0xA0 SHL SUB AND PUSH4 0x22230B96 PUSH1 0x40 MLOAD DUP2 PUSH4 0xFFFFFFFF AND PUSH1 0xE0 SHL DUP2 MSTORE PUSH1 0x4 ADD PUSH1 0x20 PUSH1 0x40 MLOAD DUP1 DUP4 SUB DUP2 PUSH1 0x0 DUP8 DUP1 EXTCODESIZE ISZERO DUP1 ISZERO PUSH2 0x563 JUMPI PUSH1 0x0 DUP1 REVERT JUMPDEST POP GAS CALL ISZERO DUP1 ISZERO PUSH2 0x577 JUMPI RETURNDATASIZE PUSH1 0x0 DUP1 RETURNDATACOPY RETURNDATASIZE PUSH1 0x0 REVERT JUMPDEST POP POP POP POP PUSH1 0x40 MLOAD RETURNDATASIZE PUSH1 0x20 DUP2 LT ISZERO PUSH2 0x58D JUMPI PUSH1 0x0 DUP1 REVERT JUMPDEST POP POP POP PUSH1 0x0 SSTORE JUMP INVALID LOG2 PUSH5 0x6970667358 0x22 SLT KECCAK256 POP OR 0xDC PUSH5 0x7C379EB245 0xED PUSH28 0x29C9511F7F7E04803C9DE1BBDB2FCC88679C9EAF9E64736F6C634300 MOD 0xC STOP CALLER "
        },
        "methodIdentifiers": {
          "account()": "5dab2420",
          "booster()": "c6def076",
          "claimFees()": "d294f093",
          "feeClaim()": "74cd6465",
          "getName()": "17d7de7c",
          "lastTokenTime()": "939ea66b",
          "tokenaddress()": "3feff76d",
          "vekgl()": "264f6efa"
        }
      }
    }
  }
}