{
  "_format": "hh-sol-artifact-1",
  "contractName": "BaseRewardPool",
  "sourceName": "contracts/BaseRewardPool.sol",
  "abi": [
    {
      "inputs": [
        {
          "internalType": "uint256",
          "name": "pid_",
          "type": "uint256"
        },
        {
          "internalType": "address",
          "name": "stakingToken_",
          "type": "address"
        },
        {
          "internalType": "address",
          "name": "rewardToken_",
          "type": "address"
        },
        {
          "internalType": "address",
          "name": "operator_",
          "type": "address"
        },
        {
          "internalType": "address",
          "name": "rewardManager_",
          "type": "address"
        }
      ],
      "stateMutability": "nonpayable",
      "type": "constructor"
    },
    {
      "anonymous": false,
      "inputs": [
        {
          "indexed": false,
          "internalType": "uint256",
          "name": "reward",
          "type": "uint256"
        }
      ],
      "name": "RewardAdded",
      "type": "event"
    },
    {
      "anonymous": false,
      "inputs": [
        {
          "indexed": true,
          "internalType": "address",
          "name": "user",
          "type": "address"
        },
        {
          "indexed": false,
          "internalType": "uint256",
          "name": "reward",
          "type": "uint256"
        }
      ],
      "name": "RewardPaid",
      "type": "event"
    },
    {
      "anonymous": false,
      "inputs": [
        {
          "indexed": false,
          "internalType": "uint256",
          "name": "rewards",
          "type": "uint256"
        }
      ],
      "name": "RewardsQueued",
      "type": "event"
    },
    {
      "anonymous": false,
      "inputs": [
        {
          "indexed": true,
          "internalType": "address",
          "name": "user",
          "type": "address"
        },
        {
          "indexed": false,
          "internalType": "uint256",
          "name": "amount",
          "type": "uint256"
        }
      ],
      "name": "Staked",
      "type": "event"
    },
    {
      "anonymous": false,
      "inputs": [
        {
          "indexed": true,
          "internalType": "address",
          "name": "user",
          "type": "address"
        },
        {
          "indexed": false,
          "internalType": "uint256",
          "name": "amount",
          "type": "uint256"
        }
      ],
      "name": "Withdrawn",
      "type": "event"
    },
    {
      "inputs": [
        {
          "internalType": "address",
          "name": "_reward",
          "type": "address"
        }
      ],
      "name": "addExtraReward",
      "outputs": [
        {
          "internalType": "bool",
          "name": "",
          "type": "bool"
        }
      ],
      "stateMutability": "nonpayable",
      "type": "function"
    },
    {
      "inputs": [
        {
          "internalType": "address",
          "name": "account",
          "type": "address"
        }
      ],
      "name": "balanceOf",
      "outputs": [
        {
          "internalType": "uint256",
          "name": "",
          "type": "uint256"
        }
      ],
      "stateMutability": "view",
      "type": "function"
    },
    {
      "inputs": [],
      "name": "clearExtraRewards",
      "outputs": [],
      "stateMutability": "nonpayable",
      "type": "function"
    },
    {
      "inputs": [],
      "name": "currentRewards",
      "outputs": [
        {
          "internalType": "uint256",
          "name": "",
          "type": "uint256"
        }
      ],
      "stateMutability": "view",
      "type": "function"
    },
    {
      "inputs": [
        {
          "internalType": "uint256",
          "name": "_amount",
          "type": "uint256"
        }
      ],
      "name": "donate",
      "outputs": [
        {
          "internalType": "bool",
          "name": "",
          "type": "bool"
        }
      ],
      "stateMutability": "nonpayable",
      "type": "function"
    },
    {
      "inputs": [],
      "name": "duration",
      "outputs": [
        {
          "internalType": "uint256",
          "name": "",
          "type": "uint256"
        }
      ],
      "stateMutability": "view",
      "type": "function"
    },
    {
      "inputs": [
        {
          "internalType": "address",
          "name": "account",
          "type": "address"
        }
      ],
      "name": "earned",
      "outputs": [
        {
          "internalType": "uint256",
          "name": "",
          "type": "uint256"
        }
      ],
      "stateMutability": "view",
      "type": "function"
    },
    {
      "inputs": [
        {
          "internalType": "uint256",
          "name": "",
          "type": "uint256"
        }
      ],
      "name": "extraRewards",
      "outputs": [
        {
          "internalType": "address",
          "name": "",
          "type": "address"
        }
      ],
      "stateMutability": "view",
      "type": "function"
    },
    {
      "inputs": [],
      "name": "extraRewardsLength",
      "outputs": [
        {
          "internalType": "uint256",
          "name": "",
          "type": "uint256"
        }
      ],
      "stateMutability": "view",
      "type": "function"
    },
    {
      "inputs": [],
      "name": "getReward",
      "outputs": [
        {
          "internalType": "bool",
          "name": "",
          "type": "bool"
        }
      ],
      "stateMutability": "nonpayable",
      "type": "function"
    },
    {
      "inputs": [
        {
          "internalType": "address",
          "name": "_account",
          "type": "address"
        },
        {
          "internalType": "bool",
          "name": "_claimExtras",
          "type": "bool"
        }
      ],
      "name": "getReward",
      "outputs": [
        {
          "internalType": "bool",
          "name": "",
          "type": "bool"
        }
      ],
      "stateMutability": "nonpayable",
      "type": "function"
    },
    {
      "inputs": [],
      "name": "historicalRewards",
      "outputs": [
        {
          "internalType": "uint256",
          "name": "",
          "type": "uint256"
        }
      ],
      "stateMutability": "view",
      "type": "function"
    },
    {
      "inputs": [],
      "name": "lastTimeRewardApplicable",
      "outputs": [
        {
          "internalType": "uint256",
          "name": "",
          "type": "uint256"
        }
      ],
      "stateMutability": "view",
      "type": "function"
    },
    {
      "inputs": [],
      "name": "lastUpdateTime",
      "outputs": [
        {
          "internalType": "uint256",
          "name": "",
          "type": "uint256"
        }
      ],
      "stateMutability": "view",
      "type": "function"
    },
    {
      "inputs": [],
      "name": "newRewardRatio",
      "outputs": [
        {
          "internalType": "uint256",
          "name": "",
          "type": "uint256"
        }
      ],
      "stateMutability": "view",
      "type": "function"
    },
    {
      "inputs": [],
      "name": "operator",
      "outputs": [
        {
          "internalType": "address",
          "name": "",
          "type": "address"
        }
      ],
      "stateMutability": "view",
      "type": "function"
    },
    {
      "inputs": [],
      "name": "periodFinish",
      "outputs": [
        {
          "internalType": "uint256",
          "name": "",
          "type": "uint256"
        }
      ],
      "stateMutability": "view",
      "type": "function"
    },
    {
      "inputs": [],
      "name": "pid",
      "outputs": [
        {
          "internalType": "uint256",
          "name": "",
          "type": "uint256"
        }
      ],
      "stateMutability": "view",
      "type": "function"
    },
    {
      "inputs": [
        {
          "internalType": "uint256",
          "name": "_rewards",
          "type": "uint256"
        }
      ],
      "name": "queueNewRewards",
      "outputs": [
        {
          "internalType": "bool",
          "name": "",
          "type": "bool"
        }
      ],
      "stateMutability": "nonpayable",
      "type": "function"
    },
    {
      "inputs": [],
      "name": "queuedRewards",
      "outputs": [
        {
          "internalType": "uint256",
          "name": "",
          "type": "uint256"
        }
      ],
      "stateMutability": "view",
      "type": "function"
    },
    {
      "inputs": [],
      "name": "rewardManager",
      "outputs": [
        {
          "internalType": "address",
          "name": "",
          "type": "address"
        }
      ],
      "stateMutability": "view",
      "type": "function"
    },
    {
      "inputs": [],
      "name": "rewardPerToken",
      "outputs": [
        {
          "internalType": "uint256",
          "name": "",
          "type": "uint256"
        }
      ],
      "stateMutability": "view",
      "type": "function"
    },
    {
      "inputs": [],
      "name": "rewardPerTokenStored",
      "outputs": [
        {
          "internalType": "uint256",
          "name": "",
          "type": "uint256"
        }
      ],
      "stateMutability": "view",
      "type": "function"
    },
    {
      "inputs": [],
      "name": "rewardRate",
      "outputs": [
        {
          "internalType": "uint256",
          "name": "",
          "type": "uint256"
        }
      ],
      "stateMutability": "view",
      "type": "function"
    },
    {
      "inputs": [],
      "name": "rewardToken",
      "outputs": [
        {
          "internalType": "contract IERC20",
          "name": "",
          "type": "address"
        }
      ],
      "stateMutability": "view",
      "type": "function"
    },
    {
      "inputs": [
        {
          "internalType": "address",
          "name": "",
          "type": "address"
        }
      ],
      "name": "rewards",
      "outputs": [
        {
          "internalType": "uint256",
          "name": "",
          "type": "uint256"
        }
      ],
      "stateMutability": "view",
      "type": "function"
    },
    {
      "inputs": [
        {
          "internalType": "uint256",
          "name": "_amount",
          "type": "uint256"
        }
      ],
      "name": "stake",
      "outputs": [
        {
          "internalType": "bool",
          "name": "",
          "type": "bool"
        }
      ],
      "stateMutability": "nonpayable",
      "type": "function"
    },
    {
      "inputs": [],
      "name": "stakeAll",
      "outputs": [
        {
          "internalType": "bool",
          "name": "",
          "type": "bool"
        }
      ],
      "stateMutability": "nonpayable",
      "type": "function"
    },
    {
      "inputs": [
        {
          "internalType": "address",
          "name": "_for",
          "type": "address"
        },
        {
          "internalType": "uint256",
          "name": "_amount",
          "type": "uint256"
        }
      ],
      "name": "stakeFor",
      "outputs": [
        {
          "internalType": "bool",
          "name": "",
          "type": "bool"
        }
      ],
      "stateMutability": "nonpayable",
      "type": "function"
    },
    {
      "inputs": [],
      "name": "stakingToken",
      "outputs": [
        {
          "internalType": "contract IERC20",
          "name": "",
          "type": "address"
        }
      ],
      "stateMutability": "view",
      "type": "function"
    },
    {
      "inputs": [],
      "name": "totalSupply",
      "outputs": [
        {
          "internalType": "uint256",
          "name": "",
          "type": "uint256"
        }
      ],
      "stateMutability": "view",
      "type": "function"
    },
    {
      "inputs": [
        {
          "internalType": "address",
          "name": "",
          "type": "address"
        }
      ],
      "name": "userRewardPerTokenPaid",
      "outputs": [
        {
          "internalType": "uint256",
          "name": "",
          "type": "uint256"
        }
      ],
      "stateMutability": "view",
      "type": "function"
    },
    {
      "inputs": [
        {
          "internalType": "uint256",
          "name": "amount",
          "type": "uint256"
        },
        {
          "internalType": "bool",
          "name": "claim",
          "type": "bool"
        }
      ],
      "name": "withdraw",
      "outputs": [
        {
          "internalType": "bool",
          "name": "",
          "type": "bool"
        }
      ],
      "stateMutability": "nonpayable",
      "type": "function"
    },
    {
      "inputs": [
        {
          "internalType": "bool",
          "name": "claim",
          "type": "bool"
        }
      ],
      "name": "withdrawAll",
      "outputs": [],
      "stateMutability": "nonpayable",
      "type": "function"
    },
    {
      "inputs": [
        {
          "internalType": "bool",
          "name": "claim",
          "type": "bool"
        }
      ],
      "name": "withdrawAllAndUnwrap",
      "outputs": [],
      "stateMutability": "nonpayable",
      "type": "function"
    },
    {
      "inputs": [
        {
          "internalType": "uint256",
          "name": "amount",
          "type": "uint256"
        },
        {
          "internalType": "bool",
          "name": "claim",
          "type": "bool"
        }
      ],
      "name": "withdrawAndUnwrap",
      "outputs": [
        {
          "internalType": "bool",
          "name": "",
          "type": "bool"
        }
      ],
      "stateMutability": "nonpayable",
      "type": "function"
    }
  ],
  "bytecode": "0x60806040526000600555600060065560006009556000600a556000600b5534801561002957600080fd5b50604051611bd6380380611bd6833981810160405260a081101561004c57600080fd5b508051602082015160408301516060840151608090940151600493909355600180546001600160a01b03199081166001600160a01b039485161790915560008054821692841692909217825560028054821695841695909517909455600380549094169190921617909155611b0f9081906100c790396000f3fe608060405234801561001057600080fd5b506004361061021b5760003560e01c80637050ccd911610125578063c32e7202116100ad578063df136d651161007c578063df136d65146104e3578063ebe2b12b146104eb578063f1068454146104f3578063f14faf6f146104fb578063f7c618c1146105185761021b565b8063c32e7202146104a6578063c8f33c91146104cb578063cd3daf9d146104d3578063d55a23f4146104db5761021b565b806380faa57d116100f457806380faa57d1461044b5780638b876347146104535780638dcb406114610479578063901a7d5314610481578063a694fc3a146104895761021b565b80637050ccd9146103e757806370a082311461041557806372f702f31461043b5780637b0a47ee146104435761021b565b806338d07436116101a8578063570ca73511610177578063570ca7351461038c578063590a41f5146103945780635e43c47b146103b157806363d38c3b146103d75780636c8bcee8146103df5761021b565b806338d07436146103235780633d18b9121461034857806340c354461461035057806349f039a21461036d5761021b565b80630fb5a6b4116101ef5780630fb5a6b4146102ac57806318160ddd146102b45780631c1c6fe5146102bc578063262d3d6d146102db5780632ee40908146102e35761021b565b80628cc262146102205780630569d388146102585780630700037d146102625780630f4ef8a614610288575b600080fd5b6102466004803603602081101561023657600080fd5b50356001600160a01b0316610520565b60408051918252519081900360200190f35b610260610590565b005b6102466004803603602081101561027857600080fd5b50356001600160a01b03166105eb565b6102906105fd565b604080516001600160a01b039092168252519081900360200190f35b61024661060c565b610246610613565b610260600480360360208110156102d257600080fd5b5035151561061a565b610246610638565b61030f600480360360408110156102f957600080fd5b506001600160a01b03813516906020013561063e565b604080519115158252519081900360200190f35b61030f6004803603604081101561033957600080fd5b50803590602001351515610831565b61030f610a20565b6102906004803603602081101561036657600080fd5b5035610a35565b6102606004803603602081101561038357600080fd5b50351515610a5c565b610290610a76565b61030f600480360360208110156103aa57600080fd5b5035610a85565b61030f600480360360208110156103c757600080fd5b50356001600160a01b0316610ba5565b610246610c96565b610246610c9c565b61030f600480360360408110156103fd57600080fd5b506001600160a01b0381351690602001351515610ca2565b6102466004803603602081101561042b57600080fd5b50356001600160a01b0316610e95565b610290610eb0565b610246610ebf565b610246610ec5565b6102466004803603602081101561046957600080fd5b50356001600160a01b0316610ed8565b61030f610eea565b610246610f7a565b61030f6004803603602081101561049f57600080fd5b5035610f80565b61030f600480360360408110156104bc57600080fd5b5080359060200135151561115c565b610246611341565b610246611347565b610246611395565b61024661139b565b6102466113a1565b6102466113a7565b61030f6004803603602081101561051157600080fd5b50356113ad565b6102906113db565b6001600160a01b0381166000908152600e6020908152604080832054600d909252822054610588919061058290670de0b6b3a76400009061057c9061056d90610567611347565b906113ea565b61057688610e95565b9061144c565b906114ac565b90611513565b90505b919050565b6003546001600160a01b031633146105dd576040805162461bcd60e51b815260206004820152600b60248201526a08585d5d1a1bdc9a5e995960aa1b604482015290519081900360640190fd5b6105e960106000611a2e565b565b600e6020526000908152604090205481565b6003546001600160a01b031681565b62093a8081565b600c545b90565b336000908152600f60205260409020546106349082610831565b5050565b600b5481565b600082610649611347565b600855610654610ec5565b6007556001600160a01b0381161561069b5761066f81610520565b6001600160a01b0382166000908152600e6020908152604080832093909355600854600d909152919020555b600083116106f0576040805162461bcd60e51b815260206004820152601b60248201527f526577617264506f6f6c203a2043616e6e6f74207374616b6520300000000000604482015290519081900360640190fd5b60005b601054811015610787576010818154811061070a57fe5b6000918252602082200154604080516356e4bb9760e11b81526001600160a01b038981166004830152602482018990529151919092169263adc9772e926044808201939182900301818387803b15801561076357600080fd5b505af1158015610777573d6000803e3d6000fd5b5050600190920191506106f39050565b50600c546107959084611513565b600c556001600160a01b0384166000908152600f60205260409020546107bb9084611513565b6001600160a01b038086166000908152600f60205260409020919091556001546107e8911633308661156d565b6040805184815290516001600160a01b038616917f9e71bc8eea02a63969f509818f2dafb9254532904319f9dbda79b67bd34a5f3d919081900360200190a25060019392505050565b60003361083c611347565b600855610847610ec5565b6007556001600160a01b0381161561088e5761086281610520565b6001600160a01b0382166000908152600e6020908152604080832093909355600854600d909152919020555b600084116108e3576040805162461bcd60e51b815260206004820152601e60248201527f526577617264506f6f6c203a2043616e6e6f7420776974686472617720300000604482015290519081900360640190fd5b60005b60105481101561097657601081815481106108fd57fe5b60009182526020822001546040805163f3fef3a360e01b81523360048201526024810189905290516001600160a01b039092169263f3fef3a39260448084019382900301818387803b15801561095257600080fd5b505af1158015610966573d6000803e3d6000fd5b5050600190920191506108e69050565b50600c5461098490856113ea565b600c55336000908152600f60205260409020546109a190856113ea565b336000818152600f60205260409020919091556001546109cd916001600160a01b0390911690866115cd565b60408051858152905133917f7084f5476618d8e60b11ef0d7d3f06914655adb8793e28ff7f018d4c76d505d5919081900360200190a28215610a1657610a14336001610ca2565b505b5060019392505050565b6000610a2d336001610ca2565b506001905090565b60108181548110610a4257fe5b6000918252602090912001546001600160a01b0316905081565b336000908152600f6020526040902054610634908261115c565b6002546001600160a01b031681565b6002546000906001600160a01b03163314610ad5576040805162461bcd60e51b815260206004820152600b60248201526a08585d5d1a1bdc9a5e995960aa1b604482015290519081900360640190fd5b600954610ae3908390611513565b91506005544210610b0457610af782611624565b506000600955600161058b565b6000610b28610b2162093a806005546113ea90919063ffffffff16565b42906113ea565b60065490915081026000610b428561057c846103e861144c565b905061033e811015610b6157610b5785611624565b6000600955610b67565b60098590555b6040805186815290517f63f6a4ec625b1e1df5efae2d3f3b06873a79745a42ab252979bf961f2f9d0e279181900360200190a1506001949350505050565b6003546000906001600160a01b03163314610bf5576040805162461bcd60e51b815260206004820152600b60248201526a08585d5d1a1bdc9a5e995960aa1b604482015290519081900360640190fd5b6001600160a01b038216610c42576040805162461bcd60e51b815260206004820152600f60248201526e217265776172642073657474696e6760881b604482015290519081900360640190fd5b5060108054600181810183556000929092527f1b6847dc741a1b0cd08d278845f9d819d87b734759afb55fe2de5cb82a9ae6720180546001600160a01b0384166001600160a01b0319909116179055919050565b60095481565b61033e81565b600082610cad611347565b600855610cb8610ec5565b6007556001600160a01b03811615610cff57610cd381610520565b6001600160a01b0382166000908152600e6020908152604080832093909355600854600d909152919020555b6000610d0a85610520565b90508015610df2576001600160a01b038086166000908152600e6020526040812081905554610d3b911686836115cd565b60025460048054604080516371192b1760e01b8152928301919091526001600160a01b0388811660248401526044830185905290519216916371192b179160648082019260009290919082900301818387803b158015610d9a57600080fd5b505af1158015610dae573d6000803e3d6000fd5b50506040805184815290516001600160a01b03891693507fe2403640ba68fed3a2f88b7557551d1993f84b99bb10ff833f0cf8db0c5e048692509081900360200190a25b8315610e8a5760005b601054811015610e885760108181548110610e1257fe5b600091825260208220015460408051630c00007b60e41b81526001600160a01b038a811660048301529151919092169263c00007b0926024808201939182900301818387803b158015610e6457600080fd5b505af1158015610e78573d6000803e3d6000fd5b505060019092019150610dfb9050565b505b506001949350505050565b6001600160a01b03166000908152600f602052604090205490565b6001546001600160a01b031681565b60065481565b6000610ed34260055461174a565b905090565b600d6020526000908152604090205481565b600154604080516370a0823160e01b8152336004820152905160009283926001600160a01b03909116916370a0823191602480820192602092909190829003018186803b158015610f3a57600080fd5b505afa158015610f4e573d6000803e3d6000fd5b505050506040513d6020811015610f6457600080fd5b50519050610f7181610f80565b50600191505090565b600a5481565b600033610f8b611347565b600855610f96610ec5565b6007556001600160a01b03811615610fdd57610fb181610520565b6001600160a01b0382166000908152600e6020908152604080832093909355600854600d909152919020555b60008311611032576040805162461bcd60e51b815260206004820152601b60248201527f526577617264506f6f6c203a2043616e6e6f74207374616b6520300000000000604482015290519081900360640190fd5b60005b6010548110156110c5576010818154811061104c57fe5b6000918252602082200154604080516356e4bb9760e11b81523360048201526024810188905290516001600160a01b039092169263adc9772e9260448084019382900301818387803b1580156110a157600080fd5b505af11580156110b5573d6000803e3d6000fd5b5050600190920191506110359050565b50600c546110d39084611513565b600c55336000908152600f60205260409020546110f09084611513565b336000818152600f602052604090209190915560015461111d916001600160a01b0390911690308661156d565b60408051848152905133917f9e71bc8eea02a63969f509818f2dafb9254532904319f9dbda79b67bd34a5f3d919081900360200190a250600192915050565b600033611167611347565b600855611172610ec5565b6007556001600160a01b038116156111b95761118d81610520565b6001600160a01b0382166000908152600e6020908152604080832093909355600854600d909152919020555b60005b60105481101561124c57601081815481106111d357fe5b60009182526020822001546040805163f3fef3a360e01b81523360048201526024810189905290516001600160a01b039092169263f3fef3a39260448084019382900301818387803b15801561122857600080fd5b505af115801561123c573d6000803e3d6000fd5b5050600190920191506111bc9050565b50600c5461125a90856113ea565b600c55336000908152600f602052604090205461127790856113ea565b336000818152600f6020526040808220939093556002546004805485516305335c3960e21b81529182015260248101899052604481019390935292516001600160a01b03909316926314cd70e492606480820193929182900301818387803b1580156112e257600080fd5b505af11580156112f6573d6000803e3d6000fd5b50506040805187815290513393507f7084f5476618d8e60b11ef0d7d3f06914655adb8793e28ff7f018d4c76d505d592509081900360200190a28215610a1657610a14336001610ca2565b60075481565b6000611351610613565b61135e5750600854610617565b610ed361138c61136c610613565b61057c670de0b6b3a7640000610576600654610576600754610567610ec5565b60085490611513565b60105490565b60085481565b60055481565b60045481565b600080546113c6906001600160a01b031633308561156d565b6009546113d39083611513565b600955919050565b6000546001600160a01b031681565b600082821115611441576040805162461bcd60e51b815260206004820152601e60248201527f536166654d6174683a207375627472616374696f6e206f766572666c6f770000604482015290519081900360640190fd5b508082035b92915050565b60008261145b57506000611446565b8282028284828161146857fe5b04146114a55760405162461bcd60e51b8152600401808060200182810382526021815260200180611a8f6021913960400191505060405180910390fd5b9392505050565b6000808211611502576040805162461bcd60e51b815260206004820152601a60248201527f536166654d6174683a206469766973696f6e206279207a65726f000000000000604482015290519081900360640190fd5b81838161150b57fe5b049392505050565b6000828201838110156114a5576040805162461bcd60e51b815260206004820152601b60248201527f536166654d6174683a206164646974696f6e206f766572666c6f770000000000604482015290519081900360640190fd5b604080516001600160a01b0380861660248301528416604482015260648082018490528251808303909101815260849091019091526020810180516001600160e01b03166323b872dd60e01b1790526115c7908590611760565b50505050565b604080516001600160a01b038416602482015260448082018490528251808303909101815260649091019091526020810180516001600160e01b031663a9059cbb60e01b17905261161f908490611760565b505050565b600061162e611347565b600855611639610ec5565b6007556001600160a01b038116156116805761165481610520565b6001600160a01b0382166000908152600e6020908152604080832093909355600854600d909152919020555b600b5461168d9083611513565b600b5560055442106116ae576116a68262093a806114ac565b6006556116f8565b6005546000906116be90426113ea565b905060006116d76006548361144c90919063ffffffff16565b90506116e38482611513565b93506116f28462093a806114ac565b60065550505b600a8290554260078190556117109062093a80611513565b6005556040805183815290517fde88a922e0d3b88b24e9623efeb464919c6bf9f66857a65e2bfcf2ce87a9433d9181900360200190a15050565b600081831061175957816114a5565b5090919050565b60606117b5826040518060400160405280602081526020017f5361666545524332303a206c6f772d6c6576656c2063616c6c206661696c6564815250856001600160a01b03166118119092919063ffffffff16565b80519091501561161f578080602001905160208110156117d457600080fd5b505161161f5760405162461bcd60e51b815260040180806020018281038252602a815260200180611ab0602a913960400191505060405180910390fd5b60606118208484600085611828565b949350505050565b6060824710156118695760405162461bcd60e51b8152600401808060200182810382526026815260200180611a696026913960400191505060405180910390fd5b61187285611984565b6118c3576040805162461bcd60e51b815260206004820152601d60248201527f416464726573733a2063616c6c20746f206e6f6e2d636f6e7472616374000000604482015290519081900360640190fd5b60006060866001600160a01b031685876040518082805190602001908083835b602083106119025780518252601f1990920191602091820191016118e3565b6001836020036101000a03801982511681845116808217855250505050505090500191505060006040518083038185875af1925050503d8060008114611964576040519150601f19603f3d011682016040523d82523d6000602084013e611969565b606091505b509150915061197982828661198a565b979650505050505050565b3b151590565b606083156119995750816114a5565b8251156119a95782518084602001fd5b8160405162461bcd60e51b81526004018080602001828103825283818151815260200191508051906020019080838360005b838110156119f35781810151838201526020016119db565b50505050905090810190601f168015611a205780820380516001836020036101000a031916815260200191505b509250505060405180910390fd5b5080546000825590600052602060002090810190611a4c9190611a4f565b50565b5b80821115611a645760008155600101611a50565b509056fe416464726573733a20696e73756666696369656e742062616c616e636520666f722063616c6c536166654d6174683a206d756c7469706c69636174696f6e206f766572666c6f775361666545524332303a204552433230206f7065726174696f6e20646964206e6f742073756363656564a26469706673582212209069e1423e45fd57f326082cc410e888a502c4dc147f3f099d23a67ce49057fd64736f6c634300060c0033",
  "linkReferences": {},
  "deployedLinkReferences": {}
}