{
  "_format": "hh-sol-artifact-1",
  "contractName": "ChefExtraRewards",
  "sourceName": "contracts/ChefExtraRewards.sol",
  "abi": [
    {
      "inputs": [
        {
          "internalType": "address",
          "name": "chef_",
          "type": "address"
        },
        {
          "internalType": "address",
          "name": "reward_",
          "type": "address"
        }
      ],
      "stateMutability": "nonpayable",
      "type": "constructor"
    },
    {
      "inputs": [],
      "name": "chef",
      "outputs": [
        {
          "internalType": "address",
          "name": "",
          "type": "address"
        }
      ],
      "stateMutability": "view",
      "type": "function"
    },
    {
      "inputs": [
        {
          "internalType": "uint256",
          "name": "_pid",
          "type": "uint256"
        },
        {
          "internalType": "address",
          "name": "_account",
          "type": "address"
        },
        {
          "internalType": "address",
          "name": "_recipient",
          "type": "address"
        },
        {
          "internalType": "uint256",
          "name": "_sushiAmount",
          "type": "uint256"
        },
        {
          "internalType": "uint256",
          "name": "_newLpAmount",
          "type": "uint256"
        }
      ],
      "name": "onReward",
      "outputs": [],
      "stateMutability": "nonpayable",
      "type": "function"
    },
    {
      "inputs": [
        {
          "internalType": "uint256",
          "name": "_pid",
          "type": "uint256"
        },
        {
          "internalType": "address",
          "name": "_account",
          "type": "address"
        },
        {
          "internalType": "uint256",
          "name": "_sushiAmount",
          "type": "uint256"
        }
      ],
      "name": "pendingTokens",
      "outputs": [
        {
          "internalType": "contract IERC20[]",
          "name": "",
          "type": "address[]"
        },
        {
          "internalType": "uint256[]",
          "name": "",
          "type": "uint256[]"
        }
      ],
      "stateMutability": "view",
      "type": "function"
    },
    {
      "inputs": [],
      "name": "rewardToken",
      "outputs": [
        {
          "internalType": "contract IERC20",
          "name": "",
          "type": "address"
        }
      ],
      "stateMutability": "view",
      "type": "function"
    }
  ],
  "bytecode": "0x608060405234801561001057600080fd5b506040516107793803806107798339818101604052604081101561003357600080fd5b508051602090910151600180546001600160a01b039384166001600160a01b031991821617909155600080549390921692169190911790556106ff8061007a6000396000f3fe608060405234801561001057600080fd5b506004361061004c5760003560e01c80631fc8bc5d1461005157806344af0fa714610075578063d63b3c49146100b9578063f7c618c114610184575b600080fd5b61005961018c565b604080516001600160a01b039092168252519081900360200190f35b6100b7600480360360a081101561008b57600080fd5b508035906001600160a01b0360208201358116916040810135909116906060810135906080013561019b565b005b6100eb600480360360608110156100cf57600080fd5b508035906001600160a01b0360208201351690604001356101f3565b604051808060200180602001838103835285818151815260200191508051906020019060200280838360005b8381101561012f578181015183820152602001610117565b50505050905001838103825284818151815260200191508051906020019060200280838360005b8381101561016e578181015183820152602001610156565b5050505090500194505050505060405180910390f35b610059610293565b6001546001600160a01b031681565b6001546001600160a01b031633146101e2576040805162461bcd60e51b8152602060048201526005602482015264042c2eae8d60db1b604482015290519081900360640190fd5b6101ec83836102a2565b5050505050565b604080516001808252818301909252606091829182916020808301908036833750506000805483519394506001600160a01b03169284925061023157fe5b6001600160a01b039290921660209283029190910190910152604080516001808252818301909252606091816020016020820280368337019050509050848160008151811061027c57fe5b602090810291909101015290969095509350505050565b6000546001600160a01b031681565b60008054604080516370a0823160e01b815230600482015290516001600160a01b03909216916370a0823191602480820192602092909190829003018186803b1580156102ee57600080fd5b505afa158015610302573d6000803e3d6000fd5b505050506040513d602081101561031857600080fd5b50519050808211156103405760005461033b906001600160a01b0316848361035c565b610357565b600054610357906001600160a01b0316848461035c565b505050565b604080516001600160a01b038416602482015260448082018490528251808303909101815260649091019091526020810180516001600160e01b031663a9059cbb60e01b17905261035790849060606103fe826040518060400160405280602081526020017f5361666545524332303a206c6f772d6c6576656c2063616c6c206661696c6564815250856001600160a01b031661045a9092919063ffffffff16565b8051909150156103575780806020019051602081101561041d57600080fd5b50516103575760405162461bcd60e51b815260040180806020018281038252602a8152602001806106a0602a913960400191505060405180910390fd5b60606104698484600085610473565b90505b9392505050565b6060824710156104b45760405162461bcd60e51b815260040180806020018281038252602681526020018061067a6026913960400191505060405180910390fd5b6104bd856105cf565b61050e576040805162461bcd60e51b815260206004820152601d60248201527f416464726573733a2063616c6c20746f206e6f6e2d636f6e7472616374000000604482015290519081900360640190fd5b60006060866001600160a01b031685876040518082805190602001908083835b6020831061054d5780518252601f19909201916020918201910161052e565b6001836020036101000a03801982511681845116808217855250505050505090500191505060006040518083038185875af1925050503d80600081146105af576040519150601f19603f3d011682016040523d82523d6000602084013e6105b4565b606091505b50915091506105c48282866105d5565b979650505050505050565b3b151590565b606083156105e457508161046c565b8251156105f45782518084602001fd5b8160405162461bcd60e51b81526004018080602001828103825283818151815260200191508051906020019080838360005b8381101561063e578181015183820152602001610626565b50505050905090810190601f16801561066b5780820380516001836020036101000a031916815260200191505b509250505060405180910390fdfe416464726573733a20696e73756666696369656e742062616c616e636520666f722063616c6c5361666545524332303a204552433230206f7065726174696f6e20646964206e6f742073756363656564a2646970667358221220db01c910888421dff11d0c05a07e9c18ebc9d319ea12641bb246be12b728e67364736f6c634300060c0033",
  "linkReferences": {},
  "deployedLinkReferences": {}
}