{
  "_format": "hh-sol-artifact-1",
  "contractName": "PoolManagerV3",
  "sourceName": "contracts/PoolManagerV3.sol",
  "abi": [
    {
      "inputs": [
        {
          "internalType": "address",
          "name": "_pools",
          "type": "address"
        },
        {
          "internalType": "address",
          "name": "_gaugeController",
          "type": "address"
        }
      ],
      "stateMutability": "nonpayable",
      "type": "constructor"
    },
    {
      "inputs": [
        {
          "internalType": "address",
          "name": "_gauge",
          "type": "address"
        },
        {
          "internalType": "uint256",
          "name": "_stashVersion",
          "type": "uint256"
        }
      ],
      "name": "addPool",
      "outputs": [
        {
          "internalType": "bool",
          "name": "",
          "type": "bool"
        }
      ],
      "stateMutability": "nonpayable",
      "type": "function"
    },
    {
      "inputs": [
        {
          "internalType": "address",
          "name": "_gauge",
          "type": "address"
        }
      ],
      "name": "addPool",
      "outputs": [
        {
          "internalType": "bool",
          "name": "",
          "type": "bool"
        }
      ],
      "stateMutability": "nonpayable",
      "type": "function"
    },
    {
      "inputs": [
        {
          "internalType": "address",
          "name": "_lptoken",
          "type": "address"
        },
        {
          "internalType": "address",
          "name": "_gauge",
          "type": "address"
        },
        {
          "internalType": "uint256",
          "name": "_stashVersion",
          "type": "uint256"
        }
      ],
      "name": "forceAddPool",
      "outputs": [
        {
          "internalType": "bool",
          "name": "",
          "type": "bool"
        }
      ],
      "stateMutability": "nonpayable",
      "type": "function"
    },
    {
      "inputs": [],
      "name": "gaugeController",
      "outputs": [
        {
          "internalType": "address",
          "name": "",
          "type": "address"
        }
      ],
      "stateMutability": "view",
      "type": "function"
    },
    {
      "inputs": [],
      "name": "operator",
      "outputs": [
        {
          "internalType": "address",
          "name": "",
          "type": "address"
        }
      ],
      "stateMutability": "view",
      "type": "function"
    },
    {
      "inputs": [],
      "name": "pools",
      "outputs": [
        {
          "internalType": "address",
          "name": "",
          "type": "address"
        }
      ],
      "stateMutability": "view",
      "type": "function"
    },
    {
      "inputs": [
        {
          "internalType": "address",
          "name": "_gaugeController",
          "type": "address"
        }
      ],
      "name": "setGaugeController",
      "outputs": [],
      "stateMutability": "nonpayable",
      "type": "function"
    },
    {
      "inputs": [
        {
          "internalType": "address",
          "name": "_operator",
          "type": "address"
        }
      ],
      "name": "setOperator",
      "outputs": [],
      "stateMutability": "nonpayable",
      "type": "function"
    },
    {
      "inputs": [
        {
          "internalType": "uint256",
          "name": "_pid",
          "type": "uint256"
        }
      ],
      "name": "shutdownPool",
      "outputs": [
        {
          "internalType": "bool",
          "name": "",
          "type": "bool"
        }
      ],
      "stateMutability": "nonpayable",
      "type": "function"
    }
  ],
  "bytecode": "0x60a060405234801561001057600080fd5b506040516106e83803806106e88339818101604052604081101561003357600080fd5b50805160209091015160018054336001600160a01b031991821617909155606083901b6001600160601b031916608052600080549091166001600160a01b03928316178155911690610647906100a19039806102ab52806103b152806104c3528061059552506106476000f3fe608060405234801561001057600080fd5b50600436106100925760003560e01c806360cafe841161006657806360cafe841461015957806399eecb3b14610176578063b3ab15fb1461017e578063c5c51dca146101a4578063d914cd4b146101ac57610092565b806291d2b81461009757806332a9caba146100bf578063570ca735146100ff5780635744887d14610123575b600080fd5b6100bd600480360360208110156100ad57600080fd5b50356001600160a01b03166101d2565b005b6100eb600480360360408110156100d557600080fd5b506001600160a01b03813516906020013561023b565b604080519115158252519081900360200190f35b610107610250565b604080516001600160a01b039092168252519081900360200190f35b6100eb6004803603606081101561013957600080fd5b506001600160a01b0381358116916020810135909116906040013561025f565b6100eb6004803603602081101561016f57600080fd5b5035610365565b610107610449565b6100bd6004803603602081101561019457600080fd5b50356001600160a01b0316610458565b6101076104c1565b6100eb600480360360208110156101c257600080fd5b50356001600160a01b03166104e5565b6001546001600160a01b03163314610219576040805162461bcd60e51b8152602060048201526005602482015264042c2eae8d60db1b604482015290519081900360640190fd5b600080546001600160a01b0319166001600160a01b0392909216919091179055565b600061024783836104fa565b50600192915050565b6001546001600160a01b031681565b6001546000906001600160a01b031633146102a9576040805162461bcd60e51b8152602060048201526005602482015264042c2eae8d60db1b604482015290519081900360640190fd5b7f00000000000000000000000000000000000000000000000000000000000000006001600160a01b0316635744887d8585856040518463ffffffff1660e01b815260040180846001600160a01b03168152602001836001600160a01b031681526020018281526020019350505050602060405180830381600087803b15801561033157600080fd5b505af1158015610345573d6000803e3d6000fd5b505050506040513d602081101561035b57600080fd5b5051949350505050565b6001546000906001600160a01b031633146103af576040805162461bcd60e51b8152602060048201526005602482015264042c2eae8d60db1b604482015290519081900360640190fd5b7f00000000000000000000000000000000000000000000000000000000000000006001600160a01b03166360cafe84836040518263ffffffff1660e01b815260040180828152602001915050602060405180830381600087803b15801561041557600080fd5b505af1158015610429573d6000803e3d6000fd5b505050506040513d602081101561043f57600080fd5b5060019392505050565b6000546001600160a01b031681565b6001546001600160a01b0316331461049f576040805162461bcd60e51b8152602060048201526005602482015264042c2eae8d60db1b604482015290519081900360640190fd5b600180546001600160a01b0319166001600160a01b0392909216919091179055565b7f000000000000000000000000000000000000000000000000000000000000000081565b60006104f28260036104fa565b506001919050565b6000826001600160a01b03166382c630666040518163ffffffff1660e01b815260040160206040518083038186803b15801561053557600080fd5b505afa158015610549573d6000803e3d6000fd5b505050506040513d602081101561055f57600080fd5b505160408051633f14eb6160e11b81526001600160a01b03808416600483015286811660248301526044820186905291519293507f000000000000000000000000000000000000000000000000000000000000000090911691637e29d6c2916064808201926020929091908290030181600087803b1580156105e057600080fd5b505af11580156105f4573d6000803e3d6000fd5b505050506040513d602081101561060a57600080fd5b505050505056fea26469706673582212205854afc23f050f38c5c4ff9098684b370bc70a19e2af0198ca91353aacbded2064736f6c634300060c0033",
  "linkReferences": {},
  "deployedLinkReferences": {}
}