{
  "_format": "hh-sol-artifact-1",
  "contractName": "PoolManagerSecondaryProxy",
  "sourceName": "contracts/PoolManagerSecondaryProxy.sol",
  "abi": [
    {
      "inputs": [
        {
          "internalType": "address",
          "name": "_gaugeController",
          "type": "address"
        },
        {
          "internalType": "address",
          "name": "_pools",
          "type": "address"
        },
        {
          "internalType": "address",
          "name": "_booster",
          "type": "address"
        }
      ],
      "stateMutability": "nonpayable",
      "type": "constructor"
    },
    {
      "inputs": [
        {
          "internalType": "address",
          "name": "_lptoken",
          "type": "address"
        },
        {
          "internalType": "address",
          "name": "_gauge",
          "type": "address"
        },
        {
          "internalType": "uint256",
          "name": "_stashVersion",
          "type": "uint256"
        }
      ],
      "name": "addPool",
      "outputs": [
        {
          "internalType": "bool",
          "name": "",
          "type": "bool"
        }
      ],
      "stateMutability": "nonpayable",
      "type": "function"
    },
    {
      "inputs": [],
      "name": "booster",
      "outputs": [
        {
          "internalType": "address",
          "name": "",
          "type": "address"
        }
      ],
      "stateMutability": "view",
      "type": "function"
    },
    {
      "inputs": [
        {
          "internalType": "address",
          "name": "_lptoken",
          "type": "address"
        },
        {
          "internalType": "address",
          "name": "_gauge",
          "type": "address"
        },
        {
          "internalType": "uint256",
          "name": "_stashVersion",
          "type": "uint256"
        }
      ],
      "name": "forceAddPool",
      "outputs": [
        {
          "internalType": "bool",
          "name": "",
          "type": "bool"
        }
      ],
      "stateMutability": "nonpayable",
      "type": "function"
    },
    {
      "inputs": [],
      "name": "gaugeController",
      "outputs": [
        {
          "internalType": "address",
          "name": "",
          "type": "address"
        }
      ],
      "stateMutability": "view",
      "type": "function"
    },
    {
      "inputs": [],
      "name": "isShutdown",
      "outputs": [
        {
          "internalType": "bool",
          "name": "",
          "type": "bool"
        }
      ],
      "stateMutability": "view",
      "type": "function"
    },
    {
      "inputs": [],
      "name": "operator",
      "outputs": [
        {
          "internalType": "address",
          "name": "",
          "type": "address"
        }
      ],
      "stateMutability": "view",
      "type": "function"
    },
    {
      "inputs": [],
      "name": "owner",
      "outputs": [
        {
          "internalType": "address",
          "name": "",
          "type": "address"
        }
      ],
      "stateMutability": "view",
      "type": "function"
    },
    {
      "inputs": [],
      "name": "pools",
      "outputs": [
        {
          "internalType": "address",
          "name": "",
          "type": "address"
        }
      ],
      "stateMutability": "view",
      "type": "function"
    },
    {
      "inputs": [
        {
          "internalType": "address",
          "name": "_booster",
          "type": "address"
        }
      ],
      "name": "setBooster",
      "outputs": [],
      "stateMutability": "nonpayable",
      "type": "function"
    },
    {
      "inputs": [
        {
          "internalType": "address",
          "name": "_gaugeController",
          "type": "address"
        }
      ],
      "name": "setGaugeController",
      "outputs": [],
      "stateMutability": "nonpayable",
      "type": "function"
    },
    {
      "inputs": [
        {
          "internalType": "address",
          "name": "_operator",
          "type": "address"
        }
      ],
      "name": "setOperator",
      "outputs": [],
      "stateMutability": "nonpayable",
      "type": "function"
    },
    {
      "inputs": [
        {
          "internalType": "address",
          "name": "_owner",
          "type": "address"
        }
      ],
      "name": "setOwner",
      "outputs": [],
      "stateMutability": "nonpayable",
      "type": "function"
    },
    {
      "inputs": [
        {
          "internalType": "address",
          "name": "_pools",
          "type": "address"
        }
      ],
      "name": "setPools",
      "outputs": [],
      "stateMutability": "nonpayable",
      "type": "function"
    },
    {
      "inputs": [
        {
          "internalType": "address[]",
          "name": "usedList",
          "type": "address[]"
        }
      ],
      "name": "setUsedAddress",
      "outputs": [],
      "stateMutability": "nonpayable",
      "type": "function"
    },
    {
      "inputs": [
        {
          "internalType": "uint256",
          "name": "_pid",
          "type": "uint256"
        }
      ],
      "name": "shutdownPool",
      "outputs": [
        {
          "internalType": "bool",
          "name": "",
          "type": "bool"
        }
      ],
      "stateMutability": "nonpayable",
      "type": "function"
    },
    {
      "inputs": [],
      "name": "shutdownSystem",
      "outputs": [],
      "stateMutability": "nonpayable",
      "type": "function"
    },
    {
      "inputs": [
        {
          "internalType": "address",
          "name": "",
          "type": "address"
        }
      ],
      "name": "usedMap",
      "outputs": [
        {
          "internalType": "bool",
          "name": "",
          "type": "bool"
        }
      ],
      "stateMutability": "view",
      "type": "function"
    }
  ],
  "bytecode": "0x608060405234801561001057600080fd5b50604051610eb3380380610eb38339818101604052606081101561003357600080fd5b5080516020820151604090920151600380546001600160a01b031990811633908117909255600480548216909217909155600080546001600160a01b039485169083161790556001805494841694821694909417909355600280549290911691909216179055610e0b806100a86000396000f3fe608060405234801561001057600080fd5b506004361061010a5760003560e01c80637e29d6c2116100a2578063b3ab15fb11610071578063b3ab15fb14610325578063bf86d6901461034b578063c5c51dca14610353578063c6def0761461035b578063f245036e146103635761010a565b80637e29d6c21461023c5780637fb96d25146102725780638da5cb5b1461031557806399eecb3b1461031d5761010a565b8063570ca735116100de578063570ca7351461019f5780635744887d146101c35780635a826df3146101f957806360cafe841461021f5761010a565b806291d2b81461010f57806313af4035146101375780632d59dca51461015d578063354af91914610197575b600080fd5b6101356004803603602081101561012557600080fd5b50356001600160a01b0316610389565b005b6101356004803603602081101561014d57600080fd5b50356001600160a01b03166103f3565b6101836004803603602081101561017357600080fd5b50356001600160a01b031661045d565b604080519115158252519081900360200190f35b610135610472565b6101a76104cf565b604080516001600160a01b039092168252519081900360200190f35b610183600480360360608110156101d957600080fd5b506001600160a01b038135811691602081013590911690604001356104de565b6101356004803603602081101561020f57600080fd5b50356001600160a01b03166105c3565b6101836004803603602081101561023557600080fd5b503561062d565b6101836004803603606081101561025257600080fd5b506001600160a01b0381358116916020810135909116906040013561098b565b6101356004803603602081101561028857600080fd5b8101906020810181356401000000008111156102a357600080fd5b8201836020820111156102b557600080fd5b803590602001918460208302840111640100000000831117156102d757600080fd5b919080806020026020016040519081016040528093929190818152602001838360200280828437600092019190915250929550610aa8945050505050565b6101a7610b4c565b6101a7610b5b565b6101356004803603602081101561033b57600080fd5b50356001600160a01b0316610b6a565b610183610bd4565b6101a7610be4565b6101a7610bf3565b6101356004803603602081101561037957600080fd5b50356001600160a01b0316610c02565b6003546001600160a01b031633146103d1576040805162461bcd60e51b815260206004820152600660248201526510b7bbb732b960d11b604482015290519081900360640190fd5b600080546001600160a01b0319166001600160a01b0392909216919091179055565b6003546001600160a01b0316331461043b576040805162461bcd60e51b815260206004820152600660248201526510b7bbb732b960d11b604482015290519081900360640190fd5b600380546001600160a01b0319166001600160a01b0392909216919091179055565b60056020526000908152604090205460ff1681565b6003546001600160a01b031633146104ba576040805162461bcd60e51b815260206004820152600660248201526510b7bbb732b960d11b604482015290519081900360640190fd5b6004805460ff60a01b1916600160a01b179055565b6004546001600160a01b031681565b6004546000906001600160a01b03163314610526576040805162461bcd60e51b81526020600482015260036024820152620216f760ec1b604482015290519081900360640190fd5b6001600160a01b03841660009081526005602052604090205460ff1615801561056857506001600160a01b03831660009081526005602052604090205460ff16155b6105b0576040805162461bcd60e51b815260206004820152601460248201527318d85b9d08199bdc98d9481d5cd959081c1bdbdb60621b604482015290519081900360640190fd5b6105bb848484610c6c565b949350505050565b6003546001600160a01b0316331461060b576040805162461bcd60e51b815260206004820152600660248201526510b7bbb732b960d11b604482015290519081900360640190fd5b600280546001600160a01b0319166001600160a01b0392909216919091179055565b6004546000906001600160a01b03163314610675576040805162461bcd60e51b81526020600482015260036024820152620216f760ec1b604482015290519081900360640190fd5b60025460408051631526fe2760e01b8152600481018590529051600092839283926001600160a01b0390921691631526fe279160248082019260c092909190829003018186803b1580156106c857600080fd5b505afa1580156106dc573d6000803e3d6000fd5b505050506040513d60c08110156106f257600080fd5b508051602082015160a0909201519094509092509050801561074e576040805162461bcd60e51b815260206004820152601060248201526f30b63932b0b23c9039b43aba3237bbb760811b604482015290519081900360640190fd5b600254604080516370a0823160e01b81526001600160a01b03928316600482015290516000928616916370a08231916024808301926020929190829003018186803b15801561079c57600080fd5b505afa1580156107b0573d6000803e3d6000fd5b505050506040513d60208110156107c657600080fd5b505160015460408051631832bfa160e21b8152600481018a905290519293506001600160a01b03909116916360cafe84916024808201926020929091908290030181600087803b15801561081957600080fd5b505af115801561082d573d6000803e3d6000fd5b505050506040513d602081101561084357600080fd5b5050600254604080516370a0823160e01b81526001600160a01b03928316600482015290516000928716916370a08231916024808301926020929190829003018186803b15801561089357600080fd5b505afa1580156108a7573d6000803e3d6000fd5b505050506040513d60208110156108bd57600080fd5b5051604080516318160ddd60e01b815290519192506001600160a01b038616916318160ddd91600480820192602092909190829003018186803b15801561090357600080fd5b505afa158015610917573d6000803e3d6000fd5b505050506040513d602081101561092d57600080fd5b50516109398284610d78565b101561097e576040805162461bcd60e51b815260206004820152600f60248201526e0e6eae0e0d8f240dad2e6dac2e8c6d608b1b604482015290519081900360640190fd5b5060019695505050505050565b6004546000906001600160a01b031633146109d3576040805162461bcd60e51b81526020600482015260036024820152620216f760ec1b604482015290519081900360640190fd5b600080546040805163273c8d1d60e11b81526001600160a01b03878116600483015291519190921691634e791a3a916024808301926020929190829003018186803b158015610a2157600080fd5b505afa158015610a35573d6000803e3d6000fd5b505050506040513d6020811015610a4b57600080fd5b5051905080610a94576040805162461bcd60e51b815260206004820152601060248201526f1b5d5cdd081a185d99481dd95a59da1d60821b604482015290519081900360640190fd5b610a9f858585610c6c565b95945050505050565b6003546001600160a01b03163314610af0576040805162461bcd60e51b815260206004820152600660248201526510b7bbb732b960d11b604482015290519081900360640190fd5b60005b8151811015610b4857600160056000848481518110610b0e57fe5b6020908102919091018101516001600160a01b03168252810191909152604001600020805460ff1916911515919091179055600101610af3565b5050565b6003546001600160a01b031681565b6000546001600160a01b031681565b6003546001600160a01b03163314610bb2576040805162461bcd60e51b815260206004820152600660248201526510b7bbb732b960d11b604482015290519081900360640190fd5b600480546001600160a01b0319166001600160a01b0392909216919091179055565b600454600160a01b900460ff1681565b6001546001600160a01b031681565b6002546001600160a01b031681565b6003546001600160a01b03163314610c4a576040805162461bcd60e51b815260206004820152600660248201526510b7bbb732b960d11b604482015290519081900360640190fd5b600180546001600160a01b0319166001600160a01b0392909216919091179055565b600454600090600160a01b900460ff1615610cb9576040805162461bcd60e51b815260206004820152600860248201526739b43aba3237bbb760c11b604482015290519081900360640190fd5b6001600160a01b0384811660008181526005602090815260408083208054600160ff1991821681179092558987168086528386208054909216831790915590548251633f14eb6160e11b815260048101969096526024860191909152604485018890529051941693637e29d6c293606480820194918390030190829087803b158015610d4457600080fd5b505af1158015610d58573d6000803e3d6000fd5b505050506040513d6020811015610d6e57600080fd5b5051949350505050565b600082821115610dcf576040805162461bcd60e51b815260206004820152601e60248201527f536166654d6174683a207375627472616374696f6e206f766572666c6f770000604482015290519081900360640190fd5b5090039056fea26469706673582212209f0a9bdc8fa590338fec8334c056e27960a8adc68ecf1ad5837a0fd2aa49434264736f6c634300060c0033",
  "linkReferences": {},
  "deployedLinkReferences": {}
}