{
  "_format": "hh-sol-artifact-1",
  "contractName": "KglDepositor",
  "sourceName": "contracts/KglDepositor.sol",
  "abi": [
    {
      "inputs": [
        {
          "internalType": "address",
          "name": "_staker",
          "type": "address"
        },
        {
          "internalType": "address",
          "name": "_minter",
          "type": "address"
        },
        {
          "internalType": "address",
          "name": "_kgl",
          "type": "address"
        },
        {
          "internalType": "address",
          "name": "_votingEscrow",
          "type": "address"
        }
      ],
      "stateMutability": "nonpayable",
      "type": "constructor"
    },
    {
      "anonymous": false,
      "inputs": [
        {
          "indexed": true,
          "internalType": "address",
          "name": "previousOwner",
          "type": "address"
        },
        {
          "indexed": true,
          "internalType": "address",
          "name": "newOwner",
          "type": "address"
        }
      ],
      "name": "OwnershipTransferred",
      "type": "event"
    },
    {
      "inputs": [],
      "name": "FEE_DENOMINATOR",
      "outputs": [
        {
          "internalType": "uint256",
          "name": "",
          "type": "uint256"
        }
      ],
      "stateMutability": "view",
      "type": "function"
    },
    {
      "inputs": [
        {
          "internalType": "uint256",
          "name": "_amount",
          "type": "uint256"
        },
        {
          "internalType": "bool",
          "name": "_lock",
          "type": "bool"
        },
        {
          "internalType": "address",
          "name": "_stakeAddress",
          "type": "address"
        }
      ],
      "name": "deposit",
      "outputs": [],
      "stateMutability": "nonpayable",
      "type": "function"
    },
    {
      "inputs": [
        {
          "internalType": "uint256",
          "name": "_amount",
          "type": "uint256"
        },
        {
          "internalType": "bool",
          "name": "_lock",
          "type": "bool"
        }
      ],
      "name": "deposit",
      "outputs": [],
      "stateMutability": "nonpayable",
      "type": "function"
    },
    {
      "inputs": [
        {
          "internalType": "bool",
          "name": "_lock",
          "type": "bool"
        },
        {
          "internalType": "address",
          "name": "_stakeAddress",
          "type": "address"
        }
      ],
      "name": "depositAll",
      "outputs": [],
      "stateMutability": "nonpayable",
      "type": "function"
    },
    {
      "inputs": [],
      "name": "feeManager",
      "outputs": [
        {
          "internalType": "address",
          "name": "",
          "type": "address"
        }
      ],
      "stateMutability": "view",
      "type": "function"
    },
    {
      "inputs": [],
      "name": "incentiveKgl",
      "outputs": [
        {
          "internalType": "uint256",
          "name": "",
          "type": "uint256"
        }
      ],
      "stateMutability": "view",
      "type": "function"
    },
    {
      "inputs": [],
      "name": "initialLock",
      "outputs": [],
      "stateMutability": "nonpayable",
      "type": "function"
    },
    {
      "inputs": [],
      "name": "kgl",
      "outputs": [
        {
          "internalType": "address",
          "name": "",
          "type": "address"
        }
      ],
      "stateMutability": "view",
      "type": "function"
    },
    {
      "inputs": [],
      "name": "lockIncentive",
      "outputs": [
        {
          "internalType": "uint256",
          "name": "",
          "type": "uint256"
        }
      ],
      "stateMutability": "view",
      "type": "function"
    },
    {
      "inputs": [],
      "name": "lockKagla",
      "outputs": [],
      "stateMutability": "nonpayable",
      "type": "function"
    },
    {
      "inputs": [],
      "name": "minter",
      "outputs": [
        {
          "internalType": "address",
          "name": "",
          "type": "address"
        }
      ],
      "stateMutability": "view",
      "type": "function"
    },
    {
      "inputs": [],
      "name": "owner",
      "outputs": [
        {
          "internalType": "address",
          "name": "",
          "type": "address"
        }
      ],
      "stateMutability": "view",
      "type": "function"
    },
    {
      "inputs": [],
      "name": "renounceOwnership",
      "outputs": [],
      "stateMutability": "nonpayable",
      "type": "function"
    },
    {
      "inputs": [
        {
          "internalType": "address",
          "name": "_feeManager",
          "type": "address"
        }
      ],
      "name": "setFeeManager",
      "outputs": [],
      "stateMutability": "nonpayable",
      "type": "function"
    },
    {
      "inputs": [
        {
          "internalType": "uint256",
          "name": "_lockIncentive",
          "type": "uint256"
        }
      ],
      "name": "setFees",
      "outputs": [],
      "stateMutability": "nonpayable",
      "type": "function"
    },
    {
      "inputs": [
        {
          "internalType": "address",
          "name": "_kgl",
          "type": "address"
        }
      ],
      "name": "setKgl",
      "outputs": [],
      "stateMutability": "nonpayable",
      "type": "function"
    },
    {
      "inputs": [
        {
          "internalType": "address",
          "name": "_votingEscrow",
          "type": "address"
        }
      ],
      "name": "setVotingEscrow",
      "outputs": [],
      "stateMutability": "nonpayable",
      "type": "function"
    },
    {
      "inputs": [],
      "name": "staker",
      "outputs": [
        {
          "internalType": "address",
          "name": "",
          "type": "address"
        }
      ],
      "stateMutability": "view",
      "type": "function"
    },
    {
      "inputs": [
        {
          "internalType": "address",
          "name": "newOwner",
          "type": "address"
        }
      ],
      "name": "transferOwnership",
      "outputs": [],
      "stateMutability": "nonpayable",
      "type": "function"
    },
    {
      "inputs": [],
      "name": "unlockTime",
      "outputs": [
        {
          "internalType": "uint256",
          "name": "",
          "type": "uint256"
        }
      ],
      "stateMutability": "view",
      "type": "function"
    },
    {
      "inputs": [],
      "name": "votingEscrow",
      "outputs": [
        {
          "internalType": "address",
          "name": "",
          "type": "address"
        }
      ],
      "stateMutability": "view",
      "type": "function"
    }
  ],
  "bytecode": "0x60c06040526000600355600060055534801561001a57600080fd5b506040516119313803806119318339818101604052608081101561003d57600080fd5b5080516020820151604083015160609093015191929091600061005e610101565b600080546001600160a01b0319166001600160a01b0383169081178255604051929350917f8be0079c531659141344cd1fd0a4f28419497f9722a3daafe3b4186f6b6457e0908290a3506001600160601b0319606094851b81166080529290931b90911660a052600480546001600160a01b03199081163317909155600180546001600160a01b0393841690831617905560028054929093169116179055610105565b3390565b60805160601c60a05160601c6117bd61017460003980610312528061036e528061074852806107d3528061083f528061087652508061053c5280610664528061096c5280610a0a5280610a945280610b435280610e8c5280610ecc5280610f5e528061100452506117bd6000f3fe608060405234801561001057600080fd5b50600436106101375760003560e01c8063715018a6116100b8578063bf09dac01161007c578063bf09dac014610286578063ce5ec92e146102ac578063d0fb0203146102d2578063d73792a9146102da578063d782139a146102e2578063f2fde38b146102ea57610137565b8063715018a61461021557806380ed71e41461021d578063836f8f20146102515780638da5cb5b146102595780639a4083211461026157610137565b8063472d35b9116100ff578063472d35b9146101cf5780634f2bfe5b146101f557806350940618146101fd5780635ebaf1db1461020557806364c439bb1461020d57610137565b8063075461721461013c578063102ce14014610160578063215537fd1461016a578063251c1aa3146101985780633d18678e146101b2575b600080fd5b610144610310565b604080516001600160a01b039092168252519081900360200190f35b610168610334565b005b6101686004803603604081101561018057600080fd5b508035151590602001356001600160a01b03166103d5565b6101a061045e565b60408051918252519081900360200190f35b610168600480360360208110156101c857600080fd5b5035610464565b610168600480360360208110156101e557600080fd5b50356001600160a01b03166104bc565b610144610525565b6101a0610534565b61014461053a565b6101a061055e565b610168610564565b6101686004803603606081101561023357600080fd5b508035906020810135151590604001356001600160a01b0316610610565b61016861090a565b610144610bae565b6101686004803603604081101561027757600080fd5b50803590602001351515610bbd565b6101686004803603602081101561029c57600080fd5b50356001600160a01b0316610bcd565b610168600480360360208110156102c257600080fd5b50356001600160a01b0316610c51565b610144610cd5565b6101a0610ce4565b610144610cea565b6101686004803603602081101561030057600080fd5b50356001600160a01b0316610cf9565b7f000000000000000000000000000000000000000000000000000000000000000081565b61033c610dfb565b600554156103d357600554604080516340c10f1960e01b81523360048201526024810192909252516001600160a01b037f000000000000000000000000000000000000000000000000000000000000000016916340c10f1991604480830192600092919082900301818387803b1580156103b557600080fd5b505af11580156103c9573d6000803e3d6000fd5b5050600060055550505b565b600154604080516370a0823160e01b815233600482015290516000926001600160a01b0316916370a08231916024808301926020929190829003018186803b15801561042057600080fd5b505afa158015610434573d6000803e3d6000fd5b505050506040513d602081101561044a57600080fd5b50519050610459818484610610565b505050565b60065481565b6004546001600160a01b031633146104ab576040805162461bcd60e51b8152602060048201526005602482015264042c2eae8d60db1b604482015290519081900360640190fd5b601e81116104b95760038190555b50565b6004546001600160a01b03163314610503576040805162461bcd60e51b8152602060048201526005602482015264042c2eae8d60db1b604482015290519081900360640190fd5b600480546001600160a01b0319166001600160a01b0392909216919091179055565b6002546001600160a01b031681565b60035481565b7f000000000000000000000000000000000000000000000000000000000000000081565b60055481565b61056c61108b565b6001600160a01b031661057d610bae565b6001600160a01b0316146105c6576040805162461bcd60e51b81526020600482018190526024820152600080516020611708833981519152604482015290519081900360640190fd5b600080546040516001600160a01b03909116907f8be0079c531659141344cd1fd0a4f28419497f9722a3daafe3b4186f6b6457e0908390a3600080546001600160a01b0319169055565b6000831161064b576040805162461bcd60e51b81526020600482015260036024820152620213e360ec1b604482015290519081900360640190fd5b81156106b457600154610689906001600160a01b0316337f00000000000000000000000000000000000000000000000000000000000000008661108f565b610691610dfb565b600554156106af576005546106a79084906110e9565b600060055592505b610710565b6001546106cc906001600160a01b031633308661108f565b60006106ef6127106106e96003548761114c90919063ffffffff16565b906111a5565b90506106fb848261120c565b60055490945061070b90826110e9565b600555505b6001600160a01b0381161580156107ac57604080516340c10f1960e01b81523360048201526024810186905290516001600160a01b037f000000000000000000000000000000000000000000000000000000000000000016916340c10f1991604480830192600092919082900301818387803b15801561078f57600080fd5b505af11580156107a3573d6000803e3d6000fd5b50505050610904565b604080516340c10f1960e01b81523060048201526024810186905290516001600160a01b037f000000000000000000000000000000000000000000000000000000000000000016916340c10f1991604480830192600092919082900301818387803b15801561081a57600080fd5b505af115801561082e573d6000803e3d6000fd5b506108699250506001600160a01b037f0000000000000000000000000000000000000000000000000000000000000000169050836000611269565b61089d6001600160a01b037f0000000000000000000000000000000000000000000000000000000000000000168386611269565b604080516305dc812160e31b81523360048201526024810186905290516001600160a01b03841691632ee4090891604480830192600092919082900301818387803b1580156108eb57600080fd5b505af11580156108ff573d6000803e3d6000fd5b505050505b50505050565b6004546001600160a01b03163314610951576040805162461bcd60e51b8152602060048201526005602482015264042c2eae8d60db1b604482015290519081900360640190fd5b600254604080516370a0823160e01b81526001600160a01b037f000000000000000000000000000000000000000000000000000000000000000081166004830152915160009392909216916370a0823191602480820192602092909190829003018186803b1580156109c257600080fd5b505afa1580156109d6573d6000803e3d6000fd5b505050506040513d60208110156109ec57600080fd5b50519050806104b957426303bfc40001600062093a808083040290507f00000000000000000000000000000000000000000000000000000000000000006001600160a01b03166386d1a69f6040518163ffffffff1660e01b8152600401600060405180830381600087803b158015610a6357600080fd5b505af1158015610a77573d6000803e3d6000fd5b5050600154604080516370a0823160e01b81526001600160a01b037f0000000000000000000000000000000000000000000000000000000000000000811660048301529151600095509190921692506370a0823191602480820192602092909190829003018186803b158015610aec57600080fd5b505afa158015610b00573d6000803e3d6000fd5b505050506040513d6020811015610b1657600080fd5b505160408051635a9602ff60e11b8152600481018390526024810186905290519192506001600160a01b037f0000000000000000000000000000000000000000000000000000000000000000169163b52c05fe9160448082019260009290919082900301818387803b158015610b8b57600080fd5b505af1158015610b9f573d6000803e3d6000fd5b50505060069290925550505050565b6000546001600160a01b031690565b610bc982826000610610565b5050565b610bd561108b565b6001600160a01b0316610be6610bae565b6001600160a01b031614610c2f576040805162461bcd60e51b81526020600482018190526024820152600080516020611708833981519152604482015290519081900360640190fd5b600180546001600160a01b0319166001600160a01b0392909216919091179055565b610c5961108b565b6001600160a01b0316610c6a610bae565b6001600160a01b031614610cb3576040805162461bcd60e51b81526020600482018190526024820152600080516020611708833981519152604482015290519081900360640190fd5b600280546001600160a01b0319166001600160a01b0392909216919091179055565b6004546001600160a01b031681565b61271081565b6001546001600160a01b031681565b610d0161108b565b6001600160a01b0316610d12610bae565b6001600160a01b031614610d5b576040805162461bcd60e51b81526020600482018190526024820152600080516020611708833981519152604482015290519081900360640190fd5b6001600160a01b038116610da05760405162461bcd60e51b815260040180806020018281038252602681526020018061169b6026913960400191505060405180910390fd5b600080546040516001600160a01b03808516939216917f8be0079c531659141344cd1fd0a4f28419497f9722a3daafe3b4186f6b6457e091a3600080546001600160a01b0319166001600160a01b0392909216919091179055565b600154604080516370a0823160e01b815230600482015290516000926001600160a01b0316916370a08231916024808301926020929190829003018186803b158015610e4657600080fd5b505afa158015610e5a573d6000803e3d6000fd5b505050506040513d6020811015610e7057600080fd5b505190508015610eb157600154610eb1906001600160a01b03167f00000000000000000000000000000000000000000000000000000000000000008361137c565b600154604080516370a0823160e01b81526001600160a01b037f000000000000000000000000000000000000000000000000000000000000000081166004830152915160009392909216916370a0823191602480820192602092909190829003018186803b158015610f2257600080fd5b505afa158015610f36573d6000803e3d6000fd5b505050506040513d6020811015610f4c57600080fd5b5051905080610f5c5750506103d3565b7f00000000000000000000000000000000000000000000000000000000000000006001600160a01b03166315456eba826040518263ffffffff1660e01b815260040180828152602001915050600060405180830381600087803b158015610fc257600080fd5b505af1158015610fd6573d6000803e3d6000fd5b50506006546303bfc4004201925062093a80808404029150600290610ffc90839061120c565b1115610904577f00000000000000000000000000000000000000000000000000000000000000006001600160a01b0316633c9a2a1a836040518263ffffffff1660e01b815260040180828152602001915050600060405180830381600087803b15801561106857600080fd5b505af115801561107c573d6000803e3d6000fd5b50505060068290555050505050565b3390565b604080516001600160a01b0380861660248301528416604482015260648082018490528251808303909101815260849091019091526020810180516001600160e01b03166323b872dd60e01b1790526109049085906113ca565b600082820183811015611143576040805162461bcd60e51b815260206004820152601b60248201527f536166654d6174683a206164646974696f6e206f766572666c6f770000000000604482015290519081900360640190fd5b90505b92915050565b60008261115b57506000611146565b8282028284828161116857fe5b04146111435760405162461bcd60e51b81526004018080602001828103825260218152602001806116e76021913960400191505060405180910390fd5b60008082116111fb576040805162461bcd60e51b815260206004820152601a60248201527f536166654d6174683a206469766973696f6e206279207a65726f000000000000604482015290519081900360640190fd5b81838161120457fe5b049392505050565b600082821115611263576040805162461bcd60e51b815260206004820152601e60248201527f536166654d6174683a207375627472616374696f6e206f766572666c6f770000604482015290519081900360640190fd5b50900390565b8015806112ef575060408051636eb1769f60e11b81523060048201526001600160a01b03848116602483015291519185169163dd62ed3e91604480820192602092909190829003018186803b1580156112c157600080fd5b505afa1580156112d5573d6000803e3d6000fd5b505050506040513d60208110156112eb57600080fd5b5051155b61132a5760405162461bcd60e51b81526004018080602001828103825260368152602001806117526036913960400191505060405180910390fd5b604080516001600160a01b038416602482015260448082018490528251808303909101815260649091019091526020810180516001600160e01b031663095ea7b360e01b1790526104599084906113ca565b604080516001600160a01b038416602482015260448082018490528251808303909101815260649091019091526020810180516001600160e01b031663a9059cbb60e01b1790526104599084905b606061141f826040518060400160405280602081526020017f5361666545524332303a206c6f772d6c6576656c2063616c6c206661696c6564815250856001600160a01b031661147b9092919063ffffffff16565b8051909150156104595780806020019051602081101561143e57600080fd5b50516104595760405162461bcd60e51b815260040180806020018281038252602a815260200180611728602a913960400191505060405180910390fd5b606061148a8484600085611494565b90505b9392505050565b6060824710156114d55760405162461bcd60e51b81526004018080602001828103825260268152602001806116c16026913960400191505060405180910390fd5b6114de856115f0565b61152f576040805162461bcd60e51b815260206004820152601d60248201527f416464726573733a2063616c6c20746f206e6f6e2d636f6e7472616374000000604482015290519081900360640190fd5b60006060866001600160a01b031685876040518082805190602001908083835b6020831061156e5780518252601f19909201916020918201910161154f565b6001836020036101000a03801982511681845116808217855250505050505090500191505060006040518083038185875af1925050503d80600081146115d0576040519150601f19603f3d011682016040523d82523d6000602084013e6115d5565b606091505b50915091506115e58282866115f6565b979650505050505050565b3b151590565b6060831561160557508161148d565b8251156116155782518084602001fd5b8160405162461bcd60e51b81526004018080602001828103825283818151815260200191508051906020019080838360005b8381101561165f578181015183820152602001611647565b50505050905090810190601f16801561168c5780820380516001836020036101000a031916815260200191505b509250505060405180910390fdfe4f776e61626c653a206e6577206f776e657220697320746865207a65726f2061646472657373416464726573733a20696e73756666696369656e742062616c616e636520666f722063616c6c536166654d6174683a206d756c7469706c69636174696f6e206f766572666c6f774f776e61626c653a2063616c6c6572206973206e6f7420746865206f776e65725361666545524332303a204552433230206f7065726174696f6e20646964206e6f7420737563636565645361666545524332303a20617070726f76652066726f6d206e6f6e2d7a65726f20746f206e6f6e2d7a65726f20616c6c6f77616e6365a264697066735822122070415701bc8214f95d8d5cd20a7c7dfcf1d3c281767962d253591e431711d9f064736f6c634300060c0033",
  "linkReferences": {},
  "deployedLinkReferences": {}
}