{
  "_format": "hh-sol-artifact-1",
  "contractName": "MuuuStakingProxyV2",
  "sourceName": "contracts/MuuuStakingProxyV2.sol",
  "abi": [
    {
      "inputs": [
        {
          "internalType": "address",
          "name": "_rewards",
          "type": "address"
        }
      ],
      "stateMutability": "nonpayable",
      "type": "constructor"
    },
    {
      "anonymous": false,
      "inputs": [
        {
          "indexed": true,
          "internalType": "address",
          "name": "_distro",
          "type": "address"
        },
        {
          "indexed": false,
          "internalType": "bool",
          "name": "_valid",
          "type": "bool"
        }
      ],
      "name": "AddDistributor",
      "type": "event"
    },
    {
      "anonymous": false,
      "inputs": [
        {
          "indexed": true,
          "internalType": "address",
          "name": "token",
          "type": "address"
        },
        {
          "indexed": false,
          "internalType": "uint256",
          "name": "amount",
          "type": "uint256"
        }
      ],
      "name": "RewardsDistributed",
      "type": "event"
    },
    {
      "inputs": [],
      "name": "UseDistributors",
      "outputs": [
        {
          "internalType": "bool",
          "name": "",
          "type": "bool"
        }
      ],
      "stateMutability": "view",
      "type": "function"
    },
    {
      "inputs": [],
      "name": "applyPendingOwner",
      "outputs": [],
      "stateMutability": "nonpayable",
      "type": "function"
    },
    {
      "inputs": [],
      "name": "callIncentive",
      "outputs": [
        {
          "internalType": "uint256",
          "name": "",
          "type": "uint256"
        }
      ],
      "stateMutability": "view",
      "type": "function"
    },
    {
      "inputs": [],
      "name": "denominator",
      "outputs": [
        {
          "internalType": "uint256",
          "name": "",
          "type": "uint256"
        }
      ],
      "stateMutability": "view",
      "type": "function"
    },
    {
      "inputs": [],
      "name": "distribute",
      "outputs": [],
      "stateMutability": "nonpayable",
      "type": "function"
    },
    {
      "inputs": [
        {
          "internalType": "contract IERC20",
          "name": "_token",
          "type": "address"
        }
      ],
      "name": "distributeOther",
      "outputs": [],
      "stateMutability": "nonpayable",
      "type": "function"
    },
    {
      "inputs": [
        {
          "internalType": "address",
          "name": "",
          "type": "address"
        }
      ],
      "name": "distributors",
      "outputs": [
        {
          "internalType": "bool",
          "name": "",
          "type": "bool"
        }
      ],
      "stateMutability": "view",
      "type": "function"
    },
    {
      "inputs": [],
      "name": "getBalance",
      "outputs": [
        {
          "internalType": "uint256",
          "name": "",
          "type": "uint256"
        }
      ],
      "stateMutability": "view",
      "type": "function"
    },
    {
      "inputs": [],
      "name": "kgl",
      "outputs": [
        {
          "internalType": "address",
          "name": "",
          "type": "address"
        }
      ],
      "stateMutability": "view",
      "type": "function"
    },
    {
      "inputs": [],
      "name": "kglDeposit",
      "outputs": [
        {
          "internalType": "address",
          "name": "",
          "type": "address"
        }
      ],
      "stateMutability": "view",
      "type": "function"
    },
    {
      "inputs": [],
      "name": "muKgl",
      "outputs": [
        {
          "internalType": "address",
          "name": "",
          "type": "address"
        }
      ],
      "stateMutability": "view",
      "type": "function"
    },
    {
      "inputs": [],
      "name": "muKglStaking",
      "outputs": [
        {
          "internalType": "address",
          "name": "",
          "type": "address"
        }
      ],
      "stateMutability": "view",
      "type": "function"
    },
    {
      "inputs": [],
      "name": "muuu",
      "outputs": [
        {
          "internalType": "address",
          "name": "",
          "type": "address"
        }
      ],
      "stateMutability": "view",
      "type": "function"
    },
    {
      "inputs": [],
      "name": "muuuStaking",
      "outputs": [
        {
          "internalType": "address",
          "name": "",
          "type": "address"
        }
      ],
      "stateMutability": "view",
      "type": "function"
    },
    {
      "inputs": [],
      "name": "owner",
      "outputs": [
        {
          "internalType": "address",
          "name": "",
          "type": "address"
        }
      ],
      "stateMutability": "view",
      "type": "function"
    },
    {
      "inputs": [],
      "name": "pendingOwner",
      "outputs": [
        {
          "internalType": "address",
          "name": "",
          "type": "address"
        }
      ],
      "stateMutability": "view",
      "type": "function"
    },
    {
      "inputs": [
        {
          "internalType": "address",
          "name": "_token",
          "type": "address"
        },
        {
          "internalType": "address",
          "name": "_to",
          "type": "address"
        }
      ],
      "name": "rescueToken",
      "outputs": [],
      "stateMutability": "nonpayable",
      "type": "function"
    },
    {
      "inputs": [],
      "name": "rewards",
      "outputs": [
        {
          "internalType": "address",
          "name": "",
          "type": "address"
        }
      ],
      "stateMutability": "view",
      "type": "function"
    },
    {
      "inputs": [],
      "name": "setApprovals",
      "outputs": [],
      "stateMutability": "nonpayable",
      "type": "function"
    },
    {
      "inputs": [
        {
          "internalType": "uint256",
          "name": "_incentive",
          "type": "uint256"
        }
      ],
      "name": "setCallIncentive",
      "outputs": [],
      "stateMutability": "nonpayable",
      "type": "function"
    },
    {
      "inputs": [
        {
          "internalType": "address",
          "name": "_distro",
          "type": "address"
        },
        {
          "internalType": "bool",
          "name": "_valid",
          "type": "bool"
        }
      ],
      "name": "setDistributor",
      "outputs": [],
      "stateMutability": "nonpayable",
      "type": "function"
    },
    {
      "inputs": [
        {
          "internalType": "address",
          "name": "_po",
          "type": "address"
        }
      ],
      "name": "setPendingOwner",
      "outputs": [],
      "stateMutability": "nonpayable",
      "type": "function"
    },
    {
      "inputs": [
        {
          "internalType": "bool",
          "name": "_use",
          "type": "bool"
        }
      ],
      "name": "setUseDistributorList",
      "outputs": [],
      "stateMutability": "nonpayable",
      "type": "function"
    },
    {
      "inputs": [],
      "name": "stake",
      "outputs": [],
      "stateMutability": "nonpayable",
      "type": "function"
    },
    {
      "inputs": [
        {
          "internalType": "uint256",
          "name": "_amount",
          "type": "uint256"
        }
      ],
      "name": "withdraw",
      "outputs": [],
      "stateMutability": "nonpayable",
      "type": "function"
    }
  ],
  "bytecode": "0x60a060405260646002556004805460ff1916600117905534801561002257600080fd5b50604051611a4b380380611a4b8339818101604052602081101561004557600080fd5b50516001600160601b031960609190911b16608052600080546001600160a01b0319163390811782558152600360205260409020805460ff1916600117905560805160601c6119826100c96000398061042c528061052f52806108e15280610916528061093f5280610bd05280610c105280610c50528061128752506119826000f3fe608060405234801561001057600080fd5b50600436106101735760003560e01c806396ce0795116100de578063cc7554eb11610097578063d782139a11610071578063d782139a1461034b578063e30c397814610353578063e4fc6b6d1461035b578063f2f6a6b61461036357610173565b8063cc7554eb146102f8578063d52350ff14610315578063d59ba0df1461031d57610173565b806396ce0795146102755780639ec5a8941461027d578063ba1294b814610285578063c42069ec146102a4578063cb22356b146102ca578063cc642784146102d257610173565b80634707d000116101305780634707d0001461020157806351c92b131461022f5780636d4a2ea11461025557806379bdb63c1461025d5780638757b15b146102655780638da5cb5b1461026d57610173565b806305de6db01461017857806312065fe01461019c578063236dcb63146101b65780632e1a7d4d146101be57806338f16d28146101dd5780633a4b66f1146101f9575b600080fd5b61018061036b565b604080516001600160a01b039092168252519081900360200190f35b6101a4610383565b60408051918252519081900360200190f35b610180610409565b6101db600480360360208110156101d457600080fd5b5035610421565b005b6101e561051b565b604080519115158252519081900360200190f35b6101db610524565b6101db6004803603604081101561021757600080fd5b506001600160a01b03813581169160200135166105f2565b6101db6004803603602081101561024557600080fd5b50356001600160a01b0316610781565b6101db610a11565b610180610acc565b6101db610ae4565b610180610c39565b6101a4610c48565b610180610c4e565b6101db6004803603602081101561029b57600080fd5b50351515610c72565b6101db600480360360208110156102ba57600080fd5b50356001600160a01b0316610ccc565b6101a4610d35565b6101e5600480360360208110156102e857600080fd5b50356001600160a01b0316610d3b565b6101db6004803603602081101561030e57600080fd5b5035610d50565b610180610ddd565b6101db6004803603604081101561033357600080fd5b506001600160a01b0381351690602001351515610df5565b610180610e9c565b610180610eb4565b6101db610ec3565b610180611336565b73cf50b810e57ac33b91dcf525c6ddd9881b13933281565b604080516370a0823160e01b8152306004820152905160009173cf50b810e57ac33b91dcf525c6ddd9881b139332916370a0823191602480820192602092909190829003018186803b1580156103d857600080fd5b505afa1580156103ec573d6000803e3d6000fd5b505050506040513d602081101561040257600080fd5b5051905090565b7362b9c7356a2dc64a1969e19c23e4f579f9810aa781565b336001600160a01b037f00000000000000000000000000000000000000000000000000000000000000001614610486576040805162461bcd60e51b8152602060048201526005602482015264042c2eae8d60db1b604482015290519081900360640190fd5b60408051631c683a1b60e11b815260048101839052600060248201819052915173cf50b810e57ac33b91dcf525c6ddd9881b139332926338d07436926044808201939182900301818387803b1580156104de57600080fd5b505af11580156104f2573d6000803e3d6000fd5b506105189250734e3fbd56cd56c3e72c1403e103b45db9da5b9d2b91503390508361134e565b50565b60045460ff1681565b336001600160a01b037f00000000000000000000000000000000000000000000000000000000000000001614610589576040805162461bcd60e51b8152602060048201526005602482015264042c2eae8d60db1b604482015290519081900360640190fd5b73cf50b810e57ac33b91dcf525c6ddd9881b1393326001600160a01b0316638dcb40616040518163ffffffff1660e01b8152600401600060405180830381600087803b1580156105d857600080fd5b505af11580156105ec573d6000803e3d6000fd5b50505050565b6000546001600160a01b03163314610639576040805162461bcd60e51b8152602060048201526005602482015264042c2eae8d60db1b604482015290519081900360640190fd5b6001600160a01b03821673d533a949740bb3306d119cc777fa900ba034cd521480159061068357506001600160a01b038216734e3fbd56cd56c3e72c1403e103b45db9da5b9d2b14155b80156106ac57506001600160a01b0382167362b9c7356a2dc64a1969e19c23e4f579f9810aa714155b6106eb576040805162461bcd60e51b815260206004820152600b60248201526a1b9bdd08185b1b1bddd95960aa1b604482015290519081900360640190fd5b6000826001600160a01b03166370a08231306040518263ffffffff1660e01b815260040180826001600160a01b0316815260200191505060206040518083038186803b15801561073a57600080fd5b505afa15801561074e573d6000803e3d6000fd5b505050506040513d602081101561076457600080fd5b5051905061077c6001600160a01b038416838361134e565b505050565b6001600160a01b03811673d533a949740bb3306d119cc777fa900ba034cd52148015906107cb57506001600160a01b0381167362b9c7356a2dc64a1969e19c23e4f579f9810aa714155b61080a576040805162461bcd60e51b815260206004820152600b60248201526a1b9bdd08185b1b1bddd95960aa1b604482015290519081900360640190fd5b6000816001600160a01b03166370a08231306040518263ffffffff1660e01b815260040180826001600160a01b0316815260200191505060206040518083038186803b15801561085957600080fd5b505afa15801561086d573d6000803e3d6000fd5b505050506040513d602081101561088357600080fd5b505190508015610a0d5760006108b06127106108aa600254856113a090919063ffffffff16565b90611402565b90506108bc8282611469565b91506108d26001600160a01b038416338361134e565b6109076001600160a01b0384167f000000000000000000000000000000000000000000000000000000000000000060006114c6565b61093d6001600160a01b0384167f00000000000000000000000000000000000000000000000000000000000000006000196114c6565b7f00000000000000000000000000000000000000000000000000000000000000006001600160a01b031663b66503cf84846040518363ffffffff1660e01b815260040180836001600160a01b0316815260200182815260200192505050600060405180830381600087803b1580156109b457600080fd5b505af11580156109c8573d6000803e3d6000fd5b50506040805185815290516001600160a01b03871693507fdf29796aad820e4bb192f3a8d631b76519bcd2cbe77cc85af20e9df53cece08692509081900360200190a2505b5050565b6000546001600160a01b03163314610a58576040805162461bcd60e51b8152602060048201526005602482015264042c2eae8d60db1b604482015290519081900360640190fd5b6001546001600160a01b0316610aa5576040805162461bcd60e51b815260206004820152600d60248201526c34b73b30b634b21037bbb732b960991b604482015290519081900360640190fd5b60018054600080546001600160a01b03199081166001600160a01b03841617909155169055565b733fe65692bfcd0e6cf84cb1e7d24108e434a7587e81565b610b18734e3fbd56cd56c3e72c1403e103b45db9da5b9d2b73cf50b810e57ac33b91dcf525c6ddd9881b13933260006114c6565b610b4d734e3fbd56cd56c3e72c1403e103b45db9da5b9d2b73cf50b810e57ac33b91dcf525c6ddd9881b1393326000196114c6565b610b8173d533a949740bb3306d119cc777fa900ba034cd52738014595f2ab54cd7c604b00e9fb932176fdc86ae60006114c6565b610bb673d533a949740bb3306d119cc777fa900ba034cd52738014595f2ab54cd7c604b00e9fb932176fdc86ae6000196114c6565b610bf67362b9c7356a2dc64a1969e19c23e4f579f9810aa77f000000000000000000000000000000000000000000000000000000000000000060006114c6565b610c377362b9c7356a2dc64a1969e19c23e4f579f9810aa77f00000000000000000000000000000000000000000000000000000000000000006000196114c6565b565b6000546001600160a01b031681565b61271081565b7f000000000000000000000000000000000000000000000000000000000000000081565b6000546001600160a01b03163314610cb9576040805162461bcd60e51b8152602060048201526005602482015264042c2eae8d60db1b604482015290519081900360640190fd5b6004805460ff1916911515919091179055565b6000546001600160a01b03163314610d13576040805162461bcd60e51b8152602060048201526005602482015264042c2eae8d60db1b604482015290519081900360640190fd5b600180546001600160a01b0319166001600160a01b0392909216919091179055565b60025481565b60036020526000908152604090205460ff1681565b6000546001600160a01b03163314610d97576040805162461bcd60e51b8152602060048201526005602482015264042c2eae8d60db1b604482015290519081900360640190fd5b6064811115610dd8576040805162461bcd60e51b81526020600482015260086024820152670e8dede40d0d2ced60c31b604482015290519081900360640190fd5b600255565b738014595f2ab54cd7c604b00e9fb932176fdc86ae81565b6000546001600160a01b03163314610e3c576040805162461bcd60e51b8152602060048201526005602482015264042c2eae8d60db1b604482015290519081900360640190fd5b6001600160a01b038216600081815260036020908152604091829020805460ff1916851515908117909155825190815291517f3bb4fb70bcd6f2a6c7b656049bb6f5ea7c3abc5e6f9aa7d72c621b082938174a9281900390910190a25050565b73d533a949740bb3306d119cc777fa900ba034cd5281565b6001546001600160a01b031681565b60045460ff1615610f1a573360009081526003602052604090205460ff16610f1a576040805162461bcd60e51b8152602060048201526005602482015264042c2eae8d60db1b604482015290519081900360640190fd5b6040805163a4698feb60e01b8152600060048201819052915173cf50b810e57ac33b91dcf525c6ddd9881b1393329263a4698feb926024808201939182900301818387803b158015610f6b57600080fd5b505af1158015610f7f573d6000803e3d6000fd5b5050604080516370a0823160e01b815230600482015290516000935073d533a949740bb3306d119cc777fa900ba034cd5292506370a0823191602480820192602092909190829003018186803b158015610fd857600080fd5b505afa158015610fec573d6000803e3d6000fd5b505050506040513d602081101561100257600080fd5b50519050801561107f5760408051639a40832160e01b815260048101839052600160248201529051738014595f2ab54cd7c604b00e9fb932176fdc86ae91639a40832191604480830192600092919082900301818387803b15801561106657600080fd5b505af115801561107a573d6000803e3d6000fd5b505050505b604080516370a0823160e01b81523060048201529051600091733fe65692bfcd0e6cf84cb1e7d24108e434a7587e916370a0823191602480820192602092909190829003018186803b1580156110d457600080fd5b505afa1580156110e8573d6000803e3d6000fd5b505050506040513d60208110156110fe57600080fd5b5051905080156111795760408051631c683a1b60e11b8152600481018390526000602482018190529151733fe65692bfcd0e6cf84cb1e7d24108e434a7587e926338d07436926044808201939182900301818387803b15801561116057600080fd5b505af1158015611174573d6000803e3d6000fd5b505050505b604080516370a0823160e01b815230600482015290516000917362b9c7356a2dc64a1969e19c23e4f579f9810aa7916370a0823191602480820192602092909190829003018186803b1580156111ce57600080fd5b505afa1580156111e2573d6000803e3d6000fd5b505050506040513d60208110156111f857600080fd5b50519050801561077c57600061121f6127106108aa600254856113a090919063ffffffff16565b905061122b8282611469565b915061124c7362b9c7356a2dc64a1969e19c23e4f579f9810aa7338361134e565b6040805163b66503cf60e01b81527362b9c7356a2dc64a1969e19c23e4f579f9810aa760048201526024810184905290516001600160a01b037f0000000000000000000000000000000000000000000000000000000000000000169163b66503cf91604480830192600092919082900301818387803b1580156112ce57600080fd5b505af11580156112e2573d6000803e3d6000fd5b50506040805185815290517362b9c7356a2dc64a1969e19c23e4f579f9810aa793507fdf29796aad820e4bb192f3a8d631b76519bcd2cbe77cc85af20e9df53cece08692509081900360200190a250505050565b734e3fbd56cd56c3e72c1403e103b45db9da5b9d2b81565b604080516001600160a01b038416602482015260448082018490528251808303909101815260649091019091526020810180516001600160e01b031663a9059cbb60e01b17905261077c9084906115d5565b6000826113af575060006113fc565b828202828482816113bc57fe5b04146113f95760405162461bcd60e51b81526004018080602001828103825260218152602001806118cc6021913960400191505060405180910390fd5b90505b92915050565b6000808211611458576040805162461bcd60e51b815260206004820152601a60248201527f536166654d6174683a206469766973696f6e206279207a65726f000000000000604482015290519081900360640190fd5b81838161146157fe5b049392505050565b6000828211156114c0576040805162461bcd60e51b815260206004820152601e60248201527f536166654d6174683a207375627472616374696f6e206f766572666c6f770000604482015290519081900360640190fd5b50900390565b80158061154c575060408051636eb1769f60e11b81523060048201526001600160a01b03848116602483015291519185169163dd62ed3e91604480820192602092909190829003018186803b15801561151e57600080fd5b505afa158015611532573d6000803e3d6000fd5b505050506040513d602081101561154857600080fd5b5051155b6115875760405162461bcd60e51b81526004018080602001828103825260368152602001806119176036913960400191505060405180910390fd5b604080516001600160a01b038416602482015260448082018490528251808303909101815260649091019091526020810180516001600160e01b031663095ea7b360e01b17905261077c9084905b606061162a826040518060400160405280602081526020017f5361666545524332303a206c6f772d6c6576656c2063616c6c206661696c6564815250856001600160a01b03166116869092919063ffffffff16565b80519091501561077c5780806020019051602081101561164957600080fd5b505161077c5760405162461bcd60e51b815260040180806020018281038252602a8152602001806118ed602a913960400191505060405180910390fd5b6060611695848460008561169f565b90505b9392505050565b6060824710156116e05760405162461bcd60e51b81526004018080602001828103825260268152602001806118a66026913960400191505060405180910390fd5b6116e9856117fb565b61173a576040805162461bcd60e51b815260206004820152601d60248201527f416464726573733a2063616c6c20746f206e6f6e2d636f6e7472616374000000604482015290519081900360640190fd5b60006060866001600160a01b031685876040518082805190602001908083835b602083106117795780518252601f19909201916020918201910161175a565b6001836020036101000a03801982511681845116808217855250505050505090500191505060006040518083038185875af1925050503d80600081146117db576040519150601f19603f3d011682016040523d82523d6000602084013e6117e0565b606091505b50915091506117f0828286611801565b979650505050505050565b3b151590565b60608315611810575081611698565b8251156118205782518084602001fd5b8160405162461bcd60e51b81526004018080602001828103825283818151815260200191508051906020019080838360005b8381101561186a578181015183820152602001611852565b50505050905090810190601f1680156118975780820380516001836020036101000a031916815260200191505b509250505060405180910390fdfe416464726573733a20696e73756666696369656e742062616c616e636520666f722063616c6c536166654d6174683a206d756c7469706c69636174696f6e206f766572666c6f775361666545524332303a204552433230206f7065726174696f6e20646964206e6f7420737563636565645361666545524332303a20617070726f76652066726f6d206e6f6e2d7a65726f20746f206e6f6e2d7a65726f20616c6c6f77616e6365a2646970667358221220eafd2ae9417f04d3468509b00b0806326524f26bae27c837e1c70fbcc270138464736f6c634300060c0033",
  "linkReferences": {},
  "deployedLinkReferences": {}
}