{
  "_format": "hh-sol-artifact-1",
  "contractName": "MockKaglaGauge",
  "sourceName": "contracts/mocks/MockKaglaGauge.sol",
  "abi": [
    {
      "inputs": [
        {
          "internalType": "address",
          "name": "_lpToken",
          "type": "address"
        }
      ],
      "stateMutability": "nonpayable",
      "type": "constructor"
    },
    {
      "inputs": [
        {
          "internalType": "address",
          "name": "_address",
          "type": "address"
        }
      ],
      "name": "balanceOf",
      "outputs": [
        {
          "internalType": "uint256",
          "name": "",
          "type": "uint256"
        }
      ],
      "stateMutability": "view",
      "type": "function"
    },
    {
      "inputs": [],
      "name": "claim_rewards",
      "outputs": [],
      "stateMutability": "nonpayable",
      "type": "function"
    },
    {
      "inputs": [
        {
          "internalType": "uint256",
          "name": "_amount",
          "type": "uint256"
        }
      ],
      "name": "deposit",
      "outputs": [],
      "stateMutability": "nonpayable",
      "type": "function"
    },
    {
      "inputs": [],
      "name": "lpToken",
      "outputs": [
        {
          "internalType": "contract IERC20",
          "name": "",
          "type": "address"
        }
      ],
      "stateMutability": "view",
      "type": "function"
    },
    {
      "inputs": [],
      "name": "lp_token",
      "outputs": [
        {
          "internalType": "address",
          "name": "",
          "type": "address"
        }
      ],
      "stateMutability": "view",
      "type": "function"
    },
    {
      "inputs": [
        {
          "internalType": "uint256",
          "name": "_amount",
          "type": "uint256"
        }
      ],
      "name": "reward_tokens",
      "outputs": [
        {
          "internalType": "address",
          "name": "",
          "type": "address"
        }
      ],
      "stateMutability": "view",
      "type": "function"
    },
    {
      "inputs": [],
      "name": "rewarded_token",
      "outputs": [
        {
          "internalType": "address",
          "name": "",
          "type": "address"
        }
      ],
      "stateMutability": "view",
      "type": "function"
    },
    {
      "inputs": [
        {
          "internalType": "uint256",
          "name": "_amount",
          "type": "uint256"
        }
      ],
      "name": "withdraw",
      "outputs": [],
      "stateMutability": "nonpayable",
      "type": "function"
    }
  ],
  "bytecode": "0x608060405234801561001057600080fd5b506040516106a73803806106a78339818101604052602081101561003357600080fd5b5051600080546001600160a01b039092166001600160a01b0319909216919091179055610642806100656000396000f3fe608060405234801561001057600080fd5b50600436106100885760003560e01c806370a082311161005b57806370a08231146100f557806382c630661461012d578063b6b55f2514610135578063e6f1daf21461015257610088565b806316fa50b11461008d5780632e1a7d4d146100b157806354c49fe9146100d05780635fcbd285146100ed575b600080fd5b61009561015a565b604080516001600160a01b039092168252519081900360200190f35b6100ce600480360360208110156100c757600080fd5b503561015f565b005b610095600480360360208110156100e657600080fd5b5035610179565b61009561017f565b61011b6004803603602081101561010b57600080fd5b50356001600160a01b031661018e565b60408051918252519081900360200190f35b61009561020c565b6100ce6004803603602081101561014b57600080fd5b503561021b565b6100ce610233565b600090565b600054610176906001600160a01b03163383610235565b50565b50600090565b6000546001600160a01b031681565b60008054604080516370a0823160e01b815230600482015290516001600160a01b03909216916370a0823191602480820192602092909190829003018186803b1580156101da57600080fd5b505afa1580156101ee573d6000803e3d6000fd5b505050506040513d602081101561020457600080fd5b505192915050565b6000546001600160a01b031690565b600054610176906001600160a01b031633308461028c565b565b604080516001600160a01b038416602482015260448082018490528251808303909101815260649091019091526020810180516001600160e01b031663a9059cbb60e01b1790526102879084906102ec565b505050565b604080516001600160a01b0380861660248301528416604482015260648082018490528251808303909101815260849091019091526020810180516001600160e01b03166323b872dd60e01b1790526102e69085906102ec565b50505050565b6060610341826040518060400160405280602081526020017f5361666545524332303a206c6f772d6c6576656c2063616c6c206661696c6564815250856001600160a01b031661039d9092919063ffffffff16565b8051909150156102875780806020019051602081101561036057600080fd5b50516102875760405162461bcd60e51b815260040180806020018281038252602a8152602001806105e3602a913960400191505060405180910390fd5b60606103ac84846000856103b6565b90505b9392505050565b6060824710156103f75760405162461bcd60e51b81526004018080602001828103825260268152602001806105bd6026913960400191505060405180910390fd5b61040085610512565b610451576040805162461bcd60e51b815260206004820152601d60248201527f416464726573733a2063616c6c20746f206e6f6e2d636f6e7472616374000000604482015290519081900360640190fd5b60006060866001600160a01b031685876040518082805190602001908083835b602083106104905780518252601f199092019160209182019101610471565b6001836020036101000a03801982511681845116808217855250505050505090500191505060006040518083038185875af1925050503d80600081146104f2576040519150601f19603f3d011682016040523d82523d6000602084013e6104f7565b606091505b5091509150610507828286610518565b979650505050505050565b3b151590565b606083156105275750816103af565b8251156105375782518084602001fd5b8160405162461bcd60e51b81526004018080602001828103825283818151815260200191508051906020019080838360005b83811015610581578181015183820152602001610569565b50505050905090810190601f1680156105ae5780820380516001836020036101000a031916815260200191505b509250505060405180910390fdfe416464726573733a20696e73756666696369656e742062616c616e636520666f722063616c6c5361666545524332303a204552433230206f7065726174696f6e20646964206e6f742073756363656564a26469706673582212204ef17aa7117ceafeb533e03105a243f2cb2d37a27bb34729ad6a8d570c0a17bd64736f6c634300060c0033",
  "linkReferences": {},
  "deployedLinkReferences": {}
}