{
  "_format": "hh-sol-artifact-1",
  "contractName": "MockKaglaAddressProvider",
  "sourceName": "contracts/mocks/MockKaglaAddressProvider.sol",
  "abi": [
    {
      "inputs": [
        {
          "internalType": "address",
          "name": "_registry",
          "type": "address"
        },
        {
          "internalType": "address",
          "name": "_feeDistributor",
          "type": "address"
        }
      ],
      "stateMutability": "nonpayable",
      "type": "constructor"
    },
    {
      "inputs": [],
      "name": "feeDistributor",
      "outputs": [
        {
          "internalType": "address",
          "name": "",
          "type": "address"
        }
      ],
      "stateMutability": "view",
      "type": "function"
    },
    {
      "inputs": [
        {
          "internalType": "uint256",
          "name": "_id",
          "type": "uint256"
        }
      ],
      "name": "get_address",
      "outputs": [
        {
          "internalType": "address",
          "name": "",
          "type": "address"
        }
      ],
      "stateMutability": "view",
      "type": "function"
    },
    {
      "inputs": [],
      "name": "get_registry",
      "outputs": [
        {
          "internalType": "address",
          "name": "",
          "type": "address"
        }
      ],
      "stateMutability": "view",
      "type": "function"
    },
    {
      "inputs": [],
      "name": "registry",
      "outputs": [
        {
          "internalType": "address",
          "name": "",
          "type": "address"
        }
      ],
      "stateMutability": "view",
      "type": "function"
    }
  ],
  "bytecode": "0x608060405234801561001057600080fd5b506040516101dd3803806101dd8339818101604052604081101561003357600080fd5b508051602090910151600080546001600160a01b039384166001600160a01b031991821617909155600180549390921692169190911790556101638061007a6000396000f3fe608060405234801561001057600080fd5b506004361061004c5760003560e01c80630d43e8ad14610051578063493f4f74146100755780637b10399914610092578063a262904b1461009a575b600080fd5b6100596100a2565b604080516001600160a01b039092168252519081900360200190f35b6100596004803603602081101561008b57600080fd5b50356100b1565b61005961010f565b61005961011e565b6001546001600160a01b031681565b6000816004146100fe576040805162461bcd60e51b815260206004820152601360248201527214dd5c1c1bdc9d081bdb9b1e481a59080f480d606a1b604482015290519081900360640190fd5b50506001546001600160a01b031690565b6000546001600160a01b031681565b6000546001600160a01b03169056fea264697066735822122060f9782953811a4b7022abf6343443b768956aa8ffc91620fbbc6c7aae7701f864736f6c634300060c0033",
  "linkReferences": {},
  "deployedLinkReferences": {}
}