{
  "_format": "hh-sol-artifact-1",
  "contractName": "MuuuRewardPool",
  "sourceName": "contracts/MuuuRewardPool.sol",
  "abi": [
    {
      "inputs": [
        {
          "internalType": "address",
          "name": "stakingToken_",
          "type": "address"
        },
        {
          "internalType": "address",
          "name": "rewardToken_",
          "type": "address"
        },
        {
          "internalType": "address",
          "name": "kglDeposits_",
          "type": "address"
        },
        {
          "internalType": "address",
          "name": "muKglRewards_",
          "type": "address"
        },
        {
          "internalType": "address",
          "name": "muKglToken_",
          "type": "address"
        },
        {
          "internalType": "address",
          "name": "operator_",
          "type": "address"
        },
        {
          "internalType": "address",
          "name": "rewardManager_",
          "type": "address"
        }
      ],
      "stateMutability": "nonpayable",
      "type": "constructor"
    },
    {
      "anonymous": false,
      "inputs": [
        {
          "indexed": false,
          "internalType": "uint256",
          "name": "reward",
          "type": "uint256"
        }
      ],
      "name": "RewardAdded",
      "type": "event"
    },
    {
      "anonymous": false,
      "inputs": [
        {
          "indexed": true,
          "internalType": "address",
          "name": "user",
          "type": "address"
        },
        {
          "indexed": false,
          "internalType": "uint256",
          "name": "reward",
          "type": "uint256"
        }
      ],
      "name": "RewardPaid",
      "type": "event"
    },
    {
      "anonymous": false,
      "inputs": [
        {
          "indexed": true,
          "internalType": "address",
          "name": "user",
          "type": "address"
        },
        {
          "indexed": false,
          "internalType": "uint256",
          "name": "amount",
          "type": "uint256"
        }
      ],
      "name": "Staked",
      "type": "event"
    },
    {
      "anonymous": false,
      "inputs": [
        {
          "indexed": true,
          "internalType": "address",
          "name": "user",
          "type": "address"
        },
        {
          "indexed": false,
          "internalType": "uint256",
          "name": "amount",
          "type": "uint256"
        }
      ],
      "name": "Withdrawn",
      "type": "event"
    },
    {
      "inputs": [],
      "name": "FEE_DENOMINATOR",
      "outputs": [
        {
          "internalType": "uint256",
          "name": "",
          "type": "uint256"
        }
      ],
      "stateMutability": "view",
      "type": "function"
    },
    {
      "inputs": [
        {
          "internalType": "address",
          "name": "_reward",
          "type": "address"
        }
      ],
      "name": "addExtraReward",
      "outputs": [],
      "stateMutability": "nonpayable",
      "type": "function"
    },
    {
      "inputs": [
        {
          "internalType": "address",
          "name": "account",
          "type": "address"
        }
      ],
      "name": "balanceOf",
      "outputs": [
        {
          "internalType": "uint256",
          "name": "",
          "type": "uint256"
        }
      ],
      "stateMutability": "view",
      "type": "function"
    },
    {
      "inputs": [],
      "name": "clearExtraRewards",
      "outputs": [],
      "stateMutability": "nonpayable",
      "type": "function"
    },
    {
      "inputs": [],
      "name": "currentRewards",
      "outputs": [
        {
          "internalType": "uint256",
          "name": "",
          "type": "uint256"
        }
      ],
      "stateMutability": "view",
      "type": "function"
    },
    {
      "inputs": [
        {
          "internalType": "uint256",
          "name": "_amount",
          "type": "uint256"
        }
      ],
      "name": "donate",
      "outputs": [
        {
          "internalType": "bool",
          "name": "",
          "type": "bool"
        }
      ],
      "stateMutability": "nonpayable",
      "type": "function"
    },
    {
      "inputs": [],
      "name": "duration",
      "outputs": [
        {
          "internalType": "uint256",
          "name": "",
          "type": "uint256"
        }
      ],
      "stateMutability": "view",
      "type": "function"
    },
    {
      "inputs": [
        {
          "internalType": "address",
          "name": "account",
          "type": "address"
        }
      ],
      "name": "earned",
      "outputs": [
        {
          "internalType": "uint256",
          "name": "",
          "type": "uint256"
        }
      ],
      "stateMutability": "view",
      "type": "function"
    },
    {
      "inputs": [
        {
          "internalType": "uint256",
          "name": "",
          "type": "uint256"
        }
      ],
      "name": "extraRewards",
      "outputs": [
        {
          "internalType": "address",
          "name": "",
          "type": "address"
        }
      ],
      "stateMutability": "view",
      "type": "function"
    },
    {
      "inputs": [],
      "name": "extraRewardsLength",
      "outputs": [
        {
          "internalType": "uint256",
          "name": "",
          "type": "uint256"
        }
      ],
      "stateMutability": "view",
      "type": "function"
    },
    {
      "inputs": [
        {
          "internalType": "bool",
          "name": "_stake",
          "type": "bool"
        }
      ],
      "name": "getReward",
      "outputs": [],
      "stateMutability": "nonpayable",
      "type": "function"
    },
    {
      "inputs": [
        {
          "internalType": "address",
          "name": "_account",
          "type": "address"
        },
        {
          "internalType": "bool",
          "name": "_claimExtras",
          "type": "bool"
        },
        {
          "internalType": "bool",
          "name": "_stake",
          "type": "bool"
        }
      ],
      "name": "getReward",
      "outputs": [],
      "stateMutability": "nonpayable",
      "type": "function"
    },
    {
      "inputs": [],
      "name": "historicalRewards",
      "outputs": [
        {
          "internalType": "uint256",
          "name": "",
          "type": "uint256"
        }
      ],
      "stateMutability": "view",
      "type": "function"
    },
    {
      "inputs": [],
      "name": "kglDeposits",
      "outputs": [
        {
          "internalType": "address",
          "name": "",
          "type": "address"
        }
      ],
      "stateMutability": "view",
      "type": "function"
    },
    {
      "inputs": [],
      "name": "lastTimeRewardApplicable",
      "outputs": [
        {
          "internalType": "uint256",
          "name": "",
          "type": "uint256"
        }
      ],
      "stateMutability": "view",
      "type": "function"
    },
    {
      "inputs": [],
      "name": "lastUpdateTime",
      "outputs": [
        {
          "internalType": "uint256",
          "name": "",
          "type": "uint256"
        }
      ],
      "stateMutability": "view",
      "type": "function"
    },
    {
      "inputs": [],
      "name": "muKglRewards",
      "outputs": [
        {
          "internalType": "address",
          "name": "",
          "type": "address"
        }
      ],
      "stateMutability": "view",
      "type": "function"
    },
    {
      "inputs": [],
      "name": "muKglToken",
      "outputs": [
        {
          "internalType": "contract IERC20",
          "name": "",
          "type": "address"
        }
      ],
      "stateMutability": "view",
      "type": "function"
    },
    {
      "inputs": [],
      "name": "newRewardRatio",
      "outputs": [
        {
          "internalType": "uint256",
          "name": "",
          "type": "uint256"
        }
      ],
      "stateMutability": "view",
      "type": "function"
    },
    {
      "inputs": [],
      "name": "operator",
      "outputs": [
        {
          "internalType": "address",
          "name": "",
          "type": "address"
        }
      ],
      "stateMutability": "view",
      "type": "function"
    },
    {
      "inputs": [],
      "name": "periodFinish",
      "outputs": [
        {
          "internalType": "uint256",
          "name": "",
          "type": "uint256"
        }
      ],
      "stateMutability": "view",
      "type": "function"
    },
    {
      "inputs": [
        {
          "internalType": "uint256",
          "name": "_rewards",
          "type": "uint256"
        }
      ],
      "name": "queueNewRewards",
      "outputs": [],
      "stateMutability": "nonpayable",
      "type": "function"
    },
    {
      "inputs": [],
      "name": "queuedRewards",
      "outputs": [
        {
          "internalType": "uint256",
          "name": "",
          "type": "uint256"
        }
      ],
      "stateMutability": "view",
      "type": "function"
    },
    {
      "inputs": [],
      "name": "rewardManager",
      "outputs": [
        {
          "internalType": "address",
          "name": "",
          "type": "address"
        }
      ],
      "stateMutability": "view",
      "type": "function"
    },
    {
      "inputs": [],
      "name": "rewardPerToken",
      "outputs": [
        {
          "internalType": "uint256",
          "name": "",
          "type": "uint256"
        }
      ],
      "stateMutability": "view",
      "type": "function"
    },
    {
      "inputs": [],
      "name": "rewardPerTokenStored",
      "outputs": [
        {
          "internalType": "uint256",
          "name": "",
          "type": "uint256"
        }
      ],
      "stateMutability": "view",
      "type": "function"
    },
    {
      "inputs": [],
      "name": "rewardRate",
      "outputs": [
        {
          "internalType": "uint256",
          "name": "",
          "type": "uint256"
        }
      ],
      "stateMutability": "view",
      "type": "function"
    },
    {
      "inputs": [],
      "name": "rewardToken",
      "outputs": [
        {
          "internalType": "contract IERC20",
          "name": "",
          "type": "address"
        }
      ],
      "stateMutability": "view",
      "type": "function"
    },
    {
      "inputs": [
        {
          "internalType": "address",
          "name": "",
          "type": "address"
        }
      ],
      "name": "rewards",
      "outputs": [
        {
          "internalType": "uint256",
          "name": "",
          "type": "uint256"
        }
      ],
      "stateMutability": "view",
      "type": "function"
    },
    {
      "inputs": [
        {
          "internalType": "uint256",
          "name": "_amount",
          "type": "uint256"
        }
      ],
      "name": "stake",
      "outputs": [],
      "stateMutability": "nonpayable",
      "type": "function"
    },
    {
      "inputs": [],
      "name": "stakeAll",
      "outputs": [],
      "stateMutability": "nonpayable",
      "type": "function"
    },
    {
      "inputs": [
        {
          "internalType": "address",
          "name": "_for",
          "type": "address"
        },
        {
          "internalType": "uint256",
          "name": "_amount",
          "type": "uint256"
        }
      ],
      "name": "stakeFor",
      "outputs": [],
      "stateMutability": "nonpayable",
      "type": "function"
    },
    {
      "inputs": [],
      "name": "stakingToken",
      "outputs": [
        {
          "internalType": "contract IERC20",
          "name": "",
          "type": "address"
        }
      ],
      "stateMutability": "view",
      "type": "function"
    },
    {
      "inputs": [],
      "name": "totalSupply",
      "outputs": [
        {
          "internalType": "uint256",
          "name": "",
          "type": "uint256"
        }
      ],
      "stateMutability": "view",
      "type": "function"
    },
    {
      "inputs": [
        {
          "internalType": "address",
          "name": "",
          "type": "address"
        }
      ],
      "name": "userRewardPerTokenPaid",
      "outputs": [
        {
          "internalType": "uint256",
          "name": "",
          "type": "uint256"
        }
      ],
      "stateMutability": "view",
      "type": "function"
    },
    {
      "inputs": [
        {
          "internalType": "uint256",
          "name": "_amount",
          "type": "uint256"
        },
        {
          "internalType": "bool",
          "name": "claim",
          "type": "bool"
        }
      ],
      "name": "withdraw",
      "outputs": [],
      "stateMutability": "nonpayable",
      "type": "function"
    },
    {
      "inputs": [
        {
          "internalType": "bool",
          "name": "claim",
          "type": "bool"
        }
      ],
      "name": "withdrawAll",
      "outputs": [],
      "stateMutability": "nonpayable",
      "type": "function"
    }
  ],
  "bytecode": "0x61016060405260008055600060015560006004556000600555600060065534801561002957600080fd5b5060405161206a38038061206a833981810160405260e081101561004c57600080fd5b5080516020820151604083015160608085015160808087015160a08089015160c0998a01516001600160601b031999871b8a1690925296851b881690925294831b861690965294811b84166101405290811b831660e05292831b82166101005290911b166101205260805160601c60a05160601c60c05160601c60e05160601c6101005160601c6101205160601c6101405160601c611ee5610185600039806105ed528061066f5280610c815250806108eb528061134252806113ee5280611443528061152b5250806106be52806114105280611465528061148c5250806105235280610b605280611240528061129452806112e3525080610b3c5280610b8d5250806108855280610a955280610da95280610dfa528061103652508061112c528061116b528061121d52806112725250611ee56000f3fe608060405234801561001057600080fd5b50600436106102265760003560e01c80636c8bcee811610130578063a694fc3a116100b8578063df136d651161007c578063df136d651461049f578063ebe2b12b146104a7578063f14faf6f146104af578063f7c618c1146104e0578063f9a6e764146104e857610226565b8063a694fc3a14610462578063c8f33c911461047f578063cd3daf9d14610487578063d55a23f41461048f578063d73792a91461049757610226565b806380faa57d116100ff57806380faa57d146104055780638b8763471461040d5780638dcb406114610433578063901a7d531461043b578063a4698feb1461044357610226565b80636c8bcee8146103c757806370a08231146103cf57806372f702f3146103f55780637b0a47ee146103fd57610226565b80632ee40908116101b3578063570ca73511610182578063570ca7351461036c5780635774700d14610374578063590a41f51461037c5780635e43c47b1461039957806363d38c3b146103bf57610226565b80632ee40908146102f65780633285a6471461032257806338d074361461032a57806340c354461461034f57610226565b80630fb5a6b4116101fa5780630fb5a6b4146102b757806318160ddd146102bf5780631c1c6fe5146102c757806324ccf487146102e6578063262d3d6d146102ee57610226565b80628cc2621461022b5780630569d388146102635780630700037d1461026d5780630f4ef8a614610293575b600080fd5b6102516004803603602081101561024157600080fd5b50356001600160a01b031661051e565b60408051918252519081900360200190f35b61026b6105e2565b005b6102516004803603602081101561028357600080fd5b50356001600160a01b031661065b565b61029b61066d565b604080516001600160a01b039092168252519081900360200190f35b610251610691565b610251610698565b61026b600480360360208110156102dd57600080fd5b5035151561069f565b61029b6106bc565b6102516106e0565b61026b6004803603604081101561030c57600080fd5b506001600160a01b0381351690602001356106e6565b61029b6108e9565b61026b6004803603604081101561034057600080fd5b5080359060200135151561090d565b61029b6004803603602081101561036557600080fd5b5035610b13565b61029b610b3a565b61029b610b5e565b61026b6004803603602081101561039257600080fd5b5035610b82565b61026b600480360360208110156103af57600080fd5b50356001600160a01b0316610c76565b610251610d80565b610251610d86565b610251600480360360208110156103e557600080fd5b50356001600160a01b0316610d8c565b61029b610da7565b610251610dcb565b610251610dd1565b6102516004803603602081101561042357600080fd5b50356001600160a01b0316610de4565b61026b610df6565b610251610e9c565b61026b6004803603602081101561045957600080fd5b50351515610ea2565b61026b6004803603602081101561047857600080fd5b5035610eae565b6102516110a1565b6102516110a7565b610251611105565b61025161110b565b610251611111565b610251611117565b6104cc600480360360208110156104c557600080fd5b503561111d565b604080519115158252519081900360200190f35b61029b611169565b61026b600480360360608110156104fe57600080fd5b506001600160a01b0381351690602081013515159060400135151561118d565b6000807f00000000000000000000000000000000000000000000000000000000000000006001600160a01b031663509406186040518163ffffffff1660e01b815260040160206040518083038186803b15801561057a57600080fd5b505afa15801561058e573d6000803e3d6000fd5b505050506040513d60208110156105a457600080fd5b5051905060006105b384611634565b905060006105cd6127106105c78486611690565b906116f0565b90506105d98282611757565b95945050505050565b336001600160a01b037f0000000000000000000000000000000000000000000000000000000000000000161461064d576040805162461bcd60e51b815260206004820152600b60248201526a08585d5d1a1bdc9a5e995960aa1b604482015290519081900360640190fd5b610659600b6000611dd6565b565b600a6020526000908152604090205481565b7f000000000000000000000000000000000000000000000000000000000000000081565b62093a8081565b6007545b90565b336000908152600860205260409020546106b9908261090d565b50565b7f000000000000000000000000000000000000000000000000000000000000000081565b60065481565b816106ef6110a7565b6003556106fa610dd1565b6002556001600160a01b038116156107415761071581611634565b6001600160a01b0382166000908152600a60209081526040808320939093556003546009909152919020555b60008211610796576040805162461bcd60e51b815260206004820152601b60248201527f526577617264506f6f6c203a2043616e6e6f74207374616b6520300000000000604482015290519081900360640190fd5b600b5460005b8181101561082e57600b81815481106107b157fe5b6000918252602082200154604080516356e4bb9760e11b81526001600160a01b038981166004830152602482018990529151919092169263adc9772e926044808201939182900301818387803b15801561080a57600080fd5b505af115801561081e573d6000803e3d6000fd5b50506001909201915061079c9050565b5060075461083c90846117b4565b6007556001600160a01b03841660009081526008602052604090205461086290846117b4565b6001600160a01b038086166000908152600860205260409020919091556108ad907f00000000000000000000000000000000000000000000000000000000000000001633308661180e565b60408051848152905133917f9e71bc8eea02a63969f509818f2dafb9254532904319f9dbda79b67bd34a5f3d919081900360200190a250505050565b7f000000000000000000000000000000000000000000000000000000000000000081565b336109166110a7565b600355610921610dd1565b6002556001600160a01b038116156109685761093c81611634565b6001600160a01b0382166000908152600a60209081526040808320939093556003546009909152919020555b600083116109bd576040805162461bcd60e51b815260206004820152601e60248201527f526577617264506f6f6c203a2043616e6e6f7420776974686472617720300000604482015290519081900360640190fd5b600b5460005b81811015610a5157600b81815481106109d857fe5b60009182526020822001546040805163f3fef3a360e01b81523360048201526024810189905290516001600160a01b039092169263f3fef3a39260448084019382900301818387803b158015610a2d57600080fd5b505af1158015610a41573d6000803e3d6000fd5b5050600190920191506109c39050565b50600754610a5f9085611757565b60075533600090815260086020526040902054610a7c9085611757565b33600081815260086020526040902091909155610ac4907f00000000000000000000000000000000000000000000000000000000000000006001600160a01b03169086611868565b60408051858152905133917f7084f5476618d8e60b11ef0d7d3f06914655adb8793e28ff7f018d4c76d505d5919081900360200190a28215610b0d57610b0d336001600061118d565b50505050565b600b8181548110610b2057fe5b6000918252602090912001546001600160a01b0316905081565b7f000000000000000000000000000000000000000000000000000000000000000081565b7f000000000000000000000000000000000000000000000000000000000000000081565b336001600160a01b037f00000000000000000000000000000000000000000000000000000000000000001614610bed576040805162461bcd60e51b815260206004820152600b60248201526a08585d5d1a1bdc9a5e995960aa1b604482015290519081900360640190fd5b600454610bfb9082906117b4565b90506000544210610c1957610c0f816118bf565b60006004556106b9565b60008054610c3590610c2e9062093a80611757565b4290611757565b60015490915081026000610c4f846105c7846103e8611690565b905061033e811015610c6e57610c64846118bf565b6000600455610b0d565b505050600455565b336001600160a01b037f00000000000000000000000000000000000000000000000000000000000000001614610ce1576040805162461bcd60e51b815260206004820152600b60248201526a08585d5d1a1bdc9a5e995960aa1b604482015290519081900360640190fd5b6001600160a01b038116610d2e576040805162461bcd60e51b815260206004820152600f60248201526e217265776172642073657474696e6760881b604482015290519081900360640190fd5b600b80546001810182556000919091527f0175b7a638427703f0dbe7bb9bbf987a2551717b34e79f33b5b1008d1fa01db90180546001600160a01b0319166001600160a01b0392909216919091179055565b60045481565b61033e81565b6001600160a01b031660009081526008602052604090205490565b7f000000000000000000000000000000000000000000000000000000000000000081565b60015481565b6000610ddf426000546119e3565b905090565b60096020526000908152604090205481565b60007f00000000000000000000000000000000000000000000000000000000000000006001600160a01b03166370a08231336040518263ffffffff1660e01b815260040180826001600160a01b0316815260200191505060206040518083038186803b158015610e6557600080fd5b505afa158015610e79573d6000803e3d6000fd5b505050506040513d6020811015610e8f57600080fd5b505190506106b981610eae565b60055481565b6106b93360018361118d565b33610eb76110a7565b600355610ec2610dd1565b6002556001600160a01b03811615610f0957610edd81611634565b6001600160a01b0382166000908152600a60209081526040808320939093556003546009909152919020555b60008211610f5e576040805162461bcd60e51b815260206004820152601b60248201527f526577617264506f6f6c203a2043616e6e6f74207374616b6520300000000000604482015290519081900360640190fd5b600b5460005b81811015610ff257600b8181548110610f7957fe5b6000918252602082200154604080516356e4bb9760e11b81523360048201526024810188905290516001600160a01b039092169263adc9772e9260448084019382900301818387803b158015610fce57600080fd5b505af1158015610fe2573d6000803e3d6000fd5b505060019092019150610f649050565b5060075461100090846117b4565b6007553360009081526008602052604090205461101d90846117b4565b33600081815260086020526040902091909155611066907f00000000000000000000000000000000000000000000000000000000000000006001600160a01b031690308661180e565b60408051848152905133917f9e71bc8eea02a63969f509818f2dafb9254532904319f9dbda79b67bd34a5f3d919081900360200190a2505050565b60025481565b6000806110b2610698565b9050806110c357505060035461069c565b6110ff6110f6826105c7670de0b6b3a76400006110f06001546110f06002546110ea610dd1565b90611757565b90611690565b600354906117b4565b91505090565b600b5490565b61271081565b60035481565b60005481565b60006111546001600160a01b037f00000000000000000000000000000000000000000000000000000000000000001633308561180e565b60045461116190836117b4565b600455919050565b7f000000000000000000000000000000000000000000000000000000000000000081565b826111966110a7565b6003556111a1610dd1565b6002556001600160a01b038116156111e8576111bc81611634565b6001600160a01b0382166000908152600a60209081526040808320939093556003546009909152919020555b60006111f385611634565b90508015611593576001600160a01b038086166000908152600a60205260408120819055611265917f000000000000000000000000000000000000000000000000000000000000000016907f0000000000000000000000000000000000000000000000000000000000000000906119f9565b6112b96001600160a01b037f0000000000000000000000000000000000000000000000000000000000000000167f0000000000000000000000000000000000000000000000000000000000000000836119f9565b60408051639a40832160e01b81526004810183905260006024820181905291516001600160a01b037f00000000000000000000000000000000000000000000000000000000000000001692639a408321926044808201939182900301818387803b15801561132657600080fd5b505af115801561133a573d6000803e3d6000fd5b5050505060007f00000000000000000000000000000000000000000000000000000000000000006001600160a01b03166370a08231306040518263ffffffff1660e01b815260040180826001600160a01b0316815260200191505060206040518083038186803b1580156113ad57600080fd5b505afa1580156113c1573d6000803e3d6000fd5b505050506040513d60208110156113d757600080fd5b50519050831561151e576114366001600160a01b037f0000000000000000000000000000000000000000000000000000000000000000167f000000000000000000000000000000000000000000000000000000000000000060006119f9565b61148a6001600160a01b037f0000000000000000000000000000000000000000000000000000000000000000167f0000000000000000000000000000000000000000000000000000000000000000836119f9565b7f00000000000000000000000000000000000000000000000000000000000000006001600160a01b0316632ee4090887836040518363ffffffff1660e01b815260040180836001600160a01b0316815260200182815260200192505050600060405180830381600087803b15801561150157600080fd5b505af1158015611515573d6000803e3d6000fd5b50505050611552565b6115526001600160a01b037f0000000000000000000000000000000000000000000000000000000000000000168783611868565b6040805182815290516001600160a01b038816917fe2403640ba68fed3a2f88b7557551d1993f84b99bb10ff833f0cf8db0c5e0486919081900360200190a2505b831561162d57600b5460005b8181101561162a57600b81815481106115b457fe5b600091825260208220015460408051630c00007b60e41b81526001600160a01b038b811660048301529151919092169263c00007b0926024808201939182900301818387803b15801561160657600080fd5b505af115801561161a573d6000803e3d6000fd5b50506001909201915061159f9050565b50505b5050505050565b6001600160a01b0381166000908152600a6020908152604080832054600990925282205461168a919061168490670de0b6b3a7640000906105c79061167b906110ea6110a7565b6110f088610d8c565b906117b4565b92915050565b60008261169f5750600061168a565b828202828482816116ac57fe5b04146116e95760405162461bcd60e51b8152600401808060200182810382526021815260200180611e2f6021913960400191505060405180910390fd5b9392505050565b6000808211611746576040805162461bcd60e51b815260206004820152601a60248201527f536166654d6174683a206469766973696f6e206279207a65726f000000000000604482015290519081900360640190fd5b81838161174f57fe5b049392505050565b6000828211156117ae576040805162461bcd60e51b815260206004820152601e60248201527f536166654d6174683a207375627472616374696f6e206f766572666c6f770000604482015290519081900360640190fd5b50900390565b6000828201838110156116e9576040805162461bcd60e51b815260206004820152601b60248201527f536166654d6174683a206164646974696f6e206f766572666c6f770000000000604482015290519081900360640190fd5b604080516001600160a01b0380861660248301528416604482015260648082018490528251808303909101815260849091019091526020810180516001600160e01b03166323b872dd60e01b179052610b0d908590611b08565b604080516001600160a01b038416602482015260448082018490528251808303909101815260649091019091526020810180516001600160e01b031663a9059cbb60e01b1790526118ba908490611b08565b505050565b60006118c96110a7565b6003556118d4610dd1565b6002556001600160a01b0381161561191b576118ef81611634565b6001600160a01b0382166000908152600a60209081526040808320939093556003546009909152919020555b60065461192890836117b4565b6006556000544210611949576119418262093a806116f0565b600155611991565b600080546119579042611757565b905060006119706001548361169090919063ffffffff16565b905061197c84826117b4565b935061198b8462093a806116f0565b60015550505b60058290554260028190556119a99062093a806117b4565b6000556040805183815290517fde88a922e0d3b88b24e9623efeb464919c6bf9f66857a65e2bfcf2ce87a9433d9181900360200190a15050565b60008183106119f257816116e9565b5090919050565b801580611a7f575060408051636eb1769f60e11b81523060048201526001600160a01b03848116602483015291519185169163dd62ed3e91604480820192602092909190829003018186803b158015611a5157600080fd5b505afa158015611a65573d6000803e3d6000fd5b505050506040513d6020811015611a7b57600080fd5b5051155b611aba5760405162461bcd60e51b8152600401808060200182810382526036815260200180611e7a6036913960400191505060405180910390fd5b604080516001600160a01b038416602482015260448082018490528251808303909101815260649091019091526020810180516001600160e01b031663095ea7b360e01b1790526118ba9084905b6060611b5d826040518060400160405280602081526020017f5361666545524332303a206c6f772d6c6576656c2063616c6c206661696c6564815250856001600160a01b0316611bb99092919063ffffffff16565b8051909150156118ba57808060200190516020811015611b7c57600080fd5b50516118ba5760405162461bcd60e51b815260040180806020018281038252602a815260200180611e50602a913960400191505060405180910390fd5b6060611bc88484600085611bd0565b949350505050565b606082471015611c115760405162461bcd60e51b8152600401808060200182810382526026815260200180611e096026913960400191505060405180910390fd5b611c1a85611d2c565b611c6b576040805162461bcd60e51b815260206004820152601d60248201527f416464726573733a2063616c6c20746f206e6f6e2d636f6e7472616374000000604482015290519081900360640190fd5b60006060866001600160a01b031685876040518082805190602001908083835b60208310611caa5780518252601f199092019160209182019101611c8b565b6001836020036101000a03801982511681845116808217855250505050505090500191505060006040518083038185875af1925050503d8060008114611d0c576040519150601f19603f3d011682016040523d82523d6000602084013e611d11565b606091505b5091509150611d21828286611d32565b979650505050505050565b3b151590565b60608315611d415750816116e9565b825115611d515782518084602001fd5b8160405162461bcd60e51b81526004018080602001828103825283818151815260200191508051906020019080838360005b83811015611d9b578181015183820152602001611d83565b50505050905090810190601f168015611dc85780820380516001836020036101000a031916815260200191505b509250505060405180910390fd5b50805460008255906000526020600020908101906106b991905b80821115611e045760008155600101611df0565b509056fe416464726573733a20696e73756666696369656e742062616c616e636520666f722063616c6c536166654d6174683a206d756c7469706c69636174696f6e206f766572666c6f775361666545524332303a204552433230206f7065726174696f6e20646964206e6f7420737563636565645361666545524332303a20617070726f76652066726f6d206e6f6e2d7a65726f20746f206e6f6e2d7a65726f20616c6c6f77616e6365a2646970667358221220dd8145e9777b325af7b5b96bbff88d45f5a09a51cb1b40eaa8bb25a924a83a8364736f6c634300060c0033",
  "linkReferences": {},
  "deployedLinkReferences": {}
}