{
  "_format": "hh-sol-artifact-1",
  "contractName": "MuuuStakingWrapper",
  "sourceName": "contracts/wrappers/MuuuStakingWrapper.sol",
  "abi": [
    {
      "inputs": [],
      "stateMutability": "nonpayable",
      "type": "constructor"
    },
    {
      "anonymous": false,
      "inputs": [
        {
          "indexed": true,
          "internalType": "address",
          "name": "owner",
          "type": "address"
        },
        {
          "indexed": true,
          "internalType": "address",
          "name": "spender",
          "type": "address"
        },
        {
          "indexed": false,
          "internalType": "uint256",
          "name": "value",
          "type": "uint256"
        }
      ],
      "name": "Approval",
      "type": "event"
    },
    {
      "anonymous": false,
      "inputs": [
        {
          "indexed": true,
          "internalType": "address",
          "name": "_user",
          "type": "address"
        },
        {
          "indexed": true,
          "internalType": "address",
          "name": "_account",
          "type": "address"
        },
        {
          "indexed": false,
          "internalType": "uint256",
          "name": "_amount",
          "type": "uint256"
        },
        {
          "indexed": false,
          "internalType": "bool",
          "name": "_wrapped",
          "type": "bool"
        }
      ],
      "name": "Deposited",
      "type": "event"
    },
    {
      "anonymous": false,
      "inputs": [
        {
          "indexed": true,
          "internalType": "address",
          "name": "previousOwner",
          "type": "address"
        },
        {
          "indexed": true,
          "internalType": "address",
          "name": "newOwner",
          "type": "address"
        }
      ],
      "name": "OwnershipTransferred",
      "type": "event"
    },
    {
      "anonymous": false,
      "inputs": [
        {
          "indexed": true,
          "internalType": "address",
          "name": "from",
          "type": "address"
        },
        {
          "indexed": true,
          "internalType": "address",
          "name": "to",
          "type": "address"
        },
        {
          "indexed": false,
          "internalType": "uint256",
          "name": "value",
          "type": "uint256"
        }
      ],
      "name": "Transfer",
      "type": "event"
    },
    {
      "anonymous": false,
      "inputs": [
        {
          "indexed": true,
          "internalType": "address",
          "name": "_user",
          "type": "address"
        },
        {
          "indexed": false,
          "internalType": "uint256",
          "name": "_amount",
          "type": "uint256"
        },
        {
          "indexed": false,
          "internalType": "bool",
          "name": "_unwrapped",
          "type": "bool"
        }
      ],
      "name": "Withdrawn",
      "type": "event"
    },
    {
      "inputs": [],
      "name": "addRewards",
      "outputs": [],
      "stateMutability": "nonpayable",
      "type": "function"
    },
    {
      "inputs": [
        {
          "internalType": "address",
          "name": "owner",
          "type": "address"
        },
        {
          "internalType": "address",
          "name": "spender",
          "type": "address"
        }
      ],
      "name": "allowance",
      "outputs": [
        {
          "internalType": "uint256",
          "name": "",
          "type": "uint256"
        }
      ],
      "stateMutability": "view",
      "type": "function"
    },
    {
      "inputs": [
        {
          "internalType": "address",
          "name": "spender",
          "type": "address"
        },
        {
          "internalType": "uint256",
          "name": "amount",
          "type": "uint256"
        }
      ],
      "name": "approve",
      "outputs": [
        {
          "internalType": "bool",
          "name": "",
          "type": "bool"
        }
      ],
      "stateMutability": "nonpayable",
      "type": "function"
    },
    {
      "inputs": [
        {
          "internalType": "address",
          "name": "account",
          "type": "address"
        }
      ],
      "name": "balanceOf",
      "outputs": [
        {
          "internalType": "uint256",
          "name": "",
          "type": "uint256"
        }
      ],
      "stateMutability": "view",
      "type": "function"
    },
    {
      "inputs": [],
      "name": "collateralVault",
      "outputs": [
        {
          "internalType": "address",
          "name": "",
          "type": "address"
        }
      ],
      "stateMutability": "view",
      "type": "function"
    },
    {
      "inputs": [],
      "name": "decimals",
      "outputs": [
        {
          "internalType": "uint8",
          "name": "",
          "type": "uint8"
        }
      ],
      "stateMutability": "view",
      "type": "function"
    },
    {
      "inputs": [
        {
          "internalType": "address",
          "name": "spender",
          "type": "address"
        },
        {
          "internalType": "uint256",
          "name": "subtractedValue",
          "type": "uint256"
        }
      ],
      "name": "decreaseAllowance",
      "outputs": [
        {
          "internalType": "bool",
          "name": "",
          "type": "bool"
        }
      ],
      "stateMutability": "nonpayable",
      "type": "function"
    },
    {
      "inputs": [
        {
          "internalType": "uint256",
          "name": "_amount",
          "type": "uint256"
        },
        {
          "internalType": "address",
          "name": "_to",
          "type": "address"
        }
      ],
      "name": "deposit",
      "outputs": [],
      "stateMutability": "nonpayable",
      "type": "function"
    },
    {
      "inputs": [
        {
          "internalType": "address",
          "name": "_account",
          "type": "address"
        }
      ],
      "name": "earned",
      "outputs": [
        {
          "components": [
            {
              "internalType": "address",
              "name": "token",
              "type": "address"
            },
            {
              "internalType": "uint256",
              "name": "amount",
              "type": "uint256"
            }
          ],
          "internalType": "struct MuuuStakingWrapper.EarnedData[]",
          "name": "claimable",
          "type": "tuple[]"
        }
      ],
      "stateMutability": "view",
      "type": "function"
    },
    {
      "inputs": [
        {
          "internalType": "address",
          "name": "_account",
          "type": "address"
        }
      ],
      "name": "getReward",
      "outputs": [],
      "stateMutability": "nonpayable",
      "type": "function"
    },
    {
      "inputs": [
        {
          "internalType": "address",
          "name": "spender",
          "type": "address"
        },
        {
          "internalType": "uint256",
          "name": "addedValue",
          "type": "uint256"
        }
      ],
      "name": "increaseAllowance",
      "outputs": [
        {
          "internalType": "bool",
          "name": "",
          "type": "bool"
        }
      ],
      "stateMutability": "nonpayable",
      "type": "function"
    },
    {
      "inputs": [
        {
          "internalType": "address",
          "name": "_kaglaToken",
          "type": "address"
        },
        {
          "internalType": "address",
          "name": "_muuuToken",
          "type": "address"
        },
        {
          "internalType": "address",
          "name": "_muuuPool",
          "type": "address"
        },
        {
          "internalType": "uint256",
          "name": "_poolId",
          "type": "uint256"
        },
        {
          "internalType": "address",
          "name": "_vault",
          "type": "address"
        }
      ],
      "name": "initialize",
      "outputs": [],
      "stateMutability": "nonpayable",
      "type": "function"
    },
    {
      "inputs": [],
      "name": "isInit",
      "outputs": [
        {
          "internalType": "bool",
          "name": "",
          "type": "bool"
        }
      ],
      "stateMutability": "view",
      "type": "function"
    },
    {
      "inputs": [],
      "name": "isShutdown",
      "outputs": [
        {
          "internalType": "bool",
          "name": "",
          "type": "bool"
        }
      ],
      "stateMutability": "view",
      "type": "function"
    },
    {
      "inputs": [],
      "name": "kaglaToken",
      "outputs": [
        {
          "internalType": "address",
          "name": "",
          "type": "address"
        }
      ],
      "stateMutability": "view",
      "type": "function"
    },
    {
      "inputs": [],
      "name": "kgl",
      "outputs": [
        {
          "internalType": "address",
          "name": "",
          "type": "address"
        }
      ],
      "stateMutability": "view",
      "type": "function"
    },
    {
      "inputs": [],
      "name": "muuu",
      "outputs": [
        {
          "internalType": "address",
          "name": "",
          "type": "address"
        }
      ],
      "stateMutability": "view",
      "type": "function"
    },
    {
      "inputs": [],
      "name": "muuuBooster",
      "outputs": [
        {
          "internalType": "address",
          "name": "",
          "type": "address"
        }
      ],
      "stateMutability": "view",
      "type": "function"
    },
    {
      "inputs": [],
      "name": "muuuPool",
      "outputs": [
        {
          "internalType": "address",
          "name": "",
          "type": "address"
        }
      ],
      "stateMutability": "view",
      "type": "function"
    },
    {
      "inputs": [],
      "name": "muuuPoolId",
      "outputs": [
        {
          "internalType": "uint256",
          "name": "",
          "type": "uint256"
        }
      ],
      "stateMutability": "view",
      "type": "function"
    },
    {
      "inputs": [],
      "name": "muuuToken",
      "outputs": [
        {
          "internalType": "address",
          "name": "",
          "type": "address"
        }
      ],
      "stateMutability": "view",
      "type": "function"
    },
    {
      "inputs": [],
      "name": "name",
      "outputs": [
        {
          "internalType": "string",
          "name": "",
          "type": "string"
        }
      ],
      "stateMutability": "view",
      "type": "function"
    },
    {
      "inputs": [],
      "name": "owner",
      "outputs": [
        {
          "internalType": "address",
          "name": "",
          "type": "address"
        }
      ],
      "stateMutability": "view",
      "type": "function"
    },
    {
      "inputs": [
        {
          "internalType": "address",
          "name": "",
          "type": "address"
        }
      ],
      "name": "registeredRewards",
      "outputs": [
        {
          "internalType": "uint256",
          "name": "",
          "type": "uint256"
        }
      ],
      "stateMutability": "view",
      "type": "function"
    },
    {
      "inputs": [],
      "name": "renounceOwnership",
      "outputs": [],
      "stateMutability": "nonpayable",
      "type": "function"
    },
    {
      "inputs": [],
      "name": "rewardLength",
      "outputs": [
        {
          "internalType": "uint256",
          "name": "",
          "type": "uint256"
        }
      ],
      "stateMutability": "view",
      "type": "function"
    },
    {
      "inputs": [
        {
          "internalType": "uint256",
          "name": "",
          "type": "uint256"
        }
      ],
      "name": "rewards",
      "outputs": [
        {
          "internalType": "address",
          "name": "reward_token",
          "type": "address"
        },
        {
          "internalType": "address",
          "name": "reward_pool",
          "type": "address"
        },
        {
          "internalType": "uint128",
          "name": "reward_integral",
          "type": "uint128"
        },
        {
          "internalType": "uint128",
          "name": "reward_remaining",
          "type": "uint128"
        }
      ],
      "stateMutability": "view",
      "type": "function"
    },
    {
      "inputs": [],
      "name": "setApprovals",
      "outputs": [],
      "stateMutability": "nonpayable",
      "type": "function"
    },
    {
      "inputs": [],
      "name": "shutdown",
      "outputs": [],
      "stateMutability": "nonpayable",
      "type": "function"
    },
    {
      "inputs": [
        {
          "internalType": "uint256",
          "name": "_amount",
          "type": "uint256"
        },
        {
          "internalType": "address",
          "name": "_to",
          "type": "address"
        }
      ],
      "name": "stake",
      "outputs": [],
      "stateMutability": "nonpayable",
      "type": "function"
    },
    {
      "inputs": [],
      "name": "symbol",
      "outputs": [
        {
          "internalType": "string",
          "name": "",
          "type": "string"
        }
      ],
      "stateMutability": "view",
      "type": "function"
    },
    {
      "inputs": [
        {
          "internalType": "address",
          "name": "_account",
          "type": "address"
        }
      ],
      "name": "totalBalanceOf",
      "outputs": [
        {
          "internalType": "uint256",
          "name": "",
          "type": "uint256"
        }
      ],
      "stateMutability": "view",
      "type": "function"
    },
    {
      "inputs": [],
      "name": "totalSupply",
      "outputs": [
        {
          "internalType": "uint256",
          "name": "",
          "type": "uint256"
        }
      ],
      "stateMutability": "view",
      "type": "function"
    },
    {
      "inputs": [
        {
          "internalType": "address",
          "name": "recipient",
          "type": "address"
        },
        {
          "internalType": "uint256",
          "name": "amount",
          "type": "uint256"
        }
      ],
      "name": "transfer",
      "outputs": [
        {
          "internalType": "bool",
          "name": "",
          "type": "bool"
        }
      ],
      "stateMutability": "nonpayable",
      "type": "function"
    },
    {
      "inputs": [
        {
          "internalType": "address",
          "name": "sender",
          "type": "address"
        },
        {
          "internalType": "address",
          "name": "recipient",
          "type": "address"
        },
        {
          "internalType": "uint256",
          "name": "amount",
          "type": "uint256"
        }
      ],
      "name": "transferFrom",
      "outputs": [
        {
          "internalType": "bool",
          "name": "",
          "type": "bool"
        }
      ],
      "stateMutability": "nonpayable",
      "type": "function"
    },
    {
      "inputs": [
        {
          "internalType": "address",
          "name": "newOwner",
          "type": "address"
        }
      ],
      "name": "transferOwnership",
      "outputs": [],
      "stateMutability": "nonpayable",
      "type": "function"
    },
    {
      "inputs": [
        {
          "internalType": "address[2]",
          "name": "_accounts",
          "type": "address[2]"
        }
      ],
      "name": "user_checkpoint",
      "outputs": [
        {
          "internalType": "bool",
          "name": "",
          "type": "bool"
        }
      ],
      "stateMutability": "nonpayable",
      "type": "function"
    },
    {
      "inputs": [
        {
          "internalType": "uint256",
          "name": "_amount",
          "type": "uint256"
        }
      ],
      "name": "withdraw",
      "outputs": [],
      "stateMutability": "nonpayable",
      "type": "function"
    },
    {
      "inputs": [
        {
          "internalType": "uint256",
          "name": "_amount",
          "type": "uint256"
        }
      ],
      "name": "withdrawAndUnwrap",
      "outputs": [],
      "stateMutability": "nonpayable",
      "type": "function"
    }
  ],
  "bytecode": "0x60806040523480156200001157600080fd5b50604080518082018252600f81526e29ba30b5b2b226bababaaa37b5b2b760891b60208083019182528351808501909452600784526673746b4d75757560c81b908401528151919291620000689160039162000099565b5080516200007e90600490602084019062000099565b50506005805460ff1916601217905550600160065562000135565b828054600181600116156101000203166002900490600052602060002090601f016020900481019282601f10620000dc57805160ff19168380011785556200010c565b828001600101855582156200010c579182015b828111156200010c578251825591602001919060010190620000ef565b506200011a9291506200011e565b5090565b5b808211156200011a57600081556001016200011f565b6135cd80620001456000396000f3fe608060405234801561001057600080fd5b506004361061023c5760003560e01c80637acb77571161013b578063bf86d690116100b8578063f2f6a6b61161007c578063f2f6a6b61461045a578063f2fde38b14610462578063f301af4214610475578063fc0e74d114610498578063ff833485146104a05761023c565b8063bf86d69014610411578063c00007b014610419578063d782139a1461042c578063dd62ed3e14610434578063e2aecded146104475761023c565b8063a457c2d7116100ff578063a457c2d7146103d3578063a9059cbb146103e6578063b145a5b8146103f9578063b95c574614610401578063bb624f80146104095761023c565b80637acb7757146103a05780638757b15b146103b35780638da5cb5b146103bb57806392e37e1a146103c357806395d89b41146103cb5761023c565b8063313ce567116101c9578063530b97a41161018d578063530b97a4146103575780636309752e1461036a5780636e553f651461037257806370a0823114610385578063715018a6146103985761023c565b8063313ce5671461030157806339509351146103165780633969dfb4146103295780634b0ee02a1461033c5780634bfc6fcc1461034f5761023c565b806314d6aed01161021057806314d6aed0146102b457806318160ddd146102be57806323b872dd146102d35780632e1a7d4d146102e65780632fa73ecc146102f95761023c565b80628cc2621461024157806306fdde031461026a578063095ea7b31461027f5780630bece79c1461029f575b600080fd5b61025461024f366004612bc2565b6104b3565b6040516102619190612f69565b60405180910390f35b610272610a13565b6040516102619190612fcc565b61029261028d366004612cd9565b610aa9565b6040516102619190612fc1565b6102a7610ac7565b6040516102619190612eaf565b6102bc610ad6565b005b6102c6611132565b6040516102619190613482565b6102926102e1366004612c99565b611138565b6102bc6102f4366004612de5565b6111c0565b6102a76112ca565b6103096112e2565b60405161026191906134b3565b610292610324366004612cd9565b6112e7565b6102bc610337366004612de5565b611335565b6102c661034a366004612bc2565b611426565b6102c6611431565b6102bc610365366004612c32565b611437565b6102a7611680565b6102bc610380366004612e15565b61168f565b6102c6610393366004612bc2565b6117eb565b6102bc611806565b6102bc6103ae366004612e15565b611888565b6102bc6119a4565b6102a7611a3c565b6102a7611a51565b610272611a60565b6102926103e1366004612cd9565b611ac1565b6102926103f4366004612cd9565b611b29565b610292611b3d565b6102c6611b4b565b6102a7611b51565b610292611b60565b6102bc610427366004612bc2565b611b69565b6102a7611b92565b6102c6610442366004612bfa565b611baa565b610292610455366004612d04565b611bd5565b6102a7611c3e565b6102bc610470366004612bc2565b611c56565b610488610483366004612de5565b611d16565b6040516102619493929190612edd565b6102bc611d67565b6102c66104ae366004612bc2565b611da6565b606060006104bf611db8565b600c549091508067ffffffffffffffff811180156104dc57600080fd5b5060405190808252806020026020018201604052801561051657816020015b610503612afa565b8152602001906001900390816104fb5790505b50925060005b81811015610a0a576000600c828154811061053357fe5b6000918252602090912060059091020160018101549091506001600160a01b03166105f4576001600160a01b038616600090815260048201602052604090205485516105a0919087908590811061058657fe5b602002602001015160200151611dc790919063ffffffff16565b8583815181106105ac57fe5b6020908102919091018101510152805485516001600160a01b03909116908690849081106105d657fe5b60209081029190910101516001600160a01b03909116905250610a02565b80546040516370a0823160e01b81526000916001600160a01b0316906370a0823190610624903090600401612eaf565b60206040518083038186803b15801561063c57600080fd5b505afa158015610650573d6000803e3d6000fd5b505050506040513d601f19601f820116820180604052508101906106749190612dfd565b600283015490915060009061069a908390600160801b90046001600160801b0316611dec565b60018401546040516246613160e11b8152919250610728916001600160a01b0390911690628cc262906106d1903090600401612eaf565b60206040518083038186803b1580156106e957600080fd5b505afa1580156106fd573d6000803e3d6000fd5b505050506040513d601f19601f820116820180604052508101906107219190612dfd565b8290611dc7565b60028401549091506001600160801b0316861561075e5761075c876107568468056bc75e2d63100000611e14565b90611e4e565b015b6001600160a01b03891660009081526003850160205260408120546107a69068056bc75e2d631000009061075690610797908690611dec565b6107a08e611e80565b90611e14565b6001600160a01b038b1660009081526004870160205260409020549091506107de906107d29083611dc7565b8a888151811061058657fe5b8987815181106107ea57fe5b6020908102919091018101510152845489516001600160a01b03909116908a908890811061081457fe5b60209081029190910101516001600160a01b039091169052856109fc5760028501546001600160801b0316915087156108e15760018501546040516246613160e11b81526108dc918a916107569168056bc75e2d63100000916001600160a01b0390911690628cc2629061088c903090600401612eaf565b60206040518083038186803b1580156108a457600080fd5b505afa1580156108b8573d6000803e3d6000fd5b505050506040513d601f19601f820116820180604052508101906107a09190612dfd565b820191505b6001600160a01b038a16600090815260038601602052604090205461091a9068056bc75e2d631000009061075690610797908690611dec565b604051638f4000bd60e01b815290915073__$edb736befb4a32d18e39425ff41eb11cf0$__90638f4000bd90610954908490600401613482565b60206040518083038186803b15801561096c57600080fd5b505af4158015610980573d6000803e3d6000fd5b505050506040513d601f19601f820116820180604052508101906109a49190612dfd565b896001815181106109b157fe5b60200260200101516020018181525050734e3fbd56cd56c3e72c1403e103b45db9da5b9d2b896001815181106109e357fe5b60209081029190910101516001600160a01b0390911690525b50505050505b60010161051c565b5050505b919050565b600f8054604080516020601f6002600019610100600188161502019095169490940493840181900481028201810190925282815260609390929091830182828015610a9f5780601f10610a7457610100808354040283529160200191610a9f565b820191906000526020600020905b815481529060010190602001808311610a8257829003601f168201915b5050505050905090565b6000610abd610ab6611ebb565b8484611ebf565b5060015b92915050565b600b546001600160a01b031681565b600954600c546001600160a01b0390911690610de957600c604051806080016040528073d533a949740bb3306d119cc777fa900ba034cd526001600160a01b03168152602001836001600160a01b0316815260200160006001600160801b0316815260200160006001600160801b0316815250908060018154018082558091505060019003906000526020600020906005020160009091909190915060008201518160000160006101000a8154816001600160a01b0302191690836001600160a01b0316021790555060208201518160010160006101000a8154816001600160a01b0302191690836001600160a01b0316021790555060408201518160020160006101000a8154816001600160801b0302191690836001600160801b0316021790555060608201518160020160106101000a8154816001600160801b0302191690836001600160801b031602179055505050600c6040518060800160405280734e3fbd56cd56c3e72c1403e103b45db9da5b9d2b6001600160a01b0316815260200160006001600160a01b0316815260200160006001600160801b0316815260200160006001600160801b0316815250908060018154018082558091505060019003906000526020600020906005020160009091909190915060008201518160000160006101000a8154816001600160a01b0302191690836001600160a01b0316021790555060208201518160010160006101000a8154816001600160a01b0302191690836001600160a01b0316021790555060408201518160020160006101000a8154816001600160801b0302191690836001600160801b0316021790555060608201518160020160106101000a8154816001600160801b0302191690836001600160801b0316021790555050506000600101600d600073d533a949740bb3306d119cc777fa900ba034cd526001600160a01b03166001600160a01b031681526020019081526020016000208190555060018001600d6000734e3fbd56cd56c3e72c1403e103b45db9da5b9d2b6001600160a01b03166001600160a01b03168152602001908152602001600020819055505b6000816001600160a01b031663d55a23f46040518163ffffffff1660e01b815260040160206040518083038186803b158015610e2457600080fd5b505afa158015610e38573d6000803e3d6000fd5b505050506040513d601f19601f82011682018060405250810190610e5c9190612dfd565b905060005b8181101561112d57604051632061aa2360e11b81526000906001600160a01b038516906340c3544690610e98908590600401613482565b60206040518083038186803b158015610eb057600080fd5b505afa158015610ec4573d6000803e3d6000fd5b505050506040513d601f19601f82011682018060405250810190610ee89190612bde565b90506000816001600160a01b031663f7c618c16040518163ffffffff1660e01b815260040160206040518083038186803b158015610f2557600080fd5b505afa158015610f39573d6000803e3d6000fd5b505050506040513d601f19601f82011682018060405250810190610f5d9190612bde565b90506001600160a01b038116734e3fbd56cd56c3e72c1403e103b45db9da5b9d2b1415610fcd5781600c600181548110610f9357fe5b906000526020600020906005020160010160006101000a8154816001600160a01b0302191690836001600160a01b03160217905550611123565b6001600160a01b0381166000908152600d602052604090205461112357600c6040518060800160405280846001600160a01b031663f7c618c16040518163ffffffff1660e01b815260040160206040518083038186803b15801561103057600080fd5b505afa158015611044573d6000803e3d6000fd5b505050506040513d601f19601f820116820180604052508101906110689190612bde565b6001600160a01b039081168252858116602080840191909152600060408085018290526060948501829052865460018181018955978352838320875160059092020180549186166001600160a01b031992831617815587850151988101805499871699909216989098179055858101516002909701805496909501516001600160801b03908116600160801b029781166001600160801b03199097169690961790951695909517909255600c549085168452600d9091529120555b5050600101610e61565b505050565b60025490565b6000611145848484611f73565b6111b584611151611ebb565b6111b08560405180606001604052806028815260200161354b602891396001600160a01b038a1660009081526001602052604081209061118f611ebb565b6001600160a01b031681526020810191909152604001600020549190612088565b611ebf565b5060015b9392505050565b600260065414156111ec5760405162461bcd60e51b81526004016111e3906133be565b60405180910390fd5b6002600655801561127e5761120133826120b4565b600954604051631c683a1b60e11b81526001600160a01b03909116906338d074369061123490849060009060040161348b565b600060405180830381600087803b15801561124e57600080fd5b505af1158015611262573d6000803e3d6000fd5b505060085461127e92506001600160a01b031690503383612196565b336001600160a01b03167f2fd83d5e9f5d240bed47a97a24cf354e4047e25edc2da27b01fd95e5e8a0c9a58260006040516112ba92919061348b565b60405180910390a2506001600655565b73f403c135812408bfbe8713b5a23a04b3d48aae3181565b601290565b6000610abd6112f4611ebb565b846111b08560016000611305611ebb565b6001600160a01b03908116825260208083019390935260409182016000908120918c168152925290205490611dc7565b600260065414156113585760405162461bcd60e51b81526004016111e3906133be565b600260065580156113ea5761136d33826120b4565b600954604051636197390160e11b81526001600160a01b039091169063c32e7202906113a090849060009060040161348b565b600060405180830381600087803b1580156113ba57600080fd5b505af11580156113ce573d6000803e3d6000fd5b50506007546113ea92506001600160a01b031690503383612196565b336001600160a01b03167f2fd83d5e9f5d240bed47a97a24cf354e4047e25edc2da27b01fd95e5e8a0c9a58260016040516112ba92919061348b565b6000610ac182611e80565b600a5481565b600e54610100900460ff161561145f5760405162461bcd60e51b81526004016111e3906131b5565b600e80546201000033810262010000600160b01b0319909216919091179182905560405191046001600160a01b0316906000907f8be0079c531659141344cd1fd0a4f28419497f9722a3daafe3b4186f6b6457e0908290a3836001600160a01b03166306fdde036040518163ffffffff1660e01b815260040160006040518083038186803b1580156114f057600080fd5b505afa158015611504573d6000803e3d6000fd5b505050506040513d6000823e601f3d908101601f1916820160405261152c9190810190612d4a565b60405160200161153c9190612e55565b604051602081830303815290604052600f9080519060200190611560929190612b11565b50836001600160a01b03166395d89b416040518163ffffffff1660e01b815260040160006040518083038186803b15801561159a57600080fd5b505afa1580156115ae573d6000803e3d6000fd5b505050506040513d6000823e601f3d908101601f191682016040526115d69190810190612d4a565b6040516020016115e69190612e84565b6040516020818303038152906040526010908051906020019061160a929190612b11565b50600e805461ffff1916610100179055600780546001600160a01b038088166001600160a01b0319928316179092556008805487841690831617905560098054868416908316179055600a849055600b805492841692909116919091179055611671610ad6565b6116796119a4565b5050505050565b6007546001600160a01b031681565b600260065414156116b25760405162461bcd60e51b81526004016111e3906133be565b6002600655600e5460ff16156116da5760405162461bcd60e51b81526004016111e3906132d7565b8115611794576116ea81836121ec565b600754611702906001600160a01b03163330856122a0565b600a546040516321d0683360e11b815273f403c135812408bfbe8713b5a23a04b3d48aae31916343a0d066916117409190869060019060040161349b565b602060405180830381600087803b15801561175a57600080fd5b505af115801561176e573d6000803e3d6000fd5b505050506040513d601f19601f820116820180604052508101906117929190612d2a565b505b806001600160a01b0316336001600160a01b03167fb32af138549e2a71563d1f2b1f7f0a139b3cdbc83d877d13603de1c3c5fd487a8460016040516117da92919061348b565b60405180910390a350506001600655565b6001600160a01b031660009081526020819052604090205490565b600e546201000090046001600160a01b031633146118365760405162461bcd60e51b81526004016111e39061321c565b600e546040516000916201000090046001600160a01b0316907f8be0079c531659141344cd1fd0a4f28419497f9722a3daafe3b4186f6b6457e0908390a3600e805462010000600160b01b0319169055565b600260065414156118ab5760405162461bcd60e51b81526004016111e3906133be565b6002600655600e5460ff16156118d35760405162461bcd60e51b81526004016111e3906132d7565b811561195e576118e381836121ec565b6008546118fb906001600160a01b03163330856122a0565b60095460405163534a7e1d60e11b81526001600160a01b039091169063a694fc3a9061192b908590600401613482565b600060405180830381600087803b15801561194557600080fd5b505af1158015611959573d6000803e3d6000fd5b505050505b806001600160a01b0316336001600160a01b03167fb32af138549e2a71563d1f2b1f7f0a139b3cdbc83d877d13603de1c3c5fd487a8460006040516117da92919061348b565b6007546119d0906001600160a01b031673f403c135812408bfbe8713b5a23a04b3d48aae3160006122c7565b6007546119fd906001600160a01b031673f403c135812408bfbe8713b5a23a04b3d48aae316000196122c7565b600954600854611a1b916001600160a01b03918216911660006122c7565b600954600854611a3a916001600160a01b0391821691166000196122c7565b565b600e546201000090046001600160a01b031681565b6009546001600160a01b031681565b60108054604080516020601f6002600019610100600188161502019095169490940493840181900481028201810190925282815260609390929091830182828015610a9f5780601f10610a7457610100808354040283529160200191610a9f565b6000610abd611ace611ebb565b846111b0856040518060600160405280602581526020016135736025913960016000611af8611ebb565b6001600160a01b03908116825260208083019390935260409182016000908120918d16815292529020549190612088565b6000610abd611b36611ebb565b8484611f73565b600e54610100900460ff1681565b600c5490565b6008546001600160a01b031681565b600e5460ff1681565b604080518082019091526001600160a01b038216815260006020820152611b8f9061238a565b50565b73d533a949740bb3306d119cc777fa900ba034cd5281565b6001600160a01b03918216600090815260016020908152604080832093909416825291909152205490565b6000611c36604051806040016040528084600060028110611bf257fe5b602002016020810190611c059190612bc2565b6001600160a01b03168152602090810190611c269060408701908701612bc2565b6001600160a01b0316905261243c565b506001919050565b734e3fbd56cd56c3e72c1403e103b45db9da5b9d2b81565b600e546201000090046001600160a01b03163314611c865760405162461bcd60e51b81526004016111e39061321c565b6001600160a01b038116611cac5760405162461bcd60e51b81526004016111e390613042565b600e546040516001600160a01b038084169262010000900416907f8be0079c531659141344cd1fd0a4f28419497f9722a3daafe3b4186f6b6457e090600090a3600e80546001600160a01b03909216620100000262010000600160b01b0319909216919091179055565b600c8181548110611d2357fe5b60009182526020909120600590910201805460018201546002909201546001600160a01b0391821693509116906001600160801b0380821691600160801b90041684565b600e546201000090046001600160a01b03163314611d975760405162461bcd60e51b81526004016111e39061321c565b600e805460ff19166001179055565b600d6020526000908152604090205481565b6000611dc2611132565b905090565b6000828201838110156111b95760405162461bcd60e51b81526004016111e3906130ca565b600082821115611e0e5760405162461bcd60e51b81526004016111e390613101565b50900390565b600082611e2357506000610ac1565b82820282848281611e3057fe5b04146111b95760405162461bcd60e51b81526004016111e3906131db565b6000808211611e6f5760405162461bcd60e51b81526004016111e39061317e565b818381611e7857fe5b049392505050565b60006001600160a01b0382161580611ea55750600b546001600160a01b038381169116145b15611eb257506000610a0e565b610ac1826117eb565b3390565b6001600160a01b038316611ee55760405162461bcd60e51b81526004016111e3906132f9565b6001600160a01b038216611f0b5760405162461bcd60e51b81526004016111e390613088565b6001600160a01b0380841660008181526001602090815260408083209487168084529490915290819020849055517f8c5be1e5ebec7d5bd14f71427d1e84f3dd0314c0f7b2291e5b200ac8c7c3b92590611f66908590613482565b60405180910390a3505050565b6001600160a01b038316611f995760405162461bcd60e51b81526004016111e390613292565b6001600160a01b038216611fbf5760405162461bcd60e51b81526004016111e390612fff565b611fca838383612508565b61200781604051806060016040528060268152602001613525602691396001600160a01b0386166000908152602081905260409020549190612088565b6001600160a01b0380851660009081526020819052604080822093909355908416815220546120369082611dc7565b6001600160a01b0380841660008181526020819052604090819020939093559151908516907fddf252ad1be2c89b69c2b068fc378daa952ba7f163c4a11628f55a4df523b3ef90611f66908590613482565b600081848411156120ac5760405162461bcd60e51b81526004016111e39190612fcc565b505050900390565b6001600160a01b0382166120da5760405162461bcd60e51b81526004016111e390613251565b6120e682600083612508565b61212381604051806060016040528060228152602001613503602291396001600160a01b0385166000908152602081905260409020549190612088565b6001600160a01b0383166000908152602081905260409020556002546121499082611dec565b6002556040516000906001600160a01b038416907fddf252ad1be2c89b69c2b068fc378daa952ba7f163c4a11628f55a4df523b3ef9061218a908590613482565b60405180910390a35050565b61112d8363a9059cbb60e01b84846040516024016121b5929190612f50565b60408051601f198184030181529190526020810180516001600160e01b03166001600160e01b03199093169290921790915261252f565b6001600160a01b0382166122125760405162461bcd60e51b81526004016111e39061344b565b61221e60008383612508565b60025461222b9082611dc7565b6002556001600160a01b0382166000908152602081905260409020546122519082611dc7565b6001600160a01b0383166000818152602081905260408082209390935591519091907fddf252ad1be2c89b69c2b068fc378daa952ba7f163c4a11628f55a4df523b3ef9061218a908590613482565b6122c1846323b872dd60e01b8585856040516024016121b593929190612f11565b50505050565b80158061234f5750604051636eb1769f60e11b81526001600160a01b0384169063dd62ed3e906122fd9030908690600401612ec3565b60206040518083038186803b15801561231557600080fd5b505afa158015612329573d6000803e3d6000fd5b505050506040513d601f19601f8201168201806040525081019061234d9190612dfd565b155b61236b5760405162461bcd60e51b81526004016111e3906133f5565b61112d8363095ea7b360e01b84846040516024016121b5929190612f50565b6000612394611db8565b905061239e612b8f565b6123af8360005b6020020151611e80565b8152600954604051637050ccd960e01b81526001600160a01b0390911690637050ccd9906123e4903090600190600401612f35565b600060405180830381600087803b1580156123fe57600080fd5b505af1158015612412573d6000803e3d6000fd5b5050600c549150600090505b81811015611679576124348186858760016125be565b60010161241e565b600e5460ff161561244c57611b8f565b6000612456611db8565b9050612460612b8f565b61246b8360006123a5565b81526124788360016123a5565b6020820152600954604051637050ccd960e01b81526001600160a01b0390911690637050ccd9906124b0903090600190600401612f35565b600060405180830381600087803b1580156124ca57600080fd5b505af11580156124de573d6000803e3d6000fd5b5050600c549150600090505b81811015611679576125008186858760006125be565b6001016124ea565b604080518082019091526001600160a01b0380851682528316602082015261112d9061243c565b6060612584826040518060400160405280602081526020017f5361666545524332303a206c6f772d6c6576656c2063616c6c206661696c6564815250856001600160a01b03166129e39092919063ffffffff16565b80519091501561112d57808060200190518101906125a29190612d2a565b61112d5760405162461bcd60e51b81526004016111e390613374565b6000600c86815481106125cd57fe5b60009182526020822060059091020180546040516370a0823160e01b81529193506001600160a01b0316906370a082319061260c903090600401612eaf565b60206040518083038186803b15801561262457600080fd5b505afa158015612638573d6000803e3d6000fd5b505050506040513d601f19601f8201168201806040525081019061265c9190612dfd565b905060008411801561268e5750600282015460009061268c908390600160801b90046001600160801b0316611dec565b115b156126f05760028201546126c89085906107569068056bc75e2d63100000906107a0908690600160801b90046001600160801b0316611dec565b6002830180546001600160801b031981166001600160801b0391821693909301169190911790555b60005b60028110156129a157600087826002811061270a57fe5b60200201516001600160a01b0316141561272357612999565b600b546001600160a01b031687826002811061273b57fe5b60200201516001600160a01b0316141561275457612999565b600083600301600089846002811061276857fe5b60200201516001600160a01b03166001600160a01b0316815260200190815260200160002054905084806127a8575060028401546001600160801b031681105b156129975784156128c0576002840154600090612842906127fc9068056bc75e2d6310000090610756906127e5906001600160801b031687611dec565b8c88600281106127f157fe5b602002015190611e14565b8660040160008c876002811061280e57fe5b60200201516001600160a01b03166001600160a01b0316815260200190815260200160002054611dc790919063ffffffff16565b905080156128ba5760008560040160008b866002811061285e57fe5b60200201516001600160a01b03166001600160a01b03168152602001908152602001600020819055506128ad89846002811061289657fe5b602002015186546001600160a01b03169083612196565b6128b78482611dec565b93505b50612949565b600284015461290d906128fb9068056bc75e2d6310000090610756906128ef906001600160801b031686611dec565b8b87600281106127f157fe5b8560040160008b866002811061280e57fe5b8460040160008a856002811061291f57fe5b60200201516001600160a01b03166001600160a01b03168152602001908152602001600020819055505b6002808501546001600160801b03169060038601906000908b908690811061296d57fe5b60200201516001600160a01b03166001600160a01b03168152602001908152602001600020819055505b505b6001016126f3565b506002820154600160801b90046001600160801b031681146129da576002820180546001600160801b03808416600160801b0291161790555b50505050505050565b60606129f284846000856129fa565b949350505050565b606082471015612a1c5760405162461bcd60e51b81526004016111e390613138565b612a2585612abb565b612a415760405162461bcd60e51b81526004016111e39061333d565b60006060866001600160a01b03168587604051612a5e9190612e39565b60006040518083038185875af1925050503d8060008114612a9b576040519150601f19603f3d011682016040523d82523d6000602084013e612aa0565b606091505b5091509150612ab0828286612ac1565b979650505050505050565b3b151590565b60608315612ad05750816111b9565b825115612ae05782518084602001fd5b8160405162461bcd60e51b81526004016111e39190612fcc565b604080518082019091526000808252602082015290565b828054600181600116156101000203166002900490600052602060002090601f016020900481019282601f10612b5257805160ff1916838001178555612b7f565b82800160010185558215612b7f579182015b82811115612b7f578251825591602001919060010190612b64565b50612b8b929150612bad565b5090565b60405180604001604052806002906020820280368337509192915050565b5b80821115612b8b5760008155600101612bae565b600060208284031215612bd3578081fd5b81356111b9816134ed565b600060208284031215612bef578081fd5b81516111b9816134ed565b60008060408385031215612c0c578081fd5b8235612c17816134ed565b91506020830135612c27816134ed565b809150509250929050565b600080600080600060a08688031215612c49578081fd5b8535612c54816134ed565b94506020860135612c64816134ed565b93506040860135612c74816134ed565b9250606086013591506080860135612c8b816134ed565b809150509295509295909350565b600080600060608486031215612cad578283fd5b8335612cb8816134ed565b92506020840135612cc8816134ed565b929592945050506040919091013590565b60008060408385031215612ceb578182fd5b8235612cf6816134ed565b946020939093013593505050565b600060408284031215612d15578081fd5b82604083011115612d24578081fd5b50919050565b600060208284031215612d3b578081fd5b815180151581146111b9578182fd5b600060208284031215612d5b578081fd5b815167ffffffffffffffff80821115612d72578283fd5b818401915084601f830112612d85578283fd5b815181811115612d93578384fd5b604051601f8201601f191681016020018381118282101715612db3578586fd5b604052818152838201602001871015612dca578485fd5b612ddb8260208301602087016134c1565b9695505050505050565b600060208284031215612df6578081fd5b5035919050565b600060208284031215612e0e578081fd5b5051919050565b60008060408385031215612e27578182fd5b823591506020830135612c27816134ed565b60008251612e4b8184602087016134c1565b9190910192915050565b600066029ba30b5b2b2160cd1b82528251612e778160078501602087016134c1565b9190910160070192915050565b60006273746b60e81b82528251612ea28160038501602087016134c1565b9190910160030192915050565b6001600160a01b0391909116815260200190565b6001600160a01b0392831681529116602082015260400190565b6001600160a01b0394851681529290931660208301526001600160801b039081166040830152909116606082015260800190565b6001600160a01b039384168152919092166020820152604081019190915260600190565b6001600160a01b039290921682521515602082015260400190565b6001600160a01b03929092168252602082015260400190565b602080825282518282018190526000919060409081850190868401855b82811015612fb457815180516001600160a01b03168552860151868501529284019290850190600101612f86565b5091979650505050505050565b901515815260200190565b6000602082528251806020840152612feb8160408501602087016134c1565b601f01601f19169190910160400192915050565b60208082526023908201527f45524332303a207472616e7366657220746f20746865207a65726f206164647260408201526265737360e81b606082015260800190565b60208082526026908201527f4f776e61626c653a206e6577206f776e657220697320746865207a65726f206160408201526564647265737360d01b606082015260800190565b60208082526022908201527f45524332303a20617070726f766520746f20746865207a65726f206164647265604082015261737360f01b606082015260800190565b6020808252601b908201527f536166654d6174683a206164646974696f6e206f766572666c6f770000000000604082015260600190565b6020808252601e908201527f536166654d6174683a207375627472616374696f6e206f766572666c6f770000604082015260600190565b60208082526026908201527f416464726573733a20696e73756666696369656e742062616c616e636520666f6040820152651c8818d85b1b60d21b606082015260800190565b6020808252601a908201527f536166654d6174683a206469766973696f6e206279207a65726f000000000000604082015260600190565b6020808252600c908201526b185b1c9958591e481a5b9a5d60a21b604082015260600190565b60208082526021908201527f536166654d6174683a206d756c7469706c69636174696f6e206f766572666c6f6040820152607760f81b606082015260800190565b6020808252818101527f4f776e61626c653a2063616c6c6572206973206e6f7420746865206f776e6572604082015260600190565b60208082526021908201527f45524332303a206275726e2066726f6d20746865207a65726f206164647265736040820152607360f81b606082015260800190565b60208082526025908201527f45524332303a207472616e736665722066726f6d20746865207a65726f206164604082015264647265737360d81b606082015260800190565b60208082526008908201526739b43aba3237bbb760c11b604082015260600190565b60208082526024908201527f45524332303a20617070726f76652066726f6d20746865207a65726f206164646040820152637265737360e01b606082015260800190565b6020808252601d908201527f416464726573733a2063616c6c20746f206e6f6e2d636f6e7472616374000000604082015260600190565b6020808252602a908201527f5361666545524332303a204552433230206f7065726174696f6e20646964206e6040820152691bdd081cdd58d8d9595960b21b606082015260800190565b6020808252601f908201527f5265656e7472616e637947756172643a207265656e7472616e742063616c6c00604082015260600190565b60208082526036908201527f5361666545524332303a20617070726f76652066726f6d206e6f6e2d7a65726f60408201527520746f206e6f6e2d7a65726f20616c6c6f77616e636560501b606082015260800190565b6020808252601f908201527f45524332303a206d696e7420746f20746865207a65726f206164647265737300604082015260600190565b90815260200190565b9182521515602082015260400190565b92835260208301919091521515604082015260600190565b60ff91909116815260200190565b60005b838110156134dc5781810151838201526020016134c4565b838111156122c15750506000910152565b6001600160a01b0381168114611b8f57600080fdfe45524332303a206275726e20616d6f756e7420657863656564732062616c616e636545524332303a207472616e7366657220616d6f756e7420657863656564732062616c616e636545524332303a207472616e7366657220616d6f756e74206578636565647320616c6c6f77616e636545524332303a2064656372656173656420616c6c6f77616e63652062656c6f77207a65726fa2646970667358221220e7e471d0f5a5e6b382dc451823b2d3f5d6ce29cbe75f261d83a40796fa29fc0a64736f6c634300060c0033",
  "linkReferences": {
    "contracts/libraries/MuuuMining.sol": {
      "MuuuMining": [
        {
          "length": 20,
          "start": 2673
        }
      ]
    }
  },
  "deployedLinkReferences": {
    "contracts/libraries/MuuuMining.sol": {
      "MuuuMining": [
        {
          "length": 20,
          "start": 2348
        }
      ]
    }
  }
}