{
  "_format": "hh-sol-artifact-1",
  "contractName": "MuuuMasterChef",
  "sourceName": "contracts/MuuuMasterChef.sol",
  "abi": [
    {
      "inputs": [
        {
          "internalType": "contract IERC20",
          "name": "_muuu",
          "type": "address"
        },
        {
          "internalType": "uint256",
          "name": "_rewardPerBlock",
          "type": "uint256"
        },
        {
          "internalType": "uint256",
          "name": "_startBlock",
          "type": "uint256"
        },
        {
          "internalType": "uint256",
          "name": "_bonusEndBlock",
          "type": "uint256"
        }
      ],
      "stateMutability": "nonpayable",
      "type": "constructor"
    },
    {
      "anonymous": false,
      "inputs": [
        {
          "indexed": true,
          "internalType": "address",
          "name": "user",
          "type": "address"
        },
        {
          "indexed": true,
          "internalType": "uint256",
          "name": "pid",
          "type": "uint256"
        },
        {
          "indexed": false,
          "internalType": "uint256",
          "name": "amount",
          "type": "uint256"
        }
      ],
      "name": "Deposit",
      "type": "event"
    },
    {
      "anonymous": false,
      "inputs": [
        {
          "indexed": true,
          "internalType": "address",
          "name": "user",
          "type": "address"
        },
        {
          "indexed": true,
          "internalType": "uint256",
          "name": "pid",
          "type": "uint256"
        },
        {
          "indexed": false,
          "internalType": "uint256",
          "name": "amount",
          "type": "uint256"
        }
      ],
      "name": "EmergencyWithdraw",
      "type": "event"
    },
    {
      "anonymous": false,
      "inputs": [
        {
          "indexed": true,
          "internalType": "address",
          "name": "previousOwner",
          "type": "address"
        },
        {
          "indexed": true,
          "internalType": "address",
          "name": "newOwner",
          "type": "address"
        }
      ],
      "name": "OwnershipTransferred",
      "type": "event"
    },
    {
      "anonymous": false,
      "inputs": [
        {
          "indexed": true,
          "internalType": "address",
          "name": "user",
          "type": "address"
        },
        {
          "indexed": true,
          "internalType": "uint256",
          "name": "pid",
          "type": "uint256"
        },
        {
          "indexed": false,
          "internalType": "uint256",
          "name": "amount",
          "type": "uint256"
        }
      ],
      "name": "RewardPaid",
      "type": "event"
    },
    {
      "anonymous": false,
      "inputs": [
        {
          "indexed": true,
          "internalType": "address",
          "name": "user",
          "type": "address"
        },
        {
          "indexed": true,
          "internalType": "uint256",
          "name": "pid",
          "type": "uint256"
        },
        {
          "indexed": false,
          "internalType": "uint256",
          "name": "amount",
          "type": "uint256"
        }
      ],
      "name": "Withdraw",
      "type": "event"
    },
    {
      "inputs": [],
      "name": "BONUS_MULTIPLIER",
      "outputs": [
        {
          "internalType": "uint256",
          "name": "",
          "type": "uint256"
        }
      ],
      "stateMutability": "view",
      "type": "function"
    },
    {
      "inputs": [
        {
          "internalType": "uint256",
          "name": "_allocPoint",
          "type": "uint256"
        },
        {
          "internalType": "contract IERC20",
          "name": "_lpToken",
          "type": "address"
        },
        {
          "internalType": "contract IRewarder",
          "name": "_rewarder",
          "type": "address"
        },
        {
          "internalType": "bool",
          "name": "_withUpdate",
          "type": "bool"
        }
      ],
      "name": "add",
      "outputs": [],
      "stateMutability": "nonpayable",
      "type": "function"
    },
    {
      "inputs": [],
      "name": "bonusEndBlock",
      "outputs": [
        {
          "internalType": "uint256",
          "name": "",
          "type": "uint256"
        }
      ],
      "stateMutability": "view",
      "type": "function"
    },
    {
      "inputs": [
        {
          "internalType": "uint256",
          "name": "_pid",
          "type": "uint256"
        },
        {
          "internalType": "address",
          "name": "_account",
          "type": "address"
        }
      ],
      "name": "claim",
      "outputs": [],
      "stateMutability": "nonpayable",
      "type": "function"
    },
    {
      "inputs": [
        {
          "internalType": "uint256",
          "name": "_pid",
          "type": "uint256"
        },
        {
          "internalType": "uint256",
          "name": "_amount",
          "type": "uint256"
        }
      ],
      "name": "deposit",
      "outputs": [],
      "stateMutability": "nonpayable",
      "type": "function"
    },
    {
      "inputs": [
        {
          "internalType": "uint256",
          "name": "_pid",
          "type": "uint256"
        }
      ],
      "name": "emergencyWithdraw",
      "outputs": [],
      "stateMutability": "nonpayable",
      "type": "function"
    },
    {
      "inputs": [
        {
          "internalType": "uint256",
          "name": "_from",
          "type": "uint256"
        },
        {
          "internalType": "uint256",
          "name": "_to",
          "type": "uint256"
        }
      ],
      "name": "getMultiplier",
      "outputs": [
        {
          "internalType": "uint256",
          "name": "",
          "type": "uint256"
        }
      ],
      "stateMutability": "view",
      "type": "function"
    },
    {
      "inputs": [],
      "name": "massUpdatePools",
      "outputs": [],
      "stateMutability": "nonpayable",
      "type": "function"
    },
    {
      "inputs": [],
      "name": "muuu",
      "outputs": [
        {
          "internalType": "contract IERC20",
          "name": "",
          "type": "address"
        }
      ],
      "stateMutability": "view",
      "type": "function"
    },
    {
      "inputs": [],
      "name": "owner",
      "outputs": [
        {
          "internalType": "address",
          "name": "",
          "type": "address"
        }
      ],
      "stateMutability": "view",
      "type": "function"
    },
    {
      "inputs": [
        {
          "internalType": "uint256",
          "name": "_pid",
          "type": "uint256"
        },
        {
          "internalType": "address",
          "name": "_user",
          "type": "address"
        }
      ],
      "name": "pendingMuuu",
      "outputs": [
        {
          "internalType": "uint256",
          "name": "",
          "type": "uint256"
        }
      ],
      "stateMutability": "view",
      "type": "function"
    },
    {
      "inputs": [
        {
          "internalType": "uint256",
          "name": "",
          "type": "uint256"
        }
      ],
      "name": "poolInfo",
      "outputs": [
        {
          "internalType": "contract IERC20",
          "name": "lpToken",
          "type": "address"
        },
        {
          "internalType": "uint256",
          "name": "allocPoint",
          "type": "uint256"
        },
        {
          "internalType": "uint256",
          "name": "lastRewardBlock",
          "type": "uint256"
        },
        {
          "internalType": "uint256",
          "name": "accMuuuPerShare",
          "type": "uint256"
        },
        {
          "internalType": "contract IRewarder",
          "name": "rewarder",
          "type": "address"
        }
      ],
      "stateMutability": "view",
      "type": "function"
    },
    {
      "inputs": [],
      "name": "poolLength",
      "outputs": [
        {
          "internalType": "uint256",
          "name": "",
          "type": "uint256"
        }
      ],
      "stateMutability": "view",
      "type": "function"
    },
    {
      "inputs": [],
      "name": "renounceOwnership",
      "outputs": [],
      "stateMutability": "nonpayable",
      "type": "function"
    },
    {
      "inputs": [],
      "name": "rewardPerBlock",
      "outputs": [
        {
          "internalType": "uint256",
          "name": "",
          "type": "uint256"
        }
      ],
      "stateMutability": "view",
      "type": "function"
    },
    {
      "inputs": [
        {
          "internalType": "uint256",
          "name": "_pid",
          "type": "uint256"
        },
        {
          "internalType": "uint256",
          "name": "_allocPoint",
          "type": "uint256"
        },
        {
          "internalType": "contract IRewarder",
          "name": "_rewarder",
          "type": "address"
        },
        {
          "internalType": "bool",
          "name": "_withUpdate",
          "type": "bool"
        },
        {
          "internalType": "bool",
          "name": "_updateRewarder",
          "type": "bool"
        }
      ],
      "name": "set",
      "outputs": [],
      "stateMutability": "nonpayable",
      "type": "function"
    },
    {
      "inputs": [],
      "name": "startBlock",
      "outputs": [
        {
          "internalType": "uint256",
          "name": "",
          "type": "uint256"
        }
      ],
      "stateMutability": "view",
      "type": "function"
    },
    {
      "inputs": [],
      "name": "totalAllocPoint",
      "outputs": [
        {
          "internalType": "uint256",
          "name": "",
          "type": "uint256"
        }
      ],
      "stateMutability": "view",
      "type": "function"
    },
    {
      "inputs": [
        {
          "internalType": "address",
          "name": "newOwner",
          "type": "address"
        }
      ],
      "name": "transferOwnership",
      "outputs": [],
      "stateMutability": "nonpayable",
      "type": "function"
    },
    {
      "inputs": [
        {
          "internalType": "uint256",
          "name": "_pid",
          "type": "uint256"
        }
      ],
      "name": "updatePool",
      "outputs": [],
      "stateMutability": "nonpayable",
      "type": "function"
    },
    {
      "inputs": [
        {
          "internalType": "uint256",
          "name": "",
          "type": "uint256"
        },
        {
          "internalType": "address",
          "name": "",
          "type": "address"
        }
      ],
      "name": "userInfo",
      "outputs": [
        {
          "internalType": "uint256",
          "name": "amount",
          "type": "uint256"
        },
        {
          "internalType": "uint256",
          "name": "rewardDebt",
          "type": "uint256"
        }
      ],
      "stateMutability": "view",
      "type": "function"
    },
    {
      "inputs": [
        {
          "internalType": "uint256",
          "name": "_pid",
          "type": "uint256"
        },
        {
          "internalType": "uint256",
          "name": "_amount",
          "type": "uint256"
        }
      ],
      "name": "withdraw",
      "outputs": [],
      "stateMutability": "nonpayable",
      "type": "function"
    }
  ],
  "bytecode": "0x6080604052600060065534801561001557600080fd5b50604051611a50380380611a508339818101604052608081101561003857600080fd5b508051602082015160408301516060909301519192909160006100596100d8565b600080546001600160a01b0319166001600160a01b0383169081178255604051929350917f8be0079c531659141344cd1fd0a4f28419497f9722a3daafe3b4186f6b6457e0908290a350600180546001600160a01b0319166001600160a01b0395909516949094179093556003919091556002919091556007556100dc565b3390565b611965806100eb6000396000f3fe608060405234801561001057600080fd5b50600436106101425760003560e01c80638aa28550116100b857806393f1a40b1161007c57806393f1a40b1461030e578063c71b4b4314610353578063ddd5e1b214610391578063e2bbb158146103bd578063f2f6a6b6146103e0578063f2fde38b146103e857610142565b80638aa285501461028b5780638ae39cac146102935780638da5cb5b1461029b5780638dbb1e3a146102bf578063913ce775146102e257610142565b8063441a3e701161010a578063441a3e701461021657806348cd4cb11461023957806351eb05a6146102415780635312ea8e1461025e578063630b5ba11461027b578063715018a61461028357610142565b8063081e3eda146101475780631526fe271461016157806317caf6f1146101c25780631aed6553146101ca5780633deb2c10146101d2575b600080fd5b61014f61040e565b60408051918252519081900360200190f35b61017e6004803603602081101561017757600080fd5b5035610414565b60405180866001600160a01b03168152602001858152602001848152602001838152602001826001600160a01b031681526020019550505050505060405180910390f35b61014f61045f565b61014f610465565b610214600480360360a08110156101e857600080fd5b508035906020810135906001600160a01b0360408201351690606081013515159060800135151561046b565b005b6102146004803603604081101561022c57600080fd5b5080359060200135610592565b61014f6107b1565b6102146004803603602081101561025757600080fd5b50356107b7565b6102146004803603602081101561027457600080fd5b50356108e7565b610214610a0e565b610214610a31565b61014f610add565b61014f610ae2565b6102a3610ae8565b604080516001600160a01b039092168252519081900360200190f35b61014f600480360360408110156102d557600080fd5b5080359060200135610af7565b61014f600480360360408110156102f857600080fd5b50803590602001356001600160a01b0316610b63565b61033a6004803603604081101561032457600080fd5b50803590602001356001600160a01b0316610cc0565b6040805192835260208301919091528051918290030190f35b6102146004803603608081101561036957600080fd5b508035906001600160a01b036020820135811691604081013590911690606001351515610ce4565b610214600480360360408110156103a757600080fd5b50803590602001356001600160a01b0316610ea8565b610214600480360360408110156103d357600080fd5b508035906020013561102a565b6102a36111c1565b610214600480360360208110156103fe57600080fd5b50356001600160a01b03166111d0565b60045490565b6004818154811061042157fe5b6000918252602090912060059091020180546001820154600283015460038401546004909401546001600160a01b0393841695509193909290911685565b60065481565b60025481565b6104736112d2565b6001600160a01b0316610484610ae8565b6001600160a01b0316146104cd576040805162461bcd60e51b815260206004820181905260248201526000805160206118e6833981519152604482015290519081900360640190fd5b81156104db576104db610a0e565b61051884610512600488815481106104ef57fe5b9060005260206000209060050201600101546006546112d690919063ffffffff16565b90611333565b600681905550836004868154811061052c57fe5b906000526020600020906005020160010181905550801561058b57826004868154811061055557fe5b906000526020600020906005020160040160006101000a8154816001600160a01b0302191690836001600160a01b031602179055505b5050505050565b6000600483815481106105a157fe5b6000918252602080832086845260058083526040808620338752909352919093208054929091029092019250831115610616576040805162461bcd60e51b81526020600482015260126024820152711dda5d1a191c985dce881b9bdd0819dbdbd960721b604482015290519081900360640190fd5b61061f846107b7565b6000610659826001015461065364e8d4a5100061064d8760030154876000015461139490919063ffffffff16565b906113ed565b906112d6565b90506106653382611454565b815461067190856112d6565b808355600384015461068e9164e8d4a510009161064d9190611394565b600183015582546106a9906001600160a01b0316338661150d565b60048301546001600160a01b0316801561073b578254604080516344af0fa760e01b81526004810189905233602482018190526044820152606481018590526084810192909252516001600160a01b038316916344af0fa79160a480830192600092919082900301818387803b15801561072257600080fd5b505af1158015610736573d6000803e3d6000fd5b505050505b604080518381529051879133917fd6f2c8500df5b44f11e9e48b91ff9f1b9d81bc496d55570c2b1b75bf65243f519181900360200190a3604080518681529051879133917ff279e6a1f5e320cca91135676d9cb6e44ca8a08c0b88342bcdb1144f6511b5689181900360200190a3505050505050565b60075481565b6000600482815481106107c657fe5b90600052602060002090600502019050806002015443116107e757506108e4565b8054604080516370a0823160e01b815230600482015290516000926001600160a01b0316916370a08231916024808301926020929190829003018186803b15801561083157600080fd5b505afa158015610845573d6000803e3d6000fd5b505050506040513d602081101561085b57600080fd5b50519050806108715750436002909101556108e4565b6000610881836002015443610af7565b905060006108ae60065461064d86600101546108a86003548761139490919063ffffffff16565b90611394565b90506108d16108c68461064d8464e8d4a51000611394565b600386015490611333565b6003850155505043600290920191909155505b50565b6000600482815481106108f657fe5b60009182526020808320858452600580835260408086203380885294529094208054949093020180549094509192610938926001600160a01b0316919061150d565b80546040805191825251849133917fbb757047c2b5f3974fe26b7c10f732e7bce710b0952a71082702781e62ae05959181900360200190a36000808255600182015560048201546001600160a01b03168015610a0857604080516344af0fa760e01b815260048101869052336024820181905260448201526000606482018190526084820181905291516001600160a01b038416926344af0fa79260a4808201939182900301818387803b1580156109ef57600080fd5b505af1158015610a03573d6000803e3d6000fd5b505050505b50505050565b60045460005b81811015610a2d57610a25816107b7565b600101610a14565b5050565b610a396112d2565b6001600160a01b0316610a4a610ae8565b6001600160a01b031614610a93576040805162461bcd60e51b815260206004820181905260248201526000805160206118e6833981519152604482015290519081900360640190fd5b600080546040516001600160a01b03909116907f8be0079c531659141344cd1fd0a4f28419497f9722a3daafe3b4186f6b6457e0908390a3600080546001600160a01b0319169055565b600281565b60035481565b6000546001600160a01b031690565b60006002548211610b1857610b1160026108a884866112d6565b9050610b5d565b6002548310610b2b57610b1182846112d6565b610b11610b43600254846112d690919063ffffffff16565b61051260026108a8876002546112d690919063ffffffff16565b92915050565b60008060048481548110610b7357fe5b60009182526020808320878452600580835260408086206001600160a01b03808b16885290855281872060039390960290930191820154825482516370a0823160e01b815230600482015292519398509596909590949316926370a0823192602480840193829003018186803b158015610bec57600080fd5b505afa158015610c00573d6000803e3d6000fd5b505050506040513d6020811015610c1657600080fd5b5051600285015490915043118015610c2d57508015155b15610c8d576000610c42856002015443610af7565b90506000610c6960065461064d88600101546108a86003548761139490919063ffffffff16565b9050610c88610c818461064d8464e8d4a51000611394565b8590611333565b935050505b610cb5836001015461065364e8d4a5100061064d86886000015461139490919063ffffffff16565b979650505050505050565b60056020908152600092835260408084209091529082529020805460019091015482565b610cec6112d2565b6001600160a01b0316610cfd610ae8565b6001600160a01b031614610d46576040805162461bcd60e51b815260206004820181905260248201526000805160206118e6833981519152604482015290519081900360640190fd5b8015610d5457610d54610a0e565b60006007544311610d6757600754610d69565b435b600654909150610d799086611333565b6006556040805160a0810182526001600160a01b0395861681526020810196875290810191825260006060820181815294861660808301908152600480546001810182559252915160059091027f8a35acfbc15ff81a39ae7d344fd709f28e8600b4aa8c65c6b64bfe7fe36bd19b810180549288166001600160a01b031993841617905596517f8a35acfbc15ff81a39ae7d344fd709f28e8600b4aa8c65c6b64bfe7fe36bd19c88015591517f8a35acfbc15ff81a39ae7d344fd709f28e8600b4aa8c65c6b64bfe7fe36bd19d87015592517f8a35acfbc15ff81a39ae7d344fd709f28e8600b4aa8c65c6b64bfe7fe36bd19e86015591517f8a35acfbc15ff81a39ae7d344fd709f28e8600b4aa8c65c6b64bfe7fe36bd19f9094018054949093169390911692909217905550565b600060048381548110610eb757fe5b60009182526020808320868452600580835260408086206001600160a01b03891687529093529190932091029091019150610ef1846107b7565b6000610f1f826001015461065364e8d4a5100061064d8760030154876000015461139490919063ffffffff16565b9050610f2b8482611454565b60038301548254610f469164e8d4a510009161064d91611394565b600183015560048301546001600160a01b03168015610fe2578254604080516344af0fa760e01b8152600481018990526001600160a01b038881166024830181905260448301526064820186905260848201939093529051918316916344af0fa79160a48082019260009290919082900301818387803b158015610fc957600080fd5b505af1158015610fdd573d6000803e3d6000fd5b505050505b60408051838152905187916001600160a01b038816917fd6f2c8500df5b44f11e9e48b91ff9f1b9d81bc496d55570c2b1b75bf65243f519181900360200190a3505050505050565b60006004838154811061103957fe5b6000918252602080832086845260058083526040808620338752909352919093209102909101915061106a846107b7565b8054156110ad57600061109f826001015461065364e8d4a5100061064d8760030154876000015461139490919063ffffffff16565b90506110ab3382611454565b505b81546110c4906001600160a01b031633308661155f565b80546110d09084611333565b80825560038301546110ed9164e8d4a510009161064d9190611394565b600182015560048201546001600160a01b03168015611183578154604080516344af0fa760e01b81526004810188905233602482018190526044820152600060648201819052608482019390935290516001600160a01b038416926344af0fa79260a4808201939182900301818387803b15801561116a57600080fd5b505af115801561117e573d6000803e3d6000fd5b505050505b604080518581529051869133917f90890809c654f11d6e72a28fa60149770a0d11ec6c92319d6ceb2bb0a4ea1a159181900360200190a35050505050565b6001546001600160a01b031681565b6111d86112d2565b6001600160a01b03166111e9610ae8565b6001600160a01b031614611232576040805162461bcd60e51b815260206004820181905260248201526000805160206118e6833981519152604482015290519081900360640190fd5b6001600160a01b0381166112775760405162461bcd60e51b81526004018080602001828103825260268152602001806118796026913960400191505060405180910390fd5b600080546040516001600160a01b03808516939216917f8be0079c531659141344cd1fd0a4f28419497f9722a3daafe3b4186f6b6457e091a3600080546001600160a01b0319166001600160a01b0392909216919091179055565b3390565b60008282111561132d576040805162461bcd60e51b815260206004820152601e60248201527f536166654d6174683a207375627472616374696f6e206f766572666c6f770000604482015290519081900360640190fd5b50900390565b60008282018381101561138d576040805162461bcd60e51b815260206004820152601b60248201527f536166654d6174683a206164646974696f6e206f766572666c6f770000000000604482015290519081900360640190fd5b9392505050565b6000826113a357506000610b5d565b828202828482816113b057fe5b041461138d5760405162461bcd60e51b81526004018080602001828103825260218152602001806118c56021913960400191505060405180910390fd5b6000808211611443576040805162461bcd60e51b815260206004820152601a60248201527f536166654d6174683a206469766973696f6e206279207a65726f000000000000604482015290519081900360640190fd5b81838161144c57fe5b049392505050565b600154604080516370a0823160e01b815230600482015290516000926001600160a01b0316916370a08231916024808301926020929190829003018186803b15801561149f57600080fd5b505afa1580156114b3573d6000803e3d6000fd5b505050506040513d60208110156114c957600080fd5b50519050808211156114f1576001546114ec906001600160a01b0316848361150d565b611508565b600154611508906001600160a01b0316848461150d565b505050565b604080516001600160a01b038416602482015260448082018490528251808303909101815260649091019091526020810180516001600160e01b031663a9059cbb60e01b1790526115089084906115b5565b604080516001600160a01b0380861660248301528416604482015260648082018490528251808303909101815260849091019091526020810180516001600160e01b03166323b872dd60e01b179052610a089085905b606061160a826040518060400160405280602081526020017f5361666545524332303a206c6f772d6c6576656c2063616c6c206661696c6564815250856001600160a01b03166116669092919063ffffffff16565b8051909150156115085780806020019051602081101561162957600080fd5b50516115085760405162461bcd60e51b815260040180806020018281038252602a815260200180611906602a913960400191505060405180910390fd5b6060611675848460008561167d565b949350505050565b6060824710156116be5760405162461bcd60e51b815260040180806020018281038252602681526020018061189f6026913960400191505060405180910390fd5b6116c7856117ce565b611718576040805162461bcd60e51b815260206004820152601d60248201527f416464726573733a2063616c6c20746f206e6f6e2d636f6e7472616374000000604482015290519081900360640190fd5b60006060866001600160a01b031685876040518082805190602001908083835b602083106117575780518252601f199092019160209182019101611738565b6001836020036101000a03801982511681845116808217855250505050505090500191505060006040518083038185875af1925050503d80600081146117b9576040519150601f19603f3d011682016040523d82523d6000602084013e6117be565b606091505b5091509150610cb58282866117d4565b3b151590565b606083156117e357508161138d565b8251156117f35782518084602001fd5b8160405162461bcd60e51b81526004018080602001828103825283818151815260200191508051906020019080838360005b8381101561183d578181015183820152602001611825565b50505050905090810190601f16801561186a5780820380516001836020036101000a031916815260200191505b509250505060405180910390fdfe4f776e61626c653a206e6577206f776e657220697320746865207a65726f2061646472657373416464726573733a20696e73756666696369656e742062616c616e636520666f722063616c6c536166654d6174683a206d756c7469706c69636174696f6e206f766572666c6f774f776e61626c653a2063616c6c6572206973206e6f7420746865206f776e65725361666545524332303a204552433230206f7065726174696f6e20646964206e6f742073756363656564a2646970667358221220a21dde64c0573381656e817bbcb72d9ae015d9fea5f8fe654b36f43350277a0464736f6c634300060c0033",
  "linkReferences": {},
  "deployedLinkReferences": {}
}